:100000000C949E0B0C94CA0B0C94CA0B0C94CA0B48
:100010000C94CA0B0C94CA0B0C94CA0B0C94CA0B0C
:100020000C94CA0B0C94CA0B0C94CA0B0C94CA0BFC
:100030000C94CA0B0C94CA0B0C94CA0B0C945083EE
:100040000C94CA0B0C94CA0B0C94CA0B0C94CA0BDC
:100050000C94CA0B0C94CA0B0C94CA0B0C94E0D6EB
:100060000C94CA0B0C946C0D0C94AC0D0C94CA0B34
:100070000C94CA0B0C94CA0B0C94CA0B0C94CA0BAC
:100080000C94CA0B0C94CA0B0C94CA0B0C94CA0B9C
:100090000C94FE0D0C943E0E0C94CA0B0C9456D38B
:1000A0000C94CA0B0C94EB800C94CA0B0C94CA0BE6
:1000B0000C94CA0B0C94CA0B0C94CA0B0C94CA0B6C
:1000C0000C94CA0B0C94CA0B0C94CA0B0C94CA0B5C
:1000D0000C94CA0B0C94CA0B0C94900E0C94D00E7A
:1000E0000C94CA0BBD1BDE1B551C131C341C6E1C50
:1000F000871CA01CB91CD71CE81C9A31BB319D3150
:10010000A031A331A631A931AC31AF31B231B53113
:10011000B831965490549F54B454F054DC5407555D
:10012000C854AA55D655DF55E255E555285EE85521
:10013000285E285E285EEB55EE55F15511560F5698
:100140000F560F561D560F5613560F560F56205664
:100150002F56225625560F560F560F5628560F5615
:100160000F560F560F560F562F560F5631566281A7
:1001700067816C81718176817B81808185818A81B3
:100180008F819481E5B8E0B8E9B8EDB8FBB814B94F
:100190003EB94FB98EBA89BA92BA9BBAC2BACEBA30
:1001A000E8BA09BB10BB8BCC8BCCAFCC1ECDF3CC4B
:1001B00039CD54CD81CDBFCD06CE1DD820D813D892
:1001C00017D859D824D828D82ED832D836D83CD8E1
:1001D00040D844D84AD84ED854D8036EDB363D9A1E
:1001E0009999993DABAAAA2A3E000000803F084A8F
:1001F000D73B3BCE016E84BCBFFDC12F3D6C74313B
:100200009ABD56833DDA3D00C77F11BED9E4BB4C91
:100210003E916BAAAABE000000803F072C7AA5BAC7
:100220006CC590DA3B9365FC8BBC53F810FD3C56D3
:1002300092834DBD879D3AB63DCBC9BF5BBE73DA95
:100240000FC93F05A84CCDB2D44EB93836A9020C1F
:1002500050B9918688083CA6AAAA2ABE0000008050
:100260003F08000000BE922449123EABAAAA2ABE53
:10027000CDCCCC4C3E00000080BEABAAAAAA3E006A
:10028000000000BF000000803F00000000000841A7
:1002900078D3BB4387D1133D190E3CC3BD4282AD19
:1002A0002B3E68EC8276BED98FE1A93E4C80EFFFF1
:1002B000BE01C4FF7F3F00000000004C6F67006478
:1002C000756D7000000000000000000000CE316578
:1002D00072617365000000000000000000102A65D4
:1002E0006E61626C6500000000000000005D296422
:1002F000697361626C65000000000000005D2968A0
:10030000656C700000000000000000000020137009
:100310006C616E6E65720067637300000000000020
:100320000000000000F95F7365747570006572610C
:100330007365000000000000000000592972657319
:100340006574000000000000000000E8287261648D
:10035000696F000000000000000000D42766726191
:100360006D6500000000000000000021276D6F7423
:100370006F727300000000000000008C246573633E
:1003800000000000000000000000005E246C6576A4
:10039000656C000000000000000000C8276D6F645D
:1003A00065730000000000000000007025626174A9
:1003B0007465727900000000000000E526736F6E1E
:1003C0006172000000000000000000AF26636F6D46
:1003D0007061737300000000000000672774756E81
:1003E0006500000000000000000000522464656306
:1003F0006C696E6174696F6E0000003D2473686FF4
:1004000077000000000000000000001B244172641F
:1004100075436F707465722056322E302E3434203E
:1004200042657461006C6F6773000000000000009B
:100430000000005C2373657475700000000000000C
:100440000000000D237465737400000000000000BC
:10045000000000072368656C7000000000000000C9
:100460000000002512706C616E6E65720000000065
:10047000000000EF22746573740070776D00000057
:1004800000000000000000006918726164696F00DC
:100490000000000000000000FD176661696C7361D8
:1004A0006665000000000000660F677073000000C2
:1004B00000000000000000006A2261646300000088
:1004C0000000000000000000FC21696D75000000C4
:1004D0000000000000000000E22062617474657298
:1004E0007900000000000000851174756E65000041
:1004F0000000000000000000091D74726900000087
:100500000000000000000000311B63757272656E10
:100510007400000000000000AB1A72656C61790085
:1005200000000000000000002B11776179706F69F6
:100530006E747300000000005016616C746974756D
:1005400064650000000000008515736F6E61720025
:1005500000000000000000006014636F6D706173A4
:100560007300000000000000A813786265650000B9
:100570000000000000000000CF10656564756D701C
:10058000000000000000000047137261776770737D
:100590000000000000000000901048697420456EC3
:1005A00074657220746F20657869742E0A0A0020C1
:1005B0002530327800253034783A00426567696E1C
:1005C000205842656520582D4354552052616E676E
:1005D0006520616E64205253534920546573743A08
:1005E0000A00436F6D706173733A2000486561645F
:1005F000696E673A20256C642C2058595A3A202598
:10060000642C2025642C2025640A0061626C6564DA
:100610000A0064697300656E00536F6E61723A2060
:10062000256420636D0A00536F6E617220646973E4
:1006300061626C65640A004261726F3A20256463EE
:100640006D0A00486974207261643A2025640A00CA
:1006500025642077700A006F662025646D0A000A01
:1006600000486F6C6420616C742000636F6D6D6175
:100670006E6420233A2025642069643A2564206F43
:10068000703A25642070313A25642070323A256C26
:10069000642070333A256C642070343A256C6420F1
:1006A0000A0052656C6179206F66660A0052656CBB
:1006B0006179206F6E0A00563A2025342E34662C5C
:1006C00020413A2025342E34662C206D41683A2092
:1006D00025342E34660A00696E7075743A202564DC
:1006E000096F757470757425640A0074756E653AC7
:1006F0002025312E33660A004E6F7420656E6162CC
:100700006C65640A00256C642C20256C642C202503
:100710006C640A00494D550A004779726F206F6674
:1007200066736574733A2025342E32662C20253486
:100730002E32662C2025342E32660A004163636512
:100740006C206F6666736574733A2025342E3266AA
:100750002C2025342E32662C2025342E32660A00B9
:1007600025752C004144430A004C61743A20256CE5
:10077000642C204C6F6E20256C642C20416C743AE4
:1007800020256C646D2C2023736174733A202564DA
:100790000A00494E2020313A20256409323A2025AA
:1007A0006409333A20256409343A20256409353A2E
:1007B00020256409363A20256409373A2025640A41
:1007C00000494E3A20313A20256409323A20256406
:1007D00009333A20256409343A20256409353A2042
:1007E000256409363A20256409373A2025640938FA
:1007F0003A2025640A00506C616E6E6572204D6F60
:1008000064650A4E6F7420696E74656E6465642059
:10081000666F72206D616E75616C207573650A0A72
:1008200000436F6D6D616E64733A0A20206C6F67D0
:10083000730A202073657475700A202074657374C0
:100840000A2020706C616E6E65720A0A4D6F7665C3
:100850002074686520736C696465207377697463BC
:100860006820616E6420726573657420746F204621
:100870004C592E0A0A000A205479706520277261AB
:1008800064696F2720746F20636F6E666967757285
:1008900065206E6F772E0A0A000A215761726E6911
:1008A0006E672C20796F757220726164696F2069A0
:1008B00073206E6F7420636F6E666967757265640E
:1008C00021005365747570204D6F64650A0A0A0033
:1008D00046572056657273696F6E2025640A005270
:1008E0006164696F0A004348373A202564207C2000
:1008F00025640A004348363A202564207C2025647C
:100900000A004348353A202564207C2025640A00EB
:100910004348343A202564207C2025640A0043485B
:10092000333A202564207C2025640A004348323A6B
:10093000202564207C2025640A004348313A202584
:1009400064207C2025640A0056206D6F64650A00CF
:100950002B206D6F64650A0058206D6F64650A0076
:1009600051756164206672616D650A004672616D41
:10097000650A00766F6C747320616E642063757213
:10098000006261747420766F6C7473003420636548
:100990006C6C7300332063656C6C73000A42617485
:1009A00074204D6F696E746F720A00536F6E6172BE
:1009B0000A00466C69676874206D6F6465730A008D
:1009C0004F46460A004F4E0A002C090953696D70C4
:1009D0006C653A2000506F732025643A09004D6120
:1009E00067206F6666736574733A2025342E34660B
:1009F0002C2025342E34662C2025342E3466004DD0
:100A00006167204465633A2025342E34660A00432A
:100A10006F6D706173730A002025640A000A5455D3
:100A20004E453A0A000A4F7074696F6E733A5B6FF5
:100A30006E2C6F66665D0A006F6666006F6E000A58
:100A40004F7074696F6E733A5B6F6E2C206F6666C1
:100A50005D0A006F6666006F6E000A4F7074696F02
:100A60006E733A206F66662C20312D34006F6666F7
:100A7000000A4D6F7665206D6F6465207377697429
:100A8000636820746F20656469742C2061696C65EB
:100A9000726F6E3A2073656C656374206D6F646568
:100AA000732C207275646465723A2053696D706CA2
:100AB00065206F6E2F6F66660A000A536176656463
:100AC0002053657474696E67730A0A000A455343BC
:100AD0002043616C6962726174696F6E3A0A2D31EC
:100AE00020556E706C75672055534220616E6420EE
:100AF000626174746572790A2D32204D6F766520BB
:100B0000434C492F464C59207377697463682074AD
:100B10006F20464C59206D6F64650A2D33204D6F50
:100B20007665207468726F74746C6520746F206DC4
:100B300061782C20636F6E6E6563742062617474DB
:100B40006572790A2D342041667465722074776F5E
:100B5000206C6F6E672062656570732C20746872FC
:100B60006F74746C6520746F20302C207468656E0F
:100B700020746573740A0A20507265737320456E81
:100B800074657220746F2063616E63656C2E0A0059
:100B90000A4F7074696F6E733A5B782C2B2C765DFC
:100BA0000A0076002B00700078000A4D6F766520F1
:100BB000616C6C20636F6E74726F6C7320746F2045
:100BC000656163682065787472656D652E2048697B
:100BD0007420456E74657220746F20736176653A77
:100BE00020000A464143544F525920524553455420
:100BF00020636F6D706C657465202D207265626F67
:100C00006F742041504D000A275927202B20456E34
:100C100074657220746F20666163746F72792072DC
:100C2000657365742C20616E79206F74686572201D
:100C30006B657920746F2061626F72743A0A006488
:100C40006F6E650A000A45726173696E67204545DB
:100C500050524F4D0A000A436F6D6D616E64733AD6
:100C60000A202064756D70203C6E3E202065726104
:100C700073652028616C6C206C6F6773290A2020D3
:100C8000656E61626C65203C6E616D653E207C2006
:100C9000616C6C0A202064697361626C65203C6E33
:100CA000616D653E207C20616C6C0A0A00656E6196
:100CB000626C65004F5054464C4F57004D4F544F97
:100CC00052530043555200434D4400524157004D8A
:100CD0004F4445004E54554E004354554E00504D20
:100CE000004750530041545449545544455F4D45C5
:100CF000440041545449545544455F4641535400BF
:100D0000616C6C006D697373696E67206C6F67202E
:100D1000747970650A000A4C6F67206572617365AB
:100D2000642E0A000A45726173696E67206C6F67F2
:100D30002E2E2E0A00626164206C6F67202320250E
:100D4000640A004154542C2025642C2025642C2056
:100D500025752C2025642C2025642C2025640A0070
:100D60002C2025640A004D4F443A004354554E2C24
:100D70002025642C2025642C2025642C2025642C1F
:100D80002025642C2025642C2025642C2025640A31
:100D9000004E54554E2C2025642C2025642C2025F3
:100DA000642C2025642C2025640A00504D2C20251D
:100DB000642C2025642C2025642C2025642C2025DF
:100DC000642C2025642C2025642C20256C640A00CA
:100DD0005241572C00434D442C2025642C2025647F
:100DE0002C2025642C2025642C2025642C20256CA7
:100DF000642C20256C642C20256C640A0043555219
:100E0000523A2025642C20256C642C2025342E3465
:100E1000662C2025342E34662C2025640A00535479
:100E20004152542055500A004D4F543A2025642C0D
:100E30002025642C2025642C2025640A004F462C94
:100E40002025642C2025642C2025642C2025342E7C
:100E500037662C2025342E37660A004750532C2045
:100E6000256C642C2025642C2025342E37662C20FC
:100E700025342E37662C2025342E34662C2025343C
:100E80002E34662C2025642C2025750A00585452D7
:100E900041434B5F005448525F484F4C445F004E03
:100EA00041565F4C4F4E5F004E41565F4C41545F80
:100EB00000484C445F4C4F4E5F00484C445F4C41EF
:100EC000545F005354425F5941575F005354425F8F
:100ED0005049545F005354425F524C4C5F005241A2
:100EE00054455F5941575F00524154455F50495442
:100EF0005F00524154455F524C4C5F0052435F4388
:100F0000525F0052435F43505F005243385F0052CC
:100F100043375F005243365F005243355F00524310
:100F2000345F005243335F005243325F005243311B
:100F30005F004C4F575F564F4C5400494E5F564F21
:100F40004C5400464C4F575F454E41424C4500546F
:100F5000425F524154494F004652414D450054555D
:100F60004E4500455343004D41475F454E41424C7D
:100F70004500424154545F43415041434954590054
:100F8000424154545F4D4F4E49544F5200534F4EBF
:100F900041525F454E41424C4500414C545F484FE1
:100FA0004C445F52544C004C4F475F4249544D41B2
:100FB000534B0053494D504C4500464C544D4F4403
:100FC000453600464C544D4F44453500464C544D33
:100FD0004F44453400464C544D4F44453300464C35
:100FE000544D4F44453200464C544D4F444531001A
:100FF0005452494D5F5448524F54544C4500544844
:10100000525F46535F56414C5545005448525F4627
:10101000535F414354494F4E005448525F46414943
:101020004C53414645005448525F4D415800544886
:10103000525F4D494E0057505F53504545445F4DF8
:1010400041580057505F4C4F495445525F524144FC
:101050000057505F5241444955530057505F4D551A
:1010600053545F494E4445580057505F494E4445DC
:10107000580057505F544F54414C0057505F4D4FEC
:101080004445005854524B5F414E474C455F4344E2
:101090000053455249414C335F4241554400535936
:1010A0005349445F4D594743530053595349445F93
:1010B000544849534D41560053595349445F53577F
:1010C0005F545950450053595349445F53575F4D3E
:1010D00052455600524556004D4158005452494D14
:1010E000004D494E00494D41580049005000494DBE
:1010F000555F53454E534F525F43414C004C6F6711
:1011000020232025642C20202020737461727420F9
:1011100025642C202020656E642025640A000A25A1
:1011200064206C6F67730A000A4E6F206C6F6773E0
:101130000A54797065202764756D702030272E0A57
:101140000A00204F5054464C4F5700204D4F544FEB
:101150005253002043555252454E540020434D44B3
:10116000002052415700204E54554E002043545504
:101170004E0020504D002047505300204154544908
:10118000545544455F4D45440020415454495455FD
:1011900044455F46415354006E6F6E65006C6F6747
:1011A0007320656E61626C65643A2000666C6967E5
:1011B000687420706C616E20726563656976656421
:1011C00000616374696F6E2072656365697665643A
:1011D0003A20006572726F723A206E6F6E2D4E610A
:1011E0007620636D64006F7574206F6620636F6D89
:1011F0006D616E64732100776179706F696E742020
:10120000726563656976652074696D656F757400D4
:10121000776179706F696E742073656E642074698C
:101220006D656F75740045585452413300455854EC
:101230005241320045585452413100504F534954A5
:10124000494F4E005241575F4354524C0052435F46
:101250004348414E004558545F5354415400524155
:10126000575F53454E53005352335F005352305F24
:10127000005265616368656420686F6D6500475260
:101280004F554E44205354415254000A456E7465E4
:1012900072696E6720696E746572616374697665E0
:1012A000207365747570206D6F64652E2E2E0A0A8A
:1012B00054797065202768656C702720746F206CE6
:1012C00069737420636F6D6D616E64732C20276584
:1012D0007869742720746F206C65617665206120C1
:1012E0007375626D656E752E0A5669736974207424
:1012F00068652027736574757027206D656E75208D
:10130000666F722066697273742D74696D652063EF
:101310006F6E66696775726174696F6E2E0A0A0076
:10132000506C656173652052756E205365747570DD
:101330002E2E2E0A004669726D77617265206368F1
:10134000616E67653A2065726173696E6720454515
:1013500050524F4D2E2E2E0A000A0A496E697420F3
:1013600041726475436F707465722056322E302E50
:10137000343420426574610A0A4672656520524120
:101380004D3A20256C750A00496E76616C696420BF
:1013900053455249414C335F42415544004C6F67BD
:1013A000732066756C6C000A4750530A0025303371
:1013B000753A25733A20006E6F7420666F756E64FF
:1013C00000253033753A252D33322E3332733A20CF
:1013D00000756E6B6E6F776E2074797065006E6F3E
:1013E0007420666F756E640025733A20006D697312
:1013F00073696E67206E616D65206F722076616C17
:101400007565003F3F00256400256400256C64007D
:10141000256600256600657869740068656C700053
:1014200044454300434F4D504153535F00245047C0
:10143000434D442C31362C302C302C302C302C3079
:101440002A36410D0A0024505542582C34312C3193
:101450002C303030332C303030312C333834303085
:101460002C302A32360024505352463130302C3042
:101470002C33383430302C382C312C302A33430084
:1014800020536952462000204D544B312E36200007
:101490002075626C6F782000204D544B312E342023
:1014A000006661696C65642C207265747279696E7E
:1014B00067004F4B0020002A00496E697420416389
:1014C00063656C002A00496E6974204779726F0069
:1014D0006E616E00696E660000407A10F35A00A0DB
:1014E000724E18090010A5D4E80000E876481700ED
:1014F00000E40B54020000CA9A3B000000E1F5052D
:10150000000080969800000040420F000000A08676
:1015100001000000102700000000E80300000000A8
:101520006400000000000A0000000000010000004C
:1015300000002C76D888DC674F0823DFC1DFAE5966
:10154000E1B1B796E5E3E453C63AE651997696E8F9
:10155000E6C28426EB898C9B62ED407C6FFCEFBC7D
:101560009C9F40F2BAA56FA5F490055A2AF75C93A8
:101570006B6CF9676DC11BFCE0E40D47FEF520E6DE
:10158000B500D0ED902E0300943577050080841EC1
:10159000080000204E0A000000C80C333333330F1C
:1015A000986E12831141EF8D2114893BE65516CFB9
:1015B000FEE6DB18D1844B381BF77C1D901DA4BBC5
:1015C000E424203284725E228100C9F124ECA1E57A
:1015D0003D2700002100240027002A002D003000B4
:1015E000330001010000040107010A01000022008C
:1015F000250028002B002E003100340002010000DD
:10160000050108010B01000020002300260029002D
:101610002C002F0032000001000003010601090127
:1016200005050505070508080808020202020A0A5E
:10163000080804040404010101010101010103037C
:10164000030303030303040707070C0C0C0C0C0C27
:101650000C0C0202020206060606060606060B0B24
:101660000B0B0B0B0B0B0102102020080810204065
:101670001020408002010201080402010102040856
:1016800010204080804020100804020180040201E4
:10169000804020100804020108040201010204082D
:1016A0001020408001020408102040800000090A38
:1016B00002080B0C0D0706030401000000000000E7
:1016C000000000000000000000000000000000001A
:1016D0000000000000000000100F0E0000000000DD
:1016E00000000000000000000000000000000000FA
:1016F0000000494E46494E4954594E414ECDCCCC3E
:101700003D0AD7233C17B7D13877CC2B329595E6D5
:10171000241FB14F0A000020410000C84200401CB5
:101720004620BCBE4CCA1B0E5AAEC59D7400643D1B
:101730000D82888BE4C15AD25D3D818B11241FBE7E
:10174000CFEFD1E2DEBFCDBF00E00CBF15E0A0E0DF
:10175000B2E0EAE3F7EC01E00BBF02C007900D92A4
:10176000A831B107D9F715E1A8E1B5E001C01D9294
:10177000AD3DB107E1F717E1C8E3D7E104C0229717
:10178000FE010E9438DDCE32D107C9F70E94D5D4C0
:101790000C9490E30C940000283008F027E03327E5
:1017A000DA01990F311D87FD916000966105710581
:1017B00039F432602E5F3D9330E32A95E1F70895C6
:1017C0009F3F30F080387105610509F03C5F3C5F58
:1017D0003D93913008F08068911DDF93CF931F9364
:1017E0000F93FF92EF92192F987F9695E92F969578
:1017F0009695E90FFF27EE5CFA4E99273327EE24E2
:10180000FF24A701E70105900894079428F4360FF8
:10181000E71EF81E491F511D660F771F881F991F6D
:101820000694A1F70590079428F4E70EF81E491FC7
:10183000561FC11D770F881F991F661F0694A1F7B9
:101840000590079428F4F80E491F561FC71FD11D95
:10185000880F991F661F771F0694A1F705900794BC
:1018600020F4490F561FC71FD81F990F661F771FF7
:10187000881F0694A9F784911095177041F0D695AA
:10188000C79557954795F794E7941A95C1F7E8EDF2
:10189000F4E16894159015913591659195910590B5
:1018A0007FE27395E118F10A430B560BC90BD0097F
:1018B000C0F7E10CF11E431F561FC91FD01D7EF457
:1018C000703311F48A95E6CFE894015030F0080F98
:1018D0000AF40027021708F4202F2395022F7A33E9
:1018E00028F079E37D932A95E9F710C07D932A9536
:1018F00089F6069497956795379517951794E1188B
:10190000F10A430B560BC90BD00998F023957E9131
:1019100073957A3308F070E37C932013B8F77E91C7
:1019200070617D9330F0839571E37D9370E32A9528
:10193000E1F71124EF90FF900F911F91CF91DF916C
:10194000992787FD90950895FA01AA27283051F12B
:10195000203181F1E8946F936E7F6E5F7F4F8F4FE0
:101960009F4FAF4FB1E03ED0B4E03CD0670F781F3F
:10197000891F9A1FA11D680F791F8A1F911DA11D24
:101980006A0F711D811D911DA11D20D009F468945D
:101990003F912AE0269F11243019305D3193DEF605
:1019A000CF010895462F4770405D4193B3E00FD0BB
:1019B000C9F7F6CF462F4F70405D4A3318F0495DA6
:1019C00031FD4052419302D0A9F7EACFB4E0A69589
:1019D0009795879577956795BA95C9F700976105AB
:1019E000710508959B01AC010A2E06945795479501
:1019F00037952795BA95C9F7620F731F841F951FF6
:101A0000A01D0895CF93DF93FC01EB0142305105F7
:101A100070F0638574858585968520E030E040E828
:101A200054E40E94C9DB0E9411DA7983688382E062
:101A300090E0DF91CF910895CF93DF93EC01FB010C
:101A40004230510518F420E030E012C0608171810D
:101A500080E090E00E943DDA20E030E040E85AE388
:101A60000E94C9DB6B877C878D879E8722E030E0F0
:101A7000C901DF91CF910895DC01FB0183818C9333
:101A8000828111968C931197818112968C93129773
:101A9000808113968C930895DC01FB0187818C93E0
:101AA000868111968C931197858112968C9312974B
:101AB000848113968C931397838114968C93149737
:101AC000828115968C931597818116968C93169723
:101AD000808117968C9308951F920F920FB60F92E4
:101AE0000BB60F9211242F933F934F938F939F9395
:101AF000EF93FF934091C6002091DD133091DE13E8
:101B00002F5F3F4F8091E1139091E21328233923F7
:101B10008091DF139091E0132817390779F08091B5
:101B2000DD139091DE13E091E313F091E413E80FDD
:101B3000F91F40833093DE132093DD13FF91EF9163
:101B40009F918F914F913F912F910F900BBE0F90CE
:101B50000FBE0F901F9018951F920F920FB60F9205
:101B60000BB60F9211242F933F938F939F93EF9374
:101B7000FF932091FF13309100148091FD139091F9
:101B8000FE1328173907E9F08091FF139091001494
:101B9000E0910314F0910414E80FF91F8081809301
:101BA000C6008091FF1390910014019620910114BA
:101BB0003091021482239323909300148093FF1397
:101BC00010C02091FD133091FE138091FF1390916E
:101BD00000142817390729F48091C1008F7D809364
:101BE000C100FF91EF919F918F913F912F910F90A5
:101BF0000BBE0F900FBE0F901F9018951F920F9263
:101C00000FB60F920BB60F9211242F933F934F9361
:101C10008F939F93EF93FF934091CE002091E51314
:101C20003091E6132F5F3F4F8091E9139091EA13B3
:101C3000282339238091E7139091E8132817390757
:101C400079F08091E5139091E613E091EB13F09118
:101C5000EC13E80FF91F40833093E6132093E5134C
:101C6000FF91EF919F918F914F913F912F910F9005
:101C70000BBE0F900FBE0F901F9018951F920F92E2
:101C80000FB60F920BB60F9211242F933F938F93A1
:101C90009F93EF93FF932091071430910814809144
:101CA00005149091061428173907E9F0809107145C
:101CB00090910814E0910B14F0910C14E80FF91FA7
:101CC00080818093CE008091071490910814019632
:101CD0002091091430910A148223932390930814BD
:101CE0008093071410C02091051430910614809140
:101CF0000714909108142817390729F48091C90016
:101D00008F7D8093C900FF91EF919F918F913F91BB
:101D10002F910F900BBE0F900FBE0F901F90189534
:101D20001F920F920FB60F920BB60F9211242F93A2
:101D30003F934F938F939F93EF93FF93409136017F
:101D40002091F5133091F6132F5F3F4F8091F913D7
:101D50009091FA13282339238091F7139091F81367
:101D60002817390779F08091F5139091F613E091D7
:101D7000FB13F091FC13E80FF91F40833093F61327
:101D80002093F513FF91EF919F918F914F913F9188
:101D90002F910F900BBE0F900FBE0F901F901895B4
:101DA0001F920F920FB60F920BB60F9211242F9322
:101DB0003F938F939F93EF93FF932091171430914C
:101DC0001814809115149091161428173907E9F00A
:101DD0008091171490911814E0911B14F0911C1429
:101DE000E80FF91F8081809336018091171490913C
:101DF000181401962091191430911A1482239323F8
:101E0000909318148093171410C0209115143091DA
:101E1000161480911714909118142817390729F473
:101E2000809131018F7D80933101FF91EF919F91DE
:101E30008F913F912F910F900BBE0F900FBE0F907F
:101E40001F901895FC017183608385E068317807E5
:101E500039F470931E1460931D141386128608C003
:101E60007093201460931F1481E090E09387828721
:101E700013821282089520916D0C30916E0CC9016D
:101E80008F5C94408238910510F481E00895C90177
:101E9000815595408238910510F482E00895C9017A
:101EA000835D95408238910510F483E00895C9015F
:101EB000855596408138910510F484E00895265D9B
:101EC000364014F480E0089585E0089580E0089598
:101ED000FC01DB01452B11F083858C9381E090E0C0
:101EE0000895DC01FB01452B19F080811B968C9332
:101EF00081E090E00895FC016385772767FD709588
:101F0000872F972F0E943FDA0895FC01DB014230B2
:101F1000510520F0838594858D939C9382E090E019
:101F20000895DC01FB014230510530F08081918140
:101F30001C969C938E931B9782E090E00895FC0181
:101F400063857485882777FD8095982F0E943FDAF6
:101F50000895FC012385348545855685B901CA015C
:101F60000895CF93DF93FC01EB014430510540F01D
:101F700083859485A585B68588839983AA83BB8349
:101F800084E090E0DF91CF910895CF93DF93EC014F
:101F9000FB014430510540F080819181A281B381E1
:101FA0008B879C87AD87BE8784E090E0DF91CF91DF
:101FB0000895E0911311F091141187A990AD81302B
:101FC000910539F00297F9F483E261E00E945AD852
:101FD000089581A58823D9F090E080917911882314
:101FE00009F491E090937911992319F083E260E06C
:101FF00002C083E261E00E945AD8E0911311F0918F
:10200000141111A6089583E260E00E945AD8089541
:102010008BE360E00E945AD808958BE361E00E9450
:102020005AD808950E940D1064E670E080E090E0B8
:102030000E945CD70E940810089585E260E00E942B
:102040005AD884E260E00E945AD883E260E00E949D
:102050005AD81092C8121092301208958091EB1243
:102060008F5F8093EB128150833011F41092EB124A
:102070008091EB12813059F0813018F08230C1F438
:102080000FC083E260E00E945AD885E205C085E275
:1020900060E00E945AD884E261E00E945AD8089514
:1020A00084E260E00E945AD883E261E00E945AD83C
:1020B00008958091B412813079F484E461E00E9443
:1020C0005AD882E461E00E945AD880E461E00E941C
:1020D0005AD88EE361E00EC084E460E00E945AD8D2
:1020E00082E460E00E945AD880E460E00E945AD8FE
:1020F0008EE360E00E945AD8089500D00F9288E1E4
:1021000095E0EDB7FEB7928381838AE995E09483E9
:1021100083830E9425C50F900F900F900F90089514
:102120000E947D1068EE73E080E090E00E945CD732
:102130008CE395E00E949CC5892B89F084E261E0E4
:102140000E945AD88CE395E00E94CCC5682F8AE2A1
:1021500095E00E942DC684E260E00E945AD88AE28F
:1021600095E00E949CC5892B89F083E261E00E9482
:102170005AD88AE295E00E94CCC5682F8CE395E09E
:102180000E942DC683E260E00E945AD888E195E063
:102190000E949CC5181619065CF680E008950E94FE
:1021A0007D1068EE73E080E090E00E945CD700D084
:1021B0000F9288E195E0EDB7FEB7928381838BEBB8
:1021C00095E0948383830E9425C50F900F900F9014
:1021D0000F908CE395E00E949CC5892B49F08CE31D
:1021E00095E00E94CCC5682F8CE395E00E942DC637
:1021F00088E195E00E949CC51816190654F780E006
:10220000089528E135E0882349F000D00F92EDB71A
:10221000FEB73283218386E196E008C000D00F929A
:10222000EDB7FEB73283218382E196E09483838306
:102230000E9425C588E195E0EDB7FEB792838183C2
:102240008BE096E0948383830E9425C50F900F90C6
:102250000F900F900895EF92FF920F931F93CF93DB
:10226000DF930E947D1068EE73E080E090E00E94B2
:102270005CD78DEAE82E86E0F82E02EA16E0C8E187
:10228000D5E000D00F92EDB7FEB7D283C183F482C0
:10229000E3820E9425C580910B01846080930B012D
:1022A0000F900F900F900F9068EB7BE080E090E034
:1022B0000E945CD7CE010E949CC518161906FCF03E
:1022C00000D00F92EDB7FEB7D283C183148303838E
:1022D0000E9425C580910B018B7F80930B010F908D
:1022E0000F900F900F9068EB7BE080E090E00E94F1
:1022F0005CD7CE010E949CC51816190614F680E022
:10230000CDB7DEB7E6E00C9427DD00D00F9288E170
:1023100095E0EDB7FEB79283818388EF96E09483D2
:1023200083830E9425C50F900F900F900F9080E03F
:1023300008958DB79EB740970FB6F8949EBF0FBE15
:102340008DBFEDB7FEB7319688E195E0ADB7BEB76A
:1023500012969C938E93119789E197E093838283E1
:1023600080917D0790917E07A0917F07B0918007B3
:1023700084839583A683B783809181079091820798
:10238000A0918307B091840780879187A287B38744
:102390008091850790918607A0918707B091880763
:1023A00084879587A687B7870E9425C58DB79EB776
:1023B00040960FB6F8949EBF0FBE8DBF08958DB79F
:1023C0009EB740970FB6F8949EBF0FBE8DBFEDB776
:1023D000FEB7319688E195E0ADB7BEB712969C93F3
:1023E0008E9311978CE397E0938382838091890782
:1023F00090918A07A0918B07B0918C078483958375
:10240000A683B78380918D0790918E07A0918F0747
:10241000B091900780879187A287B38780919107B9
:1024200090919207A0919307B09194078487958724
:10243000A687B7870E9425C58DB79EB740960FB671
:10244000F8949EBF0FBE8DBF089500D00F9288E113
:1024500095E0EDB7FEB79283818381E298E09483A3
:1024600083830E9425C50F900F900F900F9080E0FE
:1024700008950F931F938DB79EB708970FB6F894E2
:102480009EBF0FBE8DBFEDB7FEB7319608E115E0D8
:10249000ADB7BEB712961C930E9311978AE399E0DD
:1024A000938382838091340B9091350B9583848341
:1024B00080914E0B90914F0B978386830E9425C588
:1024C000EDB7FEB73196ADB7BEB712961C930E931B
:1024D00011978CE299E0938382838091880B90918D
:1024E000890B958384838091A20B9091A30B978392
:1024F00086830E9425C5EDB7FEB73196ADB7BEB74E
:1025000012961C930E9311978EE199E09383828328
:102510008091DC0B9091DD0B958384838091F60B89
:102520009091F70B978386830E9425C5EDB7FEB780
:102530003196ADB7BEB712961C930E93119780E1FA
:1025400099E0938382838091300C9091310C958334
:10255000848380914A0C90914B0C978386830E94D0
:1025600025C5EDB7FEB73196ADB7BEB712961C9331
:102570000E93119782E099E0938382838091840C7B
:102580009091850C9583848380919E0C90919F0CF3
:10259000978386830E9425C5EDB7FEB73196ADB708
:1025A000BEB712961C930E93119784EF98E0938315
:1025B00082838091D80C9091D90C958384838091EB
:1025C000F20C9091F30C978386830E9425C5EDB79A
:1025D000FEB73196ADB7BEB712961C930E93119706
:1025E00086EE98E09383828380912C0D90912D0D3F
:1025F000958384838091460D9091470D97838683C0
:102600000E9425C58DB79EB708960FB6F8949EBF59
:102610000FBE8DBF1F910F91089500D00F9288E1DA
:1026200095E0EDB7FEB7928381838AEB9AE09483BD
:1026300083830E9425C50F900F900F900F900895EF
:1026400000D00F9288E195E0EDB7FEB792838183C9
:1026500086E59CE0948383830E9425C50F900F90AC
:102660000F900F9080E0089500D00F9288E195E0E0
:10267000EDB7FEB7928381838EE19EE094838383DE
:102680000E9425C50F900F900F900F900895A0E025
:10269000B0E0EDE4F3E10C9407DD35EBA32E35E07B
:1026A000B32E2FEAC22E25E0D22E00E010E098E1F2
:1026B000E92E95E0F92E00D000D0EDB7FEB73196A7
:1026C000ADB7BEB71296FC92EE921197B382A2827A
:1026D000158304830E9425C5C0E0D0E08DB79EB766
:1026E00006960FB6F8949EBF0FBE8DBFCE01800F29
:1026F000911F0E94A8E100D000D0EDB7FEB731963F
:10270000ADB7BEB71296FC92EE921197D382C282F9
:10271000848315820E9425C521968DB79EB70696A3
:102720000FB6F8949EBF0FBE8DBFC031D105F1F634
:10273000C7010E94E1D5005F1F4F90E100301907EB
:1027400009F0B9CF80E0CDB7DEB7EAE00C9423DD25
:10275000A4E2B0E0EEEAF3E10C9407DD8091B40A64
:10276000882309F493C00E947D105CEEA52E55E0ED
:10277000B52E6E010894C11CD11C48E1E42E45E041
:10278000F42E64E670E080E090E00E945CD784EB79
:1027900095E00E940991D601E6ECF7E084E2019011
:1027A0000D928150E1F784EB95E0B6010E94E49D23
:1027B00084EB95E00E94C9956091BE057091BF05BC
:1027C0008091C0059091C10521EE3EE245E652E4BC
:1027D0000E94C9DB20E030E048EC52E40E94C9DBF3
:1027E0000E940CDA613A2CE8720720E0820720E0B0
:1027F00092072CF0605A7C488040904006C097FFBA
:1028000004C0605673478F4F9F4FEDB7FEB73E979A
:102810000FB6F894FEBF0FBEEDBF0DB71EB70F5F2A
:102820001F4FF282E182F801B382A28224E630E0F7
:1028300040E050E00E94E4DCF801248335834683C5
:1028400057838091B8059091B905918780878091D1
:10285000BA059091BB05938782878091BC059091C2
:10286000BD05958784870E9425C52DB73EB7225F99
:102870003F4F0FB6F8943EBF0FBE2DBFC7010E9459
:102880009CC5181619060CF07CCF15C000D00F920D
:1028900088E195E0EDB7FEB79283818382EE95E003
:1028A000948383830E9425C50F900F900F900F9003
:1028B00080E00E94011180E0A496EAE00C9423DD00
:1028C0000F931F93CF93DF9380918F0A8823B9F4DE
:1028D00000D00F9288E195E0ADB7BEB712969C93F9
:1028E0008E93119787E296E014969C938E9313979C
:1028F0000E9425C50F900F900F900F902FC00E943F
:102900007D1009E116E0C8E1D5E064E670E080E002
:1029100090E00E945CD786E099E00E9499C100D0C7
:1029200000D0EDB7FEB73196ADB7BEB71296DC93C7
:10293000CE93119713830283958384830E9425C5C8
:10294000EDB7FEB736960FB6F894FEBF0FBEEDBFDB
:10295000CE010E949CC518161906BCF680E0DF91D6
:10296000CF911F910F910895EF92FF920F931F93B4
:10297000CF93DF938091580590915905909347111B
:1029800080934611C0E0D0E064E170E080E090E028
:102990000E945CD780E595E00E94757F2196CC333C
:1029A000D10591F7C0E0D0E064E170E080E090E014
:1029B0000E945CD780E595E00E94757FE0905A0503
:1029C000F0905B0500915C0510915D05E092481167
:1029D000F092491100934A1110934B112091461126
:1029E00030914711C90163E0880F991F6A95E1F79B
:1029F000820F931F2091580530915905820F931F24
:102A00006AE070E00E94AFDC70934711609346115A
:102A10002196C431D10541F6E0924C11F0924D114E
:102A200000934E1110934F11CDB7DEB7E6E00C9432
:102A300027DDAF92BF92CF92DF92EF92FF920F937A
:102A40001F9380E595E00E94757FE0905A05F09015
:102A50005B0500915C0510915D05E0924C11F092D0
:102A60004D1100934E1110934F11609148117091C8
:102A7000491180914A1190914B110E943FDA5B01FC
:102A80006C01C801B7010E943FDA9B01AC01C6018D
:102A9000B5010E94A4D90E9489DB7B018C01609161
:102AA000461170914711882777FD8095982F0E94D5
:102AB0003FDA20E030E040E251E40E94A4D923E371
:102AC00033E948E853E40E94C0D89B01AC01C80137
:102AD000B7010E94C9DB29E83EEA44EE56E40E94B1
:102AE000C9DB20E030E040E251E40E94A4D90E941A
:102AF0000CDA9B01AC01CA011F910F91FF90EF907E
:102B0000DF90CF90BF90AF9008950F931F93CF9316
:102B1000DF930E947D100E94B41407E316E0C8E121
:102B2000D5E064E670E080E090E00E945CD70E940F
:102B30001915709345116093441100D000D0EDB782
:102B4000FEB73196ADB7BEB71296DC93CE93119710
:102B500013830283758364830E9425C58DB79EB756
:102B600006960FB6F8949EBF0FBE8DBFCE010E9491
:102B70009CC518161906ACF680E0DF91CF911F9125
:102B80000F910895A0E0B0E0E8ECF5E10C9406DDCB
:102B9000EC0180918C09992787FD909586179707FE
:102BA00014F4188277C0CB01E4E0880F991FEA95EE
:102BB000E1F7861B970B80509C4F5C01CC24B7FC3F
:102BC000C094DC2C0E94A8E18883860175010894DA
:102BD000E11CF11C011D111DC7010E94A8E1982EE6
:102BE00089830894E11CF11C011D111DC7010E947D
:102BF000A8E18A830894E11CF11C011D111DC70185
:102C00000E94B0E16B837C838D839E8387E090E09C
:102C1000A0E0B0E0A80EB91ECA1EDB1EC5010E94CE
:102C2000B0E17B018C01EF82F88609871A8784E086
:102C300090E0A0E0B0E0A80EB91ECA1EDB1EC501E0
:102C40000E94B0E19B01AC012B873C874D875E87DA
:102C500094FE20C08091571190915811A091591164
:102C6000B0915A11E80EF91E0A1F1B1FEF82F88659
:102C700009871A8780915B1190915C11A0915D1179
:102C8000B0915E11280F391F4A1F5B1F2B873C87AD
:102C90004D875E87CE01CDB7DEB7EBE00C9422DD29
:102CA0008F929F92AF92BF92DF92EF92FF920F931B
:102CB0001F93DF93CF93CDB7DEB72F970FB6F8945E
:102CC000DEBF0FBECDBF68EE73E080E090E00E94F3
:102CD0005CD700D00F9208E115E0ADB7BEB71296F1
:102CE0001C930E93119781E696E014969C938E9315
:102CF00013970E9425C52091820A3091830A0F9074
:102D00000F900F900F9037FF11C000D00F92EDB7CA
:102D1000FEB7128301838FE596E0948383830E943C
:102D200025C50F900F900F900F9020C000D000D0BD
:102D3000EDB7FEB73196ADB7BEB712961C930E93A2
:102D4000119787E596E093838283C90164E670E07A
:102D50000E94AFDC758364830E9425C5EDB7FEB782
:102D600036960FB6F894FEBF0FBEEDBF00D000D070
:102D7000EDB7FEB7319608E115E0ADB7BEB71296D4
:102D80001C930E93119780E596E093838283809144
:102D90008C09992787FD9095958384830E9425C58A
:102DA000EDB7FEB73196ADB7BEB712961C930E9332
:102DB000119783E496E0938382838091B0099927E9
:102DC00087FD9095958384830E9425C5FBE68F2E11
:102DD000F6E09F2EFF24EDB7FEB736960FB6F894B7
:102DE000FEBF0FBEEDBF5E010894A11CB11CD02E2A
:102DF000E12E46C0C501B8010E94C2158DB79EB72D
:102E000048970FB6F8949EBF0FBE8DBFEDB7FEB7C3
:102E10003196ADB7BEB71196DC9211971296EC922F
:102E200093828282158304838981868317828A81B3
:102E3000808711868B81828713868C819D81AE81EC
:102E4000BF8184879587A687B78788859985AA8556
:102E5000BB85808B918BA28BB38B8C859D85AE853A
:102E6000BF85848B958BA68BB78B0E9425C5F39469
:102E7000EDB7FEB778960FB6F894FEBF0FBEEDBF64
:102E80000F2D10E080918C09992787FD9095801770
:102E900091070CF0AFCF80E02F960FB6F894DEBF0D
:102EA0000FBECDBFCF91DF911F910F91FF90EF909B
:102EB000DF90BF90AF909F908F9008950F931F93D6
:102EC00002EF12E14091DC0B5091DD0BC80160E094
:102ED0000E944A814091DC0B5091DD0BC80161E0FA
:102EE0000E944A814091DC0B5091DD0BC80162E0E9
:102EF0000E944A814091DC0B5091DD0BC80163E0D8
:102F00000E944A814091DC0B5091DD0BC80166E0C4
:102F10000E944A814091DC0B5091DD0BC80167E0B3
:102F20000E944A811F910F91089582EF92E10E94C1
:102F3000CA81813009F060C08093671182EF92E10D
:102F400060E00E949981BC0182E19BE00E9468D010
:102F500082EF92E161E00E949981BC0186E69BE0EC
:102F60000E9468D082EF92E162E00E949981BC01E8
:102F70008AEB9BE00E9468D082EF92E163E00E94BE
:102F80009981BC018EE09CE00E9468D082EF92E1C2
:102F900064E00E949981BC0182E69CE00E9468D0B6
:102FA00082EF92E165E00E949981BC0186EB9CE092
:102FB0000E9468D082EF92E166E00E949981BC0194
:102FC0008AE09DE00E9468D082EF92E167E00E9473
:102FD0009981BC018EE59DE00E9468D08091C70B6D
:102FE0009091C80B23E08132920714F080E293E0C5
:102FF0009093C80B8093C70B08950F931F93CF93A3
:10300000DF930E947D1068EE73E080E090E00E9404
:103010005CD702E917E0C8E1D5E064E170E080E048
:1030200090E00E945CD70E9495178DB79EB742979B
:103030000FB6F8949EBF0FBE8DBFEDB7FEB73196A9
:10304000ADB7BEB71296DC93CE931197138302836C
:1030500080911F0B9091200B958384838091730B3B
:103060009091740B978386838091C70B9091C80BC6
:103070009187808780911B0C90911C0C938782878D
:1030800080916F0C9091700C958784878091C30C10
:103090009091C40C978786878091170D9091180D99
:1030A000918B808B0E9425C58DB79EB742960FB637
:1030B000F8949EBF0FBE8DBFCE010E949CC518160E
:1030C00019060CF0AACF80E0DF91CF911F910F91EC
:1030D00008950F931F93CF93DF930E947D1068EEA6
:1030E00073E080E090E00E945CD701EC17E0C8E15B
:1030F000D5E064E170E080E090E00E945CD70E943F
:1031000095178DB79EB744970FB6F8949EBF0FBE24
:103110008DBFEDB7FEB73196ADB7BEB71296DC9353
:10312000CE9311971383028380911D0B90911E0BF8
:10313000958384838091710B9091720B9783868322
:103140008091C50B9091C60B918780878091190C57
:1031500090911A0C9387828780916D0C90916E0CE0
:10316000958784878091C10C9091C20C9787868740
:103170008091150D9091160D918B808B8091690D2A
:1031800090916A0D938B828B0E9425C58DB79EB757
:1031900044960FB6F8949EBF0FBE8DBFCE010E941D
:1031A0009CC5181619060CF0A4CF80E0DF91CF91D2
:1031B0001F910F910895EF92FF920F931F9380E05C
:1031C0000E94ACD6AA2797FDA095BA2FBC01CD01CD
:1031D0000E943FDA7B018C016091FF0A7091000B25
:1031E0008091010B9091020B20E030E040E85AE31F
:1031F0000E94C9DB9B01AC01C801B7010E94C9DB79
:103200002AE037ED43E650E40E94C9DB2DEC3CECAC
:103210004CEC5DE30E94C9DB7B018C0160914B03A8
:1032200070914C0380914D0390914E0326E636E653
:1032300046E65FE30E94C9DB9B01AC01C801B70110
:103240000E94C0D860934B0370934C0380934D034E
:1032500090934E0381E00E94ACD6AA2797FDA095DB
:10326000BA2FBC01CD010E943FDA7B018C01609135
:10327000FF0A7091000B8091010B9091020B20E0EE
:1032800030E040E85AE30E94C9DB9B01AC01C80171
:10329000B7010E94C9DB2AE037ED43E650E40E9403
:1032A000C9DB2DEC3CEC4CEC5DE30E94C9DB7B01FF
:1032B0008C0160914F037091500380915103909164
:1032C000520326E636E646E65FE30E94C9DB9B0131
:1032D000AC01C801B7010E94C0D860934F0370933E
:1032E0005003809351039093520382E00E94ACD626
:1032F000AA2797FDA095BA2FBC01CD010E943FDA05
:103300007B018C016091FF0A7091000B8091010B91
:103310009091020B20E030E040E85AE30E94C9DBC4
:103320009B01AC01C801B7010E94C9DB2AE037ED5F
:1033300043E650E40E94C9DB2DEC3CEC4CEC5DE331
:103340000E94C9DB7B018C0160915303709154038F
:10335000809155039091560326E636E646E65FE3F4
:103360000E94C9DB9B01AC01C801B7010E94C0D813
:1033700060935303709354038093550390935603C3
:1033800083E00E94ACD6AA2797FDA095BA2FBC0176
:10339000CD010E943FDA7B018C016091FF0A7091A0
:1033A000000B8091010B9091020B20E030E040E88F
:1033B0005AE30E94C9DB9B01AC01C801B7010E941E
:1033C000C9DB2AE037ED43E650E40E94C9DB2DEC6F
:1033D0003CEC4CEC5DE30E94C9DB7B018C0160910D
:1033E0005703709158038091590390915A0326E630
:1033F00036E646E65FE30E94C9DB9B01AC01C801EB
:10340000B7010E94C0D87B018C01CB01D801809309
:10341000570390935803A0935903B0935A032091F4
:103420009B0A213049F48091530390915403A09159
:103430005503B091560304C0223059F4C701D80196
:103440008093470390934803A0934903B0934A03A2
:103450007DC0233019F0243009F078C080914B03EF
:1034600090914C03A0914D03B0914E03809347037C
:1034700090934803A0934903B0934A03243009F082
:1034800065C081E00E94ACD6AA2797FDA095BA2F0F
:10349000BC01CD010E943FDA7B018C016091FF0AE3
:1034A0007091000B8091010B9091020B20E030E0B5
:1034B00040E85AE30E94C9DB9B01AC01C801B70197
:1034C0000E94C9DB2CE53FE84AED51E40E94C9DBCC
:1034D0002DEC3CEC4CEC5DE30E94C9DB7B018C01E4
:1034E00060915F11709160118091611190916211F2
:1034F00026E636E646E65FE30E94C9DB9B01AC01A7
:10350000C801B7010E94C0D860935F117093601129
:10351000809361119093621123ED3CEB43EE5CE3E9
:103520000E94C9DB9B01AC01609163117091641131
:1035300080916511909166110E94C0D860936311CB
:103540007093641180936511909366111F910F9190
:10355000FF90EF9008950F931F93CF93DF930E94F6
:103560007D1007EB16E0C8E1D5E064E670E080E08E
:1035700090E00E945CD70E9495170E94DB188DB7DF
:103580009EB740970FB6F8949EBF0FBE8DBFEDB7A4
:10359000FEB73196ADB7BEB71296DC93CE931197B6
:1035A000138302838091470390914803A0914903BC
:1035B000B0914A0384839583A683B78380915F117A
:1035C00090916011A0916111B091621180879187F3
:1035D000A287B3878091631190916411A0916511C6
:1035E000B091661184879587A687B7870E9425C505
:1035F0008DB79EB740960FB6F8949EBF0FBE8DBF95
:103600004091C50B5091C60B82EF92E160E00E94A1
:103610004A814091C50B5091C60B82EF92E161E067
:103620000E944A814091C50B5091C60B82EF92E1F6
:1036300062E00E944A814091C50B5091C60B82EF17
:1036400092E163E00E944A81CE010E949CC5181657
:1036500019060CF08ACF80E0DF91CF911F910F9176
:1036600008950F931F93CF93DF930E947D1068EE10
:1036700073E080E090E00E945CD707ED16E0C8E1BF
:10368000D5E064E170E080E090E00E945CD70E94A9
:10369000951780911B0C90911C0C9093200C80939B
:1036A0001F0C8EE09CE00E94DCD08DB79EB708977F
:1036B0000FB6F8949EBF0FBE8DBFEDB7FEB7319623
:1036C000ADB7BEB71296DC93CE93119713830283E6
:1036D00080911B0C90911C0C958384838091230C0A
:1036E0009091240C978386830E9425C58DB79EB741
:1036F00008960FB6F8949EBF0FBE8DBF4091230C65
:103700005091240C82EF92E166E00E944A81CE0142
:103710000E949CC5181619060CF0B3CF80E0DF910B
:10372000CF911F910F9108956091C30C7091C40CBB
:10373000882777FD8095982F0E943FDA20E030E0BF
:103740004AE754E40E94A4D96093240970932509A0
:1037500080932609909327098091CC0A992787FDA9
:103760009095A92FB92FFC013197EB30F10508F0A6
:103770004FC1EE58FF4F0C9436DD86EB9CE060E0C5
:1037800070E040E45FE10E9408CF809124099091AD
:103790002509A0912609B091270980931E0F9093C7
:1037A0001F0FA093200FB093210F8093580F909379
:1037B000590FA0935A0FB0935B0F089586EB9CE0CE
:1037C00060E070E04CE251E00E9408CF6091C30CD1
:1037D0007091C40C882777FD8095982F0E943FDA5E
:1037E00020E030E04AE754E40E94A4D9DC019B01C8
:1037F000AC01209324093093250940932609509366
:10380000270920932D0F30932E0F40932F0F5093A5
:10381000300FCB018093670F9093680FA093690FCF
:10382000B0936A0F089586EB9CE060E070E04CE294
:1038300051E00E9408CF8091240990912509A09120
:103840002609B09127098093700E9093710EA09372
:10385000720EB093730E8093AA0E9093AB0EA0934A
:10386000AC0EB093AD0E089586EB9CE060E070E086
:103870004CE251E00E9408CF8091240990912509E3
:10388000A0912609B091270980937F0E9093800E16
:10389000A093810EB093820E8093B90E9093BA0ECE
:1038A000A093BB0EB093BC0E089586EB9CE060E045
:1038B00070E048EE53E00E9408CF80912409909177
:1038C0002509A0912609B09127098093920F909322
:1038D000930FA093940FB093950F089586EB9CE0FF
:1038E00060E070E048EE53E00E9408CF8091240928
:1038F00090912509A0912609B09127098093E40EA3
:103900009093E50EA093E60EB093E70E089586EB34
:103910009CE060E070E048EE53E00E9408CF8091A8
:10392000240990912509A0912609B0912709809337
:10393000B4109093B510A093B610B093B71008953B
:1039400086EB9CE060E273E048EE53E00E9408CF13
:103950008091240990912509A0912609B091270909
:103960008093E40A9093E50AA093E60AB093E70AED
:10397000089586EB9CE060E070E048EE53E00E9422
:1039800008CF2091C30C3091C40C82E02E30380750
:103990002CF080910B01846080930B012B5D3140F2
:1039A000BCF580910B018B7F80930B01089586EB12
:1039B0009CE060E070E048EE53E00E9408CF809108
:1039C000C30C9091C40C9093C9098093C8090895C1
:1039D00086EB9CE060E070E040E757E10E9408CF92
:1039E0008091240990912509A0912609B091270979
:1039F0008093401090934110A0934210B0934310D5
:103A000080937A1090937B10A0937C10B0937D10DC
:103A100008950F931F93CF93DF930E947D100BEEB9
:103A200016E0C8E1D5E068EC70E080E090E00E942C
:103A30005CD70E9495170E94941B8DB79EB708977C
:103A40000FB6F8949EBF0FBE8DBFEDB7FEB731968F
:103A5000ADB7BEB71296DC93CE9311971383028352
:103A60008091240990912509A0912609B0912709F8
:103A700084839583A683B7830E9425C58DB79EB79F
:103A800008960FB6F8949EBF0FBE8DBFCE010E9460
:103A90009CC5181619063CF680E0DF91CF911F9166
:103AA0000F9108958091271290912812892B09F483
:103AB0005AC00E9428D720912112309122124091A1
:103AC000231250912412621B730B840B950B2091CF
:103AD00025123091261240E050E0621773078407E8
:103AE000950708F440C037C001979093281280933F
:103AF00027128091271290912812892BA1F10E9400
:103B000028D76093211270932212809323129093EE
:103B1000241260912012862F8450843088F4809182
:103B2000271280FF05C04091291250912A1204C02B
:103B300040912B1250912C1282EF92E10E944A8107
:103B400080912012853079F480910B0194E08927CF
:103B500080930B01089580912712909128121816D6
:103B6000190614F2C6CF08950F931F93CF93DF93D6
:103B7000062F142F00D000D0EDB7FEB73196C8E164
:103B8000D5E0ADB7BEB71296DC93CE93119725ED75
:103B900039E033832283848315820E9425C5EDB7E3
:103BA000FEB736960FB6F894FEBF0FBEEDBFE02FFE
:103BB000F0E0EE0FFF1FE255FC4F60817181CE01F6
:103BC0000E9411D500D00F92ADB7BEB71296DC930C
:103BD000CE93119789EC99E014969C938E9313974A
:103BE0000E9425C50F900F900F900F90112359F050
:103BF00000D00F92EDB7FEB7D283C18385EC99E078
:103C0000948383830EC000D00F92ADB7BEB71296D7
:103C1000DC93CE93119780EC99E014969C938E934D
:103C200013970E9425C50F900F900F900F90DF9172
:103C3000CF911F910F910895CF93DF93C0E0D0E013
:103C400088E195E060E072E00E9411D52196C832CB
:103C5000D105B1F788E195E062E072E00E94F8D505
:103C6000DF91CF910895CF93DF93EC0107C02197A7
:103C700088E195E062E072E00E94F8D51C161D060E
:103C8000B4F3DF91CF91089500D00F9288E195E0D1
:103C9000EDB7FEB79283818384E197E094838383B9
:103CA0000E9425C50F900F900F900F900E941C1E30
:103CB0000E9499110E94DF1182E090E00E94331E61
:103CC000089500D000D0EDB7FEB7319688E195E0B9
:103CD000ADB7BEB712969C938E93119780ED98E086
:103CE00093838283809134099091350995838483ED
:103CF0000E9425C58DB79EB706960FB6F8949EBF55
:103D00000FBE8DBF0E941C1E82E090E00E94331EF9
:103D1000089500D00F9288E195E0EDB7FEB7928349
:103D200081838FED98E0948383830E9425C50F9053
:103D30000F900F900F900E941C1E0E94391282E07B
:103D400090E00E94331E0895CF93DF9300D00F922E
:103D5000C8E1D5E0EDB7FEB7D283C1838CE699E028
:103D6000948383830E9425C50F900F900F900F902E
:103D70000E941C1E00D00F92EDB7FEB7D283C18304
:103D800080E699E0948383830E9425C58091D80AB8
:103D90000F900F900F900F90813049F400D00F9248
:103DA000EDB7FEB7D283C18388E599E015C08823BB
:103DB00049F400D00F92EDB7FEB7D283C18380E5FE
:103DC00099E00AC0823081F400D00F92EDB7FEB7BF
:103DD000D283C18388E499E0948383830E9425C5BC
:103DE0000F900F900F900F9082E090E00E94331E92
:103DF000DF91CF91089500D00F9288E195E0EDB763
:103E0000FEB7928381838CE999E0948383830E9437
:103E100025C50F900F900F900F900E941C1E80914F
:103E20009B0A882311F40E94011180919B0A813022
:103E300091F400D00F9288E195E0EDB7FEB7928340
:103E4000818384E999E0948383830E9425C50F9040
:103E50000F900F900F9080919B0A823091F400D0C8
:103E60000F9288E195E0EDB7FEB7928381838CE8ED
:103E700099E0948383830E9425C50F900F900F9043
:103E80000F9080919B0A833091F400D00F9288E1CB
:103E900095E0EDB7FEB79283818381E899E0948342
:103EA00083830E9425C50F900F900F900F908091F3
:103EB0009B0A843091F400D00F9288E195E0EDB731
:103EC000FEB79283818383E799E0948383830E9482
:103ED00025C50F900F900F900F9082E090E00E9408
:103EE000331E08950F931F93CF93DF9300D00F924B
:103EF00088E195E0EDB7FEB79283818382EB99E08C
:103F0000948383830E9425C50F900F900F900F908C
:103F10000E941C1E01E21AE0C0E0D0E04091690A54
:103F2000552747FD50950C2E02C0559547950A948C
:103F3000E2F7417050708C2FF80160810E94B41D2F
:103F40002196045F1F4FC630D10541F782E090E013
:103F50000E94331EDF91CF911F910F910895CF934F
:103F6000DF9300D00F92C8E1D5E0ADB7BEB712968F
:103F7000DC93CE9311978DE19AE014969C938E93E7
:103F800013970E9425C50F900F900F900F900E94DD
:103F90001C1E2091CC0A222321F480E00E940111F2
:103FA0001FC000D000D0EDB7FEB73196ADB7BEB799
:103FB0001296DC93CE93119788E19AE093838283E3
:103FC000822F992787FD9095958384830E9425C52C
:103FD000EDB7FEB736960FB6F894FEBF0FBEEDBF35
:103FE00082E090E00E94331EDF91CF91089500D0CF
:103FF0000F9288E195E0EDB7FEB79283818387EA5F
:1040000093E1948383830E9425C50F900F900F90B6
:104010000F900E941C1E8091B6120E94011182E036
:1040200090E00E94331E0895ACE0B0E0EAE1F0E2D7
:104030000C940FDD85E997E00E9446B1DE011196F0
:10404000EAE1F8E08CE001900D928150E1F7A5E102
:10405000B1E1FE0131968CE001900D928150E1F7C3
:104060002C96E2E00C942BDDA0E3B0E0EAE3F0E272
:104070000C94FFDCDE011196E6ECF7E084E201909F
:104080000D928150E1F729803A804B805C806D84ED
:104090007E848F849888A98CBA8CCB8CDC8C89A187
:1040A0009AA1ABA1BCA189A79AA7ABA7BCA78D8DEC
:1040B0009E8DAF8DB8A18DA39EA3AFA3B8A7C2015B
:1040C000B101A20191010E94C9DB7B018C01C401F5
:1040D000B301A40193010E94C9DB9B01AC01C8019B
:1040E000B7010E94C0D80E9436DC6DA77EA78FA7BB
:1040F00098ABD601C501B05880936D1190936E11A5
:10410000A0936F11B0937011C601B501A60195017E
:104110000E94C9DB9B01AC0160E070E080E89FE396
:104120000E94BFD80E9436DC7B018C0160935B0348
:1041300070935C0380935D0390935E0369A57AA5F9
:104140008BA59CA5A80197010E94A4D960935F0349
:104150007093600380936103909362036DA17EA1CD
:104160008FA198A5A80197010E94A4D9609371110D
:10417000709372118093731190937411C401B30101
:104180002DA53EA54FA558A90E94A4D9609363030D
:10419000709364038093650390936603C201B10139
:1041A0002DA53EA54FA558A90E94A4D960937511CD
:1041B000709376118093771190937811E096E2E1F5
:1041C0000C941BDDA4E2B0E0E8EEF0E20C9409DD13
:1041D0000E94441E85E497E06CE577ED0E943DC1A6
:1041E0000E94441E0E947D1068EE73E080E090E023
:1041F0000E945CD70E9428D7609368117093691160
:1042000080936A1190936B1115E0C12E17E0D12EA7
:10421000B8E1EB2EB5E0FB2E8E010F5F1F4F0E9421
:1042200028D7209168113091691140916A115091FD
:104230006B11621B730B840B950B65307105810547
:10424000910508F46AC00E94142080916C118F5F60
:1042500080936C11843011F40E94342080916C1191
:10426000843109F05AC00E94951710926C118DB7D5
:104270009EB740970FB6F8949EBF0FBE8DBFEDB7A7
:10428000FEB73196ADB7BEB71296FC92EE9211977B
:10429000D382C2828091950790919607A09197074B
:1042A000B091980784839583A683B78380919907FB
:1042B00090919A07A0919B07B0919C078087918766
:1042C000A287B38780919D0790919E07A0919F0739
:1042D000B091A00784879587A687B7870E9425C5D8
:1042E0008DB79EB740960FB6F8949EBF0FBE8DBF98
:1042F0008091B40A882389F084EB95E00E940991AB
:10430000D801E6ECF7E084E201900D928150E1F7EC
:1043100084EB95E0B8010E94E49D88E195E00E945D
:104320009CC5181619060CF07ACF80E0A496E8E038
:104330000C9425DDAF92BF92CF92DF92EF92FF9265
:104340000F931F937C018B01FB0167817085818531
:104350009285F7012781308541855285621B730B59
:10436000840B950B0E943FDA5B016C01F8016385B9
:10437000748585859685F701238534854585568521
:10438000621B730B840B950B0E943FDA209169032B
:1043900030916A0340916B0350916C030E94C9DB1A
:1043A0007B018C01C601B501A60195010E94C9DB04
:1043B0005B016C01C801B701A80197010E94C9DB2C
:1043C0009B01AC01C601B5010E94C0D80E9436DC39
:1043D00028EC32E646E35CE30E94C9DB0E940CDA7B
:1043E0009B01AC01CA011F910F91FF90EF90DF90EC
:1043F000CF90BF90AF900895CF92DF92FF920F932E
:104400001F93CF93DF930E947D1000D00F9208E19D
:1044100015E0ADB7BEB712961C930E93119784E6C4
:1044200097E014969C938E9313970E9425C50F9046
:104430000F900F900F9068EE73E080E090E00E9484
:104440005CD780E6C82E87E0D82EC0E0D0E0F02E02
:10445000012F20C08EE495E06C2F0E94848200D052
:1044600000D0EDB7FEB73196ADB7BEB71196FC924E
:10447000119712960C93D382C282958384830E94F3
:1044800025C52196EDB7FEB736960FB6F894FEBF58
:104490000FBEEDBFC930D105ECF288E195E00E9476
:1044A000E1D564E170E080E090E00E945CD788E1B3
:1044B00095E00E949CC5181619061CF0C0E0D0E0DB
:1044C000E9CF80E0DF91CF911F910F91FF90DF90B6
:1044D000CF900895A0E0B0E0E0E7F2E20C9409DDAF
:1044E0000E947D1068EE73E080E090E00E945CD74F
:1044F00029E6C22E27E0D22E98E1E92E95E0F92E8A
:104500006DE471E080E090E00E945CD70E94D90FDA
:1045100080911311909114110E9437BBC091131117
:10452000D09114118FA1882309F445C08DB79EB78F
:1045300042970FB6F8949EBF0FBE8DBF0DB71EB742
:104540000F5F1F4FEDB7FEB7F282E182F801D38211
:10455000C2828C859D85AE85BF8584839583A68325
:10456000B78388899989AA89BB8980879187A2871F
:10457000B3876C897D898E899F8924E630E040E08D
:1045800050E00E94E4DCF80124873587468757878E
:104590008EA1808B118A0E9425C5E0911311F091A4
:1045A000141117A28DB79EB742960FB6F8949EBF0E
:1045B0000FBE8DBF06C088E195E063E072E00E9407
:1045C00011D588E195E00E949CC5181619060CF0DB
:1045D00097CF80E0CDB7DEB7E8E00C9425DD00D0C2
:1045E0000F9288E195E0EDB7FEB79283818386EF65
:1045F00097E0948383830E9425C50F900F900F90BE
:104600000F9088E291E10E94758D80E008958DE31E
:1046100091E10E94758D80E00895CF93DF9300D0E3
:104620000F92C8E1D5E0EDB7FEB7D283C18382EC2B
:1046300098E0948383830E9425C50F900F900F907C
:104640000F908091340B9091350B8451954064F11B
:1046500068EE73E080E090E00E945CD700D00F929B
:10466000EDB7FEB7D283C18389E998E09483838351
:104670000E9425C50F900F900F900F9068EE73E089
:1046800080E090E00E945CD700D00F92EDB7FEB7BB
:10469000D283C18386E798E0948383830E9425C5F3
:1046A0000F900F900F900F908FE291E10E94758D07
:1046B00080E0DF91CF91089581E291E10E94758DB4
:1046C00080E0089584E89AE00E94998600D00F92D5
:1046D00088E195E0EDB7FEB7928381838BEA99E09C
:1046E000948383830E9425C50F900F900F900F90A5
:1046F0000E941C1E80918F0A0E94011182E090E0AE
:104700000E94331E0895A0E0B0E0E9E8F3E20C94C3
:1047100009DD00D00F9248E1E42E45E0F42EADB75C
:10472000BEB71296FC92EE9211978FE09AE0149623
:104730009C938E9313970E9425C50F900F900F9016
:104740000F900E941C1E8091B40A0E94011134EB4C
:10475000C32E35E0D32EC6010E94CE95CDB7DEB76D
:1047600028970FB6F894DEBF0FBECDBF0DB71EB7AA
:104770000F5F1F4FFA82E9822FEF39E0F801338390
:10478000228321EE3EE245E652E40E94C9DBD801D5
:1047900014966D937D938D939C9317970E9425C5D6
:1047A000CDB7DEB728960FB6F894DEBF0FBECDBFEB
:1047B000C6010E94C9959C01EDB7FEB770970FB670
:1047C000F894FEBF0FBEEDBF3196ADB7BEB71296DF
:1047D000FC92EE9211978EED99E093838283E9012A
:1047E00088819981AA81BB8184839583A683B783BD
:1047F0008C819D81AE81BF8180879187A287B3879D
:1048000088859985AA85BB8584879587A687B7877C
:104810000E9425C5EDB7FEB770960FB6F894FEBF9F
:104820000FBEEDBF82E090E00E94331ECDB7DEB731
:10483000E8E00C9425DDFF920F931F93F82E8B0177
:1048400088E090E00E94331E0E94611E0E94891E33
:104850000E94A41E0E94FB1E0E9462230E94721FDF
:104860000E94441E0E9483238F2DB8010E944A8C0F
:1048700080E01F910F91FF900895FB01608971897D
:104880008289938925E33AEF4EE85CE30E94C9DB15
:10489000AB01BC0184EB95E00E9469A00E948323D8
:1048A00080E00895FB0184858093CC0A81EC9AE036
:1048B0000E9428870E94AF1F80E0089500D00F92C9
:1048C00088E195E0EDB7FEB7928381838CEC9AE0A6
:1048D000948383830E9425C581E08093C00A0F9052
:1048E0000F900F900F9085EB9AE00E94288764E16B
:1048F00070E080E090E00E945CD788E195E00E9443
:104900009CC5181619069CF71092C00A85EB9AE010
:104910000E94288780E0089564E170E080E090E0E4
:104920000E945CD70E9495172091DC0B3091DD0B23
:1049300030937B1120937A1130937D1120937C1159
:1049400030937F1120937E11309381112093801139
:104950008091D80A813009F055C040911F0B5091C9
:10496000200B8BE0493B58075CF0C9018C599F4FE5
:1049700090937B1180937A11909381118093801191
:104980004854544FA4F480917C1190917D118C591E
:104990009F4F90937D1180937C1180917E11909117
:1049A0007F118C599F4F90937F1180937E1120919E
:1049B000730B3091740B4BE0293B3407A4F08091CA
:1049C0007C1190917D118C599F4F90937D11809314
:1049D0007C1180918011909181118C599F4F9093FF
:1049E0008111809380112854344F0CF045C0809180
:1049F0007A1190917B118C599F4F90937B118093EA
:104A00007A1130C080911F0B9091200B4BE0893BB5
:104A1000940734F02C593F4F30937B1120937A1137
:104A20008854944F54F480917C1190917D118C594D
:104A30009F4F90937D1180937C112091730B309147
:104A4000740B4BE0293B340754F080918011909116
:104A500081118C599F4F909381118093801128541C
:104A6000344F54F480917E1190917F118C599F4F57
:104A700090937F1180937E1140917A1150917B1118
:104A800082EF92E160E00E944A8140917C11509156
:104A90007D1182EF92E161E00E944A8140917E1196
:104AA00050917F1182EF92E162E00E944A81409131
:104AB00080115091811182EF92E163E00E944A815E
:104AC00088E195E00E949CC5181619060CF024CFC9
:104AD0001092C00A85EB9AE00E94288780E0089532
:104AE000FF920F931F93CF93DF9300D00F9288E133
:104AF00095E0EDB7FEB79283818381E79AE09483D6
:104B000083830E9425C50F900F900F900F900E94F5
:104B10007D10FF2400E0C1E0D0E064E170E080E0BF
:104B200090E00E945CD70E9495170E943B0F182FBF
:104B3000F81609F190E0FC01EE0FFF1FE80FF91FD6
:104B4000EE0FFF1FEE0FFF1FEA5EF54F03850830E3
:104B500008F007E04091690A552747FD5095012E5E
:104B600002C0559547950A94E2F741705070812F25
:104B7000602F0E94B41D80911F0B9091200B97FF16
:104B800003C0909581959F4F895B9B404CF10F5FCF
:104B9000083009F400E0812F90E0FC01EE0FFF1FC8
:104BA000E80FF91FEE0FFF1FEE0FFF1FEA5EF54F34
:104BB00003874091690A552747FD5095012E02C091
:104BC000559547950A94E2F741705070812F602FF8
:104BD0000E94B41D64EF71E080E090E00E945CD719
:104BE00080911B0C90911C0C895B9B400CF1CE01B9
:104BF000012E02C0880F991F0A94E2F74091690ABA
:104C0000482B4093690A552747FD5095012E02C055
:104C1000559547950A94E2F741705070812F602FA7
:104C20000E94B41D64EF71E080E090E00E945CD7C8
:104C300080911B0C90911C0C8854944F1CF5CE0154
:104C4000012E02C0880F991F0A94E2F780952091E7
:104C5000690A82238093690A482F552747FD50959A
:104C6000012E02C0559547950A94E2F741705070A5
:104C7000812F602F0E94B41D64EF71E080E090E00E
:104C80000E945CD788E195E00E949CC5F12E181621
:104C900019060CF042CFC6E1DAE0CE010E94288767
:104CA0002C96FAE0CE35DF07C1F7CE010E942887A7
:104CB0000E940D130E94721F80E0CDB7DEB7E5E0C1
:104CC0000C9428DDA4E2B0E0E8E6F6E20C940DDDF9
:104CD00080E090E0A0E8BFE389839A83AB83BC8344
:104CE00080E090E0A0E0B0E08D839E83AF83B88742
:104CF00089879A87AB87BC878D879E87AF87B88B5C
:104D000020E030E040E85FEB298B3A8B4B8B5C8BEB
:104D10008D8B9E8BAF8BB88F898F9A8FAB8FBC8F0B
:104D20008D8F9E8FAF8FB8A329A33AA34BA35CA30B
:104D300004EB15E0C801BE016F5F7F4F0E94D59064
:104D400085E997E0B8010E94A6A1C8010E942D93B1
:104D5000C8010E94C995A496E4E00C9429DDCF9384
:104D6000DF93FB01C285D385CE0167E57AE00E941F
:104D7000BFDE892B21F481E080938F0A09C0CE0128
:104D800063E57AE00E94BFDE892B39F410928F0A26
:104D900084E89AE00E94288712C000D00F9288E130
:104DA00095E0EDB7FEB7928381838FE39AE0948319
:104DB00083830E9425C50F900F900F900F900E9443
:104DC000622380E0DF91CF910895CF93DF93FB01C1
:104DD000EB012A96828593856DE67AE00E94BFDE1C
:104DE000892B19F410929B0A0FC02A813B814C81B8
:104DF0005D81DA01C9010197A109B1090497A105F3
:104E0000B10538F420939B0A80E99AE00E94288734
:104E100012C000D00F9288E195E0EDB7FEB7928303
:104E200081838AE59AE0948383830E9425C50F904D
:104E30000F900F900F900E94FB1E80E0DF91CF91AA
:104E40000895CF93DF93FB01C285D385CE0168EA35
:104E50007BE00E94BFDE892B11F481E019C0CE01F6
:104E600066EA7BE00E94BFDE892B39F0CE0164EA5E
:104E70007BE00E94BFDE892B19F41092D80A0AC089
:104E8000CE0162EA7BE00E94BFDE892B41F482E022
:104E90008093D80A8DEC9AE00E94288712C000D037
:104EA0000F9288E195E0EDB7FEB79283818380E9A8
:104EB0009BE0948383830E9425C50F900F900F90F1
:104EC0000F900E94A41E80E0DF91CF910895ACE086
:104ED000B0E0EDE6F7E20C940DDDFB0102851385F1
:104EE000C8016CE37AE00E94BFDE892B51F481E0B7
:104EF0008093B40A89EA9AE00E9428870E94622679
:104F00003CC0C80168E37AE00E94BFDE892B11F53E
:104F100080E090E0A0E0B0E089839A83AB83BC831B
:104F20008D839E83AF83B88789879A87AB87BC8739
:104F300084EB95E0BE016F5F7F4F0E94AC9584EBE0
:104F400095E00E9475A01092B40A89EA9AE00E9446
:104F5000288713C000D00F9288E195E0EDB7FEB727
:104F60009283818385E29AE0948383830E9425C59E
:104F70000F900F900F900F9004C089EA9AE00E9462
:104F800028870E94832380E02C96E4E00C9429DD9E
:104F900085E497E06CE577ED0E9428C10E94DF115F
:104FA0000E94441E80E008950F931F93CF93DF93D8
:104FB00088E195E065E072E00E94F8D500E064E1E8
:104FC00070E080E090E00E945CD70E9495170F5F30
:104FD0000436A9F7C0911D0BD0911E0B81E0C43F90
:104FE000D8073CF468EE73E080E090E00E945CD764
:104FF000F9CFD093350BC093340B2091710B3091C6
:10500000720B3093890B2093880B0091C50B109184
:10501000C60B1093DD0B0093DC0B8091190C909163
:105020001A0C9093310C8093300CA0916D0CB091C0
:105030006E0CB093850CA093840CE091C10CF091A0
:10504000C20CF093D90CE093D80C6091150D7091BF
:10505000160D70932D0D60932C0D4091690D50919C
:105060006A0D5093810D4093800DD0934F0BC093E8
:105070004E0B3093A30B2093A20B1093F70B0093CE
:10508000F60B90934B0C80934A0CB0939F0CA0931B
:105090009E0CF093F30CE093F20C7093470D609329
:1050A000460D50939B0D40939A0DD093420BC093A5
:1050B000410B3093960B2093950B90933E0C80936D
:1050C0003D0C8CED95E09093920C8093910C909315
:1050D000E60C8093E50C90933A0D8093390D9093F4
:1050E0008E0D80938D0D00D00F9288E195E0EDB785
:1050F000FEB7928381838AEA9BE0948383830E9434
:1051000025C50F900F900F900F9064E170E080E044
:1051100090E00E945CD70E94951782E19BE00E947C
:1051200060CF86E69BE00E9460CF8AEB9BE00E9406
:1051300060CF8EE09CE00E9460CF82E69CE00E94FF
:1051400060CF86EB9CE00E9460CF8AE09DE00E94E9
:1051500060CF8EE59DE00E9460CF88E195E00E94DF
:105160009CC5181619068CF664E170E080E090E0AA
:105170000E945CD788E195E00E9419C682E19BE01D
:105180000E9496D186E69BE00E9496D18AEB9BE036
:105190000E9496D18EE09CE00E9496D182E69CE02F
:1051A0000E9496D186EB9CE00E9496D18AE09DE019
:1051B0000E9496D18EE59DE00E9496D10E940D132B
:1051C0000E94891E80E0DF91CF911F910F91089579
:1051D00000D00F9288E195E0EDB7FEB7928381830E
:1051E00087E09CE0948383830E9425C50F900F90F5
:1051F0000F900F9088E195E00E94CCC5FFEF8F3FA4
:105200009F07C1F38937910529F08935910511F080
:105210008FEF08950E94048700D00F9288E195E0F7
:10522000EDB7FEB79283818382EE9BE09483838304
:105230000E9425C50F900F900F900F9068EE73E0BD
:1052400080E090E00E945CD7FFCFCF93DF9300D047
:105250000F9288E195E0EDB7FEB79283818385E4F4
:105260009CE0948383830E9425C5C0E0D0E00F902A
:105270000F900F900F90CE0160E00E94C0E1219648
:10528000F0E1C030DF07B9F700D00F9288E195E078
:10529000EDB7FEB7928381838FE39CE09483838391
:1052A0000E9425C50F900F900F900F90DF91CF9126
:1052B00008950E94252980E00895EF92FF920F93B0
:1052C0001F93CF93DF937B018230A1F000D00F9228
:1052D00088E195E0EDB7FEB79283818384E09DE09D
:1052E000948383830E9425C58FEF0F900F900F90BA
:1052F0000F9091C0FB0102851385C80160E07DE03D
:105300000E94ACDE892B19F4CFEFDFEF63C0C80138
:1053100062EF7CE00E94ACDEC0E0D0E0892B11F4AB
:10532000C1E0D0E0C80165EE7CE00E94ACDE892BD4
:1053300009F4C260C80161EE7CE00E94ACDE892BFA
:1053400009F4C460C8016EED7CE00E94ACDE892BDC
:1053500009F4C860C80169ED7CE00E94ACDE892BCD
:1053600009F4C061C80164ED7CE00E94ACDE892BC9
:1053700009F4C062C8016FEC7CE00E94ACDE892BAE
:1053800009F4C064C8016BEC7CE00E94ACDE892BA0
:1053900009F4C068C80167EC7CE00E94ACDE892B90
:1053A00009F4D160C80163EC7CE00E94ACDE892B7B
:1053B00009F4D260C8016CEB7CE00E94ACDE892B62
:1053C00009F4D460C80164EB7CE00E94ACDE892B58
:1053D00009F4D860F701808191816DEA7CE00E9438
:1053E000ACDE892B39F48091750A9091760AC82B2E
:1053F000D92B08C0C095D0958091750A9091760AF6
:10540000C823D923D093760AC093750A8AE69AE016
:105410000E94288780E0CDB7DEB7E6E00C9427DD58
:10542000CF93DF9300D00F9288E195E0EDB7FEB700
:105430009283818384E29DE0948383830E9425C5C7
:10544000C1E0D0E00F900F900F900F908CEC93E1A3
:10545000BE010E9482C22196F0E1C030DF07B1F7A1
:105460008CEC93E161E070E00E9476C28CEC93E1F9
:1054700063EA0E942CC38CEC93E165E90E942CC383
:105480008CEC93E160EF0E942CC38CEC93E160E024
:105490000E942CC38CEC93E16AEB0E942CC38CEC31
:1054A00093E10E94A4C300D00F9288E195E0EDB78C
:1054B000FEB79283818386E19DE0948383830E947B
:1054C00025C50F900F900F900F9080E0DF91CF9146
:1054D00008956F927F928F929F92AF92BF92CF92D8
:1054E000DF92EF92FF920F931F930CEC13E1C80130
:1054F0000E948DC43C01C8010E948DC44C01C801AA
:105500000E948DC45C01C8010E948DC46C01C80159
:105510000E948DC47C01C8010E948DC42DB73EB786
:10552000205130400FB6F8943EBF0FBE2DBFEDB7EF
:10553000FEB7319628E135E0ADB7BEB712963C9381
:105540002E93119723E43DE0338322837582648296
:1055500097828682B186A086D386C286F586E48647
:10556000978786870E9425C52DB73EB7205F3F4F9E
:105570000FB6F8943EBF0FBE2DBF1F910F91FF9045
:10558000EF90DF90CF90BF90AF909F908F907F90E3
:105590006F900895EF92FF920F931F9300D00F9298
:1055A00008E115E0ADB7BEB712961C930E931197A4
:1055B00086E69DE014969C938E9313970E9425C5D2
:1055C0000F900F900F900F908CECE82E83E1F82E47
:1055D000C7010E941CC4E82FF0E0EE0FFF1FE25548
:1055E000FC4F60817181C8010E9411D5C7010E94E2
:1055F0008DC400D000D0EDB7FEB73196ADB7BEB7C1
:1056000012961C930E93119720E63DE0338322837C
:10561000958384830E9425C5EDB7FEB736960FB6F5
:10562000F894FEBF0FBEEDBF1F910F91FF90EF905A
:1056300008952F923F924F925F926F927F928F9236
:105640009F92AF92BF92CF92DF92EF92FF920F9311
:105650001F930CEC13E1C8010E948DC41C01C8010A
:105660000E948DC42C01C8010E948DC43C01C80158
:105670000E948DC44C01C8010E948DC45C01C80108
:105680000E948DC46C01C8010E948DC47C01C801B8
:105690000E948DC42DB73EB7245130400FB6F89408
:1056A0003EBF0FBE2DBFEDB7FEB7319628E135E006
:1056B000ADB7BEB712963C932E9311972BE63DE003
:1056C00033832283358224825782468271866086A4
:1056D00093868286B586A486D786C686F18AE08AB6
:1056E000938B828B0E9425C52DB73EB72C5E3F4F12
:1056F0000FB6F8943EBF0FBE2DBF1F910F91FF90C4
:10570000EF90DF90CF90BF90AF909F908F907F9061
:105710006F905F904F903F902F9008959F92AF921F
:10572000BF92CF92DF92EF92FF920F931F930CECF8
:1057300013E1C8010E948DC45C01C8010E941CC411
:10574000982EC8010E948DC46C01C8010E948DC4AE
:105750007C01C8010E948DC42DB73EB72E50304049
:105760000FB6F8943EBF0FBE2DBFEDB7FEB7319612
:1057700028E135E0ADB7BEB712963C932E93119752
:1057800021E93DE033832283B582A4829682178289
:10579000D186C086F386E286958784870E9425C5D8
:1057A0002DB73EB7225F3F4F0FB6F8943EBF0FBEF6
:1057B0002DBF1F910F91FF90EF90DF90CF90BF9082
:1057C000AF909F900895AF92BF92CF92DF92EF92E9
:1057D000FF920F931F930CEC13E1C8010E948DC43C
:1057E0005C01C8010E948DC46C01C8010E948DC477
:1057F0007C01C8010E948DC42DB73EB72C503040AB
:105800000FB6F8943EBF0FBE2DBFEDB7FEB7319671
:1058100028E135E0ADB7BEB712963C932E931197B1
:1058200028E23EE033832283B582A482D782C682F7
:10583000F186E086938782870E9425C52DB73EB703
:10584000245F3F4F0FB6F8943EBF0FBE2DBF1F9190
:105850000F91FF90EF90DF90CF90BF90AF900895A1
:105860001F938CEC93E161E070E00E94A3C410E010
:105870008CEC93E10E941CC4113051F0113018F0EF
:10588000123099F408C010E0833A79F411E00DC0A9
:10589000853951F407C0803F39F48CEC93E10E94C4
:1058A0001CC40AC012E001C010E08CEC93E10E941D
:1058B000DDC10197E9F280E01F910895EF92FF9218
:1058C0000F931F93CF93DF938C01C0E0D0E11FC0F3
:1058D000CE01800F911F62E070E00E94AFDCF62ED7
:1058E000E72E8CEC93E10E94A3C48CEC93E10E9420
:1058F0004CC46F5F7F4F8F4F9F4F29F48F2D9E2D8C
:105900009C01E90104C08F2D9E2D9C018901CE01CF
:10591000801B910B0297E4F6CE01CDB7DEB7E6E02F
:105920000C9427DDA0E0B0E0E8E9FCE20C9407DD90
:10593000E82E6B015A018CEC93E161E070E00E946B
:10594000A3C410E08CEC93E10E941CC4113051F010
:10595000113018F01230A9F508C010E0833A89F52B
:1059600011E02FC0853961F529C0803F49F58CECE5
:1059700093E10E941CC4F82EC0E0D0E00E2D10E090
:105980000FC08CEC93E10E948DC4F601918380835B
:105990008CEC93E10E948DC4F50191838083219664
:1059A000C017D10774F3EF1499F4F6018081918147
:1059B0000E945E2CF501918380830AC012E001C031
:1059C00010E08CEC93E10E94DDC1019709F4BACF9D
:1059D000CDB7DEB7EAE00C9423DDA4E0B0E0E3EF5E
:1059E000FCE20C9403DD0E94302CD82E00D00F92E4
:1059F00008E115E0ADB7BEB712961C930E93119750
:105A00008DE991E114969C938E9313970E9425C57E
:105A10008091750A9091760A0F900F900F900F90D9
:105A2000009759F400D00F92EDB7FEB712830183AF
:105A300088E991E19483838308C180FF14C000D07A
:105A40000F92ADB7BEB712961C930E93119789E8CB
:105A500091E114969C938E9313970E9425C50F9005
:105A60000F900F900F908091750A81FF12C000D0A7
:105A70000F9288E195E0EDB7FEB7928381838BE7C3
:105A800091E1948383830E9425C50F900F900F901E
:105A90000F908091750A82FF16C000D00F9288E1A6
:105AA00095E0ADB7BEB712969C938E93119786E79B
:105AB00091E114969C938E9313970E9425C50F90A5
:105AC0000F900F900F908091750A83FF12C000D045
:105AD0000F9288E195E0EDB7FEB79283818382E76C
