:100000000C947C0B0C94A60B0C94A60B0C94A60BD6
:100010000C94A60B0C94A60B0C94A60B0C94A60B9C
:100020000C94A60B0C94A60B0C94A60B0C94A60B8C
:100030000C94A60B0C94A60B0C94A60B0C94638545
:100040000C94A60B0C94A60B0C94A60B0C94A60B6C
:100050000C94A60B0C94A60B0C94A60B0C9431DA02
:100060000C94A60B0C94480D0C94880D0C94A60BC4
:100070000C94A60B0C94A60B0C94A60B0C94A60B3C
:100080000C94A60B0C94A60B0C94A60B0C94A60B2C
:100090000C94DA0D0C941A0E0C94A60B0C94B2D698
:1000A0000C94A60B0C9481820C94A60B0C94A60BBA
:1000B0000C94A60B0C94A60B0C94A60B0C94A60BFC
:1000C0000C94A60B0C94A60B0C94A60B0C94A60BEC
:1000D0000C94A60B0C94A60B0C946C0E0C94AC0E0A
:1000E0000C94A60B301B511BC81B861BA71BE11BC6
:1000F000FA1B131C2C1C4C1C7E1C5D1C9230B33054
:10010000953098309B309E30A130A430A730AA3073
:10011000AD30B030A751BC51C751D652175293528F
:100120000B522C52D652D652D652D652D652D65204
:10013000D652D652D652D652D652D652D652D6527F
:10014000D652D652C752065400540F5424547154F8
:100150004C5488543854605431555D556655695532
:100160006C55D15D6F55D15DD15DD15D72557555C1
:100170007855A1559F559F559F55AD559F55A355F2
:100180009F559F55B055BF55B255B5559F559F5575
:100190009F55B8559F559F559F559F559F55BF5586
:1001A0009F55C155EC82F182F682FB820083058364
:1001B0000A830F83148319831E83B4BBAFBBB8BB00
:1001C000BCBBCABBE3BB0DBC1EBC5DBD58BD61BDA5
:1001D0006ABD91BD9DBDB7BDD8BDDFBD87CF87CFFF
:1001E000ABCF1AD0EFCF35D050D07DD0BBD002D11D
:1001F0006EDB71DB64DB68DBAADB75DB79DB7FDB65
:1002000083DB87DB8DDB91DB95DB9BDB9FDBA5DB7A
:10021000036EDB363D9A9999993DABAAAA2A3E0016
:100220000000803F084AD73B3BCE016E84BCBFFD37
:10023000C12F3D6C74319ABD56833DDA3D00C77FB6
:1002400011BED9E4BB4C3E916BAAAABE000000804F
:100250003F072C7AA5BA6CC590DA3B9365FC8BBC42
:1002600053F810FD3C5692834DBD879D3AB63DCB69
:10027000C9BF5BBE73DA0FC93F05A84CCDB2D44EDF
:10028000B93836A9020C50B9918688083CA6AAAAAA
:100290002ABE000000803F08000000BE92244912E0
:1002A0003EABAAAA2ABECDCCCC4C3E00000080BEFC
:1002B000ABAAAAAA3E00000000BF000000803F00D9
:1002C00000000000084178D3BB4387D1133D190ECD
:1002D0003CC3BD4282AD2B3E68EC8276BED98FE135
:1002E000A93E4C80EFFFBE01C4FF7F3F000000002D
:1002F000004C6F670064756D700000000000000026
:10030000000000C6306572617365000000000000E7
:100310000000001029656E61626C6500000000003D
:100320000000005D2864697361626C650000000074
:100330000000005D2868656C70000000000000008F
:10034000000000ED12706C616E6E65720067637381
:100350000000000000000000000000B25F73657440
:100360007570006572617365000000000000000098
:1003700000592872657365740000000000000000D9
:1003800000E827726164696F00000000000000004F
:1003900000D4266672616D65000000000000000058
:1003A0000021266D6F746F72730000000000000062
:1003B00000C223657363000000000000000000001D
:1003C0000094236C6576656C00000000000000005E
:1003D00000C8266D6F646573000000000000000017
:1003E000007024626174746572790000000000007E
:1003F00000E525736F6E61720000000000000000D0
:1004000000AF25636F6D7061737300000000000022
:1004100000672674756E6500000000000000000093
:100420000088236465636C696E6174696F6E000097
:1004300000732373686F7700000000000000000065
:1004400000512341726475436F7074657220563297
:100450002E302E34372042657461006C6F67730054
:1004600000000000000000000092227365747570A7
:100470000000000000000000004322746573740057
:100480000000000000000000003D2268656C700064
:10049000000000000000000000C811706C616E6E6A
:1004A000657200000000000000252274657374006E
:1004B00070776D0000000000000000000000DC17F5
:1004C000726164696F000000000000000000701796
:1004D0006661696C73616665000000000000BF0F13
:1004E0006770730000000000000000000000A02101
:1004F0006164630000000000000000000000312182
:10050000696D750000000000000000000000192067
:1005100062617474657279000000000000002811A7
:1005200074756E65000000000000000000009F1C54
:100530007472690000000000000000000000A41AAE
:1005400063757272656E74000000000000001E1A70
:1005500072656C61790000000000000000007916EF
:10056000776179706F696E7473000000000069151F
:10057000616C7469747564650000000000009D146E
:10058000736F6E61720000000000000000007713BE
:10059000656564756D7000000000000000001413B4
:1005A0007261776770730000000000000000E910BE
:1005B00048697420456E74657220746F206578698F
:1005C000742E0A0A00202530327800253034783A1B
:1005D00000536F6E61723A20256420636D0A0053E8
:1005E0006F6E61722064697361626C65640A0042B7
:1005F00061726F3A202564636D0A00486974207245
:1006000061643A2025640A0025642077700A006F2F
:10061000662025646D0A000A00486F6C6420616CD6
:10062000742000636F6D6D616E6420233A20256431
:100630002069643A2564206F703A25642070313A4D
:1006400025642070323A256C642070333A256C643E
:100650002070343A256C64200A0052656C61792060
:100660006F66660A0052656C6179206F6E0A0056EB
:100670003A2025342E34662C20413A2025342E345D
:10068000662C206D41683A2025342E34660A0069B4
:100690006E7075743A202564096F757470757425D1
:1006A000640A0074756E653A2025312E33660A009F
:1006B0004E6F7420656E61626C65640A00256C641F
:1006C0002C20256C642C20256C640A00494D550AA9
:1006D000004779726F206F6666736574733A2025E0
:1006E000342E32662C2025342E32662C2025342ED2
:1006F00032660A00416363656C206F6666736574D9
:10070000733A2025342E32662C2025342E32662C66
:100710002025342E32660A0025752C004144430AF8
:10072000004C61743A20256C642C204C6F6E20259F
:100730006C642C20416C743A20256C646D2C202351
:10074000736174733A2025640A00494E2020313ABF
:1007500020256409323A20256409333A20256409AA
:10076000343A20256409353A20256409363A202593
:100770006409373A2025640A00494E3A20313A206C
:10078000256409323A20256409333A202564093466
:100790003A20256409353A20256409363A20256433
:1007A00009373A20256409383A2025640A00506C3C
:1007B000616E6E6572204D6F64650A4E6F742069BC
:1007C0006E74656E64656420666F72206D616E750F
:1007D000616C207573650A0A00436F6D6D616E640C
:1007E000733A0A20206C6F67730A20207365747552
:1007F000700A2020746573740A2020706C616E6E1C
:1008000065720A0A4D6F76652074686520736C699D
:1008100064652073776974636820616E6420726513
:1008200073657420746F20464C592E0A0A000A2002
:10083000547970652027726164696F2720746F2076
:10084000636F6E666967757265206E6F772E0A0A30
:10085000000A215761726E696E672C20796F75727C
:1008600020726164696F206973206E6F7420636FFA
:100870006E666967757265642100536574757020D2
:100880004D6F64650A0A0A004657205665727369FF
:100890006F6E2025640A00526164696F0A00434844
:1008A000373A202564207C2025640A004348363AE4
:1008B000202564207C2025640A004348353A202501
:1008C00064207C2025640A004348343A20256420B3
:1008D0007C2025640A004348333A202564207C208C
:1008E00025640A004348323A202564207C20256490
:1008F0000A004348313A202564207C2025640A0000
:1009000056206D6F64650A002B206D6F64650A00C8
:1009100058206D6F64650A005936206672616D65F6
:100920000A004672616D650A00766F6C747320610F
:100930006E6420637572006261747420766F6C74EB
:100940007300342063656C6C7300332063656C6CDA
:1009500073000A42617474204D6F696E746F720A7D
:100960000061626C65640A0064697300656E00531F
:100970006F6E61720A00466C69676874206D6F64FF
:1009800065730A004F46460A004F4E0A002C0909BB
:1009900053696D706C653A2000506F732025643A7E
:1009A00009004D6167206F6666736574733A202590
:1009B000342E34662C2025342E34662C2025342EFB
:1009C0003466004D6167204465633A2025342E3437
:1009D000660A00436F6D706173730A002025640A14
:1009E000000A54554E453A0A000A4F7074696F6EFA
:1009F000733A5B6F6E2C6F66665D0A006F66660009
:100A00006F6E000A4F7074696F6E733A5B6F6E2C75
:100A1000206F66665D0A006F6666006F6E000A4FA3
:100A20007074696F6E733A206F66662C20312D34B6
:100A3000006F6666000A4D6F7665206D6F646520F5
:100A400073776974636820746F20656469742C20FF
:100A500061696C65726F6E3A2073656C65637420B2
:100A60006D6F6465732C207275646465723A2053EF
:100A7000696D706C65206F6E2F6F66660A000A5391
:100A8000617665642053657474696E67730A0A0041
:100A90000A4553432043616C6962726174696F6EE9
:100AA0003A0A2D3120556E706C75672055534220DF
:100AB000616E6420626174746572790A2D32204D12
:100AC0006F766520434C492F464C592073776974E3
:100AD000636820746F20464C59206D6F64650A2D41
:100AE00033204D6F7665207468726F74746C652066
:100AF000746F206D61782C20636F6E6E6563742057
:100B0000626174746572790A2D342041667465726D
:100B10002074776F206C6F6E672062656570732C30
:100B2000207468726F74746C6520746F20302C2090
:100B30007468656E20746573740A0A205072657358
:100B40007320456E74657220746F2063616E6365F7
:100B50006C2E0A000A4F7074696F6E733A5B782CC2
:100B60002B2C765D0A0076002B00700078000A4D71
:100B70006F766520616C6C20636F6E74726F6C733E
:100B800020746F20656163682065787472656D6597
:100B90002E2048697420456E74657220746F20732E
:100BA0006176653A20000A464143544F525920521B
:100BB0004553455420636F6D706C657465202D201E
:100BC0007265626F6F742041504D000A27592720CB
:100BD0002B20456E74657220746F20666163746F9C
:100BE00072792072657365742C20616E79206F7440
:100BF000686572206B657920746F2061626F727412
:100C00003A0A00646F6E650A000A45726173696E84
:100C10006720454550524F4D0A000A436F6D6D6184
:100C20006E64733A0A202064756D70203C6E3E201D
:100C30002065726173652028616C6C206C6F67732E
:100C4000290A2020656E61626C65203C6E616D65CD
:100C50003E207C20616C6C0A202064697361626CA8
:100C600065203C6E616D653E207C20616C6C0A0ADB
:100C700000656E61626C65004F5054464C4F5700E2
:100C80004D4F544F52530043555200434D44005270
:100C90004157004D4F4445004E54554E0043545566
:100CA0004E00504D00475053004154544954554450
:100CB000455F4D45440041545449545544455F46B1
:100CC00041535400616C6C006D697373696E6720E9
:100CD0006C6F6720747970650A000A4C6F67206535
:100CE00072617365642E0A000A45726173696E67EA
:100CF000206C6F672E2E2E0A00626164206C6F6775
:100D000020232025640A004154542C2025642C20E3
:100D100025642C2025752C2025642C2025642C206E
:100D200025640A002C2025640A004D4F443A0043F4
:100D300054554E2C2025642C2025642C2025642C11
:100D40002025642C2025642C2025642C2025642C4F
:100D50002025640A004E54554E2C2025642C202555
:100D6000642C2025642C2025642C2025640A005046
:100D70004D2C2025642C2025642C2025642C202536
:100D8000642C2025642C2025642C20256C640A000A
:100D90005241572C00434D442C2025642C202564BF
:100DA0002C2025642C2025642C2025642C20256CE7
:100DB000642C20256C642C20256C640A0043555259
:100DC000523A2025642C20256C642C2025342E34A6
:100DD000662C2025342E34662C2025640A005354BA
:100DE0004152542055500A004D4F543A2025642C4E
:100DF0002025642C2025642C2025640A004F462CD5
:100E00002025642C2025642C2025642C2025342EBC
:100E100037662C2025342E37660A004750532C2085
:100E2000256C642C2025642C2025342E37662C203C
:100E300025342E37662C2025342E34662C2025347C
:100E40002E34662C2025642C2025750A0058545217
:100E500041434B5F005448525F524154455F005438
:100E600048525F414C545F004E41565F4C4F4E5FBD
:100E7000004E41565F4C41545F00484C445F4C4F1C
:100E80004E5F00484C445F4C41545F005354425FF6
:100E90005941575F005354425F5049545F005354C7
:100EA000425F524C4C5F00524154455F5941575F7D
:100EB00000524154455F5049545F00524154455FD0
:100EC000524C4C5F0052435F43525F0052435F43BA
:100ED000505F005243385F005243375F0052433641
:100EE0005F005243355F005243345F005243335F2B
:100EF000005243325F005243315F004C4F575F5600
:100F00004F4C5400494E5F564F4C5400464C4F577F
:100F10005F454E41424C450054425F524154494F57
:100F2000004652414D450054554E4500455343003F
:100F30004D41475F454E41424C4500424154545F4C
:100F4000434150414349545900424154545F4D4F2D
:100F50004E49544F5200534F4E41525F454E41420D
:100F60004C4500414C545F484F4C445F52544C0038
:100F70004C4F475F4249544D41534B0053494D50EC
:100F80004C4500464C544D4F44453600464C544D5C
:100F90004F44453500464C544D4F44453400464C73
:100FA000544D4F44453300464C544D4F4445320058
:100FB000464C544D4F444531005452494D5F5448BE
:100FC000524F54544C45005448525F46535F56416B
:100FD0004C5545005448525F46535F414354494F76
:100FE0004E005448525F4641494C534146450054D7
:100FF00048525F4D4158005448525F4D494E00578A
:10100000505F53504545445F4D41580057505F4C29
:101010004F495445525F5241440057505F5241443A
:101020004955530057505F4D5553545F494E444501
:10103000580057505F494E4445580057505F544F31
:1010400054414C0057505F4D4F4445005854524B4B
:101050005F414E474C455F43440053455249414C24
:10106000335F424155440053595349445F4D5947FA
:1010700043530053595349445F544849534D4156D3
:101080000053595349445F53575F545950450053D7
:10109000595349445F53575F4D5245560052455688
:1010A000004D4158005452494D004D494E00494DA4
:1010B00041580049005000494D555F53454E534F2C
:1010C000525F43414C004C6F6720232025642C2045
:1010D00020202073746172742025642C20202065E8
:1010E0006E642025640A000A2564206C6F67730A09
:1010F000000A4E6F206C6F67730A54797065202761
:1011000064756D702030272E0A0A00204F50544617
:101110004C4F5700204D4F544F52530020435552CF
:1011200052454E540020434D440020524157002068
:101130004E54554E00204354554E0020504D002033
:10114000475053002041545449545544455F4D4540
:1011500044002041545449545544455F464153543A
:10116000006E6F6E65006C6F677320656E61626CF8
:1011700065643A2000666C6967687420706C616E03
:1011800020726563656976656400616374696F6E7A
:101190002072656365697665643A20006572726FD6
:1011A000723A206E6F6E2D4E617620636D64006F13
:1011B0007574206F6620636F6D6D616E64732100BE
:1011C000776179706F696E742072656365697665A1
:1011D0002074696D656F757400776179706F696EE1
:1011E000742073656E642074696D656F7574004555
:1011F00058545241330045585452413200455854D6
:1012000052413100504F534954494F4E00524157BB
:101210005F4354524C0052435F4348414E0045588F
:10122000545F53544154005241575F53454E53004D
:101230005352335F005352305F0047524F554E4474
:10124000205354415254000A456E746572696E67AA
:1012500020696E7465726163746976652073657464
:101260007570206D6F64652E2E2E0A0A5479706594
:10127000202768656C702720746F206C6973742058
:10128000636F6D6D616E64732C20276578697427B8
:1012900020746F206C656176652061207375626DC6
:1012A000656E752E0A566973697420746865202707
:1012B000736574757027206D656E7520666F72207A
:1012C00066697273742D74696D6520636F6E6669EB
:1012D0006775726174696F6E2E0A0A00506C6561E1
:1012E00073652052756E2053657475702E2E2E0A0C
:1012F000004669726D77617265206368616E67652B
:101300003A2065726173696E6720454550524F4DB2
:101310002E2E2E0A000A0A496E69742041726475E5
:10132000436F707465722056322E302E343720424F
:101330006574610A0A467265652052414D3A20255E
:101340006C750A00496E76616C6964205345524998
:10135000414C335F42415544004C6F6773206675C2
:101360006C6C000A4750530A00253033753A2573D8
:101370003A20006E6F7420666F756E6400253033FE
:10138000753A252D33322E3332733A2000756E6B49
:101390006E6F776E2074797065006E6F7420666F63
:1013A000756E640025733A20006D697373696E670A
:1013B000206E616D65206F722076616C7565003FEF
:1013C0003F00256400256400256C64002566002527
:1013D0006600657869740068656C70004445430078
:1013E000434F4D504153535F00245047434D442CCD
:1013F00031362C302C302C302C302C302A36410D0C
:101400000A0024505542582C34312C312C303030C5
:10141000332C303030312C33383430302C302A32C9
:10142000360024505352463130302C302C3338346F
:1014300030302C382C312C302A3343002053695261
:10144000462000204D544B312E3620002075626C12
:101450006F782000204D544B312E34200066616996
:101460006C65642C207265747279696E67004F4BED
:101470000020002A00496E697420416363656C0096
:101480002A00496E6974204779726F006E616E00A0
:10149000696E660000407A10F35A00A0724E180977
:1014A0000010A5D4E80000E87648170000E40B54CB
:1014B000020000CA9A3B000000E1F505000080969A
:1014C0009800000040420F000000A08601000000CC
:1014D000102700000000E803000000006400000086
:1014E00000000A00000000000100000000002C764F
:1014F000D888DC674F0823DFC1DFAE59E1B1B7966A
:10150000E5E3E453C63AE651997696E8E6C28426C6
:10151000EB898C9B62ED407C6FFCEFBC9C9F40F2A2
:10152000BAA56FA5F490055A2AF75C936B6CF9671E
:101530006DC11BFCE0E40D47FEF520E6B500D0EDE3
:10154000902E0300943577050080841E080000204B
:101550004E0A000000C80C333333330F986E1283E9
:101560001141EF8D2114893BE65516CFFEE6DB18BD
:10157000D1844B381BF77C1D901DA4BBE424203282
:1015800084725E228100C9F124ECA1E53D270000B0
:101590002100240027002A002D0030003300010123
:1015A0000000040107010A010000220025002800B4
:1015B0002B002E003100340002010000050108015B
:1015C0000B01000020002300260029002C002F0022
:1015D00032000001000003010601090105050505AF
:1015E000070508080808020202020A0A080804049B
:1015F00004040101010101010101030303030303C9
:101600000303040707070C0C0C0C0C0C0C0C020257
:10161000020206060606060606060B0B0B0B0B0B54
:101620000B0B0102102020080810204010204080E1
:101630000201020108040201010204081020408096
:101640008040201008040201800402018040201024
:10165000080402010804020101020408102040806D
:1016600001020408102040800000090A02080B0C47
:101670000D07060304010000000000000000000048
:10168000000000000000000000000000000000005A
:1016900000000000100F0E0000000000000000001D
:1016A0000000000000000000000000000000494EA3
:1016B00046494E4954594E414ECDCCCC3D0AD723D4
:1016C0003C17B7D13877CC2B329595E6241FB14F14
:1016D0000A000020410000C84200401C4620BCBE59
:1016E0004CCA1B0E5AAEC59D74008C3CA183548E0F
:1016F000C5C4B6D5853C4D8E11241FBECFEFD1E2B7
:10170000DEBFCDBF15E0A0E0B2E0ECEDFDEC01E006
:101710000BBF02C007900D92AE31B107D9F716E1A9
:10172000AEE1B5E001C01D92A336B107E1F716E1C5
:10173000C4EFD6E104C02297FE010E9489E0CA3EB0
:10174000D107C9F70E9431D80C94E1E60C9400004F
:10175000283008F027E03327DA01990F311D87FD83
:10176000916000966105710539F432602E5F3D93FA
:1017700030E32A95E1F708959F3F30F080387105F6
:10178000610509F03C5F3C5F3D93913008F0806853
:10179000911DDF93CF931F930F93FF92EF92192F19
:1017A000987F9695E92F96959695E90FFF27E25138
:1017B000FB4E99273327EE24FF24A701E70105906C
:1017C0000894079428F4360FE71EF81E491F511D90
:1017D000660F771F881F991F0694A1F7059007943D
:1017E00028F4E70EF81E491F561FC11D770F881FEA
:1017F000991F661F0694A1F70590079428F4F80E28
:10180000491F561FC71FD11D880F991F661F771FBD
:101810000694A1F70590079420F4490F561FC71F9F
:10182000D81F990F661F771F881F0694A9F7849108
:101830001095177041F0D695C79557954795F79431
:10184000E7941A95C1F7E4E9F4E1689415901591CD
:1018500035916591959105907FE27395E118F10AB4
:10186000430B560BC90BD009C0F7E10CF11E431F07
:10187000561FC91FD01D7EF4703311F48A95E6CF30
:10188000E894015030F0080F0AF40027021708F41A
:10189000202F2395022F7A3328F079E37D932A9520
:1018A000E9F710C07D932A9589F606949795679578
:1018B000379517951794E118F10A430B560BC90B8E
:1018C000D00998F023957E9173957A3308F070E3F0
:1018D0007C932013B8F77E9170617D9330F08395EF
:1018E00071E37D9370E32A95E1F71124EF90FF9067
:1018F0000F911F91CF91DF91992787FD90950895C2
:10190000FA01AA27283051F1203181F1E8946F9330
:101910006E7F6E5F7F4F8F4F9F4FAF4FB1E03ED0D6
:10192000B4E03CD0670F781F891F9A1FA11D680F74
:10193000791F8A1F911DA11D6A0F711D811D911DA7
:10194000A11D20D009F468943F912AE0269F11241C
:101950003019305D3193DEF6CF010895462F477080
:10196000405D4193B3E00FD0C9F7F6CF462F4F70DB
:10197000405D4A3318F0495D31FD4052419302D039
:10198000A9F7EACFB4E0A6959795879577956795DF
:10199000BA95C9F700976105710508959B01AC01DF
:1019A0000A2E06945795479537952795BA95C9F706
:1019B000620F731F841F951FA01D0895CF93DF939F
:1019C000FC01EB014230510570F06385748585851B
:1019D000968520E030E040E854E40E941ADF0E943F
:1019E00062DD7983688382E090E0DF91CF91089592
:1019F000CF93DF93EC01FB014230510518F420E056
:101A000030E012C06081718180E090E00E948EDD44
:101A100020E030E040E85AE30E941ADF6B877C87C1
:101A20008D879E8722E030E0C901DF91CF91089534
:101A3000DC01FB0183818C93828111968C93119739
:101A4000818112968C931297808113968C930895BE
:101A5000DC01FB0187818C93868111968C93119711
:101A6000858112968C931297848113968C93139789
:101A7000838114968C931497828115968C93159775
:101A8000818116968C931697808117968C93089572
:101A90001F920F920FB60F920BB60F9211242F9335
:101AA0003F934F938F939F93EF93FF934091C60083
:101AB00020916214309163142F5F3F4F8091661420
:101AC00090916714282339238091641490916514B0
:101AD0002817390779F08091621490916314E0918E
:101AE0006814F0916914E80FF91F40833093631470
:101AF00020936214FF91EF919F918F914F913F91AD
:101B00002F910F900BBE0F900FBE0F901F90189546
:101B10001F920F920FB60F920BB60F9211242F93B4
:101B20003F938F939F93EF93FF9320918414309171
:101B30008514809182149091831428173907E9F055
:101B40008091841490918514E0918814F091891407
:101B5000E80FF91F80818093C600809184149091D2
:101B60008514019620918614309187148223932343
:101B7000909385148093841410C020918214309126
:101B8000831480918414909185142817390729F4BF
:101B90008091C1008F7D8093C100FF91EF919F9153
:101BA0008F913F912F910F900BBE0F900FBE0F9012
:101BB0001F9018951F920F920FB60F920BB60F92AF
:101BC00011242F933F934F938F939F93EF93FF9302
:101BD0004091CE0020916A1430916B142F5F3F4FDB
:101BE00080916E1490916F142823392380916C1486
:101BF00090916D142817390779F080916A149091AB
:101C00006B14E0917014F0917114E80FF91F408388
:101C100030936B1420936A14FF91EF919F918F91F1
:101C20004F913F912F910F900BBE0F900FBE0F90D1
:101C30001F9018951F920F920FB60F920BB60F922E
:101C400011242F933F938F939F93EF93FF932091B2
:101C50008C1430918D1480918A1490918B142817D4
:101C60003907E9F080918C1490918D14E0919014D3
:101C7000F0919114E80FF91F80818093CE0080913C
:101C80008C1490918D14019620918E1430918F14A4
:101C90008223932390938D1480938C1410C02091F1
:101CA0008A1430918B1480918C1490918D14281784
:101CB000390729F48091C9008F7D8093C900FF9175
:101CC000EF919F918F913F912F910F900BBE0F90AD
:101CD0000FBE0F901F9018951F920F920FB60F9284
:101CE0000BB60F9211242F933F934F938F939F9393
:101CF000EF93FF934091360120917A1430917B1439
:101D00002F5F3F4F80917E1490917F1428233923B9
:101D100080917C1490917D142817390779F0809177
:101D20007A1490917B14E0918014F0918114E80F63
:101D3000F91F408330937B1420937A14FF91EF9125
:101D40009F918F914F913F912F910F900BBE0F90CC
:101D50000FBE0F901F9018951F920F920FB60F9203
:101D60000BB60F9211242F933F938F939F93EF9372
:101D7000FF9320919C1430919D1480919A1490911E
:101D80009B1428173907E9F080919C1490919D14B9
:101D9000E091A014F091A114E80FF91F80818093C5
:101DA000360180919C1490919D14019620919E146F
:101DB00030919F148223932390939D1480939C14BD
:101DC00010C020919A1430919B1480919C14909192
:101DD0009D142817390729F4809131018F7D809354
:101DE0003101FF91EF919F918F913F912F910F9032
:101DF0000BBE0F900FBE0F901F901895FC017183C2
:101E0000608385E06E31780739F47093A414609391
:101E1000A3141386128608C07093A6146093A514A9
:101E200081E090E093878287138212820895209147
:101E3000AA0C3091AB0CC9018F5C9440823891059B
:101E400010F481E00895C9018155954082389105CB
:101E500010F482E00895C901835D954082389105B0
:101E600010F483E00895C9018555964081389105A5
:101E700010F484E00895265D364014F480E008955F
:101E800085E00895A4E0B0E0E8E4FFE00C9450E0C1
:101E90006091611370916213809163139091641348
:101EA0000E9490DD3B014C018091EC119091ED116D
:101EB000A091EE11B091EF1189839A83AB83BC831B
:101EC00060915B1370915C1380915D1390915E1330
:101ED0000E9490DD1B012C01A0906703B090680365
:101EE000C0906903D0906A03C401B30129813A818B
:101EF0004B815C810E941ADF7B018C01C201B10120
:101F0000A60195010E941ADF9B01AC01C801B7012F
:101F10000E9410DC0E945DDD60930613709307132E
:101F20008093081390930913C401B301A60195018E
:101F30000E941ADF7B018C01C201B10129813A8123
:101F40004B815C810E941ADF9B01AC01C801B70183
:101F50000E9411DC0E945DDD9095809570956195E1
:101F60007F4F8F4F9F4F60930A1370930B13809393
:101F70000C1390930D132496E2E10C946CE080E036
:101F80000895FC01DB01452B11F083858C9381E0E2
:101F900090E00895DC01FB01452B19F080811B9630
:101FA0008C9381E090E00895FC016385772767FDBD
:101FB0007095872F972F0E9490DD0895FC01DB011B
:101FC0004230510520F0838594858D939C9382E067
:101FD00090E00895DC01FB014230510530F0808132
:101FE00091811C969C938E931B9782E090E00895BC
:101FF000FC0163857485882777FD8095982F0E9462
:1020000090DD0895FC012385348545855685B90109
:10201000CA010895CF93DF93FC01EB0144305105D1
:1020200040F083859485A585B68588839983AA83A6
:10203000BB8384E090E0DF91CF910895CF93DF934D
:10204000EC01FB014430510540F080819181A28177
:10205000B3818B879C87AD87BE8784E090E0DF915A
:10206000CF910895E0918A11F0918B1187A990ADDD
:102070008130910539F00297F9F483E261E00E9422
:10208000ABDB089581A58823D9F090E08091F01111
:10209000882309F491E09093F011992319F083E2D9
:1020A00060E002C083E261E00E94ABDBE0918A1154
:1020B000F0918B1111A6089583E260E00E94ABDBE2
:1020C00008958BE360E00E94ABDB08958BE361E051
:1020D0000E94ABDB08950E94661064E670E080E029
:1020E00090E00E94ADDA0E946110089585E260E000
:1020F0000E94ABDB84E260E00E94ABDB83E260E045
:102100000E94ABDB10924A131092AB12089580919B
:1021100072138F5F809372138150833011F4109289
:10212000721380917213813059F0813018F082302F
:10213000C1F40FC083E260E00E94ABDB85E205C022
:1021400085E260E00E94ABDB84E261E00E94ABDBF1
:10215000089584E260E00E94ABDB83E261E00E94CC
:10216000ABDB089580913913813079F484E461E028
:102170000E94ABDB82E461E00E94ABDB80E461E0C3
:102180000E94ABDB8EE361E00EC084E460E00E945D
:10219000ABDB82E460E00E94ABDB80E460E00E94A5
:1021A000ABDB8EE360E00E94ABDB089500D000D093
:1021B0008EE195E0EDB7FEB79283818380EB95E0E9
:1021C000948383830E9406C80F900F900F900F9006
:1021D00008950E94D61068EE73E080E090E00E94BF
:1021E000ADDA82E495E00E9491C8892B89F084E2FF
:1021F00061E00E94ABDB82E495E00E94C1C8682FD9
:1022000080E395E00E9422C984E260E00E94ABDB9B
:1022100080E395E00E9491C8892B89F083E261E018
:102220000E94ABDB80E395E00E94C1C8682F82E486
:1022300095E00E9422C983E260E00E94ABDB8EE160
:1022400095E00E9491C8181619065CF680E0089582
:1022500000D000D08EE195E0EDB7FEB79283818388
:1022600080EB96E0948383830E9406C80F900F90C2
:102270000F900F9080E008958DB79EB740970FB6EE
:10228000F8949EBF0FBE8DBFEDB7FEB731968EE1BD
:1022900095E0ADB7BEB712969C938E93119781EDE2
:1022A00096E0938382838091C1079091C207A091A9
:1022B000C307B091C40784839583A683B7838091B5
:1022C000C5079091C607A091C707B091C80780873E
:1022D0009187A287B3878091C9079091CA07A0917F
:1022E000CB07B091CC0784879587A687B7870E94D4
:1022F00006C88DB79EB740960FB6F8949EBF0FBE26
:102300008DBF08958DB79EB740970FB6F8949EBFC6
:102310000FBE8DBFEDB7FEB731968EE195E0ADB73C
:10232000BEB712969C938E93119784EF96E0938399
:1023300082838091CD079091CE07A091CF07B09175
:10234000D00784839583A683B7838091D10790912A
:10235000D207A091D307B091D40780879187A28735
:10236000B3878091D5079091D607A091D707B091F8
:10237000D80784879587A687B7870E9406C88DB738
:102380009EB740960FB6F8949EBF0FBE8DBF0895BE
:1023900000D000D08EE195E0EDB7FEB79283818347
:1023A00089ED97E0948383830E9406C80F900F9075
:1023B0000F900F9080E008950F931F938DB79EB7F5
:1023C00008970FB6F8949EBF0FBE8DBFEDB7FEB74E
:1023D00031960EE115E0ADB7BEB712961C930E9381
:1023E000119782EF98E09383828380916F0B909195
:1023F000700B958384838091890B90918A0B9783CE
:1024000086830E9406C8EDB7FEB73196ADB7BEB75A
:1024100012961C930E93119784EE98E09383828317
:102420008091C30B9091C40B958384838091DD0BC5
:102430009091DE0B978386830E9406C8EDB7FEB7A6
:102440003196ADB7BEB712961C930E93119786EDD9
:1024500098E0938382838091170C9091180C958358
:1024600084838091310C9091320C978386830E94F3
:1024700006C8EDB7FEB73196ADB7BEB712961C933E
:102480000E93119788EC98E09383828380916B0C74
:1024900090916C0C958384838091850C9091860C2F
:1024A000978386830E9406C8EDB7FEB73196ADB715
:1024B000BEB712961C930E9311978AEB98E0938304
:1024C00082838091BF0C9091C00C9583848380910E
:1024D000D90C9091DA0C978386830E9406C8EDB7D9
:1024E000FEB73196ADB7BEB712961C930E931197F7
:1024F0008CEA98E0938382838091130D9091140D60
:102500009583848380912D0D90912E0D97838683E2
:102510000E9406C8EDB7FEB73196ADB7BEB71296AA
:102520001C930E9311978EE998E093838283809198
:10253000670D9091680D958384838091810D9091B2
:10254000820D978386830E9406C88DB79EB7089632
:102550000FB6F8949EBF0FBE8DBF1F910F910895C7
:102560002EE135E0882349F000D000D0EDB7FEB76A
:10257000328321838CE699E008C000D000D0EDB70B
:10258000FEB73283218388E699E0948383830E9497
:1025900006C88EE195E0EDB7FEB79283818381E6B0
:1025A00099E0948383830E9406C80F900F900F9048
:1025B0000F90089500D000D08EE195E0EDB7FEB702
:1025C000928381838EE79AE0948383830E9406C876
:1025D0000F900F900F900F90089500D000D08EE1D3
:1025E00095E0EDB7FEB7928381838AE19CE0948306
:1025F00083830E9406C80F900F900F900F9080E089
:10260000089500D000D08EE195E0EDB7FEB792833B
:1026100081838EED9DE0948383830E9406C80F9092
:102620000F900F900F900895A0E0B0E0EAE1F3E181
:102630000C9458E02BECA22E25E0B22E95ECC92E7E
:1026400095E0D92E00E010E08EE1E82E85E0F82E2E
:1026500000D000D000D0EDB7FEB73196ADB7BEB711
:102660001296FC92EE921197B382A2821583048394
:102670000E9406C8C0E0D0E08DB79EB706960FB6A0
:10268000F8949EBF0FBE8DBFCE01800F911F0E9498
:10269000F9E400D000D000D0EDB7FEB73196ADB769
:1026A000BEB71296FC92EE921197D382C2828483B7
:1026B00015820E9406C821968DB79EB706960FB662
:1026C000F8949EBF0FBE8DBFC031D105E9F6C7019A
:1026D0000E943DD9005F1F4F90E10030190709F0BB
:1026E000B7CF80E0CDB7DEB7EAE00C9474E00F938B
:1026F0001F93CF93DF938091CC0A8823B9F400D045
:1027000000D08EE195E0ADB7BEB712969C938E9344
:1027100011978FED95E014969C938E9313970E94DA
:1027200006C80F900F900F900F9030C00E94D610E7
:1027300001ED15E0CEE1D5E064E670E080E090E0E8
:102740000E94ADDA8AE499E00E9467C400D000D00C
:1027500000D0EDB7FEB73196ADB7BEB71296DC9399
:10276000CE93119713830283958384830E9406C8B6
:10277000EDB7FEB736960FB6F894FEBF0FBEEDBFAD
:10278000CE010E9491C818161906B4F680E0DF91B8
:10279000CF911F910F910895EF92FF920F931F9386
:1027A000CF93DF9380919C0590919D059093BE11EE
:1027B0008093BD11C0E0D0E064E170E080E090E083
:1027C0000E94ADDA84E995E00E9428812196CC33FD
:1027D000D10591F7C0E0D0E064E170E080E090E0E6
:1027E0000E94ADDA84E995E00E942881E0909E0580
:1027F000F0909F050091A0051091A105E092BF11F6
:10280000F092C0110093C1111093C2112091BD111B
:102810003091BE11C90143E0880F991F4A95E1F735
:10282000820F931F20919C0530919D05820F931F6D
:102830006AE070E00E9400E07093BE116093BD11E9
:102840002196C431D10541F6E092C311F092C41132
:102850000093C5111093C611CDB7DEB7E6E00C9416
:1028600078E0AF92BF92CF92DF92EF92FF920F93F8
:102870001F9384E995E00E942881E0909E05F090E6
:102880009F050091A0051091A105E092C311F0925F
:10289000C4110093C5111093C6116091BF117091BE
:1028A000C0118091C1119091C2110E9490DD5B0115
:1028B0006C01C801B7010E9490DD9B01AC01C6010B
:1028C000B5010E94F5DC0E94DADE7B018C0160918B
:1028D000BD117091BE11882777FD8095982F0E94B9
:1028E00090DD20E030E040E251E40E94F5DC23E39B
:1028F00033E948E853E40E9411DC9B01AC01C801B4
:10290000B7010E941ADF29E83EEA44EE56E40E942D
:102910001ADF20E030E040E251E40E94F5DC0E9442
:102920005DDD9B01AC01CA011F910F91FF90EF90FB
:10293000DF90CF90BF90AF9008950F931F93CF93E8
:10294000DF930E94D6100E94CC130FEE15E0CEE16B
:10295000D5E064E670E080E090E00E94ADDA0E948D
:1029600031147093BC116093BB1100D000D000D023
:10297000EDB7FEB73196ADB7BEB71296DC93CE93E6
:10298000119713830283758364830E9406C88DB7F1
:102990009EB706960FB6F8949EBF0FBE8DBFCE01B0
:1029A0000E9491C818161906A4F680E0DF91CF9115
:1029B0001F910F910895A0E0B0E0E1EEF4E10C94D6
:1029C00057E0EC018091C909992787FD90958617FA
:1029D000970714F4188277C0CB0154E0880F991F31
:1029E0005A95E1F7861B970B80509C4F5C01CC24D5
:1029F000B7FCC094DC2C0E94F9E488838601750141
:102A00000894E11CF11C011D111DC7010E94F9E48D
:102A1000982E89830894E11CF11C011D111DC7012A
:102A20000E94F9E48A830894E11CF11C011D111D28
:102A3000C7010E9401E56B837C838D839E8387E0C1
:102A400090E0A0E0B0E0A80EB91ECA1EDB1EC501D2
:102A50000E9401E57B018C01EF82F88609871A87C5
:102A600084E090E0A0E0B0E0A80EB91ECA1EDB1E14
:102A7000C5010E9401E59B01AC012B873C874D8776
:102A80005E8794FE20C08091CE119091CF11A091CD
:102A9000D011B091D111E80EF91E0A1F1B1FEF8251
:102AA000F88609871A878091D2119091D311A0914D
:102AB000D411B091D511280F391F4A1F5B1F2B87E6
:102AC0003C874D875E87CE01CDB7DEB7EBE00C9437
:102AD00073E08F929F92AF92BF92DF92EF92FF923C
:102AE0000F931F93DF93CF93CDB7DEB72F970FB61A
:102AF000F894DEBF0FBECDBF68EE73E080E090E0DB
:102B00000E94ADDA00D000D00EE115E0ADB7BEB73F
:102B100012961C930E93119789E196E014969C935C
:102B20008E9313970E9406C82091BF0A3091C00A65
:102B30000F900F900F900F9037FF11C000D000D072
:102B4000EDB7FEB71283018387E196E09483838318
:102B50000E9406C80F900F900F900F9021C000D0D8
:102B600000D000D0EDB7FEB73196ADB7BEB7129624
:102B70001C930E9311978FE096E093838283C90193
:102B800064E670E00E9400E0758364830E9406C8DA
:102B9000EDB7FEB736960FB6F894FEBF0FBEEDBF89
:102BA00000D000D000D0EDB7FEB731960EE115E0B1
:102BB000ADB7BEB712961C930E93119788E096E0BE
:102BC000938382838091C909992787FD9095958386
:102BD00084830E9406C8EDB7FEB73196ADB7BEB785
:102BE00012961C930E9311978BEF95E0938382833B
:102BF0008091ED09992787FD9095958384830E94A4
:102C000006C863E2862E66E0962EFF24EDB7FEB777
:102C100036960FB6F894FEBF0FBEEDBF5E01089466
:102C2000A11CB11CD02EE12E46C0C501B8010E94E6
:102C3000DB148DB79EB748970FB6F8949EBF0FBEB2
:102C40008DBFEDB7FEB73196ADB7BEB71196DC922A
:102C500011971296EC929382828215830483898164
:102C6000868317828A81808711868B81828713866B
:102C70008C819D81AE81BF8184879587A687B78728
:102C800088859985AA85BB85808B918BA28BB38B18
:102C90008C859D85AE85BF85848B958BA68BB78BE8
:102CA0000E9406C8F394EDB7FEB778960FB6F89475
:102CB000FEBF0FBEEDBF0F2D10E08091C90999270F
:102CC00087FD9095801791070CF0AFCF80E02F968D
:102CD0000FB6F894DEBF0FBECDBFCF91DF911F912D
:102CE0000F91FF90EF90DF90BF90AF909F908F90EB
:102CF0000895EF92FF920F931F93CF93DF930E945B
:102D0000D61068EE73E080E090E00E94ADDA75E6E0
:102D1000E72E76E0F72E0AE516E0CEE1D5E000D00A
:102D200000D0EDB7FEB7D283C183F482E3820E9464
:102D300006C80F900F900F900F9084E699E00E94C4
:102D4000ABC468EB7BE080E090E00E94ADDACE019E
:102D50000E9491C818161906F4F000D000D0EDB703
:102D6000FEB7D283C183148303830E9406C80F90E9
:102D70000F900F900F9084E699E00E94B1C468EB29
:102D80007BE080E090E00E94ADDACE010E9491C825
:102D90001816190624F680E0CDB7DEB7E6E00C94ED
:102DA00078E00F931F9304E713E14091170C5091C3
:102DB000180CC80160E00E94D4824091170C509119
:102DC000180CC80161E00E94D4824091170C509108
:102DD000180CC80162E00E94D4824091170C5091F7
:102DE000180CC80163E00E94D4824091170C5091E6
:102DF000180CC80166E00E94D4824091170C5091D3
:102E0000180CC80167E00E94D4821F910F910895A9
:102E100084E793E10E945083813009F060C0809381
:102E2000DE1184E793E160E00E942383BC018FE41C
:102E30009BE00E9490D384E793E161E00E942383AA
:102E4000BC0183EA9BE00E9490D384E793E162E0B7
:102E50000E942383BC0187EF9BE00E9490D384E70C
:102E600093E163E00E942383BC018BE49CE00E9419
:102E700090D384E793E164E00E942383BC018FE94F
:102E80009CE00E9490D384E793E165E00E94238355
:102E9000BC0183EF9CE00E9490D384E793E166E05D
:102EA0000E942383BC0187E49DE00E9490D384E7C5
:102EB00093E167E00E942383BC018BE99DE00E94BF
:102EC00090D38091040C9091050C23E081329207FD
:102ED00014F080E293E09093050C8093040C089525
:102EE0000F931F93CF93DF930E94D61068EE73E089
:102EF00080E090E00E94ADDA0AE417E0CEE1D5E090
:102F000064E170E080E090E00E94ADDA0E94081772
:102F10008DB79EB742970FB6F8949EBF0FBE8DBF78
:102F2000EDB7FEB73196ADB7BEB71296DC93CE9330
:102F300011971383028380915C0B90915D0B9583B5
:102F400084838091B00B9091B10B9783868380919D
:102F5000040C9091050C918780878091580C90917A
:102F6000590C938782878091AC0C9091AD0C95871A
:102F700084878091000D9091010D978786878091BD
:102F8000540D9091550D918B808B0E9406C88DB782
:102F90009EB742960FB6F8949EBF0FBE8DBFCE016E
:102FA0000E9491C8181619060CF0AACF80E0DF9194
:102FB000CF911F910F9108950F931F93CF93DF939C
:102FC0000E94D61068EE73E080E090E00E94ADDAD7
:102FD00009E717E0CEE1D5E064E170E080E090E041
:102FE0000E94ADDA0E9408178DB79EB744970FB6BE
:102FF000F8949EBF0FBE8DBFEDB7FEB73196ADB74B
:10300000BEB71296DC93CE931197138302838091FF
:103010005A0B90915B0B958384838091AE0B9091BA
:10302000AF0B978386838091020C9091030C91875C
:1030300080878091560C9091570C9387828780915E
:10304000AA0C9091AB0C958784878091FE0C90918F
:10305000FF0C978786878091520D9091530D918B2D
:10306000808B8091A60D9091A70D938B828B0E94EF
:1030700006C88DB79EB744960FB6F8949EBF0FBE94
:103080008DBFCE010E9491C8181619060CF0A4CF6E
:1030900080E0DF91CF911F910F910895EF92FF9201
:1030A0000F931F9380E00E94FDD9AA2797FDA0955A
:1030B000BA2FBC01CD010E9490DD7B018C01609193
:1030C0003C0B70913D0B80913E0B90913F0B20E0AB
:1030D00030E040E85AE30E941ADF9B01AC01C801CE
:1030E000B7010E941ADF2AE037ED43E650E40E9460
:1030F0001ADF2DEC3CEC4CEC5DE30E941ADF7B0107
:103100008C0160914F037091500380915103909115
:10311000520326E636E646E65FE30E941ADF9B018D
:10312000AC01C801B7010E9411DC60934F0370939A
:103130005003809351039093520381E00E94FDD984
:10314000AA2797FDA095BA2FBC01CD010E9490DD62
:103150007B018C0160913C0B70913D0B80913E0B8B
:1031600090913F0B20E030E040E85AE30E941ADFE4
:103170009B01AC01C801B7010E941ADF2AE037EDBC
:1031800043E650E40E941ADF2DEC3CEC4CEC5DE38E
:103190000E941ADF7B018C016091530370915403EC
:1031A000809155039091560326E636E646E65FE3A6
:1031B0000E941ADF9B01AC01C801B7010E9411DC1B
:1031C0006093530370935403809355039093560375
:1031D00082E00E94FDD9AA2797FDA095BA2FBC01D5
:1031E000CD010E9490DD7B018C0160913C0B7091C0
:1031F0003D0B80913E0B90913F0B20E030E040E88A
:103200005AE30E941ADF9B01AC01C801B7010E947A
:103210001ADF2AE037ED43E650E40E941ADF2DEC76
:103220003CEC4CEC5DE30E941ADF7B018C01609169
:103230005703709158038091590390915A0326E6E1
:1032400036E646E65FE30E941ADF9B01AC01C80147
:10325000B7010E9411DC6093570370935803809369
:10326000590390935A0383E00E94FDD9AA2797FD42
:10327000A095BA2FBC01CD010E9490DD7B018C018D
:1032800060913C0B70913D0B80913E0B90913F0BF8
:1032900020E030E040E85AE30E941ADF9B01AC01D5
:1032A000C801B7010E941ADF2AE037ED43E650E477
:1032B0000E941ADF2DEC3CEC4CEC5DE30E941ADF1F
:1032C0007B018C0160915B0370915C0380915D03D5
:1032D00090915E0326E636E646E65FE30E941ADF3B
:1032E0009B01AC01C801B7010E9411DC7B018C017C
:1032F000CB01D80180935B0390935C03A0935D03A3
:10330000B0935E032091D80A213049F4809157038D
:1033100090915803A0915903B0915A0304C02230F0
:1033200059F4C701D80180934B0390934C03A093A9
:103330004D03B0934E037DC0233019F0243009F0C3
:1033400078C080914F0390915003A0915103B091A8
:10335000520380934B0390934C03A0934D03B0937F
:103360004E03243009F065C081E00E94FDD9AA27F0
:1033700097FDA095BA2FBC01CD010E9490DD7B0185
:103380008C0160913C0B70913D0B80913E0B9091B4
:103390003F0B20E030E040E85AE30E941ADF9B0137
:1033A000AC01C801B7010E941ADF2CE53FE84AEDE5
:1033B00051E40E941ADF2DEC3CEC4CEC5DE30E94E2
:1033C0001ADF7B018C016091D6117091D711809129
:1033D000D8119091D91126E636E646E65FE30E94C1
:1033E0001ADF9B01AC01C801B7010E9411DC609398
:1033F000D6117093D7118093D8119093D91123EDE2
:103400003CEB43EE5CE30E941ADF9B01AC01609150
:10341000DA117091DB118091DC119091DD110E9425
:1034200011DC6093DA117093DB118093DC119093BF
:10343000DD111F910F91FF90EF9008950F931F934F
:10344000CF93DF930E94D6100FE616E0CEE1D5E0D1
:1034500064E670E080E090E00E94ADDA0E94081718
:103460000E944E188DB79EB740970FB6F8949EBF36
:103470000FBE8DBFEDB7FEB73196ADB7BEB7129692
:10348000DC93CE9311971383028380914B03909129
:103490004C03A0914D03B0914E0384839583A68382
:1034A000B7838091D6119091D711A091D811B09186
:1034B000D91180879187A287B3878091DA11909183
:1034C000DB11A091DC11B091DD1184879587A6876F
:1034D000B7870E9406C88DB79EB740960FB6F8947E
:1034E0009EBF0FBE8DBF4091020C5091030C84E72C
:1034F00093E160E00E94D4824091020C5091030C51
:1035000084E793E161E00E94D4824091020C5091E3
:10351000030C84E793E162E00E94D4824091020CA4
:103520005091030C84E793E163E00E94D482CE01C2
:103530000E9491C8181619060CF08ACF80E0DF911E
:10354000CF911F910F9108950F931F93CF93DF9306
:103550000E94D61068EE73E080E090E00E94ADDA41
:103560000FE816E0CEE1D5E064E170E080E090E0A5
:103570000E94ADDA0E9408178091580C9091590C66
:1035800090935B0C80935A0C8BE49CE00E9438D49F
:103590008DB79EB708970FB6F8949EBF0FBE8DBF2C
:1035A000EDB7FEB73196ADB7BEB71296DC93CE93AA
:1035B0001197138302838091580C9091590C958335
:1035C000848380915E0C90915F0C978386830E9428
:1035D00006C88DB79EB708960FB6F8949EBF0FBE6B
:1035E0008DBF40915E0C50915F0C84E793E166E0E3
:1035F0000E94D482CE010E9491C8181619060CF0C0
:10360000B3CF80E0DF91CF911F910F91089560912A
:10361000000D7091010D882777FD8095982F0E94ED
:1036200090DD20E030E04AE754E40E94F5DC60934E
:103630006009709361098093620990936309809196
:10364000090B992787FD9095A92FB92FFC01319778
:10365000EC30F10508F072C1EE58FF4F0C9487E092
:1036600083EF9CE060E070E040E45FE10E9404D200
:103670008091600990916109A0916209B0916309FC
:1036800080935B0F90935C0FA0935D0FB0935E0FE0
:103690008093950F9093960FA093970FB093980FE8
:1036A000089583EF9CE060E070E04CE251E00E94FE
:1036B00004D26091000D7091010D882777FD8095EF
:1036C000982F0E9490DD20E030E04AE754E40E9409
:1036D000F5DCDC019B01AC012093600930936109AA
:1036E000409362095093630920936A0F30936B0FE4
:1036F00040936C0F50936D0FCB018093A40F909368
:10370000A50FA093A60FB093A70F089583EF9CE099
:1037100060E070E04CE251E00E9404D280916009C8
:1037200090916109A0916209B09163098093AD0EF7
:103730009093AE0EA093AF0EB093B00E8093E70EB1
:103740009093E80EA093E90EB093EA0E089583EFEC
:103750009CE060E070E04CE251E00E9404D2809175
:10376000600990916109A0916209B0916309809309
:10377000BC0E9093BD0EA093BE0EB093BF0E80936F
:10378000F60E9093F70EA093F80EB093F90E0895ED
:1037900083EF9CE060E070E048EE53E00E9404D2CA
:1037A0008091600990916109A0916209B0916309CB
:1037B0008093CF0F9093D00FA093D10FB093D20FDF
:1037C000089583EF9CE060E070E048EE53E00E94D3
:1037D00004D28091600990916109A0916209B09131
:1037E00063098093210F9093220FA093230FB0932E
:1037F000240F089583EF9CE060E070E048EE53E012
:103800000E9404D28091600990916109A09162099F
:10381000B091630980932B1190932C11A0932D11DB
:10382000B0932E11089583EF9CE060E273E048EEC0
:1038300053E00E9404D28091600990916109A091A7
:103840006209B09163098093210B9093220BA0939E
:10385000230BB093240B089583EF9CE060E070E0AD
:1038600048EE53E00E9404D28091000D9091010D2A
:103870008E50924024F084E699E00E94ABC480917F
:10388000000D9091010D8B5D91400CF057C084E6C6
:1038900099E00E94B1C4089583EF9CE060E070E07D
:1038A00048EE53E00E9404D28091000D9091010DEA
:1038B0009093060A8093050A089583EF9CE060E0E8
:1038C00070E048EE53E00E9404D28091600990912C
:1038D0006109A0916209B0916309809309109093E6
:1038E0000A10A0930B10B0930C1080934310909388
:1038F0004410A0934510B0934610089583EF9CE0C8
:1039000060E070E040E757E10E9404D280916009D6
:1039100090916109A0916209B091630980937D1033
:1039200090937E10A0937F10B09380108093B71077
:103930009093B810A093B910B093BA1008950F9354
:103940001F93CF93DF930E94D61003EA16E0CEE1D7
:10395000D5E068EC70E080E090E00E94ADDA0E9473
:1039600008170E94071B8DB79EB708970FB6F894EB
:103970009EBF0FBE8DBFEDB7FEB73196ADB7BEB7D8
:103980001296DC93CE931197138302838091600982
:1039900090916109A0916209B09163098483958334
:1039A000A683B7830E9406C88DB79EB708960FB648
:1039B000F8949EBF0FBE8DBFCE010E9491C818160D
:1039C00019063CF680E0DF91CF911F910F91089589
:1039D0000F931F93CF93DF93062F142F00D000D0A7
:1039E00000D0EDB7FEB73196CEE1D5E0ADB7BEB7AA
:1039F0001296DC93CE93119729E939E03383228321
:103A0000848315820E9406C8EDB7FEB736960FB6BE
:103A1000F894FEBF0FBEEDBFE02FF0E0EE0FFF1FEA
:103A2000ED54FC4F60817181CE010E946DD800D0B1
:103A300000D0ADB7BEB71296DC93CE9311978DE848
:103A400099E014969C938E9313970E9406C80F904A
:103A50000F900F900F90112359F000D000D0EDB7C8
:103A6000FEB7D283C18389E899E0948383830EC033
:103A700000D000D0ADB7BEB71296DC93CE931197AD
:103A800084E899E014969C938E9313970E9406C83D
:103A90000F900F900F900F90DF91CF911F910F918A
:103AA0000895CF93DF93C0E0D0E08EE195E060E031
:103AB00072E00E946DD82196C832D105B1F78EE12F
:103AC00095E062E072E00E9454D9DF91CF910895B1
:103AD000CF93DF93EC0107C021978EE195E062E080
:103AE00072E00E9454D91C161D06B4F3DF91CF91E9
:103AF000089500D000D08EE195E0EDB7FEB7928337
:103B000081838CEC96E0948383830E9406C80F9097
:103B10000F900F900F900E94511D0E943C110E9427
:103B2000821182E090E00E94681D089500D000D0CC
:103B300000D0EDB7FEB731968EE195E0ADB7BEB7D8
:103B400012969C938E93119788E898E093838283D2
:103B50008091710990917209958384830E9406C8AF
:103B60008DB79EB706960FB6F8949EBF0FBE8DBF59
:103B70000E94511D82E090E00E94681D089500D0CF
:103B800000D08EE195E0EDB7FEB79283818387E99F
:103B900098E0948383830E9406C80F900F900F9043
:103BA0000F900E94511D0E94DC1182E090E00E9463
:103BB000681D0895CF93DF9300D000D0CEE1D5E00B
:103BC000EDB7FEB7D283C18382E299E09483838309
:103BD0000E9406C80F900F900F900F900E94511DE9
:103BE00000D000D0EDB7FEB7D283C18388E199E061
:103BF000948383830E9406C88091150B0F900F90C9
:103C00000F900F90813049F400D000D0EDB7FEB78F
:103C1000D283C18380E199E015C0882349F400D0A4
:103C200000D0EDB7FEB7D283C18388E099E00AC027
:103C3000823081F400D000D0EDB7FEB7D283C183CB
:103C400080E099E0948383830E9406C80F900F90D0
:103C50000F900F9082E090E00E94681DDF91CF915D
:103C6000089500D000D08EE195E0EDB7FEB79283C5
:103C7000818382E599E0948383830E9406C80F9034
:103C80000F900F900F900E94511D8091D80A8823A9
:103C900011F40E94B0128091D80A813091F400D0C2
:103CA00000D08EE195E0EDB7FEB7928381838AE480
:103CB00099E0948383830E9406C80F900F900F9021
:103CC0000F908091D80A823091F400D000D08EE11C
:103CD00095E0EDB7FEB79283818382E499E0948307
:103CE00083830E9406C80F900F900F900F908091D1
:103CF000D80A833091F400D000D08EE195E0EDB782
:103D0000FEB79283818387E399E0948383830E9443
:103D100006C80F900F900F900F908091D80A8430B2
:103D200091F400D000D08EE195E0EDB7FEB792831C
:103D3000818389E299E0948383830E9406C80F906F
:103D40000F900F900F9082E090E00E94681D089500
:103D50000F931F93CF93DF9300D000D08EE195E0B7
:103D6000EDB7FEB79283818386E799E094838383DE
:103D70000E9406C80F900F900F900F900E94511D47
:103D80000EE51AE0C0E0D0E04091A60A552747FDB5
:103D900050950C2E02C0559547950A94E2F7417054
:103DA00050708C2FF80160810E94E81C2196045FFE
:103DB0001F4FC630D10541F782E090E00E94681D98
:103DC000DF91CF911F910F910895CF93DF9300D092
:103DD00000D0CEE1D5E0ADB7BEB71296DC93CE935E
:103DE000119781EE99E014969C938E9313970E94FD
:103DF00006C80F900F900F900F900E94511D2091B8
:103E0000090B222321F480E00E94B01220C000D0D0
:103E100000D000D0EDB7FEB73196ADB7BEB7129661
:103E2000DC93CE9311978CED99E093838283822F5C
:103E3000992787FD9095958384830E9406C8EDB7E6
:103E4000FEB736960FB6F894FEBF0FBEEDBF82E008
:103E500090E00E94681DDF91CF91089500D000D0BE
:103E60008EE195E0EDB7FEB79283818383E693E11F
:103E7000948383830E9406C80F900F900F900F9039
:103E80000E94511D80913A130E94B01282E090E08E
:103E90000E94681D0895ACE0B0E0E1E5FFE10C94FC
:103EA00060E089ED97E00E9415B4DE011196EEE521
:103EB000F8E08CE001900D928150E1F7ACE8B1E1BF
:103EC000FE0131968CE001900D928150E1F72C9625
:103ED000E2E00C947CE0A0E3B0E0E1E7FFE10C94C9
:103EE00050E0DE011196EAE0F8E084E201900D92E4
:103EF0008150E1F729803A804B805C806D847E841C
:103F00008F849888A98CBA8CCB8CDC8C89A19AA1DF
:103F1000ABA1BCA189A79AA7ABA7BCA78D8D9E8D8D
:103F2000AF8DB8A18DA39EA3AFA3B8A7C201B10165
:103F3000A20191010E941ADF7B018C01C401B3012F
:103F4000A40193010E941ADF9B01AC01C801B701D3
:103F50000E9411DC0E9487DF6DA77EA78FA798AB18
:103F6000D601C501B0588093E4119093E511A09358
:103F7000E611B093E711C601B501A60195010E94B3
:103F80001ADF9B01AC0160E070E080E89FE30E94D3
:103F900010DC0E9487DF7B018C0160935F037093CC
:103FA0006003809361039093620369A57AA58BA552
:103FB0009CA5A80197010E94F5DC609363037093B0
:103FC000640380936503909366036DA17EA18FA126
:103FD00098A5A80197010E94F5DC6093E811709301
:103FE000E9118093EA119093EB11C401B3012DA55F
:103FF0003EA54FA558A90E94F5DC60936703709316
:1040000068038093690390936A03C201B1012DA5EF
:104010003EA54FA558A90E94F5DC6093EC11709362
:10402000ED118093EE119093EF11E096E2E10C9484
:104030006CE0A4E2B0E0EFE1F0E20C945AE00E9400
:10404000791D89E897E06DEA7AED0E940BC40E9421
:10405000791D0E94D61068EE73E080E090E00E9427
:10406000ADDA0E9479DA6093DF117093E0118093EA
:10407000E1119093E2111DEBC12E16E0D12EBEE1AD
:10408000EB2EB5E0FB2E8E010F5F1F4F0E9479DAF9
:104090002091DF113091E0114091E1115091E21136
:1040A000621B730B840B950B6530710581059105BF
:1040B00008F468C00E944B1F8091E3118F5F8093CA
:1040C000E311843011F40E946B1F8091E31184315D
:1040D00009F058C01092E3118DB79EB740970FB604
:1040E000F8949EBF0FBE8DBFEDB7FEB73196ADB74A
:1040F000BEB71296FC92EE921197D382C282809143
:10410000D9079091DA07A091DB07B091DC0784838F
:104110009583A683B7838091DD079091DE07A091F8
:10412000DF07B091E00780879187A287B3878091EE
:10413000E1079091E207A091E307B091E40784873B
:104140009587A687B7870E9406C88DB79EB7409609
:104150000FB6F8949EBF0FBE8DBF8091F10A8823E1
:1041600089F088EF95E00E94D893D801EAE0F8E062
:1041700084E201900D928150E1F788EF95E0B8015B
:104180000E94B3A08EE195E00E9491C8181619060E
:104190000CF07CCF80E0A496E8E00C9476E0AF923F
:1041A000BF92CF92DF92EF92FF920F931F937C0109
:1041B0008B01FB016781708581859285F7012781DD
:1041C000308541855285621B730B840B950B0E94D1
:1041D00090DD5B016C01F8016385748585859685AA
:1041E000F7012385348545855685621B730B840B47
:1041F000950B0E9490DD20916E0330916F034091EA
:104200007003509171030E941ADF7B018C01C6017B
:10421000B501A60195010E941ADF5B016C01C8017E
:10422000B701A80197010E941ADF9B01AC01C601EA
:10423000B5010E9411DC0E9487DF28EC32E646E3DC
:104240005CE30E941ADF0E945DDD9B01AC01CA01A4
:104250001F910F91FF90EF90DF90CF90BF90AF90A4
:104260000895CF92DF92FF920F931F93CF93DF9326
:104270000E94D61000D000D00EE115E0ADB7BEB759
:1042800012961C930E9311978CE197E014969C93D1
:104290008E9313970E9406C80F900F900F900F9067
:1042A00068EE73E080E090E00E94ADDA88E1C82E0D
:1042B00087E0D82EC0E0D0E0F02E012F21C084E5A9
:1042C00095E06C2F0E941A8400D000D000D0EDB78A
:1042D000FEB73196ADB7BEB71196FC921197129604
:1042E0000C93D382C282958384830E9406C8219650
:1042F000EDB7FEB736960FB6F894FEBF0FBEEDBF12
:10430000C930D105E4F28EE195E00E943DD964E127
:1043100070E080E090E00E94ADDA8EE195E00E94CE
:1043200091C8181619061CF0C0E0D0E0E9CF80E073
:10433000DF91CF911F910F91FF90DF90CF90089563
:10434000A0E0B0E0E6EAF1E20C945AE00E94D61058
:1043500068EE73E080E090E00E94ADDA21E2C22EC8
:1043600027E0D22E9EE1E92E95E0F92E6DE471E072
:1043700080E090E00E94ADDA0E94321080918A11B4
:1043800090918B110E9406BEC0918A11D0918B1121
:104390008FA1882309F445C08DB79EB742970FB609
:1043A000F8949EBF0FBE8DBF0DB71EB70F5F1F4F96
:1043B000EDB7FEB7F282E182F801D382C2828C852A
:1043C0009D85AE85BF8584839583A683B7838889C1
:1043D0009989AA89BB8980879187A287B3876C89CD
:1043E0007D898E899F8924E630E040E050E00E947C
:1043F00035E0F80124873587468757878EA1808B63
:10440000118A0E9406C8E0918A11F0918B1117A2BF
:104410008DB79EB742960FB6F8949EBF0FBE8DBF64
:1044200006C08EE195E063E072E00E946DD88EE1F7
:1044300095E00E9491C8181619060CF097CF80E0FD
:10444000CDB7DEB7E8E00C9476E000D000D08EE186
:1044500095E0EDB7FEB7928381838EEA97E094836F
:1044600083830E9406C80F900F900F900F908FE9E2
:1044700091E10E94449080E0089584EB91E10E94D4
:10448000449080E00895CF93DF9300D000D0CEE138
:10449000D5E0EDB7FEB7D283C1838AE798E0948375
:1044A00083830E9406C80F900F900F900F90809109
:1044B0006F0B9091700B8451954064F168EE73E03E
:1044C00080E090E00E94ADDA00D000D0EDB7FEB7FA
:1044D000D283C18381E598E0948383830E9406C8D8
:1044E0000F900F900F900F9068EE73E080E090E0D7
:1044F0000E94ADDA00D000D0EDB7FEB7D283C18301
:104500008EE298E0948383830E9406C80F900F90F8
:104510000F900F9086EA91E10E94449080E0DF9135
:10452000CF91089588E991E10E94449080E0089538
:1045300081EC9AE00E94F98800D000D08EE195E0ED
:10454000EDB7FEB7928381838FE699E094838383EE
:104550000E9406C80F900F900F900F900E94511D5F
:104560008091CC0A0E94B01282E090E00E94681D07
:104570000895A0E0B0E0EFEBF2E20C945AE000D036
:1045800000D04EE1E42E45E0F42EADB7BEB7129652
:10459000FC92EE92119783ED99E014969C938E9382
:1045A00013970E9406C80F900F900F900F900E94D3
:1045B000511D8091F10A0E94B01238EFC32E35E0F0
:1045C000D32EC6010E949D98CDB7DEB728970FB6AF
:1045D000F894DEBF0FBECDBF0DB71EB70F5F1F4FE4
:1045E000FA82E98223EC39E0F8013383228321EE59
:1045F0003EE245E652E40E941ADFD80114966D931C
:104600007D938D939C9317970E9406C8CDB7DEB714
:1046100028960FB6F894DEBF0FBECDBFC6010E942C
:1046200098989C01EDB7FEB770970FB6F894FEBF4F
:104630000FBEEDBF3196ADB7BEB71296FC92EE92AB
:10464000119782EA99E093838283E90188819981B5
:10465000AA81BB8184839583A683B7838C819D8146
:10466000AE81BF8180879187A287B387888599852E
:10467000AA85BB8584879587A687B7870E9406C8C9
:10468000EDB7FEB770960FB6F894FEBF0FBEEDBF44
:1046900082E090E00E94681DCDB7DEB7E8E00C94A0
:1046A00076E0FF920F931F93F82E8B0188E090E045
:1046B0000E94681D0E94961D0E94BF1D0E94DA1D67
:1046C0000E94311E0E9498220E94A81E0E94791DFD
:1046D0000E94B9228F2DB8010E94188F80E01F918F
:1046E0000F91FF900895FB016089718982899389F8
:1046F00025E33AEF4EE85CE30E941ADFAB01BC0110
:1047000088EF95E00E9438A30E94B92280E00895C6
:10471000FB0184858093090B8EEF9AE00E94A289A9
:104720000E94E51E80E0089500D000D08EE195E063
:10473000EDB7FEB79283818380E99AE09483838307
:104740000E9406C881E08093FD0A0F900F900F90A1
:104750000F9082EF9AE00E94A28964E170E080E00D
:1047600090E00E94ADDA8EE195E00E9491C81816A3
:1047700019069CF71092FD0A82EF9AE00E94A28926
:1047800080E0089564E170E080E090E00E94ADDA9E
:104790000E9408178091170C9091180C9093F211B9
:1047A0008093F1119093F4118093F3119093F6118B
:1047B0008093F5119093F8118093F7119093FE1167
:1047C0008093FD11909300128093FF1120915C0B58
:1047D00030915D0B4BE0293B340754F08C599F4FCF
:1047E0009093F2118093F1119093FE118093FD113B
:1047F0002854344FA4F48091F3119091F4118C5902
:104800009F4F9093F4118093F3118091F511909143
:10481000F6118C599F4F9093F6118093F51180916A
:10482000B00B9091B10B895B9B40A4F08091FF117C
:10483000909100128C599F4F909300128093FF111A
:104840008091F7119091F8118C599F4F9093F81126
:104850008093F7114091F1115091F21184E793E1A7
:1048600060E00E94D4824091F3115091F41184E7EA
:1048700093E161E00E94D4824091F7115091F811C8
:1048800084E793E162E00E94D4824091F711509155
:10489000F81184E793E163E00E94D4824091FD1116
:1048A0005091FE1184E793E166E00E94D48240912A
:1048B000FF115091001284E793E167E00E94D482D7
:1048C0008EE195E00E9491C8181619060CF05ACF97
:1048D0001092FD0A82EF9AE00E94A28980E008957A
:1048E000FF920F931F93CF93DF9300D000D08EE100
:1048F00095E0EDB7FEB79283818385E39AE09483D8
:1049000083830E9406C80F900F900F900F900E9413
:10491000D610FF2400E0C1E0D0E064E170E080E068
:1049200090E00E94ADDA0E9408170E94170F182F1E
:10493000F81609F190E0FC01EE0FFF1FE80FF91FD8
:10494000EE0FFF1FEE0FFF1FED5AF54F03850930E5
:1049500008F008E04091A60A552747FD5095012E22
:1049600002C0559547950A94E2F741705070812F27
:10497000602F0E94E81C80915C0B90915D0B97FF6B
:1049800003C0909581959F4F895B9B404CF10F5FD1
:10499000093009F400E0812F90E0FC01EE0FFF1FC9
:1049A000E80FF91FEE0FFF1FEE0FFF1FED5AF54F37
:1049B00003874091A60A552747FD5095012E02C056
:1049C000559547950A94E2F741705070812F602FFA
:1049D0000E94E81C64EF71E080E090E00E94ADDA94
:1049E0008091580C9091590C895B9B400CF1CE0141
:1049F000012E02C0880F991F0A94E2F74091A60A7F
:104A0000482B4093A60A552747FD5095012E02C01A
:104A1000559547950A94E2F741705070812F602FA9
:104A20000E94E81C64EF71E080E090E00E94ADDA43
:104A30008091580C9091590C8854944F1CF5CE01DC
:104A4000012E02C0880F991F0A94E2F780952091E9
:104A5000A60A82238093A60A482F552747FD509522
:104A6000012E02C0559547950A94E2F741705070A7
:104A7000812F602F0E94E81C64EF71E080E090E0DD
:104A80000E94ADDA8EE195E00E9491C8F12E1816D1
:104A900019060CF042CFC3E5DAE0CE010E94A289EC
:104AA0002C96FAE0CB39DF07C1F7CE010E94A2892C
:104AB0000E94DA120E94A81E80E0CDB7DEB7E5E0C2
:104AC0000C9479E0A4E2B0E0E8E6F5E20C945EE054
:104AD00080E090E0A0E8BFE389839A83AB83BC8346
:104AE00080E090E0A0E0B0E08D839E83AF83B88744
:104AF00089879A87AB87BC878D879E87AF87B88B5E
:104B000020E030E040E85FEB298B3A8B4B8B5C8BED
:104B10008D8B9E8BAF8BB88F898F9A8FAB8FBC8F0D
:104B20008D8F9E8FAF8FB8A329A33AA34BA35CA30D
:104B300008EF15E0C801BE016F5F7F4F0E94A4938C
:104B400089ED97E0B8010E9475A4C8010E94FC9508
:104B5000C8010E949898A496E4E00C947AE0CF9360
:104B6000DF93FB01C285D385CE016BE17AE00E9421
:104B700010E2892B21F481E08093CC0A09C0CE0198
:104B800067E17AE00E9410E2892B39F41092CC0A96
:104B900081EC9AE00E94A28912C000D000D08EE180
:104BA00095E0EDB7FEB79283818383E09AE094832A
:104BB00083830E9406C80F900F900F900F900E9461
:104BC000982280E0DF91CF910895CF93DF93FB018E
:104BD000EB012A968285938561E37AE00E9410E2D8
:104BE000892B19F41092D80A0FC02A813B814C817D
:104BF0005D81DA01C9010197A109B1090497A105F5
:104C0000B10538F42093D80A8DEC9AE00E94A2896D
:104C100012C000D000D08EE195E0EDB7FEB79283D0
:104C200081838EE19AE0948383830E9406C80F906B
:104C30000F900F900F900E94311E80E0DF91CF9176
:104C40000895CF93DF93FB01C285D385CE016CE637
:104C50007BE00E9410E2892B11F481E019C0CE01A3
:104C60006AE67BE00E9410E2892B39F0CE0168E60B
:104C70007BE00E9410E2892B19F41092150B0AC0F8
:104C8000CE0166E67BE00E9410E2892B41F482E0CF
:104C90008093150B8AE09BE00E94A28912C000D08D
:104CA00000D08EE195E0EDB7FEB79283818384E575
:104CB0009BE0948383830E9406C80F900F900F900F
:104CC0000F900E94DA1D80E0DF91CF910895ACE053
:104CD000B0E0EDE6F6E20C945EE0FB0102851385A0
:104CE000C80160E07AE00E9410E2892B51F481E073
:104CF0008093F10A86EE9AE00E94A2890E946225C2
:104D00003CC0C8016CEF79E00E9410E2892B11F5DC
:104D100080E090E0A0E0B0E089839A83AB83BC831D
:104D20008D839E83AF83B88789879A87AB87BC873B
:104D300088EF95E0BE016F5F7F4F0E947B9888EF00
:104D400095E00E9444A31092F10A86EE9AE00E9438
:104D5000A28913C000D000D08EE195E0EDB7FEB778
:104D60009283818389EE99E0948383830E9406C8AD
:104D70000F900F900F900F9004C086EE9AE00E9463
:104D8000A2890E94B92280E02C96E4E00C947AE09B
:104D900089E897E06DEA7AED0E94F6C30E948211DD
:104DA0000E94791D80E008950F931F93CF93DF93A6
:104DB0008EE195E065E072E00E9454D900E064E184
:104DC00070E080E090E00E94ADDA0E9408170F5F6B
:104DD0000436A9F7C0915A0BD0915B0B81E0C43F18
:104DE000D8073CF468EE73E080E090E00E94ADDA12
:104DF000F9CFD093700BC0936F0B2091AE0B309115
:104E0000AF0B3093C40B2093C30B0091020C109195
:104E1000030C1093180C0093170C8091560C909172
:104E2000570C90936C0C80936B0CA091AA0CB091D2
:104E3000AB0CB093C00CA093BF0CE091FE0CF091B2
:104E4000FF0CF093140DE093130D6091520D7091CF
:104E5000530D7093680D6093670D4091A60D5091AE
:104E6000A70D5093BC0D4093BB0DD0938A0BC093FC
:104E7000890B3093DE0B2093DD0B1093320C0093E3
:104E8000310C9093860C8093850CB093DA0CA09330
:104E9000D90CF0932E0DE0932D0D7093820D60933D
:104EA000810D5093D60D4093D50DD0937D0BC093BB
:104EB0007C0B3093D10B2093D00B9093790C809383
:104EC000780C8CED95E09093CD0C8093CC0C909366
:104ED000210D8093200D9093750D8093740D909308
:104EE000C90D8093C80D00D000D08EE195E0EDB7DC
:104EF000FEB7928381838EE69BE0948383830E9436
:104F000006C80F900F900F900F9064E170E080E062
:104F100090E00E94ADDA0E9408178FE49BE00E94A7
:104F20006CD283EA9BE00E946CD287EF9BE00E94E8
:104F30006CD28BE49CE00E946CD28FE99CE00E94D2
:104F40006CD283EF9CE00E946CD287E49DE00E94CB
:104F50006CD28BE99DE00E946CD28EE195E00E94BC
:104F600091C8181619068CF664E170E080E090E0B4
:104F70000E94ADDA8EE195E00E940EC98FE49BE0BD
:104F80000E94F2D483EA9BE00E94F2D487EF9BE078
:104F90000E94F2D48BE49CE00E94F2D48FE99CE062
:104FA0000E94F2D483EF9CE00E94F2D487E49DE05B
:104FB0000E94F2D48BE99DE00E94F2D40E94DA12A2
:104FC0000E94BF1D80E0DF91CF911F910F91089546
:104FD00000D000D08EE195E0EDB7FEB792838183DB
:104FE0008BEC9BE0948383830E9406C80F900F9004
:104FF0000F900F908EE195E00E94C1C8FFEF8F3FA8
:105000009F07C1F38937910529F08935910511F082
:105010008FEF08950E94728900D000D08EE195E054
:10502000EDB7FEB79283818386EA9BE09483838306
:105030000E9406C80F900F900F900F9068EE73E0DB
:1050400080E090E00E94ADDAFFCFCF93DF9300D0F5
:1050500000D08EE195E0EDB7FEB79283818389E0C1
:105060009CE0948383830E9406C8C0E0D0E00F9048
:105070000F900F900F90CE0160E00E9411E52196F5
:10508000F0E1C030DF07B9F700D000D08EE195E045
:10509000EDB7FEB79283818383E09CE094838383A2
:1050A0000E9406C80F900F900F900F90DF91CF9144
:1050B00008950E94252880E00895EF92FF920F93B3
:1050C0001F93CF93DF937B018230A1F000D000D0FB
:1050D0008EE195E0EDB7FEB79283818388EC9CE08A
:1050E000948383830E9406C88FEF0F900F900F90D8
:1050F0000F9091C0FB0102851385C80164EC7CE030
:105100000E94FDE1892B19F4CFEFDFEF63C0C801E6
:1051100066EB7CE00E94FDE1C0E0D0E0892B11F459
:10512000C1E0D0E0C80169EA7CE00E94FDE1892B82
:1051300009F4C260C80165EA7CE00E94FDE1892BA8
:1051400009F4C460C80162EA7CE00E94FDE1892B99
:1051500009F4C860C8016DE97CE00E94FDE1892B7B
:1051600009F4C061C80168E97CE00E94FDE1892B77
:1051700009F4C062C80163E97CE00E94FDE1892B6B
:1051800009F4C064C8016FE87CE00E94FDE1892B4E
:1051900009F4C068C8016BE87CE00E94FDE1892B3E
:1051A00009F4D160C80167E87CE00E94FDE1892B29
:1051B00009F4D260C80160E87CE00E94FDE1892B1F
:1051C00009F4D460C80168E77CE00E94FDE1892B06
:1051D00009F4D860F7018081918161E77CE00E9449
:1051E000FDE1892B39F48091B20A9091B30AC82B62
:1051F000D92B08C0C095D0958091B20A9091B30A7E
:10520000C823D923D093B30AC093B20A87EA9AE09D
:105210000E94A28980E0CDB7DEB7E6E00C9478E08A
:10522000CF93DF9300D000D08EE195E0EDB7FEB7CD
:105230009283818388EE9CE0948383830E9406C8D6
:10524000C1E0D0E00F900F900F900F9081E594E1B6
:10525000BE010E9463C52196F0E1C030DF07B1F7BF
:1052600081E594E161E070E00E9457C581E594E139
:1052700063EA0E940DC681E594E165E90E940DC6CE
:1052800081E594E160EF0E940DC681E594E160E064
:105290000E940DC681E594E16AEB0E940DC681E58E
:1052A00094E10E9485C600D000D08EE195E0EDB774
:1052B000FEB7928381838AED9CE0948383830E946E
:1052C00006C80F900F900F900F9080E0DF91CF9164
:1052D00008956F927F928F929F92AF92BF92CF92DA
:1052E000DF92EF92FF920F931F9301E514E1C80143
:1052F0000E946EC73C01C8010E946EC74C01C801E4
:105300000E946EC75C01C8010E946EC76C01C80193
:105310000E946EC77C01C8010E946EC72DB73EB7C0
:10532000205130400FB6F8943EBF0FBE2DBFEDB7F1
:10533000FEB731962EE135E0ADB7BEB712963C937D
:105340002E93119727E03DE0338322837582648298
:1053500097828682B186A086D386C286F586E48649
:10536000978786870E9406C82DB73EB7205F3F4FBC
:105370000FB6F8943EBF0FBE2DBF1F910F91FF9047
:10538000EF90DF90CF90BF90AF909F908F907F90E5
:105390006F900895EF92FF920F931F9300D000D06B
:1053A0000EE115E0ADB7BEB712961C930E931197A0
:1053B0008AE29DE014969C938E9313970E9406C8F0
:1053C0000F900F900F900F9081E5E82E84E1F82E5A
:1053D000C7010E94FDC6E82FF0E0EE0FFF1FED545D
:1053E000FC4F60817181C8010E946DD8C7010E9485
:1053F0006EC700D000D000D0EDB7FEB73196ADB784
:10540000BEB712961C930E93119724E23DE03383AE
:105410002283958384830E9406C8EDB7FEB7369633
:105420000FB6F894FEBF0FBEEDBF1F910F91FF9016
:10543000EF9008952F923F924F925F926F927F92DA
:105440008F929F92AF92BF92CF92DF92EF92FF9294
:105450000F931F9301E514E1C8010E946EC71C0160
:10546000C8010E946EC72C01C8010E946EC73C0192
:10547000C8010E946EC74C01C8010E946EC75C0142
:10548000C8010E946EC76C01C8010E946EC77C01F2
:10549000C8010E946EC72DB73EB7245130400FB6E9
:1054A000F8943EBF0FBE2DBFEDB7FEB731962EE18B
:1054B00035E0ADB7BEB712963C932E9311972FE20D
:1054C0003DE033832283358224825782468271866F
:1054D000608693868286B586A486D786C686F18A3C
:1054E000E08A938B828B0E9406C82DB73EB72C5E54
:1054F0003F4F0FB6F8943EBF0FBE2DBF1F910F91C7
:10550000FF90EF90DF90CF90BF90AF909F908F90E3
:105510007F906F905F904F903F902F9008959F9253
:10552000AF92BF92CF92DF92EF92FF920F931F93B1
:1055300001E514E1C8010E946EC75C01C8010E9428
:10554000FDC6982EC8010E946EC76C01C8010E945A
:105550006EC77C01C8010E946EC72DB73EB72E50A2
:1055600030400FB6F8943EBF0FBE2DBFEDB7FEB76B
:1055700031962EE135E0ADB7BEB712963C932E932F
:10558000119725E53DE033832283B582A48296827C
:105590001782D186C086F386E286958784870E942B
:1055A00006C82DB73EB7225F3F4F0FB6F8943EBFF7
:1055B0000FBE2DBF1F910F91FF90EF90DF90CF9006
:1055C000BF90AF909F900895AF92BF92CF92DF921D
:1055D000EF92FF920F931F9301E514E1C8010E941F
:1055E0006EC75C01C8010E946EC76C01C8010E94B1
:1055F0006EC77C01C8010E946EC72DB73EB72C5004
:1056000030400FB6F8943EBF0FBE2DBFEDB7FEB7CA
:1056100031962EE135E0ADB7BEB712963C932E938E
:10562000119728EE3DE033832283B582A482D7828E
:10563000C682F186E086938782870E9406C82DB7CE
:105640003EB7245F3F4F0FB6F8943EBF0FBE2DBF4D
:105650001F910F91FF90EF90DF90CF90BF90AF9090
:1056600008951F9381E594E161E070E00E9484C792
:1056700010E081E594E10E94FDC6113051F0113037
:1056800018F0123099F408C010E0833A79F411E070
:105690000DC0853951F407C0803F39F481E594E1AC
:1056A0000E94FDC60AC012E001C010E081E594E14D
:1056B0000E94BEC40197E9F280E01F910895EF9225
:1056C000FF920F931F93CF93DF938C01C0E0D0E143
:1056D0001FC0CE01800F911F62E070E00E9400E0C9
:1056E000F62EE72E81E594E10E9484C781E594E1DE
:1056F0000E942DC76F5F7F4F8F4F9F4F29F48F2DD3
:105700009E2D9C01E90104C08F2D9E2D9C018901D5
:10571000CE01801B910B0297E4F6CE01CDB7DEB728
:10572000E6E00C9478E0A0E0B0E0E9E9FBE20C945C
:1057300058E0E82E6B015A0181E594E161E070E0E8
:105740000E9484C710E081E594E10E94FDC61130FB
:1057500051F0113018F01230A9F508C010E0833A6A
:1057600089F511E02FC0853961F529C0803F49F5E1
:1057700081E594E10E94FDC6F82EC0E0D0E00E2D38
:1057800010E00FC081E594E10E946EC7F60191839D
:10579000808381E594E10E946EC7F5019183808347
:1057A0002196C017D10774F3EF1499F4F6018081A4
:1057B00091810E945F2BF501918380830AC012E0E2
:1057C00001C010E081E594E10E94BEC4019709F494
:1057D000BACFCDB7DEB7EAE00C9474E0A4E0B0E055
:1057E000E4EFFBE20C9454E00E94312BD82E00D061
:1057F00000D00EE115E0ADB7BEB712961C930E9324
:10580000119786E691E114969C938E9313970E94CC
:1058100006C88091B20A9091B30A0F900F900F9032
:105820000F90009759F400D000D0EDB7FEB7128367
:10583000018381E691E19483838308C180FF14C0D2
:1058400000D000D0ADB7BEB712961C930E9311973F
:1058500082E591E114969C938E9313970E9406C85B
:105860000F900F900F900F908091B20A81FF12C09D
:1058700000D000D08EE195E0EDB7FEB79283818332
:1058800084E491E1948383830E9406C80F900F9073
:105890000F900F908091B20A82FF16C000D000D006
:1058A0008EE195E0ADB7BEB712969C938E9311979B
:1058B0008FE391E114969C938E9313970E9406C8F0
:1058C0000F900F900F900F908091B20A83FF12C03B
:1058D00000D000D08EE195E0EDB7FEB792838183D2
:1058E0008BE391E1948383830E9406C80F900F900D
:1058F0000F900F908091B20A84FF16C000D000D0A4
:105900008EE195E0ADB7BEB712969C938E9311973A
:1059100085E391E114969C938E9313970E9406C899
:105920000F900F900F900F908091B20A85FF12C0D8
:1059300000D000D08EE195E0EDB7FEB79283818371
:105940008FE291E1948383830E9406C80F900F90A9
:105950000F900F908091B20A87FF16C000D000D040
:105960008EE195E0ADB7BEB712969C938E931197DA
:105970008AE291E114969C938E9313970E9406C835
:105980000F900F900F900F908091B20A9091B30AF0
:1059900090FF12C000D000D08EE195E0EDB7FEB7C9
:1059A0009283818385E291E1948383830E9406C878
:1059B0000F900F900F900F908091B20A9091B30AC0
:1059C00091FF16C000D000D08EE195E0ADB7BEB714
:1059D00012969C938E9311978CE191E114969C936F
:1059E0008E9313970E9406C80F900F900F900F9000
:1059F0008091B20A9091B30A92FF12C000D000D0F9
:105A00008EE195E0EDB7FEB79283818384E191E169
:105A1000948383830E9406C80F900F900F900F907D
:105A20008091B20A9091B30A93FF16C000D000D0C3
:105A30008EE195E0ADB7BEB712969C938E93119709
:105A40008BE091E114969C938E9313970E9406C865
:105A50000F900F900F900F903EE1E32E35E0F32E64
:105A6000C7010E943DD9DD2089F400D000D0EDB7F8
:105A7000FEB7F282E18281EF90E1948383830E94FA
:105A800006C80F900F900F900F9065C0CD2CDD24AD
:105A900000D000D000D0EDB7FEB73196ADB7BEB79D
:105AA0001296FC92EE92119787EE90E19383828397
:105AB000D582C4820E9406C826EC622E20E1722E96
:105AC00001E010E0EDB7FEB736960FB6F894FEBFD2
:105AD0000FBEEDBF470193E0A92EB12CAC0EBD1E49
