:100000000C948E0B0C94BA0B0C94BA0B0C94BA0B88
:100010000C94BA0B0C94BA0B0C94BA0B0C94BA0B4C
:100020000C94BA0B0C94BA0B0C94BA0B0C94BA0B3C
:100030000C94BA0B0C94BA0B0C94BA0B0C94328738
:100040000C94BA0B0C94BA0B0C94BA0B0C94BA0B1C
:100050000C94BA0B0C94BA0B0C94BA0B0C940FD7EB
:100060000C94BA0B0C94260E0C94660E0C94BA0BDE
:100070000C94BA0B0C94BA0B0C94BA0B0C94BA0BEC
:100080000C94BA0B0C94BA0B0C94BA0B0C94BA0BDC
:100090000C94B80E0C94F80E0C94BA0B0C9485D3F7
:1000A0000C94BA0B0C949F850C94BA0B0C94BA0B5D
:1000B0000C94BA0B0C94BA0B0C94BA0B0C94BA0BAC
:1000C0000C94BA0B0C94BA0B0C94BA0B0C94BA0B9C
:1000D0000C94BA0B0C94BA0B0C944A0F0C948A0F24
:1000E0000C94BA0B6B1D8C1D031EC11DE21D1C1E42
:1000F000351E4E1E671E851E961ED331F431D63135
:10010000D931DC31DF31E231E531E831EB31EE314B
:10011000F131EA3DEA3D0E3E7D3E523E983EB33E11
:10012000E03E1E3F653FDF58DB58E858EE580A595D
:100130004F593B5966592659395A655A6E5A715A60
:10014000745AB762775AB762B762B7627A5A7D5A01
:10015000805AA05A9E5A9E5A9E5AAC5A9E5AA25AE9
:100160009E5A9E5AAF5ABE5AB15AB45A9E5A9E5A75
:100170009E5AB75A9E5A9E5A9E5A9E5A9E5ABE5A86
:100180009E5AC05A16861B86208625862A862F866A
:10019000348639863E864386488692BC8DBC96BCA2
:1001A0009ABCA8BCC1BCEBBCFCBC3BBE36BE3FBECF
:1001B00048BE6FBE7BBE95BEB6BEBDBE4CD84FD846
:1001C00042D846D888D853D857D85DD861D865D892
:1001D0006BD86FD873D879D87DD883D8036EDB36C7
:1001E0003D9A9999993DABAAAA2A3E000000803F0A
:1001F000084AD73B3BCE016E84BCBFFDC12F3D6C8E
:1002000074319ABD56833DDA3D00C77F11BED9E4F3
:10021000BB4C3E916BAAAABE000000803F072C7A1F
:10022000A5BA6CC590DA3B9365FC8BBC53F810FD06
:100230003C5692834DBD879D3AB63DCBC9BF5BBE50
:1002400073DA0FC93F05A84CCDB2D44EB93836A9E0
:10025000020C50B9918688083CA6AAAA2ABE0000C2
:1002600000803F08000000BE922449123EABAAAABB
:100270002ABECDCCCC4C3E00000080BEABAAAAAAC0
:100280003E00000000BF000000803F0000000000B2
:10029000084178D3BB4387D1133D190E3CC3BD42FF
:1002A00082AD2B3E68EC8276BED98FE1A93E4C80B0
:1002B000EFFFBE01C4FF7F3F00000000004C6F67EE
:1002C0000064756D70000000000000000000000771
:1002D000326572617365000000000000000000617B
:1002E0002A656E61626C650000000000000000AECF
:1002F0002964697361626C6500000000000000AE53
:100300002968656C700000000000000000000077A4
:1003100014706C616E6E657200676373000000009C
:10032000000000000000005964736574757000657A
:1003300072617365000000000000000000AA2972CD
:100340006573657400000000000000000039297228
:100350006164696F0000000000000000002528664D
:1003600072616D6500000000000000000072276DE2
:100370006F746F72730000000000000000D42565E8
:1003800073630000000000000000000000A6256C60
:100390006576656C00000000000000000019286D03
:1003A0006F646573000000000000000000402662DA
:1003B00061747465727900000000000000362773D4
:1003C0006F6E6172000000000000000000002763F3
:1003D0006F6D7061737300000000000000B8277437
:1003E000756E65000000000000000000009A2564A2
:1003F00065636C696E6174696F6E000000852573BA
:10040000686F7700000000000000000000632541D5
:10041000726475436F7074657220322E302E3432E0
:100420002042657461006C6F67730000000000007B
:1004300000000000A42473657475700000000000C3
:100440000000000055247465737400000000000073
:10045000000000004F2468656C7000000000000080
:10046000000000007C13706C616E6E65720000000D
:10047000000000003724746573740070776D00000D
:10048000000000000000000000051A726164696F3E
:1004900000000000000000000099196661696C739B
:1004A000616665000000000000CC106770730000FA
:1004B000000000000000000000B22361646300003F
:1004C0000000000000000000004423696D7500007A
:1004D00000000000000000000006226261747465E4
:1004E000727900000000000000DC1274756E650077
:1004F000000000000000000000B71E7472690000D8
:10050000000000000000000000DF1C6375727265CF
:100510006E7400000000000000561C72656C61796A
:100520000000000000000000008212776179706F07
:10053000696E74730000000000EE17616C746974DA
:10054000756465000000000000DC16736F6E617258
:10055000000000000000000000B715636F6D7061BF
:10056000737300000000000000FF147862656500EE
:100570000000000000000000002612656564756D33
:100580007000000000000000009E14726177677028
:10059000730000000000000000E711486974204566
:1005A0006E74657220746F20657869742E0A0A0073
:1005B000202530327800253034783A00426567696A
:1005C0006E205842656520582D4354552052616E67
:1005D000676520616E6420525353492054657374DB
:1005E0003A0A00436F6D706173733A200048656189
:1005F00064696E673A20256C642C2058595A3A2059
:1006000025642C2025642C2025640A0061626C6519
:10061000640A0064697300656E00536F6E61723A1C
:1006200020256420636D0A00536F6E617220646937
:100630007361626C65640A004261726F3A202564DE
:10064000636D0A00486974207261643A2025640A67
:100650000025642077700A006F662025646D0A000B
:100660000A00486F6C6420616C742000636F6D6DCC
:10067000616E6420233A2025642069643A25642051
:100680006F703A25642070313A25642070323A2523
:100690006C642070333A256C642070343A256C64A5
:1006A000200A0052656C6179206F66660A00526507
:1006B0006C6179206F6E0A00563A2025342E34661C
:1006C0002C20413A2025342E34662C206D41683A86
:1006D0002025342E34660A00696E7075743A202520
:1006E00064096F757470757425640A0074756E659D
:1006F0003A2025312E33660A004E6F7420656E61F4
:10070000626C65640A00256C642C20256C642C20C6
:10071000256C640A00494D550A004779726F206FB5
:100720006666736574733A2025342E32662C202554
:10073000342E32662C2025342E32660A0041636343
:10074000656C206F6666736574733A2025342E32AB
:10075000662C2025342E32662C2025342E32660A53
:100760000025642C004144430A004C61743A202562
:100770006C642C204C6F6E20256C642C20416C74B2
:100780003A20256C646D2C2023736174733A202504
:10079000640A00494E2020313A20256409323A206B
:1007A000256409333A20256409343A202564093543
:1007B0003A20256409363A20256409373A20256411
:1007C0000A00494E3A20313A20256409323A202560
:1007D0006409333A20256409343A20256409353AFE
:1007E00020256409363A20256409373A2025640912
:1007F000383A2025640A00506C616E6E6572204D97
:100800006F64650A4E6F7420696E74656E6465640A
:1008100020666F72206D616E75616C207573650A5C
:100820000A00436F6D6D616E64733A0A20206C6F2D
:1008300067730A202073657475700A2020746573CD
:10084000740A2020706C616E6E65720A0A4D6F76B4
:10085000652074686520736C6964652073776974BA
:10086000636820616E6420726573657420746F2004
:10087000464C592E0A0A000A2054797065202772C6
:100880006164696F2720746F20636F6E6669677596
:100890007265206E6F772E0A0A000A215761726E08
:1008A000696E672C20796F757220726164696F20A0
:1008B0006973206E6F7420636F6E66696775726509
:1008C0006421005365747570204D6F64650A0A0ACF
:1008D0000046572056657273696F6E2025640A00C2
:1008E000526164696F0A004348373A202564207CCE
:1008F0002025640A004348363A202564207C2025C0
:10090000640A004348353A202564207C2025640A87
:10091000004348343A202564207C2025640A0043A3
:1009200048333A202564207C2025640A004348325D
:100930003A202564207C2025640A004348313A206F
:100940002564207C2025640A0056206D6F64650AAA
:10095000002B206D6F64650A0058206D6F64650A76
:1009600000545249206672616D650A004672616DDD
:10097000650A00766F6C747320616E642063757213
:10098000006261747420766F6C7473003420636548
:100990006C6C7300332063656C6C73000A42617485
:1009A00074204D6F696E746F720A00536F6E6172BE
:1009B0000A00466C69676874206D6F6465730A008D
:1009C000506F732025643A20004D6167206F666682
:1009D000736574733A2025342E34662C2025342E0A
:1009E00034662C2025342E3466004D616720446522
:1009F000633A2025342E34660A00436F6D706173AC
:100A0000730A002025640A000A54554E453A0A002C
:100A10000A4F7074696F6E733A5B6F6E2C6F666607
:100A20005D0A006F6666006F6E000A4F7074696F32
:100A30006E733A5B6F6E2C206F66665D0A006F66A0
:100A400066006F6E000A4F7074696F6E733A206FA4
:100A500066662C20312D34006F6666000A4D6F7675
:100A60006520524320746F67676C652073776974E3
:100A7000636820746F206561636820706F736974A8
:100A8000696F6E20746F20656469742C206D6F76B9
:100A9000652061696C65726F6E20737469636B2089
:100AA000746F2073656C656374206D6F6465732E5D
:100AB000000A53617665642053657474696E6773C8
:100AC0000A0A000A4553432043616C6962726174EB
:100AD000696F6E3A0A2D3120556E706C756720551E
:100AE000534220616E6420626174746572790A2DCC
:100AF00032204D6F766520434C492F464C59207368
:100B0000776974636820746F20464C59206D6F6458
:100B1000650A2D33204D6F7665207468726F74748A
:100B20006C6520746F206D61782C20636F6E6E652C
:100B3000637420626174746572790A2D3420416691
:100B40007465722074776F206C6F6E6720626565C4
:100B500070732C207468726F74746C6520746F20CD
:100B6000302C207468656E20746573740A0A2050F6
:100B70007265737320456E74657220746F206361B3
:100B80006E63656C2E0A000A4F7074696F6E733A5B
:100B90005B782C2B2C765D0A0076002B0070007899
:100BA000000A4D6F766520616C6C20636F6E747205
:100BB0006F6C7320746F2065616368206578747250
:100BC000656D652E2048697420456E7465722074C9
:100BD0006F20736176653A20000A464143544F52B4
:100BE0005920524553455420636F6D706C65746590
:100BF000202D207265626F6F742041504D000A27CE
:100C00005927202B20456E74657220746F20666111
:100C100063746F72792072657365742C20616E79CC
:100C2000206F74686572206B657920746F20616233
:100C30006F72743A0A00646F6E650A000A45726149
:100C400073696E6720454550524F4D0A000A436F45
:100C50006D6D616E64733A0A202064756D70203C7E
:100C60006E3E202065726173652028616C6C206C7B
:100C70006F6773290A2020656E61626C65203C6E87
:100C8000616D653E207C20616C6C0A202064697374
:100C900061626C65203C6E616D653E207C20616CFC
:100CA0006C0A0A00656E61626C65004F5054464CD8
:100CB0004F57004D4F544F52530043555200434D30
:100CC0004400524157004D4F4445004E54554E008C
:100CD0004354554E00504D00475053004154544921
:100CE000545544455F4D454400415454495455447E
:100CF000455F4641535400616C6C006D69737369C4
:100D00006E67206C6F6720747970650A000A4C6FFB
:100D100067206572617365642E0A000A457261730B
:100D2000696E67206C6F672E2E2E0A006261642048
:100D30006C6F6720232025640A004154542C202521
:100D4000642C2025642C2025750A002C2025640A9B
:100D5000004D4F443A004354554E2C2025642C201E
:100D600025642C2025642C2025642C2025642C202F
:100D700025642C2025642C2025642C2025640A0061
:100D80004E54554E2C2025642C2025642C2025649F
:100D90002C2025642C2025642C2025640A00504D2D
:100DA0002C20256C642C2025642C2025642C2025E7
:100DB000642C2025642C2025642C2025642C2025DF
:100DC000642C2025642C20256C640A005241572C89
:100DD00000434D442C2025642C2025642C202564C0
:100DE0002C2025642C2025642C20256C642C2025A7
:100DF0006C642C20256C640A00435552523A20251D
:100E0000642C20256C642C2025342E34662C20255F
:100E1000342E34662C2025640A0053544152542049
:100E200055500A004D4F543A2025642C2025642C3F
:100E30002025642C2025640A004F462C2025642C94
:100E40002025642C2025642C2025342E37662C2068
:100E500025342E37660A004750532C20256C642C0D
:100E60002025642C2025642C2025342E37662C2048
:100E700025342E37662C2025342E34662C2025343C
:100E80002E34662C2025642C2025750A00585452D7
:100E900041434B5F005448525F484F4C445F004E03
:100EA00041565F4C4F4E5F004E41565F4C41545F80
:100EB00000484C445F4C4F4E5F00484C445F4C41EF
:100EC000545F005354425F5941575F005354425F8F
:100ED0005049545F005354425F524C4C5F005241A2
:100EE00054455F5941575F00524154455F50495442
:100EF0005F00524154455F524C4C5F0052435F4388
:100F0000525F0052435F43505F005243385F0052CC
:100F100043375F005243365F005243355F00524310
:100F2000345F005243335F005243325F005243311B
:100F30005F00494E5F564F4C5400464C4F575F453B
:100F40004E41424C450054425F524154494F004685
:100F500052414D450054554E4500455343004D41C7
:100F6000475F454E41424C4500424154545F434126
:100F700050414349545900424154545F4D4F4E49EA
:100F8000544F5200534F4E41525F454E41424C45E3
:100F900000414C545F484F4C445F52544C004C4FFE
:100FA000475F4249544D41534B0050495443485FB9
:100FB0004D415800464C544D4F44453600464C5424
:100FC0004D4F44453500464C544D4F444534004642
:100FD0004C544D4F44453300464C544D4F444532DC
:100FE00000464C544D4F444531005452494D5F54D6
:100FF00048524F54544C45005448525F46535F5634
:10100000414C5545005448525F46535F4143544953
:101010004F4E005448525F4641494C5341464500AB
:101020005448525F4D4158005448525F4D494E005C
:1010300057505F53504545445F4D41580057505FEE
:101040004C4F495445525F5241440057505F524102
:10105000444955530057505F4D5553545F494E44D2
:1010600045580057505F494E4445580057505F540B
:101070004F54414C0057505F4D4F44450058545217
:101080004B5F414E474C455F4344005345524941F5
:101090004C335F424155440053595349445F4D59C5
:1010A0004743530053595349445F544849534D41B2
:1010B000560053595349445F53575F5459504500A4
:1010C00053595349445F53575F4D5245560052455B
:1010D00056004D4158005452494D004D494E00496B
:1010E0004D41580049005000494D555F53454E53FE
:1010F0004F525F43414C004C6F6720232025642CE6
:101100002020202073746172742025642C202020FC
:10111000656E642025640A000A2564206C6F67737D
:101120000A000A4E6F206C6F67730A54797065204D
:101130002764756D702030272E0A0A00204F505406
:10114000464C4F5700204D4F544F525300204355AB
:101150005252454E540020434D4400205241570006
:10116000204E54554E00204354554E0020504D0003
:1011700020475053002041545449545544455F4D35
:101180004544002041545449545544455F46415319
:1011900054006E6F6E65006C6F677320656E6162E0
:1011A0006C65643A2000666C6967687420706C61D5
:1011B0006E20726563656976656400616374696F4A
:1011C0006E2072656365697665643A2000657272A7
:1011D0006F723A206E6F6E2D4E617620636D6400E3
:1011E0006F7574206F6620636F6D6D616E6473211F
:1011F00000776179706F696E7420726563656976D6
:10120000652074696D656F757400776179706F69B9
:101210006E742073656E642074696D656F757400FB
:1012200045585452413300455854524132004558B4
:101230005452413100504F534954494F4E0052418E
:10124000575F4354524C0052435F4348414E004560
:1012500058545F53544154005241575F53454E53C5
:10126000005352335F005352305F00526561636830
:10127000656420686F6D650047524F554E4420539A
:1012800054415254000A456E746572696E67206954
:101290006E746572616374697665207365747570C8
:1012A000206D6F64652E2E2E0A0A547970652027F2
:1012B00068656C702720746F206C69737420636F8D
:1012C0006D6D616E64732C202765786974272074B6
:1012D0006F206C656176652061207375626D656E47
:1012E000752E0A56697369742074686520277365C2
:1012F00074757027206D656E7520666F7220666943
:101300007273742D74696D6520636F6E666967759D
:10131000726174696F6E2E0A0A00506C65617365A4
:101320002052756E2053657475702E2E2E0A00465D
:1013300069726D77617265206368616E67653A20D6
:1013400065726173696E6720454550524F4D2E2E70
:101350002E0A000A0A496E69742041434D0A0A5256
:10136000414D3A20256C750A00496E76616C6964BE
:101370002053455249414C335F42415544004C6F24
:1013800067732066756C6C000A4750530A0025305D
:1013900033753A25733A20006E6F7420666F756E50
:1013A0006400253033753A252D33322E3332733AAB
:1013B0002000756E6B6E6F776E2074797065006EAD
:1013C0006F7420666F756E640025733A20006D6936
:1013D0007373696E67206E616D65206F7220766130
:1013E0006C7565003F3F00256400256400256C6432
:1013F00000256600256600657869740068656C7074
:101400000044454300434F4D504153535F00245027
:1014100047434D442C31362C302C302C302C302C82
:10142000302A36410D0A0024505542582C34312CB4
:10143000312C303030332C303030312C33383430A4
:10144000302C302A32360024505352463130302C62
:10145000302C33383430302C382C312C302A334374
:101460000020536952462000204D544B312E362027
:10147000002075626C6F782000204D544B312E3463
:1014800020006661696C65642C20726574727969EC
:101490006E67004F4B0020002A00496E697420419E
:1014A0006363656C002A00496E6974204779726F26
:1014B000006E616E00696E660000407A10F35A009B
:1014C000A0724E18090010A5D4E80000E87648176D
:1014D0000000E40B54020000CA9A3B000000E1F552
:1014E00005000080969800000040420F000000A018
:1014F0008601000000102700000000E80300000043
:10150000006400000000000A00000000000100006C
:101510000000002C76D888DC674F0823DFC1DFAEDF
:1015200059E1B1B796E5E3E453C63AE651997696A8
:10153000E8E6C28426EB898C9B62ED407C6FFCEF71
:10154000BC9C9F40F2BAA56FA5F490055A2AF75C9F
:10155000936B6CF9676DC11BFCE0E40D47FEF52051
:10156000E6B500D0ED902E03009435770500808419
:101570001E080000204E0A000000C80C333333332D
:101580000F986E12831141EF8D2114893BE6551699
:10159000CFFEE6DB18D1844B381BF77C1D901DA4D1
:1015A000BBE424203284725E228100C9F124ECA1C4
:1015B000E53D2700002100240027002A002D0030EF
:1015C00000330001010000040107010A01000022AC
:1015D00000250028002B002E0031003400020100FD
:1015E00000050108010B010000200023002600294E
:1015F000002C002F00320000010000030106010949
:101600000105050505070508080808020202020A87
:101610000A08080404040401010101010101010395
:1016200003030303030303040707070C0C0C0C0C50
:101630000C0C0C0202020206060606060606060B43
:101640000B0B0B0B0B0B0B010210202008081020BA
:10165000401020408002010201080402010102043E
:1016600008102040808040201008040201800402FD
:101670000180402010080402010804020101020454
:10168000081020408001020408102040800000095A
:101690000A02080B0C0D07060304010000000000FD
:1016A000000000000000000000000000000000003A
:1016B000000000000000000000100F0E00000000FD
:1016C000000000000000000000000000000000001A
:1016D000000000494E46494E4954594E414ECDCC2A
:1016E000CC3D0AD7233C17B7D13877CC2B32959510
:1016F000E6241FB14F0A000020410000C84200400C
:101700001C4620BCBE4CCA1B0E5AAEC59D74673D1C
:10171000C186448F4BC589D2603D3D8F11241FBEC9
:10172000CFEFD1E2DEBFCDBF00E00CBF15E0A0E0FF
:10173000B2E0E8E9F7EC01E00BBF02C007900D92C0
:10174000A435B107D9F716E1A4E5B5E001C01D92B3
:10175000A634B107E1F717E1C8E1D7E104C0229749
:10176000FE010E947BDDCE30D107C9F70E9404D56F
:101770000C94BFE30C940000283008F027E03327D6
:10178000DA01990F311D87FD9160009661057105A1
:1017900039F432602E5F3D9330E32A95E1F70895E6
:1017A0009F3F30F080387105610509F03C5F3C5F78
:1017B0003D93913008F08068911DDF93CF931F9384
:1017C0000F93FF92EF92192F987F9695E92F969598
:1017D0009695E90FFF27ED5EFA4E99273327EE2401
:1017E000FF24A701E70105900894079428F4360F19
:1017F000E71EF81E491F511D660F771F881F991F8E
:101800000694A1F70590079428F4E70EF81E491FE7
:10181000561FC11D770F881F991F661F0694A1F7D9
:101820000590079428F4F80E491F561FC71FD11DB5
:10183000880F991F661F771F0694A1F705900794DC
:1018400020F4490F561FC71FD81F990F661F771F17
:10185000881F0694A9F784911095177041F0D695CA
:10186000C79557954795F794E7941A95C1F7E9EB13
:10187000F4E16894159015913591659195910590D5
:101880007FE27395E118F10A430B560BC90BD0099F
:10189000C0F7E10CF11E431F561FC91FD01D7EF477
:1018A000703311F48A95E6CFE894015030F0080FB8
:1018B0000AF40027021708F4202F2395022F7A3309
:1018C00028F079E37D932A95E9F710C07D932A9556
:1018D00089F6069497956795379517951794E118AB
:1018E000F10A430B560BC90BD00998F023957E9152
:1018F00073957A3308F070E37C932013B8F77E91E8
:1019000070617D9330F0839571E37D9370E32A9548
:10191000E1F71124EF90FF900F911F91CF91DF918C
:10192000992787FD90950895FA01AA27283051F14B
:10193000203181F1E8946F936E7F6E5F7F4F8F4F00
:101940009F4FAF4FB1E03ED0B4E03CD0670F781F5F
:10195000891F9A1FA11D680F791F8A1F911DA11D44
:101960006A0F711D811D911DA11D20D009F468947D
:101970003F912AE0269F11243019305D3193DEF625
:10198000CF010895462F4770405D4193B3E00FD0DB
:10199000C9F7F6CF462F4F70405D4A3318F0495DC6
:1019A00031FD4052419302D0A9F7EACFB4E0A695A9
:1019B0009795879577956795BA95C9F700976105CB
:1019C000710508959B01AC010A2E06945795479521
:1019D00037952795BA95C9F7620F731F841F951F16
:1019E000A01D0895CF93DF93FC01EB014230510518
:1019F00070F0638574858585968520E030E040E849
:101A000054E40E94F8DB0E9440DA7983688382E024
:101A100090E0DF91CF910895CF93DF93EC01FB012C
:101A20004230510518F420E030E012C0608171812D
:101A300080E090E00E946CDA20E030E040E85AE379
:101A40000E94F8DB6B877C878D879E8722E030E0E1
:101A5000C901DF91CF910895FB0190819827292F2B
:101A60002295207F292730E0522F4427C90163E0C7
:101A7000880F991F6A95E1F748275927818190E0DF
:101A80004827592784E0359527958A95E1F742271D
:101A90005327518340830895A0E0B0E0E2E5FDE0E4
:101AA0000C944CDD8C016B017A01C0E0D0E01CC0CD
:101AB000F601EC0FFD1F60810115110521F00130C9
:101AC000110589F405C0E0917E15F0917F1504C0E1
:101AD000E0918015F0918115A081B1812D913C910B
:101AE000CF01F90119952196CE15DF0508F3CDB781
:101AF000DEB7E8E00C9468DDACE0B0E0E2E8FDE0E1
:101B00000C9447DDB82E992E842E752EA22E282FE8
:101B100030E085E58F83A886F901EE0FFF1FE20F05
:101B2000F31FEE0FFF1FEE0FFF1FEE54FE4E9781C7
:101B300099878091D6038A878091D7038B876C879A
:101B40009F5F97838FEF9FEF9E838D838E01085F4A
:101B50001F4FFDE0CF2ED12CCC0EDD1EE5E0EE2E8A
:101B6000F12CEC0EFD1E06C0F80181918F01B7012A
:101B70000E942C0D0C151D05B9F78D819E819A834D
:101B80008983282D372DC9017C011A2D6E010894F7
:101B9000C11CD11C07C0F70181917F01B6010E94D1
:101BA0002C0D11501123B9F789819A818B839C8365
:101BB0008B2D992DBE01695F7F4F46E050E00E945A
:101BC0004C0D8B2D992D682D772D4A2D50E00E94BC
:101BD0004C0D8B2D992DBE016D5F7F4F42E050E083
:101BE0000E944C0D2C96EDE00C9463DDDC01FB01B2
:101BF00083818C93828111968C93119781811296A7
:101C00008C931297808113968C930895DC01FB01CD
:101C100087818C93868111968C931197858112967A
:101C20008C931297848113968C93139783811496C7
:101C30008C931497828115968C93159781811696B3
:101C40008C931697808117968C9308951F920F920C
:101C50000FB60F920BB60F9211242F933F934F9311
:101C60008F939F93EF93FF934091C60020913E1571
:101C700030913F152F5F3F4F809142159091431552
:101C80002823392380914015909141152817390751
:101C900079F080913E1590913F15E0914415F091B7
:101CA0004515E80FF91F408330933F1520933E15EB
:101CB000FF91EF919F918F914F913F912F910F90B5
:101CC0000BBE0F900FBE0F901F9018951F920F9292
:101CD0000FB60F920BB60F9211242F933F938F9351
:101CE0009F93EF93FF932091601530916115809140
:101CF0005E1590915F1528173907E9F080916015FE
:101D000090916115E0916415F0916515E80FF91F48
:101D100080818093C6008091601590916115019635
:101D2000209162153091631582239323909361155E
:101D30008093601510C020915E1530915F158091E1
:101D40006015909161152817390729F48091C10019
:101D50008F7D8093C100FF91EF919F918F913F9173
:101D60002F910F900BBE0F900FBE0F901F901895E4
:101D70001F920F920FB60F920BB60F9211242F9352
:101D80003F934F938F939F93EF93FF934091CE0098
:101D900020914615309147152F5F3F4F80914A158E
:101DA00090914B152823392380914815909149151E
:101DB0002817390779F08091461590914715E091E1
:101DC0004C15F0914D15E80FF91F408330934715DE
:101DD00020934615FF91EF919F918F914F913F91E5
:101DE0002F910F900BBE0F900FBE0F901F90189564
:101DF0001F920F920FB60F920BB60F9211242F93D2
:101E00003F938F939F93EF93FF93209168153091A9
:101E10006915809166159091671528173907E9F0C3
:101E20008091681590916915E0916C15F0916D1590
:101E3000E80FF91F80818093CE0080916815909102
:101E40006915019620916A1530916B1582239323B1
:101E5000909369158093681510C020916615309194
:101E6000671580916815909169152817390729F42D
:101E70008091C9008F7D8093C900FF91EF919F9160
:101E80008F913F912F910F900BBE0F900FBE0F902F
:101E90001F9018951F920F920FB60F920BB60F92CC
:101EA00011242F933F934F938F939F93EF93FF931F
:101EB0004091360120915615309157152F5F3F4FB5
:101EC00080915A1590915B152823392380915815DC
:101ED000909159152817390779F0809156159091EE
:101EE0005715E0915C15F0915D15E80FF91F4083DF
:101EF0003093571520935615FF91EF919F918F9135
:101F00004F913F912F910F900BBE0F900FBE0F90EE
:101F10001F9018951F920F920FB60F920BB60F924B
:101F200011242F933F938F939F93EF93FF932091CF
:101F3000781530917915809176159091771528173D
:101F40003907E9F08091781590917915E0917C1529
:101F5000F0917D15E80FF91F808180933601809103
:101F6000781590917915019620917A1530917B150D
:101F700082239323909379158093781510C0209134
:101F800076153091771580917815909179152817ED
:101F9000390729F4809131018F7D80933101FF91C0
:101FA000EF919F918F913F912F910F900BBE0F90CA
:101FB0000FBE0F901F901895FC017183608385E020
:101FC0006435780739F470937F1560937E15138616
:101FD000128608C0709381156093801581E090E0AF
:101FE000938782871382128208952091930C3091F7
:101FF000940CC9018F5C94408238910510F481E003
:102000000895C901815595408238910510F482E008
:102010000895C901835D95408238910510F483E0ED
:102020000895C901855596408138910510F484E0E2
:102030000895265D364014F480E0089585E0089503
:10204000A4E0B0E0E6E2F0E10C9442DD6091081417
:102050007091091480910A1490910B140E946EDA09
:102060003B014C018091941190919511A091961192
:10207000B091971189839A83AB83BC8360910414D8
:102080007091051480910614909107140E946EDAE5
:102090001B012C01A0908E03B0908F03C090900381
:1020A000D0909103C401B30129813A814B815C81B5
:1020B0000E94F8DB7B018C01C201B101A6019501F0
:1020C0000E94F8DB9B01AC01C801B7010E94EED869
:1020D0000E943BDA6093C9127093CA128093CB12AC
:1020E0009093CC12C401B301A60195010E94F8DBC4
:1020F0007B018C01C201B10129813A814B815C8154
:102100000E94F8DB9B01AC01C801B7010E94EFD827
:102110000E943BDA90958095709561957F4F8F4F27
:102120009F4F6093CD127093CE128093CF129093F5
:10213000D0122496E2E10C945EDD2091430B3091A5
:10214000440B8091670B9091680B281B390B253647
:1021500031051CF08AE08093A1112C593F4F1CF4EB
:1021600086EF8093A1118091A11118161CF4815063
:102170008093A1118091A11187FF03C08F5F80938D
:10218000A1118091A111813021F08F3F11F080E0E9
:102190000895811181E0089580E00895FC01DB013C
:1021A000452B11F083858C9381E090E00895DC014C
:1021B000FB01452B19F080811B968C9381E090E008
:1021C0000895FC016385772767FD7095872F972F0A
:1021D0000E946EDA0895FC01DB014230510520F0C7
:1021E000838594858D939C9382E090E00895DC0133
:1021F000FB014230510530F0808191811C969C9307
:102200008E931B9782E090E00895FC0163857485AE
:10221000882777FD8095982F0E946EDA0895FC013B
:102220002385348545855685B901CA010895CF9324
:10223000DF93FC01EB014430510540F08385948528
:10224000A585B68588839983AA83BB8384E090E0C3
:10225000DF91CF910895CF93DF93EC01FB014430E0
:10226000510540F080819181A281B3818B879C8749
:10227000AD87BE8784E090E0DF91CF910895E09133
:102280003911F0913A1187A990AD8130910539F05B
:102290000297F9F483E261E00E9489D8089581A54C
:1022A0008823D9F090E08091A011882309F491E06F
:1022B0009093A011992319F083E260E002C083E2B9
:1022C00061E00E9489D8E0913911F0913A1111A68C
:1022D000089583E260E00E9489D8089585E260E075
:1022E0000E9489D884E260E00E9489D883E260E09D
:1022F0000E9489D81092F113109272120895809161
:1023000019148F5F809319148150833011F4109247
:10231000191480911914813059F0813018F08230ED
:10232000C1F40FC083E260E00E9489D885E205C055
:1023300085E260E00E9489D884E261E00E9489D849
:10234000089584E260E00E9489D883E261E00E94FF
:1023500089D8089580911A14882379F084E461E083
:102360000E9489D882E461E00E9489D880E460E01C
:102370000E9489D88EE360E00EC084E460E00E9491
:1023800089D882E460E00E9489D880E461E00E94FC
:1023900089D88EE361E00E9489D880911A1491E077
:1023A000892780931A14089500D00F9284E595E050
:1023B000EDB7FEB7928381838BE995E094838383A5
:1023C0000E948CC80F900F900F900F9008950E945C
:1023D000D41168EE73E080E090E00E948BD788E72C
:1023E00095E00E9403C9892B89F084E261E00E9494
:1023F00089D888E795E00E9433C9682F86E695E082
:102400000E9494C984E260E00E9489D886E695E043
:102410000E9403C9892B89F083E261E00E9489D878
:1024200086E695E00E9433C9682F88E795E00E9410
:1024300094C983E260E00E9489D884E595E00E9417
:1024400003C9181619065CF680E008950E94D4119D
:1024500068EE73E080E090E00E948BD700D00F928E
:1024600084E595E0EDB7FEB7928381838CEB95E030
:10247000948383830E948CC80F900F900F900F90CD
:1024800088E795E00E9403C9892B49F088E795E029
:102490000E9433C9682F88E795E00E9494C984E5BB
:1024A00095E00E9403C91816190654F780E00895B4
:1024B00024E535E0882349F000D00F92EDB7FEB750
:1024C0003283218387E196E008C000D00F92EDB7F8
:1024D000FEB73283218383E196E0948383830E9455
:1024E0008CC884E595E0EDB7FEB7928381838CE0DC
:1024F00096E0948383830E948CC80F900F900F9076
:102500000F900895EF92FF920F931F93CF93DF9355
:102510000E94D41168EE73E080E090E00E948BD7B7
:102520001EEAE12E16E0F12E03EA16E0C4E5D5E03E
:1025300000D00F92EDB7FEB7D283C183F482E3825D
:102540000E948CC880910B01846080930B010F90D6
:102550000F900F900F9068EB7BE080E090E00E947E
:102560008BD7CE010E9403C918161906FCF000D0C3
:102570000F92EDB7FEB7D283C183148303830E9409
:102580008CC880910B018B7F80930B010F900F9073
:102590000F900F9068EB7BE080E090E00E948BD77B
:1025A000CE010E9403C91816190614F680E0CDB7B3
:1025B000DEB7E6E00C946ADD00D00F9284E595E08A
:1025C000EDB7FEB79283818389EF96E0948383838E
:1025D0000E948CC80F900F900F900F9080E008958C
:1025E0008DB79EB740970FB6F8949EBF0FBE8DBFB4
:1025F000EDB7FEB7319684E595E0ADB7BEB712965C
:102600009C938E9311978AE197E0938382838091C4
:10261000B1079091B207A091B307B091B40784833A
:102620009583A683B7838091B5079091B607A09153
:10263000B707B091B80780879187A287B387809149
:10264000B9079091BA07A091BB07B091BC078487E6
:102650009587A687B7870E948CC88DB79EB740968E
:102660000FB6F8949EBF0FBE8DBF08958DB79EB76D
:1026700040970FB6F8949EBF0FBE8DBFEDB7FEB763
:10268000319684E595E0ADB7BEB712969C938E93D4
:1026900011978DE397E0938382838091BD0790919A
:1026A000BE07A091BF07B091C00784839583A6831E
:1026B000B7838091C1079091C207A091C307B091E1
:1026C000C40780879187A287B3878091C5079091BF
:1026D000C607A091C707B091C80784879587A687CA
:1026E000B7870E948CC88DB79EB740960FB6F894F6
:1026F0009EBF0FBE8DBF089500D00F9284E595E078
:10270000EDB7FEB79283818382E298E0948383835E
:102710000E948CC80F900F900F900F9080E008954A
:102720000F931F938DB79EB708970FB6F8949EBF6F
:102730000FBE8DBFEDB7FEB7319604E515E0ADB71E
:10274000BEB712961C930E9311978BE399E0938377
:10275000828380915A0B90915B0B95838483809147
:10276000740B9091750B978386830E948CC8EDB78C
:10277000FEB73196ADB7BEB712961C930E93119764
:102780008DE299E0938382838091AE0B9091AF0BA1
:10279000958384838091C80B9091C90B978386831E
:1027A0000E948CC8EDB7FEB73196ADB7BEB7129692
:1027B0001C930E9311978FE199E09383828380910C
:1027C000020C9091030C9583848380911C0C909152
:1027D0001D0C978386830E948CC8EDB7FEB7319697
:1027E000ADB7BEB712961C930E93119781E199E095
:1027F000938382838091560C9091570C95838483A8
:102800008091700C9091710C978386830E948CC884
:10281000EDB7FEB73196ADB7BEB712961C930E93C7
:10282000119783E099E0938382838091AA0C909121
:10283000AB0C958384838091C40C9091C50C9783D5
:1028400086830E948CC8EDB7FEB73196ADB7BEB790
:1028500012961C930E93119785EF98E093838283D1
:102860008091FE0C9091FF0C958384838091180DCC
:102870009091190D978386830E948CC8EDB7FEB79F
:102880003196ADB7BEB712961C930E93119787EE93
:1028900098E0938382838091520D9091530D95839C
:1028A000848380916C0D90916D0D978386830E9437
:1028B0008CC88DB79EB708960FB6F8949EBF0FBE12
:1028C0008DBF1F910F91089500D00F9284E595E080
:1028D000EDB7FEB79283818381EB9AE09483838383
:1028E0000E948CC80F900F900F900F90089500D009
:1028F0000F9284E595E0EDB7FEB7928381838DE476
:102900009CE0948383830E948CC80F900F900F905B
:102910000F9080E0089500D00F9284E595E0EDB728
:10292000FEB7928381838AE19EE0948383830E9431
:102930008CC80F900F900F900F900895A0E0B0E01A
:10294000E4EAF4E10C944ADD26EBA22E25E0B22E57
:1029500090EBC92E95E0D92E00E010E084E5E82E3A
:1029600085E0F82E00D000D0EDB7FEB73196ADB7B8
:10297000BEB71296FC92EE921197B382A282158393
:1029800004830E948CC8C0E0D0E08DB79EB7069645
:102990000FB6F8949EBF0FBE8DBFCE01800F911F62
:1029A0000E94D7E100D000D0EDB7FEB73196ADB7A9
:1029B000BEB71296FC92EE921197D382C2828483A4
:1029C00015820E948CC821968DB79EB706960FB6C9
:1029D000F8949EBF0FBE8DBFC031D105F1F6C7017F
:1029E0000E9410D6005F1F4F90E10030190709F0D8
:1029F000B9CF80E0CDB7DEB7EAE00C9466DDA4E2A3
:102A0000B0E0E5E0F5E10C944ADD8091E90A882325
:102A100009F493C00E94D4114DEEA42E45E0B42ECB
:102A20006E010894C11CD11C34E5E32E35E0F32E71
:102A300064E670E080E090E00E948BD78CEE95E039
:102A40000E94C594D601EAEFF7E084E201900D926E
:102A50008150E1F78CEE95E0B6010E94A0A18CEECA
:102A600095E00E9485996091F6057091F705809137
:102A7000F8059091F90521EE3EE245E652E40E9408
:102A8000F8DB20E030E048EC52E40E94F8DB0E94E2
:102A90003BDA613A2CE8720720E0820720E09207D7
:102AA0002CF0605A7C488040904006C097FF04C0DC
:102AB000605673478F4F9F4FEDB7FEB73E970FB6E7
:102AC000F894FEBF0FBEEDBF0DB71EB70F5F1F4FCF
:102AD000F282E182F801B382A28224E630E040E093
:102AE00050E00E9427DDF801248335834683578315
:102AF0008091F0059091F105918780878091F20592
:102B00009091F305938782878091F4059091F50564
:102B1000958784870E948CC82DB73EB7225F3F4FB0
:102B20000FB6F8943EBF0FBE2DBFC7010E9403C968
:102B3000181619060CF07CCF15C000D00F9284E552
:102B400095E0EDB7FEB79283818383EE95E09483A1
:102B500083830E948CC80F900F900F900F9080E09D
:102B60000E94581280E0A496EAE00C9466DD0F9370
:102B70001F93CF93DF938091C40A8823B9F400D0C8
:102B80000F9284E595E0ADB7BEB712969C938E93F5
:102B9000119788E296E014969C938E9313970E9467
:102BA0008CC80F900F900F900F902FC00E94D411DF
:102BB0000AE116E0C4E5D5E064E670E080E090E06C
:102BC0000E948BD78AE399E00E9400C500D000D014
:102BD000EDB7FEB73196ADB7BEB71296DC93CE9384
:102BE000119713830283958384830E948CC8EDB769
:102BF000FEB736960FB6F894FEBF0FBEEDBFCE01FE
:102C00000E9403C918161906BCF680E0DF91CF9127
:102C10001F910F910895EF92FF920F931F93CF93FF
:102C2000DF93809194059091950590936D11809319
:102C30006C11C0E0D0E064E170E080E090E00E94C0
:102C40008BD78CE895E00E941A842196CC33D1056D
:102C500091F7C0E0D0E064E170E080E090E00E9495
:102C60008BD78CE895E00E941A84E0909605F0904E
:102C700097050091980510919905E0926E11F092D8
:102C80006F11009370111093711120916C1130919C
:102C90006D11C90153E0880F991F5A95E1F7820F12
:102CA000931F2091940530919505820F931F6AE040
:102CB00070E00E94F2DC70936D1160936C112196AC
:102CC000C431D10541F6E0927211F0927311009374
:102CD000741110937511CDB7DEB7E6E00C946ADD80
:102CE000AF92BF92CF92DF92EF92FF920F931F931A
:102CF0008CE895E00E941A84E0909605F090970584
:102D00000091980510919905E0927211F09273115B
:102D1000009374111093751160916E1170916F1181
:102D200080917011909171110E946EDA5B016C01BB
:102D3000C801B7010E946EDA9B01AC01C601B50162
:102D40000E94D3D90E94B8DB7B018C0160916C1189
:102D500070916D11882777FD8095982F0E946EDA0B
:102D600020E030E040E251E40E94D3D923E333E98C
:102D700048E853E40E94EFD89B01AC01C801B701B9
:102D80000E94F8DB29E83EEA44EE56E40E94F8DBB4
:102D900020E030E040E251E40E94D3D90E943BDAC7
:102DA0009B01AC01CA011F910F91FF90EF90DF9042
:102DB000CF90BF90AF9008950F931F93CF93DF9361
:102DC0000E94D4110E940B1608E316E0C4E5D5E07A
:102DD00064E670E080E090E00E948BD70E9470165D
:102DE00070936B1160936A1100D000D0EDB7FEB7FD
:102DF0003196ADB7BEB71296DC93CE93119713837D
:102E00000283758364830E948CC88DB79EB7069633
:102E10000FB6F8949EBF0FBE8DBFCE010E9403C9AE
:102E200018161906ACF680E0DF91CF911F910F9133
:102E30000895CF93DF93EC0107C0219784E595E0D7
:102E400060E072E00E9427D61C161D06B4F3DF91E5
:102E5000CF910895FF920F931F93F62E00D000D0CC
:102E6000EDB7FEB7319604E515E0ADB7BEB71296E3
:102E70001C930E93119720EC39E0338322838483D3
:102E800015820E948CC88DB79EB706960FB6F8942F
:102E90009EBF0FBE8DBFEF2DF0E0EE0FFF1FE35280
:102EA000FC4F60817181C8010E9427D61F910F914C
:102EB000FF900895A0E0B0E0E0E6F7E10C9449DD72
:102EC000EC018091C009992787FD90958617970797
:102ED00044F484E595E061E072E00E9427D6188210
:102EE00077C0CB01E4E0880F991FEA95E1F7861BD4
:102EF000970B80509C4F5C01CC24B7FCC094DC2C19
:102F00000E94D7E18883860175010894E11CF11CB9
:102F1000011D111DC7010E94D7E1982E89830894D5
:102F2000E11CF11C011D111DC7010E94D7E18A831C
:102F30000894E11CF11C011D111DC7010E94DFE175
:102F40006B837C838D839E8387E090E0A0E0B0E07C
:102F5000A80EB91ECA1EDB1EC5010E94DFE17B015F
:102F60008C01EF82F88609871A8784E090E0A0E060
:102F7000B0E0A80EB91ECA1EDB1EC5010E94DFE12B
:102F80009B01AC012B873C874D875E8794FE20C058
:102F900080917D1190917E11A0917F11B09180114F
:102FA000E80EF91E0A1F1B1FEF82F88609871A8791
:102FB0008091811190918211A0918311B09184111F
:102FC000280F391F4A1F5B1F2B873C874D875E8761
:102FD000CE01CDB7DEB7EBE00C9465DD8F929F920A
:102FE000AF92BF92DF92EF92FF920F931F93DF9306
:102FF000CF93CDB7DEB72F970FB6F894DEBF0FBED5
:10300000CDBF68EE73E080E090E00E948BD700D0E7
:103010000F9204E515E0ADB7BEB712961C930E9360
:10302000119782E696E014969C938E9313970E94D4
:103030008CC82091B70A3091B80A0F900F900F906A
:103040000F9037FF11C000D00F92EDB7FEB712837B
:10305000018380E696E0948383830E948CC80F905E
:103060000F900F900F9020C000D000D0EDB7FEB7AA
:103070003196ADB7BEB712961C930E93119788E5A3
:1030800096E093838283C90164E670E00E94F2DCDB
:10309000758364830E948CC8EDB7FEB736960FB671
:1030A000F894FEBF0FBEEDBF00D000D0EDB7FEB765
:1030B000319604E515E0ADB7BEB712961C930E939A
:1030C000119781E596E0938382838091C0099927C7
:1030D00087FD9095958384830E948CC8EDB7FEB7D9
:1030E0003196ADB7BEB712961C930E93119784E438
:1030F00096E0938382838091E409992787FD9095D8
:10310000958384830E948CC8FCE68F2EF6E09F2E68
:10311000FF24EDB7FEB736960FB6F894FEBF0FBE8C
:10312000EDBF5E010894A11CB11CD02EE12E46C05B
:10313000C501B8010E945A178DB79EB748970FB6C0
:10314000F8949EBF0FBE8DBFEDB7FEB73196ADB7F9
:10315000BEB71196DC9211971296EC9293828282FE
:10316000158304838981868317828A8180871186EB
:103170008B81828713868C819D81AE81BF818487FC
:103180009587A687B78788859985AA85BB85808B13
:10319000918BA28BB38B8C859D85AE85BF85848BEF
:1031A000958BA68BB78B0E948CC8F394EDB7FEB7B6
:1031B00078960FB6F894FEBF0FBEEDBF0F2D10E04E
:1031C0008091C009992787FD9095801791070CF091
:1031D000AFCF80E02F960FB6F894DEBF0FBECDBF05
:1031E000CF91DF911F910F91FF90EF90DF90BF90F3
:1031F000AF909F908F9008950F931F9307E214E173
:103200004091020C5091030CC80160E00E94FE85C1
:103210004091020C5091030CC80161E00E94FE85B0
:103220004091020C5091030CC80162E00E94FE859F
:103230004091020C5091030CC80163E00E94FE858E
:103240004091020C5091030CC80166E00E94FE857B
:103250004091020C5091030CC80167E00E94FE856A
:103260001F910F91089587E294E10E947E8681303C
:1032700009F05EC087E294E160E00E944D86BC01E7
:1032800088E39BE00E94ACD087E294E161E00E9479
:103290004D86BC018CE89BE00E94ACD087E294E1B3
:1032A00062E00E944D86BC0180EE9BE00E94ACD0A3
:1032B00087E294E163E00E944D86BC0184E39CE0D8
:1032C0000E94ACD087E294E164E00E944D86BC018C
:1032D00088E89CE00E94ACD087E294E165E00E941F
:1032E0004D86BC018CED9CE00E94ACD087E294E15D
:1032F00066E00E944D86BC0180E39DE00E94ACD058
:1033000087E294E167E00E944D86BC0184E89DE07D
:103310000E94ACD08091ED0B9091EE0B23E08132B6
:10332000920714F080E293E09093EE0B8093ED0B04
:1033300008950F931F93CF93DF930E94D41168EEEB
:1033400073E080E090E00E948BD703E917E0C4E5CA
:10335000D5E064E170E080E090E00E948BD70E94AD
:1033600033198DB79EB742970FB6F8949EBF0FBE24
:103370008DBFEDB7FEB73196ADB7BEB71296DC93F1
:10338000CE931197138302838091450B9091460B46
:10339000958384838091990B90919A0B9783868370
:1033A0008091ED0B9091EE0B918780878091410C7D
:1033B0009091420C938782878091950C9091960C06
:1033C000958784878091E90C9091EA0C978786878E
:1033D00080913D0D90913E0D918B808B0E948CC809
:1033E0008DB79EB742960FB6F8949EBF0FBE8DBFA5
:1033F000CE010E9403C9181619060CF0AACF80E06E
:10340000DF91CF911F910F9108950F931F93CF9349
:10341000DF930E94D41168EE73E080E090E00E9498
:103420008BD702EC17E0C4E5D5E064E170E080E002
:1034300090E00E948BD70E9433198DB79EB74497B6
:103440000FB6F8949EBF0FBE8DBFEDB7FEB7319695
:10345000ADB7BEB71296DC93CE9311971383028358
:103460008091430B9091440B958384838091970BBB
:103470009091980B978386838091EB0B9091EC0B46
:103480009187808780913F0C9091400C9387828731
:103490008091930C9091940C958784878091E70C90
:1034A0009091E80C9787868780913B0D90913C0D19
:1034B000918B808B80918F0D9091900D938B828B4F
:1034C0000E948CC88DB79EB744960FB6F8949EBFE5
:1034D0000FBE8DBFCE010E9403C9181619060CF04D
:1034E000A4CF80E0DF91CF911F910F910895EF92CB
:1034F000FF920F931F9380E00E94DBD6AA2797FDCF
:10350000A095BA2FBC01CD010E946EDA7B018C011F
:103510006091340B7091350B8091360B9091370B85
:1035200020E030E040E85AE30E94F8DB9B01AC0168
:10353000C801B7010E94F8DB2AE037ED43E650E40A
:103540000E94F8DB2DEC3CEC4CEC5DE30E94F8DBD8
:103550007B018C0160917A0370917B0380917C03E5
:1035600090917D0326E636E646E65FE30E94F8DBAF
:103570009B01AC01C801B7010E94EFD860937A03A8
:1035800070937B0380937C0390937D0381E00E9482
:10359000DBD6AA2797FDA095BA2FBC01CD010E94CA
:1035A0006EDA7B018C016091340B7091350B809148
:1035B000360B9091370B20E030E040E85AE30E9450
:1035C000F8DB9B01AC01C801B7010E94F8DB2AE0DF
:1035D00037ED43E650E40E94F8DB2DEC3CEC4CEC7C
:1035E0005DE30E94F8DB7B018C0160917E037091AA
:1035F0007F03809180039091810326E636E646E6BC
:103600005FE30E94F8DB9B01AC01C801B7010E9497
:10361000EFD860937E0370937F0380938003909331
:10362000810382E00E94DBD6AA2797FDA095BA2FDE
:10363000BC01CD010E946EDA7B018C016091340BDC
:103640007091350B8091360B9091370B20E030E074
:1036500040E85AE30E94F8DB9B01AC01C801B701C6
:103660000E94F8DB2AE037ED43E650E40E94F8DBE5
:103670002DEC3CEC4CEC5DE30E94F8DB7B018C0113
:1036800060918203709183038091840390918503FC
:1036900026E636E646E65FE30E94F8DB9B01AC01D6
:1036A000C801B7010E94EFD860938203709383032F
:1036B000809384039093850383E00E94DBD6AA273E
:1036C00097FDA095BA2FBC01CD010E946EDA7B0157
:1036D0008C016091340B7091350B8091360B909179
:1036E000370B20E030E040E85AE30E94F8DB9B0112
:1036F000AC01C801B7010E94F8DB2AE037ED43E6D0
:1037000050E40E94F8DB2DEC3CEC4CEC5DE30E94B5
:10371000F8DB7B018C0160918603709187038091B7
:1037200088039091890326E636E646E65FE30E9429
:10373000F8DB9B01AC01C801B7010E94EFD87B0107
:103740008C01CB01D8018093860390938703A093CB
:103750008803B09389032091D00A213049F48091E5
:10376000820390918303A0918403B091850304C0E8
:10377000223059F4C701D8018093760390937703E0
:10378000A0937803B09379038CC0233019F02430D0
:1037900009F087C080917A0390917B03A0917C030C
:1037A000B0917D038093760390937703A093780381
:1037B000B0937903243009F074C081E00E94DBD615
:1037C000AA2797FDA095BA2FBC01CD010E946EDA01
:1037D0007B018C016091340B7091350B8091360B1D
:1037E0009091370B20E030E040E85AE30E94F8DB8C
:1037F0009B01AC01C801B7010E94F8DB2CE53FE852
:103800004AED51E40E94F8DB2DEC3CEC4CEC5DE31E
:103810000E94F8DB7B018C01609186117091871109
:10382000809188119091891126E636E646E65FE39D
:103830000E94F8DB9B01AC01C801B7010E94EFD8E0
:103840007B018C016093861170938711809388119E
:10385000909389116091851170E080E090E00E9462
:103860006CDA9B01AC01C801B7010E94F8DB27E8C4
:1038700030EC41E959E30E94F8DB9B01AC01609117
:103880008A1170918B1180918C1190918D110E94F1
:10389000EFD860938A1170938B1180938C11909361
:1038A0008D111F910F91FF90EF9008950F931F932B
:1038B000CF93DF930E94D41184E68093851108EBA7
:1038C00016E0C4E5D5E064E670E080E090E00E9498
:1038D0008BD70E9433190E94771A8DB79EB74097F5
:1038E0000FB6F8949EBF0FBE8DBFEDB7FEB73196F1
:1038F000ADB7BEB71296DC93CE93119713830283B4
:103900008091760390917703A0917803B091790329
:1039100084839583A683B7838091861190918711C4
:10392000A0918811B091891180879187A287B38770
:1039300080918A1190918B11A0918C11B0918D1171
:1039400084879587A687B7870E948CC88DB79EB756
:1039500040960FB6F8949EBF0FBE8DBF4091EB0B03
:103960005091EC0B87E294E160E00E94FE8540916B
:10397000EB0B5091EC0B87E294E161E00E94FE8535
:103980004091EB0B5091EC0B87E294E162E00E94D6
:10399000FE854091EB0B5091EC0B87E294E163E0E4
:1039A0000E94FE85CE010E9403C9181619060CF06C
:1039B0008ACF80E0DF91CF911F910F9108950F93EF
:1039C0001F93CF93DF930E94D41168EE73E080E0E1
:1039D00090E00E948BD708ED16E0C4E5D5E064E1E5
:1039E00070E080E090E00E948BD70E9433198091B4
:1039F000410C9091420C9093460C8093450C84E3CB
:103A00009CE00E9420D18DB79EB708970FB6F8941E
:103A10009EBF0FBE8DBFEDB7FEB73196ADB7BEB737
:103A20001296DC93CE931197138302838091410CFD
:103A30009091420C958384838091490C90914A0C1B
:103A4000978386830E948CC88DB79EB708960FB661
:103A5000F8949EBF0FBE8DBF4091490C50914A0C07
:103A600087E294E166E00E94FE85CE010E9403C9D0
:103A7000181619060CF0B3CF80E0DF91CF911F919B
:103A80000F9108956091E90C7091EA0C882777FDF9
:103A90008095982F0E946EDA20E030E04AE754E4E7
:103AA0000E94D3D9609358097093590980935A0999
:103AB00090935B098091010B992787FD9095A92F21
:103AC000B92FFC013197EB30F10508F04FC1EE58EA
:103AD000FF4F0C9479DD8CED9CE060E070E040E4F9
:103AE0005FE10E944CCF8091580990915909A091B3
:103AF0005A09B0915B098093440F9093450FA093AE
:103B0000460FB093470F80937E0F90937F0FA09343
:103B1000800FB093810F08958CED9CE060E070E021
:103B20004CE251E00E944CCF6091E90C7091EA0C9C
:103B3000882777FD8095982F0E946EDA20E030E08C
:103B40004AE754E40E94D3D9DC019B01AC012093E5
:103B500058093093590940935A0950935B092093AF
:103B6000530F3093540F4093550F5093560FCB0182
:103B700080938D0F90938E0FA0938F0FB093900F23
:103B800008958CED9CE060E070E04CE251E00E9412
:103B90004CCF8091580990915909A0915A09B09140
:103BA0005B098093960E9093970EA093980EB09316
:103BB000990E8093D00E9093D10EA093D20EB09315
:103BC000D30E08958CED9CE060E070E04CE251E093
:103BD0000E944CCF8091580990915909A0915A099F
:103BE000B0915B098093A50E9093A60EA093A70EAB
:103BF000B093A80E8093DF0E9093E00EA093E10E99
:103C0000B093E20E08958CED9CE060E070E048EE29
:103C100053E00E944CCF8091580990915909A0918E
:103C20005A09B0915B098093B80F9093B90FA09394
:103C3000BA0FB093BB0F08958CED9CE060E070E08C
:103C400048EE53E00E944CCF809158099091590959
:103C5000A0915A09B0915B0980930A0F90930B0FC2
:103C6000A0930C0FB0930D0F08958CED9CE060E0D5
:103C700070E048EE53E00E944CCF8091580990913B
:103C80005909A0915A09B0915B098093DA10909379
:103C9000DB10A093DC10B093DD1008958CED9CE058
:103CA00060E273E048EE53E00E944CCF80915809E7
:103CB00090915909A0915A09B0915B098093190B11
:103CC00090931A0BA0931B0BB0931C0B08958CEDD3
:103CD0009CE060E070E048EE53E00E944CCF209101
:103CE000E90C3091EA0C82E02935380744F48091E0
:103CF0000B01846080930B0120593140BCF180910D
:103D00000B018B7F80930B0108958CED9CE060E0AC
:103D100070E048EE53E00E944CCF8091E90C909106
:103D2000EA0C9093FD098093FC0908958CED9CE0CA
:103D300060E070E040E757E10E944CCF8091580965
:103D400090915909A0915A09B0915B09809366102E
:103D500090936710A0936810B09369108093A0109F
:103D60009093A110A093A210B093A31008950F9365
:103D70001F93CF93DF930E94D4110CEE16E0C4E59D
:103D8000D5E068EC70E080E090E00E948BD70E9464
:103D900033190E94421D8DB79EB708970FB6F8944D
:103DA0009EBF0FBE8DBFEDB7FEB73196ADB7BEB7A4
:103DB0001296DC93CE931197138302838091580956
:103DC00090915909A0915A09B0915B098483958318
:103DD000A683B7830E948CC88DB79EB708960FB68E
:103DE000F8949EBF0FBE8DBFCE010E9403C9181666
:103DF00019063CF680E0DF91CF911F910F91089555
:103E00008091691290916A12892B09F45AC00E941C
:103E100057D72091631230916412409165125091EE
:103E20006612621B730B840B950B20916712309105
:103E3000681240E050E0621773078407950708F4A2
:103E400040C037C0019790936A12809369128091A5
:103E5000691290916A12892BA1F10E9457D7609341
:103E6000631270936412809365129093661260914E
:103E70006212862F8450843088F48091691280FF0A
:103E800005C040916B1250916C1204C040916D12AC
:103E900050916E1287E294E10E94FE858091621239
:103EA000853079F480910B0194E0892780930B0190
:103EB00008958091691290916A121816190614F2E9
:103EC000C6CF0895CF93DF93C0E0D0E084E595E0BE
:103ED00065E072E00E9440D52196C832D105B1F765
:103EE00084E595E060E072E00E9427D6DF91CF91F3
:103EF000089500D00F9284E595E0EDB7FEB7928368
:103F0000818385E197E0948383830E948CC80F901E
:103F10000F900F900F900E94621F0E94F0120E945B
:103F2000361382E090E00E941917089500D000D067
:103F3000EDB7FEB7319684E595E0ADB7BEB7129602
:103F40009C938E93119781ED98E093838283809167
:103F5000680990916909958384830E948CC88DB704
:103F60009EB706960FB6F8949EBF0FBE8DBF0E94F7
:103F7000621F82E090E00E941917089500D00F920E
:103F800084E595E0EDB7FEB79283818380EE98E0FB
:103F9000948383830E948CC80F900F900F900F9092
:103FA0000E94621F0E94901382E090E00E94191705
:103FB0000895CF93DF9300D00F92C4E5D5E0EDB71D
:103FC000FEB7D283C1838CE699E0948383830E94F9
:103FD0008CC80F900F900F900F900E94621F00D01E
:103FE0000F92EDB7FEB7D283C18381E699E0948347
:103FF00083830E948CC880910D0B0F900F900F90BF
:104000000F90813049F400D00F92EDB7FEB7D28304
:10401000C18389E599E015C0882349F400D00F9247
:10402000EDB7FEB7D283C18381E599E00AC0823043
:1040300081F400D00F92EDB7FEB7D283C18389E43B
:1040400099E0948383830E948CC80F900F900F9007
:104050000F9082E090E00E941917DF91CF910895B0
:1040600000D00F9284E595E0EDB7FEB7928381838F
:104070008CE999E0948383830E948CC80F900F9001
:104080000F900F900E94621F8091D00A882311F434
:104090000E9458128091D00A813091F400D00F9282
:1040A00084E595E0EDB7FEB79283818384E999E0DA
:1040B000948383830E948CC80F900F900F900F9071
:1040C0008091D00A823091F400D00F9284E595E07F
:1040D000EDB7FEB7928381838CE899E09483838364
:1040E0000E948CC80F900F900F900F908091D00A73
:1040F000833091F400D00F9284E595E0EDB7FEB7E0
:104100009283818381E899E0948383830E948CC8A1
:104110000F900F900F900F908091D00A843091F4FF
:1041200000D00F9284E595E0EDB7FEB792838183CE
:1041300083E799E0948383830E948CC80F900F904B
:104140000F900F9082E090E00E94191708951F933E
:10415000CF93DF9300D00F9284E595E0EDB7FEB7E3
:104160009283818382EB99E0948383830E948CC83D
:104170000F900F900F900F900E94621FC5E5DAE03C
:1041800010E0812F68810E942A172C961F5F16303D
:10419000C1F782E090E00E941917DF91CF911F9143
:1041A0000895CF93DF9300D00F92C4E5D5E0ADB76B
:1041B000BEB71296DC93CE93119788E09AE01496DE
:1041C0009C938E9313970E948CC80F900F900F9022
:1041D0000F900E94621F2091010B222321F480E0A6
:1041E0000E9458121FC000D000D0EDB7FEB7319624
:1041F000ADB7BEB71296DC93CE93119783E09AE0E9
:1042000093838283822F992787FD9095958384835A
:104210000E948CC8EDB7FEB736960FB6F894FEBF75
:104220000FBEEDBF82E090E00E941917DF91CF91A1
:10423000089500D00F9284E595E0EDB7FEB7928324
:10424000818388E893E1948383830E948CC80F90D4
:104250000F900F900F900E94621F8091E0130E94B8
:10426000581282E090E00E9419170895ACE0B0E087
:10427000ECE3F1E20C9452DD40918A0350918B0300
:1042800060918C0370918D0389EC97E00E9402B5D8
:10429000DE011196EEE4F8E08CE001900D92815081
:1042A000E1F7ABE3B1E1FE0131968CE001900D92B4
:1042B0008150E1F72C96E2E00C946EDDACE2B0E0C8
:1042C000E4E6F1E20C9442DDDE011196EAEFF7E05C
:1042D00084E201900D928150E1F769807A808B80B1
:1042E0009C80AD84BE84CF84D888298C3A8C4B8C3A
:1042F0005C8C89A19AA1ABA1BCA189A79AA7ABA705
:10430000BCA78D8D9E8DAF8DB8A18DA39EA3AFA3AD
:10431000B8A7C401B301A40193010E94F8DB7B019B
:104320008C01C601B501A60195010E94F8DB9B0135
:10433000AC01C801B7010E94EFD80E9465DC7B0187
:104340008C01C601B501A80197010E94D3D96093E1
:104350008E0370938F038093900390939103C40115
:10436000B301A80197010E94D3D96093941170936F
:1043700095118093961190939711D201C101B05875
:104380008093981190939911A0939A11B0939B11D7
:10439000C201B101A20191010E94F8DB9B01AC01B5
:1043A00060E070E080E89FE30E94EED80E9465DC48
:1043B0007B018C0160939203709393038093940329
:1043C0009093950369A57AA58BA59CA5A801970153
:1043D0000E94D3D9609396037093970380939803B8
:1043E000909399036DA17EA18FA198A5A801970133
:1043F0000E94D3D960939C1170939D1180939E115C
:1044000090939F11AC96E2E10C945EDDA4E2B0E0E3
:10441000ECE0F2E20C944CDD0E94791F8DE797E00E
:104420006BE877ED0E94A4C40E94791F0E94D4110A
:1044300068EE73E080E090E00E948BD70E9457D72F
:1044400060938E1170938F118093901190939111BE
:10445000B6E0CB2EB7E0DB2EA4E5EA2EA5E0FA2EDF
:104460008E010F5F1F4F0E9457D720918E11309100
:104470008F114091901150919111621B730B840B1D
:10448000950B653071058105910508F48EC00E9479
:1044900057D720918E11621B6093921170E080E0DB
:1044A00090E00E946CDA20E030E04AE754E40E9499
:1044B000D3D960938A0370938B0380938C0390937A
:1044C0008D030E9457D760938E1170938F11809344
:1044D0009011909391110E943621809193118F5FDA
:1044E00080939311843011F40E945E218091931186
:1044F000843109F05AC00E943319109293118DB77C
:104500009EB740970FB6F8949EBF0FBE8DBFEDB714
:10451000FEB73196ADB7BEB71296FC92EE921197E8
:10452000D382C2828091C9079091CA07A091CB071C
:10453000B091CC0784839583A683B7838091CD0700
:104540009091CE07A091CF07B091D0078087918737
:10455000A287B3878091D1079091D207A091D3070A
:10456000B091D40784879587A687B7870E948CC8A7
:104570008DB79EB740960FB6F8949EBF0FBE8DBF05
:104580008091E90A882389F08CEE95E00E94C59419
:10459000D801EAEFF7E084E201900D928150E1F753
:1045A0008CEE95E0B8010E94A0A184E595E00E9400
:1045B00003C9181619060CF056CF80E0A496E8E05F
:1045C0000C9468DDAF92BF92CF92DF92EF92FF9290
:1045D0000F931F937C018B01FB016781708581859F
:1045E0009285F7012781308541855285621B730BC7
:1045F000840B950B0E946EDA5B016C01F8016385F8
:10460000748585859685F70123853485458556858E
:10461000621B730B840B950B0E946EDA20919C0336
:1046200030919D0340919E0350919F030E94F8DBBF
:104630007B018C01C601B501A60195010E94F8DB42
:104640005B016C01C801B701A80197010E94F8DB6A
:104650009B01AC01C601B5010E94EFD80E9465DC48
:1046600028EC32E646E35CE30E94F8DB0E943BDA8A
:104670009B01AC01CA011F910F91FF90EF90DF9059
:10468000CF90BF90AF900895CF92DF92FF920F939B
:104690001F93CF93DF930E94D41100D00F9204E5B3
:1046A00015E0ADB7BEB712961C930E93119785E631
:1046B00097E014969C938E9313970E948CC80F904A
:1046C0000F900F900F9068EE73E080E090E00E94F2
:1046D0008BD781E6C82E87E0D82EC0E0D0E0F02E40
:1046E000012F20C08AE895E06C2F0E94B78700D088
:1046F00000D0EDB7FEB73196ADB7BEB71196FC92BC
:10470000119712960C93D382C282958384830E9460
:104710008CC82196EDB7FEB736960FB6F894FEBF5B
:104720000FBEEDBFC930D105ECF284E595E00E94E3
:1047300010D664E170E080E090E00E948BD784E5C1
:1047400095E00E9403C9181619061CF0C0E0D0E0DD
:10475000E9CF80E0DF91CF911F910F91FF90DF9023
:10476000CF900895A0E0B0E0E8EBF3E20C944CDDCC
:104770000E94D41168EE73E080E090E00E948BD735
:104780002AE6C22E27E0D22E94E5E92E95E0F92EF6
:104790006DE471E080E090E00E948BD70E943F11B1
:1047A0008091391190913A110E94E4BEC091391163
:1047B000D0913A118FA1882309F445C08DB79EB7D7
:1047C00042970FB6F8949EBF0FBE8DBF0DB71EB7B0
:1047D0000F5F1F4FEDB7FEB7F282E182F801D3827F
:1047E000C2828C859D85AE85BF8584839583A68393
:1047F000B78388899989AA89BB8980879187A2878D
:10480000B3876C897D898E899F8924E630E040E0FA
:1048100050E00E9427DDF8012487358746875787B7
:104820008EA1808B118A0E948CC8E0913911F09181
:104830003A1117A28DB79EB742960FB6F8949EBF55
:104840000FBE8DBF06C084E595E067E072E00E9470
:1048500040D584E595E00E9403C9181619060CF0AE
:1048600097CF80E0CDB7DEB7E8E00C9468DD00D0EC
:104870000F9284E595E0EDB7FEB79283818387EFD1
:1048800097E0948383830E948CC80F900F900F90C1
:104890000F908EE491E10E94319180E0089583E6CB
:1048A00091E10E94319180E00895CF93DF9300D091
:1048B0000F92C4E5D5E0EDB7FEB7D283C18383EC98
:1048C00098E0948383830E948CC80F900F900F9080
:1048D0000F9080915A0B90915B0B8451954064F13D
:1048E00068EE73E080E090E00E948BD700D00F92DA
:1048F000EDB7FEB7D283C1838AE998E094838383BE
:104900000E948CC80F900F900F900F9068EE73E08C
:1049100080E090E00E948BD700D00F92EDB7FEB7F9
:10492000D283C18387E798E0948383830E948CC8F5
:104930000F900F900F900F9085E591E10E943191BB
:1049400080E0DF91CF91089587E491E10E94319159
:1049500080E0089589EB9AE00E94558A00D00F927A
:1049600084E595E0EDB7FEB7928381838BEA99E009
:10497000948383830E948CC80F900F900F900F90A8
:104980000E94621F8091C40A0E94581282E090E047
:104990000E9419170895A0E0B0E0E1EDF4E20C9454
:1049A0004CDD00D00F9244E5E42E45E0F42EADB787
:1049B000BEB71296FC92EE9211978AEF99E0149688
:1049C0009C938E9313970E948CC80F900F900F901A
:1049D0000F900E94621F8091E90A0E9458123CEEDB
:1049E000C32E35E0D32EC6010E948A99CDB7DEB71B
:1049F00028970FB6F894DEBF0FBECDBF0DB71EB718
:104A00000F5F1F4FFA82E9822AEE39E0F801338303
:104A1000228321EE3EE245E652E40E94F8DBD80113
:104A200014966D937D938D939C9317970E948CC8D9
:104A3000CDB7DEB728960FB6F894DEBF0FBECDBF58
:104A4000C6010E9485999C01EDB7FEB770970FB61D
:104A5000F894FEBF0FBEEDBF3196ADB7BEB712964C
:104A6000FC92EE92119789EC99E093838283E9019D
:104A700088819981AA81BB8184839583A683B7832A
:104A80008C819D81AE81BF8180879187A287B3870A
:104A900088859985AA85BB8584879587A687B787EA
:104AA0000E948CC8EDB7FEB770960FB6F894FEBFA3
:104AB0000FBEEDBF82E090E00E941917CDB7DEB7C0
:104AC000E8E00C9468DDFF920F931F93F82E8B01A2
:104AD00088E090E00E9419170E94961F0E94BE1F56
:104AE0000E94D91F0E9430200E94AA240E94A72061
:104AF0000E94791F0E94CB248F2DB8010E9406903E
:104B000080E01F910F91FF900895FB0160897189EA
:104B10008289938925E33AEF4EE85CE30E94F8DB53
:104B2000AB01BC018CEE95E00E9425A40E94CB2431
:104B300080E00895FB0184858093010B86EF9AE065
:104B40000E94E48A0E94D12080E0089500D00F9254
:104B500084E595E0EDB7FEB79283818383EC9AE01C
:104B6000948383830E948CC881E08093F50A0F9020
:104B70000F900F900F908AEE9AE00E94E48A64E111
:104B800070E080E090E00E948BD784E595E00E9481
:104B900003C9181619069CF71092F50A8AEE9AE0D6
:104BA0000E94E48A80E0089564E170E080E090E093
:104BB0000E948BD70E9433198091020C9091030CB4
:104BC0009093A3118093A2119093A5118093A411A7
:104BD0009093A9118093A8112091450B3091460B19
:104BE0004BE0293B34072CF0C2969093A31180939D
:104BF000A2112854344F4CF48091A4119091A51126
:104C0000C2969093A5118093A4118091990B9091D5
:104C10009A0B895B9B404CF08091A8119091A9114F
:104C2000C2969093A9118093A8114091A21150911E
:104C3000A31187E294E160E00E94FE854091A411F7
:104C40005091A51187E294E161E00E94FE854091B8
:104C5000A8115091A91187E294E163E00E94FE85BA
:104C600084E595E00E9403C9181619060CF09CCF44
:104C70001092F50A8AEE9AE00E94E48A80E0089594
:104C8000FF920F931F93CF93DF9300D00F9284E591
:104C900095E0EDB7FEB7928381838CE59AE094832B
:104CA00083830E948CC80F900F900F900F900E94EA
:104CB000D41110E0FF2464E170E080E090E00E94F5
:104CC0008BD70E9433190E94F50F082FF816A1F018
:104CD00090E0FC01EE0FFF1FE80FF91FEE0FFF1F22
:104CE000EE0FFF1FE65BF54F1385193008F018E053
:104CF000802F612F0E942A170E949D108823B1F0F7
:104D00001F5F193009F410E0802F90E0FC01EE0FD6
:104D1000FF1FE80FF91FEE0FFF1FEE0FFF1FE65BEF
:104D2000F54F1387802F612F0E942A1784E595E0A5
:104D30000E9403C9F02E181619060CF0BCCFCAE465
:104D4000DAE0CE010E94E48A2C96FAE0C239DF074D
:104D5000C1F70E9464140E94A72080E0CDB7DEB79F
:104D6000E5E00C946BDDA4E2B0E0E9EBF6E20C9434
:104D700050DD80E090E0A0E8BFE389839A83AB83B5
:104D8000BC8380E090E0A0E0B0E08D839E83AF83A1
:104D9000B88789879A87AB87BC878D879E87AF87BF
:104DA000B88B20E030E040E85FEB298B3A8B4B8BEF
:104DB0005C8B8D8B9E8BAF8BB88F898F9A8FAB8FCF
:104DC000BC8F8D8F9E8FAF8FB8A329A33AA34BA31F
:104DD0005CA30CEE15E0C801BE016F5F7F4F0E941F
:104DE000919489EC97E0B8010E9462A5C8010E94E5
:104DF000E996C8010E948599A496E4E00C946CDDC4
:104E0000CF93DF93FB01C285D385CE0162E47AE0C4
:104E10000E94EEDE892B21F481E08093C40A09C050
:104E2000CE016EE37AE00E94EEDE892B39F4109217
:104E3000C40A89EB9AE00E94E48A12C000D00F9263
:104E400084E595E0EDB7FEB7928381838AE29AE02C
:104E5000948383830E948CC80F900F900F900F90C3
:104E60000E94AA2480E0DF91CF910895CF93DF9331
:104E7000FB01EB012A968285938568E57AE00E9422
:104E8000EEDE892B19F41092D00A0FC02A813B81E3
:104E90004C815D81DA01C9010197A109B10904972B
:104EA000A105B10538F42093D00A85EC9AE00E9460
:104EB000E48A12C000D00F9284E595E0EDB7FEB70A
:104EC0009283818385E49AE0948383830E948CC8D3
:104ED0000F900F900F900F900E94302080E0DF9194
:104EE000CF910895CF93DF93FB01C285D385CE0187
:104EF0006FE97BE00E94EEDE892B11F481E019C09E
:104F0000CE016DE97BE00E94EEDE892B39F0CE0107
:104F10006BE97BE00E94EEDE892B19F410920D0BF9
:104F20000AC0CE0169E97BE00E94EEDE892B41F4E4
:104F300082E080930D0B82E09BE00E94E48A12C025
:104F400000D00F9284E595E0EDB7FEB792838183A0
:104F500087E89BE0948383830E948CC80F900F9016
:104F60000F900F900E94D91F80E0DF91CF9108959C
:104F7000ACE0B0E0EEEBF7E20C9450DDFB01028513
:104F80001385C80167E27AE00E94EEDE892B51F4B6
:104F900081E08093E90A8EED9AE00E94E48A0E9403
:104FA000B3263CC0C80163E27AE00E94EEDE892BA2
:104FB00011F580E090E0A0E0B0E089839A83AB83B4
:104FC000BC838D839E83AF83B88789879A87AB879D
:104FD000BC878CEE95E0BE016F5F7F4F0E946899A1
:104FE0008CEE95E00E9431A41092E90A8EED9AE0D1
:104FF0000E94E48A13C000D00F9284E595E0EDB7DB
:10500000FEB79283818380E19AE0948383830E9438
:105010008CC80F900F900F900F9004C08EED9AE007
:105020000E94E48A0E94CB2480E02C96E4E00C9459
:105030006CDD8DE797E06BE877ED0E948FC40E94EE
:1050400036130E94791F80E008950F931F93CF932A
:10505000DF9384E595E069E072E00E9427D600E0E6
:1050600064E170E080E090E00E948BD70E943319E9
:105070000F5F0436A9F7C091430BD091440B81E038
:10508000C43FD8073CF468EE73E080E090E00E94F3
:105090008BD7F9CFD0935B0BC0935A0B2091970B12
:1050A0003091980B3093AF0B2093AE0B0091EB0B2C
:1050B0001091EC0B1093030C0093020C80913F0CA9
:1050C0009091400C9093570C8093560CA091930CA8
:1050D000B091940CB093AB0CA093AA0CE091E70CA8
:1050E000F091E80CF093FF0CE093FE0C60913B0D07
:1050F00070913C0D7093530D6093520D40918F0D44
:105100005091900D5093A70D4093A60DD093750B21
:10511000C093740B3093C90B2093C80B10931D0CD4
:1051200000931C0C9093710C8093700CB093C50C81
:10513000A093C40CF093190DE093180D70936D0DAE
:1051400060936C0D5093C10D4093C00DD093680BCC
:10515000C093670B3093BC0B2093BB0B9093640CF4
:105160008093630C8CED95E09093B80C8093B70C12
:1051700090930C0D80930B0D9093600D80935F0DB9
:105180009093B40D8093B30D00D00F9284E595E019
:10519000EDB7FEB79283818381EA9BE0948383839A
:1051A0000E948CC80F900F900F900F9064E170E0F8
:1051B00080E090E00E948BD70E94331988E39BE047
:1051C0000E94A4CF8CE89BE00E94A4CF80EE9BE0DD
:1051D0000E94A4CF84E39CE00E94A4CF88E89CE0D6
:1051E0000E94A4CF8CED9CE00E94A4CF80E39DE0C0
:1051F0000E94A4CF84E89DE00E94A4CF84E595E0BE
:105200000E9403C9181619068CF664E170E080E06C
:1052100090E00E948BD784E595E00E9480C988E3E6
:105220009BE00E94C5D18CE89BE00E94C5D180EE36
:105230009BE00E94C5D184E39CE00E94C5D188E830
:105240009CE00E94C5D18CED9CE00E94C5D180E31A
:105250009DE00E94C5D184E89DE00E94C5D10E94D6
:1052600064140E94BE1F80E0DF91CF911F910F91C7
:10527000089500D00F9284E595E0EDB7FEB79283D4
:1052800081838EEF9BE0948383830E948CC80F9070
:105290000F900F900F9084E595E00E9433C9FFEFC7
:1052A0008F3F9F07C1F38937910529F08935910513
:1052B00011F08FEF08950E94C08A00D00F9284E50C
:1052C00095E0EDB7FEB79283818389ED9BE09483EF
:1052D00083830E948CC80F900F900F900F9068EE00
:1052E00073E080E090E00E948BD7FFCFCF93DF93F5
:1052F00000D00F9284E595E0EDB7FEB792838183ED
:105300008CE39CE0948383830E948CC8C0E0D0E04F
:105310000F900F900F900F90CE0160E00E94EFE190
:105320002196F0E1C030DF07B9F700D00F9284E595
:1053300095E0EDB7FEB79283818386E39CE094838A
:1053400083830E948CC80F900F900F900F90DF9175
:10535000CF9108950E94762980E00895EF92FF9200
:105360000F931F93CF93DF937B018230A1F000D086
:105370000F9284E595E0EDB7FEB7928381838BEFC2
:105380009CE0948383830E948CC88FEF0F900F90D2
:105390000F900F9091C0FB0102851385C80167EF44
:1053A0007CE00E94DBDE892B19F4CFEFDFEF63C0D6
:1053B000C80169EE7CE00E94DBDEC0E0D0E0892B12
:1053C00011F4C1E0D0E0C8016CED7CE00E94DBDEAE
:1053D000892B09F4C260C80168ED7CE00E94DBDE25
:1053E000892B09F4C460C80165ED7CE00E94DBDE16
:1053F000892B09F4C860C80160ED7CE00E94DBDE07
:10540000892B09F4C061C8016BEC7CE00E94DBDEF3
:10541000892B09F4C062C80166EC7CE00E94DBDEE7
:10542000892B09F4C064C80162EC7CE00E94DBDED9
:10543000892B09F4C068C8016EEB7CE00E94DBDEBA
:10544000892B09F4D160C8016AEB7CE00E94DBDEA5
:10545000892B09F4D260C80163EB7CE00E94DBDE9B
:10546000892B09F4D460C8016BEA7CE00E94DBDE82
:10547000892B09F4D860F7018081918164EA7CE08E
:105480000E94DBDE892B39F48091AA0A9091AB0A45
:10549000C82BD92B08C0C095D0958091AA0A9091AD
:1054A000AB0AC823D923D093AB0AC093AA0A8FE9C9
:1054B0009AE00E94E48A80E0CDB7DEB7E6E00C9483
:1054C0006ADDCF93DF9300D00F9284E595E0EDB7CE
:1054D000FEB7928381838BE19DE0948383830E9456
:1054E0008CC8C1E0D0E00F900F900F900F908DE22C
:1054F00095E1BE010E94E9C52196F0E1C030DF07C9
:10550000B1F78DE295E161E070E00E94DDC58DE2CA
:1055100095E163EA0E9493C68DE295E165E90E94F8
:1055200093C68DE295E160EF0E9493C68DE295E10E
:1055300060E00E9493C68DE295E16AEB0E9493C6FB
:105540008DE295E10E940BC700D00F9284E595E0B3
:10555000EDB7FEB7928381838DE09DE094838383D2
:105560000E948CC80F900F900F900F9080E0DF91F9
:10557000CF910895CF92DF92EF92FF920F931F93F6
:105580000DE215E1C8010E94F4C76C01C8010E9438
:10559000F4C77C01C8010E94F4C72DB73EB72A505A
:1055A00030400FB6F8943EBF0FBE2DBFEDB7FEB72B
:1055B000319624E535E0ADB7BEB712963C932E93F5
:1055C00011972AE33DE033832283D582C482F78298
:1055D000E682918780870E948CC82DB73EB7265FF0
:1055E0003F4F0FB6F8943EBF0FBE2DBF1F910F91D6
:1055F000FF90EF90DF90CF900895EF92FF920F937E
:105600001F9300D00F9204E515E0ADB7BEB7129618
:105610001C930E93119781E59DE014969C938E93B5
:1056200013970E948CC80F900F900F900F908DE2EF
:10563000E82E85E1F82EC7010E9483C7E82FF0E02D
:10564000EE0FFF1FE352FC4F60817181C8010E9481
:1056500040D5C7010E94F4C700D000D0EDB7FEB717
:105660003196ADB7BEB712961C930E9311972BE4EB
:105670003DE033832283958384830E948CC8EDB7F9
:10568000FEB736960FB6F894FEBF0FBEEDBF1F9162
:105690000F91FF90EF900895A4E0B0E0E2E5FBE207
:1056A0000C9442DD0DE215E1C8010E94F4C79A8313
:1056B0008983C8010E94F4C79C838B83C8010E9420
:1056C000F4C71C01C8010E94F4C72C01C8010E9444
:1056D000F4C73C01C8010E94F4C74C01C8010E94F4
:1056E000F4C75C01C8010E94F4C76C01C8010E94A4
:1056F000F4C77C01C8010E94F4C72DB73EB72851FA
:1057000030400FB6F8943EBF0FBE2DBFEDB7FEB7C9
:10571000319624E535E0ADB7BEB712963C932E9393
:10572000119726E53DE03383228329813A81358331
:105730002483AB81BC81B783A683318620865386C0
:1057400042867586648697868686B18AA08AD38AC1
:10575000C28AF58AE48A978B868B0E948CC8EDB743
:10576000FEB778960FB6F894FEBF0FBEEDBF249635
:10577000E2E10C945EDD7F928F929F92AF92BF9296
:10578000CF92DF92EF92FF920F931F930DE215E1FC
:10579000C8010E94F4C74C01C8010E9483C7782E3B
:1057A000C8010E94F4C75C01C8010E94F4C76C01E3
:1057B000C8010E94F4C77C01C8010E94F4C72DB73C
:1057C0003EB7205130400FB6F8943EBF0FBE2DBFFC
:1057D000EDB7FEB7319624E535E0ADB7BEB712960A
:1057E0003C932E93119720E83DE0338322839582EA
:1057F000848276821782B186A086D386C286F58699
:10580000E486978786870E948CC82DB73EB7205FB5
:105810003F4F0FB6F8943EBF0FBE2DBF1F910F91A3
:10582000FF90EF90DF90CF90BF90AF909F908F90C0
:105830007F900895AF92BF92CF92DF92EF92FF9246
:105840000F931F930DE215E1C8010E94F4C75C019C
:10585000C8010E94F4C76C01C8010E94F4C77C0112
:10586000C8010E94F4C72DB73EB72C5030400FB688
:10587000F8943EBF0FBE2DBFEDB7FEB7319624E5BD
:1058800035E0ADB7BEB712963C932E93119724E244
:105890003EE033832283B582A482D782C682F1861A
:1058A000E086938782870E948CC82DB73EB7245F1D
:1058B0003F4F0FB6F8943EBF0FBE2DBF1F910F9103
:1058C000FF90EF90DF90CF90BF90AF9008951F931F
:1058D0008DE295E161E070E00E940AC810E08DE27F
:1058E00095E10E9483C7113051F0113018F0123049
:1058F00099F408C010E0833A79F411E00DC08539BD
:1059000051F407C0803F39F48DE295E10E9483C7CE
:105910000AC012E001C010E08DE295E10E9444C58A
:105920000197E9F280E01F910895EF92FF920F93A3
:105930001F93CF93DF938C01C0E0D0E11FC0CE0155
:10594000800F911F62E070E00E94F2DCF62EE72EDD
:105950008DE295E10E940AC88DE295E10E94B3C7ED
:105960006F5F7F4F8F4F9F4F29F48F2D9E2D9C018E
:10597000E90104C08F2D9E2D9C018901CE01801B61
:10598000910B0297E4F6CE01CDB7DEB7E6E00C94BA
:105990006ADDA0E0B0E0EFECFCE20C944ADDE82E1A
:1059A0006B015A018DE295E161E070E00E940AC846
:1059B00010E08DE295E10E9483C7113051F0113063
:1059C00018F01230A9F508C010E0833A89F511E00B
:1059D0002FC0853961F529C0803F49F58DE295E1F9
:1059E0000E9483C7F82EC0E0D0E00E2D10E00FC05B
:1059F0008DE295E10E94F4C7F601918380838DE2E8
:105A000095E10E94F4C7F501918380832196C01728
:105A1000D10774F3EF1499F4F601808191810E940B
:105A2000952CF501918380830AC012E001C010E03B
:105A30008DE295E10E9444C5019709F4BACFCDB734
:105A4000DEB7EAE00C9466DDA4E0B0E0EAE2FDE255
:105A50000C9446DD0E94672CD82E00D00F9204E5EE
:105A600015E0ADB7BEB712961C930E93119787E958
:105A700091E114969C938E9313970E948CC8809109
:105A8000AA0A9091AB0A0F900F900F900F90009779
:105A900059F400D00F92EDB7FEB71283018382E96B
:105AA00091E19483838308C180FF14C000D00F92DA
:105AB000ADB7BEB712961C930E93119783E891E190
:105AC00014969C938E9313970E948CC80F900F90FE
:105AD0000F900F908091AA0A81FF12C000D00F9200
