:100000000C94AF0B0C94DB0B0C94DB0B0C94DB0B04
:100010000C94DB0B0C94DB0B0C94DB0B0C94DB0BC8
:100020000C94DB0B0C94DB0B0C94DB0B0C94DB0BB8
:100030000C94DB0B0C94DB0B0C94DB0B0C948B887B
:100040000C94DB0B0C94DB0B0C94DB0B0C94DB0B98
:100050000C94DB0B0C94DB0B0C94DB0B0C9494D802
:100060000C94DB0B0C94470E0C94870E0C94DB0B5A
:100070000C94DB0B0C94DB0B0C94DB0B0C94DB0B68
:100080000C94DB0B0C94DB0B0C94DB0B0C94DB0B58
:100090000C94D90E0C94190F0C94DB0B0C940AD50C
:1000A0000C94DB0B0C94EA860C94DB0B0C94DB0BAE
:1000B0000C94DB0B0C94DB0B0C94DB0B0C94DB0B28
:1000C0000C94DB0B0C94DB0B0C94DB0B0C94DB0B18
:1000D0000C94DB0B0C94DB0B0C946B0F0C94AB0FA0
:1000E0000C94DB0B8C1DAD1D241EE21D031E3D1E5A
:1000F000561E6F1E881EA61EB71E9832B9329B323E
:100100009E32A132A432A732AA32AD32B032B3321B
:10011000B632AF3EAF3ED33E423F173F5D3F783FE2
:10012000A53FE33F2A40B059AC59B959BF59DB59F3
:100130001F5A0B5A365AF759095B355B3E5B415BD8
:10014000445B8763475B8763876387634A5B4D5B79
:10015000505B705B6E5B6E5B6E5B7C5B6E5B725B61
:100160006E5B6E5B7F5B8E5B815B845B6E5B6E5BED
:100170006E5B875B6E5B6E5B6E5B6E5B6E5B8E5BFE
:100180006E5B905B618766876B87708775877A8700
:100190007F87848789878E87938717BE12BE1BBE91
:1001A0001FBE2DBE46BE70BE81BEC0BFBBBFC4BF9A
:1001B000CDBFF4BF00C01AC03BC042C0D1D9D4D912
:1001C000C7D9CBD90DDAD8D9DCD9E2D9E6D9EAD961
:1001D000F0D9F4D9F8D9FED902DA08DA036EDB36A1
:1001E0003D9A9999993DABAAAA2A3E000000803F0A
:1001F000084AD73B3BCE016E84BCBFFDC12F3D6C8E
:1002000074319ABD56833DDA3D00C77F11BED9E4F3
:10021000BB4C3E916BAAAABE000000803F072C7A1F
:10022000A5BA6CC590DA3B9365FC8BBC53F810FD06
:100230003C5692834DBD879D3AB63DCBC9BF5BBE50
:1002400073DA0FC93F05A84CCDB2D44EB93836A9E0
:10025000020C50B9918688083CA6AAAA2ABE0000C2
:1002600000803F08000000BE922449123EABAAAABB
:100270002ABECDCCCC4C3E00000080BEABAAAAAAC0
:100280003E00000000BF000000803F0000000000B2
:10029000084178D3BB4387D1133D190E3CC3BD42FF
:1002A00082AD2B3E68EC8276BED98FE1A93E4C80B0
:1002B000EFFFBE01C4FF7F3F00000000004C6F67EE
:1002C0000064756D7000000000000000000000CCAC
:1002D00032657261736500000000000000000026B6
:1002E0002B656E61626C6500000000000000007309
:1002F0002A64697361626C6500000000000000738D
:100300002A68656C70000000000000000000009882
:1003100014706C616E6E657200676373000000009C
:1003200000000000000000296573657475700065A9
:10033000726173650000000000000000006F2A7207
:1003400065736574000000000000000000FE297263
:100350006164696F000000000000000000EA286688
:1003600072616D6500000000000000000037286D1C
:100370006F746F727300000000000000005C26655F
:10038000736300000000000000000000002E266CD7
:100390006576656C000000000000000000DE286D3E
:1003A0006F64657300000000000000000005276214
:1003B00061747465727900000000000000FB27730F
:1003C0006F6E6172000000000000000000C527632E
:1003D0006F6D70617373000000000000007D287471
:1003E000756E650000000000000000000022266419
:1003F00065636C696E6174696F6E0000000D267331
:10040000686F7700000000000000000000EB25414D
:10041000726475436F7074657220322E302E3431E1
:100420002042657461006C6F67730000000000007B
:10043000000000002C25736574757000000000003A
:1004400000000000DD2474657374000000000000EB
:1004500000000000D72468656C70000000000000F8
:10046000000000009D13706C616E6E6572000000EC
:1004700000000000BF24746573740070776D000085
:10048000000000000000000000261A726164696F1D
:10049000000000000000000000BA196661696C737A
:1004A000616665000000000000ED106770730000D9
:1004B0000000000000000000003A246164630000B6
:1004C000000000000000000000CC23696D750000F2
:1004D00000000000000000000027226261747465C3
:1004E000727900000000000000FD1274756E650056
:1004F000000000000000000000D81E7472690000B7
:10050000000000000000000000001D6375727265AD
:100510006E7400000000000000771C72656C617949
:10052000000000000000000000A312776179706FE6
:10053000696E747300000000000F18616C746974B8
:10054000756465000000000000FD16736F6E617237
:10055000000000000000000000D815636F6D70619E
:1005600073730000000000000020157862656500CC
:100570000000000000000000004712656564756D12
:10058000700000000000000000BF14726177677007
:100590007300000000000000000812486974204544
:1005A0006E74657220746F20657869742E0A0A0073
:1005B000202530327800253034783A00426567696A
:1005C0006E205842656520582D4354552052616E67
:1005D000676520616E6420525353492054657374DB
:1005E0003A0A00436F6D706173733A200048656189
:1005F00064696E673A20256C642C2058595A3A2059
:1006000025642C2025642C2025640A0061626C6519
:10061000640A0064697300656E00536F6E61723A1C
:1006200020256420636D0A00536F6E617220646937
:100630007361626C65640A004261726F3A202564DE
:10064000636D0A00486974207261643A2025640A67
:100650000025642077700A006F662025646D0A000B
:100660000A00486F6C6420616C742000636F6D6DCC
:10067000616E6420233A2025642069643A25642051
:100680006F703A25642070313A25642070323A2523
:100690006C642070333A256C642070343A256C64A5
:1006A000200A0052656C6179206F66660A00526507
:1006B0006C6179206F6E0A00563A2025342E34661C
:1006C0002C20413A2025342E34662C206D41683A86
:1006D0002025342E34660A00696E7075743A202520
:1006E00064096F757470757425640A0074756E659D
:1006F0003A2025312E33660A004E6F7420656E61F4
:10070000626C65640A0063703A2025312E32662CD3
:100710002073703A2025312E32662C2063723A20E5
:1007200025312E32662C2073723A2025312E326606
:100730002C2063793A2025312E32662C2073793AA9
:100740002025312E32662C0A00256C642C20256C65
:10075000642C20256C640A00494D550A00477972C3
:100760006F206F6666736574733A2025342E326687
:100770002C2025342E32662C2025342E32660A0099
:10078000416363656C206F6666736574733A2025F8
:10079000342E32662C2025342E32662C2025342E21
:1007A00032660A0025642C004144430A004C6174FF
:1007B0003A20256C642C204C6F6E20256C642C2014
:1007C000416C743A20256C646D2C20237361747322
:1007D0003A2025640A00494E2020313A2025640938
:1007E000323A20256409333A20256409343A202519
:1007F0006409353A20256409363A20256409373AD8
:100800002025640A00494E3A20313A2025640932F5
:100810003A20256409333A20256409343A202564B6
:1008200009353A20256409363A20256409373A20EB
:10083000256409383A2025640A00506C616E6E65A3
:1008400072204D6F64650A4E6F7420696E74656E18
:1008500064656420666F72206D616E75616C2075D1
:1008600073650A0A00436F6D6D616E64733A0A2006
:10087000206C6F67730A202073657475700A2020DE
:10088000746573740A2020706C616E6E65720A0A5A
:100890004D6F76652074686520736C69646520739C
:1008A000776974636820616E642072657365742073
:1008B000746F20464C592E0A0A000A20547970653C
:1008C0002027726164696F2720746F20636F6E66E2
:1008D0006967757265206E6F772E0A0A000A2157C4
:1008E00061726E696E672C20796F75722072616417
:1008F000696F206973206E6F7420636F6E6669671D
:100900007572656421005365747570204D6F646560
:100910000A0A0A0046572056657273696F6E2025D1
:10092000640A00526164696F0A004348373A20251F
:1009300064207C2025640A004348363A2025642040
:100940007C2025640A004348353A202564207C2019
:1009500025640A004348343A202564207C2025641D
:100960000A004348333A202564207C2025640A008D
:100970004348323A202564207C2025640A004348FD
:10098000313A202564207C2025640A0056206D6FB2
:1009900064650A002B206D6F64650A0058206D6F36
:1009A00064650A005936206672616D650A004672F8
:1009B000616D650A00766F6C747320616E642063EC
:1009C0007572006261747420766F6C7473003420E9
:1009D00063656C6C7300332063656C6C73000A4252
:1009E000617474204D6F696E746F720A00536F6E7C
:1009F00061720A00466C69676874206D6F64657384
:100A00000A00506F732025643A20004D6167206F03
:100A10006666736574733A2025342E34662C20255F
:100A2000342E34662C2025342E3466004D61672028
:100A30004465633A2025342E34660A00436F6D7096
:100A40006173730A002025640A000A54554E453A22
:100A50000A000A4F7074696F6E733A5B6F6E2C6F89
:100A600066665D0A006F6666006F6E000A4F7074FE
:100A7000696F6E733A5B6F6E2C206F66665D0A005D
:100A80006F6666006F6E000A4F7074696F6E733A1E
:100A9000206F66662C20312D34006F6666000A4D8B
:100AA0006F766520524320746F67676C652073779B
:100AB0006974636820746F206561636820706F7368
:100AC0006974696F6E20746F20656469742C206D81
:100AD0006F76652061696C65726F6E2073746963EF
:100AE0006B20746F2073656C656374206D6F646533
:100AF000732E000A53617665642053657474696EC1
:100B000067730A0A000A4553432043616C696272A5
:100B10006174696F6E3A0A2D3120556E706C75677D
:100B20002055534220616E6420626174746572794D
:100B30000A2D32204D6F766520434C492F464C5983
:100B40002073776974636820746F20464C59206D58
:100B50006F64650A2D33204D6F7665207468726F5F
:100B600074746C6520746F206D61782C20636F6ED7
:100B70006E65637420626174746572790A2D342025
:100B800041667465722074776F206C6F6E672062A7
:100B9000656570732C207468726F74746C65207452
:100BA0006F20302C207468656E20746573740A0A97
:100BB00020507265737320456E74657220746F20C7
:100BC00063616E63656C2E0A000A4F7074696F6E04
:100BD000733A5B782C2B2C765D0A0076002B007024
:100BE0000078000A4D6F766520616C6C20636F6E33
:100BF00074726F6C7320746F206561636820657810
:100C00007472656D652E2048697420456E74657236
:100C100020746F20736176653A20000A4641435480
:100C20004F525920524553455420636F6D706C6587
:100C30007465202D207265626F6F742041504D00E5
:100C40000A275927202B20456E74657220746F2067
:100C5000666163746F72792072657365742C2061AC
:100C60006E79206F74686572206B657920746F20CF
:100C700061626F72743A0A00646F6E650A000A4519
:100C8000726173696E6720454550524F4D0A000AE4
:100C9000436F6D6D616E64733A0A202064756D70E8
:100CA000203C6E3E202065726173652028616C6C6B
:100CB000206C6F6773290A2020656E61626C652065
:100CC0003C6E616D653E207C20616C6C0A20206466
:100CD000697361626C65203C6E616D653E207C20AD
:100CE000616C6C0A0A00656E61626C65004F50545D
:100CF000464C4F57004D4F544F52530043555200EE
:100D0000434D4400524157004D4F4445004E545509
:100D10004E004354554E00504D004750530041542F
:100D20005449545544455F4D454400415454495439
:100D30005544455F4641535400616C6C006D6973C6
:100D400073696E67206C6F6720747970650A000A9A
:100D50004C6F67206572617365642E0A000A4572E4
:100D60006173696E67206C6F672E2E2E0A006261B8
:100D700064206C6F6720232025640A004154542CA2
:100D80002025642C2025642C2025750A002C202584
:100D9000640A004D4F443A004354554E2C202564BC
:100DA0002C2025642C2025642C2025642C202564EF
:100DB0002C2025642C2025642C2025642C202564DF
:100DC0000A004E54554E2C2025642C2025642C20DE
:100DD00025642C2025642C2025642C2025640A0001
:100DE000504D2C20256C642C2025642C2025642C4F
:100DF0002025642C2025642C2025642C2025642C9F
:100E00002025642C2025642C20256C640A00524186
:100E1000572C00434D442C2025642C2025642C2085
:100E200025642C2025642C2025642C20256C642C22
:100E300020256C642C20256C640A00435552523ADC
:100E40002025642C20256C642C2025342E34662C1F
:100E50002025342E34662C2025640A005354415238
:100E6000542055500A004D4F543A2025642C20251B
:100E7000642C2025642C2025640A004F462C202554
:100E8000642C2025642C2025642C2025342E3766E4
:100E90002C2025342E37660A004750532C20256C11
:100EA000642C2025642C2025642C2025342E3766C4
:100EB0002C2025342E37662C2025342E34662C2009
:100EC00025342E34662C2025642C2025750A0058E4
:100ED000545241434B5F005448525F484F4C445F6B
:100EE000004E41565F4C4F4E5F004E41565F4C41A5
:100EF000545F00484C445F4C4F4E5F00484C445F89
:100F00004C41545F005354425F5941575F00535462
:100F1000425F5049545F005354425F524C4C5F0053
:100F2000524154455F5941575F00524154455F500B
:100F300049545F00524154455F524C4C5F0052434C
:100F40005F43525F0052435F43505F005243385F3C
:100F5000005243375F005243365F005243355F0013
:100F60005243345F005243335F005243325F0052BA
:100F700043315F00494E5F564F4C5400464C4F572B
:100F80005F454E41424C450054425F524154494FE7
:100F9000004652414D450054554E450045534300CF
:100FA0004D41475F454E41424C4500424154545FDC
:100FB000434150414349545900424154545F4D4FBD
:100FC0004E49544F5200534F4E41525F454E41429D
:100FD0004C4500414C545F484F4C445F52544C00C8
:100FE0004C4F475F4249544D41534B005049544385
:100FF000485F4D415800464C544D4F4445360046DD
:101000004C544D4F44453500464C544D4F444534A7
:1010100000464C544D4F44453300464C544D4F44CC
:10102000453200464C544D4F444531005452494DD1
:101030005F5448524F54544C45005448525F4653F5
:101040005F56414C5545005448525F46535F4143FB
:1010500054494F4E005448525F4641494C53414613
:1010600045005448525F4D4158005448525F4D4925
:101070004E0057505F53504545445F4D415800570F
:10108000505F4C4F495445525F5241440057505FA6
:101090005241444955530057505F4D5553545F4991
:1010A0004E4445580057505F494E444558005750EC
:1010B0005F544F54414C0057505F4D4F44450058CA
:1010C00054524B5F414E474C455F43440053455299
:1010D00049414C335F424155440053595349445FA1
:1010E0004D594743530053595349445F544849535A
:1010F0004D41560053595349445F53575F5459501B
:10110000450053595349445F53575F4D524556006C
:10111000524556004D4158005452494D004D494EDC
:1011200000494D41580049005000494D555F534515
:101130004E534F525F43414C004C6F672023202594
:10114000642C2020202073746172742025642C206C
:101150002020656E642025640A000A2564206C6FD7
:1011600067730A000A4E6F206C6F67730A547970B8
:1011700065202764756D702030272E0A0A00204FE5
:101180005054464C4F5700204D4F544F525300205F
:1011900043555252454E540020434D440020524185
:1011A0005700204E54554E00204354554E002050B9
:1011B0004D00204750530020415454495455444554
:1011C0005F4D4544002041545449545544455F46C1
:1011D000415354006E6F6E65006C6F677320656ECF
:1011E00061626C65643A2000666C6967687420709F
:1011F0006C616E2072656365697665640061637415
:10120000696F6E2072656365697665643A20006572
:1012100072726F723A206E6F6E2D4E617620636D22
:1012200064006F7574206F6620636F6D6D616E640E
:10123000732100776179706F696E742072656365E0
:101240006976652074696D656F7574007761797072
:101250006F696E742073656E642074696D656F7557
:10126000740045585452413300455854524132009D
:1012700045585452413100504F534954494F4E0044
:101280005241575F4354524C0052435F4348414ED2
:10129000004558545F53544154005241575F5345E1
:1012A0004E53005352335F005352305F005265611A
:1012B0006368656420686F6D650047524F554E4402
:1012C000205354415254000A456E746572696E672A
:1012D00020696E74657261637469766520736574E4
:1012E0007570206D6F64652E2E2E0A0A5479706514
:1012F000202768656C702720746F206C69737420D8
:10130000636F6D6D616E64732C2027657869742737
:1013100020746F206C656176652061207375626D45
:10132000656E752E0A566973697420746865202786
:10133000736574757027206D656E7520666F7220F9
:1013400066697273742D74696D6520636F6E66696A
:101350006775726174696F6E2E0A0A00506C656160
:1013600073652052756E2053657475702E2E2E0A8B
:10137000004669726D77617265206368616E6765AA
:101380003A2065726173696E6720454550524F4D32
:101390002E2E2E0A000A0A496E69742041434D0A16
:1013A0000A52414D3A20256C750A00496E76616CEF
:1013B00069642053455249414C335F4241554400D2
:1013C0004C6F67732066756C6C000A4750530A00B7
:1013D000253033753A25733A20006E6F7420666F9E
:1013E000756E6400253033753A252D33322E333235
:1013F000733A2000756E6B6E6F776E20747970652E
:10140000006E6F7420666F756E640025733A20005D
:101410006D697373696E67206E616D65206F7220F0
:1014200076616C7565003F3F0025640025640025EA
:101430006C6400256600256600657869740068653F
:101440006C700044454300434F4D504153535F007F
:10145000245047434D442C31362C302C302C302C2A
:10146000302C302A36410D0A0024505542582C3475
:10147000312C312C303030332C303030312C33386B
:101480003430302C302A323600245053524631301A
:10149000302C302C33383430302C382C312C302A4E
:1014A00033430020536952462000204D544B312EC7
:1014B0003620002075626C6F782000204D544B312F
:1014C0002E3420006661696C65642C20726574722C
:1014D00079696E67004F4B0020002A00496E6974DD
:1014E00020416363656C002A00496E697420477966
:1014F000726F006E616E00696E660000407A10F3D4
:101500005A00A0724E18090010A5D4E80000E87631
:1015100048170000E40B54020000CA9A3B00000088
:10152000E1F505000080969800000040420F0000A1
:1015300000A08601000000102700000000E8030062
:101540000000006400000000000A0000000000012C
:1015500000000000002C76D888DC674F0823DFC12C
:10156000DFAE59E1B1B796E5E3E453C63AE65199E7
:101570007696E8E6C28426EB898C9B62ED407C6F10
:10158000FCEFBC9C9F40F2BAA56FA5F490055A2AC7
:10159000F75C936B6CF9676DC11BFCE0E40D47FED3
:1015A000F520E6B500D0ED902E03009435770500C8
:1015B00080841E080000204E0A000000C80C33334F
:1015C00033330F986E12831141EF8D2114893BE65E
:1015D0005516CFFEE6DB18D1844B381BF77C1D90E7
:1015E0001DA4BBE424203284725E228100C9F12450
:1015F000ECA1E53D2700002100240027002A002D52
:10160000003000330001010000040107010A01005D
:10161000002200250028002B002E0031003400029B
:10162000010000050108010B010000200023002635
:101630000029002C002F00320000010000030106E9
:101640000109010505050507050808080802020249
:10165000020A0A080804040404010101010101014D
:10166000010303030303030303040707070C0C0C24
:101670000C0C0C0C0C0202020206060606060606FC
:10168000060B0B0B0B0B0B0B0B0102102020080899
:1016900010204010204080020102010804020101D4
:1016A00002040810204080804020100804020180BD
:1016B0000402018040201008040201080402010114
:1016C000020408102040800102040810204080001D
:1016D00000090A02080B0C0D0706030401000000B4
:1016E00000000000000000000000000000000000FA
:1016F0000000000000000000000000100F0E0000BD
:1017000000000000000000000000000000000000D9
:101710000000000000494E46494E4954594E414E82
:10172000CDCCCC3D0AD7233C17B7D13877CC2B3260
:101730009595E6241FB14F0A000020410000C842E1
:1017400000401C4620BCBE4CCA1B0E5AAEC59D7440
:101750002C3E1A889D90D0C60ED4253E969011241A
:101760001FBECFEFD1E2DEBFCDBF00E00CBF15E062
:10177000A0E0B2E0E2EAFAEC01E00BBF02C00790A1
:101780000D92A435B107D9F716E1A4E5B5E001C083
:101790001D92A634B107E1F717E1CAE5D7E104C00D
:1017A0002297FE010E9400DFC035D107C9F70E94D1
:1017B00089D60C9444E50C940000283008F027E00A
:1017C0003327DA01990F311D87FD9160009661057D
:1017D000710539F432602E5F3D9330E32A95E1F7CD
:1017E00008959F3F30F080387105610509F03C5F36
:1017F0003C5F3D93913008F08068911DDF93CF935B
:101800001F930F93FF92EF92192F987F9695E92FD0
:1018100096959695E90FFF27EB5AFA4E99273327AD
:10182000EE24FF24A701E70105900894079428F40B
:10183000360FE71EF81E491F511D660F771F881FC0
:10184000991F0694A1F70590079428F4E70EF81E57
:10185000491F561FC11D770F881F991F661F0694C9
:10186000A1F70590079428F4F80E491F561FC71FCB
:10187000D11D880F991F661F771F0694A1F7059049
:10188000079420F4490F561FC71FD81F990F661FD2
:10189000771F881F0694A9F784911095177041F05F
:1018A000D695C79557954795F794E7941A95C1F73C
:1018B000EBEFF4E168941590159135916591959150
:1018C00005907FE27395E118F10A430B560BC90BA3
:1018D000D009C0F7E10CF11E431F561FC91FD01DD0
:1018E0007EF4703311F48A95E6CFE894015030F01D
:1018F000080F0AF40027021708F4202F2395022F5F
:101900007A3328F079E37D932A95E9F710C07D9327
:101910002A9589F6069497956795379517951794A4
:10192000E118F10A430B560BC90BD00998F0239527
:101930007E9173957A3308F070E37C932013B8F7A7
:101940007E9170617D9330F0839571E37D9370E3B8
:101950002A95E1F71124EF90FF900F911F91CF91FD
:10196000DF91992787FD90950895FA01AA272830DD
:1019700051F1203181F1E8946F936E7F6E5F7F4F5C
:101980008F4F9F4FAF4FB1E03ED0B4E03CD0670FD8
:10199000781F891F9A1FA11D680F791F8A1F911D2B
:1019A000A11D6A0F711D811D911DA11D20D009F47B
:1019B00068943F912AE0269F11243019305D3193BD
:1019C000DEF6CF010895462F4770405D4193B3E0A6
:1019D0000FD0C9F7F6CF462F4F70405D4A3318F04D
:1019E000495D31FD4052419302D0A9F7EACFB4E0FE
:1019F000A6959795879577956795BA95C9F70097B6
:101A00006105710508959B01AC010A2E0694579556
:101A1000479537952795BA95C9F7620F731F841FAD
:101A2000951FA01D0895CF93DF93FC01EB01423079
:101A3000510570F0638574858585968520E030E0DA
:101A400040E854E40E947DDD0E94C5DB7983688311
:101A500082E090E0DF91CF910895CF93DF93EC0186
:101A6000FB014230510518F420E030E012C06081E3
:101A7000718180E090E00E94F1DB20E030E040E8FE
:101A80005AE30E947DDD6B877C878D879E8722E0ED
:101A900030E0C901DF91CF910895FB019081982733
:101AA000292F2295207F292730E0522F4427C90172
:101AB00063E0880F991F6A95E1F7482759278181CC
:101AC00090E04827592784E0359527958A95E1F7D6
:101AD00042275327518340830895A0E0B0E0E3E715
:101AE000FDE00C94D1DE8C016B017A01C0E0D0E006
:101AF0001CC0F601EC0FFD1F60810115110521F0DE
:101B00000130110589F405C0E0917E15F0917F1533
:101B100004C0E0918015F0918115A081B1812D91D3
:101B20003C91CF01F90119952196CE15DF0508F3F7
:101B3000CDB7DEB7E8E00C94EDDEACE0B0E0E3EA70
:101B4000FDE00C94CCDEB82E992E842E752EA22E9C
:101B5000282F30E085E58F83A886F901EE0FFF1F5F
:101B6000E20FF31FEE0FFF1FEE0FFF1FEE54FE4EAE
:101B7000978199878091D6038A878091D7038B8735
:101B80006C879F5F97838FEF9FEF9E838D838E017E
:101B9000085F1F4FFDE0CF2ED12CCC0EDD1EE5E0FF
:101BA000EE2EF12CEC0EFD1E06C0F80181918F0186
:101BB000B7010E944D0D0C151D05B9F78D819E8151
:101BC0009A838983282D372DC9017C011A2D6E0136
:101BD0000894C11CD11C07C0F70181917F01B60197
:101BE0000E944D0D11501123B9F789819A818B8381
:101BF0009C838B2D992DBE01695F7F4F46E050E09D
:101C00000E946D0D8B2D992D682D772D4A2D50E05A
:101C10000E946D0D8B2D992DBE016D5F7F4F42E0AF
:101C200050E00E946D0D2C96EDE00C94E8DEDC0196
:101C3000FB0183818C93828111968C931197818112
:101C400012968C931297808113968C930895DC01E1
:101C5000FB0187818C93868111968C9311978581E6
:101C600012968C931297848113968C931397838189
:101C700014968C931497828115968C931597818175
:101C800016968C931697808117968C9308951F92C1
:101C90000F920FB60F920BB60F9211242F933F9312
:101CA0004F938F939F93EF93FF934091C6002091A2
:101CB0003E1530913F152F5F3F4F80914215909117
:101CC00043152823392380914015909141152817F9
:101CD000390779F080913E1590913F15E0914415B8
:101CE000F0914515E80FF91F408330933F1520937D
:101CF0003E15FF91EF919F918F914F913F912F91C1
:101D00000F900BBE0F900FBE0F901F9018951F9253
:101D10000F920FB60F920BB60F9211242F933F9391
:101D20008F939F93EF93FF932091601530916115EE
:101D300080915E1590915F1528173907E9F0809121
:101D4000601590916115E0916415F0916515E80FAB
:101D5000F91F80818093C600809160159091611574
:101D600001962091621530916315822393239093FD
:101D700061158093601510C020915E1530915F153C
:101D800080916015909161152817390729F4809189
:101D9000C1008F7D8093C100FF91EF919F918F9142
:101DA0003F912F910F900BBE0F900FBE0F901F9081
:101DB00018951F920F920FB60F920BB60F92112427
:101DC0002F933F934F938F939F93EF93FF93409164
:101DD000CE0020914615309147152F5F3F4F8091DF
:101DE0004A1590914B1528233923809148159091DD
:101DF00049152817390779F08091461590914715B4
:101E0000E0914C15F0914D15E80FF91F4083309388
:101E1000471520934615FF91EF919F918F914F9118
:101E20003F912F910F900BBE0F900FBE0F901F9000
:101E300018951F920F920FB60F920BB60F921124A6
:101E40002F933F938F939F93EF93FF932091681568
:101E5000309169158091661590916715281739079B
:101E6000E9F08091681590916915E0916C15F091F9
:101E70006D15E80FF91F80818093CE008091681561
:101E800090916915019620916A1530916B15822306
:101E90009323909369158093681510C0209166155F
:101EA0003091671580916815909169152817390749
:101EB00029F48091C9008F7D8093C900FF91EF9133
:101EC0009F918F913F912F910F900BBE0F900FBE5E
:101ED0000F901F9018951F920F920FB60F920BB68E
:101EE0000F9211242F933F934F938F939F93EF93D0
:101EF000FF934091360120915615309157152F5F71
:101F00003F4F80915A1590915B152823392380917A
:101F10005815909159152817390779F08091561561
:101F200090915715E0915C15F0915D15E80FF91F40
:101F300040833093571520935615FF91EF919F9151
:101F40008F914F913F912F910F900BBE0F900FBE2D
:101F50000F901F9018951F920F920FB60F920BB60D
:101F60000F9211242F933F938F939F93EF93FF939F
:101F7000209178153091791580917615909177158B
:101F800028173907E9F08091781590917915E0913B
:101F90007C15F0917D15E80FF91F80818093360143
:101FA0008091781590917915019620917A1530914C
:101FB0007B1582239323909379158093781510C015
:101FC000209176153091771580917815909179153B
:101FD0002817390729F4809131018F7D80933101D1
:101FE000FF91EF919F918F913F912F910F900BBE99
:101FF0000F900FBE0F901F901895FC0171836083A6
:1020000085E06435780739F470937F1560937E1509
:102010001386128608C0709381156093801581E045
:1020200090E0938782871382128208952091930C07
:102030003091940CC9018F5C94408238910510F462
:1020400081E00895C901815595408238910510F4C9
:1020500082E00895C901835D95408238910510F4AE
:1020600083E00895C901855596408138910510F4A3
:1020700084E00895265D364014F480E0089585E0FC
:102080000895A4E0B0E0E7E4F0E10C94C7DE6091CD
:1020900008147091091480910A1490910B140E94F5
:1020A000F3DB3B014C0180919C1190919D11A0911B
:1020B0009E11B0919F1189839A83AB83BC836091F9
:1020C00004147091051480910614909107140E94D5
:1020D000F3DB1B012C01A0909603B0909703C090F6
:1020E0009803D0909903C401B30129813A814B81AF
:1020F0005C810E947DDD7B018C01C201B101A601E2
:1021000095010E947DDD9B01AC01C801B7010E94D1
:1021100073DA0E94C0DB6093C9127093CA12809375
:10212000CB129093CC12C401B301A60195010E9479
:102130007DDD7B018C01C201B10129813A814B8196
:102140005C810E947DDD9B01AC01C801B7010E944A
:1021500074DA0E94C0DB90958095709561957F4FF1
:102160008F4F9F4F6093CD127093CE128093CF12FA
:102170009093D0122496E2E10C94E3DE2091430B7D
:102180003091440B8091670B9091680B281B390BA1
:10219000253631051CF08AE08093A1112C593F4F60
:1021A0001CF486EF8093A1118091A11118161CF4E4
:1021B00081508093A1118091A11187FF03C08F5F8F
:1021C0008093A1118091A111813021F08F3F11F0F6
:1021D00080E00895811181E0089580E00895FC0178
:1021E000DB01452B11F083858C9381E090E008950D
:1021F000DC01FB01452B19F080811B968C9381E05B
:1022000090E00895FC016385772767FD7095872F1F
:10221000972F0E94F3DB0895FC01DB01423051054A
:1022200020F0838594858D939C9382E090E00895BF
:10223000DC01FB014230510530F0808191811C9618
:102240009C938E931B9782E090E00895FC01638538
:102250007485882777FD8095982F0E94F3DB089579
:10226000FC012385348545855685B901CA01089549
:10227000CF93DF93FC01EB014430510540F083859F
:102280009485A585B68588839983AA83BB8384E0DA
:1022900090E0DF91CF910895CF93DF93EC01FB01A4
:1022A0004430510540F080819181A281B3818B87B8
:1022B0009C87AD87BE8784E090E0DF91CF91089541
:1022C000E0913911F0913A1187A990AD81309105D3
:1022D00039F00297F9F483E261E00E940EDA089582
:1022E00081A58823D9F090E08091A011882309F47A
:1022F00091E09093A011992319F083E260E002C06D
:1023000083E261E00E940EDAE0913911F0913A1116
:1023100011A6089583E260E00E940EDA089585E236
:1023200060E00E940EDA84E260E00E940EDA83E24E
:1023300060E00E940EDA1092F1131092721208956A
:10234000809119148F5F809319148150833011F498
:102350001092191480911914813059F0813018F0BD
:102360008230C1F40FC083E260E00E940EDA85E2A1
:1023700005C085E260E00E940EDA84E261E00E941E
:102380000EDA089584E260E00E940EDA83E261E0F2
:102390000E940EDA089580911A14882379F084E45B
:1023A00061E00E940EDA82E461E00E940EDA80E4CD
:1023B00060E00E940EDA8EE360E00EC084E460E02C
:1023C0000E940EDA82E460E00E940EDA80E461E0AE
:1023D0000E940EDA8EE361E00E940EDA80911A14F8
:1023E00091E0892780931A14089500D00F9284E514
:1023F00095E0EDB7FEB7928381838BE995E09483F6
:1024000083830E9411CA0F900F900F900F90089530
:102410000E94F51168EE73E080E090E00E9410D910
:1024200088E795E00E9488CA892B89F084E261E000
:102430000E940EDA88E795E00E94B8CA682F86E607
:1024400095E00E9419CB84E260E00E940EDA86E6F5
:1024500095E00E9488CA892B89F083E261E00E949E
:102460000EDA86E695E00E94B8CA682F88E795E004
:102470000E9419CB83E260E00E940EDA84E595E0C9
:102480000E9488CA181619065CF680E008950E941A
:10249000F51168EE73E080E090E00E9410D900D062
:1024A0000F9284E595E0EDB7FEB7928381838CEBC4
:1024B00095E0948383830E9411CA0F900F900F9030
:1024C0000F9088E795E00E9488CA892B49F088E739
:1024D00095E00E94B8CA682F88E795E00E9419CB62
:1024E00084E595E00E9488CA1816190654F780E022
:1024F000089524E535E0882349F000D00F92EDB728
:10250000FEB73283218387E196E008C000D00F92A6
:10251000EDB7FEB73283218383E196E09483838312
:102520000E9411CA84E595E0EDB7FEB792838183DE
:102530008CE096E0948383830E9411CA0F900F90E1
:102540000F900F900895EF92FF920F931F93CF93E8
:10255000DF930E94F51168EE73E080E090E00E9446
:1025600010D91EEAE12E16E0F12E03EA16E0C4E5CA
:10257000D5E000D00F92EDB7FEB7D283C183F482CD
:10258000E3820E9411CA80910B01846080930B0149
:102590000F900F900F900F9068EB7BE080E090E041
:1025A0000E9410D9CE010E9488CA18161906FCF0A4
:1025B00000D00F92EDB7FEB7D283C183148303839B
:1025C0000E9411CA80910B018B7F80930B010F90A9
:1025D0000F900F900F9068EB7BE080E090E00E94FE
:1025E00010D9CE010E9488CA1816190614F680E088
:1025F000CDB7DEB7E6E00C94EFDE00D00F9284E5B5
:1026000095E0EDB7FEB79283818389EF96E09483DE
:1026100083830E9411CA0F900F900F900F9080E05B
:1026200008958DB79EB740970FB6F8949EBF0FBE22
:102630008DBFEDB7FEB7319684E595E0ADB7BEB777
:1026400012969C938E9311978DE597E093838283E6
:102650008091B1079091B207A091B307B091B407F0
:1026600084839583A683B7838091B5079091B6073D
:10267000A091B707B091B80780879187A287B387E9
:102680008091B9079091BA07A091BB07B091BC07A0
:1026900084879587A687B7870E9411CA8DB79EB792
:1026A00040960FB6F8949EBF0FBE8DBF08958DB7AC
:1026B0009EB740970FB6F8949EBF0FBE8DBFEDB783
:1026C000FEB7319684E595E0ADB7BEB712969C9300
:1026D0008E93119780E897E0938382838091BD0762
:1026E0009091BE07A091BF07B091C00784839583E6
:1026F000A683B7838091C1079091C207A091C307B9
:10270000B091C40780879187A287B3878091C5075E
:102710009091C607A091C707B091C8078487958795
:10272000A687B7870E9411CA8DB79EB740960FB68D
:10273000F8949EBF0FBE8DBF089500D00F9284E520
:1027400095E0EDB7FEB79283818385E698E09483A8
:1027500083830E9411CA0F900F900F900F9080E01A
:1027600008950F931F938DB79EB708970FB6F894EF
:102770009EBF0FBE8DBFEDB7FEB7319604E515E0E5
:10278000ADB7BEB712961C930E9311978EE799E0E2
:102790009383828380915A0B90915B0B9583848302
:1027A0008091740B9091750B978386830E9411CA58
:1027B000EDB7FEB73196ADB7BEB712961C930E9328
:1027C000119780E799E0938382838091AE0B90917B
:1027D000AF0B958384838091C80B9091C90B97832D
:1027E00086830E9411CAEDB7FEB73196ADB7BEB76A
:1027F00012961C930E93119782E699E0938382833D
:102800008091020C9091030C9583848380911C0C21
:1028100090911D0C978386830E9411CAEDB7FEB775
:102820003196ADB7BEB712961C930E93119784E5FF
:1028300099E0938382838091560C9091570C9583F5
:1028400084838091700C9091710C978386830E9491
:1028500011CAEDB7FEB73196ADB7BEB712961C934D
:102860000E93119786E499E0938382838091AA0C5A
:102870009091AB0C958384838091C40C9091C50C8E
:10288000978386830E9411CAEDB7FEB73196ADB724
:10289000BEB712961C930E93119788E399E0938329
:1028A00082838091FE0C9091FF0C958384838091AC
:1028B000180D9091190D978386830E9411CAEDB768
:1028C000FEB73196ADB7BEB712961C930E93119713
:1028D0008AE299E0938382838091520D9091530D07
:1028E0009583848380916C0D90916D0D9783868381
:1028F0000E9411CA8DB79EB708960FB6F8949EBF76
:102900000FBE8DBF1F910F91089500D00F9284E5E7
:1029100095E0EDB7FEB79283818383EF9AE09483CD
:1029200083830E9411CA0F900F900F900F9008950B
:1029300000D00F9284E595E0EDB7FEB792838183D6
:102940008FE89CE0948383830E9411CA0F900F90BC
:102950000F900F9080E0089500D00F9284E595E0ED
:10296000EDB7FEB7928381838CE59EE094838383E9
:102970000E9411CA0F900F900F900F900895A0E041
:10298000B0E0E5ECF4E10C94CFDE26EBA22E25E0DE
:10299000B22E90EBC92E95E0D92E00E010E084E530
:1029A000E82E85E0F82E00D000D0EDB7FEB73196C6
:1029B000ADB7BEB71296FC92EE921197B382A28287
:1029C000158304830E9411CAC0E0D0E08DB79EB782
:1029D00006960FB6F8949EBF0FBE8DBFCE01800F36
:1029E000911F0E945CE300D000D0EDB7FEB7319696
:1029F000ADB7BEB71296FC92EE921197D382C28207
:102A0000848315820E9411CA21968DB79EB70696BF
:102A10000FB6F8949EBF0FBE8DBFC031D105F1F641
:102A2000C7010E9495D7005F1F4F90E10030190742
:102A300009F0B9CF80E0CDB7DEB7EAE00C94EBDE69
:102A4000A4E2B0E0E6E2F5E10C94CFDE8091E90A81
:102A5000882309F493C00E94F5114DEEA42E45E0A1
:102A6000B42E6E010894C11CD11C34E5E32E35E070
:102A7000F32E64E670E080E090E00E9410D98CEEC6
:102A800095E00E941E96D601EAEFF7E084E20190FD
:102A90000D928150E1F78CEE95E0B6010E94F9A20B
:102AA0008CEE95E00E94DE9A6091F6057091F70534
:102AB0008091F8059091F90521EE3EE245E652E459
:102AC0000E947DDD20E030E048EC52E40E947DDD94
:102AD0000E94C0DB613A2CE8720720E0820720E008
:102AE00092072CF0605A7C488040904006C097FFC7
:102AF00004C0605673478F4F9F4FEDB7FEB73E97A8
:102B00000FB6F894FEBF0FBEEDBF0DB71EB70F5F37
:102B10001F4FF282E182F801B382A28224E630E004
:102B200040E050E00E94ACDEF80124833583468308
:102B300057838091F0059091F1059187808780916E
:102B4000F2059091F305938782878091F405909127
:102B5000F505958784870E9411CA2DB73EB7225F7D
:102B60003F4F0FB6F8943EBF0FBE2DBFC7010E9466
:102B700088CA181619060CF07CCF15C000D00F9229
:102B800084E595E0EDB7FEB79283818383EE95E00F
:102B9000948383830E9411CA0F900F900F900F901F
:102BA00080E00E94791280E0A496EAE00C94EBDECB
:102BB0000F931F93CF93DF938091C40A8823B9F4B6
:102BC00000D00F9284E595E0ADB7BEB712969C9306
:102BD0008E93119788E296E014969C938E931397A8
:102BE0000E9411CA0F900F900F900F902FC00E945B
:102BF000F5110AE116E0C4E5D5E064E670E080E096
:102C000090E00E9410D98AE399E00E9485C600D026
:102C100000D0EDB7FEB73196ADB7BEB71296DC93D4
:102C2000CE93119713830283958384830E9411CAE4
:102C3000EDB7FEB736960FB6F894FEBF0FBEEDBFE8
:102C4000CE010E9488CA18161906BCF680E0DF91F2
:102C5000CF911F910F910895EF92FF920F931F93C1
:102C6000CF93DF93809194059091950590936D118A
:102C700080936C11C0E0D0E064E170E080E090E00F
:102C80000E9410D98CE895E00E9465852196CC338E
:102C9000D10591F7C0E0D0E064E170E080E090E021
:102CA0000E9410D98CE895E00E946585E090960519
:102CB000F09097050091980510919905E0926E119A
:102CC000F0926F11009370111093711120916C119B
:102CD00030916D11C90153E0880F991F5A95E1F7A2
:102CE000820F931F2091940530919505820F931FB9
:102CF0006AE070E00E9477DE70936D1160936C1152
:102D00002196C431D10541F6E0927211F09273110F
:102D10000093741110937511CDB7DEB7E6E00C94F3
:102D2000EFDEAF92BF92CF92DF92EF92FF920F93BE
:102D30001F938CE895E00E946585E0909605F090E1
:102D400097050091980510919905E0927211F09203
:102D50007311009374111093751160916E1170913D
:102D60006F1180917011909171110E94F3DB5B01E2
:102D70006C01C801B7010E94F3DB9B01AC01C601E5
:102D8000B5010E9458DB0E943DDD7B018C01609102
:102D90006C1170916D11882777FD8095982F0E9496
:102DA000F3DB20E030E040E251E40E9458DB23E313
:102DB00033E948E853E40E9474DA9B01AC01C8018E
:102DC000B7010E947DDD29E83EEA44EE56E40E9408
:102DD0007DDD20E030E040E251E40E9458DB0E94BB
:102DE000C0DB9B01AC01CA011F910F91FF90EF90D6
:102DF000DF90CF90BF90AF9008950F931F93CF9324
:102E0000DF930E94F5110E942C1608E316E0C4E53A
:102E1000D5E064E670E080E090E00E9410D90E9466
:102E2000911670936B1160936A1100D000D0EDB7CA
:102E3000FEB73196ADB7BEB71296DC93CE9311971D
:102E400013830283758364830E9411CA8DB79EB772
:102E500006960FB6F8949EBF0FBE8DBFCE010E949E
:102E600088CA18161906ACF680E0DF91CF911F9141
:102E70000F910895CF93DF93EC0107C0219784E56C
:102E800095E060E072E00E94ACD71C161D06B4F31A
:102E9000DF91CF910895FF920F931F93F62E00D0EC
:102EA00000D0EDB7FEB7319604E515E0ADB7BEB77B
:102EB00012961C930E93119722E03AE033832283FB
:102EC000848315820E9411CA8DB79EB706960FB6ED
:102ED000F8949EBF0FBE8DBFEF2DF0E0EE0FFF1FE9
:102EE000E352FC4F60817181C8010E94ACD71F91F1
:102EF0000F91FF900895A0E0B0E0E1E8F7E10C94B5
:102F0000CEDEEC018091C009992787FD9095861748
:102F1000970744F484E595E061E072E00E94ACD745
:102F2000188277C0CB01E4E0880F991FEA95E1F79A
:102F3000861B970B80509C4F5C01CC24B7FCC0943F
:102F4000DC2C0E945CE38883860175010894E11CF7
:102F5000F11C011D111DC7010E945CE3982E89839D
:102F60000894E11CF11C011D111DC7010E945CE3C6
:102F70008A830894E11CF11C011D111DC7010E94E8
:102F800064E36B837C838D839E8387E090E0A0E085
:102F9000B0E0A80EB91ECA1EDB1EC5010E9464E384
:102FA0007B018C01EF82F88609871A8784E090E024
:102FB000A0E0B0E0A80EB91ECA1EDB1EC5010E942B
:102FC00064E39B01AC012B873C874D875E8794FEB1
:102FD00020C080917D1190917E11A0917F11B091C0
:102FE0008011E80EF91E0A1F1B1FEF82F886098761
:102FF0001A878091811190918211A0918311B091D3
:103000008411280F391F4A1F5B1F2B873C874D8770
:103010005E87CE01CDB7DEB7EBE00C94EADE8F928F
:103020009F92AF92BF92DF92EF92FF920F931F9306
:10303000DF93CF93CDB7DEB72F970FB6F894DEBFEF
:103040000FBECDBF68EE73E080E090E00E9410D923
:1030500000D00F9204E515E0ADB7BEB712961C93F1
:103060000E93119782E696E014969C938E93139795
:103070000E9411CA2091B70A3091B80A0F900F90A0
:103080000F900F9037FF11C000D00F92EDB7FEB731
:103090001283018380E696E0948383830E9411CAA1
:1030A0000F900F900F900F9020C000D000D0EDB780
:1030B000FEB73196ADB7BEB712961C930E9311971B
:1030C00088E596E093838283C90164E670E00E94FC
:1030D00077DE758364830E9411CAEDB7FEB736961A
:1030E0000FB6F894FEBF0FBEEDBF00D000D0EDB715
:1030F000FEB7319604E515E0ADB7BEB712961C9346
:103100000E93119781E596E0938382838091C009A5
:10311000992787FD9095958384830E9411CAEDB706
:10312000FEB73196ADB7BEB712961C930E931197AA
:1031300084E496E0938382838091E409992787FD54
:103140009095958384830E9411CAFCE68F2EF6E049
:103150009F2EFF24EDB7FEB736960FB6F894FEBF4C
:103160000FBEEDBF5E010894A11CB11CD02EE12E54
:1031700046C0C501B8010E947B178DB79EB748971E
:103180000FB6F8949EBF0FBE8DBFEDB7FEB7319658
:10319000ADB7BEB71196DC9211971296EC9293825E
:1031A0008282158304838981868317828A8180873E
:1031B00011868B81828713868C819D81AE81BF8130
:1031C00084879587A687B78788859985AA85BB85D3
:1031D000808B918BA28BB38B8C859D85AE85BF85B3
:1031E000848B958BA68BB78B0E9411CAF394EDB795
:1031F000FEB778960FB6F894FEBF0FBEEDBF0F2D49
:1032000010E08091C009992787FD9095801791075C
:103210000CF0AFCF80E02F960FB6F894DEBF0FBE54
:10322000CDBFCF91DF911F910F91FF90EF90DF9075
:10323000BF90AF909F908F9008950F931F9307E2D8
:1032400014E14091020C5091030CC80160E00E940F
:1032500049874091020C5091030CC80161E00E9423
:1032600049874091020C5091030CC80162E00E9412
:1032700049874091020C5091030CC80163E00E9401
:1032800049874091020C5091030CC80166E00E94EE
:1032900049874091020C5091030CC80167E00E94DD
:1032A00049871F910F91089587E294E10E94C98791
:1032B000813009F05EC087E294E160E00E94988767
:1032C000BC0188E39BE00E9431D287E294E161E097
:1032D0000E949887BC018CE89BE00E9431D287E273
:1032E00094E162E00E949887BC0180EE9BE00E941E
:1032F00031D287E294E163E00E949887BC0184E3C5
:103300009CE00E9431D287E294E164E00E949887B9
:10331000BC0188E89CE00E9431D287E294E165E03C
:103320000E949887BC018CED9CE00E9431D287E21C
:1033300094E166E00E949887BC0180E39DE00E94D2
:1033400031D287E294E167E00E949887BC0184E86B
:103350009DE00E9431D28091ED0B9091EE0B23E025
:103360008132920714F080E293E09093EE0B809309
:10337000ED0B08950F931F93CF93DF930E94F511E8
:1033800068EE73E080E090E00E9410D906ED17E04F
:10339000C4E5D5E064E170E080E090E00E9410D9DF
:1033A0000E9454198DB79EB742970FB6F8949EBFEE
:1033B0000FBE8DBFEDB7FEB73196ADB7BEB7129653
:1033C000DC93CE931197138302838091450B9091E8
:1033D000460B958384838091990B90919A0B9783E8
:1033E00086838091ED0B9091EE0B91878087809181
:1033F000410C9091420C938782878091950C90911B
:10340000960C958784878091E90C9091EA0C9787B8
:10341000868780913D0D90913E0D918B808B0E940F
:1034200011CA8DB79EB742960FB6F8949EBF0FBED5
:103430008DBFCE010E9488CA181619060CF0AACFBB
:1034400080E0DF91CF911F910F9108950F931F930B
:10345000CF93DF930E94F51168EE73E080E090E077
:103460000E9410D905E018E0C4E5D5E064E170E001
:1034700080E090E00E9410D90E9454198DB79EB749
:1034800044970FB6F8949EBF0FBE8DBFEDB7FEB741
:103490003196ADB7BEB71296DC93CE9311971383D6
:1034A00002838091430B9091440B95838483809198
:1034B000970B9091980B978386838091EB0B90915B
:1034C000EC0B9187808780913F0C9091400C938703
:1034D00082878091930C9091940C9587848780913A
:1034E000E70C9091E80C9787868780913B0D90912F
:1034F0003C0D918B808B80918F0D9091900D938BD3
:10350000828B0E9411CA8DB79EB744960FB6F8946D
:103510009EBF0FBE8DBFCE010E9488CA1816190625
:103520000CF0A4CF80E0DF91CF911F910F9108950F
:10353000EF92FF920F931F9380E00E9460D8AA271A
:1035400097FDA095BA2FBC01CD010E94F3DB7B0152
:103550008C016091340B7091350B8091360B9091FA
:10356000370B20E030E040E85AE30E947DDD9B010C
:10357000AC01C801B7010E947DDD2AE037ED43E6CA
:1035800050E40E947DDD2DEC3CEC4CEC5DE30E94B0
:103590007DDD7B018C0160917A0370917B038091CA
:1035A0007C0390917D0326E636E646E65FE30E94C3
:1035B0007DDD9B01AC01C801B7010E9474DA609304
:1035C0007A0370937B0380937C0390937D0381E067
:1035D0000E9460D8AA2797FDA095BA2FBC01CD0103
:1035E0000E94F3DB7B018C016091340B7091350BF1
:1035F0008091360B9091370B20E030E040E85AE3A1
:103600000E947DDD9B01AC01C801B7010E947DDDF8
:103610002AE037ED43E650E40E947DDD2DEC3CECE2
:103620004CEC5DE30E947DDD7B018C0160917E03AB
:1036300070917F03809180039091810326E636E6A6
:1036400046E65FE30E947DDD9B01AC01C801B70146
:103650000E9474DA60937E0370937F0380938003EB
:103660009093810382E00E9460D8AA2797FDA095DD
:10367000BA2FBC01CD010E94F3DB7B018C0160916C
:10368000340B7091350B8091360B9091370B20E005
:1036900030E040E85AE30E947DDD9B01AC01C801A7
:1036A000B7010E947DDD2AE037ED43E650E40E9439
:1036B0007DDD2DEC3CEC4CEC5DE30E947DDD7B017F
:1036C0008C016091820370918303809184039091B7
:1036D000850326E636E646E65FE30E947DDD9B0134
:1036E000AC01C801B7010E9474DA60938203709341
:1036F0008303809384039093850383E00E9460D8C2
:10370000AA2797FDA095BA2FBC01CD010E94F3DB3B
:103710007B018C016091340B7091350B8091360BDD
:103720009091370B20E030E040E85AE30E947DDDC5
:103730009B01AC01C801B7010E947DDD2AE037ED95
:1037400043E650E40E947DDD2DEC3CEC4CEC5DE367
:103750000E947DDD7B018C0160918603709187035F
:10376000809188039091890326E636E646E65FE37A
:103770000E947DDD9B01AC01C801B7010E9474DA93
:103780007B018C01CB01D801809386039093870342
:10379000A0938803B09389032091D00A213049F483
:1037A0008091820390918303A0918403B09185035B
:1037B00004C0223059F4C701D80180937603909356
:1037C0007703A0937803B09379038CC0233019F06A
:1037D000243009F087C080917A0390917B03A091F7
:1037E0007C03B0917D038093760390937703A0933D
:1037F0007803B0937903243009F074C081E00E940B
:1038000060D8AA2797FDA095BA2FBC01CD010E94D0
:10381000F3DB7B018C016091340B7091350B80914F
:10382000360B9091370B20E030E040E85AE30E94DD
:103830007DDD9B01AC01C801B7010E947DDD2CE557
:103840003FE84AED51E40E947DDD2DEC3CEC4CEC70
:103850005DE30E947DDD7B018C016091861170919A
:103860008711809188119091891126E636E646E607
:103870005FE30E947DDD9B01AC01C801B7010E949E
:1038800074DA7B018C0160938611709387118093A9
:103890008811909389116091851170E080E090E02B
:1038A0000E94F1DB9B01AC01C801B7010E947DDDE4
:1038B00027E830EC41E959E30E947DDD9B01AC0132
:1038C00060918A1170918B1180918C1190918D1162
:1038D0000E9474DA60938A1170938B1180938C111B
:1038E00090938D111F910F91FF90EF9008950F937A
:1038F0001F93CF93DF930E94F51184E68093851187
:1039000008EB16E0C4E5D5E064E670E080E090E006
:103910000E9410D90E9454190E94981A8DB79EB720
:1039200040970FB6F8949EBF0FBE8DBFEDB7FEB7A0
:103930003196ADB7BEB71296DC93CE931197138331
:1039400002838091760390917703A0917803B091E0
:10395000790384839583A683B783809186119091A0
:103960008711A0918811B091891180879187A287D2
:10397000B38780918A1190918B11A0918C11B09195
:103980008D1184879587A687B7870E9411CA8DB746
:103990009EB740960FB6F8949EBF0FBE8DBF409164
:1039A000EB0B5091EC0B87E294E160E00E944987B9
:1039B0004091EB0B5091EC0B87E294E161E00E94A7
:1039C00049874091EB0B5091EC0B87E294E162E068
:1039D0000E9449874091EB0B5091EC0B87E294E1F8
:1039E00063E00E944987CE010E9488CA1816190612
:1039F0000CF08ACF80E0DF91CF911F910F91089555
:103A00000F931F93CF93DF930E94F51168EE73E03D
:103A100080E090E00E9410D908ED16E0C4E5D5E002
:103A200064E170E080E090E00E9410D90E94541997
:103A30008091410C9091420C9093460C8093450CE0
:103A400084E39CE00E94A5D28DB79EB708970FB67D
:103A5000F8949EBF0FBE8DBFEDB7FEB73196ADB7E0
:103A6000BEB71296DC93CE93119713830283809195
:103A7000410C9091420C958384838091490C9091E4
:103A80004A0C978386830E9411CA8DB79EB7089609
:103A90000FB6F8949EBF0FBE8DBF4091490C509158
:103AA0004A0C87E294E166E00E944987CE010E94B9
:103AB00088CA181619060CF0B3CF80E0DF91CF91B9
:103AC0001F910F9108956091E90C7091EA0C88277D
:103AD00077FD8095982F0E94F3DB20E030E04AE7E5
:103AE00054E40E9458DB60935809709359098093FD
:103AF0005A0990935B098091010B992787FD909556
:103B0000A92FB92FFC013197EB30F10508F04FC117
:103B1000EE58FF4F0C94FEDE8CED9CE060E070E010
:103B200040E45FE10E94D1D08091580990915909F9
:103B3000A0915A09B0915B098093440F9093450F6F
:103B4000A093460FB093470F80937E0F90937F0F03
:103B5000A093800FB093810F08958CED9CE060E0FE
:103B600070E04CE251E00E94D1D06091E90C70917C
:103B7000EA0C882777FD8095982F0E94F3DB20E0E0
:103B800030E04AE754E40E9458DBDC019B01AC01C1
:103B9000209358093093590940935A0950935B096F
:103BA0002093530F3093540F4093550F5093560F5B
:103BB000CB0180938D0F90938E0FA0938F0FB093B6
:103BC000900F08958CED9CE060E070E04CE251E0D5
:103BD0000E94D1D08091580990915909A0915A0919
:103BE000B0915B098093960E9093970EA093980ED8
:103BF000B093990E8093D00E9093D10EA093D20ED5
:103C0000B093D30E08958CED9CE060E070E04CE240
:103C100051E00E94D1D08091580990915909A0910A
:103C20005A09B0915B098093A50E9093A60EA093BC
:103C3000A70EB093A80E8093DF0E9093E00EA09392
:103C4000E10EB093E20E08958CED9CE060E070E030
:103C500048EE53E00E94D1D08091580990915909C3
:103C6000A0915A09B0915B098093B80F9093B90F56
:103C7000A093BA0FB093BB0F08958CED9CE060E069
:103C800070E048EE53E00E94D1D0809158099091A5
:103C90005909A0915A09B0915B0980930A0F90933A
:103CA0000B0FA0930C0FB0930D0F08958CED9CE0BB
:103CB00060E070E048EE53E00E94D1D08091580956
:103CC00090915909A0915A09B0915B098093DA103B
:103CD0009093DB10A093DC10B093DD1008958CED71
:103CE0009CE060E273E048EE53E00E94D1D0809106
:103CF000580990915909A0915A09B0915B09809394
:103D0000190B90931A0BA0931B0BB0931C0B0895E7
:103D10008CED9CE060E070E048EE53E00E94D1D072
:103D20002091E90C3091EA0C82E02935380744F4FF
:103D300080910B01846080930B0120593140BCF1CC
:103D400080910B018B7F80930B0108958CED9CE09B
:103D500060E070E048EE53E00E94D1D08091E90C21
:103D60009091EA0C9093FD098093FC0908958CEDE5
:103D70009CE060E070E040E757E10E94D1D0809184
:103D8000580990915909A0915A09B0915B09809303
:103D9000661090936710A0936810B0936910809399
:103DA000A0109093A110A093A210B093A310089517
:103DB0000F931F93CF93DF930E94F5110CEE16E043
:103DC000C4E5D5E068EC70E080E090E00E9410D996
:103DD0000E9454190E94631D8DB79EB708970FB6B5
:103DE000F8949EBF0FBE8DBFEDB7FEB73196ADB74D
:103DF000BEB71296DC93CE93119713830283809102
:103E0000580990915909A0915A09B0915B0984838E
:103E10009583A683B7830E9411CA8DB79EB7089673
:103E20000FB6F8949EBF0FBE8DBFCE010E9488CA08
:103E3000181619063CF680E0DF91CF911F910F9183
:103E400008958091691290916A12892B09F45AC0E1
:103E50000E94DCD820916312309164124091651267
:103E600050916612621B730B840B950B20916712A5
:103E70003091681240E050E062177307840795079D
:103E800008F440C037C0019790936A12809369127A
:103E90008091691290916A12892BA1F10E94DCD85D
:103EA000609363127093641280936512909366120C
:103EB00060916212862F8450843088F48091691258
:103EC00080FF05C040916B1250916C1204C040916C
:103ED0006D1250916E1287E294E10E9449878091A1
:103EE0006212853079F480910B0194E089278093E8
:103EF0000B0108958091691290916A1218161906A3
:103F000014F2C6CF0895CF93DF93C0E0D0E084E5EC
:103F100095E065E072E00E94C5D62196C832D105D1
:103F2000B1F784E595E060E072E00E94ACD7DF91E4
:103F3000CF91089500D00F9284E595E0EDB7FEB7DC
:103F40009283818388E597E0948383830E9411CADA
:103F50000F900F900F900F900E94831F0E941113DB
:103F60000E94571382E090E00E943A17089500D013
:103F700000D0EDB7FEB7319684E595E0ADB7BEB79A
:103F800012969C938E93119784E199E09383828398
:103F90008091680990916909958384830E9411CA70
:103FA0008DB79EB706960FB6F8949EBF0FBE8DBF15
:103FB0000E94831F82E090E00E943A17089500D08B
:103FC0000F9284E595E0EDB7FEB79283818383E29B
:103FD00099E0948383830E9411CA0F900F900F90F1
:103FE0000F900E94831F0E94B11382E090E00E9414
:103FF0003A170895CF93DF9300D00F92C4E5D5E030
:10400000EDB7FEB7D283C1838EEA99E094838383B0
:104010000E9411CA0F900F900F900F900E94831F63
:1040200000D00F92EDB7FEB7D283C18384EA99E046
:10403000948383830E9411CA80910D0B0F900F907F
:104040000F900F90813049F400D00F92EDB7FEB77A
:10405000D283C1838CE999E015C0882349F400D04C
:104060000F92EDB7FEB7D283C18384E999E00AC00D
:10407000823081F400D00F92EDB7FEB7D283C183B6
:104080008CE899E0948383830E9411CA0F900F906B
:104090000F900F9082E090E00E943A17DF91CF914D
:1040A000089500D00F9284E595E0EDB7FEB79283B6
:1040B00081838EED99E0948383830E9411CA0F90CF
:1040C0000F900F900F900E94831F8091D00A882339
:1040D00011F40E9479128091D00A813091F400D0BD
:1040E0000F9284E595E0EDB7FEB79283818386ED6C
:1040F00099E0948383830E9411CA0F900F900F90D0
:104100000F908091D00A823091F400D00F9284E514
:1041100095E0EDB7FEB7928381838EEC99E09483AE
:1041200083830E9411CA0F900F900F900F9080917F
:10413000D00A833091F400D00F9284E595E0EDB77A
:10414000FEB79283818383EC99E0948383830E94FA
:1041500011CA0F900F900F900F908091D00A843069
:1041600091F400D00F9284E595E0EDB7FEB792830D
:10417000818385EB99E0948383830E9411CA0F9019
:104180000F900F900F9082E090E00E943A170895F0
:104190001F93CF93DF9300D00F9284E595E0EDB7A6
:1041A000FEB79283818384EF99E0948383830E9496
:1041B00011CA0F900F900F900F900E94831FC5E5BA
:1041C000DAE010E0812F68810E944B172C961F5F68
:1041D0001630C1F782E090E00E943A17DF91CF914C
:1041E0001F910895CF93DF9300D00F92C4E5D5E0DF
:1041F000ADB7BEB71296DC93CE9311978AE49AE0DE
:1042000014969C938E9313970E9411CA0F900F904F
:104210000F900F900E94831F2091010B222321F405
:1042200080E00E9479121FC000D000D0EDB7FEB729
:104230003196ADB7BEB71296DC93CE93119785E455
:104240009AE093838283822F992787FD90959583A7
:1042500084830E9411CAEDB7FEB736960FB6F89464
:10426000FEBF0FBEEDBF82E090E00E943A17DF91E3
:10427000CF91089500D00F9284E595E0EDB7FEB799
:10428000928381838AEC93E1948383830E9411CA91
:104290000F900F900F900F900E94831F8091E0135A
:1042A0000E94791282E090E00E943A170895ACE0F3
:1042B000B0E0EDE5F1E20C94D7DE40918A03509135
:1042C0008B0360918C0370918D0389EC97E00E94C1
:1042D000AAB6DE011196EEE4F8E08CE001900D92B2
:1042E0008150E1F7ABE3B1E1FE0131968CE0019042
:1042F0000D928150E1F72C96E2E00C94F3DEACE2F3
:10430000B0E0E5E8F1E20C94C7DEDE011196EAEFD9
:10431000F7E084E201900D928150E1F769807A80A4
:104320008B809C80AD84BE84CF84D888298C3A8CC5
:104330004B8C5C8C89A19AA1ABA1BCA189A79AA73F
:10434000ABA7BCA78D8D9E8DAF8DB8A18DA39EA36D
:10435000AFA3B8A7C401B301A40193010E947DDDFE
:104360007B018C01C601B501A60195010E947DDD8E
:104370009B01AC01C801B7010E9474DA0E94EADD1A
:104380007B018C01C601B501A80197010E9458DB91
:104390006093960370939703809398039093990387
:1043A000C401B301A80197010E9458DB60939C11DE
:1043B00070939D1180939E1190939F11D201C10122
:1043C000B0588093941190939511A0939611B09347
:1043D0009711C201B101A20191010E947DDD9B01F3
:1043E000AC0160E070E080E89FE30E9473DA0E9415
:1043F000EADD7B018C0160938E0370938F038093C1
:1044000090039093910369A57AA58BA59CA5A8011B
:1044100097010E9458DB60939203709393038093FB
:104420009403909395036DA17EA18FA198A5A801F7
:1044300097010E9458DB60939811709399118093B3
:104440009A1190939B11AC96E2E10C94E3DEA4E206
:10445000B0E0EDE2F2E20C94CFDE0E949A1F8DE70D
:1044600097E060E179ED0E9429C60E949A1F0E94A0
:10447000F51168EE73E080E090E00E9410D90E9490
:10448000DCD860938E1170938F118093901190936C
:10449000911119E4A12E17E0B12EB6E0CB2EB7E0B2
:1044A000DB2EA4E5EA2EA5E0FA2E8E010F5F1F4F4A
:1044B0000E94DCD820918E1130918F114091901183
:1044C00050919111621B730B840B950B6530710534
:1044D0008105910508F4F1C00E94DCD820918E116D
:1044E000621B6093921170E080E090E00E94F1DB2B
:1044F00020E030E04AE754E40E9458DB60938A03EE
:1045000070938B0380938C0390938D030E94DCD86F
:1045100060938E1170938F118093901190939111ED
:104520000E945721809193118F5F80939311843063
:1045300011F40E947F2180919311843109F05AC0B7
:104540000E945419109293118DB79EB740970FB6E1
:10455000F8949EBF0FBE8DBFEDB7FEB73196ADB7D5
:10456000BEB71296FC92EE921197B382A28280910E
:10457000C9079091CA07A091CB07B091CC0784835B
:104580009583A683B7838091CD079091CE07A091A4
:10459000CF07B091D00780879187A287B38780919A
:1045A000D1079091D207A091D307B091D407848707
:1045B0009587A687B7870E9411CA8DB79EB7409688
:1045C0000FB6F8949EBF0FBE8DBF8091E90A882375
:1045D00089F08CEE95E00E941E96D801EAEFF7E094
:1045E00084E201900D928150E1F78CEE95E0B801E4
:1045F0000E94F9A2ADB7BEB75C970FB6F894BEBFE4
:104600000FBEADBFEDB7FEB731961296FC92EE929B
:104610001197D382C28280918E0390918F03A091D3
:104620009003B091910384839583A683B78380918F
:10463000941190919511A0919611B0919711808746
:104640009187A287B3878091920390919303A09161
:104650009403B091950384879587A687B787809147
:10466000981190919911A0919A11B0919B11808B02
:10467000918BA28BB38B8091960390919703A0911D
:104680009803B0919903848B958BA68BB78B8091FF
:104690009C1190919D11A0919E11B0919F11808FBE
:1046A000918FA28FB38F0E9411CA8DB79EB74C967F
:1046B0000FB6F8949EBF0FBE8DBF84E595E00E94B3
:1046C00088CA181619060CF0F3CE80E0A496EAE02A
:1046D0000C94EBDEAF92BF92CF92DF92EF92FF92FB
:1046E0000F931F937C018B01FB016781708581858E
:1046F0009285F7012781308541855285621B730BB6
:10470000840B950B0E94F3DB5B016C01F801638560
:10471000748585859685F70123853485458556857D
:10472000621B730B840B950B0E94F3DB20919C039F
:1047300030919D0340919E0350919F030E947DDD27
:104740007B018C01C601B501A60195010E947DDDAA
:104750005B016C01C801B701A80197010E947DDDD2
:104760009B01AC01C601B5010E9474DA0E94EADD2A
:1047700028EC32E646E35CE30E947DDD0E94C0DB6C
:104780009B01AC01CA011F910F91FF90EF90DF9048
:10479000CF90BF90AF900895CF92DF92FF920F938A
:1047A0001F93CF93DF930E94F51100D00F9204E581
:1047B00015E0ADB7BEB712961C930E93119788EA19
:1047C00097E014969C938E9313970E9411CA0F90B2
:1047D0000F900F900F9068EE73E080E090E00E94E1
:1047E00010D984EAC82E87E0D82EC0E0D0E0F02EA1
:1047F000012F20C08AE895E06C2F0E94108900D01C
:1048000000D0EDB7FEB73196ADB7BEB71196FC92AA
:10481000119712960C93D382C282958384830E944F
:1048200011CA2196EDB7FEB736960FB6F894FEBFC3
:104830000FBEEDBFC930D105ECF284E595E00E94D2
:1048400095D764E170E080E090E00E9410D984E5A3
:1048500095E00E9488CA181619061CF0C0E0D0E046
:10486000E9CF80E0DF91CF911F910F91FF90DF9012
:10487000CF900895A0E0B0E0E0E4F4E20C94D1DE43
:104880000E94F51168EE73E080E090E00E9410D97C
:104890002DEAC22E27E0D22E94E5E92E95E0F92EDE
:1048A0006DE471E080E090E00E9410D90E946011F8
:1048B0008091391190913A110E9469C0C0913911CB
:1048C000D0913A118FA1882309F445C08DB79EB7C6
:1048D00042970FB6F8949EBF0FBE8DBF0DB71EB79F
:1048E0000F5F1F4FEDB7FEB7F282E182F801D3826E
:1048F000C2828C859D85AE85BF8584839583A68382
:10490000B78388899989AA89BB8980879187A2877B
:10491000B3876C897D898E899F8924E630E040E0E9
:1049200050E00E94ACDEF801248735874687578720
:104930008EA1808B118A0E9411CAE0913911F091E9
:104940003A1117A28DB79EB742960FB6F8949EBF44
:104950000FBE8DBF06C084E595E067E072E00E945F
:10496000C5D684E595E00E9488CA181619060CF091
:1049700097CF80E0CDB7DEB7E8E00C94EDDE00D055
:104980000F9284E595E0EDB7FEB7928381838AE3C9
:1049900098E0948383830E9411CA0F900F900F9028
:1049A0000F908EE491E10E948A9280E0089583E660
:1049B00091E10E948A9280E00895CF93DF9300D026
:1049C0000F92C4E5D5E0EDB7FEB7D283C18386E090
:1049D00099E0948383830E9411CA0F900F900F90E7
:1049E0000F9080915A0B90915B0B8451954064F12C
:1049F00068EE73E080E090E00E9410D900D00F9242
:104A0000EDB7FEB7D283C1838DED98E094838383A5
:104A10000E9411CA0F900F900F900F9068EE73E0F4
:104A200080E090E00E9410D900D00F92EDB7FEB761
:104A3000D283C1838AEB98E0948383830E9411CA56
:104A40000F900F900F900F9085E591E10E948A9250
:104A500080E0DF91CF91089587E491E10E948A92EE
:104A600080E0089589EB9AE00E94AE8B00D00F920F
:104A700084E595E0EDB7FEB7928381838DEE99E0F2
:104A8000948383830E9411CA0F900F900F900F9010
:104A90000E94831F8091C40A0E94791282E090E0F4
:104AA0000E943A170895A0E0B0E0E9E5F5E20C9421
:104AB000D1DE00D00F9244E5E42E45E0F42EADB7F0
:104AC000BEB71296FC92EE9211978CE39AE0149680
:104AD0009C938E9313970E9411CA0F900F900F9082
:104AE0000F900E94831F8091E90A0E9479123CEE88
:104AF000C32E35E0D32EC6010E94E39ACDB7DEB7B0
:104B000028970FB6F894DEBF0FBECDBF0DB71EB706
:104B10000F5F1F4FFA82E9822CE23AE0F8013383FB
:104B2000228321EE3EE245E652E40E947DDDD8017B
:104B300014966D937D938D939C9317970E9411CA41
:104B4000CDB7DEB728960FB6F894DEBF0FBECDBF47
:104B5000C6010E94DE9A9C01EDB7FEB770970FB6B2
:104B6000F894FEBF0FBEEDBF3196ADB7BEB712963B
:104B7000FC92EE9211978BE09AE093838283E90195
:104B800088819981AA81BB8184839583A683B78319
:104B90008C819D81AE81BF8180879187A287B387F9
:104BA00088859985AA85BB8584879587A687B787D9
:104BB0000E9411CAEDB7FEB770960FB6F894FEBF0B
:104BC0000FBEEDBF82E090E00E943A17CDB7DEB78E
:104BD000E8E00C94EDDEFF920F931F93F82E8B010B
:104BE00088E090E00E943A170E94B71F0E94DF1FE2
:104BF0000E94FA1F0E9451200E9432250E94C82064
:104C00000E949A1F0E9453258F2DB8010E945F9128
:104C100080E01F910F91FF900895FB0160897189D9
:104C20008289938925E33AEF4EE85CE30E947DDDBB
:104C3000AB01BC018CEE95E00E947EA50E9453253D
:104C400080E00895FB0184858093010B86EF9AE054
:104C50000E943D8C0E94F22080E0089500D00F92C7
:104C600084E595E0EDB7FEB79283818385E09BE014
:104C7000948383830E9411CA81E08093F50A0F9088
:104C80000F900F900F908AEE9AE00E943D8C64E1A5
:104C900070E080E090E00E9410D984E595E00E94E9
:104CA00088CA181619069CF71092F50A8AEE9AE03F
:104CB0000E943D8C80E0089564E170E080E090E027
:104CC0000E9410D90E9454198091020C9091030CFB
:104CD0009093A3118093A2119093A5118093A41196
:104CE0009093A7118093A6119093A9118093A81176
:104CF0009093AF118093AE119093B1118093B01146
:104D00002091450B3091460B4BE0293B34074CF08A
:104D1000C2969093A3118093A2119093AF118093A8
:104D2000AE112854344F94F48091A4119091A511A0
:104D3000C2969093A5118093A4118091A611909191
:104D4000A711C2969093A7118093A6118091990BF9
:104D500090919A0B895B9B4094F08091B011909157
:104D6000B111C2969093B1118093B0118091A811A6
:104D70009091A911C2969093A9118093A811409186
:104D8000A2115091A31187E294E160E00E9449874B
:104D90004091A4115091A51187E294E161E00E9435
:104DA00049874091A8115091A91187E294E162E0EE
:104DB0000E9449874091A8115091A91187E294E17E
:104DC00063E00E9449874091AE115091AF1187E294
:104DD00094E166E00E9449874091B0115091B11171
:104DE00087E294E167E00E94498784E595E00E94AC
:104DF00088CA181619060CF05FCF1092F50A8AEED1
:104E00009AE00E943D8C80E00895FF920F931F93DB
:104E1000CF93DF9300D00F9284E595E0EDB7FEB716
:104E2000928381838EE99AE0948383830E9411CADE
:104E30000F900F900F900F900E94F511FF2410E03B
:104E400064E170E080E090E00E9410D90E94541963
:104E50000E941610082FF816A1F090E0FC01EE0F4A
:104E6000FF1FE80FF91FEE0FFF1FEE0FFF1FE65B9E
:104E7000F54F1385193008F018E0802F612F0E943C
:104E80004B170E94BE108823B1F01F5F193009F440
:104E900010E0802F90E0FC01EE0FFF1FE80FF91FDC
:104EA000EE0FFF1FEE0FFF1FE65BF54F1387802FFE
:104EB000612F0E944B1784E595E00E9488CAF02E6E
:104EC000181619060CF0BCCFCAE4DAE0CE010E9435
:104ED0003D8C2C96FAE0C239DF07C1F70E94851499
:104EE0000E94C82080E0CDB7DEB7E5E00C94F0DE8C
:104EF000A4E2B0E0EEE7F7E20C94D5DE80E090E0CB
:104F0000A0E8BFE389839A83AB83BC8380E090E011
:104F1000A0E0B0E08D839E83AF83B88789879A87AE
:104F2000AB87BC878D879E87AF87B88B20E030E04A
:104F300040E85FEB298B3A8B4B8B5C8B8D8B9E8B88
:104F4000AF8BB88F898F9A8FAB8FBC8F8D8F9E8FD1
:104F5000AF8FB8A329A33AA34BA35CA30CEE15E033
:104F6000C801BE016F5F7F4F0E94EA9589EC97E010
:104F7000B8010E94BBA6C8010E944298C8010E94C5
:104F8000DE9AA496E4E00C94F1DECF93DF93FB016C
:104F9000C285D385CE0164E87AE00E9473E0892B54
:104FA00021F481E08093C40A09C0CE0160E87AE070
:104FB0000E9473E0892B39F41092C40A89EB9AE0BD
:104FC0000E943D8C12C000D00F9284E595E0EDB7B1
:104FD000FEB7928381838CE69AE0948383830E9458
:104FE00011CA0F900F900F900F900E94322580E011
:104FF000DF91CF910895CF93DF93FB01EB012A96C8
:10500000828593856AE97AE00E9473E0892B19F41E
:105010001092D00A0FC02A813B814C815D81DA0158
:10502000C9010197A109B1090497A105B10538F497
:105030002093D00A85EC9AE00E943D8C12C000D0EB
:105040000F9284E595E0EDB7FEB79283818387E800
:105050009AE0948383830E9411CA0F900F900F905F
:105060000F900E94512080E0DF91CF910895CF935F
:10507000DF93FB01C285D385CE0161EE7BE00E9408
:1050800073E0892B11F481E019C0CE016FED7BE054
:105090000E9473E0892B39F0CE016DED7BE00E9418
:1050A00073E0892B19F410920D0B0AC0CE016BED41
:1050B0007BE00E9473E0892B41F482E080930D0B2A
:1050C00082E09BE00E943D8C12C000D00F9284E5EC
:1050D00095E0EDB7FEB79283818389EC9BE09483E2
:1050E00083830E9411CA0F900F900F900F900E941F
:1050F000FA1F80E0DF91CF910895ACE0B0E0E3E8E3
:10510000F8E20C94D5DEFB0102851385C80169E63F
:105110007AE00E9473E0892B51F481E08093E90AE0
:105120008EED9AE00E943D8C0E9478273CC0C80119
:1051300065E67AE00E9473E0892B11F580E090E04B
:10514000A0E0B0E089839A83AB83BC838D839E8388
:10515000AF83B88789879A87AB87BC878CEE95E049
:10516000BE016F5F7F4F0E94C19A8CEE95E00E9456
:105170008AA51092E90A8EED9AE00E943D8C13C038
:1051800000D00F9284E595E0EDB7FEB7928381835E
:1051900082E59AE0948383830E9411CA0F900F9056
:1051A0000F900F9004C08EED9AE00E943D8C0E94FB
:1051B000532580E02C96E4E00C94F1DE8DE797E037
:1051C00060E179ED0E9414C60E9457130E949A1F55
:1051D00080E008950F931F93CF93DF9384E595E0CC
:1051E00069E072E00E94ACD700E064E170E080E02A
:1051F00090E00E9410D90E9454190F5F0436A9F75D
:10520000C091430BD091440B81E0C43FD8073CF4DC
:1052100068EE73E080E090E00E9410D9F9CFD0935F
:105220005B0BC0935A0B2091970B3091980B3093E6
:10523000AF0B2093AE0B0091EB0B1091EC0B109386
:10524000030C0093020C80913F0C9091400C9093C2
:10525000570C8093560CA091930CB091940CB09382
:10526000AB0CA093AA0CE091E70CF091E80CF09342
:10527000FF0CE093FE0C60913B0D70913C0D709320
:10528000530D6093520D40918F0D5091900D50939E
:10529000A70D4093A60DD093750BC093740B30935C
:1052A000C90B2093C80B10931D0C00931C0C9093FA
:1052B000710C8093700CB093C50CA093C40CF09348
:1052C000190DE093180D70936D0D60936C0D509354
:1052D000C10D4093C00DD093680BC093670B309302
:1052E000BC0B2093BB0B9093640C8093630C8CEDF0
:1052F00095E09093B80C8093B70C90930C0D80932D
:105300000B0D9093600D80935F0D9093B40D80937F
:10531000B30D00D00F9284E595E0EDB7FEB7928310
:10532000818383EE9BE0948383830E9411CA0F9054
:105330000F900F900F9064E170E080E090E00E9489
:1053400010D90E94541988E39BE00E9429D18CE86F
:105350009BE00E9429D180EE9BE00E9429D184E34A
:105360009CE00E9429D188E89CE00E9429D18CED24
:105370009CE00E9429D180E39DE00E9429D184E82D
:105380009DE00E9429D184E595E00E9488CA181604
:1053900019068CF664E170E080E090E00E9410D97C
:1053A00084E595E00E9405CB88E39BE00E944AD308
:1053B0008CE89BE00E944AD380EE9BE00E944AD397
:1053C00084E39CE00E944AD388E89CE00E944AD390
:1053D0008CED9CE00E944AD380E39DE00E944AD37A
:1053E00084E89DE00E944AD30E9485140E94DF1F3A
:1053F00080E0DF91CF911F910F91089500D00F921F
:1054000084E595E0EDB7FEB79283818380E49CE06C
:10541000948383830E9411CA0F900F900F900F9076
:1054200084E595E00E94B8CAFFEF8F3F9F07C1F364
:105430008937910529F08935910511F08FEF08958D
:105440000E94198C00D00F9284E595E0EDB7FEB76D
:10545000928381838BE19CE0948383830E9411CAB1
:105460000F900F900F900F9068EE73E080E090E047
:105470000E9410D9FFCFCF93DF9300D00F9284E525
:1054800095E0EDB7FEB7928381838EE79CE094832D
:1054900083830E9411CAC0E0D0E00F900F900F905C
:1054A0000F90CE0160E00E9474E32196F0E1C030DD
:1054B000DF07B9F700D00F9284E595E0EDB7FEB7AE
:1054C0009283818388E79CE0948383830E9411CA3E
:1054D0000F900F900F900F90DF91CF9108950E9441
:1054E0003B2A80E00895EF92FF920F931F93CF9392
:1054F000DF937B018230A1F000D00F9284E595E02C
:10550000EDB7FEB7928381838DE39DE0948383831F
:105510000E9411CA8FEF0F900F900F900F9091C0C3
:10552000FB0102851385C80169E37DE00E9460E00C
:10553000892B19F4CFEFDFEF63C0C8016BE27DE088
:105540000E9460E0C0E0D0E0892B11F4C1E0D0E01F
:10555000C8016EE17DE00E9460E0892B09F4C26021
:10556000C8016AE17DE00E9460E0892B09F4C46013
:10557000C80167E17DE00E9460E0892B09F4C86002
:10558000C80162E17DE00E9460E0892B09F4C061FE
:10559000C8016DE07DE00E9460E0892B09F4C062E3
:1055A000C80168E07DE00E9460E0892B09F4C064D6
:1055B000C80164E07DE00E9460E0892B09F4C068C6
:1055C000C80160E07DE00E9460E0892B09F4D160B1
:1055D000C8016CEF7CE00E9460E0892B09F4D26086
:1055E000C80165EF7CE00E9460E0892B09F4D4607B
:1055F000C8016DEE7CE00E9460E0892B09F4D86060
:10560000F7018081918166EE7CE00E9460E0892B49
:1056100039F48091AA0A9091AB0AC82BD92B08C003
:10562000C095D0958091AA0A9091AB0AC823D9233E
:10563000D093AB0AC093AA0A8FE99AE00E943D8CEE
:1056400080E0CDB7DEB7E6E00C94EFDECF93DF93DA
:1056500000D00F9284E595E0EDB7FEB79283818389
:105660008DE59DE0948383830E9411CAC1E0D0E060
:105670000F900F900F900F908DE295E1BE010E9468
:105680006EC72196F0E1C030DF07B1F78DE295E1FA
:1056900061E070E00E9462C78DE295E163EA0E94DA
:1056A00018C88DE295E165E90E9418C88DE295E180
:1056B00060EF0E9418C88DE295E160E00E9418C872
:1056C0008DE295E16AEB0E9418C88DE295E10E9497
:1056D00090C800D00F9284E595E0EDB7FEB79283B5
:1056E00081838FE49DE0948383830E9411CA0F908D
:1056F0000F900F900F9080E0DF91CF910895CF929F
:10570000DF92EF92FF920F931F930DE215E1C80114
:105710000E9479C96C01C8010E9479C97C01C80145
:105720000E9479C92DB73EB72A5030400FB6F89481
:105730003EBF0FBE2DBFEDB7FEB7319624E535E075
:10574000ADB7BEB712963C932E9311972CE73DE070
:1057500033832283D582C482F782E6829187808751
:105760000E9411CA2DB73EB7265F3F4F0FB6F8947F
:105770003EBF0FBE2DBF1F910F91FF90EF90DF90A6
:10578000CF900895EF92FF920F931F9300D00F9246
:1057900004E515E0ADB7BEB712961C930E931197B2
:1057A00083E99DE014969C938E9313970E9411CAEF
:1057B0000F900F900F900F908DE2E82E85E1F82E5C
:1057C000C7010E9408C9E82FF0E0EE0FFF1FE35267
:1057D000FC4F60817181C8010E94C5D6C7010E943B
:1057E00079C900D000D0EDB7FEB73196ADB7BEB7DE
:1057F00012961C930E9311972DE83DE0338322837C
:10580000958384830E9411CAEDB7FEB736960FB612
:10581000F894FEBF0FBEEDBF1F910F91FF90EF9068
:105820000895A4E0B0E0E7E1FCE20C94C7DE0DE2ED
:1058300015E1C8010E9479C99A838983C8010E9431
:1058400079C99C838B83C8010E9479C91C01C80156
:105850000E9479C92C01C8010E9479C93C01C80184
:105860000E9479C94C01C8010E9479C95C01C80134
:105870000E9479C96C01C8010E9479C97C01C801E4
:105880000E9479C92DB73EB7285130400FB6F89421
:105890003EBF0FBE2DBFEDB7FEB7319624E535E014
:1058A000ADB7BEB712963C932E93119728E93DE011
:1058B0003383228329813A8135832483AB81BC8160
:1058C000B783A68331862086538642867586648692
:1058D00097868686B18AA08AD38AC28AF58AE48AA4
:1058E000978B868B0E9411CAEDB7FEB778960FB6DC
:1058F000F894FEBF0FBEEDBF2496E2E10C94E3DE08
:105900007F928F929F92AF92BF92CF92DF92EF924F
:10591000FF920F931F930DE215E1C8010E9479C910
:105920004C01C8010E9408C9782EC8010E9479C99B
:105930005C01C8010E9479C96C01C8010E9479C943
:105940007C01C8010E9479C92DB73EB72051304073
:105950000FB6F8943EBF0FBE2DBFEDB7FEB7319620
:1059600024E535E0ADB7BEB712963C932E93119760
:1059700022EC3DE0338322839582848276821782F3
:10598000B186A086D386C286F586E4869787868709
:105990000E9411CA2DB73EB7205F3F4F0FB6F89453
:1059A0003EBF0FBE2DBF1F910F91FF90EF90DF9074
:1059B000CF90BF90AF909F908F907F900895AF92BF
:1059C000BF92CF92DF92EF92FF920F931F930DE25F
:1059D00015E1C8010E9479C95C01C8010E9479C91A
:1059E0006C01C8010E9479C97C01C8010E9479C973
:1059F0002DB73EB72C5030400FB6F8943EBF0FBEC7
:105A00002DBFEDB7FEB7319624E535E0ADB7BEB793
:105A100012963C932E93119726E63EE03383228321
:105A2000B582A482D782C682F186E0869387828778
:105A30000E9411CA2DB73EB7245F3F4F0FB6F894AE
:105A40003EBF0FBE2DBF1F910F91FF90EF90DF90D3
:105A5000CF90BF90AF9008951F938DE295E161E0E4
:105A600070E00E948FC910E08DE295E10E9408C9A4
:105A7000113051F0113018F0123099F408C010E0D4
:105A8000833A79F411E00DC0853951F407C0803FA5
:105A900039F48DE295E10E9408C90AC012E001C004
:105AA00010E08DE295E10E94C9C60197E9F280E01D
:105AB0001F910895EF92FF920F931F93CF93DF935F
:105AC0008C01C0E0D0E11FC0CE01800F911F62E0C9
:105AD00070E00E9477DEF62EE72E8DE295E10E94BF
