:100000000C948A0B0C94B60B0C94B60B0C94B60B98
:100010000C94B60B0C94B60B0C94B60B0C94B60B5C
:100020000C94B60B0C94B60B0C94B60B0C94B60B4C
:100030000C94B60B0C94B60B0C94B60B0C94058672
:100040000C94B60B0C94B60B0C94B60B0C94B60B2C
:100050000C94B60B0C94B60B0C94B60B0C940ED6F9
:100060000C94B60B0C94220E0C94620E0C94B60BEE
:100070000C94B60B0C94B60B0C94B60B0C94B60BFC
:100080000C94B60B0C94B60B0C94B60B0C94B60BEC
:100090000C94B40E0C94F40E0C94B60B0C9484D205
:1000A0000C94B60B0C9472840C94B60B0C94B60B97
:1000B0000C94B60B0C94B60B0C94B60B0C94B60BBC
:1000C0000C94B60B0C94B60B0C94B60B0C94B60BAC
:1000D0000C94B60B0C94B60B0C94460F0C94860F34
:1000E0000C94B60B003021300330063009300C3050
:1000F0000F301230153018301B301E30DC3BDC3B2B
:10010000003C6F3C443C8A3CA53CD23C103D573DF2
:10011000EF56EB56F856FE561A575E574A57755724
:100120003657485874587D5880588358C66086584A
:10013000C660C660C66089588C588F58AF58AD5895
:10014000AD58AD58BB58AD58B158AD58AD58BE5864
:10015000CD58C058C358AD58AD58AD58C658AD5815
:10016000AD58AD58AD58AD58CD58AD58CF58E984BD
:10017000EE84F384F884FD84028507850C8511855F
:1001800016851B8591BB8CBB95BB99BBA7BBC0BB20
:10019000EABBFBBB3ABD35BD3EBD47BD6EBD7ABDBA
:1001A00094BDB5BDBCBD4BD74ED741D745D787D73A
:1001B00052D756D75CD760D764D76AD76ED772D775
:1001C00078D77CD782D7036EDB363D9A9999993DD3
:1001D000ABAAAA2A3E000000803F084AD73B3BCE8C
:1001E000016E84BCBFFDC12F3D6C74319ABD568336
:1001F0003DDA3D00C77F11BED9E4BB4C3E916BAAEE
:10020000AABE000000803F072C7AA5BA6CC590DA20
:100210003B9365FC8BBC53F810FD3C5692834DBD5F
:10022000879D3AB63DCBC9BF5BBE73DA0FC93F05A8
:10023000A84CCDB2D44EB93836A9020C50B991862B
:1002400088083CA6AAAA2ABE000000803F08000039
:1002500000BE922449123EABAAAA2ABECDCCCC4CF9
:100260003E00000080BEABAAAAAA3E00000000BF6C
:10027000000000803F0000000000084178D3BB432D
:1002800087D1133D190E3CC3BD4282AD2B3E68ECB5
:100290008276BED98FE1A93E4C80EFFFBE01C4FF3C
:1002A0007F3F00000000004C6F670064756D7000B8
:1002B00000000000000000000034306572617365CA
:1002C0000000000000000000008E28656E61626C76
:1002D000650000000000000000DB276469736162B4
:1002E0006C6500000000000000DB2768656C700092
:1002F0000000000000000000007314706C616E6E5E
:1003000065720067637300000000000000000000D9
:1003100000686273657475700065726173650000D2
:1003200000000000000000D72772657365740000AC
:10033000000000000000006627726164696F000021
:100340000000000000000052266672616D6500002A
:10035000000000000000009F256D6F746F72730035
:10036000000000000000000124657363000000002D
:1003700000000000000000D3236C6576656C00006F
:100380000000000000000046266D6F6465730000E9
:10039000000000000000006D2462617474657279D1
:1003A000000000000000006325736F6E61720000A2
:1003B000000000000000002D25636F6D70617373F5
:1003C00000000000000000E5256465636C696E6153
:1003D00074696F6E000000BE2373686F77000000C1
:1003E000000000000000009C23414320322E302EEC
:1003F00034302042657461006C6F67730000000048
:10040000000000000000DD227365747570000000BC
:100410000000000000008E2274657374000000006C
:10042000000000000000882268656C700000000079
:100430000000000000007813706C616E6E65720041
:100440000000000000007022746573740070776D06
:1004500000000000000000000000002D1A7261641E
:10046000696F000000000000000000C119666169AA
:100470006C73616665000000000000C8106770734F
:100480000000000000000000000000EB2161646338
:1004900000000000000000000000007D21696D7573
:1004A0000000000000000000000000D81F6261741E
:1004B0007465727900000000000000D81274756E37
:1004C00065000000000000000000009519747269CA
:1004D0000000000000000000000000B71C637572FF
:1004E00072656E74000000000000002E1C72656CC6
:1004F00061790000000000000000007E1277617941
:10050000706F696E74730000000000EA17616C740C
:100510006974756465000000000000D816736F6E82
:100520006172000000000000000000B315636F6DF1
:100530007061737300000000000000FB14786265B6
:1005400065000000000000000000002212656564E4
:10055000756D7000000000000000009A1472617751
:100560006770730000000000000000E31148697428
:1005700020456E74657220746F20657869742E0A48
:100580000A00202530327800253034783A00426560
:1005900067696E205842656520582D435455205296
:1005A000616E676520616E64205253534920546523
:1005B00073743A0A00436F6D706173733A20004898
:1005C000656164696E673A20256C642C2058595A1D
:1005D0003A2025642C2025642C2025640A006162C1
:1005E0006C65640A0064697300656E00536F6E6128
:1005F000723A20256420636D0A00536F6E61722089
:1006000064697361626C65640A004261726F3A20CA
:100610002564636D0A00486974207261643A20257C
:10062000640A0025642077700A006F662025646DD7
:100630000A000A00486F6C6420616C742000636FCC
:100640006D6D616E6420233A2025642069643A252B
:1006500064206F703A25642070313A25642070322E
:100660003A256C642070333A256C642070343A2546
:100670006C64200A0052656C6179206F66660A001E
:1006800052656C6179206F6E0A00563A2025342E2F
:1006900034662C20413A2025342E34662C206D41BE
:1006A000683A2025342E34660A00696E7075743AF3
:1006B000202564096F757470757425640A00646977
:1006C0007361626C65640A004E6F7420656E6162CE
:1006D0006C65640A0063703A2025312E32662C2046
:1006E00073703A2025312E32662C2063723A202511
:1006F000312E32662C2073723A2025312E32662C30
:100700002063793A2025312E32662C2073793A20E5
:1007100025312E32662C0A00256C642C20256C6451
:100720002C20256C640A00494D550A004779726FE8
:10073000206F6666736574733A2025342E32662CFA
:100740002025342E32662C2025342E32660A0041B4
:100750006363656C206F6666736574733A20253435
:100760002E32662C2025342E32662C2025342E3253
:10077000660A0025642C004144430A004C61743A27
:1007800020256C642C204C6F6E20256C642C20413D
:100790006C743A20256C646D2C2023736174733A59
:1007A0002025640A00494E2020313A202564093270
:1007B0003A20256409333A20256409343A20256417
:1007C00009353A20256409363A20256409373A204C
:1007D00025640A00494E3A20313A20256409323A0C
:1007E00020256409333A20256409343A2025640918
:1007F000353A20256409363A20256409373A202500
:100800006409383A2025640A00506C616E6E657286
:10081000204D6F64650A4E6F7420696E74656E6456
:10082000656420666F72206D616E75616C207573F2
:10083000650A0A00436F6D6D616E64733A0A202089
:100840006C6F67730A202073657475700A202074BA
:100850006573740A2020706C616E6E65720A0A4DB1
:100860006F76652074686520736C696465207377A2
:100870006974636820616E642072657365742074A6
:100880006F20464C592E0A0A000A205479706520C0
:1008900027726164696F2720746F20636F6E6669C9
:1008A00067757265206E6F772E0A0A000A215761FC
:1008B000726E696E672C20796F757220726164693F
:1008C0006F206973206E6F7420636F6E6669677541
:1008D00072656421005365747570204D6F64650AFC
:1008E0000A0A0046572056657273696F6E202564A8
:1008F0000A00526164696F0A004348373A20256450
:10090000207C2025640A004348363A202564207C58
:100910002025640A004348353A202564207C2025A0
:10092000640A004348343A202564207C2025640A68
:10093000004348333A202564207C2025640A004384
:1009400048323A202564207C2025640A004348313F
:100950003A202564207C2025640A0056206D6F64AF
:10096000650A002B206D6F64650A0058206D6F6466
:10097000650A00545249206672616D650A0046722C
:10098000616D650A00766F6C747320616E6420631C
:100990007572006261747420766F6C747300342019
:1009A00063656C6C7300332063656C6C73000A4282
:1009B000617474204D6F696E746F720A00536F6EAC
:1009C00061720A00466C69676874206D6F646573B4
:1009D0000A00506F732025643A20004D6167206F34
:1009E0006666736574733A2025342E34662C202590
:1009F000342E34662C2025342E3466004D61672059
:100A00004465633A2025342E34660A00436F6D70C6
:100A10006173730A000A4F7074696F6E733A5B6F8B
:100A20006E2C6F66665D0A006F6666006F6E000A68
:100A30004F7074696F6E733A5B6F6E2C206F6666D1
:100A40005D0A006F6666006F6E000A4F7074696F12
:100A50006E733A206F66662C20312D34006F666607
:100A6000000A4D6F766520524320746F67676C658E
:100A70002073776974636820746F206561636820F0
:100A8000706F736974696F6E20746F206564697428
:100A90002C206D6F76652061696C65726F6E2073B6
:100AA0007469636B20746F2073656C656374206D6B
:100AB0006F6465732E000A53617665642053657414
:100AC00074696E67730A0A000A4553432043616CD8
:100AD0006962726174696F6E3A0A2D3120556E70C9
:100AE0006C75672055534220616E64206261747496
:100AF0006572790A2D32204D6F766520434C492F5F
:100B0000464C592073776974636820746F20464C93
:100B100059206D6F64650A2D33204D6F7665207402
:100B200068726F74746C6520746F206D61782C200E
:100B3000636F6E6E65637420626174746572790AA6
:100B40002D342041667465722074776F206C6F6E4F
:100B5000672062656570732C207468726F74746CA2
:100B60006520746F20302C207468656E2074657366
:100B7000740A0A20507265737320456E7465722082
:100B8000746F2063616E63656C2E0A000A4F707487
:100B9000696F6E733A5B782C2B2C765D0A007600B9
:100BA0002B00700078000A4D6F766520616C6C2018
:100BB000636F6E74726F6C7320746F20656163680D
:100BC0002065787472656D652E2048697420456EC5
:100BD00074657220746F20736176653A20000A464E
:100BE0004143544F525920524553455420636F6D31
:100BF000706C657465202D207265626F6F74204182
:100C0000504D000A275927202B20456E746572200D
:100C1000746F20666163746F727920726573657496
:100C20002C20616E79206F74686572206B65792065
:100C3000746F2061626F72743A0A00646F6E650AA5
:100C4000000A45726173696E6720454550524F4DE9
:100C50000A000A436F6D6D616E64733A0A20206466
:100C6000756D70203C6E3E20206572617365202892
:100C7000616C6C206C6F6773290A2020656E61625D
:100C80006C65203C6E616D653E207C20616C6C0A59
:100C9000202064697361626C65203C6E616D653E05
:100CA000207C20616C6C0A0A00656E61626C6500D4
:100CB0004F5054464C4F57004D4F544F52530043E2
:100CC000555200434D4400524157004D4F4445009A
:100CD0004E54554E004354554E00504D004750530E
:100CE0000041545449545544455F4D4544004154D6
:100CF0005449545544455F4641535400616C6C005F
:100D00006D697373696E67206C6F672074797065A5
:100D10000A000A4C6F67206572617365642E0A00D1
:100D20000A45726173696E67206C6F672E2E2E0AFA
:100D300000626164206C6F6720232025640A0041F3
:100D400054542C2025642C2025642C2025750A0061
:100D50002C2025640A004D4F443A004354554E2C34
:100D60002025642C2025642C2025642C2025642C2F
:100D70002025642C2025642C2025642C2025642C1F
:100D80002025640A004E54554E2C2025642C202525
:100D9000642C2025642C2025642C2025642C2025FF
:100DA000640A00504D2C20256C642C2025642C20D6
:100DB00025642C2025642C2025642C2025642C20DF
:100DC00025642C2025642C2025642C20256C640AA5
:100DD000005241572C00434D442C2025642C2025E3
:100DE000642C2025642C2025642C2025642C2025AF
:100DF0006C642C20256C642C20256C640A004355FF
:100E000052523A2025642C20256C642C2025342E47
:100E100034662C2025342E34662C2025640A005399
:100E2000544152542055500A004D4F543A202564E5
:100E30002C2025642C2025642C2025640A004F4694
:100E40002C2025642C2025642C2025642C2025347E
:100E50002E37662C2025342E37660A004750532C37
:100E600020256C642C2025642C2025642C2025341E
:100E70002E37662C2025342E37662C2025342E3430
:100E8000662C2025342E34662C2025642C202575D4
:100E90000A0058545241434B5F005448525F484F38
:100EA0004C445F004E41565F4C4F4E5F004E4156E2
:100EB0005F4C41545F00484C445F4C4F4E5F0048CC
:100EC0004C445F4C41545F005354425F5941575F5B
:100ED000005354425F5049545F005354425F524C98
:100EE0004C5F00524154455F5941575F0052415495
:100EF000455F5049545F00524154455F524C4C5F2E
:100F00000052435F43525F0052435F43505F0052C1
:100F100043385F005243375F005243365F0052430D
:100F2000355F005243345F005243335F0052433217
:100F30005F005243315F00464C4F575F454E414280
:100F40004C450054425F524154494F004652414D76
:100F50004500455343004D41475F454E41424C4596
:100F600000424154545F4341504143495459004267
:100F70004154545F4D4F4E49544F5200534F4E41D0
:100F8000525F454E41424C4500414C545F484F4CE6
:100F9000445F52544C004C4F475F4249544D4153BB
:100FA0004B0050495443485F4D415800464C544D06
:100FB0004F44453600464C544D4F44453500464C51
:100FC000544D4F44453400464C544D4F4445330036
:100FD000464C544D4F44453200464C544D4F4445C9
:100FE00031005452494D5F5448524F54544C4500BF
:100FF0005448525F46535F56414C55450054485241
:101000005F46535F414354494F4E005448525F4638
:1010100041494C53414645005448525F4D415800A8
:101020005448525F4D494E0057505F535045454418
:101030005F4D41580057505F4C4F495445525F52E5
:1010400041440057505F5241444955530057505F47
:101050004D5553545F494E4445580057505F494ED3
:101060004445580057505F544F54414C0057505F0F
:101070004D4F4445005854524B5F414E474C455FDD
:1010800043440053455249414C335F42415544006B
:1010900053595349445F4D5947435300535953499A
:1010A000445F544849534D41560053595349445F96
:1010B00053575F545950450053595349445F535750
:1010C0005F4D52455600524556004D41580054520E
:1010D000494D004D494E00494D41580049005000CE
:1010E000494D555F53454E534F525F43414C004C61
:1010F0006F6720232025642C2020202073746172C8
:10110000742025642C202020656E642025640A004C
:101110000A2564206C6F67730A000A4E6F206C6F9B
:1011200067730A54797065202764756D70203027C5
:101130002E0A0A00204F5054464C4F5700204D4F66
:10114000544F5253002043555252454E54002043B1
:101150004D44002052415700204E54554E0020432C
:1011600054554E0020504D0020475053002041540C
:101170005449545544455F4D454400204154544919
:10118000545544455F46415354006E6F6E65006C84
:101190006F677320656E61626C65643A2000666CEF
:1011A0006967687420706C616E207265636569762A
:1011B000656400616374696F6E207265636569764A
:1011C00065643A20006572726F723A206E6F6E2D00
:1011D0004E617620636D64006F7574206F662063C6
:1011E0006F6D6D616E64732100776179706F696EE8
:1011F0007420726563656976652074696D656F75C5
:101200007400776179706F696E742073656E642005
:1012100074696D656F7574004558545241330045CB
:1012200058545241320045585452413100504F53A6
:101230004954494F4E005241575F4354524C00525B
:10124000435F4348414E004558545F535441540056
:101250005241575F53454E53005352335F00535230
:10126000305F005265616368656420686F6D65007A
:1012700047524F554E44205354415254000A456E34
:10128000746572696E6720696E74657261637469F2
:101290007665207365747570206D6F64652E2E2ED3
:1012A0000A0A54797065202768656C702720746F6E
:1012B000206C69737420636F6D6D616E64732C2094
:1012C00027657869742720746F206C6561766520C6
:1012D00061207375626D656E752E0A566973697447
:1012E000207468652027736574757027206D656E9E
:1012F0007520666F722066697273742D74696D65EE
:1013000020636F6E66696775726174696F6E2E0A0D
:101310000A00506C656173652052756E20536574C8
:1013200075702E2E2E0A004669726D7761726520E7
:101330006368616E67653A2065726173696E6720E4
:10134000454550524F4D2E2E2E0A000A0A496E690D
:10135000742041434D0A0A52414D3A20256C750ACA
:1013600000496E76616C69642053455249414C33A3
:101370005F42415544004C6F67732066756C6C008A
:101380000A4750530A00253033753A25733A200036
:101390006E6F7420666F756E6400253033753A2564
:1013A0002D33322E3332733A2000756E6B6E6F77A9
:1013B0006E2074797065006E6F7420666F756E6450
:1013C0000025733A20006D697373696E67206E6142
:1013D0006D65206F722076616C7565003F3F00255A
:1013E0006400256400256C640025660025660065A0
:1013F0007869740068656C700044454300434F4D44
:10140000504153535F00245047434D442C31362CF8
:10141000302C302C302C302C302A36410D0A002450
:10142000505542582C34312C312C303030332C3044
:101430003030312C33383430302C302A32360024DE
:10144000505352463130302C302C33383430302C1D
:10145000382C312C302A3343002053695246200067
:10146000204D544B312E3620002075626C6F782051
:1014700000204D544B312E3420006661696C656448
:101480002C207265747279696E67004F4B002000E2
:101490002A00496E697420416363656C002A004923
:1014A0006E6974204779726F006E616E00696E66B6
:1014B0000000407A10F35A00A0724E18090010A5DF
:1014C000D4E80000E87648170000E40B540200005E
:1014D000CA9A3B000000E1F50500008096980000E4
:1014E0000040420F000000A086010000001027000D
:1014F000000000E803000000006400000000000A93
:1015000000000000000100000000002C76D888DCFC
:10151000674F0823DFC1DFAE59E1B1B796E5E3E4D9
:1015200053C63AE651997696E8E6C28426EB898C52
:101530009B62ED407C6FFCEFBC9C9F40F2BAA56FB4
:10154000A5F490055A2AF75C936B6CF9676DC11B83
:10155000FCE0E40D47FEF520E6B500D0ED902E034B
:1015600000943577050080841E080000204E0A0094
:101570000000C80C333333330F986E12831141EFE0
:101580008D2114893BE65516CFFEE6DB18D1844B3E
:10159000381BF77C1D901DA4BBE424203284725EAE
:1015A000228100C9F124ECA1E53D2700002100249F
:1015B0000027002A002D0030003300010100000444
:1015C0000107010A0100002200250028002B002E3F
:1015D000003100340002010000050108010B010088
:1015E0000020002300260029002C002F00320000DC
:1015F00001000003010601090105050505070508AD
:10160000080808020202020A0A0808040404040185
:1016100001010101010101030303030303030304A7
:101620000707070C0C0C0C0C0C0C0C020202020637
:10163000060606060606060B0B0B0B0B0B0B0B0127
:1016400002102020080810204010204080020102D3
:10165000010804020101020408102040808040209B
:1016600010080402018004020180402010080402D6
:101670000108040201010204081020408001020454
:1016800008102040800000090A02080B0C0D070614
:101690000304010000000000000000000000000042
:1016A000000000000000000000000000000000003A
:1016B00000100F0E000000000000000000000000FD
:1016C0000000000000000000000000494E46494EA6
:1016D0004954594E414ECDCCCC3D0AD7233C17B787
:1016E000D13877CC2B329595E6241FB14F0A0000F4
:1016F00020410000C84200401C4620BCBE4CCA1B12
:101700000E5AAEC59D74593B9485178E4AC488D134
:10171000523B108E11241FBECFEFD1E2DEBFCDBFF2
:1017200000E00CBF15E0A0E0B2E0E6E9F5EC01E076
:101730000BBF02C007900D92A435B107D9F716E18F
:10174000A4E5B5E001C01D92A732B107E1F717E1AA
:10175000C0E1D7E104C02297FE010E947ADCC630C6
:10176000D107C9F70E9403D40C94BEE20C94000088
:10177000283008F027E03327DA01990F311D87FD63
:10178000916000966105710539F432602E5F3D93DA
:1017900030E32A95E1F708959F3F30F080387105D6
:1017A000610509F03C5F3C5F3D93913008F0806833
:1017B000911DDF93CF931F930F93FF92EF92192FF9
:1017C000987F9695E92F96959695E90FFF27E55F07
:1017D000FA4E99273327EE24FF24A701E70105904D
:1017E0000894079428F4360FE71EF81E491F511D70
:1017F000660F771F881F991F0694A1F7059007941D
:1018000028F4E70EF81E491F561FC11D770F881FC9
:10181000991F661F0694A1F70590079428F4F80E07
:10182000491F561FC71FD11D880F991F661F771F9D
:101830000694A1F70590079420F4490F561FC71F7F
:10184000D81F990F661F771F881F0694A9F78491E8
:101850001095177041F0D695C79557954795F79411
:10186000E7941A95C1F7E1EBF4E1689415901591AE
:1018700035916591959105907FE27395E118F10A94
:10188000430B560BC90BD009C0F7E10CF11E431FE7
:10189000561FC91FD01D7EF4703311F48A95E6CF10
:1018A000E894015030F0080F0AF40027021708F4FA
:1018B000202F2395022F7A3328F079E37D932A9500
:1018C000E9F710C07D932A9589F606949795679558
:1018D000379517951794E118F10A430B560BC90B6E
:1018E000D00998F023957E9173957A3308F070E3D0
:1018F0007C932013B8F77E9170617D9330F08395CF
:1019000071E37D9370E32A95E1F71124EF90FF9046
:101910000F911F91CF91DF91992787FD90950895A1
:10192000FA01AA27283051F1203181F1E8946F9310
:101930006E7F6E5F7F4F8F4F9F4FAF4FB1E03ED0B6
:10194000B4E03CD0670F781F891F9A1FA11D680F54
:10195000791F8A1F911DA11D6A0F711D811D911D87
:10196000A11D20D009F468943F912AE0269F1124FC
:101970003019305D3193DEF6CF010895462F477060
:10198000405D4193B3E00FD0C9F7F6CF462F4F70BB
:10199000405D4A3318F0495D31FD4052419302D019
:1019A000A9F7EACFB4E0A6959795879577956795BF
:1019B000BA95C9F700976105710508959B01AC01BF
:1019C0000A2E06945795479537952795BA95C9F7E6
:1019D000620F731F841F951FA01D0895CF93DF937F
:1019E000FC01EB014230510570F0638574858585FB
:1019F000968520E030E040E854E40E94F7DA0E9447
:101A00003FD97983688382E090E0DF91CF91089598
:101A1000CF93DF93EC01FB014230510518F420E035
:101A200030E012C06081718180E090E00E946BD94B
:101A300020E030E040E85AE30E94F7DA6B877C87C9
:101A40008D879E8722E030E0C901DF91CF91089514
:101A5000FB0190819827292F2295207F292730E0AC
:101A6000522F4427C90163E0880F991F6A95E1F757
:101A700048275927818190E04827592784E03595E8
:101A800027958A95E1F7422753275183408308958C
:101A9000A0E0B0E0EEE4FDE00C944BDC8C016B01C7
:101AA0007A01C0E0D0E01CC0F601EC0FFD1F6081A0
:101AB0000115110521F00130110589F405C0E091EF
:101AC0005F15F091601504C0E0916115F091621509
:101AD000A081B1812D913C91CF01F90119952196F9
:101AE000CE15DF0508F3CDB7DEB7E8E00C9467DC70
:101AF000ACE0B0E0EEE7FDE00C9446DCB82E992EA9
:101B0000842E752EA22E282F30E085E58F83A8869F
:101B1000F901EE0FFF1FE20FF31FEE0FFF1FEE0F95
:101B2000FF1FED56FE4E978199878091D6038A87D5
:101B30008091D7038B876C879F5F97838FEF9FEF91
:101B40009E838D838E01085F1F4FFDE0CF2ED12C29
:101B5000CC0EDD1EE5E0EE2EF12CEC0EFD1E06C0D7
:101B6000F80181918F01B7010E94280D0C151D0508
:101B7000B9F78D819E819A838983282D372DC901DC
:101B80007C011A2D6E010894C11CD11C07C0F701FD
:101B900081917F01B6010E94280D11501123B9F7E0
:101BA00089819A818B839C838B2D992DBE01695FDE
:101BB0007F4F46E050E00E94480D8B2D992D682DF7
:101BC000772D4A2D50E00E94480D8B2D992DBE0196
:101BD0006D5F7F4F42E050E00E94480D2C96EDE093
:101BE0000C9462DCDC01FB0183818C938281119671
:101BF0008C931197818112968C9312978081139602
:101C00008C930895DC01FB0187818C93868111966A
:101C10008C931197858112968C93129784811396D9
:101C20008C931397838114968C93149782811596C5
:101C30008C931597818116968C93169780811796B1
:101C40008C9308951F920F920FB60F920BB60F92BE
:101C500011242F933F934F938F939F93EF93FF9371
:101C60004091C60020911F15309120152F5F3F4FE6
:101C700080912315909124152823392380912115D3
:101C8000909122152817390779F080911F159091AE
:101C90002015E0912515F0912615E80FF91F4083D6
:101CA0003093201520931F15FF91EF919F918F91F5
:101CB0004F913F912F910F900BBE0F900FBE0F9041
:101CC0001F9018951F920F920FB60F920BB60F929E
:101CD00011242F933F938F939F93EF93FF93209122
:101CE00041153091421580913F159091401528176C
:101CF0003907E9F08091411590914215E091451521
:101D0000F0914615E80FF91F80818093C6008091FD
:101D1000411590914215019620914315309144153B
:101D200082239323909342158093411510C02091F4
:101D30003F1530914015809141159091421528171B
:101D4000390729F48091C1008F7D8093C100FF91F4
:101D5000EF919F918F913F912F910F900BBE0F901C
:101D60000FBE0F901F9018951F920F920FB60F92F3
:101D70000BB60F9211242F933F934F938F939F9302
:101D8000EF93FF934091CE002091271530912815B5
:101D90002F5F3F4F80912B1590912C1528233923CD
:101DA0008091291590912A152817390779F080918B
:101DB000271590912815E0912D15F0912E15E80F1B
:101DC000F91F40833093281520932715FF91EF9139
:101DD0009F918F914F913F912F910F900BBE0F903C
:101DE0000FBE0F901F9018951F920F920FB60F9273
:101DF0000BB60F9211242F933F938F939F93EF93E2
:101E0000FF932091491530914A1580914715909183
:101E1000481528173907E9F08091491590914A151E
:101E2000E0914D15F0914E15E80FF91F80818093D8
:101E3000CE008091491590914A15019620914B153D
:101E400030914C158223932390934A158093491522
:101E500010C02091471530914815809149159091F7
:101E60004A152817390729F48091C9008F7D80937E
:101E7000C900FF91EF919F918F913F912F910F900A
:101E80000BBE0F900FBE0F901F9018951F920F92D0
:101E90000FB60F920BB60F9211242F933F934F93CF
:101EA0008F939F93EF93FF934091360120913715C5
:101EB000309138152F5F3F4F80913B1590913C1525
:101EC000282339238091391590913A15281739071D
:101ED00079F08091371590913815E0913D15F0918A
:101EE0003E15E80FF91F40833093381520933715BE
:101EF000FF91EF919F918F914F913F912F910F9073
:101F00000BBE0F900FBE0F901F9018951F920F924F
:101F10000FB60F920BB60F9211242F933F938F930E
:101F20009F93EF93FF932091591530915A1580910B
:101F300057159091581528173907E9F080915915D0
:101F400090915A15E0915D15F0915E15E80FF91F1B
:101F50008081809336018091591590915A15019690
:101F600020915B1530915C158223932390935A1531
:101F70008093591510C020915715309158158091B4
:101F8000591590915A152817390729F48091310174
:101F90008F7D80933101FF91EF919F918F913F91C0
:101FA0002F910F900BBE0F900FBE0F901F901895A2
:101FB000FC017183608385E06435780739F47093A0
:101FC000601560935F151386128608C070936215C2
:101FD0006093611581E090E093878287138212827B
:101FE00008952091740C3091750CC9018F5C944058
:101FF0008238910510F481E00895C901815595401A
:102000008238910510F482E00895C901835D9540FE
:102010008238910510F483E00895C90185559640F2
:102020008138910510F484E00895265D364014F45B
:1020300080E0089585E00895A4E0B0E0E2E2F0E1F8
:102040000C9441DC6091DF137091E0138091E113F7
:102050009091E2130E946DD93B014C0180917D115A
:1020600090917E11A0917F11B091801189839A8304
:10207000AB83BC836091E3137091E4138091E5130B
:102080009091E6130E946DD91B012C01A09096033C
:10209000B0909703C0909803D0909903C401B30106
:1020A00029813A814B815C810E94F7DA7B018C01A6
:1020B000C201B101A60195010E94F7DA9B01AC01B2
:1020C000C801B7010E94EDD70E943AD96093AE12C1
:1020D0007093AF128093B0129093B112C401B30108
:1020E000A60195010E94F7DA7B018C01C201B101C2
:1020F00029813A814B815C810E94F7DA9B01AC0116
:10210000C801B7010E94EED70E943AD990958095F8
:10211000709561957F4F8F4F9F4F6093B212709370
:10212000B3128093B4129093B5122496E2E10C940A
:102130005DDC2091240B3091250B8091480B909110
:10214000490B281B390B253631051CF08AE080939A
:1021500082112C593F4F1CF486EF8093821180919D
:10216000821118161CF48150809382118091821183
:1021700087FF03C08F5F809382118091821181302D
:1021800021F08F3F11F080E00895811181E00895E2
:1021900080E00895FC01DB01452B11F083858C93D1
:1021A00081E090E00895DC01FB01452B19F080816E
:1021B0001B968C9381E090E00895FC01638577275E
:1021C00067FD7095872F972F0E946DD90895FC01A8
:1021D000DB014230510520F0838594858D939C93DB
:1021E00082E090E00895DC01FB014230510530F0BF
:1021F000808191811C969C938E931B9782E090E046
:102200000895FC0163857485882777FD8095982F54
:102210000E946DD90895FC01238534854585568536
:10222000B901CA010895CF93DF93FC01EB0144305B
:10223000510540F083859485A585B685888399836B
:10224000AA83BB8384E090E0DF91CF910895CF9380
:10225000DF93EC01FB014430510540F08081918116
:10226000A281B3818B879C87AD87BE8784E090E095
:10227000DF91CF910895E0911A11F0911B1187A978
:1022800090AD8130910539F00297F9F483E261E075
:102290000E9488D7089581A58823D9F090E0809185
:1022A0008111882309F491E090938111992319F009
:1022B00083E260E002C083E261E00E9488D7E0919F
:1022C0001A11F0911B1111A6089583E260E00E949B
:1022D00088D7089585E260E00E9488D784E260E0B4
:1022E0000E9488D783E260E00E9488D71092D613BC
:1022F0001092531208958091FA138F5F8093FA130E
:102300008150833011F41092FA138091FA138130C6
:1023100059F0813018F08230C1F40FC083E260E0E0
:102320000E9488D785E205C085E260E00E9488D7D8
:1023300084E261E00E9488D7089584E260E00E9410
:1023400088D783E261E00E9488D708958091FB13CB
:10235000882379F084E461E00E9488D782E461E018
:102360000E9488D780E460E00E9488D78EE360E016
:102370000EC084E460E00E9488D782E460E00E949E
:1023800088D780E461E00E9488D78EE361E00E94F4
:1023900088D78091FB1391E089278093FB130895E0
:1023A00000D00F9284E595E0EDB7FEB7928381836C
:1023B0008DE695E0948383830E948BC70F900F90E6
:1023C0000F900F9008950E94D01168EE73E080E0A6
:1023D00090E00E948AD688E795E00E9402C8892B87
:1023E00089F084E261E00E9488D788E795E00E9446
:1023F00032C8682F86E695E00E9493C884E260E0C8
:102400000E9488D786E695E00E9402C8892B89F051
:1024100083E261E00E9488D786E695E00E9432C898
:10242000682F88E795E00E9493C883E260E00E94ED
:1024300088D784E595E00E9402C8181619065CF654
:1024400080E008950E94D01168EE73E080E090E093
:102450000E948AD600D00F9284E595E0EDB7FEB7D2
:10246000928381838EE895E0948383830E948BC757
:102470000F900F900F900F9088E795E00E9402C890
:10248000892B49F088E795E00E9432C8682F88E7D9
:1024900095E00E9493C884E595E00E9402C8181652
:1024A000190654F780E0089524E535E0882349F0C3
:1024B00000D00F92EDB7FEB73283218389EE95E00D
:1024C00008C000D00F92EDB7FEB73283218385EEAE
:1024D00095E0948383830E948BC784E595E0EDB7F4
:1024E000FEB7928381838EED95E0948383830E946F
:1024F0008BC70F900F900F900F900895EF92FF925F
:102500000F931F93CF93DF930E94D01168EE73E077
:1025100080E090E00E948AD610E8E12E16E0F12ECD
:1025200005E716E0C4E5D5E000D00F92EDB7FEB7A1
:10253000D283C183F482E3820E948BC780910B0116
:10254000846080930B010F900F900F900F9068EBB9
:102550007BE080E090E00E948AD6CE010E9402C813
:1025600018161906FCF000D00F92EDB7FEB7D28313
:10257000C183148303830E948BC780910B018B7FDF
:1025800080930B010F900F900F900F9068EB7BE002
:1025900080E090E00E948AD6CE010E9402C8181600
:1025A000190614F680E0CDB7DEB7E6E00C9469DCDE
:1025B00000D00F9284E595E0EDB7FEB7928381835A
:1025C00088EC96E0948383830E948BC70F900F90D2
:1025D0000F900F9080E008958DB79EB740970FB68B
:1025E000F8949EBF0FBE8DBFEDB7FEB7319684E560
:1025F00095E0ADB7BEB712969C938E9311978CE27F
:1026000097E0938382838091B1079091B207A09164
:10261000B307B091B40784839583A683B783809171
:10262000B5079091B607A091B707B091B80780871A
:102630009187A287B3878091B9079091BA07A0913B
:10264000BB07B091BC0784879587A687B7870E9490
:102650008BC78DB79EB740960FB6F8949EBF0FBE3E
:102660008DBF08958DB79EB740970FB6F8949EBF63
:102670000FBE8DBFEDB7FEB7319684E595E0ADB7DF
:10268000BEB712969C938E9311978FE497E0938335
:1026900082838091BD079091BE07A091BF07B09142
:1026A000C00784839583A683B7838091C1079091E7
:1026B000C207A091C307B091C40780879187A28702
:1026C000B3878091C5079091C607A091C707B091C5
:1026D000C80784879587A687B7870E948BC78DB761
:1026E0009EB740960FB6F8949EBF0FBE8DBF08955B
:1026F00000D00F9284E595E0EDB7FEB79283818319
:1027000084E398E0948383830E948BC70F900F909B
:102710000F900F9080E008950F931F938DB79EB791
:1027200008970FB6F8949EBF0FBE8DBFEDB7FEB7EA
:10273000319604E515E0ADB7BEB712961C930E9323
:1027400011978DE499E09383828380913B0B909164
:102750003C0B958384838091550B9091560B978306
:1027600086830E948BC7EDB7FEB73196ADB7BEB773
:1027700012961C930E9311978FE399E093838283B3
:1027800080918F0B9091900B958384838091A90BFE
:102790009091AA0B978386830E948BC7EDB7FEB7F3
:1027A0003196ADB7BEB712961C930E93119781E385
:1027B00099E0938382838091E30B9091E40B95835E
:1027C00084838091FD0B9091FE0B978386830E94FA
:1027D0008BC7EDB7FEB73196ADB7BEB712961C9357
:1027E0000E93119783E299E0938382838091370C53
:1027F0009091380C958384838091510C9091520C68
:10280000978386830E948BC7EDB7FEB73196ADB72D
:10281000BEB712961C930E93119785E199E09383AE
:10282000828380918B0C90918C0C95838483809112
:10283000A50C9091A60C978386830E948BC7EDB759
:10284000FEB73196ADB7BEB712961C930E93119793
:1028500087E099E0938382838091DF0C9091E00C74
:10286000958384838091F90C9091FA0C97838683E9
:102870000E948BC7EDB7FEB73196ADB7BEB71296C3
:102880001C930E93119789EF98E093838283809134
:10289000330D9091340D9583848380914D0D9091EB
:1028A0004E0D978386830E948BC78DB79EB708967F
:1028B0000FB6F8949EBF0FBE8DBF1F910F91089564
:1028C00000D00F9284E595E0EDB7FEB79283818347
:1028D00086EB9AE0948383830E948BC70F900F90BE
:1028E0000F900F90089500D00F9284E595E0EDB71A
:1028F000FEB79283818382E59CE0948383830E9468
:102900008BC70F900F900F900F9080E0089500D02C
:102910000F9284E595E0EDB7FEB7928381838FE156
:102920009EE0948383830E948BC70F900F900F903B
:102930000F900895A0E0B0E0E0EAF4E10C9449DCE7
:1029400028E8A22E25E0B22E92E8C92E95E0D92ED5
:1029500000E010E084E5E82E85E0F82E00D000D0FD
:10296000EDB7FEB73196ADB7BEB71296FC92EE92B8
:102970001197B382A282158304830E948BC7C0E0A3
:10298000D0E08DB79EB706960FB6F8949EBF0FBEE7
:102990008DBFCE01800F911F0E94D6E000D000D0E5
:1029A000EDB7FEB73196ADB7BEB71296FC92EE9278
:1029B0001197D382C282848315820E948BC721968D
:1029C0008DB79EB706960FB6F8949EBF0FBE8DBF0B
:1029D000C031D105F1F6C7010E940FD5005F1F4F2E
:1029E00090E10030190709F0B9CF80E0CDB7DEB72C
:1029F000EAE00C9465DCA4E2B0E0E1E0F5E10C94DF
:102A000049DC8091E50A882309F493C00E94D01123
:102A10004FEBA42E45E0B42E6E010894C11CD11CCE
:102A200034E5E32E35E0F32E64E670E080E090E0DC
:102A30000E948AD68CEE95E00E949893D601EAEF28
:102A4000F7E084E201900D928150E1F78CEE95E081
:102A5000B6010E9473A08CEE95E00E945898609198
:102A6000F6057091F7058091F8059091F90521EE32
:102A70003EE245E652E40E94F7DA20E030E048EC1E
:102A800052E40E94F7DA0E943AD9613A2CE87207C0
:102A900020E0820720E092072CF0605A7C488040BA
:102AA000904006C097FF04C0605673478F4F9F4FFA
:102AB000EDB7FEB73E970FB6F894FEBF0FBEEDBF61
:102AC0000DB71EB70F5F1F4FF282E182F801B3828C
:102AD000A28224E630E040E050E00E9426DCF801CB
:102AE00024833583468357838091F0059091F105C7
:102AF000918780878091F2059091F3059387828773
:102B00008091F4059091F505958784870E948BC785
:102B10002DB73EB7225F3F4F0FB6F8943EBF0FBEB2
:102B20002DBFC7010E9402C8181619060CF07CCFF1
:102B300015C000D00F9284E595E0EDB7FEB7928303
:102B4000818385EB95E0948383830E948BC70F90EC
:102B50000F900F900F9080E00E94541280E0A49696
:102B6000EAE00C9465DC0F931F93CF93DF93809181
:102B7000C00A8823B9F400D00F9284E595E0ADB780
:102B8000BEB712969C938E9311978AEF95E0149698
:102B90009C938E9313970E948BC70F900F900F906A
:102BA0000F902FC00E94D0110CEE15E0C4E5D5E0C7
:102BB00064E670E080E090E00E948AD68AE399E0C3
:102BC0000E94FFC300D000D0EDB7FEB73196ADB77D
:102BD000BEB71296DC93CE9311971383028395832D
:102BE00084830E948BC7EDB7FEB736960FB6F89474
:102BF000FEBF0FBEEDBFCE010E9402C81816190617
:102C0000BCF680E0DF91CF911F910F910895EF9274
:102C1000FF920F931F93CF93DF9380919405909130
:102C2000950590934E1180934D11C0E0D0E064E182
:102C300070E080E090E00E948AD68CE895E00E94E7
:102C4000ED822196CC33D10591F7C0E0D0E064E16C
:102C500070E080E090E00E948AD68CE895E00E94C7
:102C6000ED82E0909605F0909705009198051091FF
:102C70009905E0924F11F092501100935111109369
:102C8000521120914D1130914E11C90153E0880F1E
:102C9000991F5A95E1F7820F931F20919405309167
:102CA0009505820F931F6AE070E00E94F1DB70933C
:102CB0004E1160934D112196C431D10541F6E09239
:102CC0005311F09254110093551110935611CDB732
:102CD000DEB7E6E00C9469DCAF92BF92CF92DF9250
:102CE000EF92FF920F931F938CE895E00E94ED8284
:102CF000E0909605F0909705009198051091990540
:102D0000E0925311F0925411009355111093561103
:102D100060914F1170915011809151119091521109
:102D20000E946DD95B016C01C801B7010E946DD989
:102D30009B01AC01C601B5010E94D2D80E94B7DA4E
:102D40007B018C0160914D1170914E11882777FDA8
:102D50008095982F0E946DD920E030E040E251E448
:102D60000E94D2D823E333E948E853E40E94EED727
:102D70009B01AC01C801B7010E94F7DA29E83EEADD
:102D800044EE56E40E94F7DA20E030E040E251E4FD
:102D90000E94D2D80E943AD99B01AC01CA011F916E
:102DA0000F91FF90EF90DF90CF90BF90AF9008957C
:102DB0000F931F93CF93DF930E94D0110E940716A9
:102DC0000AE016E0C4E5D5E064E670E080E090E05B
:102DD0000E948AD60E946C1670934C1160934B111E
:102DE00000D000D0EDB7FEB73196ADB7BEB71296A2
:102DF000DC93CE93119713830283758364830E94BF
:102E00008BC78DB79EB706960FB6F8949EBF0FBEC0
:102E10008DBFCE010E9402C818161906ACF680E0DC
:102E2000DF91CF911F910F910895CF93DF93EC0124
:102E300007C0219784E595E060E072E00E9426D506
:102E40001C161D06B4F3DF91CF910895FF920F93E6
:102E50001F93F62E00D000D0EDB7FEB7319604E5F3
:102E600015E0ADB7BEB712961C930E93119722EDE5
:102E700039E033832283848315820E948BC78DB708
:102E80009EB706960FB6F8949EBF0FBE8DBFEF2D6E
:102E9000F0E0EE0FFF1FE352FC4F60817181C8012B
:102EA0000E9426D51F910F91FF900895A0E0B0E0F9
:102EB000ECE5F7E10C9448DCEC018091BC09992722
:102EC00087FD90958617970744F484E595E061E0C7
:102ED00072E00E9426D5188277C0CB01E4E0880F0B
:102EE000991FEA95E1F7861B970B80509C4F5C0178
:102EF000CC24B7FCC094DC2C0E94D6E088838601E9
:102F000075010894E11CF11C011D111DC7010E94EF
:102F1000D6E0982E89830894E11CF11C011D111D37
:102F2000C7010E94D6E08A830894E11CF11C011DB0
:102F3000111DC7010E94DEE06B837C838D839E831D
:102F400087E090E0A0E0B0E0A80EB91ECA1EDB1E2C
:102F5000C5010E94DEE07B018C01EF82F8860987C3
:102F60001A8784E090E0A0E0B0E0A80EB91ECA1E67
:102F7000DB1EC5010E94DEE09B01AC012B873C8774
:102F80004D875E8794FE20C080915E1190915F1105
:102F9000A0916011B0916111E80EF91E0A1F1B1F6C
:102FA000EF82F88609871A878091621190916311E8
:102FB000A0916411B0916511280F391F4A1F5B1F42
:102FC0002B873C874D875E87CE01CDB7DEB7EBE020
:102FD0000C9464DC8F929F92AF92BF92DF92EF923B
:102FE000FF920F931F93DF93CF93CDB7DEB72F9749
:102FF0000FB6F894DEBF0FBECDBF68EE73E080E081
:1030000090E00E948AD600D00F9204E515E0ADB79B
:10301000BEB712961C930E93119784E396E0149614
:103020009C938E9313970E948BC72091B30A309183
:10303000B40A0F900F900F900F9037FF11C000D07F
:103040000F92EDB7FEB71283018382E396E094837B
:1030500083830E948BC70F900F900F900F9020C01A
:1030600000D000D0EDB7FEB73196ADB7BEB712961F
:103070001C930E9311978AE296E093838283C90191
:1030800064E670E00E94F1DB758364830E948BC765
:10309000EDB7FEB736960FB6F894FEBF0FBEEDBF84
:1030A00000D000D0EDB7FEB7319604E515E0ADB71E
:1030B000BEB712961C930E93119783E296E093830A
:1030C00082838091BC09992787FD9095958384839D
:1030D0000E948BC7EDB7FEB73196ADB7BEB712965B
:1030E0001C930E93119786E196E0938382838091DF
:1030F000E009992787FD9095958384830E948BC76B
:10310000FEE38F2EF6E09F2EFF24EDB7FEB7369636
:103110000FB6F894FEBF0FBEEDBF5E010894A11C70
:10312000B11CD02EE12E46C0C501B8010E94561731
:103130008DB79EB748970FB6F8949EBF0FBE8DBF50
:10314000EDB7FEB73196ADB7BEB71196DC921197C9
:103150001296EC92938282821583048389818683FE
:1031600017828A81808711868B81828713868C8162
:103170009D81AE81BF8184879587A687B787888523
:103180009985AA85BB85808B918BA28BB38B8C850F
:103190009D85AE85BF85848B958BA68BB78B0E9452
:1031A0008BC7F394EDB7FEB778960FB6F894FEBFD1
:1031B0000FBEEDBF0F2D10E08091BC09992787FD50
:1031C0009095801791070CF0AFCF80E02F960FB647
:1031D000F894DEBF0FBECDBFCF91DF911F910F914D
:1031E000FF90EF90DF90BF90AF909F908F900895E9
:1031F0000F931F9308E014E14091E30B5091E40B0F
:10320000C80160E00E94D1844091E30B5091E40B2F
:10321000C80161E00E94D1844091E30B5091E40B1E
:10322000C80162E00E94D1844091E30B5091E40B0D
:10323000C80163E00E94D1844091E30B5091E40BFC
:10324000C80166E00E94D1844091E30B5091E40BE9
:10325000C80167E00E94D1841F910F91089588E012
:1032600094E10E945185813009F05EC088E094E1CC
:1032700060E00E942085BC0189E19BE00E94ABCF09
:1032800088E094E161E00E942085BC018DE69BE02E
:103290000E94ABCF88E094E162E00E942085BC01EF
:1032A00081EC9BE00E94ABCF88E094E163E00E9458
:1032B0002085BC0185E19CE00E94ABCF88E094E1D1
:1032C00064E00E942085BC0189E69CE00E94ABCFAF
:1032D00088E094E165E00E942085BC018DEB9CE0D4
:1032E0000E94ABCF88E094E166E00E942085BC019B
:1032F00081E19DE00E94ABCF88E094E167E00E940D
:103300002085BC0185E69DE00E94ABCF8091CE0B6D
:103310009091CF0B23E08132920714F080E293E08A
:103320009093CF0B8093CE0B08950F931F93CF9361
:10333000DF930E94D0110EEB16E0C4E5D5E068ECF7
:1033400070E080E090E00E948AD60E942F1900D0A1
:103350000F92EDB7FEB7D283C183148303830E941B
:103360008BC70F900F900F900F90CE010E9402C854
:103370001816190624F780E0DF91CF911F910F9165
:1033800008950F931F93CF93DF930E94D01168EE9F
:1033900073E080E090E00E948AD605EA17E0C4E579
:1033A000D5E064E170E080E090E00E948AD60E945F
:1033B0002F198DB79EB742970FB6F8949EBF0FBED8
:1033C0008DBFEDB7FEB73196ADB7BEB71296DC93A1
:1033D000CE931197138302838091260B9091270B34
:1033E0009583848380917A0B90917B0B978386835E
:1033F0008091CE0B9091CF0B918780878091220C8A
:103400009091230C938782878091760C9091770C12
:10341000958784878091CA0C9091CB0C978786877B
:1034200080911E0D90911F0D918B808B0E948BC7F8
:103430008DB79EB742960FB6F8949EBF0FBE8DBF54
:10344000CE010E9402C8181619060CF0AACF80E01F
:10345000DF91CF911F910F9108950F931F93CF93F9
:10346000DF930E94D01168EE73E080E090E00E944C
:103470008AD604ED17E0C4E5D5E064E170E080E0B1
:1034800090E00E948AD60E942F198DB79EB744976C
:103490000FB6F8949EBF0FBE8DBFEDB7FEB7319645
:1034A000ADB7BEB71296DC93CE9311971383028308
:1034B0008091240B9091250B958384838091780BC8
:1034C0009091790B978386838091CC0B9091CD0B53
:1034D000918780878091200C9091210C938782871F
:1034E0008091740C9091750C958784878091C80C9D
:1034F0009091C90C9787868780911C0D90911D0D26
:10350000918B808B8091700D9091710D938B828B3C
:103510000E948BC78DB79EB744960FB6F8949EBF96
:103520000FBE8DBFCE010E9402C8181619060CF0FE
:10353000A4CF80E0DF91CF911F910F910895EF927A
:10354000FF920F931F9380E00E94DAD5AA2797FD80
:10355000A095BA2FBC01CD010E946DD920E030E0CA
:1035600040EA5BE30E94F7DA2AE037ED43E650E4F5
:103570000E94F7DA2DEC3CEC4CEC5DE30E94F7DAAC
:103580007B018C0160917A0370917B0380917C03B5
:1035900090917D0326E636E646E65FE30E94F7DA81
:1035A0009B01AC01C801B7010E94EED760937A037A
:1035B00070937B0380937C0390937D0381E00E9452
:1035C000DAD5AA2797FDA095BA2FBC01CD010E949C
:1035D0006DD920E030E040EA5BE30E94F7DA2AE0B0
:1035E00037ED43E650E40E94F7DA2DEC3CEC4CEC6E
:1035F0005DE30E94F7DA7B018C0160917E0370919C
:103600007F03809180039091810326E636E646E6AB
:103610005FE30E94F7DA9B01AC01C801B7010E9489
:10362000EED760937E0370937F0380938003909323
:10363000810382E00E94DAD5AA2797FDA095BA2FD0
:10364000BC01CD010E946DD920E030E040EA5BE38F
:103650000E94F7DA2AE037ED43E650E40E94F7DAF9
:103660002DEC3CEC4CEC5DE30E94F7DA7B018C0125
:10367000609182037091830380918403909185030C
:1036800026E636E646E65FE30E94F7DA9B01AC01E8
:10369000C801B7010E94EED7609382037093830341
:1036A000809384039093850383E00E94DAD5AA2750
:1036B00097FDA095BA2FBC01CD010E946DD920E0E5
:1036C00030E040EA5BE30E94F7DA2AE037ED43E6B8
:1036D00050E40E94F7DA2DEC3CEC4CEC5DE30E94E8
:1036E000F7DA7B018C0160918603709187038091EA
:1036F00088039091890326E636E646E65FE30E945A
:10370000F7DA9B01AC01C801B7010E94EED77B013B
:103710008C01CB01D8018093860390938703A093FB
:103720008803B09389032091CC0A213049F4809119
:10373000820390918303A0918403B091850304C018
:10374000223059F4C701D801809376039093770310
:10375000A0937803B09379037CC0233019F0243010
:1037600009F077C080917A0390917B03A0917C034C
:10377000B0917D038093760390937703A0937803B1
:10378000B0937903243009F064C081E00E94DAD557
:10379000AA2797FDA095BA2FBC01CD010E946DD933
:1037A00020E030E040EA5BE30E94F7DA2CE53FE8F6
:1037B0004AED51E40E94F7DA2DEC3CEC4CEC5DE371
:1037C0000E94F7DA7B018C0160916711709168119A
:1037D0008091691190916A1126E636E646E65FE32C
:1037E0000E94F7DA9B01AC01C801B7010E94EED735
:1037F0007B018C016093671170936811809369114C
:1038000090936A116091661170E080E090E00E94F0
:103810006BD99B01AC01C801B7010E94F7DA27E818
:1038200030EC41E959E30E94F7DA9B01AC01609169
:103830006B1170916C1180916D1190916E110E94BD
:10384000EED760936B1170936C1180936D11909310
:103850006E111F910F91FF90EF9008950F931F939A
:10386000CF93DF930E94D01184E6809366110AE81B
:1038700016E0C4E5D5E064E670E080E090E00E94E8
:103880008AD60E942F190E949F1A8DB79EB7409723
:103890000FB6F8949EBF0FBE8DBFEDB7FEB7319641
:1038A000ADB7BEB71296DC93CE9311971383028304
:1038B0008091760390917703A0917803B09179037A
:1038C00084839583A683B783809167119091681153
:1038D000A0916911B0916A1180879187A287B387FF
:1038E00080916B1190916C11A0916D11B0916E113E
:1038F00084879587A687B7870E948BC78DB79EB7A9
:1039000040960FB6F8949EBF0FBE8DBF4091CC0B72
:103910005091CD0B88E094E160E00E94D184409109
:10392000CC0B5091CD0B88E094E161E00E94D184F2
:103930004091CC0B5091CD0B88E094E162E00E9465
:10394000D1844091CC0B5091CD0B88E094E163E0A1
:103950000E94D184CE010E9402C8181619060CF0EC
:103960008ACF80E0DF91CF911F910F9108950F933F
:103970001F93CF93DF930E94D01168EE73E080E035
:1039800090E00E948AD60AEA16E0C4E5D5E064E138
:1039900070E080E090E00E948AD60E942F1980910A
:1039A000220C9091230C9093270C8093260C85E198
:1039B0009CE00E941FD08DB79EB708970FB6F89471
:1039C0009EBF0FBE8DBFEDB7FEB73196ADB7BEB788
:1039D0001296DC93CE931197138302838091220C6D
:1039E0009091230C9583848380912A0C90912B0CC9
:1039F000978386830E948BC78DB79EB708960FB6B4
:103A0000F8949EBF0FBE8DBF40912A0C50912B0C95
:103A100088E094E166E00E94D184CE010E9402C851
:103A2000181619060CF0B3CF80E0DF91CF911F91EB
:103A30000F91089580914A1290914B12892B09F4AD
:103A40005AC00E9456D6209144123091451240919E
:103A5000461250914712621B730B840B950B2091F9
:103A600048123091491240E050E062177307840712
:103A7000950708F440C037C0019790934B1280938C
:103A80004A1280914A1290914B12892BA1F10E9407
:103A900056D66093441270934512809346129093C9
:103AA000471260914312862F8450843088F48091AD
:103AB0004A1280FF05C040914C1250914D1204C033
:103AC00040914E1250914F1288E094E10E94D184AF
:103AD00080914312853079F480910B0194E089271D
:103AE00080930B01089580914A1290914B12181601
:103AF000190614F2C6CF0895CF93DF93C0E0D0E04B
:103B000084E595E065E072E00E943FD42196C832DA
:103B1000D105B1F784E595E060E072E00E9426D51A
:103B2000DF91CF91089500D00F9284E595E0EDB735
:103B3000FEB79283818387E297E0948383830E9418
:103B40008BC70F900F900F900F900E947C1D0E94CA
:103B5000EC120E94321382E090E00E941517089543
:103B600000D000D0EDB7FEB7319684E595E0ADB753
:103B7000BEB712969C938E93119783EE98E0938331
:103B800082838091640990916509958384830E9462
:103B90008BC78DB79EB706960FB6F8949EBF0FBE23
:103BA0008DBF0E947C1D82E090E00E941517089551
:103BB00000D00F9284E595E0EDB7FEB79283818344
:103BC00082EF98E0948383830E948BC70F900F90BD
:103BD0000F900F900E947C1D0E948C1382E090E059
:103BE0000E9415170895CF93DF9300D00F92C4E57C
:103BF000D5E0EDB7FEB7D283C1838EE799E0948319
:103C000083830E948BC70F900F900F900F900E949C
:103C10007C1D00D00F92EDB7FEB7D283C18383E73E
:103C200099E0948383830E948BC78091FD0A0F9053
:103C30000F900F900F90813049F400D00F92EDB7A4
:103C4000FEB7D283C1838BE699E015C0882349F47F
:103C500000D00F92EDB7FEB7D283C18383E699E01F
:103C60000AC0823081F400D00F92EDB7FEB7D28344
:103C7000C1838BE599E0948383830E948BC70F9067
:103C80000F900F900F9082E090E00E941517DF9147
:103C9000CF91089500D00F9284E595E0EDB7FEB77F
:103CA000928381838EEA99E0948383830E948BC7F9
:103CB0000F900F900F900F900E947C1D8091CC0A66
:103CC000882311F40E9454128091CC0A813091F41F
:103CD00000D00F9284E595E0EDB7FEB79283818323
:103CE00086EA99E0948383830E948BC70F900F909C
:103CF0000F900F908091CC0A823091F400D00F92F7
:103D000084E595E0EDB7FEB7928381838EE999E073
:103D1000948383830E948BC70F900F900F900F9016
:103D20008091CC0A833091F400D00F9284E595E025
:103D3000EDB7FEB79283818383E999E0948383830F
:103D40000E948BC70F900F900F900F908091CC0A1C
:103D5000843091F400D00F9284E595E0EDB7FEB782
:103D60009283818385E899E0948383830E948BC743
:103D70000F900F900F900F9082E090E00E94151727
:103D800008951F93CF93DF9300D00F9284E595E0C1
:103D9000EDB7FEB79283818384EC99E094838383AB
:103DA0000E948BC70F900F900F900F900E947C1D68
:103DB000C1E5DAE010E0812F68810E9426172C9679
:103DC0001F5F1630C1F782E090E00E941517DF9167
:103DD000CF911F91089500D00F9284E595E0EDB743
:103DE000FEB79283818380E893E1948383830E946A
:103DF0008BC70F900F900F900F900E947C1D8091A9
:103E0000C5130E94541282E090E00E941517089595
:103E1000ACE0B0E0EEE0FFE10C9451DC40918A03AD
:103E200050918B0360918C0370918D0389EC97E026
:103E30000E9424B4DE011196EEE4F8E08CE00190DB
:103E40000D928150E1F7ACE1B1E1FE0131968CE0D9
:103E500001900D928150E1F72C96E2E00C946DDC1C
:103E6000ACE2B0E0E6E3FFE10C9441DCDE01119648
:103E7000EAEFF7E084E201900D928150E1F769806A
:103E80007A808B809C80AD84BE84CF84D888298C36
:103E90003A8C4B8C5C8C89A19AA1ABA1BCA189A75F
:103EA0009AA7ABA7BCA78D8D9E8DAF8DB8A18DA312
:103EB0009EA3AFA3B8A7C401B301A40193010E94BC
:103EC000F7DA7B018C01C601B501A60195010E94BC
:103ED000F7DA9B01AC01C801B7010E94EED70E943E
:103EE00064DB7B018C01C601B501A80197010E942A
:103EF000D2D860939603709397038093980390931E
:103F00009903C401B301A80197010E94D2D860931C
:103F10007D1170937E1180937F1190938011D20157
:103F2000C101B0588093751190937611A0937711C9
:103F3000B0937811C201B101A20191010E94F7DA98
:103F40009B01AC0160E070E080E89FE30E94EDD748
:103F50000E9464DB7B018C0160938E0370938F035E
:103F6000809390039093910369A57AA58BA59CA556
:103F7000A80197010E94D2D8609392037093930393
:103F800080939403909395036DA17EA18FA198A532
:103F9000A80197010E94D2D86093791170937A1189
:103FA00080937B1190937C11AC96E2E10C945DDCE4
:103FB000A4E2B0E0EEEDFFE10C9449DC0E94931D19
:103FC0008DE797E06AE876ED0E94A3C30E94931DF7
:103FD0000E94D01168EE73E080E090E00E948AD6E3
:103FE0000E9456D660936F11709370118093711177
:103FF0009093721118E1A12E17E0B12EB5EDCB2EE2
:10400000B6E0DB2EA4E5EA2EA5E0FA2E8E010F5FC6
:104010001F4F0E9456D620916F1130917011409120
:10402000711150917211621B730B840B950B6530EB
:1040300071058105910508F4F1C00E9456D62091C2
:104040006F11621B6093731170E080E090E00E943A
:104050006BD920E030E04AE754E40E94D2D8609364
:104060008A0370938B0380938C0390938D030E943B
:1040700056D660936F117093701180937111909365
:1040800072110E94081F809174118F5F80937411C8
:10409000843011F40E94301F80917411843109F032
:1040A0005AC00E942F19109274118DB79EB7409775
:1040B0000FB6F8949EBF0FBE8DBFEDB7FEB7319619
:1040C000ADB7BEB71296FC92EE921197B382A28260
:1040D0008091C9079091CA07A091CB07B091CC07F6
:1040E00084839583A683B7838091CD079091CE0773
:1040F000A091CF07B091D00780879187A287B3871F
:104100008091D1079091D207A091D307B091D407A5
:1041100084879587A687B7870E948BC78DB79EB780
:1041200040960FB6F8949EBF0FBE8DBF8091E50AF2
:10413000882389F08CEE95E00E949893D801EAEFED
:10414000F7E084E201900D928150E1F78CEE95E06A
:10415000B8010E9473A0ADB7BEB75C970FB6F894D4
:10416000BEBF0FBEADBFEDB7FEB731961296FC9243
:10417000EE921197D382C28280918E0390918F0329
:10418000A0919003B091910384839583A683B78314
:104190008091751190917611A0917711B09178115D
:1041A00080879187A287B387809192039091930330
:1041B000A0919403B091950384879587A687B787CC
:1041C0008091791190917A11A0917B11B0917C111D
:1041D000808B918BA28BB38B8091960390919703E8
:1041E000A0919803B0919903848B958BA68BB78B84
:1041F00080917D1190917E11A0917F11B0918011DD
:10420000808F918FA28FB38F0E948BC78DB79EB77F
:104210004C960FB6F8949EBF0FBE8DBF84E595E017
:104220000E9402C8181619060CF0F3CE80E0A4967E
:10423000EAE00C9465DCAF92BF92CF92DF92EF92EE
:10424000FF920F931F937C018B01FB0167817085A7
:1042500081859285F7012781308541855285621BD2
:10426000730B840B950B0E946DD95B016C01F801F7
:104270006385748585859685F70123853485458515
:104280005685621B730B840B950B0E946DD9209190
:104290009C0330919D0340919E0350919F030E9487
:1042A000F7DA7B018C01C601B501A60195010E94D8
:1042B000F7DA5B016C01C801B701A80197010E9400
:1042C000F7DA9B01AC01C601B5010E94EED70E944E
:1042D00064DB28EC32E646E35CE30E94F7DA0E94F6
:1042E0003AD99B01AC01CA011F910F91FF90EF9049
:1042F000DF90CF90BF90AF900895CF92DF92FF9262
:104300000F931F93CF93DF930E94D01100D00F9291
:1043100004E515E0ADB7BEB712961C930E93119746
:1043200087E797E014969C938E9313970E948BC710
:104330000F900F900F900F9068EE73E080E090E088
:104340000E948AD683E7C82E87E0D82EC0E0D0E04E
:10435000F02E012F20C08AE895E06C2F0E948A86FB
:1043600000D000D0EDB7FEB73196ADB7BEB711960D
:10437000FC92119712960C93D382C2829583848308
:104380000E948BC72196EDB7FEB736960FB6F8940C
:10439000FEBF0FBEEDBFC930D105ECF284E595E05C
:1043A0000E940FD564E170E080E090E00E948AD620
:1043B00084E595E00E9402C8181619061CF0C0E0BA
:1043C000D0E0E9CF80E0DF91CF911F910F91FF9076
:1043D000DF90CF900895A0E0B0E0E1EFF1E20C941F
:1043E0004BDC0E94D01168EE73E080E090E00E9408
:1043F0008AD62CE7C22E27E0D22E94E5E92E95E04E
:10440000F92E6DE471E080E090E00E948AD60E946F
:104410003B1180911A1190911B110E94E3BDC09134
:104420001A11D0911B118FA1882309F445C08DB7B3
:104430009EB742970FB6F8949EBF0FBE8DBF0DB7C3
:104440001EB70F5F1F4FEDB7FEB7F282E182F80192
:10445000D382C2828C859D85AE85BF8584839583FA
:10446000A683B78388899989AA89BB898087918720
:10447000A287B3876C897D898E899F8924E630E085
:1044800040E050E00E9426DCF8012487358746870B
:1044900057878EA1808B118A0E948BC7E0911A11D9
:1044A000F0911B1117A28DB79EB742960FB6F894E4
:1044B0009EBF0FBE8DBF06C084E595E067E072E049
:1044C0000E943FD484E595E00E9402C818161906A0
:1044D0000CF097CF80E0CDB7DEB7E8E00C9467DC56
:1044E00000D00F9284E595E0EDB7FEB7928381830B
:1044F00089E098E0948383830E948BC70F900F908C
:104500000F900F908FE291E10E94049080E0089557
:1045100084E491E10E94049080E00895CF93DF93BA
:1045200000D00F92C4E5D5E0EDB7FEB7D283C183CA
:1045300085ED98E0948383830E948BC70F900F9042
:104540000F900F9080913B0B90913C0B84519540C4
:1045500064F168EE73E080E090E00E948AD600D0BB
:104560000F92EDB7FEB7D283C1838CEA98E09483B3
:1045700083830E948BC70F900F900F900F9068EE6F
:1045800073E080E090E00E948AD600D00F92EDB7F1
:10459000FEB7D283C18389E898E0948383830E9425
:1045A0008BC70F900F900F900F9086E391E10E94C0
:1045B000049080E0DF91CF91089588E291E10E941C
:1045C000049080E0089585EB9AE00E94288900D04D
:1045D0000F9284E595E0EDB7FEB7928381838DEB72
:1045E00099E0948383830E948BC70F900F900F9064
:1045F0000F900E947C1D8091C00A0E94541282E09C
:1046000090E00E9415170895A0E0B0E0EAE0F3E220
:104610000C944BDC00D00F9244E5E42E45E0F42EE0
:10462000ADB7BEB71296FC92EE9211978CE09AE06D
:1046300014969C938E9313970E948BC70F900F90A4
:104640000F900F900E947C1D8091E50A0E945412E9
:104650003CEEC32E35E0D32EC6010E945D98CDB747
:10466000DEB728970FB6F894DEBF0FBECDBF0DB7EB
:104670001EB70F5F1F4FFA82E9822CEF39E0F80175
:104680003383228321EE3EE245E652E40E94F7DACC
:10469000D80114966D937D938D939C9317970E94E8
:1046A0008BC7CDB7DEB728960FB6F894DEBF0FBE26
:1046B000CDBFC6010E9458989C01EDB7FEB7709718
:1046C0000FB6F894FEBF0FBEEDBF3196ADB7BEB7C3
:1046D0001296FC92EE9211978BED99E09383828370
:1046E000E90188819981AA81BB8184839583A6830E
:1046F000B7838C819D81AE81BF8180879187A2879E
:10470000B38788859985AA85BB8584879587A68781
:10471000B7870E948BC7EDB7FEB770960FB6F894B7
:10472000FEBF0FBEEDBF82E090E00E941517CDB72F
:10473000DEB7E8E00C9467DCFF920F931F93F82E2E
:104740008B0188E090E00E9415170E94B01D0E9426
:10475000D81D0E94F31D0E944A1E0E94E3220E945F
:10476000C11E0E94931D0E9404238F2DB8010E9438
:10477000D98E80E01F910F91FF900895FB01608911
:1047800071898289938925E33AEF4EE85CE30E94C0
:10479000F7DAAB01BC018CEE95E00E94F8A20E9412
:1047A000042380E0089500D00F9284E595E0EDB7F2
:1047B000FEB79283818388EC9AE0948383830E947E
:1047C0008BC781E08093F10A0F900F900F900F90AC
:1047D00086EE9AE00E94B78964E170E080E090E0A4
:1047E0000E948AD684E595E00E9402C81816190630
:1047F0009CF71092F10A86EE9AE00E94B78980E059
:10480000089564E170E080E090E00E948AD60E9402
:104810002F198091E30B9091E40B90938411809376
:104820008311909386118093851190938A118093C0
:1048300089112091260B3091270B4BE0293B34073F
:104840002CF0C29690938411809383112854344F96
:104850004CF48091851190918611C29690938611A7
:104860008093851180917A0B90917B0B895B9B40A3
:104870004CF08091891190918A11C29690938A117F
:1048800080938911409183115091841188E094E1C3
:1048900060E00E94D184409185115091861188E09A
:1048A00094E161E00E94D1844091891150918A1174
:1048B00088E094E163E00E94D18484E595E00E9461
:1048C00002C8181619060CF09CCF1092F10A86EE59
:1048D0009AE00E94B78980E00895FF920F931F939A
:1048E000CF93DF9300D00F9284E595E0EDB7FEB74C
:1048F0009283818381E69AE0948383830E948BC7AD
:104900000F900F900F900F900E94D011FF2410E095
:1049100064E170E080E090E00E948AD60E942F1946
:104920000E94F10F082FF816A1F090E0FC01EE0FA5
:10493000FF1FE80FF91FEE0FFF1FEE0FFF1FEA5BCF
:10494000F54F1385193008F018E0802F612F0E9471
:1049500026170E9499108823B1F01F5F193009F4BF
:1049600010E0802F90E0FC01EE0FFF1FE80FF91F11
:10497000EE0FFF1FEE0FFF1FEA5BF54F1387802F2F
:10498000612F0E94261784E595E00E9402C8F02E50
:10499000181619060CF0BCCFC6E4DAE0CE010E946E
:1049A000B7892C96FAE0CE38DF07C1F70E94601471
:1049B0000E94C11E80E0CDB7DEB7E5E00C946ADC52
:1049C000A4E2B0E0E6EEF4E20C944FDC80E090E08C
:1049D000A0E8BFE389839A83AB83BC8380E090E047
:1049E000A0E0B0E08D839E83AF83B88789879A87E4
:1049F000AB87BC878D879E87AF87B88B20E030E080
:104A000040E85FEB298B3A8B4B8B5C8B8D8B9E8BBD
:104A1000AF8BB88F898F9A8FAB8FBC8F8D8F9E8F06
:104A2000AF8FB8A329A33AA34BA35CA30CEE15E068
:104A3000C801BE016F5F7F4F0E94649389EC97E0CD
:104A4000B8010E9435A4C8010E94BC95C8010E940B
:104A50005898A496E4E00C946BDCCF93DF93FB01B1
:104A6000C285D385CE0167E47AE00E94EDDD892B13
:104A700021F481E08093C00A09C0CE0163E47AE0AA
:104A80000E94EDDD892B39F41092C00A85EB9AE083
:104A90000E94B78912C000D00F9284E595E0EDB76F
:104AA000FEB7928381838FE29AE0948383830E948E
:104AB0008BC70F900F900F900F900E94E32280E021
:104AC000DF91CF910895CF93DF93FB01EB012A96FD
:104AD000828593856DE57AE00E94EDDD892B19F4DE
:104AE0001092CC0A0FC02A813B814C815D81DA0192
:104AF000C9010197A109B1090497A105B10538F4CD
:104B00002093CC0A81EC9AE00E94B78912C000D0B1
:104B10000F9284E595E0EDB7FEB7928381838AE436
:104B20009AE0948383830E948BC70F900F900F901D
:104B30000F900E944A1E80E0DF91CF910895CF939D
:104B4000DF93FB01C285D385CE0164EA7BE00E943E
:104B5000EDDD892B11F481E019C0CE0162EA7BE022
:104B60000E94EDDD892B39F0CE0160EA7BE00E94E6
:104B7000EDDD892B19F41092FD0A0AC0CE016EE911
:104B80007BE00E94EDDD892B41F482E08093FD0AF9
:104B900082EF9AE00E94B78912C000D00F9284E59C
:104BA00095E0EDB7FEB7928381838CE89BE0948318
:104BB00083830E948BC70F900F900F900F900E94DD
:104BC000F31D80E0DF91CF910895ACE0B0E0EBEE13
:104BD000F5E20C944FDCFB0102851385C8016CE201
:104BE0007AE00E94EDDD892B51F481E08093E50AA3
:104BF0008AED9AE00E94B7890E94E0243CC0C80177
:104C000068E27AE00E94EDDD892B11F580E090E00A
:104C1000A0E0B0E089839A83AB83BC838D839E83BD
:104C2000AF83B88789879A87AB87BC878CEE95E07E
:104C3000BE016F5F7F4F0E943B988CEE95E00E9413
:104C400004A31092E50A8AED9AE00E94B78913C086
:104C500000D00F9284E595E0EDB7FEB79283818393
:104C600085E19AE0948383830E948BC70F900F9015
:104C70000F900F9004C08AED9AE00E94B7890E94BD
:104C8000042380E02C96E4E00C946BDC8DE797E045
:104C90006AE876ED0E948EC30E9432130E94931D33
:104CA00080E008950F931F93CF93DF9384E595E001
:104CB00069E072E00E9426D500E064E170E080E0E7
:104CC00090E00E948AD60E942F190F5F0436A9F740
:104CD000C091240BD091250B81E0C43FD8073CF450
:104CE00068EE73E080E090E00E948AD6F9CFD0931E
:104CF0003C0BC0933B0B2091780B3091790B309398
:104D0000900B20938F0B0091CC0B1091CD0B109337
:104D1000E40B0093E30B8091200C9091210C909375
:104D2000380C8093370CA091740CB091750CB09333
:104D30008C0CA0938B0CE091C80CF091C90CF093F3
:104D4000E00CE093DF0C60911C0D70911D0D7093D1
:104D5000340D6093330D4091700D5091710D50934F
:104D6000880D4093870DD093560BC093550B30930D
:104D7000AA0B2093A90B1093FE0B0093FD0B9093AD
:104D8000520C8093510CB093A60CA093A50CF093F9
:104D9000FA0CE093F90C70934E0D60934D0D509307
:104DA000A20D4093A10DD093490BC093480B3093B3
:104DB0009D0B20939C0B9093450C8093440C8CEDA1
:104DC00095E09093990C8093980C9093ED0C8093C0
:104DD000EC0C9093410D8093400D9093950D809332
:104DE000940D00D00F9284E595E0EDB7FEB7928365
:104DF000818386EA9BE0948383830E948BC70F9014
:104E00000F900F900F9064E170E080E090E00E94BE
:104E10008AD60E942F1989E19BE00E94A3CE8DE6DD
:104E20009BE00E94A3CE81EC9BE00E94A3CE85E193
:104E30009CE00E94A3CE89E69CE00E94A3CE8DEB6D
:104E40009CE00E94A3CE81E19DE00E94A3CE85E676
:104E50009DE00E94A3CE84E595E00E9402C818164A
:104E600019068CF664E170E080E090E00E948AD63A
:104E700084E595E00E947FC889E19BE00E94C4D050
:104E80008DE69BE00E94C4D081EC9BE00E94C4D0E0
:104E900085E19CE00E94C4D089E69CE00E94C4D0D9
:104EA0008DEB9CE00E94C4D081E19DE00E94C4D0C3
:104EB00085E69DE00E94C4D00E9460140E94D81D27
:104EC00080E0DF91CF911F910F91089500D00F9254
:104ED00084E595E0EDB7FEB79283818383E09CE0A3
:104EE000948383830E948BC70F900F900F900F9035
:104EF00084E595E00E9432C8FFEF8F3F9F07C1F322
:104F00008937910529F08935910511F08FEF0895C2
:104F10000E94938900D00F9284E595E0EDB7FEB72B
:104F2000928381838EED9BE0948383830E948BC761
:104F30000F900F900F900F9068EE73E080E090E07C
:104F40000E948AD6FFCFCF93DF9300D00F9284E5E3
:104F500095E0EDB7FEB79283818381E49CE0948372
:104F600083830E948BC7C0E0D0E00F900F900F901A
:104F70000F90CE0160E00E94EEE02196F0E1C0309B
:104F8000DF07B9F700D00F9284E595E0EDB7FEB7E3
:104F9000928381838BE39CE0948383830E948BC7FD
:104FA0000F900F900F900F90DF91CF9108950E9476
:104FB000A32780E00895EF92FF920F931F93CF9362
:104FC000DF937B018230A1F000D00F9284E595E061
:104FD000EDB7FEB79283818380E09DE09483838365
:104FE0000E948BC78FEF0F900F900F900F9091C082
:104FF000FB0102851385C8016CEF7CE00E94DADDBD
:10500000892B19F4CFEFDFEF63C0C8016EEE7CE0AF
:105010000E94DADDC0E0D0E0892B11F4C1E0D0E0DD
:10502000C80161EE7CE00E94DADD892B09F4C260E0
:10503000C8016DED7CE00E94DADD892B09F4C460C3
:10504000C8016AED7CE00E94DADD892B09F4C860B2
:10505000C80165ED7CE00E94DADD892B09F4C061AE
:10506000C80160ED7CE00E94DADD892B09F4C062A2
:10507000C8016BEC7CE00E94DADD892B09F4C06486
:10508000C80167EC7CE00E94DADD892B09F4C06876
:10509000C80163EC7CE00E94DADD892B09F4D16061
:1050A000C8016FEB7CE00E94DADD892B09F4D26045
:1050B000C80168EB7CE00E94DADD892B09F4D4603A
:1050C000C80160EB7CE00E94DADD892B09F4D8602E
:1050D000F7018081918169EA7CE00E94DADD892B09
:1050E00039F48091A60A9091A70AC82BD92B08C041
:1050F000C095D0958091A60A9091A70AC823D9237C
:10510000D093A70AC093A60A8BE99AE00E94B789B8
:1051100080E0CDB7DEB7E6E00C9469DCCF93DF9397
:1051200000D00F9284E595E0EDB7FEB792838183BE
:1051300080E29DE0948383830E948BC7C1E0D0E02E
:105140000F900F900F900F908EE095E1BE010E949E
:10515000E8C42196F0E1C030DF07B1F78EE095E1B9
:1051600061E070E00E94DCC48EE095E163EA0E9499
:1051700092C58EE095E165E90E9492C58EE095E1C9
:1051800060EF0E9492C58EE095E160E00E9492C5BA
:105190008EE095E16AEB0E9492C58EE095E10E9457
:1051A0000AC600D00F9284E595E0EDB7FEB7928372
:1051B000818382E19DE0948383830E948BC70F905B
:1051C0000F900F900F9080E0DF91CF910895CF92D4
:1051D000DF92EF92FF920F931F930EE015E1C8014B
:1051E0000E94F3C66C01C8010E94F3C67C01C8018D
:1051F0000E94F3C62DB73EB72A5030400FB6F89440
:105200003EBF0FBE2DBFEDB7FEB7319624E535E0AA
:10521000ADB7BEB712963C932E9311972FE33DE0A6
:1052200033832283D582C482F782E6829187808786
:105230000E948BC72DB73EB7265F3F4F0FB6F8943D
:105240003EBF0FBE2DBF1F910F91FF90EF90DF90DB
:10525000CF900895EF92FF920F931F9300D00F927B
:1052600004E515E0ADB7BEB712961C930E931197E7
:1052700086E59DE014969C938E9313970E948BC7AE
:105280000F900F900F900F908EE0E82E85E1F82E92
:10529000C7010E9482C6E82FF0E0EE0FFF1FE35225
:1052A000FC4F60817181C8010E943FD4C7010E94F8
:1052B000F3C600D000D0EDB7FEB73196ADB7BEB79C
:1052C00012961C930E93119720E53DE033832283C1
:1052D000958384830E948BC7EDB7FEB736960FB6D1
:1052E000F894FEBF0FBEEDBF1F910F91FF90EF909E
:1052F0000895A4E0B0E0EFE7F9E20C9441DC0EE0A1
:1053000015E1C8010E94F3C69A838983C8010E94EF
:10531000F3C69C838B83C8010E94F3C61C01C8019D
:105320000E94F3C62C01C8010E94F3C63C01C801CB
:105330000E94F3C64C01C8010E94F3C65C01C8017B
:105340000E94F3C66C01C8010E94F3C67C01C8012B
:105350000E94F3C62DB73EB7285130400FB6F894DF
:105360003EBF0FBE2DBFEDB7FEB7319624E535E049
:10537000ADB7BEB712963C932E9311972BE53DE047
:105380003383228329813A8135832483AB81BC8195
:10539000B783A683318620865386428675866486C7
:1053A00097868686B18AA08AD38AC28AF58AE48AD9
:1053B000978B868B0E948BC7EDB7FEB778960FB69A
:1053C000F894FEBF0FBEEDBF2496E2E10C945DDCC5
:1053D0007F928F929F92AF92BF92CF92DF92EF9285
:1053E000FF920F931F930EE015E1C8010E94F3C6D0
:1053F0004C01C8010E9482C6782EC8010E94F3C6E3
:105400005C01C8010E94F3C66C01C8010E94F3C68A
:105410007C01C8010E94F3C62DB73EB72051304031
:105420000FB6F8943EBF0FBE2DBFEDB7FEB7319655
:1054300024E535E0ADB7BEB712963C932E93119795
:1054400025E83DE033832283958284827682178229
:10545000B186A086D386C286F586E486978786873E
:105460000E948BC72DB73EB7205F3F4F0FB6F89411
:105470003EBF0FBE2DBF1F910F91FF90EF90DF90A9
:10548000CF90BF90AF909F908F907F900895AF92F4
:10549000BF92CF92DF92EF92FF920F931F930EE095
:1054A00015E1C8010E94F3C65C01C8010E94F3C661
:1054B0006C01C8010E94F3C67C01C8010E94F3C6BA
:1054C0002DB73EB72C5030400FB6F8943EBF0FBEFC
:1054D0002DBFEDB7FEB7319624E535E0ADB7BEB7C9
:1054E00012963C932E93119729E23EE03383228358
:1054F000B582A482D782C682F186E08693878287AE
:105500000E948BC72DB73EB7245F3F4F0FB6F8946C
:105510003EBF0FBE2DBF1F910F91FF90EF90DF9008
:10552000CF90BF90AF9008951F938EE095E161E01A
:1055300070E00E9409C710E08EE095E10E9482C6EB
:10554000113051F0113018F0123099F408C010E009
:10555000833A79F411E00DC0853951F407C0803FDA
:1055600039F48EE095E10E9482C60AC012E001C0C3
:1055700010E08EE095E10E9443C40197E9F280E0DB
:105580001F910895EF92FF920F931F93CF93DF9394
:105590008C01C0E0D0E11FC0CE01800F911F62E0FE
:1055A00070E00E94F1DBF62EE72E8EE095E10E947E
:1055B00009C78EE095E10E94B2C66F5F7F4F8F4FA3
:1055C0009F4F29F48F2D9E2D9C01E90104C08F2D42
:1055D0009E2D9C018901CE01801B910B0297E4F660
:1055E000CE01CDB7DEB7E6E00C9469DCA0E0B0E018
:1055F000ECEFFAE20C9449DCE82E6B015A018EE0E4
:1056000095E161E070E00E9409C710E08EE095E14D
:105610000E9482C6113051F0113018F01230A9F5F5
:1056200008C010E0833A89F511E02FC0853961F593
:1056300029C0803F49F58EE095E10E9482C6F82E90
:10564000C0E0D0E00E2D10E00FC08EE095E10E948A
:10565000F3C6F601918380838EE095E10E94F3C644
:10566000F501918380832196C017D10774F3EF145D
:1056700099F4F601808191810E94C22AF5019183FB
:1056800080830AC012E001C010E08EE095E10E9424
:1056900043C4019709F4BACFCDB7DEB7EAE00C9462
:1056A00065DCA4E0B0E0E7E5FBE20C9445DC0E9499
:1056B000942AD82E00D00F9204E515E0ADB7BEB7FE
:1056C00012961C930E9311978FE891E114969C9378
:1056D0008E9313970E948BC78091A60A9091A70A78
:1056E0000F900F900F900F90009759F400D00F92E9
:1056F000EDB7FEB7128301838AE891E19483838337
:1057000008C180FF14C000D00F92ADB7BEB712968B
:105710001C930E9311978BE791E114969C938E93B3
:1057200013970E948BC70F900F900F900F9080914E
:10573000A60A81FF12C000D00F9284E595E0EDB774
:10574000FEB7928381838DE691E1948383830E94E7
:105750008BC70F900F900F900F908091A60A82FF39
:1057600016C000D00F9284E595E0ADB7BEB7129693
:105770009C938E93119788E691E114969C938E9357
:1057800013970E948BC70F900F900F900F908091EE
:10579000A60A83FF12C000D00F9284E595E0EDB712
:1057A000FEB79283818384E691E1948383830E9490
:1057B0008BC70F900F900F900F908091A60A84FFD7
:1057C00016C000D00F9284E595E0ADB7BEB7129633
:1057D0009C938E9311978EE591E114969C938E93F2
:1057E00013970E948BC70F900F900F900F9080918E
:1057F000A60A85FF12C000D00F9284E595E0EDB7B0
:10580000FEB79283818388E591E1948383830E942C
:105810008BC70F900F900F900F908091A60A87FF73
:1058200016C000D00F9284E595E0ADB7BEB71296D2
:105830009C938E93119783E591E114969C938E939C
:1058400013970E948BC70F900F900F900F9080912D
:10585000A60A9091A70A90FF12C000D00F9284E58B
:1058600095E0EDB7FEB7928381838EE491E1948356
:1058700083830E948BC70F900F900F900F908091A1
:10588000A60A9091A70A91FF16C000D00F9284E556
:1058900095E0ADB7BEB712969C938E93119785E4B1
:1058A00091E114969C938E9313970E948BC70F904F
:1058B0000F900F900F908091A60A9091A70A92FFE7
:1058C00012C000D00F9284E595E0EDB7FEB7928349
:1058D00081838DE391E1948383830E948BC70F9032
:1058E0000F900F900F908091A60A9091A70A93FFB6
:1058F00016C000D00F9284E595E0ADB7BEB7129602
:105900009C938E93119784E391E114969C938E93CC
:1059100013970E948BC70F900F900F900F9034E554
:10592000E32E35E0F32EC7010E940FD5DD2089F468
:1059300000D00F92EDB7FEB7F282E1828AE191E1E9
:10594000948383830E948BC70F900F900F900F90CA
:1059500064C0CD2CDD2400D000D0EDB7FEB7319669
:10596000ADB7BEB71296FC92EE92119780E191E12D
:1059700093838283D582C4820E948BC72FEE622ECE
:1059800020E1722E01E010E0EDB7FEB736960FB6BB
:10599000F894FEBF0FBEEDBF470193E0A92EB12CD6
:1059A000AC0EBD1E7E010894E11CF11C2FC0802F9F
:1059B000B701A5010E94F62A8DB79EB70A970FB6C8
:1059C000F8949EBF0FBE8DBFEDB7FEB73196ADB751
:1059D000BEB711968C92119712969C927382628236
:1059E0001583048389819A81978386838B819C8127
:1059F000918780870E948BC70F5F1F4FEDB7FEB75F
:105A00003A960FB6F894FEBF0FBEEDBFC016D10692
:105A100074F684E595E00E940FD581E02496EEE0CF
:105A20000C9461DCA1E0B0E0E8E1FDE20C9441DC23
:105A30000EE015E1C8010E94B2C66B017C01C801ED
:105A40000E94F3C63C01C8010E94F3C64C01C80184
:105A50000E9482C68983C8010E9482C6282EC8017E
:105A60000E9482C6382EC8010E9482C6482EC801F4
:105A70000E9482C6582EC8010E94F3C65C01C8016C
:105A80000E94B2C62DB73EB72C5130400FB6F894E5
:105A90003EBF0FBE2DBFEDB7FEB7319624E535E012
:105AA000ADB7BEB712963C932E93119723EA3DE013
:105AB00033832283C482D582E682F7827186608630
:105AC00093868286B981B487158626861786308AA2
:105AD000118A428A138A548A158AB78AA68A608FE5
