:100000000C94AB0B0C94D50B0C94D50B0C94D50B1A
:100010000C94D50B0C94D50B0C94D50B0C94D50BE0
:100020000C94D50B0C94D50B0C94D50B0C94D50BD0
:100030000C94D50B0C94D50B0C94D50B0C94F48725
:100040000C94D50B0C94D50B0C94D50B0C94D50BB0
:100050000C94D50B0C94D50B0C94D50B0C94FFD7AA
:100060000C94D50B0C94410E0C94810E0C94D50B72
:100070000C94D50B0C94D50B0C94D50B0C94D50B80
:100080000C94D50B0C94D50B0C94D50B0C94D50B70
:100090000C94D30E0C94130F0C94D50B0C9475D4B4
:1000A0000C94D50B0C9453860C94D50B0C94D50B57
:1000B0000C94D50B0C94D50B0C94D50B0C94D50B40
:1000C0000C94D50B0C94D50B0C94D50B0C94D50B30
:1000D0000C94D50B0C94D50B0C94650F0C94A50FB8
:1000E0000C94D50B3D1D5E1DD51D671E931DB41DC3
:1000F000EE1D071E201E391E571E2D324E32303285
:100100003332363239323C323F3242324532483273
:100110004B32173E173E3B3EAA3E7F3EC53EE03E79
:100120000D3F4B3F923F18591459215927594359B4
:10013000875973599E595F59715A9D5AA65AA95A9F
:10014000AC5AEF62AF5AEF62EF62EF62B25AB55A41
:10015000B85AD85AD65AD65AD65AE45AD65ADA5A29
:10016000D65AD65AE75AF65AE95AEC5AD65AD65AB5
:10017000D65AEF5AD65AD65AD65AD65AD65AF65AC6
:10018000D65AF85ACA86CF86D486D986DE86E386C2
:10019000E886ED86F286F786FC8682BD7DBD86BD4B
:1001A0008ABD98BDB1BDDBBDECBD2BBF26BF2FBF47
:1001B00038BF5FBF6BBF85BFA6BFADBF3CD93FD9BE
:1001C00032D936D978D943D947D94DD951D955D90A
:1001D0005BD95FD963D969D96DD973D9036EDB3621
:1001E0003D9A9999993DABAAAA2A3E000000803F0A
:1001F000084AD73B3BCE016E84BCBFFDC12F3D6C8E
:1002000074319ABD56833DDA3D00C77F11BED9E4F3
:10021000BB4C3E916BAAAABE000000803F072C7A1F
:10022000A5BA6CC590DA3B9365FC8BBC53F810FD06
:100230003C5692834DBD879D3AB63DCBC9BF5BBE50
:1002400073DA0FC93F05A84CCDB2D44EB93836A9E0
:10025000020C50B9918688083CA6AAAA2ABE0000C2
:1002600000803F08000000BE922449123EABAAAABB
:100270002ABECDCCCC4C3E00000080BEABAAAAAAC0
:100280003E00000000BF000000803F0000000000B2
:10029000084178D3BB4387D1133D190E3CC3BD42FF
:1002A00082AD2B3E68EC8276BED98FE1A93E4C80B0
:1002B000EFFFBE01C4FF7F3F00000000004C6F67EE
:1002C0000064756D70000000000000000000006117
:1002D000326572617365000000000000000000B923
:1002E0002A656E61626C6500000000000000000677
:1002F0002A64697361626C650000000000000006FA
:100300002A68656C70000000000000000000009288
:1003100014706C616E6E657200676373000000009C
:100320000000000000000091647365747570006542
:1003300072617365000000000000000000022A7274
:1003400065736574000000000000000000912972D0
:100350006164696F0000000000000000007D2866F5
:1003600072616D65000000000000000000CA276D8A
:100370006F746F72730000000000000000EF2565CD
:1003800073630000000000000000000000C1256C45
:100390006576656C00000000000000000071286DAB
:1003A0006F64657300000000000000000098266282
:1003B000617474657279000000000000008E27737C
:1003C0006F6E61720000000000000000005827639B
:1003D0006F6D7061737300000000000000102874DE
:1003E000756E6500000000000000000000B5256487
:1003F00065636C696E6174696F6E000000A025739F
:10040000686F77000000000000000000007E2541BA
:10041000726475436F7074657220322E302E3431E1
:100420002042657461006C6F67730000000000007B
:1004300000000000BF2473657475700000000000A8
:100440000000000070247465737400000000000058
:10045000000000006A2468656C7000000000000065
:10046000000000009713706C616E6E6572000000F2
:10047000000000005224746573740070776D0000F2
:10048000000000000000000000271A726164696F1C
:10049000000000000000000000BB196661696C7379
:1004A000616665000000000000E7106770730000DF
:1004B000000000000000000000CD23616463000024
:1004C0000000000000000000005E23696D75000060
:1004D000000000000000000000B921626174746532
:1004E000727900000000000000F71274756E65005C
:1004F000000000000000000000681E747269000027
:10050000000000000000000000B11C6375727265FD
:100510006E7400000000000000281C72656C617998
:100520000000000000000000009D12776179706FEC
:10053000696E747300000000000E18616C746974B9
:10054000756465000000000000FA16736F6E61723A
:10055000000000000000000000D415636F6D7061A2
:100560007373000000000000001C157862656500D0
:100570000000000000000000004112656564756D18
:10058000700000000000000000B91472617767700D
:10059000730000000000000000021248697420454A
:1005A0006E74657220746F20657869742E0A0A0073
:1005B000202530327800253034783A00426567696A
:1005C0006E205842656520582D4354552052616E67
:1005D000676520616E6420525353492054657374DB
:1005E0003A0A00436F6D706173733A200048656189
:1005F00064696E673A20256C642C2058595A3A2059
:1006000025642C2025642C2025640A0061626C6519
:10061000640A0064697300656E00536F6E61723A1C
:1006200020256420636D0A00536F6E617220646937
:100630007361626C65640A004261726F3A202564DE
:10064000636D0A00486974207261643A2025640A67
:100650000025642077700A006F662025646D0A000B
:100660000A00486F6C6420616C742000636F6D6DCC
:10067000616E6420233A2025642069643A25642051
:100680006F703A25642070313A25642070323A2523
:100690006C642070333A256C642070343A256C64A5
:1006A000200A0052656C6179206F66660A00526507
:1006B0006C6179206F6E0A00563A2025342E34661C
:1006C0002C20413A2025342E34662C206D41683A86
:1006D0002025342E34660A00696E7075743A202520
:1006E00064096F757470757425640A0074756E659D
:1006F0003A2025312E33660A004E6F7420656E61F4
:10070000626C65640A0063703A2025312E32662CD3
:100710002073703A2025312E32662C2063723A20E5
:1007200025312E32662C2073723A2025312E326606
:100730002C2063793A2025312E32662C2073793AA9
:100740002025312E32662C0A00256C642C20256C65
:10075000642C20256C640A00494D550A00477972C3
:100760006F206F6666736574733A2025342E326687
:100770002C2025342E32662C2025342E32660A0099
:10078000416363656C206F6666736574733A2025F8
:10079000342E32662C2025342E32662C2025342E21
:1007A00032660A0025642C004144430A004C6174FF
:1007B0003A20256C642C204C6F6E20256C642C2014
:1007C000416C743A20256C646D2C20237361747322
:1007D0003A2025640A00494E2020313A2025640938
:1007E000323A20256409333A20256409343A202519
:1007F0006409353A20256409363A20256409373AD8
:100800002025640A00494E3A20313A2025640932F5
:100810003A20256409333A20256409343A202564B6
:1008200009353A20256409363A20256409373A20EB
:10083000256409383A2025640A00506C616E6E65A3
:1008400072204D6F64650A4E6F7420696E74656E18
:1008500064656420666F72206D616E75616C2075D1
:1008600073650A0A00436F6D6D616E64733A0A2006
:10087000206C6F67730A202073657475700A2020DE
:10088000746573740A2020706C616E6E65720A0A5A
:100890004D6F76652074686520736C69646520739C
:1008A000776974636820616E642072657365742073
:1008B000746F20464C592E0A0A000A20547970653C
:1008C0002027726164696F2720746F20636F6E66E2
:1008D0006967757265206E6F772E0A0A000A2157C4
:1008E00061726E696E672C20796F75722072616417
:1008F000696F206973206E6F7420636F6E6669671D
:100900007572656421005365747570204D6F646560
:100910000A0A0A0046572056657273696F6E2025D1
:10092000640A00526164696F0A004348373A20251F
:1009300064207C2025640A004348363A2025642040
:100940007C2025640A004348353A202564207C2019
:1009500025640A004348343A202564207C2025641D
:100960000A004348333A202564207C2025640A008D
:100970004348323A202564207C2025640A004348FD
:10098000313A202564207C2025640A0056206D6FB2
:1009900064650A002B206D6F64650A0058206D6F36
:1009A00064650A005936206672616D650A004672F8
:1009B000616D650A00766F6C747320616E642063EC
:1009C0007572006261747420766F6C7473003420E9
:1009D00063656C6C7300332063656C6C73000A4252
:1009E000617474204D6F696E746F720A00536F6E7C
:1009F00061720A00466C69676874206D6F64657384
:100A00000A00506F732025643A20004D6167206F03
:100A10006666736574733A2025342E34662C20255F
:100A2000342E34662C2025342E3466004D61672028
:100A30004465633A2025342E34660A00436F6D7096
:100A40006173730A002025640A000A54554E453A22
:100A50000A000A4F7074696F6E733A5B6F6E2C6F89
:100A600066665D0A006F6666006F6E000A4F7074FE
:100A7000696F6E733A5B6F6E2C206F66665D0A005D
:100A80006F6666006F6E000A4F7074696F6E733A1E
:100A9000206F66662C20312D34006F6666000A4D8B
:100AA0006F766520524320746F67676C652073779B
:100AB0006974636820746F206561636820706F7368
:100AC0006974696F6E20746F20656469742C206D81
:100AD0006F76652061696C65726F6E2073746963EF
:100AE0006B20746F2073656C656374206D6F646533
:100AF000732E000A53617665642053657474696EC1
:100B000067730A0A000A4553432043616C696272A5
:100B10006174696F6E3A0A2D3120556E706C75677D
:100B20002055534220616E6420626174746572794D
:100B30000A2D32204D6F766520434C492F464C5983
:100B40002073776974636820746F20464C59206D58
:100B50006F64650A2D33204D6F7665207468726F5F
:100B600074746C6520746F206D61782C20636F6ED7
:100B70006E65637420626174746572790A2D342025
:100B800041667465722074776F206C6F6E672062A7
:100B9000656570732C207468726F74746C65207452
:100BA0006F20302C207468656E20746573740A0A97
:100BB00020507265737320456E74657220746F20C7
:100BC00063616E63656C2E0A000A4F7074696F6E04
:100BD000733A5B782C2B2C765D0A0076002B007024
:100BE0000078000A4D6F766520616C6C20636F6E33
:100BF00074726F6C7320746F206561636820657810
:100C00007472656D652E2048697420456E74657236
:100C100020746F20736176653A20000A4641435480
:100C20004F525920524553455420636F6D706C6587
:100C30007465202D207265626F6F742041504D00E5
:100C40000A275927202B20456E74657220746F2067
:100C5000666163746F72792072657365742C2061AC
:100C60006E79206F74686572206B657920746F20CF
:100C700061626F72743A0A00646F6E650A000A4519
:100C8000726173696E6720454550524F4D0A000AE4
:100C9000436F6D6D616E64733A0A202064756D70E8
:100CA000203C6E3E202065726173652028616C6C6B
:100CB000206C6F6773290A2020656E61626C652065
:100CC0003C6E616D653E207C20616C6C0A20206466
:100CD000697361626C65203C6E616D653E207C20AD
:100CE000616C6C0A0A00656E61626C65004F50545D
:100CF000464C4F57004D4F544F52530043555200EE
:100D0000434D4400524157004D4F4445004E545509
:100D10004E004354554E00504D004750530041542F
:100D20005449545544455F4D454400415454495439
:100D30005544455F4641535400616C6C006D6973C6
:100D400073696E67206C6F6720747970650A000A9A
:100D50004C6F67206572617365642E0A000A4572E4
:100D60006173696E67206C6F672E2E2E0A006261B8
:100D700064206C6F6720232025640A004154542CA2
:100D80002025642C2025642C2025750A002C202584
:100D9000640A004D4F443A004354554E2C202564BC
:100DA0002C2025642C2025642C2025642C202564EF
:100DB0002C2025642C2025642C2025642C202564DF
:100DC0000A004E54554E2C2025642C2025642C20DE
:100DD00025642C2025642C2025642C2025640A0001
:100DE000504D2C20256C642C2025642C2025642C4F
:100DF0002025642C2025642C2025642C2025642C9F
:100E00002025642C2025642C20256C640A00524186
:100E1000572C00434D442C2025642C2025642C2085
:100E200025642C2025642C2025642C20256C642C22
:100E300020256C642C20256C640A00435552523ADC
:100E40002025642C20256C642C2025342E34662C1F
:100E50002025342E34662C2025640A005354415238
:100E6000542055500A004D4F543A2025642C20251B
:100E7000642C2025642C2025640A004F462C202554
:100E8000642C2025642C2025642C2025342E3766E4
:100E90002C2025342E37660A004750532C20256C11
:100EA000642C2025642C2025642C2025342E3766C4
:100EB0002C2025342E37662C2025342E34662C2009
:100EC00025342E34662C2025642C2025750A0058E4
:100ED000545241434B5F005448525F484F4C445F6B
:100EE000004E41565F4C4F4E5F004E41565F4C41A5
:100EF000545F00484C445F4C4F4E5F00484C445F89
:100F00004C41545F005354425F5941575F00535462
:100F1000425F5049545F005354425F524C4C5F0053
:100F2000524154455F5941575F00524154455F500B
:100F300049545F00524154455F524C4C5F0052434C
:100F40005F43525F0052435F43505F005243385F3C
:100F5000005243375F005243365F005243355F0013
:100F60005243345F005243335F005243325F0052BA
:100F700043315F00464C4F575F454E41424C450060
:100F800054425F524154494F004652414D4500542E
:100F9000554E4500455343004D41475F454E414244
:100FA0004C4500424154545F4341504143495459D8
:100FB00000424154545F4D4F4E49544F5200534FDD
:100FC0004E41525F454E41424C4500414C545F48B2
:100FD0004F4C445F52544C004C4F475F4249544D74
:100FE00041534B0050495443485F4D415800464CD3
:100FF000544D4F44453600464C544D4F4445350002
:10100000464C544D4F44453400464C544D4F444596
:101010003300464C544D4F44453200464C544D4FDE
:10102000444531005452494D5F5448524F54544C3A
:1010300045005448525F46535F56414C5545005455
:1010400048525F46535F414354494F4E0054485203
:101050005F4641494C53414645005448525F4D411B
:1010600058005448525F4D494E0057505F53504509
:1010700045445F4D41580057505F4C4F49544552CD
:101080005F5241440057505F524144495553005705
:10109000505F4D5553545F494E4445580057505F7B
:1010A000494E4445580057505F544F54414C0057E7
:1010B000505F4D4F4445005854524B5F414E474C92
:1010C000455F43440053455249414C335F424155CB
:1010D000440053595349445F4D59474353005359B2
:1010E0005349445F544849534D415600535953495D
:1010F000445F53575F545950450053595349445F17
:1011000053575F4D52455600524556004D415800C9
:101110005452494D004D494E00494D415800490037
:101120005000494D555F53454E534F525F43414C1C
:10113000004C6F6720232025642C2020202073740E
:101140006172742025642C202020656E6420256443
:101150000A000A2564206C6F67730A000A4E6F202C
:101160006C6F67730A54797065202764756D702001
:1011700030272E0A0A00204F5054464C4F5700206B
:101180004D4F544F5253002043555252454E540038
:1011900020434D44002052415700204E54554E00EC
:1011A000204354554E0020504D00204750530020FE
:1011B00041545449545544455F4D454400204154E1
:1011C0005449545544455F46415354006E6F6E6513
:1011D000006C6F677320656E61626C65643A200015
:1011E000666C6967687420706C616E2072656365F7
:1011F0006976656400616374696F6E20726563650A
:10120000697665643A20006572726F723A206E6F7B
:101210006E2D4E617620636D64006F7574206F666D
:1012200020636F6D6D616E64732100776179706FFB
:10123000696E7420726563656976652074696D6591
:101240006F757400776179706F696E742073656E65
:10125000642074696D656F7574004558545241334C
:1012600000455854524132004558545241310050C3
:101270004F534954494F4E005241575F4354524CCB
:101280000052435F4348414E004558545F53544118
:1012900054005241575F53454E53005352335F0041
:1012A0005352305F005265616368656420686F6DFA
:1012B000650047524F554E44205354415254000A42
:1012C000456E746572696E6720696E7465726163DC
:1012D00074697665207365747570206D6F64652E12
:1012E0002E2E0A0A54797065202768656C702720B5
:1012F000746F206C69737420636F6D6D616E6473BD
:101300002C2027657869742720746F206C656176BE
:10131000652061207375626D656E752E0A5669735E
:101320006974207468652027736574757027206D53
:10133000656E7520666F722066697273742D7469AC
:101340006D6520636F6E66696775726174696F6E33
:101350002E0A0A00506C656173652052756E205329
:10136000657475702E2E2E0A004669726D77617253
:1013700065206368616E67653A2065726173696EA6
:101380006720454550524F4D2E2E2E0A000A0A491D
:101390006E69742041434D0A0A52414D3A20256C32
:1013A000750A00496E76616C696420534552494163
:1013B0004C335F42415544004C6F67732066756C37
:1013C0006C000A4750530A00253033753A25733AAA
:1013D00020006E6F7420666F756E64002530337563
:1013E0003A252D33322E3332733A2000756E6B6EF0
:1013F0006F776E2074797065006E6F7420666F75FC
:101400006E640025733A20006D697373696E6720FE
:101410006E616D65206F722076616C7565003F3F6F
:1014200000256400256400256C640025660025669F
:1014300000657869740068656C700044454300433A
:101440004F4D504153535F00245047434D442C317E
:10145000362C302C302C302C302C302A36410D0AD2
:101460000024505542582C34312C312C303030333C
:101470002C303030312C33383430302C302A323666
:101480000024505352463130302C302C3338343015
:10149000302C382C312C302A3343002053695246EB
:1014A0002000204D544B312E3620002075626C6F89
:1014B000782000204D544B312E3420006661696C39
:1014C00065642C207265747279696E67004F4B00F9
:1014D00020002A00496E697420416363656C002A0C
:1014E00000496E6974204779726F006E616E006901
:1014F0006E660000407A10F35A00A0724E18090080
:1015000010A5D4E80000E87648170000E40B540268
:101510000000CA9A3B000000E1F5050000809698A3
:1015200000000040420F000000A0860100000010F3
:101530002700000000E80300000000640000000035
:10154000000A00000000000100000000002C76D816
:1015500088DC674F0823DFC1DFAE59E1B1B796E5FC
:10156000E3E453C63AE651997696E8E6C28426EB60
:10157000898C9B62ED407C6FFCEFBC9C9F40F2BA73
:10158000A56FA5F490055A2AF75C936B6CF9676D0B
:10159000C11BFCE0E40D47FEF520E6B500D0ED9060
:1015A0002E0300943577050080841E080000204E2D
:1015B0000A000000C80C333333330F986E128311C6
:1015C00041EF8D2114893BE65516CFFEE6DB18D19D
:1015D000844B381BF77C1D901DA4BBE4242032846F
:1015E000725E228100C9F124ECA1E53D27000021B3
:1015F00000240027002A002D0030003300010100E4
:1016000000040107010A0100002200250028002B28
:10161000002E003100340002010000050108010B1A
:1016200001000020002300260029002C002F00329A
:101630000000010000030106010901050505050779
:101640000508080808020202020A0A08080404043D
:101650000401010101010101010303030303030369
:1016600003040707070C0C0C0C0C0C0C0C020202F8
:101670000206060606060606060B0B0B0B0B0B0BEB
:101680000B0102102020080810204010204080028A
:1016900001020108040201010204081020408080B8
:1016A000402010080402018004020180402010083C
:1016B0000402010804020101020408102040800114
:1016C000020408102040800000090A02080B0C0DDB
:1016D00007060304010000000000000000000000F5
:1016E00000000000000000000000000000000000FA
:1016F000000000100F0E00000000000000000000BD
:1017000000000000000000000000000000494E46FC
:10171000494E4954594E414ECDCCCC3D0AD7233C7D
:1017200017B7D13877CC2B329595E6241FB14F0AE5
:10173000000020410000C84200401C4620BCBE4CB6
:10174000CA1B0E5AAEC59D74943D838705903BC657
:1017500079D38D3DFE8F11241FBECFEFD1E2DEBFC6
:10176000CDBF15E0A0E0B2E0E8E7F9EC01E00BBF87
:1017700002C007900D92A435B107D9F716E1A4E590
:10178000B5E001C01D92A733B107E1F717E1C2E54B
:10179000D7E104C02297FE010E946BDEC834D10756
:1017A000C9F70E94F4D50C94AFE40C9400002830E3
:1017B00008F027E03327DA01990F311D87FD91608A
:1017C00000966105710539F432602E5F3D9330E378
:1017D0002A95E1F708959F3F30F080387105610543
:1017E00009F03C5F3C5F3D93913008F08068911DAB
:1017F000DF93CF931F930F93FF92EF92192F987F50
:101800009695E92F96959695E90FFF27E35BFA4E9B
:1018100099273327EE24FF24A701E70105900894B8
:10182000079428F4360FE71EF81E491F511D660F56
:10183000771F881F991F0694A1F70590079428F435
:10184000E70EF81E491F561FC11D770F881F991FED
:10185000661F0694A1F70590079428F4F80E491F17
:10186000561FC71FD11D880F991F661F771F06942B
:10187000A1F70590079420F4490F561FC71FD81FE2
:10188000990F661F771F881F0694A9F784911095FA
:10189000177041F0D695C79557954795F794E794FB
:1018A0001A95C1F7E3EFF4E168941590159135911D
:1018B0006591959105907FE27395E118F10A430BCC
:1018C000560BC90BD009C0F7E10CF11E431F561F80
:1018D000C91FD01D7EF4703311F48A95E6CFE894C9
:1018E000015030F0080F0AF40027021708F4202FE7
:1018F0002395022F7A3328F079E37D932A95E9F72F
:1019000010C07D932A9589F606949795679537952B
:1019100017951794E118F10A430B560BC90BD00920
:1019200098F023957E9173957A3308F070E37C9359
:101930002013B8F77E9170617D9330F0839571E349
:101940007D9370E32A95E1F71124EF90FF900F91BA
:101950001F91CF91DF91992787FD90950895FA0106
:10196000AA27283051F1203181F1E8946F936E7FDE
:101970006E5F7F4F8F4F9F4FAF4FB1E03ED0B4E0CF
:101980003CD0670F781F891F9A1FA11D680F791F10
:101990008A1F911DA11D6A0F711D811D911DA11D21
:1019A00020D009F468943F912AE0269F1124301931
:1019B000305D3193DEF6CF010895462F4770405DCC
:1019C0004193B3E00FD0C9F7F6CF462F4F70405D7B
:1019D0004A3318F0495D31FD4052419302D0A9F7D6
:1019E000EACFB4E0A6959795879577956795BA95D0
:1019F000C9F700976105710508959B01AC010A2E96
:101A000006945795479537952795BA95C9F7620F6C
:101A1000731F841F951FA01D0895CF93DF93FC01B2
:101A2000EB014230510570F063857485858596859C
:101A300020E030E040E854E40E94E8DC0E9430DB23
:101A40007983688382E090E0DF91CF910895CF930E
:101A5000DF93EC01FB014230510518F420E030E047
:101A600012C06081718180E090E00E945CDB20E028
:101A700030E040E85AE30E94E8DC6B877C878D8782
:101A80009E8722E030E0C901DF91CF910895FB01EC
:101A900090819827292F2295207F292730E0522FE7
:101AA0004427C90163E0880F991F6A95E1F7482729
:101AB0005927818190E04827592784E0359527955B
:101AC0008A95E1F742275327518340830895A0E088
:101AD000B0E0EDE6FDE00C943CDE8C016B017A0198
:101AE000C0E0D0E01CC0F601EC0FFD1F60810115C5
:101AF000110521F00130110589F405C0E0916F1541
:101B0000F091701504C0E0917115F0917215A081EB
:101B1000B1812D913C91CF01F90109952196CE1506
:101B2000DF0508F3CDB7DEB7E8E00C9458DEACE093
:101B3000B0E0EDE9FDE00C9437DEB82E992E842E4E
:101B4000752EA22E282F30E085E58F83A886F90117
:101B5000EE0FFF1FE20FF31FEE0FFF1FEE0FFF1F31
:101B6000ED55FE4E978199878091D6038A878091A3
:101B7000D7038B876C879F5F97838FEF9FEF9E8341
:101B80008D838E01085F1F4FFDE0CF2ED12CCC0E30
:101B9000DD1EE5E0EE2EF12CEC0EFD1E06C0F80178
:101BA00081918F01B7010E94470D0C151D05B9F7F2
:101BB0008D819E819A838983282D372DC9017C01CF
:101BC0001A2D6E010894C11CD11C07C0F701819128
:101BD0007F01B6010E94470D11501123B9F7898189
:101BE0009A818B839C838B2D992DBE01695F7F4FDA
:101BF00046E050E00E94670D8B2D992D682D772DC2
:101C00004A2D50E00E94670D8B2D992DBE016D5F0E
:101C10007F4F42E050E00E94670D2C96EDE00C945F
:101C200053DEDC01FB0183818C93828111968C93BE
:101C30001197818112968C931297808113968C93C1
:101C40000895DC01FB0187818C93868111968C932A
:101C50001197858112968C931297848113968C9399
:101C60001397838114968C931497828115968C9385
:101C70001597818116968C931697808117968C9371
:101C800008951F920F920FB60F920BB60F92112468
:101C90002F933F934F938F939F93EF93FF93409195
:101CA000C60020912F15309130152F5F3F4F809146
:101CB0003315909134152823392380913115909153
:101CC00032152817390779F080912F15909130152A
:101CD000E0913515F0913615E80FF91F40833093E8
:101CE000301520932F15FF91EF919F918F914F9178
:101CF0003F912F910F900BBE0F900FBE0F901F9032
:101D000018951F920F920FB60F920BB60F921124D7
:101D10002F933F938F939F93EF93FF9320915115B0
:101D20003091521580914F15909150152817390711
:101D3000E9F08091511590915215E0915515F0916F
:101D40005615E80FF91F80818093C60080915115C8
:101D5000909152150196209153153091541582237C
:101D60009323909352158093511510C020914F15D5
:101D700030915015809151159091521528173907BF
:101D800029F48091C1008F7D8093C100FF91EF9174
:101D90009F918F913F912F910F900BBE0F900FBE8F
:101DA0000F901F9018951F920F920FB60F920BB6BF
:101DB0000F9211242F933F934F938F939F93EF9301
:101DC000FF934091CE0020913715309138152F5F49
:101DD0003F4F80913B1590913C15282339238091EA
:101DE000391590913A152817390779F080913715F0
:101DF00090913815E0913D15F0913E15E80FF91FCF
:101E000040833093381520933715FF91EF919F91C0
:101E10008F914F913F912F910F900BBE0F900FBE5E
:101E20000F901F9018951F920F920FB60F920BB63E
:101E30000F9211242F933F938F939F93EF93FF93D0
:101E40002091591530915A15809157159091581538
:101E500028173907E9F08091591590915A15E091AA
:101E60005D15F0915E15E80FF91F80818093CE001B
:101E70008091591590915A15019620915B153091DA
:101E80005C158223932390935A158093591510C0A3
:101E900020915715309158158091591590915A15E8
:101EA0002817390729F48091C9008F7D8093C900D4
:101EB000FF91EF919F918F913F912F910F900BBECA
:101EC0000F900FBE0F901F9018951F920F920FB694
:101ED0000F920BB60F9211242F933F934F938F9332
:101EE0009F93EF93FF9340913601209147153091D6
:101EF00048152F5F3F4F80914B1590914C1528232B
:101F000039238091491590914A152817390779F09E
:101F10008091471590914815E0914D15F0914E151F
:101F2000E80FF91F40833093481520934715FF9120
:101F3000EF919F918F914F913F912F910F900BBEF9
:101F40000F900FBE0F901F9018951F920F920FB613
:101F50000F920BB60F9211242F933F938F939F9361
:101F6000EF93FF932091691530916A158091671561
:101F70009091681528173907E9F0809169159091BB
:101F80006A15E0916D15F0916E15E80FF91F8081CB
:101F9000809336018091691590916A150196209180
:101FA0006B1530916C158223932390936A1580935F
:101FB000691510C0209167153091681580916915D9
:101FC00090916A152817390729F4809131018F7D86
:101FD00080933101FF91EF919F918F913F912F91CC
:101FE0000F900BBE0F900FBE0F901F901895FC0125
:101FF0007183608385E06435780739F470937015D8
:1020000060936F151386128608C0709372156093E3
:10201000711581E090E09387828713821282089580
:102020002091840C3091850CC9018F5C94408238DA
:10203000910510F481E00895C901815595408238D9
:10204000910510F482E00895C901835D95408238BE
:10205000910510F483E00895C901855596408138B3
:10206000910510F484E00895265D364014F480E074
:10207000089585E00895A4E0B0E0E1E4F0E10C9477
:1020800032DE6091F9137091FA138091FB139091F5
:10209000FC130E945EDB3B014C0180918D119091FD
:1020A0008E11A0918F11B091901189839A83AB8387
:1020B000BC836091F5137091F6138091F7139091A2
:1020C000F8130E945EDB1B012C01A0909603B090D8
:1020D0009703C0909803D0909903C401B30129815C
:1020E0003A814B815C810E94E8DC7B018C01C2015A
:1020F000B101A60195010E94E8DC9B01AC01C80179
:10210000B7010E94DED90E942BDB6093BA12709354
:10211000BB128093BC129093BD12C401B301A601FF
:1021200095010E94E8DC7B018C01C201B10129818B
:102130003A814B815C810E94E8DC9B01AC01C801C3
:10214000B7010E94DFD90E942BDB90958095709596
:1021500061957F4F8F4F9F4F6093BE127093BF1258
:102160008093C0129093C1122496E2E10C944EDE4B
:102170002091340B3091350B8091580B9091590B75
:10218000281B390B253631051CF08AE0809392110B
:102190002C593F4F1CF486EF80939211809192113D
:1021A00018161CF48150809392118091921187FF30
:1021B00003C08F5F8093921180919211813021F042
:1021C0008F3F11F080E00895811181E0089580E053
:1021D0000895FC01DB01452B11F083858C9381E090
:1021E00090E00895DC01FB01452B19F080811B96DE
:1021F0008C9381E090E00895FC016385772767FD6B
:102200007095872F972F0E945EDB0895FC01DB01FC
:102210004230510520F0838594858D939C9382E014
:1022200090E00895DC01FB014230510530F08081DF
:1022300091811C969C938E931B9782E090E0089569
:10224000FC0163857485882777FD8095982F0E940F
:102250005EDB0895FC012385348545855685B901EB
:10226000CA010895CF93DF93FC01EB01443051057F
:1022700040F083859485A585B68588839983AA8354
:10228000BB8384E090E0DF91CF910895CF93DF93FB
:10229000EC01FB014430510540F080819181A28125
:1022A000B3818B879C87AD87BE8784E090E0DF9108
:1022B000CF910895E0912A11F0912B1187A990AD4B
:1022C0008130910539F00297F9F483E261E00E94D0
:1022D00079D9089581A58823D9F090E08091911152
:1022E000882309F491E090939111992319F083E2E6
:1022F00060E002C083E261E00E9479D9E0912A1196
:10230000F0912B1111A6089583E260E00E9479D923
:10231000089585E260E00E9479D984E260E00E943D
:1023200079D983E260E00E9479D91092E213109289
:102330006312089580910A148F5F80930A1481506C
:10234000833011F410920A1480910A14813059F0EC
:10235000813018F08230C1F40FC083E260E00E9447
:1023600079D985E205C085E260E00E9479D984E2EE
:1023700061E00E9479D9089584E260E00E9479D9F1
:1023800083E261E00E9479D9089580910B1488233B
:1023900079F084E461E00E9479D982E461E00E94EE
:1023A00079D980E460E00E9479D98EE360E00EC0C4
:1023B00084E460E00E9479D982E460E00E9479D9E7
:1023C00080E461E00E9479D98EE361E00E9479D9CE
:1023D00080910B1491E0892780930B14089500D00D
:1023E00000D084E595E0EDB7FEB7928381838BE959
:1023F00095E0948383830E947CC90F900F900F9087
:102400000F9008950E94EF1168EE73E080E090E075
:102410000E947BD888E795E00E94F3C9892B89F058
:1024200084E261E00E9479D988E795E00E9423CA9E
:10243000682F86E695E00E9484CA84E260E00E94EC
:1024400079D986E695E00E94F3C9892B89F083E269
:1024500061E00E9479D986E695E00E9423CA682F40
:1024600088E795E00E9484CA83E260E00E9479D9FF
:1024700084E595E00E94F3C9181619065CF680E021
:1024800008950E94EF1168EE73E080E090E00E94F2
:102490007BD800D000D084E595E0EDB7FEB79283FD
:1024A00081838CEB95E0948383830E947CC90F9099
:1024B0000F900F900F9088E795E00E94F3C9892B49
:1024C00049F088E795E00E9423CA682F88E795E0E5
:1024D0000E9484CA84E595E00E94F3C91816190683
:1024E00054F780E0089524E535E0882349F000D0D2
:1024F00000D0EDB7FEB73283218387E196E008C0B4
:1025000000D000D0EDB7FEB73283218383E196E09F
:10251000948383830E947CC984E595E0EDB7FEB780
:10252000928381838CE096E0948383830E947CC9AC
:102530000F900F900F900F900895EF92FF920F93CE
:102540001F93CF93DF930E94EF1168EE73E080E05A
:1025500090E00E947BD81EEAE12E16E0F12E03EAFD
:1025600016E0C4E5D5E000D000D0EDB7FEB7D283C9
:10257000C183F482E3820E947CC980910B01846054
:1025800080930B010F900F900F900F9068EB7BE002
:1025900080E090E00E947BD8CE010E94F3C918161B
:1025A0001906FCF000D000D0EDB7FEB7D283C1838E
:1025B000148303830E947CC980910B018B7F8093DD
:1025C0000B010F900F900F900F9068EB7BE080E075
:1025D00090E00E947BD8CE010E94F3C9181619061C
:1025E00014F680E0CDB7DEB7E6E00C945ADE00D0FA
:1025F00000D084E595E0EDB7FEB79283818389EF43
:1026000096E0948383830E947CC90F900F900F9073
:102610000F9080E008958DB79EB740970FB6F8945D
:102620009EBF0FBE8DBFEDB7FEB7319684E595E036
:10263000ADB7BEB712969C938E9311978DE597E038
:10264000938382838091B1079091B207A091B307E1
:10265000B091B40784839583A683B7838091B5072F
:102660009091B607A091B707B091B807808791877E
:10267000A287B3878091B9079091BA07A091BB0751
:10268000B091BC0784879587A687B7870E947CC9CD
:102690008DB79EB740960FB6F8949EBF0FBE8DBF04
:1026A00008958DB79EB740970FB6F8949EBF0FBEA2
:1026B0008DBFEDB7FEB7319684E595E0ADB7BEB7F7
:1026C00012969C938E93119780E897E09383828370
:1026D0008091BD079091BE07A091BF07B091C00740
:1026E00084839583A683B7838091C1079091C207A5
:1026F000A091C307B091C40780879187A287B38751
:102700008091C5079091C607A091C707B091C807EF
:1027100084879587A687B7870E947CC98DB79EB7A7
:1027200040960FB6F8949EBF0FBE8DBF089500D09F
:1027300000D084E595E0EDB7FEB79283818385E60E
:1027400098E0948383830E947CC90F900F900F9030
:102750000F9080E008950F931F938DB79EB7089751
:102760000FB6F8949EBF0FBE8DBFEDB7FEB7319682
:1027700004E515E0ADB7BEB712961C930E93119702
:102780008EE799E09383828380914B0B90914C0B61
:10279000958384838091650B9091660B97838683E4
:1027A0000E947CC9EDB7FEB73196ADB7BEB71296A1
:1027B0001C930E93119780E799E093838283809115
:1027C0009F0B9091A00B958384838091B90B90917E
:1027D000BA0B978386830E947CC9EDB7FEB731960A
:1027E000ADB7BEB712961C930E93119782E699E08F
:1027F000938382838091F30B9091F40B9583848370
:1028000080910D0C90910E0C978386830E947CC959
:10281000EDB7FEB73196ADB7BEB712961C930E93C7
:10282000119784E599E0938382838091470C90917E
:10283000480C958384838091610C9091620C9783FE
:1028400086830E947CC9EDB7FEB73196ADB7BEB79F
:1028500012961C930E93119786E499E093838283DA
:1028600080919B0C90919C0C958384838091B50CF6
:102870009091B60C978386830E947CC9EDB7FEB712
:102880003196ADB7BEB712961C930E93119788E39D
:1028900099E0938382838091EF0C9091F00C958363
:1028A00084838091090D90910A0D978386830E94FD
:1028B0007CC9EDB7FEB73196ADB7BEB712961C9383
:1028C0000E9311978AE299E0938382838091430D5E
:1028D0009091440D9583848380915D0D90915E0D60
:1028E000978386830E947CC98DB79EB708960FB6E2
:1028F000F8949EBF0FBE8DBF1F910F91089500D019
:1029000000D084E595E0EDB7FEB79283818383EF35
:102910009AE0948383830E947CC90F900F900F905C
:102920000F90089500D000D084E595E0EDB7FEB794
:10293000928381838FE89CE0948383830E947CC987
:102940000F900F900F900F9080E0089500D000D06E
:1029500084E595E0EDB7FEB7928381838CE59EE038
:10296000948383830E947CC90F900F900F900F90E7
:102970000895A0E0B0E0EFEBF4E10C943ADE26EB32
:10298000A22E25E0B22E90EBC92E95E0D92E00E0C4
:1029900010E084E5E82E85E0F82E00D000D000D0CD
:1029A000EDB7FEB73196ADB7BEB71296FC92EE9278
:1029B0001197B382A282158304830E947CC9C0E070
:1029C000D0E08DB79EB706960FB6F8949EBF0FBEA7
:1029D0008DBFCE01800F911F0E94C7E200D000D0B2
:1029E00000D0EDB7FEB73196ADB7BEB71296FC92E8
:1029F000EE921197D382C282848315820E947CC991
:102A000021968DB79EB706960FB6F8949EBF0FBE5F
:102A10008DBFC031D105E9F6C7010E9400D7005F24
:102A20001F4F90E10030190709F0B7CF80E0CDB714
:102A3000DEB7EAE00C9456DEA4E2B0E0E2E2F5E1B3
:102A40000C943ADE8091E90A882309F493C00E942D
:102A5000EF114DEEA42E45E0B42E6E010894C11C7A
:102A6000D11C34E5E32E35E0F32E64E670E080E01F
:102A700090E00E947BD88CEE95E00E948995D6016B
:102A8000EAEFF7E084E201900D928150E1F78CEEDD
:102A900095E0B6010E9464A28CEE95E00E94499AEE
:102AA0006091F6057091F7058091F8059091F90510
:102AB00021EE3EE245E652E40E94E8DC20E030E010
:102AC00048EC52E40E94E8DC0E942BDB613A2CE8DF
:102AD000720720E0820720E092072CF0605A7C48C1
:102AE0008040904006C097FF04C0605673478F4FE8
:102AF0009F4FEDB7FEB73E970FB6F894FEBF0FBEDF
:102B0000EDBF0DB71EB70F5F1F4FF282E182F801D4
:102B1000B382A28224E630E040E050E00E9417DE5B
:102B2000F80124833583468357838091F005909183
:102B3000F105918780878091F2059091F305938745
:102B400082878091F4059091F505958784870E948E
:102B50007CC92DB73EB7225F3F4F0FB6F8943EBFFA
:102B60000FBE2DBFC7010E94F3C9181619060CF03D
:102B70007CCF15C000D000D084E595E0EDB7FEB75E
:102B80009283818383EE95E0948383830E947CC942
:102B90000F900F900F900F9080E00E94731280E0D2
:102BA000A496EAE00C9456DE0F931F93CF93DF9325
:102BB0008091C40A8823B9F400D000D084E595E060
:102BC000ADB7BEB712969C938E93119788E296E0AC
:102BD00014969C938E9313970E947CC90F900F902C
:102BE0000F900F9030C00E94EF110AE116E0C4E58B
:102BF000D5E064E670E080E090E00E947BD88AE354
:102C000099E00E94F0C500D000D000D0EDB7FEB72B
:102C10003196ADB7BEB71296DC93CE93119713835E
:102C20000283958384830E947CC9EDB7FEB73696F4
:102C30000FB6F894FEBF0FBEEDBFCE010E94F3C9E0
:102C400018161906B4F680E0DF91CF911F910F910D
:102C50000895EF92FF920F931F93CF93DF9380918C
:102C600094059091950590935E1180935D11C0E05D
:102C7000D0E064E170E080E090E00E947BD88CE8D6
:102C800095E00E94CE842196CC33D10591F7C0E027
:102C9000D0E064E170E080E090E00E947BD88CE8B6
:102CA00095E00E94CE84E0909605F0909705009103
:102CB000980510919905E0925F11F09260110093D0
:102CC00061111093621120915D1130915E11C90163
:102CD00053E0880F991F5A95E1F7820F931F2091B7
:102CE000940530919505820F931F6AE070E00E9471
:102CF000E2DD70935E1160935D112196C431D105C0
:102D000041F6E0926311F092641100936511109303
:102D10006611CDB7DEB7E6E00C945ADEAF92BF92F3
:102D2000CF92DF92EF92FF920F931F938CE895E082
:102D30000E94CE84E0909605F0909705009198054A
:102D400010919905E0926311F0926411009365115E
:102D50001093661160915F11709160118091611103
:102D6000909162110E945EDB5B016C01C801B701AA
:102D70000E945EDB9B01AC01C601B5010E94C3DA73
:102D80000E94A8DC7B018C0160915D1170915E1145
:102D9000882777FD8095982F0E945EDB20E030E049
:102DA00040E251E40E94C3DA23E333E948E853E404
:102DB0000E94DFD99B01AC01C801B7010E94E8DC89
:102DC00029E83EEA44EE56E40E94E8DC20E030E0E8
:102DD00040E251E40E94C3DA0E942BDB9B01AC016C
:102DE000CA011F910F91FF90EF90DF90CF90BF909D
:102DF000AF9008950F931F93CF93DF930E94EF112D
:102E00000E94291608E316E0C4E5D5E064E670E008
:102E100080E090E00E947BD80E948E1670935C1137
:102E200060935B1100D000D000D0EDB7FEB73196B3
:102E3000ADB7BEB71296DC93CE931197138302837E
:102E4000758364830E947CC98DB79EB706960FB6C2
:102E5000F8949EBF0FBE8DBFCE010E94F3C9181615
:102E60001906A4F680E0DF91CF911F910F9108958C
:102E7000CF93DF93EC0107C0219784E595E060E0F4
:102E800072E00E9417D71C161D06B4F3DF91CF9194
:102E90000895FF920F931F93F62E00D000D000D01C
:102EA000EDB7FEB7319604E515E0ADB7BEB71296A3
:102EB0001C930E93119722E03AE03383228384839C
:102EC00015820E947CC98DB79EB706960FB6F894FE
:102ED0009EBF0FBE8DBFEF2DF0E0EE0FFF1FE35240
:102EE000FC4F60817181C8010E9417D71F910F911B
:102EF000FF900895A0E0B0E0E0E8F7E10C9439DE3F
:102F0000EC018091C009992787FD90958617970756
:102F100044F484E595E061E072E00E9417D71882DE
:102F200077C0CB01E4E0880F991FEA95E1F7861B93
:102F3000970B80509C4F5C01CC24B7FCC094DC2CD8
:102F40000E94C7E28883860175010894E11CF11C88
:102F5000011D111DC7010E94C7E2982E89830894A4
:102F6000E11CF11C011D111DC7010E94C7E28A83EB
:102F70000894E11CF11C011D111DC7010E94CFE244
:102F80006B837C838D839E8387E090E0A0E0B0E03C
:102F9000A80EB91ECA1EDB1EC5010E94CFE27B012E
:102FA0008C01EF82F88609871A8784E090E0A0E020
:102FB000B0E0A80EB91ECA1EDB1EC5010E94CFE2FA
:102FC0009B01AC012B873C874D875E8794FE20C018
:102FD00080916E1190916F11A0917011B09171114B
:102FE000E80EF91E0A1F1B1FEF82F88609871A8751
:102FF0008091721190917311A0917411B09175111B
:10300000280F391F4A1F5B1F2B873C874D875E8720
:10301000CE01CDB7DEB7EBE00C9455DE8F929F92D8
:10302000AF92BF92DF92EF92FF920F931F93DF93C5
:10303000CF93CDB7DEB72F970FB6F894DEBF0FBE94
:10304000CDBF68EE73E080E090E00E947BD800D0B6
:1030500000D004E515E0ADB7BEB712961C930E93F1
:10306000119782E696E014969C938E9313970E9494
:103070007CC92091B70A3091B80A0F900F900F9039
:103080000F9037FF11C000D000D0EDB7FEB712830C
:10309000018380E696E0948383830E947CC90F902D
:1030A0000F900F900F9021C000D000D000D0EDB74E
:1030B000FEB73196ADB7BEB712961C930E9311971B
:1030C00088E596E093838283C90164E670E00E94FC
:1030D000E2DD758364830E947CC9EDB7FEB7369646
:1030E0000FB6F894FEBF0FBEEDBF00D000D000D0E9
:1030F000EDB7FEB7319604E515E0ADB7BEB7129651
:103100001C930E93119781E596E0938382838091BF
:10311000C009992787FD9095958384830E947CC977
:10312000EDB7FEB73196ADB7BEB712961C930E93AE
:10313000119784E496E0938382838091E409992730
:1031400087FD9095958384830E947CC9FCE68F2E31
:10315000F6E09F2EFF24EDB7FEB736960FB6F89433
:10316000FEBF0FBEEDBF5E010894A11CB11CD02EA6
:10317000E12E46C0C501B8010E947A178DB79EB7EF
:1031800048970FB6F8949EBF0FBE8DBFEDB7FEB740
:103190003196ADB7BEB71196DC9211971296EC92AC
:1031A00093828282158304838981868317828A8130
:1031B000808711868B81828713868C819D81AE8169
:1031C000BF8184879587A687B78788859985AA85D3
:1031D000BB85808B918BA28BB38B8C859D85AE85B7
:1031E000BF85848B958BA68BB78B0E947CC9F3948B
:1031F000EDB7FEB778960FB6F894FEBF0FBEEDBFE1
:103200000F2D10E08091C009992787FD90958017B8
:1032100091070CF0AFCF80E02F960FB6F894DEBF89
:103220000FBECDBFCF91DF911F910F91FF90EF9017
:10323000DF90BF90AF909F908F9008950F931F9352
:1032400008E114E14091F30B5091F40BC80160E0E8
:103250000E94B2864091F30B5091F40BC80161E0DB
:103260000E94B2864091F30B5091F40BC80162E0CA
:103270000E94B2864091F30B5091F40BC80163E0B9
:103280000E94B2864091F30B5091F40BC80166E0A6
:103290000E94B2864091F30B5091F40BC80167E095
:1032A0000E94B2861F910F91089588E194E10E94D7
:1032B0003287813009F05EC088E194E160E00E94CD
:1032C0000187BC0189E29BE00E949CD188E194E1E6
:1032D00061E00E940187BC018DE79BE00E949CD1C8
:1032E00088E194E162E00E940187BC0181ED9BE0EE
:1032F0000E949CD188E194E163E00E940187BC01B7
:1033000085E29CE00E949CD188E194E164E00E9407
:103310000187BC0189E79CE00E949CD188E194E18F
:1033200065E00E940187BC018DEC9CE00E949CD16D
:1033300088E194E166E00E940187BC0181E29DE0A2
:103340000E949CD188E194E167E00E940187BC0162
:1033500085E79DE00E949CD18091DE0B9091DF0B70
:1033600023E08132920714F080E293E09093DF0B28
:103370008093DE0B08950F931F93CF93DF930E94EA
:10338000EF1168EE73E080E090E00E947BD806EDDC
:1033900017E0C4E5D5E064E170E080E090E00E94D1
:1033A0007BD80E9455198DB79EB742970FB6F894F7
:1033B0009EBF0FBE8DBFEDB7FEB73196ADB7BEB79E
:1033C0001296DC93CE931197138302838091360B70
:1033D0009091370B9583848380918A0B90918B0B0E
:1033E000978386838091DE0B9091DF0B9187808796
:1033F0008091320C9091330C938782878091860C58
:103400009091870C958784878091DA0C9091DB0CE2
:103410009787868780912E0D90912F0D918B808BB1
:103420000E947CC98DB79EB742960FB6F8949EBF96
:103430000FBE8DBFCE010E94F3C9181619060CF0FD
:10344000AACF80E0DF91CF911F910F9108950F9344
:103450001F93CF93DF930E94EF1168EE73E080E03B
:1034600090E00E947BD805E018E0C4E5D5E064E177
:1034700070E080E090E00E947BD80E9455198DB7E3
:103480009EB744970FB6F8949EBF0FBE8DBFEDB7A1
:10349000FEB73196ADB7BEB71296DC93CE931197B7
:1034A000138302838091340B9091350B9583848331
:1034B0008091880B9091890B978386838091DC0B98
:1034C0009091DD0B918780878091300C9091310C29
:1034D000938782878091840C9091850C958784874F
:1034E0008091D80C9091D90C9787868780912C0D6C
:1034F00090912D0D918B808B8091800D9091810DFD
:10350000938B828B0E947CC98DB79EB744960FB671
:10351000F8949EBF0FBE8DBFCE010E94F3C918164E
:1035200019060CF0A4CF80E0DF91CF911F910F918D
:103530000895EF92FF920F931F9380E00E94CBD7E4
:10354000AA2797FDA095BA2FBC01CD010E945EDB92
:1035500020E030E040EA5BE30E94E8DC2AE037ED5F
:1035600043E650E40E94E8DC2DEC3CEC4CEC5DE3DF
:103570000E94E8DC7B018C0160917A0370917B03EF
:1035800080917C0390917D0326E636E646E65FE374
:103590000E94E8DC9B01AC01C801B7010E94DFD9A1
:1035A00060937A0370937B0380937C0390937D03F5
:1035B00081E00E94CBD7AA2797FDA095BA2FBC0126
:1035C000CD010E945EDB20E030E040EA5BE30E9438
:1035D000E8DC2AE037ED43E650E40E94E8DC2DEC1D
:1035E0003CEC4CEC5DE30E94E8DC7B018C016091DB
:1035F0007E0370917F03809180039091810326E682
:1036000036E646E65FE30E94E8DC9B01AC01C801B8
:10361000B7010E94DFD960937E0370937F0380938C
:1036200080039093810382E00E94CBD7AA2797FD65
:10363000A095BA2FBC01CD010E945EDB20E030E0F6
:1036400040EA5BE30E94E8DC2AE037ED43E650E421
:103650000E94E8DC2DEC3CEC4CEC5DE30E94E8DCE5
:103660007B018C01609182037091830380918403BC
:103670009091850326E636E646E65FE30E94E8DCA5
:103680009B01AC01C801B7010E94DFD9609382039E
:1036900070938303809384039093850383E00E9457
:1036A000CBD7AA2797FDA095BA2FBC01CD010E94C8
:1036B0005EDB20E030E040EA5BE30E94E8DC2AE0E9
:1036C00037ED43E650E40E94E8DC2DEC3CEC4CEC9A
:1036D0005DE30E94E8DC7B018C01609186037091C0
:1036E0008703809188039091890326E636E646E6B3
:1036F0005FE30E94E8DC9B01AC01C801B7010E94B6
:10370000DFD97B018C01CB01D80180938603909394
:103710008703A0938803B09389032091D00A2130B6
:1037200049F48091820390918303A0918403B09126
:10373000850304C0223059F4C701D8018093760371
:1037400090937703A0937803B09379037CC02330E0
:1037500019F0243009F077C080917A0390917B03AF
:10376000A0917C03B0917D038093760390937703BF
:10377000A0937803B0937903243009F064C081E00A
:103780000E94CBD7AA2797FDA095BA2FBC01CD01E7
:103790000E945EDB20E030E040EA5BE30E94E8DC70
:1037A0002CE53FE84AED51E40E94E8DC2DEC3CECCE
:1037B0004CEC5DE30E94E8DC7B018C0160917711A9
:1037C000709178118091791190917A1126E636E600
:1037D00046E65FE30E94E8DC9B01AC01C801B7014B
:1037E0000E94DFD97B018C0160937711709378116F
:1037F0008093791190937A116091761170E080E056
:1038000090E00E945CDB9B01AC01C801B7010E9403
:10381000E8DC27E830EC41E959E30E94E8DC9B0151
:10382000AC0160917B1170917C1180917D11909120
:103830007E110E94DFD960937B1170937C1180937D
:103840007D1190937E111F910F91FF90EF9008953D
:103850000F931F93CF93DF930E94EF1184E6809321
:10386000761108EB16E0C4E5D5E064E670E080E090
:1038700090E00E947BD80E9455190E94991A8DB73A
:103880009EB740970FB6F8949EBF0FBE8DBFEDB7A1
:10389000FEB73196ADB7BEB71296DC93CE931197B3
:1038A000138302838091760390917703A09178032C
:1038B000B091790384839583A683B7838091771130
:1038C00090917811A0917911B0917A1180879187A8
:1038D000A287B38780917B1190917C11A0917D117B
:1038E000B0917E1184879587A687B7870E947CC98F
:1038F0008DB79EB740960FB6F8949EBF0FBE8DBF92
:103900004091DC0B5091DD0B88E194E160E00E9476
:10391000B2864091DC0B5091DD0B88E194E161E0CF
:103920000E94B2864091DC0B5091DD0B88E194E15E
:1039300062E00E94B2864091DC0B5091DD0B88E181
:1039400094E163E00E94B286CE010E94F3C918168A
:1039500019060CF08ACF80E0DF91CF911F910F9173
:1039600008950F931F93CF93DF930E94EF1168EE9A
:1039700073E080E090E00E947BD808ED16E0C4E59B
:10398000D5E064E170E080E090E00E947BD80E9486
:1039900055198091320C9091330C9093370C809391
:1039A000360C85E29CE00E9410D28DB79EB7089736
:1039B0000FB6F8949EBF0FBE8DBFEDB7FEB7319620
:1039C000ADB7BEB71296DC93CE93119713830283E3
:1039D0008091320C9091330C9583848380913A0CC2
:1039E00090913B0C978386830E947CC98DB79EB7CC
:1039F00008960FB6F8949EBF0FBE8DBF40913A0C4B
:103A000050913B0C88E194E166E00E94B286CE01C1
:103A10000E94F3C9181619060CF0B3CF80E0DF91AD
:103A2000CF911F910F9108956091DA0C7091DB0C8A
:103A3000882777FD8095982F0E945EDB20E030E09C
:103A40004AE754E40E94C3DA609358097093590915
:103A500080935A0990935B098091010B992787FD08
:103A60009095A92FB92FFC013197EB30F10508F0A3
:103A70002EC1EE58FF4F0C9469DE8DEC9CE060E0A7
:103A800070E040E45FE10E943CD080915809909141
:103A90005909A0915A09B0915B098093350F909311
:103AA000360FA093370FB093380F80936F0F90931A
:103AB000700FA093710FB093720F08958DEC9CE07E
:103AC00060E070E04CE251E00E943CD06091DA0C82
:103AD0007091DB0C882777FD8095982F0E945EDB24
:103AE00020E030E04AE754E40E94C3DADC019B01A5
:103AF000AC01209358093093590940935A095093C7
:103B00005B092093440F3093450F4093460F509329
:103B1000470FCB0180937E0F90937F0FA093800F70
:103B2000B093810F08958DEC9CE060E070E04CE272
:103B300051E00E943CD08091580990915909A09180
:103B40005A09B0915B098093870E9093880EA093D9
:103B5000890EB0938A0E8093C10E9093C20EA093EB
:103B6000C30EB093C40E08958DEC9CE060E070E04D
:103B70004CE251E00E943CD0809158099091590943
:103B8000A0915A09B0915B098093960E9093970E7D
:103B9000A093980EB093990E8093D00E9093D10E6F
:103BA000A093D20EB093D30E08958DEC9CE060E00C
:103BB00070E048EE53E00E943CD08091580990910B
:103BC0005909A0915A09B0915B098093A90F90936C
:103BD000AA0FA093AB0FB093AC0F08958DEC9CE0AF
:103BE00060E070E048EE53E00E943CD080915809BC
:103BF00090915909A0915A09B0915B098093FB0EED
:103C00009093FC0EA093FD0EB093FE0E08958DECE4
:103C10009CE060E070E048EE53E00E943CD0809170
:103C2000580990915909A0915A09B0915B09809364
:103C3000CB109093CC10A093CD10B093CE100895DC
:103C40008DEC9CE060E273E048EE53E00E943CD0D3
:103C50008091580990915909A0915A09B0915B0936
:103C60008093190B90931A0BA0931B0BB0931C0B12
:103C700008958DEC9CE060E070E048EE53E00E9417
:103C80003CD02091DA0C3091DB0C82E029353807EA
:103C900044F480910B01846080930B0120593140E2
:103CA000B4F080910B018B7F80930B0108958DEC14
:103CB0009CE060E070E048EE53E00E943CD08091D0
:103CC000DA0C9091DB0C9093FD098093FC09089528
:103CD0000F931F93CF93DF930E94EF110CEE16E02A
:103CE000C4E5D5E068EC70E080E090E00E947BD80D
:103CF0000E9455190E94141D8DB79EB708970FB6E4
:103D0000F8949EBF0FBE8DBFEDB7FEB73196ADB72D
:103D1000BEB71296DC93CE931197138302838091E2
:103D2000580990915909A0915A09B0915B0984836F
:103D30009583A683B7830E947CC98DB79EB70896EA
:103D40000FB6F8949EBF0FBE8DBFCE010E94F3C97F
:103D5000181619063CF680E0DF91CF911F910F9164
:103D6000089580915A1290915B12892B09F45AC0E0
:103D70000E9447D82091541230915512409156120A
:103D800050915712621B730B840B950B20915812A4
:103D90003091591240E050E062177307840795078D
:103DA00008F440C037C0019790935B1280935A1279
:103DB00080915A1290915B12892BA1F10E9447D8F1
:103DC0006093541270935512809356129093571229
:103DD00060915312862F8450843088F480915A1257
:103DE00080FF05C040915C1250915D1204C040916B
:103DF0005E1250915F1288E194E10E94B286809138
:103E00005312853079F480910B0194E089278093D7
:103E10000B01089580915A1290915B1218161906A1
:103E200014F2C6CF0895CF93DF93C0E0D0E084E5CD
:103E300095E065E072E00E9430D62196C832D10547
:103E4000B1F784E595E060E072E00E9417D7DF915A
:103E5000CF91089500D000D084E595E0EDB7FEB78E
:103E60009283818388E597E0948383830E947CC951
:103E70000F900F900F900F900E94131F0E940B1332
:103E80000E94511382E090E00E943817089500D0FC
:103E900000D000D0EDB7FEB7319684E595E0ADB720
:103EA000BEB712969C938E93119784E199E0938309
:103EB00082838091680990916909958384830E9427
:103EC0007CC98DB79EB706960FB6F8949EBF0FBEFD
:103ED0008DBF0E94131F82E090E00E943817089562
:103EE00000D000D084E595E0EDB7FEB792838183E2
:103EF00083E299E0948383830E947CC90F900F90A2
:103F00000F900F900E94131F0E94AB1382E090E06D
:103F10000E9438170895CF93DF9300D000D0C4E5F6
:103F2000D5E0EDB7FEB7D283C1838EEA99E09483E2
:103F300083830E947CC90F900F900F900F900E9476
:103F4000131F00D000D0EDB7FEB7D283C18384EA3F
:103F500099E0948383830E947CC980910D0B0F901C
:103F60000F900F900F90813049F400D000D0EDB742
:103F7000FEB7D283C1838CE999E015C0882349F448
:103F800000D000D0EDB7FEB7D283C18384E999E0B9
:103F90000AC0823081F400D000D0EDB7FEB7D283E2
:103FA000C1838CE899E0948383830E947CC90F903D
:103FB0000F900F900F9082E090E00E943817DF91F1
:103FC000CF91089500D000D084E595E0EDB7FEB71D
:103FD000928381838EED99E0948383830E947CC9D0
:103FE0000F900F900F900F900E94131F8091D00A96
:103FF000882311F40E9473128091D00A813091F4C9
:1040000000D000D084E595E0EDB7FEB792838183C0
:1040100086ED99E0948383830E947CC90F900F9072
:104020000F900F908091D00A823091F400D000D090
:1040300084E595E0EDB7FEB7928381838EEC99E03D
:10404000948383830E947CC90F900F900F900F90F0
:104050008091D00A833091F400D000D084E595E0BF
:10406000EDB7FEB79283818383EC99E094838383D9
:104070000E947CC90F900F900F900F908091D00AF2
:10408000843091F400D000D084E595E0EDB7FEB720
:104090009283818385EB99E0948383830E947CC91A
:1040A0000F900F900F900F9082E090E00E943817D1
:1040B00008951F93CF93DF9300D000D084E595E05F
:1040C000EDB7FEB79283818384EF99E09483838375
:1040D0000E947CC90F900F900F900F900E94131FA9
:1040E000C5E5DAE010E0812F68810E9449172C961F
:1040F0001F5F1630C1F782E090E00E943817DF9111
:10410000CF911F910895CF93DF9300D000D0C4E5E5
:10411000D5E0ADB7BEB71296DC93CE9311978AE483
:104120009AE014969C938E9313970E947CC90F90EB
:104130000F900F900F900E94131F2091010B2223CC
:1041400021F480E00E94731220C000D000D000D083
:10415000EDB7FEB73196ADB7BEB71296DC93CE93EE
:10416000119785E49AE093838283822F992787FDB4
:104170009095958384830E947CC9EDB7FEB73696EF
:104180000FB6F894FEBF0FBEEDBF82E090E00E9434
:104190003817DF91CF91089500D000D084E595E0E5
:1041A000EDB7FEB79283818382EC93E1948383839E
:1041B0000E947CC90F900F900F900F900E94131FC8
:1041C0008091D1130E94731282E090E00E94381710
:1041D0000895ACE0B0E0EFEEF0E20C9442DE4091E6
:1041E0008A0350918B0360918C0370918D0389EC4D
:1041F00097E00E9415B6DE011196EEE4F8E08CE03F
:1042000001900D928150E1F7ACE2B1E1FE013196EF
:104210008CE001900D928150E1F72C96E2E00C9435
:104220005EDEACE2B0E0E7E1F1E20C9432DEDE010A
:104230001196EAEFF7E084E201900D928150E1F7E8
:1042400069807A808B809C80AD84BE84CF84D8883E
:10425000298C3A8C4B8C5C8C89A19AA1ABA1BCA116
:1042600089A79AA7ABA7BCA78D8D9E8DAF8DB8A14E
:104270008DA39EA3AFA3B8A7C401B301A40193016A
:104280000E94E8DC7B018C01C601B501A601950105
:104290000E94E8DC9B01AC01C801B7010E94DFD994
:1042A0000E9455DD7B018C01C601B501A801970173
:1042B0000E94C3DA609396037093970380939803E8
:1042C00090939903C401B301A80197010E94C3DA36
:1042D00060938D1170938E1180938F119093901134
:1042E000D201C101B0588093851190938611A0939B
:1042F0008711B0938811C201B101A20191010E94FE
:10430000E8DC9B01AC0160E070E080E89FE30E9484
:10431000DED90E9455DD7B018C0160938E03709382
:104320008F03809390039093910369A57AA58BA541
:104330009CA5A80197010E94C3DA60939203709331
:10434000930380939403909395036DA17EA18FA115
:1043500098A5A80197010E94C3DA60938911709310
:104360008A1180938B1190938C11AC96E2E10C949E
:104370004EDEA4E2B0E0EFEBF1E20C943ADE0E94F4
:104380002A1F8DE797E06BE778ED0E9494C50E94A5
:104390002A1F0E94EF1168EE73E080E090E00E9417
:1043A0007BD80E9447D860937F11709380118093CF
:1043B00081119093821119E4A12E17E0B12EB6E07D
:1043C000CB2EB7E0DB2EA4E5EA2EA5E0FA2E8E0177
:1043D0000F5F1F4F0E9447D820917F1130918011AD
:1043E0004091811150918211621B730B840B950BCC
:1043F000653071058105910508F4F1C00E9447D828
:1044000020917F11621B6093831170E080E090E047
:104410000E945CDB20E030E04AE754E40E94C3DA0B
:1044200060938A0370938B0380938C0390938D0326
:104430000E9447D860937F117093801180938111FF
:10444000909382110E94E920809184118F5F809364
:104450008411843011F40E941121809184118431DF
:1044600009F05AC00E945519109284118DB79EB759
:1044700040970FB6F8949EBF0FBE8DBFEDB7FEB745
:104480003196ADB7BEB71296FC92EE921197B382F9
:10449000A2828091C9079091CA07A091CB07B091E1
:1044A000CC0784839583A683B7838091CD079091B1
:1044B000CE07A091CF07B091D00780879187A287C0
:1044C000B3878091D1079091D207A091D307B09183
:1044D000D40784879587A687B7870E947CC98DB744
:1044E0009EB740960FB6F8949EBF0FBE8DBF8091C9
:1044F000E90A882389F08CEE95E00E948995D8011D
:10450000EAEFF7E084E201900D928150E1F78CEE42
:1045100095E0B8010E9464A2ADB7BEB75C970FB634
:10452000F894BEBF0FBEADBFEDB7FEB73196129681
:10453000FC92EE921197D382C28280918E03909169
:104540008F03A0919003B091910384839583A683F8
:10455000B7838091851190918611A0918711B091B8
:10456000881180879187A287B38780919203909169
:104570009303A0919403B091950384879587A687B0
:10458000B7878091891190918A11A0918B11B09178
:104590008C11808B918BA28BB38B80919603909121
:1045A0009703A0919803B0919903848B958BA68B68
:1045B000B78B80918D1190918E11A0918F11B09138
:1045C0009011808F918FA28FB38F0E947CC98DB77D
:1045D0009EB74C960FB6F8949EBF0FBE8DBF84E574
:1045E00095E00E94F3C9181619060CF0F3CE80E08E
:1045F000A496EAE00C9456DEAF92BF92CF92DF927F
:10460000EF92FF920F931F937C018B01FB01678157
:10461000708581859285F701278130854185528596
:10462000621B730B840B950B0E945EDB5B016C01BC
:10463000F8016385748585859685F7012385348522
:1046400045855685621B730B840B950B0E945EDBC0
:1046500020919C0330919D0340919E0350919F03B4
:104660000E94E8DC7B018C01C601B501A601950121
:104670000E94E8DC5B016C01C801B701A801970149
:104680000E94E8DC9B01AC01C601B5010E94DFD9A4
:104690000E9455DD28EC32E646E35CE30E94E8DC4C
:1046A0000E942BDB9B01AC01CA011F910F91FF906F
:1046B000EF90DF90CF90BF90AF900895CF92DF92B0
:1046C000FF920F931F93CF93DF930E94EF1100D0BF
:1046D00000D004E515E0ADB7BEB712961C930E935B
:1046E000119788EA97E014969C938E9313970E94F3
:1046F0007CC90F900F900F900F9068EE73E080E0F0
:1047000090E00E947BD884EAC82E87E0D82EC0E0D3
:10471000D0E0F02E012F21C08AE895E06C2F0E9496
:10472000798800D000D000D0EDB7FEB73196ADB794
:10473000BEB71196FC92119712960C93D382C28247
:10474000958384830E947CC92196EDB7FEB7369687
:104750000FB6F894FEBF0FBEEDBFC930D105E4F22D
:1047600084E595E00E9400D764E170E080E090E08D
:104770000E947BD884E595E00E94F3C918161906BB
:104780001CF0C0E0D0E0E9CF80E0DF91CF911F9135
:104790000F91FF90DF90CF900895A0E0B0E0E3ED9F
:1047A000F3E20C943CDE0E94EF1168EE73E080E0CF
:1047B00090E00E947BD82DEAC22E27E0D22E94E50D
:1047C000E92E95E0F92E6DE471E080E090E00E9422
:1047D0007BD80E945A1180912A1190912B110E942E
:1047E000D4BFC0912A11D0912B118FA1882309F435
:1047F00045C08DB79EB742970FB6F8949EBF0FBEC7
:104800008DBF0DB71EB70F5F1F4FEDB7FEB7F2821A
:10481000E182F801D382C2828C859D85AE85BF85F9
:1048200084839583A683B78388899989AA89BB895C
:1048300080879187A287B3876C897D898E899F89BC
:1048400024E630E040E050E00E9417DEF8012487C3
:104850003587468757878EA1808B118A0E947CC935
:10486000E0912A11F0912B1117A28DB79EB74296B5
:104870000FB6F8949EBF0FBE8DBF06C084E595E0CD
:1048800067E072E00E9430D684E595E00E94F3C9AB
:10489000181619060CF097CF80E0CDB7DEB7E8E028
:1048A0000C9458DE00D000D084E595E0EDB7FEB75B
:1048B000928381838AE398E0948383830E947CC9F6
:1048C0000F900F900F900F908FE391E10E94F59160
:1048D00080E0089584E591E10E94F59180E00895DB
:1048E000CF93DF9300D000D0C4E5D5E0EDB7FEB79D
:1048F000D283C18386E099E0948383830E947CC93C
:104900000F900F900F900F9080914B0B90914C0B4C
:104910008451954064F168EE73E080E090E00E947D
:104920007BD800D000D0EDB7FEB7D283C1838DED28
:1049300098E0948383830E947CC90F900F900F901E
:104940000F9068EE73E080E090E00E947BD800D08A
:1049500000D0EDB7FEB7D283C1838AEB98E0948391
:1049600083830E947CC90F900F900F900F9086E474
:1049700091E10E94F59180E0DF91CF91089588E365
:1049800091E10E94F59180E0089589EB9AE00E9400
:10499000178B00D000D084E595E0EDB7FEB7928389
:1049A00081838DEE99E0948383830E947CC90F906C
:1049B0000F900F900F900E94131F8091C40A0E94C5
:1049C000731282E090E00E9438170895A0E0B0E0F2
:1049D000ECEEF4E20C943CDE00D000D044E5E42E92
:1049E00045E0F42EADB7BEB71296FC92EE92119749
:1049F0008CE39AE014969C938E9313970E947CC943
:104A00000F900F900F900F900E94131F8091E90A52
:104A10000E9473123CEEC32E35E0D32EC6010E94D5
:104A20004E9ACDB7DEB728970FB6F894DEBF0FBE0B
:104A3000CDBF0DB71EB70F5F1F4FFA82E9822CE280
:104A40003AE0F8013383228321EE3EE245E652E468
:104A50000E94E8DCD80114966D937D938D939C930E
:104A600017970E947CC9CDB7DEB728960FB6F89489
:104A7000DEBF0FBECDBFC6010E94499A9C01EDB7B3
:104A8000FEB770970FB6F894FEBF0FBEEDBF31961C
:104A9000ADB7BEB71296FC92EE9211978BE09AE0FA
:104AA00093838283E90188819981AA81BB81848370
:104AB0009583A683B7838C819D81AE81BF818087DA
:104AC0009187A287B38788859985AA85BB858487C6
:104AD0009587A687B7870E947CC9EDB7FEB7709609
:104AE0000FB6F894FEBF0FBEEDBF82E090E00E94CB
:104AF0003817CDB7DEB7E8E00C9458DEFF920F937D
:104B00001F93F82E8B0188E090E00E9438170E94D6
:104B1000471F0E94701F0E948B1F0E94E21F0E946D
:104B2000C5240E9459200E942A1F0E94E6248F2D2E
:104B3000B8010E94C99080E01F910F91FF900895E5
:104B4000FB01608971898289938925E33AEF4EE8F8
:104B50005CE30E94E8DCAB01BC018CEE95E00E94B6
:104B6000E9A40E94E62480E00895FB0184858093F7
:104B7000010B86EF9AE00E94A68B0E94832080E0C2
:104B8000089500D000D084E595E0EDB7FEB792839C
:104B9000818385E09BE0948383830E947CC981E0CC
:104BA0008093F50A0F900F900F900F908AEE9AE085
:104BB0000E94A68B64E170E080E090E00E947BD8C8
:104BC00084E595E00E94F3C9181619069CF7109227
:104BD000F50A8AEE9AE00E94A68B80E0089564E1CF
:104BE00070E080E090E00E947BD80E94551980918F
:104BF000F30B9091F40B90939411809393119093F5
:104C0000961180939511909398118093971190939A
:104C10009A11809399119093A01180939F11909372
:104C2000A2118093A1112091360B3091370B4BE0EC
:104C3000293B34074CF0C2969093941180939311C2
:104C40009093A01180939F112854344F94F4809135
:104C5000951190919611C29690939611809395110B
:104C60008091971190919811C2969093981180938A
:104C7000971180918A0B90918B0B895B9B4094F0EC
:104C80008091A1119091A211C2969093A21180934C
:104C9000A1118091991190919A11C29690939A11B5
:104CA00080939911409193115091941188E194E16E
:104CB00060E00E94B286409195115091961188E172
:104CC00094E161E00E94B2864091991150919A114D
:104CD00088E194E162E00E94B2864091991150917E
:104CE0009A1188E194E163E00E94B28640919F119D
:104CF0005091A01188E194E166E00E94B286409153
:104D0000A1115091A21188E194E167E00E94B2865E
:104D100084E595E00E94F3C9181619060CF05FCFE0
:104D20001092F50A8AEE9AE00E94A68B80E0089520
:104D3000FF920F931F93CF93DF9300D000D084E5B1
:104D400095E0EDB7FEB7928381838EE99AE0948374
:104D500083830E947CC90F900F900F900F900E9448
:104D6000EF11FF2410E064E170E080E090E00E9429
:104D70007BD80E9455190E941010082FF816A1F038
:104D800090E0FC01EE0FFF1FE80FF91FEE0FFF1F71
:104D9000EE0FFF1FE65BF54F1385193008F018E0A2
:104DA000802F612F0E9449170E94B8108823B1F00C
:104DB0001F5F193009F410E0802F90E0FC01EE0F26
:104DC000FF1FE80FF91FEE0FFF1FEE0FFF1FE65B3F
:104DD000F54F1387802F612F0E94491784E595E0D6
:104DE0000E94F3C9F02E181619060CF0BCCFCAE4C5
:104DF000DAE0CE010E94A68B2C96FAE0C239DF07DA
:104E0000C1F70E947F140E94592080E0CDB7DEB721
:104E1000E5E00C945BDEA4E2B0E0E1E1F7E20C94A3
:104E200040DE80E090E0A0E8BFE389839A83AB8313
:104E3000BC8380E090E0A0E0B0E08D839E83AF83F0
:104E4000B88789879A87AB87BC878D879E87AF870E
:104E5000B88B20E030E040E85FEB298B3A8B4B8B3E
:104E60005C8B8D8B9E8BAF8BB88F898F9A8FAB8F1E
:104E7000BC8F8D8F9E8FAF8FB8A329A33AA34BA36E
:104E80005CA30CEE15E0C801BE016F5F7F4F0E946E
:104E9000559589EC97E0B8010E9426A6C8010E94AA
:104EA000AD97C8010E94499AA496E4E00C945CDE98
:104EB000CF93DF93FB01C285D385CE0164E87AE00E
:104EC0000E94DEDF892B21F481E08093C40A09C0AF
:104ED000CE0160E87AE00E94DEDF892B39F410927F
:104EE000C40A89EB9AE00E94A68B12C000D000D0C1
:104EF00084E595E0EDB7FEB7928381838CE69AE076
:104F0000948383830E947CC90F900F900F900F9021
:104F10000E94C52480E0DF91CF910895CF93DF9365
:104F2000FB01EB012A96828593856AE97AE00E946B
:104F3000DEDF892B19F41092D00A0FC02A813B8141
:104F40004C815D81DA01C9010197A109B10904977A
:104F5000A105B10538F42093D00A85EC9AE00E94AF
:104F6000A68B12C000D000D084E595E0EDB7FEB767
:104F70009283818387E89AE0948383830E947CC92B
:104F80000F900F900F900F900E94E21F80E0DF9132
:104F9000CF910895CF93DF93FB01C285D385CE01D6
:104FA00061EE7BE00E94DEDF892B11F481E019C005
:104FB000CE016FED7BE00E94DEDF892B39F0CE0160
:104FC0006DED7BE00E94DEDF892B19F410920D0B52
:104FD0000AC0CE016BED7BE00E94DEDF892B41F43D
:104FE00082E080930D0B82E09BE00E94A68B12C0B2
:104FF00000D000D084E595E0EDB7FEB792838183C1
:1050000089EC9BE0948383830E947CC90F900F906E
:105010000F900F900E948B1F80E0DF91CF91089539
:10502000ACE0B0E0E6E1F8E20C9440DEFB01028582
:105030001385C80169E67AE00E94DEDF892B51F40E
:1050400081E08093E90A8EED9AE00E94A68B0E948F
:105050000B273CC0C80165E67AE00E94DEDF892BA1
:1050600011F580E090E0A0E0B0E089839A83AB8303
:10507000BC838D839E83AF83B88789879A87AB87EC
:10508000BC878CEE95E0BE016F5F7F4F0E942C9A2B
:105090008CEE95E00E94F5A41092E90A8EED9AE05C
:1050A0000E94A68B13C000D000D084E595E0EDB738
:1050B000FEB79283818382E59AE0948383830E9482
:1050C0007CC90F900F900F900F9004C08EED9AE066
:1050D0000E94A68B0E94E62480E02C96E4E00C94CB
:1050E0005CDE8DE797E06BE778ED0E947FC50E945C
:1050F00051130E942A1F80E008950F931F93CF93AE
:10510000DF9384E595E069E072E00E9417D700E044
:1051100064E170E080E090E00E947BD80E94551925
:105120000F5F0436A9F7C091340BD091350B81E0A5
:10513000C43FD8073CF468EE73E080E090E00E9442
:105140007BD8F9CFD0934C0BC0934B0B2091880B9D
:105150003091890B3093A00B20939F0B0091DC0BB7
:105160001091DD0B1093F40B0093F30B8091300C36
:105170009091310C9093480C8093470CA091840C33
:10518000B091850CB0939C0CA0939B0CE091D80C33
:10519000F091D90CF093F00CE093EF0C60912C0D92
:1051A00070912D0D7093440D6093430D4091800DCF
:1051B0005091810D5093980D4093970DD093660BAD
:1051C000C093650B3093BA0B2093B90B10930E0C60
:1051D00000930D0C9093620C8093610CB093B60C0D
:1051E000A093B50CF0930A0DE093090D70935E0D3A
:1051F00060935D0D5093B20D4093B10DD093590B58
:10520000C093580B3093AD0B2093AC0B9093550C7F
:105210008093540C8CED95E09093A90C8093A80C8E
:105220009093FD0C8093FC0C9093510D8093500D46
:105230009093A50D8093A40D00D000D084E595E057
:10524000EDB7FEB79283818383EE9BE094838383E3
:105250000E947CC90F900F900F900F9064E170E056
:1052600080E090E00E947BD80E94551989E29BE083
:105270000E9494D08DE79BE00E9494D081ED9BE04A
:105280000E9494D085E29CE00E9494D089E79CE043
:105290000E9494D08DEC9CE00E9494D081E29DE02D
:1052A0000E9494D085E79DE00E9494D084E595E02B
:1052B0000E94F3C9181619068CF664E170E080E0CC
:1052C00090E00E947BD884E595E00E9470CA89E254
:1052D0009BE00E94B5D28DE79BE00E94B5D281EDA4
:1052E0009BE00E94B5D285E29CE00E94B5D289E79E
:1052F0009CE00E94B5D28DEC9CE00E94B5D281E288
:105300009DE00E94B5D285E79DE00E94B5D20E9443
:105310007F140E94701F80E0DF91CF911F910F9149
:10532000089500D000D084E595E0EDB7FEB79283F4
:10533000818380E49CE0948383830E947CC90F90E6
:105340000F900F900F9084E595E00E9423CAFFEF25
:105350008F3F9F07C1F38937910529F08935910562
:1053600011F08FEF08950E94828B00D000D084E569
:1053700095E0EDB7FEB7928381838BE19CE0948347
:1053800083830E947CC90F900F900F900F9068EE5E
:1053900073E080E090E00E947BD8FFCFCF93DF9353
:1053A00000D000D084E595E0EDB7FEB7928381830D
:1053B0008EE79CE0948383830E947CC9C0E0D0E0A8
:1053C0000F900F900F900F90CE0160E00E94DFE2EF
:1053D0002196F0E1C030DF07B9F700D000D084E5B6
:1053E00095E0EDB7FEB79283818388E79CE09483D4
:1053F00083830E947CC90F900F900F900F90DF91D4
:10540000CF9108950E94CE2980E00895EF92FF92F7
:105410000F931F93CF93DF937B018230A1F000D0D5
:1054200000D084E595E0EDB7FEB7928381838DE3EC
:105430009DE0948383830E947CC98FEF0F900F902F
:105440000F900F9091C0FB0102851385C80169E39D
:105450007DE00E94CBDF892B19F4CFEFDFEF63C033
:10546000C8016BE27DE00E94CBDFC0E0D0E0892B79
:1054700011F4C1E0D0E0C8016EE17DE00E94CBDF15
:10548000892B09F4C260C8016AE17DE00E94CBDF8C
:10549000892B09F4C460C80167E17DE00E94CBDF7D
:1054A000892B09F4C860C80162E17DE00E94CBDF6E
:1054B000892B09F4C061C8016DE07DE00E94CBDF5B
:1054C000892B09F4C062C80168E07DE00E94CBDF4F
:1054D000892B09F4C064C80164E07DE00E94CBDF41
:1054E000892B09F4C068C80160E07DE00E94CBDF31
:1054F000892B09F4D160C8016CEF7CE00E94CBDFFE
:10550000892B09F4D260C80165EF7CE00E94CBDFF3
:10551000892B09F4D460C8016DEE7CE00E94CBDFDA
:10552000892B09F4D860F7018081918166EE7CE0D7
:105530000E94CBDF892B39F48091AA0A9091AB0AA3
:10554000C82BD92B08C0C095D0958091AA0A9091FC
:10555000AB0AC823D923D093AB0AC093AA0A8FE918
:105560009AE00E94A68B80E0CDB7DEB7E6E00C940F
:105570005ADECF93DF9300D000D084E595E0EDB7FD
:10558000FEB7928381838DE59DE0948383830E949F
:105590007CC9C1E0D0E00F900F900F900F908EE18A
:1055A00095E1BE010E94D9C62196F0E1C030DF0727
:1055B000B1F78EE195E161E070E00E94CDC68EE129
:1055C00095E163EA0E9483C78EE195E165E90E9457
:1055D00083C78EE195E160EF0E9483C78EE195E17C
:1055E00060E00E9483C78EE195E16AEB0E9483C769
:1055F0008EE195E10E94FBC700D000D084E595E0E4
:10560000EDB7FEB7928381838FE49DE0948383831B
:105610000E947CC90F900F900F900F9080E0DF9157
:10562000CF910895CF92DF92EF92FF920F931F9345
:105630000EE115E1C8010E94E4C86C01C8010E9496
:10564000E4C87C01C8010E94E4C82DB73EB72A50C7
:1056500030400FB6F8943EBF0FBE2DBFEDB7FEB77A
:10566000319624E535E0ADB7BEB712963C932E9344
:1056700011972CE73DE033832283D582C482F782E1
:10568000E682918780870E947CC92DB73EB7265F4E
:105690003F4F0FB6F8943EBF0FBE2DBF1F910F9125
:1056A000FF90EF90DF90CF900895EF92FF920F93CD
:1056B0001F9300D000D004E515E0ADB7BEB7129639
:1056C0001C930E93119783E99DE014969C938E93FF
:1056D00013970E947CC90F900F900F900F908EE14E
:1056E000E82E85E1F82EC7010E9473C8E82FF0E08C
:1056F000EE0FFF1FE352FC4F60817181C8010E94D1
:1057000030D6C7010E94E4C800D000D000D0EDB769
:10571000FEB73196ADB7BEB712961C930E93119794
:105720002DE83DE033832283958384830E947CC9E6
:10573000EDB7FEB736960FB6F894FEBF0FBEEDBFBD
:105740001F910F91FF90EF900895A4E0B0E0EBEA75
:10575000FBE20C9432DE0EE115E1C8010E94E4C8C0
:105760009A838983C8010E94E4C89C838B83C80103
:105770000E94E4C81C01C8010E94E4C82C01C801B1
:105780000E94E4C83C01C8010E94E4C84C01C80161
:105790000E94E4C85C01C8010E94E4C86C01C80111
:1057A0000E94E4C87C01C8010E94E4C82DB73EB73E
:1057B000285130400FB6F8943EBF0FBE2DBFEDB755
:1057C000FEB7319624E535E0ADB7BEB712963C93EF
:1057D0002E93119728E93DE03383228329813A8172
:1057E00035832483AB81BC81B783A6833186208631
:1057F000538642867586648697868686B18AA08A95
:10580000D38AC28AF58AE48A978B868B0E947CC9E8
:10581000EDB7FEB778960FB6F894FEBF0FBEEDBF9A
:105820002496E2E10C944EDE7F928F929F92AF928B
:10583000BF92CF92DF92EF92FF920F931F930EE1F0
:1058400015E1C8010E94E4C84C01C8010E9473C858
:10585000782EC8010E94E4C85C01C8010E94E4C817
:105860006C01C8010E94E4C87C01C8010E94E4C820
:105870002DB73EB7205130400FB6F8943EBF0FBE53
:105880002DBFEDB7FEB7319624E535E0ADB7BEB715
:1058900012963C932E93119722EC3DE033832283A2
:1058A0009582848276821782B186A086D386C2864C
:1058B000F586E486978786870E947CC92DB73EB718
:1058C000205F3F4F0FB6F8943EBF0FBE2DBF1F9114
:1058D0000F91FF90EF90DF90CF90BF90AF909F908F
:1058E0008F907F900895AF92BF92CF92DF92EF9208
:1058F000FF920F931F930EE115E1C8010E94E4C8C7
:105900005C01C8010E94E4C86C01C8010E94E4C89F
:105910007C01C8010E94E4C82DB73EB72C5030402E
:105920000FB6F8943EBF0FBE2DBFEDB7FEB7319650
:1059300024E535E0ADB7BEB712963C932E93119790
:1059400026E63EE033832283B582A482D782C682D4
:10595000F186E086938782870E947CC92DB73EB787
:10596000245F3F4F0FB6F8943EBF0FBE2DBF1F916F
:105970000F91FF90EF90DF90CF90BF90AF90089580
:105980001F938EE195E161E070E00E94FAC810E09B
:105990008EE195E10E9473C8113051F0113018F07A
:1059A000123099F408C010E0833A79F411E00DC088
:1059B000853951F407C0803F39F48EE195E10E94AA
:1059C00073C80AC012E001C010E08EE195E10E94A8
:1059D00034C60197E9F280E01F910895EF92FF929B
:1059E0000F931F93CF93DF938C01C0E0D0E11FC0D2
:1059F000CE01800F911F62E070E00E94E2DDF62E82
:105A0000E72E8EE195E10E94FAC88EE195E10E94B1
:105A1000A3C86F5F7F4F8F4F9F4F29F48F2D9E2D0F
:105A20009C01E90104C08F2D9E2D9C018901CE01AE
:105A3000801B910B0297E4F6CE01CDB7DEB7E6E00E
:105A40000C945ADEA0E0B0E0E8E2FDE20C943ADE0D
:105A5000E82E6B015A018EE195E161E070E00E9451
:105A6000FAC810E08EE195E10E9473C8113051F040
:105A7000113018F01230A9F508C010E0833A89F50A
:105A800011E02FC0853961F529C0803F49F58EE1CD
:105A900095E10E9473C8F82EC0E0D0E00E2D10E012
:105AA0000FC08EE195E10E94E4C8F60191838083E6
:105AB0008EE195E10E94E4C8F501918380832196EF
:105AC000C017D10774F3EF1499F4F6018081918126
:105AD0000E94EE2CF501918380830AC012E001C080
