:100000000C949E0B0C94C80B0C94C80B0C94C80B4E
:100010000C94C80B0C94C80B0C94C80B0C94C80B14
:100020000C94C80B0C94C80B0C94C80B0C94C80B04
:100030000C94C80B0C94C80B0C94C80B0C945C83E8
:100040000C94C80B0C94C80B0C94C80B0C94C80BE4
:100050000C94C80B0C94C80B0C94C80B0C94EDD6E4
:100060000C94C80B0C946A0D0C94AA0D0C94C80B3C
:100070000C94C80B0C94C80B0C94C80B0C94C80BB4
:100080000C94C80B0C94C80B0C94C80B0C94C80BA4
:100090000C94FC0D0C943C0E0C94C80B0C9463D384
:1000A0000C94C80B0C94F7800C94C80B0C94C80BE0
:1000B0000C94C80B0C94C80B0C94C80B0C94C80B74
:1000C0000C94C80B0C94C80B0C94C80B0C94C80B64
:1000D0000C94C80B0C94C80B0C948E0E0C94CE0E82
:1000E0000C94C80BC11BE21B591C171C381C721C3A
:1000F0008B1CA41CBD1CDB1CEC1CA431C531A7311E
:10010000AA31AD31B031B331B631B931BC31BF31C3
:10011000C231A1549B54AA54BF54FB54E754125506
:10012000D354B555E155EA55ED55F055335EF355C9
:10013000335E335E335EF655F955FC551C561A5640
:100140001A561A5628561A561E561A561A562B560C
:100150003A562D5630561A561A561A5633561A56BD
:100160001A561A561A561A563A561A563C566E814E
:10017000738178817D81828187818C819181968153
:100180009B81A081F3B8EEB8F7B8FBB809B922B9E2
:100190004CB95DB99CBA97BAA0BAA9BAD0BADCBAC0
:1001A000F6BA17BB1EBB98CC98CCBCCC2BCD00CDDF
:1001B00046CD61CD8ECDCCCD13CE2AD82DD820D82A
:1001C00024D866D831D835D83BD83FD843D849D879
:1001D0004DD851D857D85BD861D8036EDB363D9ADD
:1001E0009999993DABAAAA2A3E000000803F084A8F
:1001F000D73B3BCE016E84BCBFFDC12F3D6C74313B
:100200009ABD56833DDA3D00C77F11BED9E4BB4C91
:100210003E916BAAAABE000000803F072C7AA5BAC7
:100220006CC590DA3B9365FC8BBC53F810FD3C56D3
:1002300092834DBD879D3AB63DCBC9BF5BBE73DA95
:100240000FC93F05A84CCDB2D44EB93836A9020C1F
:1002500050B9918688083CA6AAAA2ABE0000008050
:100260003F08000000BE922449123EABAAAA2ABE53
:10027000CDCCCC4C3E00000080BEABAAAAAA3E006A
:10028000000000BF000000803F00000000000841A7
:1002900078D3BB4387D1133D190E3CC3BD4282AD19
:1002A0002B3E68EC8276BED98FE1A93E4C80EFFFF1
:1002B000BE01C4FF7F3F00000000004C6F67006478
:1002C000756D7000000000000000000000D831656E
:1002D00072617365000000000000000000182A65CC
:1002E0006E61626C6500000000000000006529641A
:1002F000697361626C650000000000000065296898
:10030000656C70000000000000000000001E13700B
:100310006C616E6E65720067637300000000000020
:100320000000000000046073657475700065726100
:100330007365000000000000000000612972657311
:100340006574000000000000000000F02872616485
:10035000696F000000000000000000DC2766726189
:100360006D6500000000000000000029276D6F741B
:100370006F72730000000000000000942465736336
:10038000000000000000000000000066246C65769C
:10039000656C000000000000000000D0276D6F6455
:1003A00065730000000000000000007825626174A1
:1003B0007465727900000000000000ED26736F6E16
:1003C0006172000000000000000000B726636F6D3E
:1003D00070617373000000000000006F2774756E79
:1003E00065000000000000000000005A24646563FE
:1003F0006C696E6174696F6E000000452473686FEC
:100400007700000000000000000000232441726417
:1004100075436F707465722056322E302E3434203E
:1004200042657461006C6F6773000000000000009B
:100430000000006423736574757000000000000004
:1004400000000015237465737400000000000000B4
:100450000000000F2368656C7000000000000000C1
:100460000000002312706C616E6E65720000000067
:10047000000000F722746573740070776D0000004F
:1004800000000000000000006D18726164696F00D8
:10049000000000000000000001186661696C7361D3
:1004A0006665000000000000640F677073000000C4
:1004B0000000000000000000722261646300000080
:1004C00000000000000000000322696D75000000BC
:1004D0000000000000000000E92062617474657291
:1004E0007900000000000000831174756E65000043
:1004F00000000000000000000D1D74726900000083
:100500000000000000000000351B63757272656E0C
:100510007400000000000000AF1A72656C61790081
:1005200000000000000000002911776179706F69F8
:100530006E747300000000005216616C746974756B
:1005400064650000000000008615736F6E61720024
:1005500000000000000000006014636F6D706173A4
:100560007300000000000000A813786265650000B9
:100570000000000000000000CD10656564756D701E
:10058000000000000000000045137261776770737F
:1005900000000000000000008E1048697420456EC5
:1005A00074657220746F20657869742E0A0A0020C1
:1005B0002530327800253034783A00426567696E1C
:1005C000205842656520582D4354552052616E676E
:1005D0006520616E64205253534920546573743A08
:1005E0000A00436F6D706173733A2000486561645F
:1005F000696E673A20256C642C2058595A3A202598
:10060000642C2025642C2025640A0061626C6564DA
:100610000A0064697300656E00536F6E61723A2060
:10062000256420636D0A00536F6E617220646973E4
:1006300061626C65640A004261726F3A20256463EE
:100640006D0A00486974207261643A2025640A00CA
:1006500025642077700A006F662025646D0A000A01
:1006600000486F6C6420616C742000636F6D6D6175
:100670006E6420233A2025642069643A2564206F43
:10068000703A25642070313A25642070323A256C26
:10069000642070333A256C642070343A256C6420F1
:1006A0000A0052656C6179206F66660A0052656CBB
:1006B0006179206F6E0A00563A2025342E34662C5C
:1006C00020413A2025342E34662C206D41683A2092
:1006D00025342E34660A00696E7075743A202564DC
:1006E000096F757470757425640A0074756E653AC7
:1006F0002025312E33660A004E6F7420656E6162CC
:100700006C65640A00256C642C20256C642C202503
:100710006C640A00494D550A004779726F206F6674
:1007200066736574733A2025342E32662C20253486
:100730002E32662C2025342E32660A004163636512
:100740006C206F6666736574733A2025342E3266AA
:100750002C2025342E32662C2025342E32660A00B9
:1007600025752C004144430A004C61743A20256CE5
:10077000642C204C6F6E20256C642C20416C743AE4
:1007800020256C646D2C2023736174733A202564DA
:100790000A00494E2020313A20256409323A2025AA
:1007A0006409333A20256409343A20256409353A2E
:1007B00020256409363A20256409373A2025640A41
:1007C00000494E3A20313A20256409323A20256406
:1007D00009333A20256409343A20256409353A2042
:1007E000256409363A20256409373A2025640938FA
:1007F0003A2025640A00506C616E6E6572204D6F60
:1008000064650A4E6F7420696E74656E6465642059
:10081000666F72206D616E75616C207573650A0A72
:1008200000436F6D6D616E64733A0A20206C6F67D0
:10083000730A202073657475700A202074657374C0
:100840000A2020706C616E6E65720A0A4D6F7665C3
:100850002074686520736C696465207377697463BC
:100860006820616E6420726573657420746F204621
:100870004C592E0A0A000A205479706520277261AB
:1008800064696F2720746F20636F6E666967757285
:1008900065206E6F772E0A0A000A215761726E6911
:1008A0006E672C20796F757220726164696F2069A0
:1008B00073206E6F7420636F6E666967757265640E
:1008C00021005365747570204D6F64650A0A0A0033
:1008D00046572056657273696F6E2025640A005270
:1008E0006164696F0A004348373A202564207C2000
:1008F00025640A004348363A202564207C2025647C
:100900000A004348353A202564207C2025640A00EB
:100910004348343A202564207C2025640A0043485B
:10092000333A202564207C2025640A004348323A6B
:10093000202564207C2025640A004348313A202584
:1009400064207C2025640A0056206D6F64650A00CF
:100950002B206D6F64650A0058206D6F64650A0076
:1009600051756164206672616D650A004672616D41
:10097000650A00766F6C747320616E642063757213
:10098000006261747420766F6C7473003420636548
:100990006C6C7300332063656C6C73000A42617485
:1009A00074204D6F696E746F720A00536F6E6172BE
:1009B0000A00466C69676874206D6F6465730A008D
:1009C0004F46460A004F4E0A002C090953696D70C4
:1009D0006C653A2000506F732025643A09004D6120
:1009E00067206F6666736574733A2025342E34660B
:1009F0002C2025342E34662C2025342E3466004DD0
:100A00006167204465633A2025342E34660A00432A
:100A10006F6D706173730A002025640A000A5455D3
:100A20004E453A0A000A4F7074696F6E733A5B6FF5
:100A30006E2C6F66665D0A006F6666006F6E000A58
:100A40004F7074696F6E733A5B6F6E2C206F6666C1
:100A50005D0A006F6666006F6E000A4F7074696F02
:100A60006E733A206F66662C20312D34006F6666F7
:100A7000000A4D6F7665206D6F6465207377697429
:100A8000636820746F20656469742C2061696C65EB
:100A9000726F6E3A2073656C656374206D6F646568
:100AA000732C207275646465723A2053696D706CA2
:100AB00065206F6E2F6F66660A000A536176656463
:100AC0002053657474696E67730A0A000A455343BC
:100AD0002043616C6962726174696F6E3A0A2D31EC
:100AE00020556E706C75672055534220616E6420EE
:100AF000626174746572790A2D32204D6F766520BB
:100B0000434C492F464C59207377697463682074AD
:100B10006F20464C59206D6F64650A2D33204D6F50
:100B20007665207468726F74746C6520746F206DC4
:100B300061782C20636F6E6E6563742062617474DB
:100B40006572790A2D342041667465722074776F5E
:100B5000206C6F6E672062656570732C20746872FC
:100B60006F74746C6520746F20302C207468656E0F
:100B700020746573740A0A20507265737320456E81
:100B800074657220746F2063616E63656C2E0A0059
:100B90000A4F7074696F6E733A5B782C2B2C765DFC
:100BA0000A0076002B00700078000A4D6F766520F1
:100BB000616C6C20636F6E74726F6C7320746F2045
:100BC000656163682065787472656D652E2048697B
:100BD0007420456E74657220746F20736176653A77
:100BE00020000A464143544F525920524553455420
:100BF00020636F6D706C657465202D207265626F67
:100C00006F742041504D000A275927202B20456E34
:100C100074657220746F20666163746F72792072DC
:100C2000657365742C20616E79206F74686572201D
:100C30006B657920746F2061626F72743A0A006488
:100C40006F6E650A000A45726173696E67204545DB
:100C500050524F4D0A000A436F6D6D616E64733AD6
:100C60000A202064756D70203C6E3E202065726104
:100C700073652028616C6C206C6F6773290A2020D3
:100C8000656E61626C65203C6E616D653E207C2006
:100C9000616C6C0A202064697361626C65203C6E33
:100CA000616D653E207C20616C6C0A0A00656E6196
:100CB000626C65004F5054464C4F57004D4F544F97
:100CC00052530043555200434D4400524157004D8A
:100CD0004F4445004E54554E004354554E00504D20
:100CE000004750530041545449545544455F4D45C5
:100CF000440041545449545544455F4641535400BF
:100D0000616C6C006D697373696E67206C6F67202E
:100D1000747970650A000A4C6F67206572617365AB
:100D2000642E0A000A45726173696E67206C6F67F2
:100D30002E2E2E0A00626164206C6F67202320250E
:100D4000640A004154542C2025642C2025642C2056
:100D500025752C2025642C2025642C2025640A0070
:100D60002C2025640A004D4F443A004354554E2C24
:100D70002025642C2025642C2025642C2025642C1F
:100D80002025642C2025642C2025642C2025640A31
:100D9000004E54554E2C2025642C2025642C2025F3
:100DA000642C2025642C2025640A00504D2C20251D
:100DB000642C2025642C2025642C2025642C2025DF
:100DC000642C2025642C2025642C20256C640A00CA
:100DD0005241572C00434D442C2025642C2025647F
:100DE0002C2025642C2025642C2025642C20256CA7
:100DF000642C20256C642C20256C640A0043555219
:100E0000523A2025642C20256C642C2025342E3465
:100E1000662C2025342E34662C2025640A00535479
:100E20004152542055500A004D4F543A2025642C0D
:100E30002025642C2025642C2025640A004F462C94
:100E40002025642C2025642C2025642C2025342E7C
:100E500037662C2025342E37660A004750532C2045
:100E6000256C642C2025642C2025342E37662C20FC
:100E700025342E37662C2025342E34662C2025343C
:100E80002E34662C2025642C2025750A00585452D7
:100E900041434B5F005448525F484F4C445F004E03
:100EA00041565F4C4F4E5F004E41565F4C41545F80
:100EB00000484C445F4C4F4E5F00484C445F4C41EF
:100EC000545F005354425F5941575F005354425F8F
:100ED0005049545F005354425F524C4C5F005241A2
:100EE00054455F5941575F00524154455F50495442
:100EF0005F00524154455F524C4C5F0052435F4388
:100F0000525F0052435F43505F005243385F0052CC
:100F100043375F005243365F005243355F00524310
:100F2000345F005243335F005243325F005243311B
:100F30005F004C4F575F564F4C5400494E5F564F21
:100F40004C5400464C4F575F454E41424C4500546F
:100F5000425F524154494F004652414D450054555D
:100F60004E4500455343004D41475F454E41424C7D
:100F70004500424154545F43415041434954590054
:100F8000424154545F4D4F4E49544F5200534F4EBF
:100F900041525F454E41424C4500414C545F484FE1
:100FA0004C445F52544C004C4F475F4249544D41B2
:100FB000534B0053494D504C4500464C544D4F4403
:100FC000453600464C544D4F44453500464C544D33
:100FD0004F44453400464C544D4F44453300464C35
:100FE000544D4F44453200464C544D4F444531001A
:100FF0005452494D5F5448524F54544C4500544844
:10100000525F46535F56414C5545005448525F4627
:10101000535F414354494F4E005448525F46414943
:101020004C53414645005448525F4D415800544886
:10103000525F4D494E0057505F53504545445F4DF8
:1010400041580057505F4C4F495445525F524144FC
:101050000057505F5241444955530057505F4D551A
:1010600053545F494E4445580057505F494E4445DC
:10107000580057505F544F54414C0057505F4D4FEC
:101080004445005854524B5F414E474C455F4344E2
:101090000053455249414C335F4241554400535936
:1010A0005349445F4D594743530053595349445F93
:1010B000544849534D41560053595349445F53577F
:1010C0005F545950450053595349445F53575F4D3E
:1010D00052455600524556004D4158005452494D14
:1010E000004D494E00494D41580049005000494DBE
:1010F000555F53454E534F525F43414C004C6F6711
:1011000020232025642C20202020737461727420F9
:1011100025642C202020656E642025640A000A25A1
:1011200064206C6F67730A000A4E6F206C6F6773E0
:101130000A54797065202764756D702030272E0A57
:101140000A00204F5054464C4F5700204D4F544FEB
:101150005253002043555252454E540020434D44B3
:10116000002052415700204E54554E002043545504
:101170004E0020504D002047505300204154544908
:10118000545544455F4D45440020415454495455FD
:1011900044455F46415354006E6F6E65006C6F6747
:1011A0007320656E61626C65643A2000666C6967E5
:1011B000687420706C616E20726563656976656421
:1011C00000616374696F6E2072656365697665643A
:1011D0003A20006572726F723A206E6F6E2D4E610A
:1011E0007620636D64006F7574206F6620636F6D89
:1011F0006D616E64732100776179706F696E742020
:10120000726563656976652074696D656F757400D4
:10121000776179706F696E742073656E642074698C
:101220006D656F75740045585452413300455854EC
:101230005241320045585452413100504F534954A5
:10124000494F4E005241575F4354524C0052435F46
:101250004348414E004558545F5354415400524155
:10126000575F53454E53005352335F005352305F24
:10127000005265616368656420686F6D6500475260
:101280004F554E44205354415254000A456E7465E4
:1012900072696E6720696E746572616374697665E0
:1012A000207365747570206D6F64652E2E2E0A0A8A
:1012B00054797065202768656C702720746F206CE6
:1012C00069737420636F6D6D616E64732C20276584
:1012D0007869742720746F206C65617665206120C1
:1012E0007375626D656E752E0A5669736974207424
:1012F00068652027736574757027206D656E75208D
:10130000666F722066697273742D74696D652063EF
:101310006F6E66696775726174696F6E2E0A0A0076
:10132000506C656173652052756E205365747570DD
:101330002E2E2E0A004669726D77617265206368F1
:10134000616E67653A2065726173696E6720454515
:1013500050524F4D2E2E2E0A000A0A496E697420F3
:1013600041726475436F707465722056322E302E50
:10137000343420426574610A0A4672656520524120
:101380004D3A20256C750A00496E76616C696420BF
:1013900053455249414C335F42415544004C6F67BD
:1013A000732066756C6C000A4750530A0025303371
:1013B000753A25733A20006E6F7420666F756E64FF
:1013C00000253033753A252D33322E3332733A20CF
:1013D00000756E6B6E6F776E2074797065006E6F3E
:1013E0007420666F756E640025733A20006D697312
:1013F00073696E67206E616D65206F722076616C17
:101400007565003F3F00256400256400256C64007D
:10141000256600256600657869740068656C700053
:1014200044454300434F4D504153535F00245047C0
:10143000434D442C31362C302C302C302C302C3079
:101440002A36410D0A0024505542582C34312C3193
:101450002C303030332C303030312C333834303085
:101460002C302A32360024505352463130302C3042
:101470002C33383430302C382C312C302A33430084
:1014800020536952462000204D544B312E36200007
:101490002075626C6F782000204D544B312E342023
:1014A000006661696C65642C207265747279696E7E
:1014B00067004F4B0020002A00496E697420416389
:1014C00063656C002A00496E6974204779726F0069
:1014D0006E616E00696E660000407A10F35A00A0DB
:1014E000724E18090010A5D4E80000E876481700ED
:1014F00000E40B54020000CA9A3B000000E1F5052D
:10150000000080969800000040420F000000A08676
:1015100001000000102700000000E80300000000A8
:101520006400000000000A0000000000010000004C
:1015300000002C76D888DC674F0823DFC1DFAE5966
:10154000E1B1B796E5E3E453C63AE651997696E8F9
:10155000E6C28426EB898C9B62ED407C6FFCEFBC7D
:101560009C9F40F2BAA56FA5F490055A2AF75C93A8
:101570006B6CF9676DC11BFCE0E40D47FEF520E6DE
:10158000B500D0ED902E0300943577050080841EC1
:10159000080000204E0A000000C80C333333330F1C
:1015A000986E12831141EF8D2114893BE65516CFB9
:1015B000FEE6DB18D1844B381BF77C1D901DA4BBC5
:1015C000E424203284725E228100C9F124ECA1E57A
:1015D0003D2700002100240027002A002D003000B4
:1015E000330001010000040107010A01000022008C
:1015F000250028002B002E003100340002010000DD
:10160000050108010B01000020002300260029002D
:101610002C002F0032000001000003010601090127
:1016200005050505070508080808020202020A0A5E
:10163000080804040404010101010101010103037C
:10164000030303030303040707070C0C0C0C0C0C27
:101650000C0C0202020206060606060606060B0B24
:101660000B0B0B0B0B0B0102102020080810204065
:101670001020408002010201080402010102040856
:1016800010204080804020100804020180040201E4
:10169000804020100804020108040201010204082D
:1016A0001020408001020408102040800000090A38
:1016B00002080B0C0D0706030401000000000000E7
:1016C000000000000000000000000000000000001A
:1016D0000000000000000000100F0E0000000000DD
:1016E00000000000000000000000000000000000FA
:1016F0000000494E46494E4954594E414ECDCCCC3E
:101700003D0AD7233C17B7D13877CC2B329595E6D5
:10171000241FB14F0A000020410000C84200401CB5
:101720004620BCBE4CCA1B0E5AAEC59D74006F3D10
:101730001982938BF1C167D2683D8C8B11241FBE37
:10174000CFEFD1E2DEBFCDBF15E0A0E0B2E0E4E52F
:10175000F7EC01E00BBF02C007900D92A831B10772
:10176000D9F715E1A8E1B5E001C01D92AD3DB10783
:10177000E1F717E1C8E3D7E104C02297FE010E9418
:1017800045DDCE32D107C9F70E94E2D40C949DE327
:101790000C940000283008F027E03327DA01990F75
:1017A000311D87FD916000966105710539F4326045
:1017B0002E5F3D9330E32A95E1F708959F3F30F087
:1017C00080387105610509F03C5F3C5F3D939130C5
:1017D00008F08068911DDF93CF931F930F93FF92C2
:1017E000EF92192F987F9695E92F96959695E90F88
:1017F000FF27EE5CFA4E99273327EE24FF24A7013A
:10180000E70105900894079428F4360FE71EF81EA8
:10181000491F511D660F771F881F991F0694A1F756
:101820000590079428F4E70EF81E491F561FC11DA6
:10183000770F881F991F661F0694A1F705900794DC
:1018400028F4F80E491F561FC71FD11D880F991F76
:10185000661F771F0694A1F70590079420F4490F9F
:10186000561FC71FD81F990F661F771F881F069422
:10187000A9F784911095177041F0D695C7955795A3
:101880004795F794E7941A95C1F7E8EDF4E1689469
:101890001590159135916591959105907FE273951D
:1018A000E118F10A430B560BC90BD009C0F7E10C44
:1018B000F11E431F561FC91FD01D7EF4703311F453
:1018C0008A95E6CFE894015030F0080F0AF400271B
:1018D000021708F4202F2395022F7A3328F079E39A
:1018E0007D932A95E9F710C07D932A9589F6069491
:1018F00097956795379517951794E118F10A430B5B
:10190000560BC90BD00998F023957E9173957A33C5
:1019100008F070E37C932013B8F77E9170617D939B
:1019200030F0839571E37D9370E32A95E1F71124FC
:10193000EF90FF900F911F91CF91DF91992787FD35
:1019400090950895FA01AA27283051F1203181F1AC
:10195000E8946F936E7F6E5F7F4F8F4F9F4FAF4FB7
:10196000B1E03ED0B4E03CD0670F781F891F9A1FCA
:10197000A11D680F791F8A1F911DA11D6A0F711D7E
:10198000811D911DA11D20D009F468943F912AE08A
:10199000269F11243019305D3193DEF6CF01089572
:1019A000462F4770405D4193B3E00FD0C9F7F6CFA3
:1019B000462F4F70405D4A3318F0495D31FD40526B
:1019C000419302D0A9F7EACFB4E0A6959795879501
:1019D00077956795BA95C9F70097610571050895E0
:1019E0009B01AC010A2E069457954795379527958C
:1019F000BA95C9F7620F731F841F951FA01D089524
:101A0000CF93DF93FC01EB014230510570F0638509
:101A100074858585968520E030E040E854E40E9496
:101A2000D6DB0E941EDA7983688382E090E0DF9142
:101A3000CF910895CF93DF93EC01FB014230510524
:101A400018F420E030E012C06081718180E090E005
:101A50000E944ADA20E030E040E85AE30E94D6DBF8
:101A60006B877C878D879E8722E030E0C901DF91FC
:101A7000CF910895DC01FB0183818C9382811196C3
:101A80008C931197818112968C9312978081139673
:101A90008C930895DC01FB0187818C9386811196DC
:101AA0008C931197858112968C931297848113964B
:101AB0008C931397838114968C9314978281159637
:101AC0008C931597818116968C9316978081179623
:101AD0008C9308951F920F920FB60F920BB60F9230
:101AE00011242F933F934F938F939F93EF93FF93E3
:101AF0004091C6002091DD133091DE132F5F3F4FE0
:101B00008091E1139091E213282339238091DF1310
:101B10009091E0132817390779F08091DD139091A7
:101B2000DE13E091E313F091E413E80FF91F408313
:101B30003093DE132093DD13FF91EF919F918F91EE
:101B40004F913F912F910F900BBE0F900FBE0F90B2
:101B50001F9018951F920F920FB60F920BB60F920F
:101B600011242F933F938F939F93EF93FF93209193
:101B7000FF13309100148091FD139091FE132817EC
:101B80003907E9F08091FF1390910014E09103145C
:101B9000F0910414E80FF91F80818093C6008091B2
:101BA000FF139091001401962091011430910214BA
:101BB00082239323909300148093FF1310C02091ED
:101BC000FD133091FE138091FF139091001428179C
:101BD000390729F48091C1008F7D8093C100FF9166
:101BE000EF919F918F913F912F910F900BBE0F908E
:101BF0000FBE0F901F9018951F920F920FB60F9265
:101C00000BB60F9211242F933F934F938F939F9373
:101C1000EF93FF934091CE002091E5133091E613AE
:101C20002F5F3F4F8091E9139091EA1328233923C6
:101C30008091E7139091E8132817390779F0809184
:101C4000E5139091E613E091EB13F091EC13E80F9C
:101C5000F91F40833093E6132093E513FF91EF9132
:101C60009F918F914F913F912F910F900BBE0F90AD
:101C70000FBE0F901F9018951F920F920FB60F92E4
:101C80000BB60F9211242F933F938F939F93EF9353
:101C9000FF932091071430910814809105149091BE
:101CA000061428173907E9F0809107149091081459
:101CB000E0910B14F0910C14E80FF91F80818093D0
:101CC000CE00809107149091081401962091091478
:101CD00030910A148223932390930814809307145D
:101CE00010C0209105143091061480910714909132
:101CF00008142817390729F48091C9008F7D809333
:101D0000C900FF91EF919F918F913F912F910F907B
:101D10000BBE0F900FBE0F901F9018951F920F9241
:101D20000FB60F920BB60F9211242F933F934F9340
:101D30008F939F93EF93FF93409136012091F5137A
:101D40003091F6132F5F3F4F8091F9139091FA1362
:101D5000282339238091F7139091F8132817390716
:101D600079F08091F5139091F613E091FB13F091C7
:101D7000FC13E80FF91F40833093F6132093F513FB
:101D8000FF91EF919F918F914F913F912F910F90E4
:101D90000BBE0F900FBE0F901F9018951F920F92C1
:101DA0000FB60F920BB60F9211242F933F938F9380
:101DB0009F93EF93FF932091171430911814809103
:101DC00015149091161428173907E9F0809117140B
:101DD00090911814E0911B14F0911C14E80FF91F56
:101DE0008081809336018091171490911814019688
:101DF0002091191430911A1482239323909318146C
:101E00008093171410C020911514309116148091EE
:101E10001714909118142817390729F4809131016B
:101E20008F7D80933101FF91EF919F918F913F9131
:101E30002F910F900BBE0F900FBE0F901F90189513
:101E4000FC017183608385E06831780739F4709311
:101E50001E1460931D141386128608C070932014FC
:101E600060931F1481E090E093878287138212822F
:101E7000089520916D0C30916E0CC9018F5C9440D7
:101E80008238910510F481E00895C901815595408B
:101E90008238910510F482E00895C901835D954070
:101EA0008238910510F483E00895C9018555964064
:101EB0008138910510F484E00895265D364014F4CD
:101EC00080E0089585E0089580E00895FC01DB013D
:101ED000452B11F083858C9381E090E00895DC011F
:101EE000FB01452B19F080811B968C9381E090E0DB
:101EF0000895FC016385772767FD7095872F972FDD
:101F00000E944CDA0895FC01DB014230510520F0BB
:101F1000838594858D939C9382E090E00895DC0105
:101F2000FB014230510530F0808191811C969C93D9
:101F30008E931B9782E090E00895FC016385748581
:101F4000882777FD8095982F0E944CDA0895FC0130
:101F50002385348545855685B901CA010895CF93F7
:101F6000DF93FC01EB014430510540F083859485FB
:101F7000A585B68588839983AA83BB8384E090E096
:101F8000DF91CF910895CF93DF93EC01FB014430B3
:101F9000510540F080819181A281B3818B879C871C
:101FA000AD87BE8784E090E0DF91CF910895E09106
:101FB0001311F091141187A990AD8130910539F07A
:101FC0000297F9F483E261E00E9467D8089581A541
:101FD0008823D9F090E080917911882309F491E069
:101FE00090937911992319F083E260E002C083E2B3
:101FF00061E00E9467D8E0911311F091141111A6CD
:10200000089583E260E00E9467D808958BE360E062
:102010000E9467D808958BE361E00E9467D8089515
:102020000E940B1064E670E080E090E00E9469D7A7
:102030000E940610089585E260E00E9467D884E25D
:1020400060E00E9467D883E260E00E9467D8109247
:10205000C8121092301208958091EB128F5F809316
:10206000EB128150833011F41092EB128091EB123D
:10207000813059F0813018F08230C1F40FC083E212
:1020800060E00E9467D885E205C085E260E00E94BA
:1020900067D884E261E00E9467D8089584E260E036
:1020A0000E9467D883E261E00E9467D8089580911A
:1020B000B412813079F484E461E00E9467D882E44C
:1020C00061E00E9467D880E461E00E9467D88EE3F7
:1020D00061E00EC084E460E00E9467D882E460E0C2
:1020E0000E9467D880E460E00E9467D88EE360E0D9
:1020F0000E9467D8089500D000D088E195E0EDB740
:10210000FEB7928381838AE995E0948383830E945A
:1021100032C50F900F900F900F9008950E947B1082
:1021200068EE73E080E090E00E9469D78CE395E070
:102130000E94A9C5892B89F084E261E00E9467D8DA
:102140008CE395E00E94D9C5682F8AE295E00E9451
:102150003AC684E260E00E9467D88AE295E00E9475
:10216000A9C5892B89F083E261E00E9467D88AE2E1
:1021700095E00E94D9C5682F8CE395E00E943AC68D
:1021800083E260E00E9467D888E195E00E94A9C5DB
:10219000181619065CF680E008950E947B1068EE20
:1021A00073E080E090E00E9469D700D000D088E121
:1021B00095E0EDB7FEB7928381838BEB95E0948336
:1021C00083830E9432C50F900F900F900F908CE385
:1021D00095E00E94A9C5892B49F08CE395E00E9407
:1021E000D9C5682F8CE395E00E943AC688E195E056
:1021F0000E94A9C51816190654F780E0089528E131
:1022000035E0882349F000D000D0EDB7FEB7328327
:10221000218386E196E008C000D000D0EDB7FEB77C
:102220003283218382E196E0948383830E9432C5C6
:1022300088E195E0EDB7FEB7928381838BE096E06D
:10224000948383830E9432C50F900F900F900F905C
:102250000895EF92FF920F931F93CF93DF930E9405
:102260007B1068EE73E080E090E00E9469D78DEA11
:10227000E82E86E0F82E02EA16E0C8E1D5E000D0AC
:1022800000D0EDB7FEB7D283C183F482E3820E940F
:1022900032C580910B01846080930B010F900F90E9
:1022A0000F900F9068EB7BE080E090E00E9469D790
:1022B000CE010E94A9C518161906FCF000D000D066
:1022C000EDB7FEB7D283C183148303830E9432C566
:1022D00080910B018B7F80930B010F900F900F90DB
:1022E0000F9068EB7BE080E090E00E9469D7CE0120
:1022F0000E94A9C51816190614F680E0CDB7DEB7FE
:10230000E6E00C9434DD00D000D088E195E0EDB734
:10231000FEB79283818388EF96E0948383830E9443
:1023200032C50F900F900F900F9080E008958DB7F9
:102330009EB740970FB6F8949EBF0FBE8DBFEDB706
:10234000FEB7319688E195E0ADB7BEB712969C9383
:102350008E93119789E197E09383828380917D0723
:1023600090917E07A0917F07B09180078483958329
:10237000A683B7838091810790918207A0918307FC
:10238000B091840780879187A287B3878091850762
:1023900090918607A0918707B091880784879587D9
:1023A000A687B7870E9432C58DB79EB740960FB6F5
:1023B000F8949EBF0FBE8DBF08958DB79EB740970E
:1023C0000FB6F8949EBF0FBE8DBFEDB7FEB7319626
:1023D00088E195E0ADB7BEB712969C938E931197A6
:1023E0008CE397E0938382838091890790918A0799
:1023F000A0918B07B0918C0784839583A683B783C4
:1024000080918D0790918E07A0918F07B0919007D2
:1024100080879187A287B3878091910790919207D7
:10242000A0919307B091940784879587A687B78773
:102430000E9432C58DB79EB740960FB6F8949EBFE6
:102440000FBE8DBF089500D000D088E195E0EDB7B4
:10245000FEB79283818381E298E0948383830E9414
:1024600032C50F900F900F900F9080E008950F935A
:102470001F938DB79EB708970FB6F8949EBF0FBEF7
:102480008DBFEDB7FEB7319608E115E0ADB7BEB729
:1024900012961C930E9311978AE399E0938382839B
:1024A0008091340B9091350B9583848380914E0BF2
:1024B00090914F0B978386830E9432C5EDB7FEB78C
:1024C0003196ADB7BEB712961C930E9311978CE25E
:1024D00099E0938382838091880B9091890B9583F7
:1024E00084838091A20B9091A30B978386830E9493
:1024F00032C5EDB7FEB73196ADB7BEB712961C9395
:102500000E9311978EE199E0938382838091DC0B87
:102510009091DD0B958384838091F60B9091F70B5E
:10252000978386830E9432C5EDB7FEB73196ADB76B
:10253000BEB712961C930E93119780E199E0938396
:1025400082838091300C9091310C958384838091AB
:102550004A0C90914B0C978386830E9432C5EDB74D
:10256000FEB73196ADB7BEB712961C930E93119776
:1025700082E099E0938382838091840C9091850C12
:102580009583848380919E0C90919F0C9783868382
:102590000E9432C5EDB7FEB73196ADB7BEB7129601
:1025A0001C930E93119784EF98E09383828380911C
:1025B000D80C9091D90C958384838091F20C9091E2
:1025C000F30C978386830E9432C5EDB7FEB7319630
:1025D000ADB7BEB712961C930E93119786EE98E096
:1025E0009383828380912C0D90912D0D958384830C
:1025F0008091460D9091470D978386830E9432C546
:102600008DB79EB708960FB6F8949EBF0FBE8DBFCC
:102610001F910F91089500D000D088E195E0EDB7AB
:10262000FEB7928381838AEB9AE0948383830E942E
:1026300032C50F900F900F900F90089500D000D0EA
:1026400088E195E0EDB7FEB79283818386E59CE053
:10265000948383830E9432C50F900F900F900F9048
:1026600080E0089500D000D088E195E0EDB7FEB796
:10267000928381838EE19EE0948383830E9432C59E
:102680000F900F900F900F900895A0E0B0E0EBE452
:10269000F3E10C9414DD35EBA32E35E0B32E2FEAD5
:1026A000C22E25E0D22E00E010E098E1E92E95E060
:1026B000F92E00D000D000D0EDB7FEB73196ADB7FF
:1026C000BEB71296FC92EE921197B382A282158346
:1026D00004830E9432C5C0E0D0E08DB79EB7069655
:1026E0000FB6F8949EBF0FBE8DBFCE01800F911F15
:1026F0000E94B5E100D000D000D0EDB7FEB7319612
:10270000ADB7BEB71296FC92EE921197D382C282F9
:10271000848315820E9432C521968DB79EB7069696
:102720000FB6F8949EBF0FBE8DBFC031D105E9F63C
:10273000C7010E94EED5005F1F4F90E100301907DE
:1027400009F0B7CF80E0CDB7DEB7EAE00C9430DD1A
:10275000A4E2B0E0EEEAF3E10C9414DD8091B40A57
:10276000882309F493C00E947B105CEEA52E55E0EF
:10277000B52E6E010894C11CD11C48E1E42E45E041
:10278000F42E64E670E080E090E00E9469D784EB6C
:1027900095E00E941791D601E6ECF7E084E2019003
:1027A0000D928150E1F784EB95E0B6010E94F29D15
:1027B00084EB95E00E94D7956091BE057091BF05AE
:1027C0008091C0059091C10521EE3EE245E652E4BC
:1027D0000E94D6DB20E030E048EC52E40E94D6DBD9
:1027E0000E9419DA613A2CE8720720E0820720E0A3
:1027F00092072CF0605A7C488040904006C097FFBA
:1028000004C0605673478F4F9F4FEDB7FEB73E979A
:102810000FB6F894FEBF0FBEEDBF0DB71EB70F5F2A
:102820001F4FF282E182F801B382A28224E630E0F7
:1028300040E050E00E94F1DCF801248335834683B8
:1028400057838091B8059091B905918780878091D1
:10285000BA059091BB05938782878091BC059091C2
:10286000BD05958784870E9432C52DB73EB7225F8C
:102870003F4F0FB6F8943EBF0FBE2DBFC7010E9459
:10288000A9C5181619060CF07CCF15C000D000D0D1
:1028900088E195E0EDB7FEB79283818382EE95E003
:1028A000948383830E9432C50F900F900F900F90F6
:1028B00080E00E94FF1080E0A496EAE00C9430DDF6
:1028C0000F931F93CF93DF9380918F0A8823B9F4DE
:1028D00000D000D088E195E0ADB7BEB712969C93CA
:1028E0008E93119787E296E014969C938E9313979C
:1028F0000E9432C50F900F900F900F9030C00E9431
:102900007B1009E116E0C8E1D5E064E670E080E004
:1029100090E00E9469D786E099E00E94A6C100D0AD
:1029200000D000D0EDB7FEB73196ADB7BEB7129666
:10293000DC93CE93119713830283958384830E9443
:1029400032C5EDB7FEB736960FB6F894FEBF0FBE90
:10295000EDBFCE010E94A9C518161906B4F680E095
:10296000DF91CF911F910F910895EF92FF920F93F6
:102970001F93CF93DF9380915805909159059093C1
:10298000471180934611C0E0D0E064E170E080E040
:1029900090E00E9469D780E595E00E94817F2196B2
:1029A000CC33D10591F7C0E0D0E064E170E080E085
:1029B00090E00E9469D780E595E00E94817FE090D9
:1029C0005A05F0905B0500915C0510915D05E09261
:1029D0004811F092491100934A1110934B11209124
:1029E000461130914711C90163E0880F991F6A951C
:1029F000E1F7820F931F2091580530915905820FFE
:102A0000931F6AE070E00E94BCDC709347116093F2
:102A100046112196C431D10541F6E0924C11F09255
:102A20004D1100934E1110934F11CDB7DEB7E6E074
:102A30000C9434DDAF92BF92CF92DF92EF92FF926F
:102A40000F931F9380E595E00E94817FE0905A05E7
:102A5000F0905B0500915C0510915D05E0924C11D2
:102A6000F0924D1100934E1110934F116091481147
:102A70007091491180914A1190914B110E944CDA4A
:102A80005B016C01C801B7010E944CDA9B01AC01EB
:102A9000C601B5010E94B1D90E9496DB7B018C0171
:102AA0006091461170914711882777FD8095982F86
:102AB0000E944CDA20E030E040E251E40E94B1D9BB
:102AC00023E333E948E853E40E94CDD89B01AC01ED
:102AD000C801B7010E94D6DB29E83EEA44EE56E47D
:102AE0000E94D6DB20E030E040E251E40E94B1D900
:102AF0000E9419DA9B01AC01CA011F910F91FF904E
:102B0000EF90DF90CF90BF90AF9008950F931F93F9
:102B1000CF93DF930E947B100E94B51407E316E069
:102B2000C8E1D5E064E670E080E090E00E9469D7FB
:102B30000E941A15709345116093441100D000D083
:102B400000D0EDB7FEB73196ADB7BEB71296DC93A5
:102B5000CE93119713830283758364830E9432C5D9
:102B60008DB79EB706960FB6F8949EBF0FBE8DBF69
:102B7000CE010E94A9C518161906A4F680E0DF91BF
:102B8000CF911F910F910895A0E0B0E0EAECF5E13C
:102B90000C9413DDEC0180918C09992787FD9095A9
:102BA0008617970714F4188277C0CB01E4E0880FEA
:102BB000991FEA95E1F7861B970B80509C4F5C01AB
:102BC000CC24B7FCC094DC2C0E94B5E1888386013C
:102BD00075010894E11CF11C011D111DC7010E9423
:102BE000B5E1982E89830894E11CF11C011D111D8B
:102BF000C7010E94B5E18A830894E11CF11C011D04
:102C0000111DC7010E94BDE16B837C838D839E8370
:102C100087E090E0A0E0B0E0A80EB91ECA1EDB1E5F
:102C2000C5010E94BDE17B018C01EF82F886098716
:102C30001A8784E090E0A0E0B0E0A80EB91ECA1E9A
:102C4000DB1EC5010E94BDE19B01AC012B873C87C7
:102C50004D875E8794FE20C0809157119091581146
:102C6000A0915911B0915A11E80EF91E0A1F1B1FAD
:102C7000EF82F88609871A8780915B1190915C1129
:102C8000A0915D11B0915E11280F391F4A1F5B1F83
:102C90002B873C874D875E87CE01CDB7DEB7EBE053
:102CA0000C942FDD8F929F92AF92BF92DF92EF92A2
:102CB000FF920F931F93DF93CF93CDB7DEB72F977C
:102CC0000FB6F894DEBF0FBECDBF68EE73E080E0B4
:102CD00090E00E9469D700D000D008E115E0ADB7C0
:102CE000BEB712961C930E93119781E696E0149648
:102CF0009C938E9313970E9432C52091820A309143
:102D0000830A0F900F900F900F9037FF11C000D0E3
:102D100000D0EDB7FEB7128301838FE596E0948370
:102D200083830E9432C50F900F900F900F9021C0A7
:102D300000D000D000D0EDB7FEB73196ADB7BEB72A
:102D400012961C930E93119787E596E093838283E6
:102D5000C90164E670E00E94BCDC758364830E9454
:102D600032C5EDB7FEB736960FB6F894FEBF0FBE6C
:102D7000EDBF00D000D000D0EDB7FEB7319608E12E
:102D800015E0ADB7BEB712961C930E93119780E570
:102D900096E09383828380918C09992787FD909593
:102DA000958384830E9432C5EDB7FEB73196ADB7E7
:102DB000BEB712961C930E93119783E496E093830B
:102DC00082838091B009992787FD909595838483AC
:102DD0000E9432C5FBE68F2EF6E09F2EFF24EDB752
:102DE000FEB736960FB6F894FEBF0FBEEDBF5E017C
:102DF0000894A11CB11CD02EE12E46C0C501B8011B
:102E00000E94C4158DB79EB748970FB6F8949EBF21
:102E10000FBE8DBFEDB7FEB73196ADB7BEB71196F9
:102E2000DC9211971296EC9293828282158304832E
:102E30008981868317828A81808711868B81828728
:102E400013868C819D81AE81BF8184879587A687FB
:102E5000B78788859985AA85BB85808B918BA28B46
:102E6000B38B8C859D85AE85BF85848B958BA68B1A
:102E7000B78B0E9432C5F394EDB7FEB778960FB6C4
:102E8000F894FEBF0FBEEDBF0F2D10E080918C09AE
:102E9000992787FD9095801791070CF0AFCF80E0C0
:102EA0002F960FB6F894DEBF0FBECDBFCF91DF9146
:102EB0001F910F91FF90EF90DF90BF90AF909F9088
:102EC0008F9008950F931F9302EF12E14091DC0B56
:102ED0005091DD0BC80160E00E9456814091DC0BEF
:102EE0005091DD0BC80161E00E9456814091DC0BDE
:102EF0005091DD0BC80162E00E9456814091DC0BCD
:102F00005091DD0BC80163E00E9456814091DC0BBB
:102F10005091DD0BC80166E00E9456814091DC0BA8
:102F20005091DD0BC80167E00E9456811F910F91FF
:102F3000089582EF92E10E94D681813009F060C04D
:102F40008093671182EF92E160E00E94A581BC014D
:102F500082E19BE00E9475D082EF92E161E00E94E5
:102F6000A581BC0186E69BE00E9475D082EF92E1CC
:102F700062E00E94A581BC018AEB9BE00E9475D0B3
:102F800082EF92E163E00E94A581BC018EE09CE0AB
:102F90000E9475D082EF92E164E00E94A581BC019D
:102FA00082E69CE00E9475D082EF92E165E00E948B
:102FB000A581BC0186EB9CE00E9475D082EF92E176
:102FC00066E00E94A581BC018AE09DE00E9475D068
:102FD00082EF92E167E00E94A581BC018EE59DE051
:102FE0000E9475D08091C70B9091C80B23E081326D
:102FF000920714F080E293E09093C80B8093C70B84
:1030000008950F931F93CF93DF930E947B1068EE78
:1030100073E080E090E00E9469D702E917E0C8E120
:10302000D5E064E170E080E090E00E9469D70E9402
:1030300099178DB79EB742970FB6F8949EBF0FBEF3
:103040008DBFEDB7FEB73196ADB7BEB71296DC9324
:10305000CE9311971383028380911F0B9091200BC5
:10306000958384838091730B9091740B97838683EF
:103070008091C70B9091C80B9187808780911B0C22
:1030800090911C0C9387828780916F0C9091700CAB
:10309000958784878091C30C9091C40C978786870D
:1030A0008091170D9091180D918B808B0E9432C5E5
:1030B0008DB79EB742960FB6F8949EBF0FBE8DBFD8
:1030C000CE010E94A9C5181619060CF0AACF80E0FF
:1030D000DF91CF911F910F9108950F931F93CF937D
:1030E000DF930E947B1068EE73E080E090E00E9426
:1030F00069D701EC17E0C8E1D5E064E170E080E059
:1031000090E00E9469D70E9499178DB79EB74497A7
:103110000FB6F8949EBF0FBE8DBFEDB7FEB73196C8
:10312000ADB7BEB71296DC93CE931197138302838B
:1031300080911D0B90911E0B958384838091710B60
:103140009091720B978386838091C50B9091C60BEB
:10315000918780878091190C90911A0C93878287B0
:1031600080916D0C90916E0C958784878091C10C35
:103170009091C20C978786878091150D9091160DBE
:10318000918B808B8091690D90916A0D938B828BCE
:103190000E9432C58DB79EB744960FB6F8949EBF75
:1031A0000FBE8DBFCE010E94A9C5181619060CF0DE
:1031B000A4CF80E0DF91CF911F910F910895EF92FE
:1031C000FF920F931F9380E00E94B9D6AA2797FD24
:1031D000A095BA2FBC01CD010E944CDA7B018C0175
:1031E0006091FF0A7091000B8091010B9091020B8E
:1031F00020E030E040E85AE30E94D6DB9B01AC01BE
:10320000C801B7010E94D6DB2AE037ED43E650E45F
:103210000E94D6DB2DEC3CEC4CEC5DE30E94D6DB4F
:103220007B018C0160914B0370914C0380914D03A5
:1032300090914E0326E636E646E65FE30E94D6DB33
:103240009B01AC01C801B7010E94CDD860934B032C
:1032500070934C0380934D0390934E0381E00E9442
:10326000B9D6AA2797FDA095BA2FBC01CD010E941F
:103270004CDA7B018C016091FF0A7091000B809108
:10328000010B9091020B20E030E040E85AE30E94ED
:10329000D6DB9B01AC01C801B7010E94D6DB2AE056
:1032A00037ED43E650E40E94D6DB2DEC3CEC4CECD1
:1032B0005DE30E94D6DB7B018C0160914F0370912E
:1032C0005003809151039091520326E636E646E67C
:1032D0005FE30E94D6DB9B01AC01C801B7010E94ED
:1032E000CDD860934F037093500380935103909314
:1032F000520382E00E94B9D6AA2797FDA095BA2F63
:10330000BC01CD010E944CDA7B018C016091FF0A67
:103310007091000B8091010B9091020B20E030E046
:1033200040E85AE30E94D6DB9B01AC01C801B7011B
:103330000E94D6DB2AE037ED43E650E40E94D6DB5C
:103340002DEC3CEC4CEC5DE30E94D6DB7B018C0168
:1033500060915303709154038091550390915603EB
:1033600026E636E646E65FE30E94D6DB9B01AC012B
:10337000C801B7010E94CDD86093530370935403E2
:10338000809355039093560383E00E94B9D6AA27F1
:1033900097FDA095BA2FBC01CD010E944CDA7B01AC
:1033A0008C016091FF0A7091000B8091010B90914C
:1033B000020B20E030E040E85AE30E94D6DB9B019C
:1033C000AC01C801B7010E94D6DB2AE037ED43E625
:1033D00050E40E94D6DB2DEC3CEC4CEC5DE30E940B
:1033E000D6DB7B018C01609157037091580380916B
:1033F000590390915A0326E636E646E65FE30E94BB
:10340000D6DB9B01AC01C801B7010E94CDD87B017E
:103410008C01CB01D8018093570390935803A0935C
:103420005903B0935A0320919B0A213049F48091AB
:10343000530390915403A0915503B091560304C0D7
:10344000223059F4C701D801809347039093480371
:10345000A0934903B0934A037DC0233019F0243070
:1034600009F078C080914B0390914C03A0914D03DB
:10347000B0914E038093470390934803A093490370
:10348000B0934A03243009F065C081E00E94B9D6A8
:10349000AA2797FDA095BA2FBC01CD010E944CDA56
:1034A0007B018C016091FF0A7091000B8091010BF0
:1034B0009091020B20E030E040E85AE30E94D6DB16
:1034C0009B01AC01C801B7010E94D6DB2CE53FE8A7
:1034D0004AED51E40E94D6DB2DEC3CEC4CEC5DE374
:1034E0000E94D6DB7B018C0160915F1170916011AD
:1034F000809161119091621126E636E646E65FE31F
:103500000E94D6DB9B01AC01C801B7010E94CDD857
:1035100060935F11709360118093611190936211B9
:1035200023ED3CEB43EE5CE30E94D6DB9B01AC0158
:103530006091631170916411809165119091661191
:103540000E94CDD8609363117093641180936511CC
:10355000909366111F910F91FF90EF9008950F9334
:103560001F93CF93DF930E947B1007EB16E0C8E117
:10357000D5E064E670E080E090E00E9469D70E94A8
:1035800099170E94DF188DB79EB740970FB6F89431
:103590009EBF0FBE8DBFEDB7FEB73196ADB7BEB7BC
:1035A0001296DC93CE931197138302838091470385
:1035B00090914803A0914903B0914A038483958375
:1035C000A683B78380915F1190916011A0916111E2
:1035D000B091621180879187A287B3878091631130
:1035E00090916411A0916511B091661184879587BF
:1035F000A687B7870E9432C58DB79EB740960FB693
:10360000F8949EBF0FBE8DBF4091C50B5091C60B65
:1036100082EF92E160E00E9456814091C50B50918B
:10362000C60B82EF92E161E00E9456814091C50B8A
:103630005091C60B82EF92E162E00E945681409168
:10364000C50B5091C60B82EF92E163E00E94568158
:10365000CE010E94A9C5181619060CF08ACF80E089
:10366000DF91CF911F910F9108950F931F93CF93E7
:10367000DF930E947B1068EE73E080E090E00E9490
:1036800069D707ED16E0C8E1D5E064E170E080E0BD
:1036900090E00E9469D70E94991780911B0C90912D
:1036A0001C0C9093200C80931F0C8EE09CE00E94D9
:1036B000E9D08DB79EB708970FB6F8949EBF0FBE9E
:1036C0008DBFEDB7FEB73196ADB7BEB71296DC939E
:1036D000CE9311971383028380911B0C90911C0C45
:1036E000958384838091230C9091240C9783868307
:1036F0000E9432C58DB79EB708960FB6F8949EBF4C
:103700000FBE8DBF4091230C5091240C82EF92E1AB
:1037100066E00E945681CE010E94A9C518161906BE
:103720000CF0B3CF80E0DF91CF911F910F910895FE
:103730006091C30C7091C40C882777FD8095982FF9
:103740000E944CDA20E030E04AE754E40E94B1D90C
:103750006093240970932509809326099093270983
:103760008091CC0A992787FD9095A92FB92FFC014C
:103770003197EB30F10508F04FC1EE58FF4F0C9434
:1037800043DD86EB9CE060E070E040E45FE10E9496
:1037900015CF8091240990912509A0912609B09117
:1037A000270980931E0F90931F0FA093200FB093B3
:1037B000210F8093580F9093590FA0935A0FB093F5
:1037C0005B0F089586EB9CE060E070E04CE251E016
:1037D0000E9415CF6091C30C7091C40C882777FDAF
:1037E0008095982F0E944CDA20E030E04AE754E4BC
:1037F0000E94B1D9DC019B01AC01209324093093D4
:103800002509409326095093270920932D0F3093C3
:103810002E0F40932F0F5093300FCB018093670FE3
:103820009093680FA093690FB0936A0F089586EB89
:103830009CE060E070E04CE251E00E9415CF809186
:10384000240990912509A0912609B0912709809318
:10385000700E9093710EA093720EB093730E8093BE
:10386000AA0E9093AB0EA093AC0EB093AD0E08953C
:1038700086EB9CE060E070E04CE251E00E9415CFE6
:103880008091240990912509A0912609B0912709DA
:1038900080937F0E9093800EA093810EB093820E42
:1038A0008093B90E9093BA0EA093BB0EB093BC0E4A
:1038B000089586EB9CE060E070E048EE53E00E94E3
:1038C00015CF8091240990912509A0912609B091E6
:1038D00027098093920F9093930FA093940FB09326
:1038E000950F089586EB9CE060E070E048EE53E0B1
:1038F0000E9415CF8091240990912509A091260955
:10390000B09127098093E40E9093E50EA093E60E04
:10391000B093E70E089586EB9CE060E070E048EE1F
:1039200053E00E9415CF8091240990912509A09120
:103930002609B09127098093B4109093B510A093F5
:10394000B610B093B710089586EB9CE060E273E088
:1039500048EE53E00E9415CF8091240990912509EB
:10396000A0912609B09127098093E40A9093E50A73
:10397000A093E60AB093E70A089586EB9CE060E026
:1039800070E048EE53E00E9415CF2091C30C3091B7
:10399000C40C82E02E3038072CF080910B0184603B
:1039A00080930B012B5D3140BCF580910B018B7F27
:1039B00080930B01089586EB9CE060E070E048EE98
:1039C00053E00E9415CF8091C30C9091C40C90934A
:1039D000C9098093C809089586EB9CE060E070E017
:1039E00040E757E10E9415CF809124099091250965
:1039F000A0912609B091270980934010909341101F
:103A0000A0934210B093431080937A1090937B1050
:103A1000A0937C10B0937D1008950F931F93CF93C4
:103A2000DF930E947B100BEE16E0C8E1D5E068EC56
:103A300070E080E090E00E9469D70E9499170E9490
:103A4000981B8DB79EB708970FB6F8949EBF0FBE10
:103A50008DBFEDB7FEB73196ADB7BEB71296DC930A
:103A6000CE931197138302838091240990912509A5
:103A7000A0912609B091270984839583A683B783F3
:103A80000E9432C58DB79EB708960FB6F8949EBFB8
:103A90000FBE8DBFCE010E94A9C5181619063CF6AF
:103AA00080E0DF91CF911F910F91089580912712AF
:103AB00090912812892B09F45AC00E9435D7209181
:103AC0002112309122124091231250912412621B34
:103AD000730B840B950B209125123091261240E038
:103AE00050E0621773078407950708F440C037C099
:103AF000019790932812809327128091271290911A
:103B00002812892BA1F10E9435D76093211270935E
:103B10002212809323129093241260912012862FF8
:103B20008450843088F48091271280FF05C0409132
:103B3000291250912A1204C040912B1250912C123C
:103B400082EF92E10E94568180912012853079F4B3
:103B500080910B0194E0892780930B010895809157
:103B60002712909128121816190614F2C6CF08953C
:103B70000F931F93CF93DF93062F142F00D000D005
:103B800000D0EDB7FEB73196C8E1D5E0ADB7BEB70E
:103B90001296DC93CE93119725ED39E0338322837F
:103BA000848315820E9432C5EDB7FEB736960FB6F4
:103BB000F894FEBF0FBEEDBFE02FF0E0EE0FFF1F49
:103BC000E255FC4F60817181CE010E941ED500D06C
:103BD00000D0ADB7BEB71296DC93CE93119789ECA7
:103BE00099E014969C938E9313970E9432C50F9080
:103BF0000F900F900F90112359F000D000D0EDB727
:103C0000FEB7D283C18385EC99E0948383830EC091
:103C100000D000D0ADB7BEB71296DC93CE9311970B
:103C200080EC99E014969C938E9313970E9432C572
:103C30000F900F900F900F90DF91CF911F910F91E8
:103C40000895CF93DF93C0E0D0E088E195E060E095
:103C500072E00E941ED52196C832D105B1F788E1E5
:103C600095E062E072E00E9405D6DF91CF91089561
:103C7000CF93DF93EC0107C0219788E195E062E0E4
:103C800072E00E9405D61C161D06B4F3DF91CF9199
:103C9000089500D000D088E195E0EDB7FEB792839B
:103CA000818384E197E0948383830E9432C50F90DF
:103CB0000F900F900F900E94211E0E9497110E945A
:103CC000DD1182E090E00E94381E089500D000D0FF
:103CD00000D0EDB7FEB7319688E195E0ADB7BEB73D
:103CE00012969C938E93119780ED98E09383828334
:103CF0008091340990913509958384830E9432C55F
:103D00008DB79EB706960FB6F8949EBF0FBE8DBFB7
:103D10000E94211E82E090E00E94381E089500D08B
:103D200000D088E195E0EDB7FEB7928381838FEDF7
:103D300098E0948383830E9432C50F900F900F9078
:103D40000F900E94211E0E94371282E090E00E9494
:103D5000381E0895CF93DF9300D000D0C8E1D5E09E
:103D6000EDB7FEB7D283C1838CE699E09483838359
:103D70000E9432C50F900F900F900F900E94211E4D
:103D800000D000D0EDB7FEB7D283C18380E699E0C2
:103D9000948383830E9432C58091D80A0F900F903C
:103DA0000F900F90813049F400D000D0EDB7FEB7EE
:103DB000D283C18388E599E015C0882349F400D0F7
:103DC00000D0EDB7FEB7D283C18380E599E00AC089
:103DD000823081F400D000D0EDB7FEB7D283C1832A
:103DE00088E499E0948383830E9432C50F900F90FA
:103DF0000F900F9082E090E00E94381EDF91CF91EB
:103E0000089500D000D088E195E0EDB7FEB7928329
:103E100081838CE999E0948383830E9432C50F905B
:103E20000F900F900F900E94211E80919B0A882373
:103E300011F40E94FF1080919B0A813091F400D010
:103E400000D088E195E0EDB7FEB79283818384E9E5
:103E500099E0948383830E9432C50F900F900F9056
:103E60000F9080919B0A823091F400D000D088E1BD
:103E700095E0EDB7FEB7928381838CE899E0948357
:103E800083830E9432C50F900F900F900F90809106
:103E90009B0A833091F400D000D088E195E0EDB723
:103EA000FEB79283818381E899E0948383830E94A3
:103EB00032C50F900F900F900F9080919B0A843025
:103EC00091F400D000D088E195E0EDB7FEB7928381
:103ED000818383E799E0948383830E9432C50F90A6
:103EE0000F900F900F9082E090E00E94381E08958E
:103EF0000F931F93CF93DF9300D000D088E195E01C
:103F0000EDB7FEB79283818382EB99E0948383833C
:103F10000E9432C50F900F900F900F900E94211EAB
:103F200001E21AE0C0E0D0E04091690A552747FD60
:103F300050950C2E02C0559547950A94E2F74170B2
:103F400050708C2FF80160810E94B81D2196045F8B
:103F50001F4FC630D10541F782E090E00E94381E25
:103F6000DF91CF911F910F910895CF93DF9300D0F0
:103F700000D0C8E1D5E0ADB7BEB71296DC93CE93C2
:103F800011978DE19AE014969C938E9313970E945B
:103F900032C50F900F900F900F900E94211E20911C
:103FA000CC0A222321F480E00E94FF1020C000D020
:103FB00000D000D0EDB7FEB73196ADB7BEB71296C0
:103FC000DC93CE93119788E19AE093838283822FCA
:103FD000992787FD9095958384830E9432C5EDB71C
:103FE000FEB736960FB6F894FEBF0FBEEDBF82E067
:103FF00090E00E94381EDF91CF91089500D000D04C
:1040000088E195E0EDB7FEB79283818387EA93E17B
:10401000948383830E9432C50F900F900F900F906E
:104020000E94211E8091B6120E94FF1082E090E053
:104030000E94381E0895ACE0B0E0E1E2F0E20C949A
:104040001CDD85E997E00E9454B1DE011196EAE19A
:10405000F8E08CE001900D928150E1F7A5E1B1E12B
:10406000FE0131968CE001900D928150E1F72C9683
:10407000E2E00C9438DDA0E3B0E0E1E4F0E20C947F
:104080000CDDDE011196E6ECF7E084E201900D9282
:104090008150E1F729803A804B805C806D847E847A
:1040A0008F849888A98CBA8CCB8CDC8C89A19AA13E
:1040B000ABA1BCA189A79AA7ABA7BCA78D8D9E8DEC
:1040C000AF8DB8A18DA39EA3AFA3B8A7C201B101C4
:1040D000A20191010E94D6DB7B018C01C401B301D6
:1040E000A40193010E94D6DB9B01AC01C801B7017A
:1040F0000E94CDD80E9443DC6DA77EA78FA798AB06
:10410000D601C501B05880936D1190936E11A093A4
:104110006F11B0937011C601B501A60195010E94FF
:10412000D6DB9B01AC0160E070E080E89FE30E9479
:10413000CCD80E9443DC7B018C0160935B037093BD
:104140005C0380935D0390935E0369A57AA58BA5BC
:104150009CA5A80197010E94B1D960935F03709359
:10416000600380936103909362036DA17EA18FA190
:1041700098A5A80197010E94B1D96093711170931D
:1041800072118093731190937411C401B3012DA522
:104190003EA54FA558A90E94B1D9609363037093BF
:1041A00064038093650390936603C201B1012DA55A
:1041B0003EA54FA558A90E94B1D96093751170937F
:1041C00076118093771190937811E096E2E10C9448
:1041D00028DDA4E2B0E0EFEEF0E20C9416DD0E94E0
:1041E000491E85E497E069E677ED0E944AC10E9486
:1041F000491E0E947B1068EE73E080E090E00E9410
:1042000069D70E9435D760936811709369118093C4
:104210006A1190936B1115E0C12E17E0D12EB8E111
:10422000EB2EB5E0FB2E8E010F5F1F4F0E9435D79E
:10423000209168113091691140916A1150916B1170
:10424000621B730B840B950B65307105810591051D
:1042500008F46AC00E941B2080916C118F5F8093CC
:104260006C11843011F40E943B2080916C118431D8
:1042700009F05AC00E94991710926C118DB79EB721
:1042800040970FB6F8949EBF0FBE8DBFEDB7FEB737
:104290003196ADB7BEB71296FC92EE921197D382CB
:1042A000C2828091950790919607A0919707B0914F
:1042B000980784839583A683B7838091990790910B
:1042C0009A07A0919B07B0919C0780879187A2874E
:1042D000B38780919D0790919E07A0919F07B09111
:1042E000A00784879587A687B7870E9432C58DB7B8
:1042F0009EB740960FB6F8949EBF0FBE8DBF8091BB
:10430000B40A882389F084EB95E00E941791D801C4
:10431000E6ECF7E084E201900D928150E1F784EB46
:1043200095E0B8010E94F29D88E195E00E94A9C540
:10433000181619060CF07ACF80E0A496E8E00C94E9
:1043400032DDAF92BF92CF92DF92EF92FF920F9346
:104350001F937C018B01FB016781708581859285AC
:10436000F7012781308541855285621B730B840BD1
:10437000950B0E944CDA5B016C01F8016385748532
:1043800085859685F7012385348545855685621B8D
:10439000730B840B950B0E944CDA209169033091CA
:1043A0006A0340916B0350916C030E94D6DB7B0142
:1043B0008C01C601B501A60195010E94D6DB5B0107
:1043C0006C01C801B701A80197010E94D6DB9B01CF
:1043D000AC01C601B5010E94CDD80E9443DC28EC97
:1043E00032E646E35CE30E94D6DB0E9419DA9B01C9
:1043F000AC01CA011F910F91FF90EF90DF90CF9019
:10440000BF90AF900895CF92DF92FF920F931F93CA
:10441000CF93DF930E947B1000D000D008E115E01D
:10442000ADB7BEB712961C930E93119784E697E032
:1044300014969C938E9313970E9432C50F900F9001
:104440000F900F9068EE73E080E090E00E9469D7D3
:1044500080E6C82E87E0D82EC0E0D0E0F02E012FF5
:1044600021C08EE495E06C2F0E94908200D000D095
:1044700000D0EDB7FEB73196ADB7BEB71196FC923E
:10448000119712960C93D382C282958384830E94E3
:1044900032C52196EDB7FEB736960FB6F894FEBF3B
:1044A0000FBEEDBFC930D105E4F288E195E00E946E
:1044B000EED564E170E080E090E00E9469D788E189
:1044C00095E00E94A9C5181619061CF0C0E0D0E0BE
:1044D000E9CF80E0DF91CF911F910F91FF90DF90A6
:1044E000CF900895A0E0B0E0E8E7F2E20C9416DD8A
:1044F0000E947B1068EE73E080E090E00E9469D734
:1045000029E6C22E27E0D22E98E1E92E95E0F92E79
:104510006DE471E080E090E00E9469D70E94D70FBF
:1045200080911311909114110E9445BBC0911311F9
:10453000D09114118FA1882309F445C08DB79EB77F
:1045400042970FB6F8949EBF0FBE8DBF0DB71EB732
:104550000F5F1F4FEDB7FEB7F282E182F801D38201
:10456000C2828C859D85AE85BF8584839583A68315
:10457000B78388899989AA89BB8980879187A2870F
:10458000B3876C897D898E899F8924E630E040E07D
:1045900050E00E94F1DCF801248735874687578771
:1045A0008EA1808B118A0E9432C5E0911311F09187
:1045B000141117A28DB79EB742960FB6F8949EBFFE
:1045C0000FBE8DBF06C088E195E063E072E00E94F7
:1045D0001ED588E195E00E94A9C5181619060CF0B1
:1045E00097CF80E0CDB7DEB7E8E00C9432DD00D0A5
:1045F00000D088E195E0EDB7FEB79283818386EF26
:1046000097E0948383830E9432C50F900F900F90A0
:104610000F9088E291E10E94838D80E008958DE300
:1046200091E10E94838D80E00895CF93DF9300D0C5
:1046300000D0C8E1D5E0EDB7FEB7D283C18382ECEC
:1046400098E0948383830E9432C50F900F900F905F
:104650000F908091340B9091350B8451954064F10B
:1046600068EE73E080E090E00E9469D700D000D04F
:10467000EDB7FEB7D283C18389E998E09483838341
:104680000E9432C50F900F900F900F9068EE73E06C
:1046900080E090E00E9469D700D000D0EDB7FEB76F
:1046A000D283C18386E798E0948383830E9432C5D6
:1046B0000F900F900F900F908FE291E10E94838DE9
:1046C00080E0DF91CF91089581E291E10E94838D96
:1046D00080E0089584E89AE00E94A58600D000D08A
:1046E00088E195E0EDB7FEB7928381838BEA99E08C
:1046F000948383830E9432C50F900F900F900F9088
:104700000E94211E80918F0A0E94FF1082E090E09B
:104710000E94381E0895A0E0B0E0E1E9F3E20C94B5
:1047200016DD00D000D048E1E42E45E0F42EADB710
:10473000BEB71296FC92EE9211978FE09AE0149613
:104740009C938E9313970E9432C50F900F900F90F9
:104750000F900E94211E8091B40A0E94FF1034EB3A
:10476000C32E35E0D32EC6010E94DC95CDB7DEB74F
:1047700028970FB6F894DEBF0FBECDBF0DB71EB79A
:104780000F5F1F4FFA82E9822FEF39E0F801338380
:10479000228321EE3EE245E652E40E94D6DBD801B8
:1047A00014966D937D938D939C9317970E9432C5B9
:1047B000CDB7DEB728960FB6F894DEBF0FBECDBFDB
:1047C000C6010E94D7959C01EDB7FEB770970FB652
:1047D000F894FEBF0FBEEDBF3196ADB7BEB71296CF
:1047E000FC92EE9211978EED99E093838283E9011A
:1047F00088819981AA81BB8184839583A683B783AD
:104800008C819D81AE81BF8180879187A287B3878C
:1048100088859985AA85BB8584879587A687B7876C
:104820000E9432C5EDB7FEB770960FB6F894FEBF82
:104830000FBEEDBF82E090E00E94381ECDB7DEB71C
:10484000E8E00C9432DDFF920F931F93F82E8B015A
:1048500088E090E00E94381E0E94661E0E948F1E13
:104860000E94AA1E0E94011F0E946A230E94781FB4
:104870000E94491E0E948B238F2DB8010E94578CE5
:1048800080E01F910F91FF900895FB01608971896D
:104890008289938925E33AEF4EE85CE30E94D6DBF8
:1048A000AB01BC0184EB95E00E9477A00E948B23B2
:1048B00080E00895FB0184858093CC0A81EC9AE026
:1048C0000E9434870E94B51F80E0089500D000D078
:1048D00088E195E0EDB7FEB7928381838CEC9AE096
:1048E000948383830E9432C581E08093C00A0F9035
:1048F0000F900F900F9085EB9AE00E94348764E14F
:1049000070E080E090E00E9469D788E195E00E9425
:10491000A9C5181619069CF71092C00A85EB9AE0F3
:104920000E94348780E0089564E170E080E090E0C8
:104930000E9469D70E9499172091DC0B3091DD0B02
:1049400030937B1120937A1130937D1120937C1149
:1049500030937F1120937E11309381112093801129
:104960008091D80A813009F055C040911F0B5091B9
:10497000200B8BE0493B58075CF0C9018C599F4FD5
:1049800090937B1180937A11909381118093801181
:104990004854544FA4F480917C1190917D118C590E
:1049A0009F4F90937D1180937C1180917E11909107
:1049B0007F118C599F4F90937F1180937E1120918E
:1049C000730B3091740B4BE0293B3407A4F08091BA
:1049D0007C1190917D118C599F4F90937D11809304
:1049E0007C1180918011909181118C599F4F9093EF
:1049F0008111809380112854344F0CF045C0809170
:104A00007A1190917B118C599F4F90937B118093D9
:104A10007A1130C080911F0B9091200B4BE0893BA5
:104A2000940734F02C593F4F30937B1120937A1127
:104A30008854944F54F480917C1190917D118C593D
:104A40009F4F90937D1180937C112091730B309137
:104A5000740B4BE0293B340754F080918011909106
:104A600081118C599F4F909381118093801128540C
:104A7000344F54F480917E1190917F118C599F4F47
:104A800090937F1180937E1140917A1150917B1108
:104A900082EF92E160E00E94568140917C1150913A
:104AA0007D1182EF92E161E00E94568140917E117A
:104AB00050917F1182EF92E162E00E945681409115
:104AC00080115091811182EF92E163E00E94568142
:104AD00088E195E00E94A9C5181619060CF024CFAC
:104AE0001092C00A85EB9AE00E94348780E0089516
:104AF000FF920F931F93CF93DF9300D000D088E1F4
:104B000095E0EDB7FEB79283818381E79AE09483C5
:104B100083830E9432C50F900F900F900F900E94D8
:104B20007B10FF2400E0C1E0D0E064E170E080E0B1
:104B300090E00E9469D70E9499170E94390F182FA0
:104B4000F81609F190E0FC01EE0FFF1FE80FF91FC6
:104B5000EE0FFF1FEE0FFF1FEA5EF54F03850830D3
:104B600008F007E04091690A552747FD5095012E4E
:104B700002C0559547950A94E2F741705070812F15
:104B8000602F0E94B81D80911F0B9091200B97FF02
:104B900003C0909581959F4F895B9B404CF10F5FBF
:104BA000083009F400E0812F90E0FC01EE0FFF1FB8
:104BB000E80FF91FEE0FFF1FEE0FFF1FEA5EF54F24
:104BC00003874091690A552747FD5095012E02C081
:104BD000559547950A94E2F741705070812F602FE8
:104BE0000E94B81D64EF71E080E090E00E9469D7F8
:104BF00080911B0C90911C0C895B9B400CF1CE01A9
:104C0000012E02C0880F991F0A94E2F74091690AA9
:104C1000482B4093690A552747FD5095012E02C045
:104C2000559547950A94E2F741705070812F602F97
:104C30000E94B81D64EF71E080E090E00E9469D7A7
:104C400080911B0C90911C0C8854944F1CF5CE0144
:104C5000012E02C0880F991F0A94E2F780952091D7
:104C6000690A82238093690A482F552747FD50958A
:104C7000012E02C0559547950A94E2F74170507095
:104C8000812F602F0E94B81D64EF71E080E090E0FA
:104C90000E9469D788E195E00E94A9C5F12E1816F7
:104CA00019060CF042CFC6E1DAE0CE010E9434874B
:104CB0002C96FAE0CE35DF07C1F7CE010E9434878B
:104CC0000E940B130E94781F80E0CDB7DEB7E5E0AD
:104CD0000C9435DDA4E2B0E0E0E7F6E20C941ADDD6
:104CE00080E090E0A0E8BFE389839A83AB83BC8334
:104CF00080E090E0A0E0B0E08D839E83AF83B88732
:104D000089879A87AB87BC878D879E87AF87B88B4B
:104D100020E030E040E85FEB298B3A8B4B8B5C8BDB
:104D20008D8B9E8BAF8BB88F898F9A8FAB8FBC8FFB
:104D30008D8F9E8FAF8FB8A329A33AA34BA35CA3FB
:104D400004EB15E0C801BE016F5F7F4F0E94E39046
:104D500085E997E0B8010E94B4A1C8010E943B9385
:104D6000C8010E94D795A496E4E00C9436DDCF9359
:104D7000DF93FB01C285D385CE0167E57AE00E940F
:104D8000CCDE892B21F481E080938F0A09C0CE010B
:104D900063E57AE00E94CCDE892B39F410928F0A09
:104DA00084E89AE00E94348712C000D000D088E1E5
:104DB00095E0EDB7FEB7928381838FE39AE0948309
:104DC00083830E9432C50F900F900F900F900E9426
:104DD0006A2380E0DF91CF910895CF93DF93FB01A9
:104DE000EB012A96828593856DE67AE00E94CCDEFF
:104DF000892B19F410929B0A0FC02A813B814C81A8
:104E00005D81DA01C9010197A109B1090497A105E2
:104E1000B10538F420939B0A80E99AE00E94348718
:104E200012C000D000D088E195E0EDB7FEB79283C4
:104E300081838AE59AE0948383830E9432C50F9030
:104E40000F900F900F900E94011F80E0DF91CF9193
:104E50000895CF93DF93FB01C285D385CE0168EA25
:104E60007BE00E94CCDE892B11F481E019C0CE01D9
:104E700066EA7BE00E94CCDE892B39F0CE0164EA41
:104E80007BE00E94CCDE892B19F41092D80A0AC06C
:104E9000CE0162EA7BE00E94CCDE892B41F482E005
:104EA0008093D80A8DEC9AE00E94348712C000D01B
:104EB00000D088E195E0EDB7FEB79283818380E969
:104EC0009BE0948383830E9432C50F900F900F90D4
:104ED0000F900E94AA1E80E0DF91CF910895ACE070
:104EE000B0E0E5E7F7E20C941ADDFB0102851385DB
:104EF000C8016CE37AE00E94CCDE892B51F481E09A
:104F00008093B40A89EA9AE00E9434870E946A2654
:104F10003CC0C80168E37AE00E94CCDE892B11F521
:104F200080E090E0A0E0B0E089839A83AB83BC830B
:104F30008D839E83AF83B88789879A87AB87BC8729
:104F400084EB95E0BE016F5F7F4F0E94BA9584EBC2
:104F500095E00E9483A01092B40A89EA9AE00E9428
:104F6000348713C000D000D088E195E0EDB7FEB7DC
:104F70009283818385E29AE0948383830E9432C581
:104F80000F900F900F900F9004C089EA9AE00E9452
:104F900034870E948B2380E02C96E4E00C9436DD6D
:104FA00085E497E069E677ED0E9435C10E94DD1146
:104FB0000E94491E80E008950F931F93CF93DF93C3
:104FC00088E195E065E072E00E9405D600E064E1CA
:104FD00070E080E090E00E9469D70E9499170F5F0F
:104FE0000436A9F7C0911D0BD0911E0B81E0C43F80
:104FF000D8073CF468EE73E080E090E00E9469D747
:10500000F9CFD093350BC093340B2091710B3091B5
:10501000720B3093890B2093880B0091C50B109174
:10502000C60B1093DD0B0093DC0B8091190C909153
:105030001A0C9093310C8093300CA0916D0CB091B0
:105040006E0CB093850CA093840CE091C10CF09190
:10505000C20CF093D90CE093D80C6091150D7091AF
:10506000160D70932D0D60932C0D4091690D50918C
:105070006A0D5093810D4093800DD0934F0BC093D8
:105080004E0B3093A30B2093A20B1093F70B0093BE
:10509000F60B90934B0C80934A0CB0939F0CA0930B
:1050A0009E0CF093F30CE093F20C7093470D609319
:1050B000460D50939B0D40939A0DD093420BC09395
:1050C000410B3093960B2093950B90933E0C80935D
:1050D0003D0C8CED95E09093920C8093910C909305
:1050E000E60C8093E50C90933A0D8093390D9093E4
:1050F0008E0D80938D0D00D000D088E195E0EDB746
:10510000FEB7928381838AEA9BE0948383830E9423
:1051100032C50F900F900F900F9064E170E080E027
:1051200090E00E9469D70E94991782E19BE00E945B
:105130006DCF86E69BE00E946DCF8AEB9BE00E94DC
:105140006DCF8EE09CE00E946DCF82E69CE00E94D5
:105150006DCF86EB9CE00E946DCF8AE09DE00E94BF
:105160006DCF8EE59DE00E946DCF88E195E00E94B5
:10517000A9C5181619068CF664E170E080E090E08D
:105180000E9469D788E195E00E9426C682E19BE0F3
:105190000E94A3D186E69BE00E94A3D18AEB9BE00C
:1051A0000E94A3D18EE09CE00E94A3D182E69CE005
:1051B0000E94A3D186EB9CE00E94A3D18AE09DE0EF
:1051C0000E94A3D18EE59DE00E94A3D10E940B1303
:1051D0000E948F1E80E0DF91CF911F910F91089563
:1051E00000D000D088E195E0EDB7FEB792838183CF
:1051F00087E09CE0948383830E9432C50F900F90D8
:105200000F900F9088E195E00E94D9C5FFEF8F3F86
:105210009F07C1F38937910529F08935910511F070
:105220008FEF08950E94108700D000D088E195E0AC
:10523000EDB7FEB79283818382EE9BE094838383F4
:105240000E9432C50F900F900F900F9068EE73E0A0
:1052500080E090E00E9469D7FFCFCF93DF9300D02A
:1052600000D088E195E0EDB7FEB79283818385E4B5
:105270009CE0948383830E9432C5C0E0D0E00F900D
:105280000F900F900F90CE0160E00E94CDE121962B
:10529000F0E1C030DF07B9F700D000D088E195E039
:1052A000EDB7FEB7928381838FE39CE09483838381
:1052B0000E9432C50F900F900F900F90DF91CF9109
:1052C00008950E942D2980E00895EF92FF920F9398
:1052D0001F93CF93DF937B018230A1F000D000D0E9
:1052E00088E195E0EDB7FEB79283818384E09DE08D
:1052F000948383830E9432C58FEF0F900F900F909D
:105300000F9091C0FB0102851385C80160E07DE02C
:105310000E94B9DE892B19F4CFEFDFEF63C0C8011B
:1053200062EF7CE00E94B9DEC0E0D0E0892B11F48E
:10533000C1E0D0E0C80165EE7CE00E94B9DE892BB7
:1053400009F4C260C80161EE7CE00E94B9DE892BDD
:1053500009F4C460C8016EED7CE00E94B9DE892BBF
:1053600009F4C860C80169ED7CE00E94B9DE892BB0
:1053700009F4C061C80164ED7CE00E94B9DE892BAC
:1053800009F4C062C8016FEC7CE00E94B9DE892B91
:1053900009F4C064C8016BEC7CE00E94B9DE892B83
:1053A00009F4C068C80167EC7CE00E94B9DE892B73
:1053B00009F4D160C80163EC7CE00E94B9DE892B5E
:1053C00009F4D260C8016CEB7CE00E94B9DE892B45
:1053D00009F4D460C80164EB7CE00E94B9DE892B3B
:1053E00009F4D860F701808191816DEA7CE00E9428
:1053F000B9DE892B39F48091750A9091760AC82B11
:10540000D92B08C0C095D0958091750A9091760AE5
:10541000C823D923D093760AC093750A8AE69AE006
:105420000E94348780E0CDB7DEB7E6E00C9434DD2F
:10543000CF93DF9300D000D088E195E0EDB7FEB7C1
:105440009283818384E29DE0948383830E9432C5AA
:10545000C1E0D0E00F900F900F900F908CEC93E193
:10546000BE010E948FC22196F0E1C030DF07B1F784
:105470008CEC93E161E070E00E9483C28CEC93E1DC
:1054800063EA0E9439C38CEC93E165E90E9439C359
:105490008CEC93E160EF0E9439C38CEC93E160E007
:1054A0000E9439C38CEC93E16AEB0E9439C38CEC07
:1054B00093E10E94B1C300D000D088E195E0EDB740
:1054C000FEB79283818386E19DE0948383830E946B
:1054D00032C50F900F900F900F9080E0DF91CF9129
:1054E00008956F927F928F929F92AF92BF92CF92C8
:1054F000DF92EF92FF920F931F930CEC13E1C80120
:105500000E949AC43C01C8010E949AC44C01C8017F
:105510000E949AC45C01C8010E949AC46C01C8012F
:105520000E949AC47C01C8010E949AC42DB73EB75C
:10553000205130400FB6F8943EBF0FBE2DBFEDB7DF
:10554000FEB7319628E135E0ADB7BEB712963C9371
:105550002E93119723E43DE0338322837582648286
:1055600097828682B186A086D386C286F586E48637
:10557000978786870E9432C52DB73EB7205F3F4F81
:105580000FB6F8943EBF0FBE2DBF1F910F91FF9035
:10559000EF90DF90CF90BF90AF909F908F907F90D3
:1055A0006F900895EF92FF920F931F9300D000D059
:1055B00008E115E0ADB7BEB712961C930E93119794
:1055C00086E69DE014969C938E9313970E9432C5B5
:1055D0000F900F900F900F908CECE82E83E1F82E37
:1055E000C7010E9429C4E82FF0E0EE0FFF1FE2552B
:1055F000FC4F60817181C8010E941ED5C7010E94C5
:105600009AC400D000D000D0EDB7FEB73196ADB748
:10561000BEB712961C930E93119720E63DE033839C
:105620002283958384830E9432C5EDB7FEB73696F8
:105630000FB6F894FEBF0FBEEDBF1F910F91FF9004
:10564000EF9008952F923F924F925F926F927F92C8
:105650008F929F92AF92BF92CF92DF92EF92FF9282
:105660000F931F930CEC13E1C8010E949AC41C0114
:10567000C8010E949AC42C01C8010E949AC43C012E
:10568000C8010E949AC44C01C8010E949AC45C01DE
:10569000C8010E949AC46C01C8010E949AC47C018E
:1056A000C8010E949AC42DB73EB7245130400FB6AE
:1056B000F8943EBF0FBE2DBFEDB7FEB7319628E17F
:1056C00035E0ADB7BEB712963C932E9311972BE6FB
:1056D0003DE033832283358224825782468271865D
:1056E000608693868286B586A486D786C686F18A2A
:1056F000E08A938B828B0E9432C52DB73EB72C5E19
:105700003F4F0FB6F8943EBF0FBE2DBF1F910F91B4
:10571000FF90EF90DF90CF90BF90AF909F908F90D1
:105720007F906F905F904F903F902F9008959F9241
:10573000AF92BF92CF92DF92EF92FF920F931F939F
:105740000CEC13E1C8010E949AC45C01C8010E94DC
:1057500029C4982EC8010E949AC46C01C8010E94F5
:105760009AC47C01C8010E949AC42DB73EB72E503E
:1057700030400FB6F8943EBF0FBE2DBFEDB7FEB759
:10578000319628E135E0ADB7BEB712963C932E9323
:10579000119721E93DE033832283B582A48296826A
:1057A0001782D186C086F386E286958784870E9419
:1057B00032C52DB73EB7225F3F4F0FB6F8943EBFBC
:1057C0000FBE2DBF1F910F91FF90EF90DF90CF90F4
:1057D000BF90AF909F900895AF92BF92CF92DF920B
:1057E000EF92FF920F931F930CEC13E1C8010E94FC
:1057F0009AC45C01C8010E949AC46C01C8010E944D
:105800009AC47C01C8010E949AC42DB73EB72C509F
:1058100030400FB6F8943EBF0FBE2DBFEDB7FEB7B8
:10582000319628E135E0ADB7BEB712963C932E9382
:10583000119728E23EE033832283B582A482D78287
:10584000C682F186E086938782870E9432C52DB793
:105850003EB7245F3F4F0FB6F8943EBF0FBE2DBF3B
:105860001F910F91FF90EF90DF90CF90BF90AF907E
:1058700008951F938CEC93E161E070E00E94B0C446
:1058800010E08CEC93E10E9429C4113051F01130EA
:1058900018F0123099F408C010E0833A79F411E05E
:1058A0000DC0853951F407C0803F39F48CEC93E189
:1058B0000E9429C40AC012E001C010E08CEC93E100
:1058C0000E94EAC10197E9F280E01F910895EF92EA
:1058D000FF920F931F93CF93DF938C01C0E0D0E131
:1058E0001FC0CE01800F911F62E070E00E94BCDCFF
:1058F000F62EE72E8CEC93E10E94B0C48CEC93E181
:105900000E9459C46F5F7F4F8F4F9F4F29F48F2D97
:105910009E2D9C01E90104C08F2D9E2D9C018901C3
:10592000CE01801B910B0297E4F6CE01CDB7DEB716
:10593000E6E00C9434DDA0E0B0E0E1EAFCE20C9497
:1059400014DDE82E6B015A018CEC93E161E070E00C
:105950000E94B0C410E08CEC93E10E9429C4113085
:1059600051F0113018F01230A9F508C010E0833A58
:1059700089F511E02FC0853961F529C0803F49F5CF
:105980008CEC93E10E9429C4F82EC0E0D0E00E2DEB
:1059900010E00FC08CEC93E10E949AC4F601918351
:1059A00080838CEC93E10E949AC4F50191838083FB
:1059B0002196C017D10774F3EF1499F4F601808192
:1059C00091810E94672CF501918380830AC012E0C7
:1059D00001C010E08CEC93E10E94EAC1019709F448
:1059E000BACFCDB7DEB7EAE00C9430DDA4E0B0E08A
:1059F000ECEFFCE20C9410DD0E94392CD82E00D084
:105A000000D008E115E0ADB7BEB712961C930E9317
:105A100011978DE991E114969C938E9313970E94B0
:105A200032C58091750A9091760A0F900F900F9071
:105A30000F90009759F400D000D0EDB7FEB7128355
:105A4000018388E991E19483838308C180FF14C0B6
:105A500000D000D0ADB7BEB712961C930E9311972D
:105A600089E891E114969C938E9313970E9432C516
:105A70000F900F900F900F908091750A81FF12C0C8
:105A800000D000D088E195E0EDB7FEB79283818326
:105A90008BE791E1948383830E9432C50F900F902E
:105AA0000F900F908091750A82FF16C000D000D031
:105AB00088E195E0ADB7BEB712969C938E9311978F
:105AC00086E791E114969C938E9313970E9432C5BA
:105AD0000F900F900F900F908091750A83FF12C066
