:100000000C94F00A0C941C0B0C941C0B0C941C0B01
:100010000C941C0B0C941C0B0C941C0B0C941C0BC4
:100020000C941C0B0C941C0B0C941C0B0C941C0BB4
:100030000C941C0B0C941C0B0C941C0B0C94037652
:100040000C941C0B0C941C0B0C941C0B0C941C0B94
:100050000C941C0B0C941C0B0C941C0B0C94C69C49
:100060000C941C0B0C94DF0C0C941F0D0C941C0BAB
:100070000C941C0B0C941C0B0C941C0B0C941C0B64
:100080000C941C0B0C941C0B0C941C0B0C941C0B54
:100090000C94710D0C94B10D0C941C0B0C94509994
:1000A0000C941C0B0C9470740C941C0B0C941C0B77
:1000B0000C941C0B0C941C0B0C941C0B0C941C0B24
:1000C0000C941C0B0C941C0B0C941C0B0C941C0B14
:1000D0000C941C0B0C941C0B0C94030E0C94430EF0
:1000E0000C941C0BFA191B1A921A501A711AAB1A9B
:1000F000C41ADD1AF61A141B251B4A2F6B2F4D2F1D
:10010000502F532F562F592F5C2F5F2F622F652FA3
:10011000682FD14A174B224B314C724BEE4B664B3A
:10012000874B314C314C314C314C314C314C314C92
:10013000314C314C314C314C314C314C314C314CD7
:10014000314C224C614D5B4D6A4D7F4DBB4DA74DEF
:10015000D24D934D834EAF4EB84EBB4EBE4E8058DF
:10016000C14E805880588058C44EC74ECA4EF34E78
:10017000F14EF14EF14EFF4EF14EF54EF14EF14E75
:10018000024F0A4F044F074FF14EF14EF14E0F4F01
:10019000F14EF14EF14EF14EF14E0A4FF14E0C4F31
:1001A000E774EC74F174F674FB74007505750A75E8
:1001B0000F7514751975A193A193C593349409947F
:1001C0004F946A949794D5941C95039E069EF99D2E
:1001D000FD9D3F9E0A9E0E9E149E189E1C9E229E72
:1001E000269E2A9E309E349E3A9E084AD73B3BCE9E
:1001F000016E84BCBFFDC12F3D6C74319ABD568326
:100200003DDA3D00C77F11BED9E4BB4C3E916BAADD
:10021000AABE000000803F05A84CCDB2D44EB9382C
:1002200036A9020C50B9918688083CA6AAAA2ABE13
:10023000000000803F4C6F670064756D7000000027
:10024000000000000000007E2F65726173650000F1
:1002500000000000000000C027656E61626C650050
:10026000000000000000000D2764697361626C6586
:10027000000000000000000D2768656C70000000A1
:10028000000000000000006B12706C616E6E657201
:1002900000676373000000000000000000000067BA
:1002A0005A736574757000657261736500000000B3
:1002B00000000000000927726573657400000000EB
:1002C00000000000009826726164696F0000000061
:1002D000000000000084256672616D65000000006A
:1002E0000000000000DD246D6F746F727300000069
:1002F00000000000004D2265736300000000000054
:1003000000000000001F226C6576656C0000000094
:1003100000000000009E1C6D6F646573000000000B
:10032000000000000031236261747465727900007E
:100330000000000000A124736F6E617200000000D5
:1003400000000000006B24636F6D70617373000028
:100350000000000000232574756E65000000000099
:10036000000000000013226465636C696E617469AB
:100370006F6E000000FE2173686F770000000000C0
:100380000000000000DC2141726475436F707465E9
:10039000722056322E302E34342042657461006C47
:1003A0006F6773000000000000000000001D217353
:1003B00065747570000000000000000000CE20741D
:1003C00065737400000000000000000000C8206891
:1003D000656C7000000000000000000000701170EB
:1003E0006C616E6E657200000000000000B0207449
:1003F0006573740070776D0000000000000000005D
:100400000000A616726164696F0000000000000021
:1004100000003A166661696C736166650000000051
:100420000000D90E6770730000000000000000009B
:1004300000002B20696D7500000000000000000026
:100440000000051F6261747465727900000000008D
:100450000000F81074756E650000000000000000D8
:100460000000461B747269000000000000000000DC
:1004700000006E1963757272656E740000000000F2
:100480000000E81872656C6179000000000000004F
:1004900000009E10776179706F696E7473000000C0
:1004A00000008D14736F6E61720000000000000088
:1004B0000000AB13636F6D70617373000000000088
:1004C0000000F31278626565000000000000000083
:1004D00000004210656564756D700000000000004A
:1004E00000009212726177677073000000000000D4
:1004F0000000031048697420456E74657220746FA3
:1005000020657869742E0A0A00202530327800258B
:100510003034783A00426567696E2058426565203C
:10052000582D4354552052616E676520616E6420DA
:100530005253534920546573743A0A00436F6D70E7
:100540006173733A200048656164696E673A2025DB
:100550006C642C2058595A3A2025642C2025642C90
:100560002025640A0061626C65640A006469730096
:10057000656E00536F6E61723A20256420636D0AC8
:1005800000536F6E61722064697361626C65640A06
:1005900000486974207261643A2025640A00256469
:1005A0002077700A006F662025646D0A000A0048F3
:1005B0006F6C6420616C742000636F6D6D616E649C
:1005C00020233A2025642069643A2564206F703A1C
:1005D00025642070313A25642070323A256C6420FD
:1005E00070333A256C642070343A256C64200A001C
:1005F00052656C6179206F66660A0052656C61799C
:10060000206F6E0A00563A2025342E34662C204185
:100610003A2025342E34662C206D41683A2025344A
:100620002E34660A00696E7075743A202564096F6D
:10063000757470757425640A0074756E653A2025AA
:10064000312E33660A004E6F7420656E61626C65F0
:10065000640A00256C642C20256C642C20256C64B5
:100660000A00494D550A004779726F206F6666731C
:100670006574733A2025342E32662C2025342E32B0
:10068000662C2025342E32660A00416363656C2097
:100690006F6666736574733A2025342E32662C209B
:1006A00025342E32662C2025342E32660A004C6109
:1006B000743A20256C642C204C6F6E20256C642CC1
:1006C00020416C743A20256C646D2C202373617476
:1006D000733A2025640A00494E2020313A202564CF
:1006E00009323A20256409333A20256409343A2036
:1006F000256409353A20256409363A2025640937EE
:100700003A2025640A00494E3A20313A20256409EE
:10071000323A20256409333A20256409343A2025E9
:100720006409353A20256409363A20256409373AA8
:1007300020256409383A2025640A00506C616E6EE9
:100740006572204D6F64650A4E6F7420696E746522
:100750006E64656420666F72206D616E75616C20D9
:100760007573650A0A00436F6D6D616E64733A0AB2
:1007700020206C6F67730A202073657475700A20DF
:1007800020746573740A2020706C616E6E65720A45
:100790000A4D6F76652074686520736C6964652006
:1007A00073776974636820616E6420726573657421
:1007B00020746F20464C592E0A0A000A2054797082
:1007C000652027726164696F2720746F20636F6EE4
:1007D000666967757265206E6F772E0A0A000A21B6
:1007E0005761726E696E672C20796F757220726125
:1007F00064696F206973206E6F7420636F6E666921
:10080000677572656421005365747570204D6F645F
:10081000650A0A0A0046572056657273696F6E2092
:1008200025640A00526164696F0A004348373A2020
:100830002564207C2025640A004348363A2025643C
:10084000207C2025640A004348353A202564207C1A
:100850002025640A004348343A202564207C202562
:10086000640A004348333A202564207C2025640A2A
:10087000004348323A202564207C2025640A004346
:1008800048313A202564207C2025640A0056206DDA
:100890006F64650A002B206D6F64650A0058206D37
:1008A0006F64650A0051756164206672616D650A46
:1008B000004672616D650A00766F6C747320616E1C
:1008C0006420637572006261747420766F6C747357
:1008D00000342063656C6C7300332063656C6C734B
:1008E000000A42617474204D6F696E746F720A0061
:1008F000536F6E61720A00466C69676874206D6F91
:100900006465730A004F46460A004F4E0A002C09E0
:100910000953696D706C653A2000506F732025642F
:100920003A09004D6167206F6666736574733A20FB
:1009300025342E34662C2025342E34662C20253484
:100940002E3466004D6167204465633A2025342EBD
:1009500034660A00436F6D706173730A002025646A
:100960000A000A54554E453A0A000A4F7074696FDE
:100970006E733A5B6F6E2C6F66665D0A006F66661B
:10098000006F6E000A4F7074696F6E733A5B6F6E22
:100990002C206F66665D0A006F6666006F6E000A47
:1009A0004F7074696F6E733A206F66662C20312D1C
:1009B00034006F6666000A4D6F7665206D6F646562
:1009C0002073776974636820746F20656469742C80
:1009D0002061696C65726F6E3A2073656C65637433
:1009E000206D6F6465732C207275646465723A20A3
:1009F00053696D706C65206F6E2F6F66660A000A12
:100A000053617665642053657474696E67730A0A6E
:100A1000000A4553432043616C6962726174696FD7
:100A20006E3A0A2D3120556E706C75672055534211
:100A300020616E6420626174746572790A2D3220BF
:100A40004D6F766520434C492F464C59207377698A
:100A500074636820746F20464C59206D6F64650A7A
:100A60002D33204D6F7665207468726F74746C65D9
:100A700020746F206D61782C20636F6E6E656374D7
:100A800020626174746572790A2D34204166746540
:100A9000722074776F206C6F6E672062656570736B
:100AA0002C207468726F74746C6520746F20302C05
:100AB000207468656E20746573740A0A205072652C
:100AC000737320456E74657220746F2063616E636A
:100AD000656C2E0A000A4F7074696F6E733A5B780A
:100AE0002C2B2C765D0A0076002B00700078000A13
:100AF0004D6F766520616C6C20636F6E74726F6CE5
:100B00007320746F20656163682065787472656D09
:100B1000652E2048697420456E74657220746F20BC
:100B2000736176653A20000A464143544F5259207A
:100B3000524553455420636F6D706C657465202D6C
:100B4000207265626F6F742041504D000A2759274B
:100B5000202B20456E74657220746F20666163746B
:100B60006F72792072657365742C20616E79206FC5
:100B700074686572206B657920746F2061626F7292
:100B8000743A0A00646F6E650A000A4572617369FF
:100B90006E6720454550524F4D0A000A436F6D6DF8
:100BA000616E64733A0A202064756D70203C6E3E5D
:100BB000202065726173652028616C6C206C6F6702
:100BC00073290A2020656E61626C65203C6E616D40
:100BD000653E207C20616C6C0A2020646973616230
:100BE0006C65203C6E616D653E207C20616C6C0AFA
:100BF0000A00656E61626C65004F5054464C4F5759
:100C0000004D4F544F52530043555200434D440042
:100C1000524157004D4F4445004E54554E004354E9
:100C2000554E00504D0047505300415454495455BF
:100C300044455F4D45440041545449545544455F33
:100C40004641535400616C6C006D697373696E6743
:100C5000206C6F6720747970650A000A4C6F6720FA
:100C60006572617365642E0A000A45726173696E6C
:100C700067206C6F672E2E2E0A00626164206C6FF5
:100C80006720232025640A004154542C2025642C1D
:100C90002025642C2025752C2025642C2025642CEF
:100CA0002025640A002C2025640A004D4F443A0098
:100CB0004354554E2C2025642C2025642C2025647B
:100CC0002C2025642C2025642C2025642C202564D0
:100CD0002C2025640A004E54554E2C2025642C20CF
:100CE00025642C2025642C2025642C2025640A00F2
:100CF000504D2C2025642C2025642C2025642C208C
:100D000025642C2025642C2025642C2025642C208F
:100D1000256C640A005241572C00434D442C202579
:100D2000642C2025642C2025642C2025642C20256F
:100D3000642C20256C642C20256C642C20256C648C
:100D40000A00435552523A2025642C20256C642C0D
:100D50002025342E34662C2025342E34662C202574
:100D6000640A0053544152542055500A004D4F54C8
:100D70003A2025642C2025642C2025642C20256411
:100D80000A004F462C2025642C2025642C20256445
:100D90002C2025342E37662C2025342E37660A0069
:100DA0004750532C20256C642C2025642C2025349E
:100DB0002E37662C2025342E37662C2025342E34F1
:100DC000662C2025342E34662C2025642C20257595
:100DD0000A0058545241434B5F005448525F484FF9
:100DE0004C445F004E41565F4C4F4E5F004E4156A3
:100DF0005F4C41545F00484C445F4C4F4E5F00488D
:100E00004C445F4C41545F005354425F5941575F1B
:100E1000005354425F5049545F005354425F524C58
:100E20004C5F00524154455F5941575F0052415455
:100E3000455F5049545F00524154455F524C4C5FEE
:100E40000052435F43525F0052435F43505F005282
:100E500043385F005243375F005243365F005243CE
:100E6000355F005243345F005243335F00524332D8
:100E70005F005243315F004C4F575F564F4C540058
:100E8000494E5F564F4C5400464C4F575F454E41BC
:100E9000424C450054425F524154494F0046524132
:100EA0004D450054554E4500455343004D41475F65
:100EB000454E41424C4500424154545F43415041EC
:100EC0004349545900424154545F4D4F4E49544F89
:100ED0005200534F4E41525F454E41424C450041F6
:100EE0004C545F484F4C445F52544C004C4F475F4A
:100EF0004249544D41534B0053494D504C450046D7
:100F00004C544D4F44453600464C544D4F444535A6
:100F100000464C544D4F44453400464C544D4F44CC
:100F2000453300464C544D4F44453200464C544DD9
:100F30004F444531005452494D5F5448524F545428
:100F40004C45005448525F46535F56414C5545004E
:100F50005448525F46535F414354494F4E005448F2
:100F6000525F4641494C53414645005448525F4DFB
:100F70004158005448525F4D494E0057505F5350FE
:100F80004545445F4D41580057505F4C4F495445CB
:100F9000525F5241440057505F52414449555300FB
:100FA00057505F4D5553545F494E44455800575074
:100FB0005F494E4445580057505F544F54414C00D0
:100FC00057505F4D4F4445005854524B5F414E4778
:100FD0004C455F43440053455249414C335F4241C5
:100FE00055440053595349445F4D594743530053A7
:100FF000595349445F544849534D4156005359533E
:1010000049445F53575F545950450053595349441D
:101010005F53575F4D52455600524556004D41585B
:10102000005452494D004D494E00494D4158004928
:101030000050004C6F6720232025642C20202020A6
:1010400073746172742025642C202020656E6420E6
:1010500025640A000A2564206C6F67730A000A4E33
:101060006F206C6F67730A54797065202764756D03
:10107000702030272E0A0A00204F5054464C4F57FC
:1010800000204D4F544F5253002043555252454E6D
:10109000540020434D44002052415700204E5455E7
:1010A0004E00204354554E0020504D0020475053D1
:1010B000002041545449545544455F4D4544002057
:1010C00041545449545544455F46415354006E6F52
:1010D0006E65006C6F677320656E61626C65643A63
:1010E0002000666C6967687420706C616E207265A0
:1010F00063656976656400616374696F6E2072650B
:101100006365697665643A20006572726F723A2091
:101110006E6F6E2D4E617620636D64006F75742066
:101120006F6620636F6D6D616E6473210077617906
:10113000706F696E74207265636569766520746985
:101140006D656F757400776179706F696E74207367
:10115000656E642074696D656F75740045585452EE
:1011600041330045585452413200455854524131A0
:1011700000504F534954494F4E005241575F43541A
:10118000524C0052435F4348414E004558545F5310
:10119000544154005241575F53454E53005352330C
:1011A0005F005352305F0044495341524D494E470E
:1011B000204D4F544F52530041524D494E47204D00
:1011C0004F544F52530047524F554E4420535441B1
:1011D0005254000A456E746572696E6720696E74B8
:1011E0006572616374697665207365747570206DCE
:1011F0006F64652E2E2E0A0A547970652027686563
:101200006C702720746F206C69737420636F6D6D30
:10121000616E64732C2027657869742720746F20B1
:101220006C656176652061207375626D656E752EE3
:101230000A5669736974207468652027736574752C
:101240007027206D656E7520666F722066697273F7
:10125000742D74696D6520636F6E66696775726160
:1012600074696F6E2E0A0A00506C656173652052B6
:10127000756E2053657475702E2E2E0A00466972A5
:101280006D77617265206368616E67653A2065728B
:101290006173696E6720454550524F4D2E2E2E0AC0
:1012A000000A0A496E69742041726475436F707454
:1012B00065722056322E302E343420426574610A15
:1012C0000A467265652052414D3A20256C750A0028
:1012D000496E76616C69642053455249414C335FD5
:1012E00042415544004C6F67732066756C6C000A70
:1012F0004750530A00253033753A25733A20006E63
:101300006F7420666F756E6400253033753A252D35
:1013100033322E3332733A2000756E6B6E6F776EF8
:101320002074797065006E6F7420666F756E64004E
:1013300025733A20006D697373696E67206E616D65
:1013400065206F722076616C7565003F3F002564F3
:1013500000256400256C640025660025660065781C
:1013600069740068656C700044454300434F4D50FC
:101370004153535F006E616E00696E660000407AF3
:1013800010F35A00A0724E18090010A5D4E800000E
:10139000E87648170000E40B54020000CA9A3B00AC
:1013A0000000E1F505000080969800000040420F23
:1013B000000000A08601000000102700000000E8E7
:1013C00003000000006400000000000A00000000AC
:1013D000000100000000002C76D888DC674F08234D
:1013E000DFC1DFAE59E1B1B796E5E3E453C63AE6B3
:1013F00051997696E8E6C28426EB898C9B62ED4093
:101400007C6FFCEFBC9C9F40F2BAA56FA5F49005E1
:101410005A2AF75C936B6CF9676DC11BFCE0E40D15
:1014200047FEF520E6B500D0ED902E030094357709
:10143000050080841E080000204E0A000000C80C31
:10144000333333330F986E12831141EF8D2114899A
:101450003BE65516CFFEE6DB18D1844B381BF77CF4
:101460001D901DA4BBE424203284725E228100C939
:10147000F124ECA1E53D2700002100240027002AEB
:10148000002D003000330001010000040107010AB3
:101490000100002200250028002B002E003100341E
:1014A0000002010000050108010B010000200023DB
:1014B00000260029002C002F00320000010000034C
:1014C00001060109010505050507050808080802C8
:1014D0000202020A0A0808040404040101010101CD
:1014E0000101010303030303030303040707070CBC
:1014F0000C0C0C0C0C0C0C02020202060606060672
:101500000606060B0B0B0B0B0B0B0B01021020201E
:101510000808102040102040800201020108040247
:1015200001010204081020408080402010080402BD
:101530000180040201804020100804020108040216
:10154000010102040810204080010204081020401C
:10155000800000090A02080B0C0D070603040100B5
:10156000000000000000000000000000000000007B
:1015700000000000000000000000000000100F0E3E
:10158000000000000000000000000000000000005B
:1015900000000000000000494E46494E4954594E93
:1015A000414ECDCCCC3D0AD7233C17B7D13877CCB0
:1015B0002B329595E6241FB14F0A00002041000010
:1015C000C84200401C4620BCBE4CCA1B0E5AAEC5C9
:1015D0009D74E0399275D17EF3884F99D939CA7ECE
:1015E00011241FBECFEFD1E2DEBFCDBF00E00CBFA4
:1015F00014E0A0E0B2E0ECE5F2E501E00BBF02C0D0
:1016000007900D92A835B107D9F713E1A8E5B4E02A
:1016100001C01D92A63DB107E1F715E1CCEDD5E182
:1016200004C02297FE010E94E5A2C23DD107C9F77E
:101630000E94CF9A0C9421A90C940000283008F045
:1016400027E03327DA01990F311D87FD916000965D
:101650006105710539F432602E5F3D9330E32A95C0
:10166000E1F708959F3F30F080387105610509F07A
:101670003C5F3C5F3D93913008F08068911DDF93A3
:10168000CF931F930F93FF92EF92192F987F969508
:10169000E92F96959695E90FFF27E952FC4E992779
:1016A0003327EE24FF24A701E7010590089407944F
:1016B00028F4360FE71EF81E491F511D660F771FCD
:1016C000881F991F0694A1F70590079428F4E70E48
:1016D000F81E491F561FC11D770F881F991F661FCF
:1016E0000694A1F70590079428F4F80E491F561F99
:1016F000C71FD11D880F991F661F771F0694A1F77A
:101700000590079420F4490F561FC71FD81F990F43
:10171000661F771F881F0694A9F78491109517708C
:1017200041F0D695C79557954795F794E7941A9544
:10173000C1F7EDE7F3E16894159015913591659146
:10174000959105907FE27395E118F10A430B560BD2
:10175000C90BD009C0F7E10CF11E431F561FC91F6A
:10176000D01D7EF4703311F48A95E6CFE8940150D1
:1017700030F0080F0AF40027021708F4202F2395F1
:10178000022F7A3328F079E37D932A95E9F710C088
:101790007D932A9589F606949795679537951795C1
:1017A0001794E118F10A430B560BC90BD00998F0B6
:1017B00023957E9173957A3308F070E37C93201320
:1017C000B8F77E9170617D9330F0839571E37D93DE
:1017D00070E32A95E1F71124EF90FF900F911F918C
:1017E000CF91DF91992787FD90950895FA01AA2757
:1017F000283051F1203181F1E8946F936E7F6E5F54
:101800007F4F8F4F9F4FAF4FB1E03ED0B4E03CD001
:10181000670F781F891F9A1FA11D680F791F8A1FE4
:10182000911DA11D6A0F711D811D911DA11D20D04B
:1018300009F468943F912AE0269F11243019305D05
:101840003193DEF6CF010895462F4770405D4193F6
:10185000B3E00FD0C9F7F6CF462F4F70405D4A3343
:1018600018F0495D31FD4052419302D0A9F7EACF0B
:10187000B4E0A6959795879577956795BA95C9F73A
:1018800000976105710508959B01AC010A2E06942D
:101890005795479537952795BA95C9F7620F731FE6
:1018A000841F951FA01D0895CF93DF93FC01EB01CA
:1018B0004230510570F0638574858585968520E0FA
:1018C00030E040E854E40E9476A10E94E09F7983D2
:1018D000688382E090E0DF91CF910895CF93DF930A
:1018E000EC01FB014230510518F420E030E012C059
:1018F0006081718180E090E00E940CA020E030E0E7
:1019000040E85AE30E9476A16B877C878D879E878B
:1019100022E030E0C901DF91CF9108950895089544
:101920000895FC0183A513A60895DC01FB018381C2
:101930008C93828111968C931197818112968C934E
:101940001297808113968C930895DC01FB018781A7
:101950008C93868111968C931197858112968C9326
:101960001297848113968C931397838114968C938A
:101970001497828115968C931597818116968C9376
:101980001697808117968C930895A4E0B0E0EBEC55
:10199000FCE00C94BCA2262FBC01685F7F4F620F55
:1019A000711DCE0101960E94950C29813A814B81CF
:1019B0005C81B901CA012496E2E00C94D8A21F927E
:1019C0000F920FB60F920BB60F9211242F933F93E5
:1019D0004F938F939F93EF93FF934091C600209175
:1019E0001D1230911E122F5F3F4F80912112909156
:1019F00022122823392380911F1290912012281738
:101A0000390779F080911D1290911E12E0912312F6
:101A1000F0912412E80FF91F408330931E12209397
:101A20001D12FF91EF919F918F914F913F912F91B7
:101A30000F900BBE0F900FBE0F901F9018951F9226
:101A40000F920FB60F920BB60F9211242F933F9364
:101A50008F939F93EF93FF9320913F123091401209
:101A600080913D1290913E1228173907E9F080913C
:101A70003F1290914012E0914312F0914412E80F0E
:101A8000F91F80818093C60080913F12909140128F
:101A90000196209141123091421282239323909318
:101AA000401280933F1210C020913D1230913E129F
:101AB00080913F12909140122817390729F48091A4
:101AC000C1008F7D8093C100FF91EF919F918F9115
:101AD0003F912F910F900BBE0F900FBE0F901F9054
:101AE00018951F920F920FB60F920BB60F921124FA
:101AF0002F933F934F938F939F93EF93FF93409137
:101B0000CE0020912512309126122F5F3F4F8091F9
:101B1000291290912A12282339238091271290911B
:101B200028122817390779F08091251290912612F2
:101B3000E0912B12F0912C12E80FF91F40833093A3
:101B4000261220932512FF91EF919F918F914F9133
:101B50003F912F910F900BBE0F900FBE0F901F90D3
:101B600018951F920F920FB60F920BB60F92112479
:101B70002F933F938F939F93EF93FF93209147125F
:101B800030914812809145129091461228173907DA
:101B9000E9F08091471290914812E0914B12F09138
:101BA0004C12E80FF91F80818093CE00809147127C
:101BB0009091481201962091491230914A12822345
:101BC0009323909348128093471210C0209145129E
:101BD0003091461280914712909148122817390788
:101BE00029F48091C9008F7D8093C900FF91EF9106
:101BF0009F918F913F912F910F900BBE0F900FBE31
:101C00000F901F9018951F920F920FB60F920BB660
:101C10000F9211242F933F934F938F939F93EF93A2
:101C2000FF934091360120913512309136122F5F8B
:101C30003F4F8091391290913A1228233923809195
:101C40003712909138122817390779F080913512A0
:101C500090913612E0913B12F0913C12E80FF91F7F
:101C600040833093361220933512FF91EF919F916C
:101C70008F914F913F912F910F900BBE0F900FBE00
:101C80000F901F9018951F920F920FB60F920BB6E0
:101C90000F9211242F933F938F939F93EF93FF9372
:101CA00020915712309158128091551290915612EE
:101CB00028173907E9F08091571290915812E09156
:101CC0005B12F0915C12E80FF91F8081809336015E
:101CD000809157129091581201962091591230918B
:101CE0005A1282239323909358128093571210C054
:101CF000209155123091561280915712909158129E
:101D00002817390729F4809131018F7D80933101A3
:101D1000FF91EF919F918F913F912F910F900BBE6B
:101D20000F900FBE0F901F901895FC017183608378
:101D300084E06835780739F470935E1260935D1221
:101D40001386128608C07093601260935F1281E060
:101D500090E0938782871382128208952091BA0AB5
:101D60003091BB0AC9018F5C94408238910510F410
:101D700081E00895C901815595408238910510F49C
:101D800082E00895C901835D95408238910510F481
:101D900083E00895C901855596408138910510F476
:101DA00084E00895265D364014F480E0089585E0CF
:101DB000089580E00895FC01DB01452B11F0838537
:101DC0008C9381E090E00895DC01FB01452B19F034
:101DD00080811B968C9381E090E00895FC016385DF
:101DE000772767FD7095872F972F0E940EA0089583
:101DF000FC01DB014230510520F0838594858D93F1
:101E00009C9382E090E00895DC01FB014230510593
:101E100030F0808191811C969C938E931B9782E079
:101E200090E00895FC0163857485882777FD80958F
:101E3000982F0E940EA00895FC01238534854585C6
:101E40005685B901CA010895CF93DF93FC01EB01D8
:101E50004430510540F083859485A585B6858883F7
:101E60009983AA83BB8384E090E0DF91CF910895AA
:101E7000CF93DF93EC01FB014430510540F08081AA
:101E80009181A281B3818B879C87AD87BE8784E0D7
:101E900090E0DF91CF910895E091B80FF091B90FE4
:101EA00087A990AD8130910539F00297F9F483E26A
:101EB00061E00E94409E089581A58823D9F090E0BA
:101EC0008091BA0F882309F491E09093BA0F992377
:101ED00019F083E260E002C083E261E00E94409E6C
:101EE000E091B80FF091B90F11A6089583E260E078
:101EF0000E94409E08958BE360E00E94409E0895FA
:101F00008BE361E00E94409E08950E94800F64E68A
:101F100070E080E090E00E94429D0E947B0F089557
:101F200085E260E00E94409E84E260E00E94409E64
:101F300083E260E00E94409E10920D1110926610A4
:101F4000089580912C118F5F80932C1181508330E4
:101F500011F410922C1180912C11813059F08130A4
:101F600018F08230C1F40FC083E260E00E94409E0E
:101F700085E205C085E260E00E94409E84E261E067
:101F80000E94409E089584E260E00E94409E83E2A9
:101F900061E00E94409E08958091F910813079F4AB
:101FA00084E461E00E94409E82E461E00E94409EE1
:101FB00080E461E00E94409E8EE361E00EC084E414
:101FC00060E00E94409E82E460E00E94409E80E4C7
:101FD00060E00E94409E8EE360E00E94409E089573
:101FE00000D00F9288E594E0EDB7FEB7928381832D
:101FF00084EF94E0948383830E94348C0F900F903D
:102000000F900F9008950E94F00F68EE73E080E04B
:1020100090E00E94429D8CE794E00E94AB8C892B5B
:1020200089F084E261E00E94409E8CE794E00E9487
:10203000DB8C682F8AE694E00E943C8D84E260E0AD
:102040000E94409E8AE694E00E94AB8C892B89F026
:1020500083E261E00E94409E8AE694E00E94DB8C6D
:10206000682F8CE794E00E943C8D83E260E00E9440
:10207000409E88E594E00E94AB8C181619065CF629
:1020800080E008950E94F00F68EE73E080E090E039
:102090000E94429D00D00F9288E594E0EDB7FEB714
:1020A0009283818385E195E0948383830E94348CBD
:1020B0000F900F900F900F908CE794E00E94AB8CE4
:1020C000892B49F08CE794E00E94DB8C682F8CE729
:1020D00094E00E943C8D88E594E00E94AB8C181639
:1020E000190654F780E0089528E534E0882349F084
:1020F00000D00F92EDB7FEB73283218380E795E0E1
:1021000008C000D00F92EDB7FEB7328321838CE672
:1021100095E0948383830E94348C88E594E0EDB746
:10212000FEB79283818385E695E0948383830E9442
:10213000348C0F900F900F900F900895EF92FF92B4
:102140000F931F93CF93DF930E94F00F68EE73E01D
:1021500080E090E00E94429D8BEFE82E85E0F82E13
:1021600000EF15E0C8E5D4E000D00F92EDB7FEB760
:10217000D283C183F482E3820E94348C80910B016C
:10218000846080930B010F900F900F900F9068EB7D
:102190007BE080E090E00E94429DCE010E94AB8CEB
:1021A00018161906FCF000D00F92EDB7FEB7D283D7
:1021B000C183148303830E94348C80910B018B7F35
:1021C00080930B010F900F900F900F9068EB7BE0C6
:1021D00080E090E00E94429DCE010E94AB8C1816D8
:1021E000190614F680E0CDB7DEB7E6E00C94D4A271
:1021F00000D00F9288E594E0EDB7FEB7928381831B
:1022000086E496E0948383830E94348C0F900F9031
:102210000F900F9080E008958DB79EB740970FB64E
:10222000F8949EBF0FBE8DBFEDB7FEB7319688E51F
:1022300094E0ADB7BEB712969C938E93119787E644
:1022400096E09383828380E090E0A0E0B0E0848316
:102250009583A683B78380879187A287B387848776
:102260009587A687B7870E94348C8DB79EB7409616
:102270000FB6F8949EBF0FBE8DBF08958DB79EB761
:1022800040970FB6F8949EBF0FBE8DBFEDB7FEB757
:10229000319688E594E0ADB7BEB712969C938E93C5
:1022A00011978AE896E09383828380E090E0A0E033
:1022B000B0E084839583A683B78380879187A287C4
:1022C000B38784879587A687B7870E94348C8DB79C
:1022D0009EB740960FB6F8949EBF0FBE8DBF08956F
:1022E00000D00F9288E594E0EDB7FEB7928381832A
:1022F00086E697E0948383830E94348C0F900F903E
:102300000F900F9080E008950F931F938DB79EB7A5
:1023100008970FB6F8949EBF0FBE8DBFEDB7FEB7FE
:10232000319608E514E0ADB7BEB712961C930E9334
:1023300011978FE798E09383828380918109909130
:1023400082099583848380919B0990919C0997834E
:1023500086830E94348CEDB7FEB73196ADB7BEB719
:1023600012961C930E93119781E798E093838283D2
:102370008091D5099091D609958384838091EF0946
:102380009091F009978386830E94348CEDB7FEB755
:102390003196ADB7BEB712961C930E93119783E694
:1023A00098E0938382838091290A90912A0A9583E9
:1023B00084838091430A9091440A978386830E9484
:1023C000348CEDB7FEB73196ADB7BEB712961C93FD
:1023D0000E93119785E598E09383828380917D0A1F
:1023E00090917E0A958384838091970A9091980AB0
:1023F000978386830E94348CEDB7FEB73196ADB7D4
:10240000BEB712961C930E93119787E498E09383BE
:1024100082838091D10A9091D20A9583848380919E
:10242000EB0A9091EC0A978386830E94348CEDB777
:10243000FEB73196ADB7BEB712961C930E931197A7
:1024400089E398E0938382838091250B9091260BFA
:102450009583848380913F0B9091400B9783868373
:102460000E94348CEDB7FEB73196ADB7BEB7129669
:102470001C930E9311978BE298E093838283809153
:10248000790B90917A0B958384838091930B909133
:10249000940B978386830E94348C8DB79EB70896E1
:1024A0000FB6F8949EBF0FBE8DBF1F910F91089578
:1024B00000D00F9288E594E0EDB7FEB79283818358
:1024C0008FEF99E0948383830E94348C0F900F9058
:1024D0000F900F90089500D00F9288E594E0EDB72B
:1024E000FEB7928381838BE99BE0948383830E9470
:1024F000348C0F900F900F900F9080E0089500D0D3
:102500000F9288E594E0EDB7FEB79283818383E66E
:102510009DE0948383830E94348C0F900F900F90E2
:102520000F900895A0E0B0E0E8E9F2E10C94B4A2C5
:102530003FE0A32E35E0B32E29E0C22E25E0D22EB7
:1025400000E010E098E5E92E94E0F92E00D000D0EC
:10255000EDB7FEB73196ADB7BEB71296FC92EE92CC
:102560001197B382A282158304830E94348CC0E049
:10257000D0E08DB79EB706960FB6F8949EBF0FBEFB
:102580008DBFCE01800F911F0E9439A700D000D0CF
:10259000EDB7FEB73196ADB7BEB71296FC92EE928C
:1025A0001197D382C282848315820E94348C219633
:1025B0008DB79EB706960FB6F8949EBF0FBE8DBF1F
:1025C000C031D105F1F6C7010E94C79B005F1F4FC4
:1025D00090E10030190709F0B9CF80E0CDB7DEB740
:1025E000EAE00C94D0A2A4E2B0E0E9EFF2E10C94AE
:1025F000B4A280910109882309F493C00E94F00FCE
:1026000056E4A52E55E0B52E6E010894C11CD11CD0
:1026100048E5E42E44E0F42E64E670E080E090E0CB
:102620000E94429D85E395E00E940F82D601EFEB68
:10263000F4E084E201900D928150E1F785E395E0AA
:10264000B6010E94688285E395E00E942F82609126
:102650003F0570914005809141059091420521EE22
:102660003EE245E652E40E9476A120E030E048ECEC
:1026700052E40E9476A10E94DB9F613A2CE8720727
:1026800020E0820720E092072CF0605A7C488040CE
:10269000904006C097FF04C0605673478F4F9F4F0E
:1026A000EDB7FEB73E970FB6F894FEBF0FBEEDBF75
:1026B0000DB71EB70F5F1F4FF282E182F801B382A0
:1026C000A28224E630E040E050E00E9491A2F801AE
:1026D00024833583468357838091390590913A0549
:1026E0009187808780913B0590913C0593878287F5
:1026F00080913D0590913E05958784870E94348C9A
:102700002DB73EB7225F3F4F0FB6F8943EBF0FBEC6
:102710002DBFC7010E94AB8C181619060CF07CCF98
:1027200015C000D00F9288E594E0EDB7FEB7928314
:1027300081838CE395E0948383830E94348C0F9093
:102740000F900F900F9080E00E94741080E0A4968C
:10275000EAE00C94D0A20F931F93CF93DF93809164
:10276000DC088823B9F400D00F9288E594E0ADB777
:10277000BEB712969C938E93119781E895E01496BC
:102780009C938E9313970E94348C0F900F900F9010
:102790000F902FC00E94F00F03E715E0C8E5D4E0CA
:1027A00064E670E080E090E00E94429D83E597E05F
:1027B0000E94A88800D000D0EDB7FEB73196ADB723
:1027C000BEB71296DC93CE93119713830283958341
:1027D00084830E94348CEDB7FEB736960FB6F8941A
:1027E000FEBF0FBEEDBFCE010E94AB8C18161906BE
:1027F000BCF680E0DF91CF911F910F910895A0E08A
:10280000B0E0E5E0F4E10C94B3A2EC018091D907CB
:10281000992787FD90958617970714F4188277C03B
:10282000CB01E4E0880F991FEA95E1F7861B970B2F
:1028300080509C4F5C01CC24B7FCC094DC2C0E94DF
:1028400039A78883860175010894E11CF11C011DDC
:10285000111DC7010E9439A7982E89830894E11C95
:10286000F11C011D111DC7010E9439A78A8308941C
:10287000E11CF11C011D111DC7010E9441A76B83C2
:102880007C838D839E8387E090E0A0E0B0E0A80E7B
:10289000B91ECA1EDB1EC5010E9441A77B018C0127
:1028A000EF82F88609871A8784E090E0A0E0B0E024
:1028B000A80EB91ECA1EDB1EC5010E9441A79B01BE
:1028C000AC012B873C874D875E8794FE20C08091AA
:1028D000960F9091970FA091980FB091990FE80ED5
:1028E000F91E0A1F1B1FEF82F88609871A8780913D
:1028F0009A0F90919B0FA0919C0FB0919D0F280F64
:10290000391F4A1F5B1F2B873C874D875E87CE018F
:10291000CDB7DEB7EBE00C94CFA28F929F92AF922F
:10292000BF92DF92EF92FF920F931F93DF93CF93AB
:10293000CDB7DEB72F970FB6F894DEBF0FBECDBF71
:1029400068EE73E080E090E00E94429D00D00F921C
:1029500008E514E0ADB7BEB712961C930E9311971D
:102960008FEA95E014969C938E9313970E94348C73
:102970002091CF083091D0080F900F900F900F90BA
:1029800037FF11C000D00F92EDB7FEB7128301835D
:102990008DEA95E0948383830E94348C0F900F908E
:1029A0000F900F9020C000D000D0EDB7FEB7319649
:1029B000ADB7BEB712961C930E93119785EA95E0BA
:1029C00093838283C90164E670E00E945CA27583F0
:1029D00064830E94348CEDB7FEB736960FB6F89438
:1029E000FEBF0FBEEDBF00D000D0EDB7FEB73196F1
:1029F00008E514E0ADB7BEB712961C930E9311977D
:102A00008EE995E0938382838091D907992787FD8A
:102A10009095958384830E94348CEDB7FEB73196F0
:102A2000ADB7BEB712961C930E93119781E995E04E
:102A3000938382838091FD07992787FD90959583E5
:102A400084830E94348CF9EB8F2EF5E09F2EFF24B7
:102A5000EDB7FEB736960FB6F894FEBF0FBEEDBFCA
:102A60005E010894A11CB11CD02EE12E46C0C50108
:102A7000B8010E94FF138DB79EB748970FB6F89420
:102A80009EBF0FBE8DBFEDB7FEB73196ADB7BEB7D7
:102A90001196DC9211971296EC92938282821583A2
:102AA00004838981868317828A81808711868B813E
:102AB000828713868C819D81AE81BF8184879587B3
:102AC000A687B78788859985AA85BB85808B918BDA
:102AD000A28BB38B8C859D85AE85BF85848B958BB2
:102AE000A68BB78B0E94348CF394EDB7FEB7789623
:102AF0000FB6F894FEBF0FBEEDBF0F2D10E0809112
:102B0000D907992787FD9095801791070CF0AFCFD3
:102B100080E02F960FB6F894DEBF0FBECDBFCF91E9
:102B2000DF911F910F91FF90EF90DF90BF90AF90DA
:102B30009F908F9008950F931F9303E311E14091AD
:102B4000290A50912A0AC80160E00E94CF7440917E
:102B5000290A50912A0AC80161E00E94CF7440916D
:102B6000290A50912A0AC80162E00E94CF7440915C
:102B7000290A50912A0AC80163E00E94CF7440914B
:102B8000290A50912A0AC80166E00E94CF74409138
:102B9000290A50912A0AC80167E00E94CF741F9148
:102BA0000F91089583E391E10E944F75813009F000
:102BB00060C08093A60F83E391E160E00E941E75E0
:102BC000BC018FE599E00E947E9783E391E161E08B
:102BD0000E941E75BC0183EB99E00E947E9783E3FF
:102BE00091E162E00E941E75BC0187E09AE00E94BC
:102BF0007E9783E391E163E00E941E75BC018BE543
:102C00009AE00E947E9783E391E164E00E941E7542
:102C1000BC018FEA9AE00E947E9783E391E165E030
:102C20000E941E75BC0183E09BE00E947E9783E3B7
:102C300091E166E00E941E75BC0187E59BE00E9461
:102C40007E9783E391E167E00E941E75BC018BEAE9
:102C50009BE00E947E978091140A9091150A23E0D0
:102C60008132920714F080E293E09093150A8093EA
:102C7000140A08950F931F93CF93DF930E94F00FD0
:102C800068EE73E080E090E00E94429D07ED16E060
:102C9000C8E5D4E064E170E080E090E00E94429DED
:102CA0000E94D2158DB79EB742970FB6F8949EBF7B
:102CB0000FBE8DBFEDB7FEB73196ADB7BEB712965A
:102CC000DC93CE9311971383028380916C099091CA
:102CD0006D09958384838091C0099091C109978380
:102CE00086838091140A9091150A9187808780913C
:102CF000680A9091690A938782878091BC0A9091B3
:102D0000BD0A958784878091100B9091110B97874E
:102D100086878091640B9091650B918B808B0E94CC
:102D2000348C8DB79EB742960FB6F8949EBF0FBEF7
:102D30008DBFCE010E94AB8C181619060CF0AACFDD
:102D400080E0DF91CF911F910F9108950F931F9312
:102D5000CF93DF930E94F00F68EE73E080E090E085
:102D60000E94429D06E017E0C8E5D4E064E170E00F
:102D700080E090E00E94429D0E94D2158DB79EB7E0
:102D800044970FB6F8949EBF0FBE8DBFEDB7FEB748
:102D90003196ADB7BEB71296DC93CE9311971383DD
:102DA000028380916A0990916B0995838483809155
:102DB000BE099091BF09978386838091120A9091F2
:102DC000130A918780878091660A9091670A93879A
:102DD00082878091BA0A9091BB0A958784878091F7
:102DE0000E0B90910F0B978786878091620B9091C5
:102DF000630B918B808B8091B60B9091B70B938B6B
:102E0000828B0E94348C8DB79EB744960FB6F8948F
:102E10009EBF0FBE8DBFCE010E94AB8C1816190647
:102E20000CF0A4CF80E0DF91CF911F910F91089516
:102E3000EF92FF920F931F9380E00E94929CAA272B
:102E400097FDA095BA2FBC01CD010E940EA07B0179
:102E50008C0160914C0970914D0980914E099091BF
:102E60004F0920E030E040E85AE30E9476A19B0140
:102E7000AC01C801B7010E9476A12AE037ED43E614
:102E800050E40E9476A12DEC3CEC4CEC5DE30E94FA
:102E900076A17B018C016091C2027091C302809186
:102EA000C4029091C50226E636E646E65FE30E943C
:102EB00076A19B01AC01C801B7010E94A69E609358
:102EC000C2027093C3028093C4029093C50281E052
:102ED0000E94929CAA2797FDA095BA2FBC01CD0114
:102EE0000E940EA07B018C0160914C0970914D09EC
:102EF00080914E0990914F0920E030E040E85AE37C
:102F00000E9476A19B01AC01C801B7010E9476A185
:102F10002AE037ED43E650E40E9476A12DEC3CEC2C
:102F20004CEC5DE30E9476A17B018C016091C602AE
:102F30007091C7028091C8029091C90226E636E6D8
:102F400046E65FE30E9476A19B01AC01C801B70190
:102F50000E94A69E6093C6027093C7028093C80227
:102F60009093C90282E00E94929CAA2797FDA095A7
:102F7000BA2FBC01CD010E940EA07B018C01609193
:102F80004C0970914D0980914E0990914F0920E0B4
:102F900030E040E85AE30E9476A19B01AC01C801F1
:102FA000B7010E9476A12AE037ED43E650E40E9483
:102FB00076A12DEC3CEC4CEC5DE30E9476A17B010C
:102FC0008C016091CA027091CB028091CC029091E9
:102FD000CD0226E636E646E65FE30E9476A19B0137
:102FE000AC01C801B7010E94A69E6093CA0270930B
:102FF000CB028093CC029093CD0283E00E94929CFE
:10300000AA2797FDA095BA2FBC01CD010E940EA062
:103010007B018C0160914C0970914D0980914E09A2
:1030200090914F0920E030E040E85AE30E9476A1F9
:103030009B01AC01C801B7010E9476A12AE037EDDF
:1030400043E650E40E9476A12DEC3CEC4CEC5DE3B1
:103050000E9476A17B018C016091CE027091CF021B
:103060008091D0029091D10226E636E646E65FE3F3
:103070000E9476A19B01AC01C801B7010E94A69EE7
:103080007B018C01CB01D8018093CE029093CF02BB
:10309000A093D002B093D1022091E808213049F4E6
:1030A0008091CA029091CB02A091CC02B091CD0246
:1030B00004C0223059F4C701D8018093BE02909316
:1030C000BF02A093C002B093C1027DC0233019F0AB
:1030D000243009F078C08091C2029091C302A0917F
:1030E000C402B091C5028093BE029093BF02A09328
:1030F000C002B093C102243009F065C081E00E9493
:10310000929CAA2797FDA095BA2FBC01CD010E94E1
:103110000EA07B018C0160914C0970914D0980914A
:103120004E0990914F0920E030E040E85AE30E94B8
:1031300076A19B01AC01C801B7010E9476A12CE5E4
:103140003FE84AED51E40E9476A12DEC3CEC4CECBA
:103150005DE30E9476A17B018C0160919E0F7091CE
:103160009F0F8091A00F9091A10F26E636E646E6CC
:103170005FE30E9476A19B01AC01C801B7010E94E8
:10318000A69E60939E0F70939F0F8093A00F9093C5
:10319000A10F23ED3CEB43EE5CE30E9476A19B0183
:1031A000AC016091A20F7091A30F8091A40F909138
:1031B000A50F0E94A69E6093A20F7093A30F809309
:1031C000A40F9093A50F1F910F91FF90EF9008957A
:1031D0000F931F93CF93DF930E94F00F05E016E04B
:1031E000C8E5D4E064E670E080E090E00E94429D93
:1031F0000E94D2150E9418178DB79EB740970FB640
:10320000F8949EBF0FBE8DBFEDB7FEB73196ADB738
:10321000BEB71296DC93CE931197138302838091ED
:10322000BE029091BF02A091C002B091C1028483FE
:103230009583A683B78380919E0F90919F0FA09155
:10324000A00FB091A10F80879187A287B38780914B
:10325000A20F9091A30FA091A40FB091A50F848706
:103260009587A687B7870E94348C8DB79EB7409606
:103270000FB6F8949EBF0FBE8DBF4091120A5091B9
:10328000130A83E391E160E00E94CF744091120A37
:103290005091130A83E391E161E00E94CF74409161
:1032A000120A5091130A83E391E162E00E94CF7405
:1032B0004091120A5091130A83E391E163E00E9466
:1032C000CF74CE010E94AB8C181619060CF08ACF71
:1032D00080E0DF91CF911F910F9108950F931F937D
:1032E000CF93DF930E94F00F68EE73E080E090E0F0
:1032F0000E94429D05E216E0C8E5D4E064E170E07A
:1033000080E090E00E94429D0E94D2158091680A60
:103310009091690A90936D0A80936C0A8BE59AE00C
:103320000E94F2978DB79EB708970FB6F8949EBF8C
:103330000FBE8DBFEDB7FEB73196ADB7BEB71296D3
:10334000DC93CE931197138302838091680A909146
:10335000690A958384838091700A9091710A97839A
:1033600086830E94348C8DB79EB708960FB6F8946A
:103370009EBF0FBE8DBF4091700A5091710A83E3CA
:1033800091E166E00E94CF74CE010E94AB8C1816CA
:1033900019060CF0B3CF80E0DF91CF911F910F9110
:1033A00008956091100B7091110B882777FD80951F
:1033B000982F0E940EA020E030E04AE754E40E94DB
:1033C000739F609371077093720780937307909354
:1033D000740780911909992787FD9095A92FB92F16
:1033E000FC013197EB30F10508F04FC1EE58FF4F6B
:1033F0000C94E3A283E09BE060E070E040E45FE1D6
:103400000E941E968091710790917207A091730798
:10341000B091740780936B0D90936C0DA0936D0D1C
:10342000B0936E0D8093A50D9093A60DA093A70D5C
:10343000B093A80D089583E09BE060E070E04CE25B
:1034400051E00E941E966091100B7091110B88271D
:1034500077FD8095982F0E940EA020E030E04AE78B
:1034600054E40E94739FDC019B01AC01209371071F
:1034700030937207409373075093740720937A0D2B
:1034800030937B0D40937C0D50937D0DCB01809349
:10349000B40D9093B50DA093B60DB093B70D0895EC
:1034A00083E09BE060E070E04CE251E00E941E96F9
:1034B0008091710790917207A0917307B091740782
:1034C0008093BD0C9093BE0CA093BF0CB093C00C26
:1034D0008093F70C9093F80CA093F90CB093FA0C2E
:1034E000089583E09BE060E070E04CE251E00E94D0
:1034F0001E968091710790917207A0917307B09109
:1035000074078093CC0C9093CD0CA093CE0CB09309
:10351000CF0C8093060D9093070DA093080DB093E8
:10352000090D089583E09BE060E070E048EE53E011
:103530000E941E968091710790917207A091730767
:10354000B09174078093DF0D9093E00DA093E10D8F
:10355000B093E20D089583E09BE060E070E048EEF8
:1035600053E00E941E968091710790917207A0917E
:103570007307B09174078093310D9093320DA0932F
:10358000330DB093340D089583E09BE060E070E06C
:1035900048EE53E00E941E96809171079091720749
:1035A000A0917307B09174078093010F9093020F5D
:1035B000A093030FB093040F089583E09BE060E2B3
:1035C00073E048EE53E00E941E968091710790913F
:1035D0007207A0917307B09174078093310990939B
:1035E0003209A0933309B0933409089583E09BE036
:1035F00060E070E048EE53E00E941E962091100BB0
:103600003091110B82E02E3038072CF080910B01A5
:10361000846080930B012B5D3140BCF580910B01E0
:103620008B7F80930B01089583E09BE060E070E066
:1036300048EE53E00E941E968091100B9091110B62
:103640009093160880931508089583E09BE060E04E
:1036500070E040E757E10E941E96809171079091BB
:103660007207A0917307B091740780938D0E9093A9
:103670008E0EA0938F0EB093900E8093C70E9093F2
:10368000C80EA093C90EB093CA0E08950F931F934E
:10369000CF93DF930E94F00F09E316E0C8E5D4E072
:1036A00068EC70E080E090E00E94429D0E94D2159C
:1036B0000E94D1198DB79EB708970FB6F8949EBF98
:1036C0000FBE8DBFEDB7FEB73196ADB7BEB7129640
:1036D000DC93CE93119713830283809171079091AD
:1036E0007207A0917307B091740784839583A683B2
:1036F000B7830E94348C8DB79EB708960FB6F894A6
:103700009EBF0FBE8DBFCE010E94AB8C181619064E
:103710003CF680E0DF91CF911F910F910895809149
:103720004E1090914F10892B09F45AC00E940E9DA3
:10373000209148103091491040914A1050914B10FF
:10374000621B730B840B950B20915010309151101C
:1037500040E050E0621773078407950708F440C003
:1037600037C0019790934F1080934E1080914E1068
:1037700090914F10892BA1F10E940E9D60934810EB
:103780007093491080934A1090934B1060914710AA
:10379000862F8450843088F480914E1080FF05C0BD
:1037A00040914C1050914D1004C0409152105091D6
:1037B000531083E391E10E94CF74809147108530CC
:1037C00079F480910B0194E0892780930B0108958F
:1037D00080914E1090914F101816190614F2C6CF12
:1037E00008950F931F93CF93DF93062F142F00D0CC
:1037F00000D0EDB7FEB73196C8E5D4E0ADB7BEB79F
:103800001296DC93CE9311972AE139E03383228319
:10381000848315820E94348CEDB7FEB736960FB6BE
:10382000F894FEBF0FBEEDBFE02FF0E0EE0FFF1FDC
:10383000EB5FFC4F60817181CE010E940B9B00D039
:103840000F92ADB7BEB71296DC93CE9311978EE070
:1038500099E014969C938E9313970E94348C0F904A
:103860000F900F900F90112359F000D00F92EDB7E9
:10387000FEB7D283C1838AE099E0948383830EC02C
:1038800000D00F92ADB7BEB71296DC93CE931197CE
:1038900085E099E014969C938E9313970E94348C44
:1038A0000F900F900F900F90DF91CF911F910F917C
:1038B0000895CF93DF93C0E0D0E088E594E060E026
:1038C00072E00E940B9B2196C832D105B1F788E5C2
:1038D00094E062E072E00E94DE9BDF91CF91089558
:1038E000CF93DF93EC0107C0219788E594E062E075
:1038F00072E00E94DE9B1C161D06B4F3DF91CF918F
:10390000089500D00F9288E594E0EDB7FEB792835A
:10391000818382E696E0948383830E94348C0F90A7
:103920000F900F900F900E94591C0E940C110E9442
:103930003E1182E090E00E94701C08950E943E11AA
:103940000E94811C80E0089500D000D0EDB7FEB742
:10395000319688E594E0ADB7BEB712969C938E93EE
:10396000119785E198E093838283809181079091FC
:103970008207958384830E94348C8DB79EB7069608
:103980000FB6F8949EBF0FBE8DBF0E94591C82E0F7
:1039900090E00E94701C089500D00F9288E594E09A
:1039A000EDB7FEB79283818384E298E094838383AA
:1039B0000E94348C0F900F900F900F900E94591C12
:1039C0000E94841182E090E00E94701C0895CF93C1
:1039D000DF9300D00F92C8E5D4E0EDB7FEB7D283F5
:1039E000C18381EB98E0948383830E94348C0F9091
:1039F0000F900F900F900E94591C00D00F92EDB7BE
:103A0000FEB7D283C18385EA98E0948383830E94C2
:103A1000348C809125090F900F900F900F9081307A
:103A200049F400D00F92EDB7FEB7D283C1838DE980
:103A300098E015C0882349F400D00F92EDB7FEB787
:103A4000D283C18385E998E00AC0823081F400D036
:103A50000F92EDB7FEB7D283C1838DE898E09483CF
:103A600083830E94348C0F900F900F900F9082E010
:103A700090E00E94701CDF91CF91089500D00F92CA
:103A800088E594E0EDB7FEB79283818381EE98E0FC
:103A9000948383830E94348C0F900F900F900F902B
:103AA0000E94591C8091E808882311F40E94741028
:103AB0008091E808813091F400D00F9288E594E07D
:103AC000EDB7FEB79283818389ED98E09483838379
:103AD0000E94348C0F900F900F900F908091E80807
:103AE000823091F400D00F9288E594E0EDB7FEB7F4
:103AF0009283818381ED98E0948383830E94348C48
:103B00000F900F900F900F908091E808833091F400
:103B100000D00F9288E594E0EDB7FEB792838183E1
:103B200086EC98E0948383830E94348C0F900F90EE
:103B30000F900F908091E808843091F400D00F929C
:103B400088E594E0EDB7FEB79283818388EB98E037
:103B5000948383830E94348C0F900F900F900F906A
:103B600082E090E00E94701C08950F931F93CF9302
:103B7000DF9300D00F9288E594E0EDB7FEB7928313
:103B8000818387EF98E0948383830E94348C0F9025
:103B90000F900F900F900E94591C0EE618E0C0E0A5
:103BA000D0E04091B608552747FD50950C2E02C035
:103BB000559547950A94E2F7417050708C2FF801A3
:103BC00060810E94F11B2196045F1F4FC630D10512
:103BD00041F782E090E00E94701CDF91CF911F912D
:103BE0000F910895CF93DF9300D00F92C8E5D4E0F2
:103BF000ADB7BEB71296DC93CE93119782E699E0EB
:103C000014969C938E9313970E94348C0F900F9070
:103C10000F900F900E94591C20911909222321F422
:103C200080E00E9474101FC000D000D0EDB7FEB736
:103C30003196ADB7BEB71296DC93CE9311978DE552
:103C400099E093838283822F992787FD90959583AE
:103C500084830E94348CEDB7FEB736960FB6F89485
:103C6000FEBF0FBEEDBF82E090E00E94701CDF91AE
:103C7000CF91089500D00F9288E594E0EDB7FEB79C
:103C8000928381838FEE92E1948383830E94348CAC
:103C90000F900F900F900F900E94591C8091FB1075
:103CA0000E94741082E090E00E94701C0895A0E3CE
:103CB000B0E0EDE5FEE10C94ACA2DE011196EFEB75
:103CC000F4E084E201900D928150E1F729803A807E
:103CD0004B805C806D847E848F849888A98CBA8C9C
:103CE000CB8CDC8C89A19AA1ABA1BCA189A79AA796
:103CF000ABA7BCA78D8D9E8DAF8DB8A18DA39EA3C4
:103D0000AFA3B8A7C201B101A20191010E9476A19F
:103D10007B018C01C401B301A40193010E9476A12F
:103D20009B01AC01C801B7010E94A69E0E94E3A1BD
:103D30006DA77EA78FA798ABD601C501B058809319
:103D4000AC0F9093AD0FA093AE0FB093AF0FC60121
:103D5000B501A60195010E9476A19B01AC0160E02E
:103D600070E080E89FE30E94A59E0E94E3A17B0192
:103D70008C016093D2027093D3028093D40290930B
:103D8000D50269A57AA58BA59CA5A80197010E94DB
:103D9000739F6093D6027093D7028093D80290935A
:103DA000D9026DA17EA18FA198A5A80197010E94BB
:103DB000739F6093B00F7093B10F8093B20F909385
:103DC000B30FC401B3012DA53EA54FA558A90E946C
:103DD000739F6093DA027093DB028093DC0290930E
:103DE000DD02C201B1012DA53EA54FA558A90E9433
:103DF000739F6093B40F7093B50F8093B60F909339
:103E0000B70FE096E2E10C94C8A2A0E3B0E0EBE0CB
:103E1000FFE10C94B4A20E94811C0E94811C0E94AC
:103E2000F00F68EE73E080E090E00E94429D0E94F7
:103E30000E9D6093A70F7093A80F8093A90F909386
:103E4000AA0F13E5A12E16E0B12E7E010894E11C05
:103E5000F11CB8E5CB2EB4E0DB2E8E01035F1F4FC3
:103E60000E940E9D2091A70F3091A80F4091A90F9D
:103E70005091AA0F621B730B840B950B6530710573
:103E80008105910508F478C0D701E3EEF4E08CE0F9
:103E900001900D928150E1F7A0E6BFE0F7018CE0C0
:103EA00001900D928150E1F78091AB0F8F5F80936D
:103EB000AB0F843011F40E94571E8091AB0F8431F8
:103EC00009F05AC00E94D2151092AB0F8DB79EB761
:103ED00040970FB6F8949EBF0FBE8DBFEDB7FEB7EB
:103EE0003196ADB7BEB71296DC92CE921197B382DF
:103EF000A2828091A4049091A504A091A604B091FF
:103F0000A70484839583A683B7838091A8049091A6
:103F1000A904A091AA04B091AB0480879187A287DD
:103F2000B3878091AC049091AD04A091AE04B091A0
:103F3000AF0484879587A687B7870E94348C8DB796
:103F40009EB740960FB6F8949EBF0FBE8DBF80916E
:103F50000109882389F085E395E00E940F82D8014A
:103F6000EFEBF4E084E201900D928150E1F785E3FC
:103F700095E0B8010E94688288E594E00E94AB8CCD
:103F8000181619060CF06CCF80E0E096EAE00C946D
:103F9000D0A2AF92BF92CF92DF92EF92FF920F9397
:103FA0001F937C018B01FB01678170858185928560
:103FB000F7012781308541855285621B730B840B85
:103FC000950B0E940EA05B016C01F801638574855E
:103FD00085859685F7012385348545855685621B41
:103FE000730B840B950B0E940EA02091E002309180
:103FF000E1024091E2025091E3020E9476A17B012E
:104000008C01C601B501A60195010E9476A15B0154
:104010006C01C801B701A80197010E9476A19B011C
:10402000AC01C601B5010E94A69E0E94E3A128EC46
:1040300032E646E35CE30E9476A10E94DB9F9B018F
:10404000AC01CA011F910F91FF90EF90DF90CF90CC
:10405000BF90AF900895A0E0B0E0E1E3F0E20C94EF
:10406000B6A20E94F00F68EE73E080E090E00E943C
:10407000429D9EEAC92E96E0D92E88E5E82E84E07E
:10408000F82E6DE471E080E090E00E94429D0E9475
:104090004C0F8091B80F9091B90F0E944A88C0913F
:1040A000B80FD091B90F8FA1882309F445C08DB7FF
:1040B0009EB742970FB6F8949EBF0FBE8DBF0DB747
:1040C0001EB70F5F1F4FEDB7FEB7F282E182F80116
:1040D000D382C2828C859D85AE85BF85848395837E
:1040E000A683B78388899989AA89BB8980879187A4
:1040F000A287B3876C897D898E899F8924E630E009
:1041000040E050E00E9491A2F8012487358746875D
:1041100057878EA1808B118A0E94348CE091B80F52
:10412000F091B90F17A28DB79EB742960FB6F894CB
:104130009EBF0FBE8DBF06C088E594E063E072E0CD
:104140000E940B9B88E594E00E94AB8C1816190620
:104150000CF097CF80E0CDB7DEB7E8E00C94D2A2A8
:1041600000D00F9288E594E0EDB7FEB7928381838B
:104170008BE397E0948383830E94348C0F900F909D
:104180000F900F9083E79FE00E94B98080E0089530
:1041900088E89FE00E94B98080E00895CF93DF9384
:1041A00000D00F92C8E5D4E0EDB7FEB7D283C1834B
:1041B00087E098E0948383830E94348C0F900F9063
:1041C0000F900F90809181099091820984519540C0
:1041D00064F168EE73E080E090E00E94429D00D0C0
:1041E0000F92EDB7FEB7D283C1838EED97E0948333
:1041F00083830E94348C0F900F900F900F9068EE85
:1042000073E080E090E00E94429D00D00F92EDB7F5
:10421000FEB7D283C1838BEB97E0948383830E94A4
:10422000348C0F900F900F900F908AE79FE00E94C0
:10423000B98080E0DF91CF9108958CE69FE00E94E5
:10424000B98080E0089581ED98E00E94E27900D085
:104250000F9288E594E0EDB7FEB79283818380EFFB
:1042600098E0948383830E94348C0F900F900F907A
:104270000F900E94591C8091DC080E94741082E00B
:1042800090E00E94701C0895A0E0B0E0EAE4F1E242
:104290000C94B6A200D00F9238E5E32E34E0F32E52
:1042A000ADB7BEB71296FC92EE92119784E599E0F5
:1042B00014969C938E9313970E94348C0F900F90BA
:1042C0000F900F900E94591C809101090E94741058
:1042D00025E3C22E25E0D22EC6010E943482CDB73E
:1042E000DEB728970FB6F894DEBF0FBECDBF0DB76F
:1042F0001EB70F5F1F4FFA82E98224E439E0F8010C
:104300003383228321EE3EE245E652E40E9476A109
:10431000D80114966D937D938D939C9317970E946B
:10432000348CCDB7DEB728960FB6F894DEBF0FBE3B
:10433000CDBFC6010E942F829C01EDB7FEB77097DA
:104340000FB6F894FEBF0FBEEDBF3196ADB7BEB746
:104350001296FC92EE92119783E299E09383828306
:10436000E90188819981AA81BB8184839583A68391
:10437000B7838C819D81AE81BF8180879187A28721
:10438000B38788859985AA85BB8584879587A68705
:10439000B7870E94348CEDB7FEB770960FB6F894CD
:1043A000FEBF0FBEEDBF82E090E00E94701CCDB753
:1043B000DEB7E8E00C94D2A2FF920F931F93F82E81
:1043C0008B0188E090E00E94701C0E94A41C0E9457
:1043D000CC1C0E94E71C0E943E1D0E9423210E94CB
:1043E000B51D0E94811C0E9444218F2DB8010E949E
:1043F000937F80E01F910F91FF900895FB016089EA
:1044000071898289938925E33AEF4EE85CE30E9443
:1044100076A1AB01BC0185E395E00E94ED840E948A
:10442000442180E00895FB018485809319098EE082
:1044300099E00E94717A0E94F21D80E0089500D0F8
:104440000F9288E594E0EDB7FEB79283818381E116
:104450009AE0948383830E94348C81E080930D09D9
:104460000F900F900F900F9082E099E00E94717A68
:1044700064E170E080E090E00E94429D88E594E075
:104480000E94AB8C181619069CF710920D0982E059
:1044900099E00E94717A80E0089564E170E080E024
:1044A00090E00E94429D0E94D2152091290A3091ED
:1044B0002A0A3093BC0F2093BB0F3093BE0F20937A
:1044C000BD0F3093C00F2093BF0F3093C20F2093C6
:1044D000C10F80912509813009F055C040916C09C8
:1044E00050916D098BE0493B58075CF0C9018C592C
:1044F0009F4F9093BC0F8093BB0F9093C20F8093FC
:10450000C10F4854544FA4F48091BD0F9091BE0F39
:104510008C599F4F9093BE0F8093BD0F8091BF0F1A
:104520009091C00F8C599F4F9093C00F8093BF0FF5
:104530002091C0093091C1094BE0293B3407A4F018
:104540008091BD0F9091BE0F8C599F4F9093BE0FDD
:104550008093BD0F8091C10F9091C20F8C599F4FD6
:104560009093C20F8093C10F2854344F0CF045C074
:104570008091BB0F9091BC0F8C599F4F9093BC0FB3
:104580008093BB0F30C080916C0990916D094BE016
:10459000893B940734F02C593F4F3093BC0F209344
:1045A000BB0F8854944F54F48091BD0F9091BE0F6F
:1045B0008C599F4F9093BE0F8093BD0F2091C009DF
:1045C0003091C1094BE0293B340754F08091C10F71
:1045D0009091C20F8C599F4F9093C20F8093C10F3F
:1045E0002854344F54F48091BF0F9091C00F8C59D0
:1045F0009F4F9093C00F8093BF0F4091BB0F50917E
:10460000BC0F83E391E160E00E94CF744091BD0F45
:104610005091BE0F83E391E161E00E94CF7440911D
:10462000BF0F5091C00F83E391E162E00E94CF740D
:104630004091C10F5091C20F83E391E163E00E946A
:10464000CF7488E594E00E94AB8C181619060CF024
:1046500024CF10920D0982E099E00E94717A80E0E7
:104660000895FF920F931F93CF93DF9300D00F9283
:1046700088E594E0EDB7FEB79283818386EB99E0FD
:10468000948383830E94348C0F900F900F900F902F
:104690000E94F00FFF2400E0C1E0D0E064E170E090
:1046A00080E090E00E94429D0E94D2150E94AE0ED2
:1046B000182FF81609F190E0FC01EE0FFF1FE80F2C
:1046C000F91FEE0FFF1FEE0FFF1FED59F74F038588
:1046D000083008F007E04091B608552747FD50958F
:1046E000012E02C0559547950A94E2F7417050702B
:1046F000812F602F0E94F11B80916C0990916D09B0
:1047000097FF03C0909581959F4F895B9B404CF12B
:104710000F5F083009F400E0812F90E0FC01EE0FFC
:10472000FF1FE80FF91FEE0FFF1FEE0FFF1FED59E0
:10473000F74F03874091B608552747FD5095012E46
:1047400002C0559547950A94E2F741705070812F49
:10475000602F0E94F11B64EF71E080E090E00E9406
:10476000429D8091680A9091690A895B9B400CF197
:10477000CE01012E02C0880F991F0A94E2F74091E2
:10478000B608482B4093B608552747FD5095012E93
:1047900002C0559547950A94E2F741705070812FF9
:1047A000602F0E94F11B64EF71E080E090E00E94B6
:1047B000429D8091680A9091690A8854944F1CF533
:1047C000CE01012E02C0880F991F0A94E2F780954E
:1047D0002091B60882238093B608482F552747FDBD
:1047E0005095012E02C0559547950A94E2F7417005
:1047F0005070812F602F0E94F11B64EF71E080E008
:1048000090E00E94429D88E594E00E94AB8CF12EDE
:10481000181619060CF042CFC3E6D8E0CE010E946C
:10482000717A2C96F8E0CB3ADF07C1F7CE010E94EF
:10483000717A0E9458120E94B51D80E0CDB7DEB794
:10484000E5E00C94D5A2A4E2B0E0E9E2F4E20C9435
:10485000BAA280E090E0A0E8BFE389839A83AB83AB
:10486000BC8380E090E0A0E0B0E08D839E83AF83C6
:10487000B88789879A87AB87BC878D879E87AF87E4
:10488000B88B20E030E040E85FEB298B3A8B4B8B14
:104890005C8B8D8B9E8BAF8BB88F898F9A8FAB8FF4
:1048A000BC8F8D8F9E8FAF8FB8A329A33AA34BA344
:1048B0005CA305E315E0C801BE016F5F7F4F0E9456
:1048C000FE84C8010E941082C8010E942F82A49613
:1048D000E4E00C94D6A2CF93DF93FB01C285D3858D
:1048E000CE016CE979E00E9450A4892B21F481E08B
:1048F0008093DC0809C0CE0168E979E00E9450A4E9
:10490000892B39F41092DC0881ED98E00E94717ACD
:1049100012C000D00F9288E594E0EDB7FEB7928305
:10492000818384E899E0948383830E94348C0F9080
:104930000F900F900F900E94232180E0DF91CF9184
:104940000895CF93DF93FB01EB012A96828593852F
:1049500062EB79E00E9450A4892B19F41092E808C8
:104960000FC02A813B814C815D81DA01C901019729
:10497000A109B1090497A105B10538F42093E8080D
:104980008DED98E00E94717A12C000D00F9288E5F8
:1049900094E0EDB7FEB7928381838FE999E0948329
:1049A00083830E94348C0F900F900F900F900E9481
:1049B0003E1D80E0DF91CF910895CF93DF93FB01FF
:1049C000C285D385CE016DEE7AE00E9450A4892B7A
:1049D00011F481E019C0CE016BEE7AE00E9450A480
:1049E000892B39F0CE0169EE7AE00E9450A4892B20
:1049F00019F4109225090AC0CE0167EE7AE00E94F0
:104A000050A4892B41F482E0809325098AE199E042
:104A10000E94717A12C000D00F9288E594E0EDB741
:104A2000FEB79283818385ED9AE0948383830E940D
:104A3000348C0F900F900F900F900E94E71C80E035
:104A4000DF91CF910895ACE0B0E0E9E2F5E20C949B
:104A5000BAA2FB0102851385C80161E879E00E94D2
:104A600050A4892B51F481E08093010986EF98E0EE
:104A70000E94717A0E9423243CC0C8016DE779E04E
:104A80000E9450A4892B11F580E090E0A0E0B0E0F6
:104A900089839A83AB83BC838D839E83AF83B887DE
:104AA00089879A87AB87BC8785E395E0BE016F5FF6
:104AB0007F4F0E94128285E395E00E94F984109254
:104AC000010986EF98E00E94717A13C000D00F921E
:104AD00088E594E0EDB7FEB7928381838AE699E09A
:104AE000948383830E94348C0F900F900F900F90CB
:104AF00004C086EF98E00E94717A0E94442180E011
:104B00002C96E4E00C94D6A20F931F93CF93DF93DF
:104B100088E594E065E072E00E94DE9B00E064E1DD
:104B200070E080E090E00E94429D0E94D2150F5FED
:104B30000436A9F7C0916A09D0916B0981E0C43F9E
:104B4000D8073CF468EE73E080E090E00E94429D5C
:104B5000F9CFD0938209C09381092091BE09309189
:104B6000BF093093D6092093D5090091120A1091FC
:104B7000130A10932A0A0093290A8091660A9091D9
:104B8000670A90937E0A80937D0AA091BA0AB09139
:104B9000BB0AB093D20AA093D10AE0910E0BF09118
:104BA0000F0BF093260BE093250B6091620B709135
:104BB000630B70937A0B6093790B4091B60B509115
:104BC000B70B5093CE0B4093CD0BD0939C09C09361
:104BD0009B093093F0092093EF091093440A009346
:104BE000430A9093980A8093970AB093EC0AA09393
:104BF000EB0AF093400BE0933F0B7093940B6093A0
:104C0000930B5093E80B4093E70BD0938F09C0931D
:104C10008E093093E3092093E20990938B0A8093E5
:104C20008A0A8CED95E09093DF0A8093DE0A9093D8
:104C3000330B8093320B9093870B8093860B90936A
:104C4000DB0B8093DA0B00D00F9288E594E0EDB790
:104C5000FEB7928381838FEE9AE0948383830E94D0
:104C6000348C0F900F900F900F9064E170E080E013
:104C700090E00E94429D0E94D2158FE599E00E942B
:104C8000769683EB99E00E94769687E09AE00E9400
:104C900076968BE59AE00E9476968FEA9AE00E94DB
:104CA000769683E09BE00E94769687E59BE00E94E3
:104CB00076968BEA9BE00E94769688E594E00E94C7
:104CC000AB8C181619068CF664E170E080E090E079
:104CD0000E94429D88E594E00E94288D8FE599E02E
:104CE0000E94AC9883EB99E00E94AC9887E09AE030
:104CF0000E94AC988BE59AE00E94AC988FEA9AE00B
:104D00000E94AC9883E09BE00E94AC9887E59BE012
:104D10000E94AC988BEA9BE00E94AC980E945812CB
:104D20000E94CC1C80E0DF91CF911F910F910895DC
:104D300000D00F9288E594E0EDB7FEB792838183AF
:104D40008CE49BE0948383830E94348C0F900F90BB
:104D50000F900F9088E594E00E94DB8CFFEF8F3F6F
:104D60009F07C1F38937910529F08935910511F025
:104D70008FEF08950E944D7A00D00F9288E594E05D
:104D8000EDB7FEB79283818387E29BE094838383B0
:104D90000E94348C0F900F900F900F9068EE73E08C
:104DA00080E090E00E94429DFFCFCF93DF9300D040
:104DB0000F9288E594E0EDB7FEB7928381838AE88D
:104DC0009BE0948383830E94348CC0E0D0E00F90FA
:104DD0000F900F900F90CE0160E00E9451A7219696
:104DE000F0E1C030DF07B9F700D00F9288E594E01A
:104DF000EDB7FEB79283818384E89BE0948383833D
:104E00000E94348C0F900F900F900F90DF91CF91F4
:104E100008950E94D52680E00895EF92FF920F93A7
:104E20001F93CF93DF937B018230A1F000D00F92CC
:104E300088E594E0EDB7FEB79283818389E49CE036
:104E4000948383830E94348C8FEF0F900F900F9088
:104E50000F9091C0FB0102851385C80165E47CE0D9
:104E60000E943DA4892B19F4CFEFDFEF63C0C80186
:104E700067E37CE00E943DA4C0E0D0E0892B11F400
:104E8000C1E0D0E0C8016AE27CE00E943DA4892B29
:104E900009F4C260C80166E27CE00E943DA4892B4F
:104EA00009F4C460C80163E27CE00E943DA4892B40
:104EB00009F4C860C8016EE17CE00E943DA4892B22
:104EC00009F4C061C80169E17CE00E943DA4892B1E
:104ED00009F4C062C80164E17CE00E943DA4892B12
:104EE00009F4C064C80160E17CE00E943DA4892B04
:104EF00009F4C068C8016CE07CE00E943DA4892BE5
:104F000009F4D160C80168E07CE00E943DA4892BCF
:104F100009F4D260C80161E07CE00E943DA4892BC5
:104F200009F4D460C80169EF7BE00E943DA4892B9D
:104F300009F4D860F7018081918162EF7BE00E94E3
:104F40003DA4892B39F48091C2089091C308C82BE5
:104F5000D92B08C0C095D0958091C2089091C30804
:104F6000C823D923D093C308C093C20887EB98E025
:104F70000E94717A80E0CDB7DEB7E6E00C94D4A24F
:104F8000CF93DF9300D00F9288E594E0EDB7FEB7A2
:104F90009283818389E69CE0948383830E94348C8E
:104FA000C1E0D0E00F900F900F900F908CE092E155
:104FB000BE010E9491892196F0E1C030DF07B1F770
:104FC0008CE092E161E070E00E9485898CE092E1E2
:104FD00063EA0E943B8A8CE092E165E90E943B8A89
:104FE0008CE092E160EF0E943B8A8CE092E160E00D
:104FF0000E943B8A8CE092E16AEB0E943B8A8CE043
:1050000092E10E94B38A00D00F9288E594E0EDB758
:10501000FEB7928381838BE59CE0948383830E9417
:10502000348C0F900F900F900F9080E0DF91CF9114
:1050300008956F927F928F929F92AF92BF92CF927C
:10504000DF92EF92FF920F931F930CE012E1C801E1
:105050000E949C8B3C01C8010E949C8B4C01C801A2
:105060000E949C8B5C01C8010E949C8B6C01C80152
:105070000E949C8B7C01C8010E949C8B2DB73EB77F
:10508000205130400FB6F8943EBF0FBE2DBFEDB794
:10509000FEB7319628E534E0ADB7BEB712963C9323
:1050A0002E93119728E83CE0338322837582648233
:1050B00097828682B186A086D386C286F586E486EC
:1050C000978786870E94348C2DB73EB7205F3F4F6D
:1050D0000FB6F8943EBF0FBE2DBF1F910F91FF90EA
:1050E000EF90DF90CF90BF90AF909F908F907F9088
:1050F0006F900895EF92FF920F931F9300D00F923D
:1051000008E514E0ADB7BEB712961C930E93119745
:105110008BEA9CE014969C938E9313970E94348C98
:105120000F900F900F900F90BCE0EB2EB2E1FB2E92
:10513000C7010E942B8BE82FF0E0EE0FFF1FEB5F03
:10514000FC4F60817181C8010E940B9BC7010E94C6
:105150009C8B00D000D0EDB7FEB73196ADB7BEB78F
:1051600012961C930E93119725EA3CE03383228319
:10517000958384830E94348CEDB7FEB736960FB6C4
:10518000F894FEBF0FBEEDBF1F910F91FF90EF90FF
:1051900008952F923F924F925F926F927F928F92DB
:1051A0009F92AF92BF92CF92DF92EF92FF920F93B6
:1051B0001F930CE012E1C8010E949C8B1C01C801E6
:1051C0000E949C8B2C01C8010E949C8B3C01C80151
:1051D0000E949C8B4C01C8010E949C8B5C01C80101
:1051E0000E949C8B6C01C8010E949C8B7C01C801B1
:1051F0000E949C8B2DB73EB7245130400FB6F894D7
:105200003EBF0FBE2DBFEDB7FEB7319628E534E0A7
:10521000ADB7BEB712963C932E93119720EB3CE0AE
:105220003383228335822482578246827186608648
:1052300093868286B586A486D786C686F18AE08A5A
:10524000938B828B0E94348C2DB73EB72C5E3F4FE0
:105250000FB6F8943EBF0FBE2DBF1F910F91FF9068
:10526000EF90DF90CF90BF90AF909F908F907F9006
:105270006F905F904F903F902F9008959F92AF92C4
:10528000BF92CF92DF92EF92FF920F931F930CE0A9
:1052900012E1C8010E949C8B5C01C8010E942B8B0B
:1052A000982EC8010E949C8B6C01C8010E949C8BA7
:1052B0007C01C8010E949C8B2DB73EB72E50304018
:1052C0000FB6F8943EBF0FBE2DBFEDB7FEB73196B7
:1052D00028E534E0ADB7BEB712963C932E931197F4
:1052E00026ED3CE033832283B582A4829682178226
:1052F000D186C086F386E286958784870E94348CA7
:105300002DB73EB7225F3F4F0FB6F8943EBF0FBE9A
:105310002DBF1F910F91FF90EF90DF90CF90BF9026
:10532000AF909F900895AF92BF92CF92DF92EF928D
:10533000FF920F931F930CE012E1C8010E949C8B17
:105340005C01C8010E949C8B6C01C8010E949C8B6F
:105350007C01C8010E949C8B2DB73EB72C50304079
:105360000FB6F8943EBF0FBE2DBFEDB7FEB7319616
:1053700028E534E0ADB7BEB712963C932E93119753
:105380002DE63DE033832283B582A482D782C68294
:10539000F186E086938782870E94348C2DB73EB7D2
:1053A000245F3F4F0FB6F8943EBF0FBE2DBF1F9135
:1053B0000F91FF90EF90DF90CF90BF90AF90089546
:1053C0001F938CE092E161E070E00E94B28B10E0EC
:1053D0008CE092E10E942B8B113051F0113018F0CB
:1053E000123099F408C010E0833A79F411E00DC04E
:1053F000853951F407C0803F39F48CE092E10E9476
:105400002B8B0AC012E001C010E08CE092E10E94F8
:10541000EC880197E9F280E01F910895EF92FF92E6
:105420000F931F93CF93DF938C01C0E0D0E11FC097
:10543000CE01800F911F62E070E00E945CA2F62E08
:10544000E72E8CE092E10E94B28B8CE092E10E9408
:105450005B8B6F5F7F4F8F4F9F4F29F48F2D9E2D5A
:105460009C01E90104C08F2D9E2D9C018901CE0174
:10547000801B910B0297E4F6CE01CDB7DEB7E6E0D4
:105480000C94D4A2A0E0B0E0E8E4FAE20C94B4A258
:10549000E82E6B015A018CE092E161E070E00E941D
:1054A000B28B10E08CE092E10E942B8B113051F016
:1054B000113018F01230A9F508C010E0833A89F5D0
:1054C00011E02FC0853961F529C0803F49F58CE096
:1054D00092E10E942B8BF82EC0E0D0E00E2D10E060
:1054E0000FC08CE092E10E949C8BF6019183808337
:1054F0008CE092E10E949C8BF50191838083219640
:10550000C017D10774F3EF1499F4F60180819181EB
:105510000E940E2AF501918380830AC012E001C027
:1055200010E08CE092E10E94EC88019709F4BACF78
:10553000CDB7DEB7EAE00C94D0A2A4E0B0E0E3EA95
:10554000FAE20C94B0A20E94E029D82E00D00F926B
:1055500008E514E0ADB7BEB712961C930E931197F1
:1055600083ED90E114969C938E9313970E94348C54
:105570008091C2089091C3080F900F900F900F90E8
:10558000009759F400D00F92EDB7FEB71283018354
:105590008EEC90E19483838308C180FF14C000D017
:1055A0000F92ADB7BEB712961C930E9311978FEB67
:1055B00090E114969C938E9313970E94348C0F90D5
:1055C0000F900F900F908091C20881FF12C000D001
:1055D0000F9288E594E0EDB7FEB79283818381EB6B
:1055E00090E1948383830E94348C0F900F900F90EE
:1055F0000F908091C20882FF16C000D00F9288E5FC
:1056000094E0ADB7BEB712969C938E9311978CEA37
:1056100090E114969C938E9313970E94348C0F9074
:105620000F900F900F908091C20883FF12C000D09E
:105630000F9288E594E0EDB7FEB79283818388EA04
:1056400090E1948383830E94348C0F900F900F908D
:105650000F908091C20884FF16C000D00F9288E599
:1056600094E0ADB7BEB712969C938E93119782EAE1
:1056700090E114969C938E9313970E94348C0F9014
:105680000F900F900F908091C20885FF12C000D03C
:105690000F9288E594E0EDB7FEB7928381838CE9A1
:1056A00090E1948383830E94348C0F900F900F902D
:1056B0000F908091C20887FF16C000D00F9288E536
:1056C00094E0ADB7BEB712969C938E93119787E97D
:1056D00090E114969C938E9313970E94348C0F90B4
:1056E0000F900F900F908091C2089091C30890FF87
:1056F00012C000D00F9288E594E0EDB7FEB7928318
:10570000818382E990E1948383830E94348C0F909B
:105710000F900F900F908091C2089091C30891FF55
:1057200016C000D00F9288E594E0ADB7BEB71296D0
:105730009C938E93119789E890E114969C938E9395
:1057400013970E94348C0F900F900F900F908091C0
:10575000C2089091C30892FF12C000D00F9288E552
:1057600094E0EDB7FEB79283818381E890E1948362
:1057700083830E94348C0F900F900F900F90809134
:10578000C2089091C30893FF16C000D00F9288E51D
:1057900094E0ADB7BEB712969C938E93119788E7AD
:1057A00090E114969C938E9313970E94348C0F90E3
:1057B0000F900F900F9028E5E22E24E0F22EC70103
:1057C0000E94C79BDD2089F400D00F92EDB7FEB791
:1057D000F282E1828EE590E1948383830E94348C8F
:1057E0000F900F900F900F9064C0CD2CDD2400D04F
:1057F00000D0EDB7FEB73196ADB7BEB71296FC92AA
:10580000EE92119784E590E193838283D582C482DE
:105810000E94348C93E3692E90E1792E01E010E030
:10582000EDB7FEB736960FB6F894FEBF0FBEEDBFCC
:10583000470183E0A82EB12CAC0EBD1E7E0108945A
:10584000E11CF11C2FC0802FB701A5010E94422A44
:105850008DB79EB70A970FB6F8949EBF0FBE8DBF47
:10586000EDB7FEB73196ADB7BEB711968C921197D2
:1058700012969C92738262821583048389819A8135
:10588000978386838B819C81918780870E94348C4B
:105890000F5F1F4FEDB7FEB73A960FB6F894FEBFF5
:1058A0000FBEEDBFC016D10674F688E594E00E94E5
:1058B000C79B81E02496EEE00C94CCA27F928F925D
:1058C0009F92AF92BF92CF92DF92EF92FF920F938F
:1058D0001F930CE012E1C8010E949C8B6C01C8016F
:1058E0000E942B8B782EC8010E942B8B882EC8011A
:1058F0000E942B8B982EC8010E942B8BA82EC801CA
:105900000E942B8BB82EC8010E949C8B7C01C80181
:105910000E945B8B2DB73EB7265130400FB6F894EE
:105920003EBF0FBE2DBFEDB7FEB7319628E534E080
:10593000ADB7BEB712963C932E93119720EF3CE083
:1059400033832283D582C482768217828086118631
:1059500092861386A4861586B6861786F18AE08A13
:10596000628B738B848B958B0E94348C2DB73EB7E2
:105970002A5E3F4F0FB6F8943EBF0FBE2DBF1F915A
:105980000F91FF90EF90DF90CF90BF90AF909F90DE
:105990008F907F9008953F924F925F926F927F9287
:1059A0008F929F92AF92BF92CF92DF92EF92FF922F
:1059B0000F931F930CE012E1C8010E942B8B382E2D
:1059C000C8010E942B8B482EC8010E942B8B582E99
:1059D000C8010E942B8B682EC8010E942B8B782E49
:1059E000C8010E945B8B4B015C01C8010E945B8B6C
:1059F0006B017C01C8010E945B8B2DB73EB72A5119
:105A000030400FB6F8943EBF0FBE2DBFEDB7FEB7C6
:105A1000319628E534E0ADB7BEB712963C932E938D
:105A200011972AE13DE03383228334821582468236
:105A3000178250861186628613867486158686863E
:105A40009786A08AB18AC28AD38AE48AF58A668B4D
:105A5000778B808F918F0E94348C2DB73EB7265E56
:105A60003F4F0FB6F8943EBF0FBE2DBF1F910F9151
:105A7000FF90EF90DF90CF90BF90AF909F908F906E
:105A80007F906F905F904F903F900895A0E0B0E0BE
:105A9000ECE4FDE20C94ACA23CE0C32E32E1D32E48
:105AA000C6010E949C8B1C01C6010E945B8B2B01CE
:105AB0003C01C6010E949C8B7C01C6010E949C8B0C
:105AC0004C01C6010E949C8BEC018DB79EB7449798
:105AD0000FB6F8949EBF0FBE8DBFCDB6DEB608944C
