:100000000C94F9090C94250A0C94250A0C94250AE1
:100010000C94250A0C94250A0C94250A0C94250AA4
:100020000C94250A0C94250A0C94250A0C94250A94
:100030000C94250A0C94250A0C94250A0C94F48639
:100040000C94250A0C94250A0C94250A0C94250A74
:100050000C94250A0C94250A0C94250A0C946CDC4B
:100060000C94250A0C94C70B0C94070C0C94250ACD
:100070000C94250A0C94250A0C94250A0C94250A44
:100080000C94250A0C94250A0C94250A0C94250A34
:100090000C94590C0C94990C0C94250A0C9408D9C6
:1000A0000C94250A0C943C840C94250A0C94250A83
:1000B0000C94250A0C94250A0C94250A0C94250A04
:1000C0000C94250A0C94250A0C94250A0C94250AF4
:1000D0000C94250A0C94250A0C94EB0C0C942B0D13
:1000E0000C94250AED170E188518431864189E18ED
:1000F000B718D018E91809193B191A1974195C199D
:100100005A2E7B2E5D2E602E632E662E692E6C2E4F
:100110006F2E722E752E782E7E2E8A48A148A84802
:1001200091489A48AF48F348D248CB48C448D94888
:10013000E048E648EC48B648BD480549F948114949
:100140007E4A784A854A964ADF4ABC4AF44AAA4A15
:10015000CE4A0A5228523352B2548352FF52775237
:100160009852B254B254B254B254B254B254B2547B
:10017000B254B254B254B254B254B254B254B2544F
:10018000B254335361558D55965599559C55615FC1
:100190009F55615F615F615FA255A555A855D25516
:1001A000D055D055D055F255D055D455D055D05501
:1001B000DE55ED55E055E355D055D055D055E655B3
:1001C000D055D055D055D055D055ED55D055EF55CB
:1001D000A784AC84B184B684BB84C084C584CA843B
:1001E000CF84D484D9844BBD46BD4FBD53BD61BDC2
:1001F0007ABDA4BDB5BDF4BEEFBEF8BE01BF28BF39
:1002000034BF4EBF6FBF76BFD5D1D5D1F9D168D23B
:100210003DD283D29ED2CBD209D350D3A9DDACDD5F
:100220009FDDA3DDE5DDB0DDB4DDBADDBEDDC2DD21
:10023000C8DDCCDDD0DDD6DDDADDE0DD036EDB361A
:100240003D9A9999993DABAAAA2A3E000000803FA9
:10025000084AD73B3BCE016E84BCBFFDC12F3D6C2D
:1002600074319ABD56833DDA3D00C77F11BED9E493
:10027000BB4C3E916BAAAABE000000803F072C7ABF
:10028000A5BA6CC590DA3B9365FC8BBC53F810FDA6
:100290003C5692834DBD879D3AB63DCBC9BF5BBEF0
:1002A00073DA0FC93F05A84CCDB2D44EB93836A980
:1002B000020C50B9918688083CA6AAAA2ABE000062
:1002C00000803F08000000BE922449123EABAAAA5B
:1002D0002ABECDCCCC4C3E00000080BEABAAAAAA60
:1002E0003E00000000BF000000803F000000000052
:1002F000084178D3BB4387D1133D190E3CC3BD429F
:1003000082AD2B3E68EC8276BED98FE1A93E4C804F
:10031000EFFFBE01C4FF7F3F00000000004C6F678D
:100320000064756D70000000000000000000009186
:100330002E65726173650000000000000000006A15
:1003400026656E61626C650000000000000000B769
:100350002564697361626C6500000000000000B7ED
:1003600025706C616E6E657200676373000000003B
:1003700000000000000000EA4E73657475700065AF
:1003800072617365000000000000000000B3257278
:1003900065736574000000000000000000422572D3
:1003A0006164696F0000000000000000002E2466F8
:1003B00072616D650000000000000000007B236D8D
:1003C0006F746F727300000000000000001C216554
:1003D00073630000000000000000000000EE206CCD
:1003E0006576656C00000000000000000022246DAE
:1003F0006F646573000000000000000000CA216205
:10040000617474657279000000000000003F23737E
:100410006F6E61720000000000000000000923639D
:100420006F6D7061737300000000000000C12374E1
:10043000756E6500000000000000000000E220640E
:1004400065636C696E6174696F6E000000CD207326
:10045000686F7700000000000000000000AB204142
:10046000726475436F707465722056322E302E356B
:10047000302042657461006C6F67730000000000FB
:100480000000000000EC1F73657475700000000030
:1004900000000000009D1F746573740000000000E0
:1004A0000000000000971F68656C700000000000ED
:1004B0000000000000CC0F706C616E6E6572000071
:1004C00000000000007F1F7465737400726164692E
:1004D0006F0000000000000000000215677073004C
:1004E00000000000000000000000851E696D75001E
:1004F00000000000000000000000EC1C6261747449
:10050000657279000000000000002C0F74756E65A4
:100510000000000000000000000075196375727291
:10052000656E74000000000000003E177770000048
:1005300000000000000000000000B513616C746949
:10054000747564650000000000008A12736F6E61AC
:100550007200000000000000000065116565647510
:100560006D700000000000000000041120253032F2
:100570007800253034783A00536F6E61723A202546
:100580006420636D0A00536F6E6172206469736149
:10059000626C65640A0048697420456E7465722057
:1005A000746F20657869742E0A0A004261726F3A8E
:1005B000202564636D2C20726174653A25642C20BB
:1005C000256C642C20256C642C2025640A00486965
:1005D00074207261643A2025640A002564207770D3
:1005E0000A006F662025646D0A000A00486F6C647B
:1005F00020616C742000636D64233A2025642069B7
:10060000643A2564206F703A25642070313A25647D
:100610002070323A256C642070333A25342E3766C8
:100620002070343A25342E3766200A00563A2025A9
:10063000342E34662C20413A2025342E34662C206A
:100640006D41683A2025342E34660A0074756E6553
:100650003A2025312E33660A004E6F7420656E6194
:10066000626C65640A00256C642C20256C642C2067
:10067000256C642C20207C2020256C642C20256C8B
:10068000642C20256C640A00494D550A00475F6FB1
:1006900066663A2025342E32662C2025342E3266AA
:1006A0002C2025342E32660A00415F6F66663A20A0
:1006B00025342E32662C2025342E32662C2025340B
:1006C0002E32660A004C61743A20256C642C204C52
:1006D0006F6E20256C642C20416C743A20256C646C
:1006E0006D2C2023736174733A2025640A00494EEF
:1006F0002020313A20256409323A20256409333A12
:1007000020256409343A20256409353A20256409F6
:10071000363A20256409373A2025640A00506C6176
:100720006E6E6572204D6F64650A4E6F7420696E3F
:1007300074656E64656420666F72206D616E7561AC
:100740006C207573650A0A00436F6D6D616E64738A
:100750003A0A20206C6F67730A20207365747570E5
:100760000A2020746573740A2020706C616E6E65B7
:10077000720A0A4D6F76652074686520736C69642F
:10078000652073776974636820616E642072657395
:10079000657420746F20464C592E0A0A000A2054B2
:1007A0007970652027726164696F27206E6F772EDC
:1007B0000A0A000A215761726E696E672C20726105
:1007C00064696F206E6F7420636F6E6669677572FF
:1007D000656421005365747570204D6F64650A0A65
:1007E0000A004657205665723A2025640A00526175
:1007F00064696F0A004348373A202564207C20252D
:10080000640A004348363A202564207C2025640A87
:10081000004348353A202564207C2025640A0043A3
:1008200048343A202564207C2025640A004348335C
:100830003A202564207C2025640A004348323A206F
:100840002564207C2025640A004348313A20256431
:10085000207C2025640A0056206D6F64650A002BF9
:10086000206D6F64650A0058206D6F64650A005939
:1008700036206672616D650A004672616D650A0018
:10088000766F6C747320616E642063757200766F8E
:100890006C7473003463003363000A426174742023
:1008A0004D6F6E3A0A0061626C65640A0064697398
:1008B00000656E00536F6E61720A00466C6967686E
:1008C00074206D6F6465730A004F46460A004F4EF0
:1008D0000A002C090953696D706C653A2000506F4D
:1008E000732025643A09004D6167206F66663A20DF
:1008F00025342E34662C2025342E34662C202534C5
:100900002E3466004D6167204465633A2025342EFD
:1009100034660A00436F6D706173730A00202564AA
:100920000A000A54554E453A0A000A4F703A5B6F66
:100930006E2C6F66665D0A006F6666006F6E000A59
:100940004F703A5B6F6E2C206F66665D0A006F66B3
:1009500066006F6E000A4F703A206F66662C203179
:100960002D34006F6666000A4D6F646520737769E9
:1009700074636820746F20656469742C2061696CED
:1009800065726F6E3A2073656C656374206D6F6479
:1009900065732C207275646465723A2053696D70BA
:1009A0006C65206F6E2F6F66660A000A536176656C
:1009B000640A005365652077696B693A0A000A4F3B
:1009C000703A5B782C2B2C765D0A0076002B007039
:1009D0000078000A4D6F766520616C6C20636F6E45
:1009E00074726F6C7320746F2065787472656D65B6
:1009F000732E20456E74657220746F207361766566
:100A00003A20000A5265626F6F742041504D000A0F
:100A1000275927203D20666163746F7279207265C3
:100A20007365742C20616E79206F74686572206B19
:100A3000657920746F2061626F72743A0A00646F86
:100A40006E650A000A45726173696E6720454550FC
:100A5000524F4D0A00656E61626C65004F505446FE
:100A60004C4F57004D4F544F525300435552004383
:100A70004D4400524157004D4F4445004E54554E91
:100A8000004354554E00504D0047505300415454BC
:100A900049545544455F4D454400415454495455CB
:100AA00044455F4641535400616C6C006D6973733B
:100AB000696E67206C6F6720747970650A000A4C54
:100AC0006F67206572617365642E0A000A45726162
:100AD00073696E67206C6F672E2E2E0A0062616448
:100AE000206C6F6720232025640A004154542C2079
:100AF00025642C2025642C2025752C2025642C2091
:100B000025642C2025640A002C2025640A004D4F02
:100B1000443A004354554E2C20004E54554E2C2040
:100B200000504D2C20256C642C2025642C2025643D
:100B30002C2025642C2025642C2025640A00524199
:100B4000572C00434D442C2025642C2025642C2058
:100B500025642C2025642C2025642C20256C642CF5
:100B600020256C642C20256C640A00435552522CBD
:100B70002025642C20256C642C2025342E34662CF2
:100B80002025342E34662C2025640A00535441520B
:100B9000542055500A004D4F542C2025642C2025FC
:100BA000642C2025642C2025642C2025642C2025F1
:100BB000640A004F462C2025642C2025642C202517
:100BC000642C2025342E37662C2025342E37660AD7
:100BD000004750532C20256C642C2025642C2025A4
:100BE000342E37662C2025342E37662C2025342EC3
:100BF00034662C2025342E34662C2025642C2025A8
:100C0000750A00444154413A2025642C20256C6427
:100C10000A004143524F5F5049545F004143524FD5
:100C20005F524C4C5F005448525F524154455F0044
:100C30005448525F414C545F004E41565F4C4F4EFA
:100C40005F004E41565F4C41545F00484C445F4C3E
:100C50004F4E5F00484C445F4C41545F0053544238
:100C60005F5941575F005354425F5049545F0053EE
:100C700054425F524C4C5F00524154455F594157BA
:100C80005F00524154455F5049545F005241544502
:100C90005F524C4C5F0043414D5F525F4700434100
:100CA0004D5F505F470043414D5F525F0043414DF0
:100CB0005F505F005243385F005243375F0052433A
:100CC000365F005243355F005243345F0052433376
:100CD0005F005243325F005243315F0054425F5223
:100CE0004154494F004652414D450054554E450030
:100CF000455343004C4F475F4C41535446494C4584
:100D0000004C4F475F4249544D41534B0053494DAE
:100D1000504C4500464C544D4F44453600464C54CB
:100D20004D4F44453500464C544D4F4445340046E4
:100D30004C544D4F44453300464C544D4F4445327E
:100D400000464C544D4F444531005452494D5F5478
:100D500048524F54544C45005448525F46535F56D6
:100D6000414C5545005448525F46535F41435449F6
:100D70004F4E005448525F4641494C53414645004E
:100D80005448525F4D4158005448525F4D494E00FF
:100D90005854524B5F4741494E5F53430057505F91
:100DA00053504545445F4D41580057505F4C4F49A3
:100DB0005445525F5241440057505F524144495597
:100DC000530057505F4D5553545F494E44455800AA
:100DD00057505F494E4445580057505F544F544157
:100DE0004C0057505F4D4F4445004C4F575F564F96
:100DF0004C5400494E5F564F4C5400464C4F575F81
:100E0000454E41424C45004D41475F454E41424CA5
:100E10004500424154545F434150414349545900B5
:100E2000424154545F4D4F4E49544F5200534F4E20
:100E300041525F454E41424C4500414C545F484F42
:100E40004C445F52544C0053455249414C335F422D
:100E50004155440053595349445F4D59474353004A
:100E600053595349445F544849534D4156005359CF
:100E70005349445F53575F545950450053595349A0
:100E8000445F53575F4D52455600445A00524556F1
:100E9000004D4158005452494D004D494E00494DB6
:100EA00041580049005000494D555F53454E534F3E
:100EB000525F43414C004C6F6720232025642C2057
:100EC00020202073746172742025642C20202065FA
:100ED0006E642025640A000A2564206C6F67730A1B
:100EE000000A4E6F206C6F67730A54797065202773
:100EF00064756D702030272E0A0A00204F5054462A
:100F00004C4F5700204D4F544F52530020435552E1
:100F100052454E540020434D44002052415700207A
:100F20004E54554E00204354554E0020504D002045
:100F3000475053002041545449545544455F4D4552
:100F400044002041545449545544455F464153544C
:100F5000006E6F6E65006C6F677320656E61626C0A
:100F600065643A2000666C6967687420706C616E15
:100F700020726563656976656400616374696F6E8C
:100F80002072656365697665643A2000455854525D
:100F90004133004558545241320045585452413172
:100FA00000504F534954494F4E005241575F4354EC
:100FB000524C0052435F4348414E004558545F53E2
:100FC000544154005241575F53454E5300535233DE
:100FD0005F005352305F0047524F554E44205354E8
:100FE000415254000A434C493A0A0A00506C656168
:100FF00073652052756E2053657475702E2E2E0AFF
:10100000004669726D77617265206368616E67651D
:101010003A2065726173696E6720454550524F4DA5
:101020002E2E2E0A000A0A496E69742041726475D8
:10103000436F707465722056322E302E3530204248
:101040006574610A0A467265652052414D3A202551
:10105000750A004C6F67732066756C6C000A475008
:10106000530A00253033753A25733A20006E6F74A9
:1010700020666F756E6400253033753A252D333246
:101080002E3332733A2000756E6B6E6F776E20745C
:10109000797065006E6F7420666F756E64002573DD
:1010A0003A20006D697373696E67206E616D65200B
:1010B0006F722076616C7565003F3F0025640025E6
:1010C0006400256C640025660025660065786974F7
:1010D0000068656C700044454300434F4D504153D8
:1010E000535F00245047434D442C31362C302C3074
:1010F0002C302C302C302A36410D0A002450554219
:10110000582C34312C312C303030332C30303031BD
:101110002C33383430302C302A323600245053529D
:10112000463130302C302C33383430302C382C31A0
:101130002C302A33430020536952462000204D545E
:101140004B312E3620002075626C6F782000204DC8
:10115000544B312E3420006661696C65642C20721A
:1011600065747279696E67004F4B0020002A004950
:101170006E697420416363656C002A00496E69746E
:10118000204779726F006E616E00696E66000040E4
:101190007A10F35A00A0724E18090010A5D4E80086
:1011A00000E87648170000E40B54020000CA9A3B9E
:1011B000000000E1F5050000809698000000404224
:1011C0000F000000A08601000000102700000000B2
:1011D000E803000000006400000000000A000000B6
:1011E00000000100000000002C76D888DC674F0862
:1011F00023DFC1DFAE59E1B1B796E5E3E453C63A68
:10120000E651997696E8E6C28426EB898C9B62EDDE
:10121000407C6FFCEFBC9C9F40F2BAA56FA5F49098
:10122000055A2AF75C936B6CF9676DC11BFCE0E40F
:101230000D47FEF520E6B500D0ED902E0300943565
:1012400077050080841E080000204E0A000000C8B8
:101250000C333333330F986E12831141EF8D211409
:10126000893BE65516CFFEE6DB18D1844B381BF7D9
:101270007C1D901DA4BBE424203284725E22810078
:10128000C9F124ECA1E53D2700002100240027003E
:101290002A002D0030003300010100000401070185
:1012A0000A0100002200250028002B002E0031003A
:1012B000340002010000050108010B0100002000BC
:1012C0002300260029002C002F003200000100001E
:1012D00003010601090105050505070508080808B9
:1012E000020202020A0A08080404040401010101BE
:1012F00001010101030303030303030304070707B9
:101300000C0C0C0C0C0C0C0C02020202060606065D
:10131000060606060B0B0B0B0B0B0B0B010210202A
:10132000200808102040102040800201020108041B
:1013300002010102040810204080804020100804AF
:101340000201800402018040201008040201080408
:10135000020101020408102040800102040810204C
:1013600040800000090A02080B0C0D070603040167
:10137000000000000000000000000000000000006D
:101380000000000000000000000000000000100F3E
:101390000E0000000000000000000000000000003F
:1013A0000000000000000000494E46494E495459D3
:1013B0004E414ECDCCCC3D0AD7233C17B7D1387720
:1013C000CC2B329595E6241FB14F0A000020410036
:1013D00000C84200401C4620BCBE4CCA1B0E5AAE80
:1013E000C59D7400AD3A3285E18F5DC60CD8A63A32
:1013F000DA8F11241FBECFEFD1E2DEBFCDBF00E0F8
:101400000CBF15E0A0E0B2E0E2E5F2ED01E00BBFB9
:1014100002C007900D92A633B107D9F717E1A6E3F2
:10142000B5E001C01D92AC39B107E1F713E1CEEE92
:10143000D3E104C02297FE010E94C4E2C43ED1075A
:10144000C9F70E9487DA0C941CE90C94000028303C
:1014500008F027E03327DA01990F311D87FD9160ED
:1014600000966105710539F432602E5F3D9330E3DB
:101470002A95E1F708959F3F30F0803871056105A6
:1014800009F03C5F3C5F3D93913008F08068911D0E
:10149000DF93CF931F930F93FF92EF92192F987FB3
:1014A0009695E92F96959695E90FFF27E851FE4E00
:1014B00099273327EE24FF24A701E701059008941C
:1014C000079428F4360FE71EF81E491F511D660FBA
:1014D000771F881F991F0694A1F70590079428F499
:1014E000E70EF81E491F561FC11D770F881F991F51
:1014F000661F0694A1F70590079428F4F80E491F7B
:10150000561FC71FD11D880F991F661F771F06948E
:10151000A1F70590079420F4490F561FC71FD81F45
:10152000990F661F771F881F0694A9F7849110955D
:10153000177041F0D695C79557954795F794E7945E
:101540001A95C1F7EEE8F1E168941590159135917F
:101550006591959105907FE27395E118F10A430B2F
:10156000560BC90BD009C0F7E10CF11E431F561FE3
:10157000C91FD01D7EF4703311F48A95E6CFE8942C
:10158000015030F0080F0AF40027021708F4202F4A
:101590002395022F7A3328F079E37D932A95E9F792
:1015A00010C07D932A9589F606949795679537958F
:1015B00017951794E118F10A430B560BC90BD00984
:1015C00098F023957E9173957A3308F070E37C93BD
:1015D0002013B8F77E9170617D9330F0839571E3AD
:1015E0007D9370E32A95E1F71124EF90FF900F911E
:1015F0001F91CF91DF91992787FD90950895FA016A
:10160000AA27283051F1203181F1E8946F936E7F41
:101610006E5F7F4F8F4F9F4FAF4FB1E03ED0B4E032
:101620003CD0670F781F891F9A1FA11D680F791F73
:101630008A1F911DA11D6A0F711D811D911DA11D84
:1016400020D009F468943F912AE0269F1124301994
:10165000305D3193DEF6CF010895462F4770405D2F
:101660004193B3E00FD0C9F7F6CF462F4F70405DDE
:101670004A3318F0495D31FD4052419302D0A9F739
:10168000EACFB4E0A6959795879577956795BA9533
:10169000C9F700976105710508959B01AC010A2EF9
:1016A00006945795479537952795BA95C9F7620FD0
:1016B000731F841F951FA01D0895CF93DF93FC0116
:1016C000EB014230510570F0638574858585968500
:1016D00020E030E040E854E40E9455E10E949DDFA4
:1016E0007983688382E090E0DF91CF910895CF9372
:1016F000DF93EC01FB014230510518F420E030E0AB
:1017000012C06081718180E090E00E94C9DF20E01A
:1017100030E040E85AE30E9455E16B877C878D8773
:101720009E8722E030E0C901DF91CF910895DC016E
:10173000FB0183818C93828111968C931197818117
:1017400012968C931297808113968C930895DC01E6
:10175000FB0187818C93868111968C9311978581EB
:1017600012968C931297848113968C93139783818E
:1017700014968C931497828115968C93159781817A
:1017800016968C931697808117968C9308951F92C6
:101790000F920FB60F920BB60F9211242F933F9317
:1017A0004F938F939F93EF93FF934091C6002091A7
:1017B0009B1530919C152F5F3F4F80919F15909105
:1017C000A0152823392380919D1590919E152817E7
:1017D000390779F080919B1590919C15E091A115A6
:1017E000F091A215E80FF91F408330939C152093C8
:1017F0009B15FF91EF919F918F914F913F912F9169
:101800000F900BBE0F900FBE0F901F9018951F9258
:101810000F920FB60F920BB60F9211242F933F9396
:101820008F939F93EF93FF932091BD153091BE1539
:101830008091BB159091BC1528173907E9F080916C
:10184000BD159091BE15E091C115F091C215E80F3C
:10185000F91F80818093C6008091BD159091BE15BF
:1018600001962091BF153091C01582239323909348
:10187000BE158093BD1510C02091BB153091BC15CD
:101880008091BD159091BE152817390729F48091D4
:10189000C1008F7D8093C100FF91EF919F918F9147
:1018A0003F912F910F900BBE0F900FBE0F901F9086
:1018B00018951F920F920FB60F920BB60F9211242C
:1018C0002F933F934F938F939F93EF93FF93409169
:1018D000CE002091A3153091A4152F5F3F4F80912A
:1018E000A7159091A815282339238091A5159091CB
:1018F000A6152817390779F08091A3159091A415A2
:10190000E091A915F091AA15E80FF91F40833093D3
:10191000A4152093A315FF91EF919F918F914F9163
:101920003F912F910F900BBE0F900FBE0F901F9005
:1019300018951F920F920FB60F920BB60F921124AB
:101940002F933F938F939F93EF93FF932091C51510
:101950003091C6158091C3159091C4152817390789
:10196000E9F08091C5159091C615E091C915F091E7
:10197000CA15E80FF91F80818093CE008091C515AC
:101980009091C61501962091C7153091C8158223F4
:1019900093239093C6158093C51510C02091C3154D
:1019A0003091C4158091C5159091C6152817390737
:1019B00029F48091C9008F7D8093C900FF91EF9138
:1019C0009F918F913F912F910F900BBE0F900FBE63
:1019D0000F901F9018951F920F920FB60F920BB693
:1019E0000F9211242F933F934F938F939F93EF93D5
:1019F000FF93409136012091B3153091B4152F5FBC
:101A00003F4F8091B7159091B815282339238091C5
:101A1000B5159091B6152817390779F08091B3154F
:101A20009091B415E091B915F091BA15E80FF91F2E
:101A300040833093B4152093B315FF91EF919F919C
:101A40008F914F913F912F910F900BBE0F900FBE32
:101A50000F901F9018951F920F920FB60F920BB612
:101A60000F9211242F933F938F939F93EF93FF93A4
:101A70002091D5153091D6158091D3159091D4151C
:101A800028173907E9F08091D5159091D615E09186
:101A9000D915F091DA15E80FF91F8081809336018E
:101AA0008091D5159091D61501962091D71530913A
:101AB000D815822393239093D6158093D51510C003
:101AC0002091D3153091D4158091D5159091D615CC
:101AD0002817390729F4809131018F7D80933101D6
:101AE000FF91EF919F918F913F912F910F900BBE9E
:101AF0000F900FBE0F901F901895FC0171836083AB
:101B000085E06633780739F47093DD156093DC1552
:101B10001386128608C07093DF156093DE1581E08E
:101B200090E0938782871382128208952091D30CCC
:101B30003091D40CC9018F5C94408238910510F427
:101B400081E00895C901815595408238910510F4CE
:101B500082E00895C901835D95408238910510F4B3
:101B600083E00895C901855596408138910510F4A8
:101B700084E00895265D364014F480E0089585E001
:101B80000895A4E0B0E0E7ECFDE00C948BE26091F6
:101B90009E1370919F138091A0139091A1130E94A6
:101BA000CBDF3B014C018091B5129091B612A09110
:101BB000B712B091B81289839A83AB83BC836091CA
:101BC0009A1370919B1380919C1390919D130E9486
:101BD000CBDF1B012C01A0907E03B0907F03C0904F
:101BE0008003D0908103C401B30129813A814B81E4
:101BF0005C810E9455E17B018C01C201B101A6010B
:101C000095010E9455E19B01AC01C801B7010E94FA
:101C10004BDE0E9498DF6093A2137093A31380930E
:101C2000A4139093A513C401B301A60195010E94CA
:101C300055E17B018C01C201B10129813A814B81BF
:101C40005C810E9455E19B01AC01C801B7010E9473
:101C50004CDE0E9498DF90958095709561957F4F3E
:101C60008F4F9F4F6093A6137093A7138093A81371
:101C70009093A9132496E2E10C94A7E2FC01DB0106
:101C8000452B11F083858C9381E090E00895DC0171
:101C9000FB01452B19F080811B968C9381E090E02D
:101CA0000895FC016385772767FD7095872F972F2F
:101CB0000E94CBDF0895FC01DB014230510520F08A
:101CC000838594858D939C9382E090E00895DC0158
:101CD000FB014230510530F0808191811C969C932C
:101CE0008E931B9782E090E00895FC0163857485D4
:101CF000882777FD8095982F0E94CBDF0895FC01FF
:101D00002385348545855685B901CA010895CF9349
:101D1000DF93FC01EB014430510540F0838594854D
:101D2000A585B68588839983AA83BB8384E090E0E8
:101D3000DF91CF910895CF93DF93EC01FB01443005
:101D4000510540F080819181A281B3818B879C876E
:101D5000AD87BE8784E090E0DF91CF91089500D0F9
:101D60000F9286E395E0EDB7FEB79283818386E913
:101D700095E0948383830E9454CA0F900F900F9034
:101D80000F900895EF92FF920F931F937C018DB7F0
:101D90009EB748970FB6F8949EBF0FBE8DBF0DB784
:101DA0001EB70F5F1F4F86E395E0EDB7FEB7928336
:101DB000818386EF95E0F8019383828364831582A3
:101DC000F7018081F80186831782F7018181F8018C
:101DD00080871186F7018281F80182871386F701D7
:101DE00083819481A581B681F80184879587A68730
:101DF000B787F70167817085818592850E94CBDF67
:101E000020E836E948E15BE40E9430DFF801608BAE
:101E1000718B828B938BF70163857485858596859D
:101E20000E94CBDF20E836E948E15BE40E9430DF26
:101E3000F801648B758B868B978B0E9454CA8DB783
:101E40009EB748960FB6F8949EBF0FBE8DBF1F91E8
:101E50000F91FF90EF90089500D00F9286E395E0E8
:101E6000EDB7FEB79283818389E596E094838383FF
:101E70000E9454CA0F900F900F900F9080E0089529
:101E80008DB79EB740970FB6F8949EBF0FBE8DBF1B
:101E9000EDB7FEB7319686E395E0ADB7BEB71296C3
:101EA0009C938E9311978DE896E093838283809123
:101EB000140790911507A0911607B0911707848316
:101EC0009583A683B7838091180790911907A091F5
:101ED0001A07B0911B0780879187A287B3878091EB
:101EE0001C0790911D07A0911E07B0911F078487C2
:101EF0009587A687B7870E9454CA8DB79EB740962C
:101F00000FB6F8949EBF0FBE8DBF08958DB79EB7D4
:101F100040970FB6F8949EBF0FBE8DBFEDB7FEB7CA
:101F2000319686E395E0ADB7BEB712969C938E933B
:101F3000119789EA96E0938382838091200790919C
:101F40002107A0912207B091230784839583A6835C
:101F5000B7838091240790912507A0912607B0911F
:101F6000270780879187A287B38780912807909160
:101F70002907A0912A07B0912B0784879587A68708
:101F8000B7870E9454CA8DB79EB740960FB6F89493
:101F90009EBF0FBE8DBF089500D00F9286E395E0DF
:101FA000EDB7FEB79283818388E497E094838383BF
:101FB0000E9454CA0F900F900F900F9080E00895E8
:101FC0000F931F938DB79EB708970FB6F8949EBFD7
:101FD0000FBE8DBFEDB7FEB7319606E315E0ADB786
:101FE000BEB712961C930E93119789E498E09383E1
:101FF000828380916C0B90916D0B9583848380918B
:10200000860B9091870B978386830E9454CAEDB705
:10201000FEB73196ADB7BEB712961C930E931197CB
:102020008BE398E0938382838091CB0B9091CC0BD0
:10203000958384838091E50B9091E60B978386834B
:102040000E9454CAEDB7FEB73196ADB7BEB712962F
:102050001C930E9311978DE298E093838283809175
:102060002A0C90912B0C958384838091440C909141
:10207000450C978386830E9454CAEDB7FEB731960C
:10208000ADB7BEB712961C930E9311978FE198E0EF
:10209000938382838091890C90918A0C95838483A9
:1020A0008091A30C9091A40C978386830E9454CABC
:1020B000EDB7FEB73196ADB7BEB712961C930E932F
:1020C000119781E198E0938382838091E80C90914D
:1020D000E90C958384838091020D9091030D978381
:1020E00086830E9454CAEDB7FEB73196ADB7BEB72E
:1020F00012961C930E93119783E098E0938382834A
:102100008091470D9091480D958384838091610D56
:102110009091620D978386830E9454CAEDB7FEB7F3
:102120003196ADB7BEB712961C930E93119785EFFB
:1021300097E0938382838091A60D9091A70D95835C
:1021400084838091C00D9091C10D978386830E94F6
:1021500054CA8DB79EB708960FB6F8949EBF0FBEAF
:102160008DBF1F910F91089526E335E0882349F034
:1021700000D00F92EDB7FEB73283218381EB98E058
:1021800008C000D00F92EDB7FEB7328321838DEAED
:1021900098E0948383830E9454CA86E395E0EDB768
:1021A000FEB79283818386EA98E0948383830E94BA
:1021B00054CA0F900F900F900F90089500D00F9277
:1021C00086E395E0EDB7FEB7928381838BEA99E0D1
:1021D000948383830E9454CA0F900F900F900F90A6
:1021E000089500D00F9286E395E0EDB7FEB7928395
:1021F00081838CE89BE0948383830E9454CA0F9070
:102200000F900F900F900895A0E0B0E0EAE0F1E1A8
:102210000C9493E222E7A22E25E0B22E9CE6C92E72
:1022200095E0D92E00E010E086E3E82E85E0F82E58
:1022300000D000D0EDB7FEB73196ADB7BEB712965D
:10224000FC92EE921197B382A282158304830E94BE
:1022500054CAC0E0D0E08DB79EB706960FB6F8948A
:102260009EBF0FBE8DBFCE01800F911F0E9434E72D
:1022700000D000D0EDB7FEB73196ADB7BEB712961D
:10228000FC92EE921197D382C282848315820E94BF
:1022900054CA21968DB79EB706960FB6F8949EBF86
:1022A0000FBE8DBFC031D105F1F6C7010E9493DB8F
:1022B000005F1F4F90E10030190709F0B9CF80E0AF
:1022C000CDB7DEB7EAE00C94AFE20F931F93CF9344
:1022D000DF938091AA098823B9F400D00F9286E396
:1022E00095E0ADB7BEB712969C938E93119786E892
:1022F00095E014969C938E9313970E9454CA0F9066
:102300000F900F900F902FC00E94AF0E08E715E0BE
:10231000C6E3D5E064E670E080E090E00E94E8DC8F
:1023200088E399E00E94FFC500D000D0EDB7FEB76A
:102330003196ADB7BEB71296DC93CE931197138347
:102340000283958384830E9454CAEDB7FEB7369604
:102350000FB6F894FEBF0FBEEDBFCE010E94DFCADC
:1023600018161906BCF680E0DF91CF911F910F91EE
:102370000895EF92FF920F931F93CF93DF93809175
:10238000B8059091B9059093871280938612C0E0AA
:10239000D0E064E170E080E090E00E94E8DC8CEA4C
:1023A00095E00E94F9822196CC33D10591F7C0E0E7
:1023B000D0E064E170E080E090E00E94E8DC8CEA2C
:1023C00095E00E94F982E090BA05F090BB0500917B
:1023D000BC051091BD05E0928812F092891200931D
:1023E0008A1210938B122091861230918712C901A4
:1023F00043E0880F991F4A95E1F7820F931F2091C0
:10240000B8053091B905820F931F6AE070E00E9411
:102410003BE270938712609386122196C431D105F6
:1024200041F6E0928C12F0928D1200938E1210936E
:102430008F12CDB7DEB7E6E00C94B3E2AF92BF9255
:10244000CF92DF92EF92FF920F931F938CEA95E069
:102450000E94F982E090BA05F090BB050091BC059E
:102460001091BD05E0928C12F0928D1200938E12A5
:1024700010938F12609188127091891280918A1244
:1024800090918B120E94CBDF5B016C01C801B701F8
:102490000E94CBDF9B01AC01C601B5010E9430DF79
:1024A0000E9415E17B018C01609186127091871268
:1024B000882777FD8095982F0E94CBDF20E030E0C1
:1024C00040E251E40E9430DF23E333E948E853E47B
:1024D0000E944CDE9B01AC01C801B7010E9455E18E
:1024E00029E83EEA44EE56E40E9455E120E030E05F
:1024F00040E251E40E9430DF0E9498DF9B01AC0172
:10250000CA011F910F91FF90EF90DF90CF90BF9085
:10251000AF900895A0E0B0E0E0E9F2E10C9491E220
:102520000E94AF0E0E94B911BBEA8B2EB5E09B2E24
:10253000C6E3D5E064E670E080E090E00E94E8DC6D
:102540008CEA95E00E94F98264E670E080E090E019
:102550000E94E8DC0E941E1270937F1260937E122C
:10256000A090AC05B090AD05C090AE05D090AF0581
:10257000E090B005F090B1050091B2051091B3055F
:10258000EA18FB080C091D09EE0CFF1C001F111FA7
:1025900097014091801250918112241B350BA901A3
:1025A000F3E0440F551FFA95E1F7220F331F420F56
:1025B000531F5093831240938212F0928112E09243
:1025C00080122DB73EB7225130400FB6F8943EBF6F
:1025D0000FBE2DBFEDB7FEB73196ADB7BEB71296A1
:1025E000DC93CE931197938282827583648380916A
:1025F000841290918512978386838091B40590917F
:10260000B505A091B605B091B70580879187A287DF
:10261000B387A486B586C686D786F18AE08A0E94EB
:1026200054CA2DB73EB72E5E3F4F0FB6F8943EBF4B
:102630000FBE2DBFCE010E94DFCA181619060CF07E
:1026400079CF80E0CDB7DEB7ECE00C94ADE2A0E04E
:10265000B0E0EDE2F3E10C9492E2EC018091110A1A
:10266000992787FD90956817790714F0188277C02D
:10267000CB0114E0880F991F1A95E1F7861B970B81
:1026800080509C4F5C01CC24B7FCC094DC2C0E9491
:1026900034E78883860175010894E11CF11C011D53
:1026A000111DC7010E9434E7982E89830894E11C0C
:1026B000F11C011D111DC7010E9434E78A83089493
:1026C000E11CF11C011D111DC7010E943CE76B8339
:1026D0007C838D839E8387E090E0A0E0B0E0A80E2D
:1026E000B91ECA1EDB1EC5010E943CE77B018C019E
:1026F000EF82F88609871A8784E090E0A0E0B0E0D6
:10270000A80EB91ECA1EDB1EC5010E943CE79B0134
:10271000AC012B873C874D875E8794FE20C080915B
:10272000971290919812A0919912B0919A12E80E76
:10273000F91E0A1F1B1FEF82F88609871A878091EE
:102740009B1290919C12A0919D12B0919E12280F05
:10275000391F4A1F5B1F2B873C874D875E87CE0141
:10276000CDB7DEB7EBE00C94AEE2AFE0B0E0EBEB60
:10277000F3E10C9497E268EE73E080E090E00E9451
:10278000E8DC00D00F9206E315E0ADB7BEB71296B5
:102790001C930E9311978CEE95E014969C938E9358
:1027A00013970E9454CA20919D0930919E090F9061
:1027B0000F900F900F9037FF11C000D00F92EDB720
:1027C000FEB7128301838AEE95E0948383830E948F
:1027D00054CA0F900F900F900F9020C000D000D0DF
:1027E000EDB7FEB73196ADB7BEB712961C930E93F8
:1027F000119782EE95E093838283C90164E670E0CD
:102800000E943BE2758364830E9454CAEDB7FEB711
:1028100036960FB6F894FEBF0FBEEDBF00D000D0C5
:10282000EDB7FEB7319606E315E0ADB7BEB7129629
:102830001C930E9311978BED95E093838283809187
:10284000110A992787FD9095958384830E9454CA25
:10285000EDB7FEB73196ADB7BEB712961C930E9387
:1028600011978EEC95E0938382838091350A9927A6
:1028700087FD9095958384830E9454CA00E0EDB74C
:10288000FEB736960FB6F894FEBF0FBEEDBF7E01C1
:102890000894E11CF11C08C0C7010E942713C7015E
:1028A000602F0E94C20E0F5F602F70E08091110AAE
:1028B000992787FD90956817790774F380E02F9624
:1028C000E6E00C94B3E20F931F9309EA14E1409100
:1028D0002A0C50912B0CC80160E00E948F8440911B
:1028E0002A0C50912B0CC80161E00E948F8440910A
:1028F0002A0C50912B0CC80162E00E948F844091F9
:102900002A0C50912B0CC80163E00E948F844091E7
:102910002A0C50912B0CC80166E00E948F844091D4
:102920002A0C50912B0CC80167E00E948F841F91E4
:102930000F91089589EA94E10E940B85813009F096
:1029400060C08093A71289EA94E160E00E94DE846F
:10295000BC018CE49BE00E94D0D589EA94E161E05F
:102960000E94DE84BC018BEA9BE00E94D0D589EAFC
:1029700094E162E00E94DE84BC018AE09CE00E9457
:10298000D0D589EA94E163E00E94DE84BC0189E647
:102990009CE00E94D0D589EA94E164E00E94DE8444
:1029A000BC0188EC9CE00E94D0D589EA94E165E006
:1029B0000E94DE84BC0187E29DE00E94D0D589EAB6
:1029C00094E166E00E94DE84BC0186E89DE00E94FE
:1029D000D0D589EA94E167E00E94DE84BC0185EEEF
:1029E0009DE00E94D0D58091170C9091180C23E0A7
:1029F0008132920714F080E293E09093180C809358
:102A0000170C08950F931F93CF93DF930E94AF0E7F
:102A100068EE73E080E090E00E94E8DC0EEE16E0E5
:102A2000C6E3D5E064E170E080E090E00E94E8DC7D
:102A30000E949A148DB79EB742970FB6F8949EBF26
:102A40000FBE8DBFEDB7FEB73196ADB7BEB71296CC
:102A5000DC93CE931197138302838091590B90914D
:102A60005A0B958384838091B80B9091B90B97830F
:102A700086838091170C9091180C918780878091A4
:102A8000760C9091770C938782878091D50C9091EA
:102A9000D60C958784878091340D9091350D97875A
:102AA00086878091930D9091940D918B808B0E94DD
:102AB00054CA8DB79EB742960FB6F8949EBF0FBE0C
:102AC0008DBFCE010E94DFCA181619060CF0AACFDE
:102AD00080E0DF91CF911F910F910895EF92FF92C7
:102AE0000F931F9380E00E9438DCAA2797FDA095E2
:102AF000BA2FBC01CD010E94CBDF7B018C0160911C
:102B0000E7097091E8098091E9099091EA0920E0CC
:102B100030E040E85AE30E9455E19B01AC01C80156
:102B2000B7010E9455E12AE037ED43E650E40E94E8
:102B300055E12DEC3CEC4CEC5DE30E9455E17B0152
:102B40008C01609166037091670380916803909196
:102B5000690326E636E646E65FE30E9455E19B01FF
:102B6000AC01C801B7010E944CDE6093660370930C
:102B70006703809368039093690381E00E9438DCC7
:102B8000AA2797FDA095BA2FBC01CD010E94CBDFEB
:102B90007B018C016091E7097091E8098091E90956
:102BA0009091EA0920E030E040E85AE30E9455E1C4
:102BB0009B01AC01C801B7010E9455E12AE037ED45
:102BC00043E650E40E9455E12DEC3CEC4CEC5DE317
:102BD0000E9455E17B018C0160916A0370916B0347
:102BE00080916C0390916D0326E636E646E65FE33E
:102BF0000E9455E19B01AC01C801B7010E944CDE67
:102C000060936A0370936B0380936C0390936D03DE
:102C100082E00E9438DCAA2797FDA095BA2FBC015C
:102C2000CD010E94CBDF7B018C016091E70970919F
:102C3000E8098091E9099091EA0920E030E040E854
:102C40005AE30E9455E19B01AC01C801B7010E9403
:102C500055E12AE037ED43E650E40E9455E12DECC2
:102C60003CEC4CEC5DE30E9455E17B018C016091F2
:102C70006E0370916F03809170039091710326E64B
:102C800036E646E65FE30E9455E19B01AC01C801D0
:102C9000B7010E944CDE60936E0370936F038093C4
:102CA00070039093710383E00E9438DCAA2797FD9C
:102CB000A095BA2FBC01CD010E94CBDF7B018C0116
:102CC0006091E7097091E8098091E9099091EA091A
:102CD00020E030E040E85AE30E9455E19B01AC015E
:102CE000C801B7010E9455E12AE037ED43E650E400
:102CF0000E9455E12DEC3CEC4CEC5DE30E9455E16B
:102D00007B018C0160917203709173038091740355
:102D10009091750326E636E646E65FE30E9455E1AC
:102D20009B01AC01C801B7010E944CDE7B018C0104
:102D3000CB01D8018093720390937303A093740323
:102D4000B09375032091B609213049F480916E0348
:102D500090916F03A0917003B091710304C0223071
:102D600059F4C701D8018093620390936303A09341
:102D70006403B09365037DC0233019F0243009F05B
:102D800078C08091660390916703A0916803B09129
:102D900069038093620390936303A0936403B093E9
:102DA0006503243009F065C081E00E9438DCAA2761
:102DB00097FDA095BA2FBC01CD010E94CBDF7B010E
:102DC0008C016091E7097091E8098091E90990917F
:102DD000EA0920E030E040E85AE30E9455E19B0117
:102DE000AC01C801B7010E9455E12CE53FE84AED6E
:102DF00051E40E9455E12DEC3CEC4CEC5DE30E946B
:102E000055E17B018C0160919F127091A01280911D
:102E1000A1129091A21226E636E646E65FE30E94F2
:102E200055E19B01AC01C801B7010E944CDE6093E3
:102E30009F127093A0128093A1129093A21223ED7F
:102E40003CEB43EE5CE30E9455E19B01AC016091D9
:102E5000A3127091A4128091A5129091A6120E94C3
:102E60004CDE6093A3127093A4128093A5129093EA
:102E7000A6121F910F91FF90EF9008950F931F934B
:102E8000CF93DF930E94AF0E0CE216E0C6E3D5E0CD
:102E900064E670E080E090E00E94E8DC0E949A1412
:102EA0000E946E158DB79EB740970FB6F8949EBFDF
:102EB0000FBE8DBFEDB7FEB73196ADB7BEB7129658
:102EC000DC93CE93119713830283809162039091D8
:102ED0006303A0916403B091650384839583A68303
:102EE000B78380919F129091A012A091A112B091EE
:102EF000A21280879187A287B3878091A3129091B5
:102F0000A412A091A512B091A61284879587A687D6
:102F1000B7870E9454CA8DB79EB740960FB6F894F3
:102F20009EBF0FBE8DBF4091150C5091160C89EAC3
:102F300094E160E00E948F844091150C5091160C32
:102F400089EA94E161E00E948F844091150C5091D0
:102F5000160C89EA94E162E00E948F844091150C7E
:102F60005091160C89EA94E163E00E948F84CE01AF
:102F70000E94DFCA181619060CF08ACF80E0DF9194
:102F8000CF911F910F9108956091340D7091350D7F
:102F9000882777FD8095982F0E94CBDF20E030E0D6
:102FA0004AE754E40E9430DF60934E0970934F0962
:102FB00080935009909351098091300B992787FD98
:102FC0009095A92FB92FFC013197EE30F10508F04B
:102FD0008BC1EE58FF4F0C94C2E287E29DE060E0A7
:102FE00070E040E45FE10E9452D480914E099091DC
:102FF0004F09A0915009B09151098093E40F90932B
:10300000E50FA093E60FB093E70F80931E10909307
:103010001F10A0932010B0932110089587E29DE027
:1030200060E070E04CE251E00E9452D46091340DB7
:103030007091350D882777FD8095982F0E94CBDF02
:1030400020E030E04AE754E40E9430DFDC019B01DD
:10305000AC0120934E0930934F094093500950938F
:1030600051092093F30F3093F40F4093F50F5093D1
:10307000F60FCB0180932D1090932E10A0932F105C
:10308000B0933010089587E29DE060E070E04CE27C
:1030900051E00E9452D480914E0990914F09A09125
:1030A0005009B09151098093360F9093370FA09338
:1030B000380FB093390F8093700F9093710FA093D6
:1030C000720FB093730F089587E29DE060E070E0A7
:1030D0004CE251E00E9452D480914E0990914F09E8
:1030E000A0915009B09151098093450F9093460FDC
:1030F000A093470FB093480F80937F0F9093800F5A
:10310000A093810FB093820F089587E29DE060E065
:1031100070E048EE53E00E9452D480914E099091A5
:103120004F09A0915009B091510980935810909384
:103130005910A0935A10B0935B10089587E29DE058
:1031400060E070E048EE53E00E9452D480914E0956
:1031500090914F09A0915009B09151098093AA0F05
:103160009093AB0FA093AC0FB093AD0F089587E28F
:103170009DE060E070E048EE53E00E9452D4809100
:103180004E0990914F09A0915009B0915109809337
:10319000B4119093B511A093B611B093B7110895DF
:1031A00087E29DE060E273E048EE53E00E9452D473
:1031B00080914E0990914F09A0915009B091510909
:1031C0008093480B9093490BA0934A0BB0934B0B01
:1031D000089587E29DE060E070E048EE53E00E94D1
:1031E00052D48091340D9091350D8E50924024F040
:1031F00082E599E00E9443C68091340D9091350D8F
:103200008B5D91400CF070C082E599E00E9449C648
:10321000089587E29DE060E070E048EE53E00E9490
:1032200052D48091340D9091350D90934F0A809334
:103230004E0A089587E29DE060E070E048EE53E0BA
:103240000E9452D480914E0990914F09A09150094B
:10325000B09151098093921090939310A093941081
:10326000B09395108093CC109093CD10A093CE1076
:10327000B093CF10089587E29DE060E070E040E7F2
:1032800057E10E9452D480914E0990914F09A0912C
:103290005009B09151098093061190930711A093A2
:1032A0000811B09309118093401190934111A0939C
:1032B0004211B0934311089587E29DE060E070E011
:1032C00048EE53E00E9452D480914E0990914F09EC
:1032D000A0915009B091510980937A1190937B117C
:1032E000A0937C11B0937D1108950F931F93CF93FA
:1032F000DF930E94AF0E0CE416E0C6E3D5E068EC65
:1033000070E080E090E00E94E8DC0E949A140E9445
:10331000C4178DB79EB708970FB6F8949EBF0FBE1F
:103320008DBFEDB7FEB73196ADB7BEB71296DC9341
:10333000CE9311971383028380914E0990914F0988
:10334000A0915009B091510984839583A683B783D6
:103350000E9454CA8DB79EB708960FB6F8949EBFC8
:103360000FBE8DBFCE010E94DFCA181619063CF6AB
:1033700080E0DF91CF911F910F9108950F931F93DC
:10338000CF93DF93062F142F00D000D0EDB7FEB7F8
:103390003196C6E3D5E0ADB7BEB71296DC93CE93B7
:1033A00011972EED38E033832283848315820E94A7
:1033B00054CAEDB7FEB736960FB6F894FEBF0FBEEF
:1033C000EDBFE02FF0E0EE0FFF1FE653FC4F6081F2
:1033D0007181CE010E94C3DA00D00F92ADB7BEB7A3
:1033E0001296DC93CE93119782ED98E014969C93FD
:1033F0008E9313970E9454CA0F900F900F900F90C6
:10340000112359F000D00F92EDB7FEB7D283C183DC
:103410008EEC98E0948383830EC000D00F92ADB7FA
:10342000BEB71296DC93CE93119789EC98E0149670
:103430009C938E9313970E9454CA0F900F900F90F5
:103440000F90DF91CF911F910F910895CF93DF934C
:10345000C0E0D0E086E395E060E072E00E94C3DA6D
:103460002196C832D105B1F786E395E062E072E0BB
:103470000E94AADBDF91CF910895CF93DF93EC01F7
:1034800007C0219786E395E062E072E00E94AADB24
:103490001C161D06B4F3DF91CF91089500D00F9252
:1034A00086E395E0EDB7FEB79283818388E896E0E6
:1034B000948383830E9454CA0F900F900F900F90B3
:1034C0000E94261A0E94400F0E94860F82E090E020
:1034D0000E943D1A089500D000D0EDB7FEB7319696
:1034E00086E395E0ADB7BEB712969C938E93119785
:1034F00082EE97E09383828380915E0990915F09C9
:10350000958384830E9454CA8DB79EB706960FB6E2
:10351000F8949EBF0FBE8DBF0E94261A82E090E0F5
:103520000E943D1A089500D00F9286E395E0EDB712
:10353000FEB7928381838EEE97E0948383830E940B
:1035400054CA0F900F900F900F900E94261A0E945D
:10355000E00F82E090E00E943D1A0895CF93DF9340
:1035600000D00F92C6E3D5E0EDB7FEB7D283C1839A
:1035700089E798E0948383830E9454CA0F900F9048
:103580000F900F900E94261A00D00F92EDB7FEB751
:10359000D283C1838FE698E0948383830E9454CAC8
:1035A00080913C0B0F900F900F900F90813049F459
:1035B00000D00F92EDB7FEB7D283C18387E698E0C3
:1035C00015C0882349F400D00F92EDB7FEB7D2831F
:1035D000C1838FE598E00AC0823081F400D00F9259
:1035E000EDB7FEB7D283C18387E598E094838383E8
:1035F0000E9454CA0F900F900F900F9082E090E0BD
:103600000E943D1ADF91CF91089500D00F9286E37A
:1036100095E0EDB7FEB7928381838AE998E09483C1
:1036200083830E9454CA0F900F900F900F900E94B6
:10363000261A8091B609882311F40E94B410809153
:10364000B609813091F400D00F9286E395E0EDB792
:10365000FEB79283818387E998E0948383830E94F5
:1036600054CA0F900F900F900F908091B60982303E
:1036700091F400D00F9286E395E0EDB7FEB7928308
:10368000818384E998E0948383830E9454CA0F90D5
:103690000F900F900F908091B609833091F400D075
:1036A0000F9286E395E0EDB7FEB7928381838EE8B3
:1036B00098E0948383830E9454CA0F900F900F90D8
:1036C0000F908091B609843091F400D00F9286E378
:1036D00095E0EDB7FEB79283818380E898E094830C
:1036E00083830E9454CA0F900F900F900F9082E036
:1036F00090E00E943D1A08950F931F93CF93DF939C
:1037000000D00F9286E395E0EDB7FEB792838183F8
:103710008BEB98E0948383830E9454CA0F900F90A0
:103720000F900F900E94261A06EB1AE0C0E0D0E03E
:103730004091FE0A552747FD50950C2E02C0559525
:1037400047950A94E2F7417050708C2FF801608120
:103750000E94BE192196045F1F4FC630D10541F764
:1037600082E090E00E943D1ADF91CF911F910F916E
:103770000895CF93DF9300D00F92C6E3D5E0ADB7A5
:10378000BEB71296DC93CE93119782E299E014961D
:103790009C938E9313970E9454CA0F900F900F9092
:1037A0000F900E94261A2091300B222321F480E0F2
:1037B0000E94B4101FC000D000D0EDB7FEB7319604
:1037C000ADB7BEB71296DC93CE9311978DE199E019
:1037D00093838283822F992787FD90959583848395
:1037E0000E9454CAEDB7FEB736960FB6F894FEBFE6
:1037F0000FBEEDBF82E090E00E943D1ADF91CF91B5
:10380000089500D00F9286E395E0EDB7FEB792835E
:1038100081838DE590E1948383830E9454CA0F9045
:103820000F900F900F900E94261A80917A140E9498
:10383000B41082E090E00E943D1A0895ACE0B0E040
:10384000E4E2FCE10C949BE28CE297E00E94ACB5D0
:10385000DE011196E1EBF7E08CE001900D928150D2
:10386000E1F7AFE4B2E1FE0131968CE001900D92F8
:103870008150E1F72C96E2E00C94B7E2A0E3B0E0CF
:10388000E4E4FCE10C948BE2DE011196EDE5F7E057
:1038900084E201900D928150E1F729803A804B80BB
:1038A0005C806D847E848F849888A98CBA8CCB8C44
:1038B000DC8C89A19AA1ABA1BCA189A79AA7ABA7CF
:1038C000BCA78D8D9E8DAF8DB8A18DA39EA3AFA3F8
:1038D000B8A7C201B101A20191010E9455E17B018B
:1038E0008C01C401B301A40193010E9455E19B0125
:1038F000AC01C801B7010E944CDE0E94C2E16DA775
:103900007EA78FA798ABD601C501B0588093AD12A2
:103910009093AE12A093AF12B093B012C601B5014E
:10392000A60195010E9455E19B01AC0160E070E0A9
:1039300080E89FE30E944BDE0E94C2E17B018C0184
:103940006093760370937703809378039093790361
:1039500069A57AA58BA59CA5A80197010E9430DFD7
:1039600060937A0370937B0380937C0390937D0331
:103970006DA17EA18FA198A5A80197010E9430DFBB
:103980006093B1127093B2128093B3129093B412F9
:10399000C401B3012DA53EA54FA558A90E9430DF53
:1039A00060937E0370937F038093800390938103E1
:1039B000C201B1012DA53EA54FA558A90E9430DF37
:1039C0006093B5127093B6128093B7129093B812A9
:1039D000E096E2E10C94A7E2A4E2B0E0E2EFFCE1C1
:1039E0000C9493E20E944E1A8CED96E068EE7CED0A
:1039F0000E94A3C50E944E1A0E94AF0E68EE73E0AB
:103A000080E090E00E94E8DC0E94B4DC6093A812A1
:103A10007093A9128093AA129093AB1296E6A92EE6
:103A200096E0B92E86E3C82E85E0D82E7E01089454
:103A3000E11CF11C0E94B4DC2091A8123091A91263
:103A40004091AA125091AB12621B730B840B950B21
:103A5000643171058105910508F4B9C00E941E1CEE
:103A60008091AC128F5F8093AC12843011F40E946D
:103A70003E1C8091AC12813009F0A9C01092AC12AA
:103A80008DB79EB74C970FB6F8949EBF0FBE8DBFF3
:103A90000DB71EB70F5F1F4FEDB7FEB7D282C182C1
:103AA000F801B382A28280912C0790912D07A091FA
:103AB0002E07B0912F0784839583A683B7838091C7
:103AC000300790913107A0913207B091330780877A
:103AD0009187A287B3878091340790913507A09191
:103AE0003607B091370784879587A687B787609197
:103AF0004F1270915012809151129091521221EEFA
:103B00003EE245E652E40E9455E120E030E048EC18
:103B100052E40E9455E10E9498DFF801608B718B9E
:103B2000828B938B60915312709154128091551235
:103B30009091561221EE3EE245E652E40E9455E194
:103B400020E030E048EC52E40E9455E10E9498DF0A
:103B5000F801648B758B868B978B609157127091EF
:103B600058128091591290915A1221EE3EE245E688
:103B700052E40E9455E120E030E048EC52E40E941B
:103B800055E10E9498DFF801608F718F828F938FCB
:103B90000E9454CA8DB79EB74C960FB6F8949EBF3C
:103BA0000FBE8DBF8091CF09882389F088EE95E004
:103BB0000E946995D701EDE5F7E084E201900D924E
:103BC0008150E1F788EE95E0B7010E9444A286E3B8
:103BD00095E00E94DFCA181619060CF02BCF80E082
:103BE000A496EAE00C94AFE2AF92BF92CF92DF923C
:103BF000EF92FF920F931F937C018B01FB01678172
:103C0000708581859285F7012781308541855285B0
:103C1000621B730B840B950B0E94CBDF5B016C0165
:103C2000F8016385748585859685F701238534853C
:103C300045855685621B730B840B950B0E94CBDF69
:103C4000209185033091860340918703509188032A
:103C50000E9455E17B018C01C601B501A6019501C9
:103C60000E9455E15B016C01C801B701A8019701F1
:103C70000E9455E19B01AC01C601B5010E944CDEDA
:103C80000E94C2E128EC32E646E35CE30E9455E183
:103C90000E9498DF9B01AC01CA011F910F91FF9018
:103CA000EF90DF90CF90BF90AF900895E0914D12CC
:103CB000F0914E1287A990AD8130910539F00297AD
:103CC000F9F483E261E00E94E6DD089581A588238E
:103CD000D9F090E08091B912882309F491E0909393
:103CE000B912992319F083E260E002C083E261E037
:103CF0000E94E6DDE0914D12F0914E1211A608955A
:103D000083E260E00E94E6DD0895A0E0B0E0EBE829
:103D1000FEE10C9495E20E94AF0E68EE73E080E045
:103D200090E00E94E8DC35ECC32E36E0D32E26E38B
:103D3000E22E25E0F22E6DE471E080E090E00E943A
:103D4000E8DC0E94561E80914D1290914E120E9406
:103D50009DBFC0914D12D0914E128FA1882309F4BE
:103D600045C08DB79EB742970FB6F8949EBF0FBE61
:103D70008DBF0DB71EB70F5F1F4FEDB7FEB7F282B5
:103D8000E182F801D382C2828C859D85AE85BF8594
:103D900084839583A683B78388899989AA89BB89F7
:103DA00080879187A287B3876C897D898E899F8957
:103DB00024E630E040E050E00E9470E2F801248701
:103DC0003587468757878EA1808B118A0E9454CAF7
:103DD000E0914D12F0914E1217A28DB79EB7429608
:103DE0000FB6F8949EBF0FBE8DBF06C086E395E068
:103DF00063E072E00E94C3DA86E395E00E94DFCAC6
:103E0000181619060CF097CF80E0CDB7DEB7E8E0C2
:103E10000C94B1E28BE360E00E94E6DD08958BE351
:103E200061E00E94E6DD08950E940F1F64E670E0E5
:103E300080E090E00E94E8DC0E940A1F089585E27D
:103E400060E00E94E6DD84E260E00E94E6DD83E25D
:103E500060E00E94E6DD10928B1410928D1308959D
:103E60008091A7148F5F8093A7148150833011F441
:103E70001092A7148091A714813059F0813018F066
:103E80008230C1F40FC083E260E00E94E6DD85E28B
:103E900005C085E260E00E94E6DD84E261E00E9408
:103EA000E6DD089584E260E00E94E6DD83E261E001
:103EB0000E94E6DD089580917914813079F484E4DC
:103EC00061E00E94E6DD82E461E00E94E6DD80E4DC
:103ED00061E00E94E6DD8EE361E00EC084E460E014
:103EE0000E94E6DD82E460E00E94E6DD80E460E0BE
:103EF0000E94E6DD8EE360E00E94E6DD089500D0DA
:103F00000F9286E395E0EDB7FEB7928381838DE152
:103F100097E0948383830E9454CA0F900F900F9070
:103F20000F9082E692E10E94CE9180E0089587E7AB
:103F300092E10E94CE9180E00895CF93DF9300D06C
:103F40000F92C6E3D5E0EDB7FEB7D283C18384ED0F
:103F500097E0948383830E9454CA0F900F900F9030
:103F60000F9080916C0B90916D0B8451954064F192
:103F700068EE73E080E090E00E94E8DC00D00F92F1
:103F8000EDB7FEB7D283C18383EB97E0948383833D
:103F90000E9454CA0F900F900F900F9068EE73E03C
:103FA00080E090E00E94E8DC00D00F92EDB7FEB711
:103FB000D283C1838DE997E0948383830E9454CA9E
:103FC0000F900F900F900F9089E692E10E94CE9192
:103FD00080E0DF91CF9108958BE592E10E94CE9130
:103FE00080E008958FE999E00E94858A00D00F92C1
:103FF00086E395E0EDB7FEB79283818384EB98E08A
:10400000948383830E9454CA0F900F900F900F9057
:104010000E94261A8091AA090E94B41082E090E0C2
:104020000E943D1A0895A0E0B0E0E9E1F0E20C94AE
:1040300095E200D00F9256E3E52E55E0F52EADB790
:10404000BEB71296FC92EE92119784E199E0149615
:104050009C938E9313970E9454CA0F900F900F90C9
:104060000F900E94261A8091CF090E94B41048EE4A
:10407000C42E45E0D42EC6010E942E9ACDB7DEB7DD
:1040800028970FB6F894DEBF0FBECDBF0DB71EB791
:104090000F5F1F4FFA82E98224E039E0F801338391
:1040A000228321EE3EE245E652E40E9455E1D8012A
:1040B00014966D937D938D939C9317970E9454CA89
:1040C000CDB7DEB728960FB6F894DEBF0FBECDBFD2
:1040D000C6010E94299A9C01EDB7FEB770970FB6F2
:1040E000F894FEBF0FBEEDBF3196ADB7BEB71296C6
:1040F000FC92EE92119787EE98E093838283E90118
:1041000088819981AA81BB8184839583A683B783A3
:104110008C819D81AE81BF8180879187A287B38783
:1041200088859985AA85BB8584879587A687B78763
:104130000E9454CAEDB7FEB770960FB6F894FEBF52
:104140000FBEEDBF82E090E00E943D1ACDB7DEB712
:10415000E8E00C94B1E2FF920F931F93F82E8B01CD
:1041600088E090E00E943D1A0E946B1A0E94931A08
:104170000E94AE1A0E94051B0E94F21F0E947C1B27
:104180000E944E1A0E9413208F2DB8010E94A39006
:1041900080E01F910F91FF900895FB016089718964
:1041A0008289938925E33AEF4EE85CE30E9455E16A
:1041B000AB01BC0188EE95E00E94C9A40E941320C7
:1041C00080E00895FB0184858093300B85E29BE0BD
:1041D0000E942E8B0E94B91B80E0089500D00F92A0
:1041E00086E395E0EDB7FEB79283818383EB99E098
:1041F000948383830E9454CA81E08093240B0F90A0
:104200000F900F900F9089E19BE00E942E8B64E14C
:1042100070E080E090E00E94E8DC86E395E00E9498
:10422000DFCA181619069CF71092240B89E19BE04F
:104230000E942E8B80E0089564E170E080E090E0C1
:104240000E94E8DC0E949A1480912A0C90912B0C19
:104250009093BB128093BA129093BD128093BC12BC
:104260009093BF128093BE129093C1128093C0129C
:104270009093C7128093C6129093C9128093C8126C
:104280002091590B30915A0B4BE0293B340754F0E5
:104290008C599F4F9093BB128093BA129093C71280
:1042A0008093C6122854344FA4F48091BC1290918C
:1042B000BD128C599F4F9093BD128093BC12809178
:1042C000BE129091BF128C599F4F9093BF12809352
:1042D000BE128091B80B9091B90B895B9B40A4F002
:1042E0008091C8129091C9128C599F4F9093C91216
:1042F0008093C8128091C0129091C1128C599F4F27
:104300009093C1128093C0124091BA125091BB1287
:1043100089EA94E160E00E948F844091BC12509140
:10432000BD1289EA94E161E00E948F844091C0123D
:104330005091C11289EA94E162E00E948F84409119
:10434000C0125091C11289EA94E163E00E948F8407
:104350004091C6125091C71289EA94E166E00E942A
:104360008F844091C8125091C91289EA94E167E0A4
:104370000E948F8486E395E00E94DFCA1816190612
:104380000CF05ACF1092240B89E19BE00E942E8BF7
:1043900080E00895FF920F931F93CF93DF9300D097
:1043A0000F9286E395E0EDB7FEB79283818387E6AF
:1043B00099E0948383830E9454CA0F900F900F90CA
:1043C0000F900E94AF0EFF2400E0C1E0D0E064E156
:1043D00070E080E090E00E94E8DC0E949A140E9465
:1043E000960D182FF81609F190E0FC01EE0FFF1F53
:1043F000E80FF91FEE0FFF1FEE0FFF1FE555F54FFA
:104400000385093008F008E04091FE0A552747FD72
:104410005095012E02C0559547950A94E2F74170D8
:104420005070812F602F0E94BE198091590B90917E
:104430005A0B97FF03C0909581959F4F895B9B40D6
:104440004CF10F5F093009F400E0812F90E0FC018E
:10445000EE0FFF1FE80FF91FEE0FFF1FEE0FFF1FFC
:10446000E555F54F03874091FE0A552747FD5095C6
:10447000012E02C0559547950A94E2F7417050709D
:10448000812F602F0E94BE1964EF71E080E090E000
:104490000E94E8DC8091760C9091770C895B9B40C0
:1044A0000CF1CE01012E02C0880F991F0A94E2F789
:1044B0004091FE0A482B4093FE0A552747FD509530
:1044C000012E02C0559547950A94E2F7417050704D
:1044D000812F602F0E94BE1964EF71E080E090E0B0
:1044E0000E94E8DC8091760C9091770C8854944F70
:1044F0001CF5CE01012E02C0880F991F0A94E2F725
:1045000080952091FE0A82238093FE0A482F55272A
:1045100047FD5095012E02C0559547950A94E2F744
:1045200041705070812F602F0E94BE1964EF71E0BE
:1045300080E090E00E94E8DC86E395E00E94DFCA1C
:10454000F12E181619060CF042CFCBEADAE0CE01B4
:104550000E942E8B2C96FAE0C33FDF07C1F7CE01F5
:104560000E942E8B0E94DE100E947C1B80E0CDB743
:10457000DEB7E5E00C94B4E2A4E2B0E0E2ECF2E2F3
:104580000C9499E280E090E0A0E8BFE389839A83ED
:10459000AB83BC8380E090E0A0E0B0E08D839E839D
:1045A000AF83B88789879A87AB87BC878D879E87BB
:1045B000AF87B88B20E030E040E85FEB298B3A8B87
:1045C0004B8B5C8B8D8B9E8BAF8BB88F898F9A8F2B
:1045D000AB8FBC8F8D8F9E8FAF8FB8A329A33AA3CB
:1045E0004BA35CA308EE15E0C801BE016F5F7F4FCF
:1045F0000E9435958CE297E0B8010E9406A6C8019A
:104600000E948D97C8010E94299AA496E4E00C9418
:10461000B5E2CF93DF93FB01C285D385CE0162E57E
:1046200079E00E944BE4892B21F481E08093AA0970
:1046300009C0CE016EE479E00E944BE4892B39F485
:104640001092AA098FE999E00E942E8B12C000D027
:104650000F9286E395E0EDB7FEB7928381838FE3F7
:1046600099E0948383830E9454CA0F900F900F9017
:104670000F900E94F21F80E0DF91CF910895CF93B9
:10468000DF93FB01EB012A968285938563E679E04F
:104690000E944BE4892B19F41092B6090FC02A81AD
:1046A0003B814C815D81DA01C9010197A109B10902
:1046B0000497A105B10538F42093B6098BEA99E077
:1046C0000E942E8B12C000D00F9286E395E0EDB7CA
:1046D000FEB79283818385E599E0948383830E946A
:1046E00054CA0F900F900F900F900E94051B80E00E
:1046F000DF91CF910895CF93DF93FB01C285D385DE
:10470000CE0161ED79E00E944BE4892B11F481E048
:1047100019C0CE016FEC79E00E944BE4892B39F08F
:10472000CE016DEC79E00E944BE4892B19F41092D4
:104730003C0B0AC0CE016BEC79E00E944BE4892B64
:1047400041F482E080933C0B81E39BE00E942E8B3E
:1047500012C000D00F9286E395E0EDB7FEB79283CA
:1047600081838EEB99E0948383830E9454CA0F90D7
:104770000F900F900F900E94AE1A80E0DF91CF91C2
:104780000895ACE0B0E0E7ECF3E20C9499E2FB01B1
:1047900002851385C8016CE379E00E944BE4892B04
:1047A00051F481E08093CF0984EC99E00E942E8B34
:1047B0000E94BC223CC0C80168E379E00E944BE43F
:1047C000892B11F580E090E0A0E0B0E089839A8326
:1047D000AB83BC838D839E83AF83B88789879A8799
:1047E000AB87BC8788EE95E0BE016F5F7F4F0E946C
:1047F0000C9A88EE95E00E94D5A41092CF0984EC23
:1048000099E00E942E8B13C000D00F9286E395E0B2
:10481000EDB7FEB7928381838AE299E09483838324
:104820000E9454CA0F900F900F900F9004C084EC18
:1048300099E00E942E8B0E94132080E02C96E4E0E9
:104840000C94B5E28CED96E068EE7CED0E948EC58E
:104850000E94860F0E944E1A80E008950F931F93C6
:10486000CF93DF9386E395E065E072E00E94AADBD8
:1048700000E064E170E080E090E00E94E8DC0E94EB
:104880009A140F5F0436A9F7C091570BD091580BBB
:1048900081E0C43FD8073CF468EE73E080E090E02C
:1048A0000E94E8DCF9CFD0936D0BC0936C0B209184
:1048B000B60B3091B70B3093CC0B2093CB0B009100
:1048C000150C1091160C10932B0C00932A0C809150
:1048D000740C9091750C90938A0C8093890CA09124
:1048E000D30CB091D40CB093E90CA093E80CE091F8
:1048F000320DF091330DF093480DE093470D609128
:10490000910D7091920D7093A70D6093A60D40913B
:10491000F00D5091F10D5093060E4093050ED0937B
:10492000870BC093860B3093E60B2093E50B109317
:10493000450C0093440C9093A40C8093A30CB0936B
:10494000030DA093020DF093620DE093610D70933F
:10495000C10D6093C00D5093200E40931F0ED09355
:104960007A0BC093790B3093D90B2093D80B90938B
:10497000970C8093960C8CED95E09093F60C8093B9
:10498000F50C9093550D8093540D9093B40D809336
:10499000B30D9093130E8093120E00D00F9286E306
:1049A00095E0EDB7FEB79283818383ED99E0948320
:1049B00083830E9454CA0F900F900F900F9064E170
:1049C00070E080E090E00E94E8DC0E949A148CE4A1
:1049D0009BE00E94A5D48BEA9BE00E94A5D48AE0CC
:1049E0009CE00E94A5D489E69CE00E94A5D488ECB6
:1049F0009CE00E94A5D487E29DE00E94A5D486E8B1
:104A00009DE00E94A5D485EE9DE00E94A5D486E39A
:104A100095E00E94DFCA181619068CF664E170E072
:104A200080E090E00E94E8DC86E395E00E945CCBA9
:104A30008CE49BE00E9432D78BEA9BE00E9432D745
:104A40008AE09CE00E9432D789E69CE00E9432D73F
:104A500088EC9CE00E9432D787E29DE00E9432D72A
:104A600086E89DE00E9432D785EE9DE00E9432D715
:104A70000E94DE100E94931A80E0DF91CF911F9177
:104A80000F91089500D00F9286E395E0EDB7FEB741
:104A9000928381838FE09AE0948383830E9454CA37
:104AA0000F900F900F900F9086E395E00E940FCB30
:104AB000FFEF8F3F9F07C1F38937910529F08935B3
:104AC000910511F08FEF08950E94FE8A00D00F9299
:104AD00086E395E0EDB7FEB79283818383E09AE0A9
:104AE000948383830E9454CA0F900F900F900F906D
:104AF00068EE73E080E090E00E94E8DCFFCFCF93A7
:104B0000DF9300D00F9286E395E0EDB7FEB7928376
:104B1000818384E49AE0948383830E9454CAC0E032
:104B2000D0E00F900F900F900F90CE0160E00E94A8
:104B30004CE72196F0E1C030DF07B9F700D00F92C3
:104B400086E395E0EDB7FEB7928381838EE39AE02A
:104B5000948383830E9454CA0F900F900F900F90FC
:104B6000DF91CF9108950E947F2580E00895EF9214
:104B7000FF920F931F93CF93DF937B018230A1F0BD
:104B800000D00F9286E395E0EDB7FEB79283818364
:104B90008CEA9AE0948383830E9454CA8FEF0F902B
:104BA0000F900F900F9091C0FB0102851385C801F3
:104BB00068EA7AE00E9438E4892B19F4CFEFDFEF3E
:104BC00063C0C8016AE97AE00E9438E4C0E0D0E03E
:104BD000892B11F4C1E0D0E0C8016DE87AE00E94B1
:104BE00038E4892B09F4C260C80169E87AE00E94C0
:104BF00038E4892B09F4C460C80166E87AE00E94B1
:104C000038E4892B09F4C860C80161E87AE00E94A1
:104C100038E4892B09F4C061C8016CE77AE00E948E
:104C200038E4892B09F4C062C80167E77AE00E9482
:104C300038E4892B09F4C064C80163E77AE00E9474
:104C400038E4892B09F4C068C8016FE67AE00E9455
:104C500038E4892B09F4D160C8016BE67AE00E9440
:104C600038E4892B09F4D260C80164E67AE00E9436
:104C700038E4892B09F4D460C8016CE57AE00E941D
:104C800038E4892B09F4D860F7018081918165E5CA
:104C90007AE00E9438E4892B39F480910A0B9091D4
:104CA0000B0BC82BD92B08C0C095D09580910A0B4F
:104CB00090910B0BC823D923D0930B0BC0930A0BF5
:104CC0008FEF9AE00E942E8B80E0CDB7DEB7E6E052
:104CD0000C94B3E2CF93DF9300D00F9286E395E07C
:104CE000EDB7FEB7928381838CEC9AE09483838343
:104CF0000E9454CAC1E0D0E00F900F900F900F9027
:104D000086E895E1BE010E9422C72196F0E1C030FD
:104D1000DF07B1F786E895E161E070E00E94EFC639
:104D200086E895E163EA0E94CCC786E895E165E9EB
:104D30000E94CCC786E895E160EF0E94CCC786E868
:104D400095E160E00E94CCC786E895E16AEB0E949D
:104D5000CCC786E895E10E946CC800D00F9286E32C
:104D600095E0EDB7FEB7928381838EEB9AE0948352
:104D700083830E9454CA0F900F900F900F9080E091
:104D8000DF91CF9108956F927F928F929F92AF9211
:104D9000BF92CF92DF92EF92FF920F931F9306E89C
:104DA00015E1C8010E9488C93C01C8010E9488C958
:104DB0004C01C8010E9488C95C01C8010E9488C9D1
:104DC0006C01C8010E9488C97C01C8010E9488C981
:104DD0002DB73EB7205130400FB6F8943EBF0FBEFE
:104DE0002DBFEDB7FEB7319626E335E0ADB7BEB7C0
:104DF00012963C932E9311972BEE3AE03383228345
:104E00007582648297828682B186A086D386C286A6
:104E1000F586E486978786870E9454CA2DB73EB7E9
:104E2000205F3F4F0FB6F8943EBF0FBE2DBF1F91BE
:104E30000F91FF90EF90DF90CF90BF90AF909F9039
:104E40008F907F906F900895EF92FF920F931F9332
:104E500000D00F9206E315E0ADB7BEB712961C93D3
:104E60000E9311978EE09BE014969C938E9313976C
:104E70000E9454CA0F900F900F900F9096E8E92E61
:104E800095E1F92EC7010E94E6C8E82FF0E0EE0F89
:104E9000FF1FE653FC4F60817181C8010E94C3DA95
:104EA000C7010E9488C900D000D0EDB7FEB7319687
:104EB000ADB7BEB712961C930E93119728E03BE056
:104EC00033832283958384830E9454CAEDB7FEB74F
:104ED00036960FB6F894FEBF0FBEEDBF1F910F912F
:104EE000FF90EF9008956F927F928F929F92AF9272
:104EF000BF92CF92DF92EF92FF920F931F9306E83B
:104F000015E1C8010E9488C93C01C8010E9488C9F6
:104F10004C01C8010E9488C95C01C8010E9488C96F
:104F20006C01C8010E9488C97C01C8010E9488C91F
:104F30002DB73EB7205130400FB6F8943EBF0FBE9C
:104F40002DBFEDB7FEB7319626E335E0ADB7BEB75E
:104F500012963C932E93119726E93BE033832283EC
:104F60007582648297828682B186A086D386C28645
:104F7000F586E486978786870E9454CA2DB73EB788
:104F8000205F3F4F0FB6F8943EBF0FBE2DBF1F915D
:104F90000F91FF90EF90DF90CF90BF90AF909F90D8
:104FA0008F907F906F9008951F9386E895E161E060
:104FB00070E00E949EC910E086E895E10E94E6C874
:104FC000113051F0113018F0123099F408C010E08F
:104FD000833A79F411E00DC0853951F407C0803F60
:104FE00039F486E895E10E94E6C80AC012E001C0E3
:104FF00010E086E895E10E9456C60197E9F280E04C
:105000001F910895EF92FF920F931F93CF93DF9319
:105010008C01C0E0D0E11FC0CE01800F911F62E083
:1050200070E00E943BE2F62EE72E86E895E10E94B2
:105030009EC986E895E10E9447C96F5F7F4F8F4FF9
:105040009F4F29F48F2D9E2D9C01E90104C08F2DC7
:105050009E2D9C018901CE01801B910B0297E4F6E5
:10506000CE01CDB7DEB7E6E00C94B3E2A0E0B0E04D
:10507000ECE3F8E20C9493E2E82E6B015A0186E827
:1050800095E161E070E00E949EC910E086E895E13C
:105090000E94E6C8113051F0113018F01230A9F515
:1050A00008C010E0833A89F511E02FC0853961F519
:1050B00029C0803F49F586E895E10E94E6C8F82EB0
:1050C000C0E0D0E00E2D10E00FC086E895E10E9410
:1050D00088C9F6019183808386E895E10E9488C99A
:1050E000F501918380832196C017D10774F3EF14E3
:1050F00099F4F601808191810E940228F501918343
:1051000080830AC012E001C010E086E895E10E94A9
:1051100056C6019709F4BACFCDB7DEB7EAE00C94D2
:10512000AFE2A4E0B0E0E7E9F8E20C948FE20E947D
:10513000D427D82E00D00F9206E315E0ADB7BEB746
:1051400012961C930E93119786E59FE014969C93FC
:105150008E9313970E9454CA80910A0B90910B0B67
:105160000F900F900F900F90009759F400D00F926E
:10517000EDB7FEB71283018381E59FE094838383BB
:1051800008C180FF14C000D00F92ADB7BEB7129611
:105190001C930E93119782E49FE014969C938E9338
:1051A00013970E9454CA0F900F900F900F90809108
:1051B0000A0B81FF12C000D00F9286E395E0EDB795
:1051C000FEB79283818384E39FE0948383830E946C
:1051D00054CA0F900F900F900F9080910A0B82FF8E
:1051E00016C000D00F9286E395E0ADB7BEB7129619
:1051F0009C938E9311978FE29FE014969C938E93CD
:1052000013970E9454CA0F900F900F900F908091A7
:105210000A0B83FF12C000D00F9286E395E0EDB732
:10522000FEB7928381838BE29FE0948383830E9405
:1052300054CA0F900F900F900F9080910A0B84FF2B
:1052400016C000D00F9286E395E0ADB7BEB71296B8
:105250009C938E93119785E29FE014969C938E9376
:1052600013970E9454CA0F900F900F900F90809147
:105270000A0B85FF12C000D00F9286E395E0EDB7D0
:10528000FEB7928381838FE19FE0948383830E94A2
:1052900054CA0F900F900F900F9080910A0B87FFC8
:1052A00016C000D00F9286E395E0ADB7BEB7129658
:1052B0009C938E9311978AE19FE014969C938E9312
:1052C00013970E9454CA0F900F900F900F908091E7
:1052D0000A0B90910B0B90FF12C000D00F9286E347
:1052E00095E0EDB7FEB79283818385E19FE09483DB
:1052F00083830E9454CA0F900F900F900F9080915B
:105300000A0B90910B0B91FF16C000D00F9286E311
:1053100095E0ADB7BEB712969C938E9311978CE033
:105320009FE014969C938E9313970E9454CA0F90FB
:105330000F900F900F9080910A0B90910B0B92FFA2
:1053400012C000D00F9286E395E0EDB7FEB79283CE
:10535000818384E09FE0948383830E9454CA0F90EA
:105360000F900F900F9080910A0B90910B0B93FF71
:1053700016C000D00F9286E395E0ADB7BEB7129687
:105380009C938E9311978BEF9EE014969C938E9333
:1053900013970E9454CA0F900F900F900F9046E3FE
:1053A000E42E45E0F42EC7010E9493DBDD2089F452
:1053B00000D00F92EDB7FEB7F282E18281EE9EE05F
:1053C000948383830E9454CA0F900F900F900F9084
:1053D00064C0CD2CDD2400D000D0EDB7FEB73196EF
:1053E000ADB7BEB71296FC92EE92119787ED9EE094
:1053F00093838283D582C4820E9454CA36EB632E83
:105400003EE0732E01E010E0EDB7FEB736960FB622
:10541000F894FEBF0FBEEDBF470123E0A22EB12CD2
:10542000AC0EBD1E7E010894E11CF11C2FC0802F24
:10543000B701A5010E9436288DB79EB70A970FB60F
:10544000F8949EBF0FBE8DBFEDB7FEB73196ADB7D6
:10545000BEB711968C92119712969C9273826282BB
:105460001583048389819A81978386838B819C81AC
:10547000918780870E9454CA0F5F1F4FEDB7FEB718
:105480003A960FB6F894FEBF0FBEEDBFC016D10618
:1054900074F686E395E00E9493DB81E02496EEE0CB
:1054A0000C94ABE24F925F926F927F928F929F9299
:1054B000AF92BF92CF92DF92EF92FF920F931F9322
:1054C00006E815E1C8010E9447C92B013C01C8014B
:1054D0000E94E6C8882EC8010E94E6C8A82EC8010E
:1054E0000E94E6C8C82EC8010E94E6C8E82EC8017E
:1054F0000E94E6C82DB73EB7225130400FB6F8944F
:105500003EBF0FBE2DBFEDB7FEB7319626E335E0A7
:10551000ADB7BEB712963C932E93119721E23BE0B4
:10552000338322834482558266827782992487FC62
:10553000909491868086BB24A7FCB094B386A28603
:10554000DD24C7FCD094D586C486FF24E7FCF09404
:10555000F786E686992787FD9095918B808B0E9430
:1055600054CA2DB73EB72E5E3F4F0FB6F8943EBFDC
:105570000FBE2DBF1F910F91FF90EF90DF90CF9046
:10558000BF90AF909F908F907F906F905F904F9063
:105590000895A4E0B0E0EFECFAE20C948BE206E8A8
:1055A00015E1C8010E94E6C8682EC8010E94E6C83D
:1055B000882EC8010E94E6C8A82EC8010E94E6C82D
:1055C000C82EC8010E94E6C8E82EC8010E9447C93B
:1055D00069837A838B839C83C8010E9447C91B011E
:1055E0002C01C8010E9447C92DB73EB72A5130404F
:1055F0000FB6F8943EBF0FBE2DBFEDB7FEB7319684
:1056000026E335E0ADB7BEB712963C932E931197C3
:1056100023E43BE033832283772467FC7094758214
:105620006482992487FC909497828682BB24A7FC8D
:10563000B094B186A086DD24C7FCD094D386C28600
:10564000FF24E7FCF094F586E48629813A814B81BA
:105650005C8126873787408B518B228A338A448A24
:10566000558A668B778B808F918F0E9454CA4DB775
:105670005EB7465E5F4F0FB6F8945EBF0FBE4DBF7C
:105680002496E2E10C94A7E2A0E0B0E0EAE4FBE2B9
:105690000C948BE256E8C52E55E1D52EC6010E942A
:1056A00088C91C01C6010E9447C92B013C01C601E3
:1056B0000E9488C97C01C6010E9488C94C01C601AC
:1056C0000E9488C9EC018DB79EB744970FB6F89435
:1056D0009EBF0FBE8DBFCDB6DEB60894C11CD11CD7
:1056E00086E395E0EDB7FEB7928381838BE69BE07E
:1056F000F6019383828335822482468257826086B4
:1057000071860027F7FC0095102FC801B7010E9491
:10571000CBDF20E030E048EC52E40E9430DFF601BD
:105720006287738784879587AA2497FCA094BA2CF4
:10573000C501B4010E94CBDF20E030E048EC52E428
:105740000E9430DFF60166877787808B918BD38B41
:10575000C28B0E9454CA8DB79EB744960FB6F89478
:105760009EBF0FBE8DBFCDB7DEB7E2E10C94A7E2BE
:105770002F923F924F925F926F927F928F929F9261
:10578000AF92BF92CF92DF92EF92FF920F931F934F
:1057900006E815E1C8010E9488C91C01C8010E94E1
:1057A00088C92C01C8010E9488C93C01C8010E9417
:1057B00047C96B017C01C8010E9447C94B015C01CC
:1057C0008DB79EB742970FB6F8949EBF0FBE8DBFA0
:1057D0000DB71EB70F5F1F4F86E395E0EDB7FEB71D
:1057E0009283818383EB9BE0F801938382833582EC
:1057F00024825782468271866086C701B6010E9464
:10580000CBDFF8016287738784879587C501B40170
:105810000E94CBDFF80166877787808B918B0E948F
:1058200054CA8DB79EB742960FB6F8949EBF0FBE6E
:105830008DBF1F910F91FF90EF90DF90CF90BF90A1
:10584000AF909F908F907F906F905F904F903F9020
:105850002F900895ACE0B0E0E0E3FCE20C948BE222
:1058600006E815E1C8010E9447C91B012C01C801C7
:105870000E94E6C8A82EC8010E9447C93B014C01FE
:10588000C8010E9447C969877A878B879C87C801AE
:105890000E9447C96D837E838F839887C8010E94C9
:1058A00047C969837A838B839C83C8010E9488C916
:1058B0007C01C8010E9488C96C018DB79EB7809792
:1058C0000FB6F8949EBF0FBE8DBF0DB71EB70F5F0A
:1058D0001F4F86E395E0EDB7FEB79283818381ED9C
:1058E0009BE0F8019383828324823582468257822B
:1058F000BB24A7FCB094B186A086C401B3010E946A
:10590000CBDF20E836E948E15BE40E9430DFF801B4
:10591000628773878487958769857A858B859C855F
:105920000E94CBDF20E836E948E15BE40E9430DFEB
:10593000F80166877787808B918B6D817E818F815F
:1059400098850E94CBDF20E030E048EC52E40E94D2
:1059500030DFF801628B738B848B958B69817A8140
:105960008B819C810E94CBDF20E030E048EC52E448
:105970000E9430DFF801668B778B808F918FF38EDA
:10598000E28EEE24FF24C48ED58EE68EF78E0E9422
:1059900054CA8DB79EB780960FB6F8949EBF0FBEBF
:1059A0008DBF2C96E2E10C94A7E2EF92FF920F9349
:1059B0001F9306E815E1C8010E94E6C8E82EC80159
:1059C0000E9447C92DB73EB72A5030400FB6F89411
:1059D0003EBF0FBE2DBFEDB7FEB7319626E335E0D3
:1059E000ADB7BEB712963C932E93119723E03CE0DF
:1059F00033832283FF24E7FCF094F582E4826683FC
:105A00007783808791870E9454CA2DB73EB7265F5F
:105A10003F4F0FB6F8943EBF0FBE2DBF1F910F91A1
:105A2000FF90EF900895FF920F931F93CF93DF9312
:105A300000D00F9206E315E0ADB7BEB712961C93E7
:105A40000E93119783E19BE014969C938E9313978A
:105A50000E9454CAFF24F3940F900F900F900F9060
:105A6000C4E1D2E086E895E10E9488C900D000D068
:105A7000EDB7FEB73196ADB7BEB711960C9311973F
:105A800012961C93D383C283958384830E9468CA31
:105A9000F394EDB7FEB736960FB6F894FEBF0FBE7F
:105AA000EDBFFEE0FF16F1F686E895E10E9488C999
:105AB00000D000D0EDB7FEB73196ADB7BEB71196A6
:105AC0000C93119712961C9329E132E033832283C1
:105AD000958384830E9468CAEDB7FEB736960FB6E9
