:100000000C94AE0B0C94D80B0C94D80B0C94D80B0E
:100010000C94D80B0C94D80B0C94D80B0C94D80BD4
:100020000C94D80B0C94D80B0C94D80B0C94D80BC4
:100030000C94D80B0C94D80B0C94D80B0C94D08443
:100040000C94D80B0C94D80B0C94D80B0C94D80BA4
:100050000C94D80B0C94D80B0C94D80B0C9468D837
:100060000C94D80B0C947A0D0C94BA0D0C94D80BFC
:100070000C94D80B0C94D80B0C94D80B0C94D80B74
:100080000C94D80B0C94D80B0C94D80B0C94D80B64
:100090000C940C0E0C944C0E0C94D80B0C94DED4D7
:1000A0000C94D80B0C946B820C94D80B0C94D80B3A
:1000B0000C94D80B0C94D80B0C94D80B0C94D80B34
:1000C0000C94D80B0C94D80B0C94D80B0C94D80B24
:1000D0000C94D80B0C94D80B0C949E0E0C94DE0E42
:1000E0000C94D80B4E1C6F1CE61CA41CC51CFF1CDA
:1000F000181D311D4A1D681D791DB231D331B5312E
:10010000B831BB31BE31C131C431C731CA31CD3153
:10011000D0313452495254526353A452205398520E
:10012000B9526353635363536353635363536353CA
:10013000635363536353635363536353635363530F
:100140006353545393548D549C54B154ED54D95427
:100150000455C554AD55D955E255E555E8554D5EA4
:10016000EB554D5E4D5E4D5EEE55F155F4551D5609
:100170001B561B561B5629561B561F561B561B56E5
:100180002C563B562E5631561B561B561B56345674
:100190001B561B561B561B561B563B561B563D5695
:1001A000E282E782EC82F182F682FB8200830583A1
:1001B0000A830F83148367BA62BA6BBA6FBA7DBAC7
:1001C00096BAC0BAD1BA10BC0BBC14BC1DBC44BC9E
:1001D00050BC6ABC8BBC92BC13CE13CE37CEA6CE1D
:1001E0007BCEC1CEDCCE09CF47CF8ECFA5D9A8D943
:1001F0009BD99FD9E1D9ACD9B0D9B6D9BAD9BED992
:10020000C4D9C8D9CCD9D2D9D6D9DCD9036EDB367A
:100210003D9A9999993DABAAAA2A3E000000803FD9
:10022000084AD73B3BCE016E84BCBFFDC12F3D6C5D
:1002300074319ABD56833DDA3D00C77F11BED9E4C3
:10024000BB4C3E916BAAAABE000000803F072C7AEF
:10025000A5BA6CC590DA3B9365FC8BBC53F810FDD6
:100260003C5692834DBD879D3AB63DCBC9BF5BBE20
:1002700073DA0FC93F05A84CCDB2D44EB93836A9B0
:10028000020C50B9918688083CA6AAAA2ABE000092
:1002900000803F08000000BE922449123EABAAAA8B
:1002A0002ABECDCCCC4C3E00000080BEABAAAAAA90
:1002B0003E00000000BF000000803F000000000082
:1002C000084178D3BB4387D1133D190E3CC3BD42CF
:1002D00082AD2B3E68EC8276BED98FE1A93E4C8080
:1002E000EFFFBE01C4FF7F3F00000000004C6F67BE
:1002F0000064756D7000000000000000000000E662
:10030000316572617365000000000000000000307C
:100310002A656E61626C6500000000000000007DCF
:100320002964697361626C65000000000000007D53
:100330002968656C7000000000000000000000AB40
:1003400013706C616E6E657200676373000000006D
:10035000000000000000001E607365747570006589
:1003600072617365000000000000000000792972CE
:100370006573657400000000000000000008297229
:100380006164696F000000000000000000F427664F
:1003900072616D6500000000000000000041276DE3
:1003A0006F746F727300000000000000002125656B
:1003B00073630000000000000000000000F3246CE4
:1003C0006576656C000000000000000000E8276D05
:1003D0006F6465730000000000000000009025625B
:1003E00061747465727900000000000000052773D5
:1003F0006F6E6172000000000000000000CF2663F5
:100400006F6D706173730000000000000087277437
:10041000756E6500000000000000000000E7246425
:1004200065636C696E6174696F6E000000D224733D
:10043000686F7700000000000000000000B0244159
:10044000726475436F707465722056322E302E348C
:10045000352042657461006C6F6773000000000016
:100460000000000000F12373657475700000000047
:100470000000000000A223746573740000000000F7
:1004800000000000009C2368656C70000000000004
:100490000000000000B012706C616E6E65720000AA
:1004A00000000000008423746573740070776D0091
:1004B00000000000000000000000FA18726164698A
:1004C0006F0000000000000000008E186661696C7B
:1004D00073616665000000000000F10F6770730033
:1004E00000000000000000000000FF2261646300C3
:1004F000000000000000000000009022696D7500FF
:1005000000000000000000000000762162617474A9
:1005100065727900000000000000101274756E65AD
:10052000000000000000000000009A1D74726900C5
:1005300000000000000000000000C21B6375727222
:10054000656E74000000000000003C1B72656C6169
:1005500079000000000000000000B611776179709A
:100560006F696E74730000000000DF16616C7469BF
:10057000747564650000000000001316736F6E61EF
:1005800072000000000000000000ED14636F6D7049
:100590006173730000000000000035147862656527
:1005A000000000000000000000005A11656564753D
:1005B0006D700000000000000000D21372617767C8
:1005C000707300000000000000001B1148697420D7
:1005D000456E74657220746F20657869742E0A0AFE
:1005E00000202530327800253034783A00426567A3
:1005F000696E205842656520582D4354552052613C
:100600006E676520616E64205253534920546573B0
:10061000743A0A00436F6D706173733A2000486545
:100620006164696E673A20256C642C2058595A3AE7
:100630002025642C2025642C2025640A0061626C2E
:1006400065640A0064697300656E00536F6E6172C1
:100650003A20256420636D0A00536F6E6172206436
:10066000697361626C65640A004261726F3A2025A9
:1006700064636D0A00486974207261643A202564DD
:100680000A0025642077700A006F662025646D0AD1
:10069000000A00486F6C6420616C742000636F6D09
:1006A0006D616E6420233A2025642069643A2564D4
:1006B000206F703A25642070313A25642070323AF8
:1006C000256C642070333A256C642070343A256CB4
:1006D00064200A0052656C6179206F66660A0052D8
:1006E000656C6179206F6E0A00563A2025342E34ED
:1006F000662C20413A2025342E34662C206D41682A
:100700003A2025342E34660A00696E7075743A20DA
:100710002564096F757470757425640A0074756EAC
:10072000653A2025312E33660A004E6F7420656EBF
:1007300061626C65640A00256C642C20256C642C55
:1007400020256C640A00494D550A004779726F20D4
:100750006F6666736574733A2025342E32662C20DA
:1007600025342E32662C2025342E32660A00416351
:1007700063656C206F6666736574733A2025342E4A
:1007800032662C2025342E32662C2025342E3266FB
:100790000A0025752C004144430A004C61743A203C
:1007A000256C642C204C6F6E20256C642C20416CD1
:1007B000743A20256C646D2C2023736174733A2085
:1007C00025640A00494E2020313A20256409323A36
:1007D00020256409333A20256409343A2025640928
:1007E000353A20256409363A20256409373A202510
:1007F000640A00494E3A20313A20256409323A20F1
:10080000256409333A20256409343A2025640935E2
:100810003A20256409363A20256409373A202564B0
:1008200009383A2025640A00506C616E6E657220AA
:100830004D6F64650A4E6F7420696E74656E6465F1
:100840006420666F72206D616E75616C20757365D2
:100850000A0A00436F6D6D616E64733A0A20206C62
:100860006F67730A202073657475700A20207465A1
:1008700073740A2020706C616E6E65720A0A4D6F87
:1008800076652074686520736C6964652073776988
:1008900074636820616E6420726573657420746F80
:1008A00020464C592E0A0A000A20547970652027E8
:1008B000726164696F2720746F20636F6E66696769
:1008C000757265206E6F772E0A0A000A21576172D1
:1008D0006E696E672C20796F757220726164696F22
:1008E000206973206E6F7420636F6E66696775721E
:1008F000656421005365747570204D6F64650A0A44
:100900000A0046572056657273696F6E2025640A87
:1009100000526164696F0A004348373A2025642019
:100920007C2025640A004348363A202564207C2038
:1009300025640A004348353A202564207C2025643C
:100940000A004348343A202564207C2025640A00AC
:100950004348333A202564207C2025640A0043481C
:10096000323A202564207C2025640A004348313A2D
:10097000202564207C2025640A0056206D6F646564
:100980000A002B206D6F64650A0058206D6F646546
:100990000A00545249206672616D650A0046726110
:1009A0006D650A00766F6C747320616E64206375E8
:1009B00072006261747420766F6C7473003420630B
:1009C000656C6C7300332063656C6C73000A426164
:1009D0007474204D6F696E746F720A00536F6E618C
:1009E000720A00466C69676874206D6F6465730AEB
:1009F000004F46460A004F4E0A002C090953696D04
:100A0000706C653A2000506F732025643A09004DE0
:100A10006167206F6666736574733A2025342E34DF
:100A2000662C2025342E34662C2025342E34660086
:100A30004D6167204465633A2025342E34660A00F0
:100A4000436F6D706173730A002025640A000A54B5
:100A5000554E453A0A000A4F7074696F6E733A5BDF
:100A60006F6E2C6F66665D0A006F6666006F6E00C3
:100A70000A4F7074696F6E733A5B6F6E2C206F66ED
:100A8000665D0A006F6666006F6E000A4F707469DB
:100A90006F6E733A206F66662C20312D34006F66BE
:100AA00066000A4D6F7665206D6F64652073776907
:100AB00074636820746F20656469742C2061696CAC
:100AC00065726F6E3A2073656C656374206D6F6438
:100AD00065732C207275646465723A2053696D7079
:100AE0006C65206F6E2F6F66660A000A536176652B
:100AF000642053657474696E67730A0A000A45536B
:100B0000432043616C6962726174696F6E3A0A2DA9
:100B10003120556E706C75672055534220616E64AC
:100B200020626174746572790A2D32204D6F76658A
:100B300020434C492F464C592073776974636820D1
:100B4000746F20464C59206D6F64650A2D33204D1B
:100B50006F7665207468726F74746C6520746F2092
:100B60006D61782C20636F6E6E65637420626174B2
:100B7000746572790A2D3420416674657220747729
:100B80006F206C6F6E672062656570732C207468CF
:100B9000726F74746C6520746F20302C20746865DB
:100BA0006E20746573740A0A205072657373204551
:100BB0006E74657220746F2063616E63656C2E0ABB
:100BC000000A4F7074696F6E733A5B782C2B2C7629
:100BD0005D0A0076002B00700078000A4D6F766584
:100BE00020616C6C20636F6E74726F6C7320746F15
:100BF00020656163682065787472656D652E204894
:100C0000697420456E74657220746F207361766517
:100C10003A20000A464143544F5259205245534509
:100C20005420636F6D706C657465202D2072656251
:100C30006F6F742041504D000A275927202B204503
:100C40006E74657220746F20666163746F727920B0
:100C500072657365742C20616E79206F746865729B
:100C6000206B657920746F2061626F72743A0A009C
:100C7000646F6E650A000A45726173696E6720458C
:100C80004550524F4D0A000A436F6D6D616E64739B
:100C90003A0A202064756D70203C6E3E20206572FB
:100CA0006173652028616C6C206C6F6773290A2062
:100CB00020656E61626C65203C6E616D653E207CD6
:100CC00020616C6C0A202064697361626C65203C51
:100CD0006E616D653E207C20616C6C0A0A00656E59
:100CE00061626C65004F5054464C4F57004D4F5455
:100CF0004F52530043555200434D44005241570058
:100D00004D4F4445004E54554E004354554E0050EF
:100D10004D004750530041545449545544455F4D8C
:100D200045440041545449545544455F4641535449
:100D300000616C6C006D697373696E67206C6F671E
:100D400020747970650A000A4C6F672065726173C0
:100D500065642E0A000A45726173696E67206C6FC4
:100D6000672E2E2E0A00626164206C6F672023209C
:100D700025640A004154542C2025642C2025642C21
:100D80002025752C2025642C2025642C2025640A20
:100D9000002C2025640A004D4F443A004354554E20
:100DA0002C2025642C2025642C2025642C202564EF
:100DB0002C2025642C2025642C2025642C202564DF
:100DC0000A004E54554E2C2025642C2025642C20DE
:100DD00025642C2025642C2025640A00504D2C20ED
:100DE00025642C2025642C2025642C2025642C20AF
:100DF00025642C2025642C20256C640A0052415760
:100E00002C00434D442C2025642C2025642C2025C7
:100E1000642C2025642C2025642C20256C642C2037
:100E2000256C642C20256C640A00435552523A20EC
:100E300025642C20256C642C2025342E34662C202F
:100E400025342E34662C2025640A00535441525414
:100E50002055500A004D4F543A2025642C2025641B
:100E60002C2025642C2025640A004F462C20256464
:100E70002C2025642C2025642C2025342E37662C2C
:100E80002025342E37660A004750532C20256C64E9
:100E90002C2025642C2025342E37662C2025342E3A
:100EA00037662C2025342E34662C2025342E3466CB
:100EB0002C2025642C2025750A0058545241434BA0
:100EC0005F005448525F484F4C445F004E41565FAC
:100ED0004C4F4E5F004E41565F4C41545F00484CB2
:100EE000445F4C4F4E5F00484C445F4C41545F00A0
:100EF0005354425F5941575F005354425F50495425
:100F00005F005354425F524C4C5F00524154455F66
:100F10005941575F00524154455F5049545F005258
:100F20004154455F524C4C5F0052435F43525F0057
:100F300052435F43505F005243385F005243375F74
:100F4000005243365F005243355F005243345F0026
:100F50005243335F005243325F005243315F004CD3
:100F60004F575F564F4C5400494E5F564F4C5400FC
:100F7000464C4F575F454E41424C450054425F52EC
:100F80004154494F004652414D450054554E45008D
:100F9000455343004D41475F454E41424C45004259
:100FA0004154545F434150414349545900424154D4
:100FB000545F4D4F4E49544F5200534F4E41525F74
:100FC000454E41424C4500414C545F484F4C445FB4
:100FD00052544C004C4F475F4249544D41534B00D3
:100FE00053494D504C4500464C544D4F44453600F6
:100FF000464C544D4F44453500464C544D4F4445A6
:101000003400464C544D4F44453300464C544D4FEC
:1010100044453200464C544D4F44453100545249EA
:101020004D5F5448524F54544C45005448525F460B
:10103000535F56414C5545005448525F46535F41FB
:101040004354494F4E005448525F4641494C534126
:101050004645005448525F4D4158005448525F4D38
:10106000494E0057505F53504545445F4D4158002D
:1010700057505F4C4F495445525F524144005750BE
:101080005F5241444955530057505F4D5553545F8B
:10109000494E4445580057505F494E444558005703
:1010A000505F544F54414C0057505F4D4F444500E2
:1010B0005854524B5F414E474C455F4344005345A3
:1010C0005249414C335F42415544005359534944BE
:1010D0005F4D594743530053595349445F5448495E
:1010E000534D41560053595349445F53575F545928
:1010F00050450053595349445F53575F4D5245562D
:1011000000524556004D4158005452494D004D493A
:101110004E00494D41580049005000494D555F531C
:10112000454E534F525F43414C004C6F6720232084
:1011300025642C2020202073746172742025642C77
:10114000202020656E642025640A000A2564206C36
:101150006F67730A000A4E6F206C6F67730A5479C9
:101160007065202764756D702030272E0A0A0020D4
:101170004F5054464C4F5700204D4F544F52530040
:101180002043555252454E540020434D44002052B6
:10119000415700204E54554E00204354554E0020D8
:1011A000504D002047505300204154544954554459
:1011B000455F4D4544002041545449545544455FD2
:1011C00046415354006E6F6E65006C6F6773206507
:1011D0006E61626C65643A2000666C6967687420B1
:1011E000706C616E20726563656976656400616329
:1011F00074696F6E2072656365697665643A200074
:101200006572726F723A206E6F6E2D4E617620633A
:101210006D64006F7574206F6620636F6D6D616E15
:1012200064732100776179706F696E7420726563F1
:10123000656976652074696D656F7574007761798D
:10124000706F696E742073656E642074696D656F6C
:101250007574004558545241330045585452413238
:101260000045585452413100504F534954494F4E54
:10127000005241575F4354524C0052435F43484130
:101280004E004558545F53544154005241575F53E8
:10129000454E53005352335F005352305F00475264
:1012A0004F554E44205354415254000A456E7465C4
:1012B00072696E6720696E746572616374697665C0
:1012C000207365747570206D6F64652E2E2E0A0A6A
:1012D00054797065202768656C702720746F206CC6
:1012E00069737420636F6D6D616E64732C20276564
:1012F0007869742720746F206C65617665206120A1
:101300007375626D656E752E0A5669736974207403
:1013100068652027736574757027206D656E75206C
:10132000666F722066697273742D74696D652063CF
:101330006F6E66696775726174696F6E2E0A0A0056
:10134000506C656173652052756E205365747570BD
:101350002E2E2E0A004669726D77617265206368D1
:10136000616E67653A2065726173696E67204545F5
:1013700050524F4D2E2E2E0A000A0A496E697420D3
:1013800041726475436F707465722056322E302E30
:10139000343520426574610A0A46726565205241FF
:1013A0004D3A20256C750A00496E76616C6964209F
:1013B00053455249414C335F42415544004C6F679D
:1013C000732066756C6C000A4750530A0025303351
:1013D000753A25733A20006E6F7420666F756E64DF
:1013E00000253033753A252D33322E3332733A20AF
:1013F00000756E6B6E6F776E2074797065006E6F1E
:101400007420666F756E640025733A20006D6973F1
:1014100073696E67206E616D65206F722076616CF6
:101420007565003F3F00256400256400256C64005D
:10143000256600256600657869740068656C700033
:1014400044454300434F4D504153535F00245047A0
:10145000434D442C31362C302C302C302C302C3059
:101460002A36410D0A0024505542582C34312C3173
:101470002C303030332C303030312C333834303065
:101480002C302A32360024505352463130302C3022
:101490002C33383430302C382C312C302A33430064
:1014A00020536952462000204D544B312E362000E7
:1014B0002075626C6F782000204D544B312E342003
:1014C000006661696C65642C207265747279696E5E
:1014D00067004F4B0020002A00496E697420416369
:1014E00063656C002A00496E6974204779726F0049
:1014F0006E616E00696E660000407A10F35A00A0BB
:10150000724E18090010A5D4E80000E876481700CC
:1015100000E40B54020000CA9A3B000000E1F5050C
:10152000000080969800000040420F000000A08656
:1015300001000000102700000000E8030000000088
:101540006400000000000A0000000000010000002C
:1015500000002C76D888DC674F0823DFC1DFAE5946
:10156000E1B1B796E5E3E453C63AE651997696E8D9
:10157000E6C28426EB898C9B62ED407C6FFCEFBC5D
:101580009C9F40F2BAA56FA5F490055A2AF75C9388
:101590006B6CF9676DC11BFCE0E40D47FEF520E6BE
:1015A000B500D0ED902E0300943577050080841EA1
:1015B000080000204E0A000000C80C333333330FFC
:1015C000986E12831141EF8D2114893BE65516CF99
:1015D000FEE6DB18D1844B381BF77C1D901DA4BBA5
:1015E000E424203284725E228100C9F124ECA1E55A
:1015F0003D2700002100240027002A002D00300094
:10160000330001010000040107010A01000022006B
:10161000250028002B002E003100340002010000BC
:10162000050108010B01000020002300260029000D
:101630002C002F0032000001000003010601090107
:1016400005050505070508080808020202020A0A3E
:10165000080804040404010101010101010103035C
:10166000030303030303040707070C0C0C0C0C0C07
:101670000C0C0202020206060606060606060B0B04
:101680000B0B0B0B0B0B0102102020080810204045
:101690001020408002010201080402010102040836
:1016A00010204080804020100804020180040201C4
:1016B000804020100804020108040201010204080D
:1016C0001020408001020408102040800000090A18
:1016D00002080B0C0D0706030401000000000000C7
:1016E00000000000000000000000000000000000FA
:1016F0000000000000000000100F0E0000000000BD
:1017000000000000000000000000000000000000D9
:101710000000494E46494E4954594E414ECDCCCC1D
:101720003D0AD7233C17B7D13877CC2B329595E6B5
:10173000241FB14F0A000020410000C84200401C95
:101740004620BCBE4CCA1B0E5AAEC59D7400773DE8
:101750008D83078D65C3E2D3703D008D11241FBEBC
:10176000CFEFD1E2DEBFCDBF15E0A0E0B2E0EAE40A
:10177000FAEC01E00BBF02C007900D92A831B1074F
:10178000D9F715E1A8E1B5E001C01D92AB3DB10765
:10179000E1F717E1C8E5D7E104C02297FE010E94F6
:1017A000C0DECE34D107C9F70E945DD60C9418E58F
:1017B0000C940000283008F027E03327DA01990F55
:1017C000311D87FD916000966105710539F4326025
:1017D0002E5F3D9330E32A95E1F708959F3F30F067
:1017E00080387105610509F03C5F3C5F3D939130A5
:1017F00008F08068911DDF93CF931F930F93FF92A2
:10180000EF92192F987F9695E92F96959695E90F67
:10181000FF27EE5AFA4E99273327EE24FF24A7011B
:10182000E70105900894079428F4360FE71EF81E88
:10183000491F511D660F771F881F991F0694A1F736
:101840000590079428F4E70EF81E491F561FC11D86
:10185000770F881F991F661F0694A1F705900794BC
:1018600028F4F80E491F561FC71FD11D880F991F56
:10187000661F771F0694A1F70590079420F4490F7F
:10188000561FC71FD81F990F661F771F881F069402
:10189000A9F784911095177041F0D695C795579583
:1018A0004795F794E7941A95C1F7E8EFF4E1689447
:1018B0001590159135916591959105907FE27395FD
:1018C000E118F10A430B560BC90BD009C0F7E10C24
:1018D000F11E431F561FC91FD01D7EF4703311F433
:1018E0008A95E6CFE894015030F0080F0AF40027FB
:1018F000021708F4202F2395022F7A3328F079E37A
:101900007D932A95E9F710C07D932A9589F6069470
:1019100097956795379517951794E118F10A430B3A
:10192000560BC90BD00998F023957E9173957A33A5
:1019300008F070E37C932013B8F77E9170617D937B
:1019400030F0839571E37D9370E32A95E1F71124DC
:10195000EF90FF900F911F91CF91DF91992787FD15
:1019600090950895FA01AA27283051F1203181F18C
:10197000E8946F936E7F6E5F7F4F8F4F9F4FAF4F97
:10198000B1E03ED0B4E03CD0670F781F891F9A1FAA
:10199000A11D680F791F8A1F911DA11D6A0F711D5E
:1019A000811D911DA11D20D009F468943F912AE06A
:1019B000269F11243019305D3193DEF6CF01089552
:1019C000462F4770405D4193B3E00FD0C9F7F6CF83
:1019D000462F4F70405D4A3318F0495D31FD40524B
:1019E000419302D0A9F7EACFB4E0A69597958795E1
:1019F00077956795BA95C9F70097610571050895C0
:101A00009B01AC010A2E069457954795379527956B
:101A1000BA95C9F7620F731F841F951FA01D089503
:101A2000CF93DF93FC01EB014230510570F06385E9
:101A300074858585968520E030E040E854E40E9476
:101A400051DD0E9499DB7983688382E090E0DF9129
:101A5000CF910895CF93DF93EC01FB014230510504
:101A600018F420E030E012C06081718180E090E0E5
:101A70000E94C5DB20E030E040E85AE30E9451DDDF
:101A80006B877C878D879E8722E030E0C901DF91DC
:101A9000CF910895DC01FB0183818C9382811196A3
:101AA0008C931197818112968C9312978081139653
:101AB0008C930895DC01FB0187818C9386811196BC
:101AC0008C931197858112968C931297848113962B
:101AD0008C931397838114968C9314978281159617
:101AE0008C931597818116968C9316978081179603
:101AF0008C9308951F920F920FB60F920BB60F9210
:101B000011242F933F934F938F939F93EF93FF93C2
:101B10004091C6002091DB133091DC132F5F3F4FC3
:101B20008091DF139091E013282339238091DD13F6
:101B30009091DE132817390779F08091DB1390918B
:101B4000DC13E091E113F091E213E80FF91F4083F9
:101B50003093DC132093DB13FF91EF919F918F91D2
:101B60004F913F912F910F900BBE0F900FBE0F9092
:101B70001F9018951F920F920FB60F920BB60F92EF
:101B800011242F933F938F939F93EF93FF93209173
:101B9000FD133091FE138091FB139091FC132817D5
:101BA0003907E9F08091FD139091FE13E091011443
:101BB000F0910214E80FF91F80818093C600809194
:101BC000FD139091FE1301962091FF1330910014A4
:101BD000822393239093FE138093FD1310C02091D2
:101BE000FB133091FC138091FD139091FE13281785
:101BF000390729F48091C1008F7D8093C100FF9146
:101C0000EF919F918F913F912F910F900BBE0F906D
:101C10000FBE0F901F9018951F920F920FB60F9244
:101C20000BB60F9211242F933F934F938F939F9353
:101C3000EF93FF934091CE002091E3133091E41392
:101C40002F5F3F4F8091E7139091E81328233923AA
:101C50008091E5139091E6132817390779F0809168
:101C6000E3139091E413E091E913F091EA13E80F84
:101C7000F91F40833093E4132093E313FF91EF9116
:101C80009F918F914F913F912F910F900BBE0F908D
:101C90000FBE0F901F9018951F920F920FB60F92C4
:101CA0000BB60F9211242F933F938F939F93EF9333
:101CB000FF932091051430910614809103149091A4
:101CC000041428173907E9F080910514909106143F
:101CD000E0910914F0910A14E80FF91F80818093B4
:101CE000CE0080910514909106140196209107145E
:101CF0003091081482239323909306148093051443
:101D000010C0209103143091041480910514909117
:101D100006142817390729F48091C9008F7D809314
:101D2000C900FF91EF919F918F913F912F910F905B
:101D30000BBE0F900FBE0F901F9018951F920F9221
:101D40000FB60F920BB60F9211242F933F934F9320
:101D50008F939F93EF93FF93409136012091F3135C
:101D60003091F4132F5F3F4F8091F7139091F81348
:101D7000282339238091F5139091F61328173907FA
:101D800079F08091F3139091F413E091F913F091AD
:101D9000FA13E80FF91F40833093F4132093F313E1
:101DA000FF91EF919F918F914F913F912F910F90C4
:101DB0000BBE0F900FBE0F901F9018951F920F92A1
:101DC0000FB60F920BB60F9211242F933F938F9360
:101DD0009F93EF93FF9320911514309116148091E7
:101DE00013149091141428173907E9F080911514F1
:101DF00090911614E0911914F0911A14E80FF91F3C
:101E0000808180933601809115149091161401966B
:101E10002091171430911814822393239093161451
:101E20008093151410C020911314309114148091D4
:101E30001514909116142817390729F4809131014F
:101E40008F7D80933101FF91EF919F918F913F9111
:101E50002F910F900BBE0F900FBE0F901F901895F3
:101E6000FC017183608385E06831780739F47093F1
:101E70001C1460931B141386128608C070931E14E2
:101E800060931D1481E090E0938782871382128211
:101E9000089520916D0C30916E0CC9018F5C9440B7
:101EA0008238910510F481E00895C901815595406B
:101EB0008238910510F482E00895C901835D954050
:101EC0008238910510F483E00895C9018555964044
:101ED0008138910510F484E00895265D364014F4AD
:101EE00080E0089585E00895A4E0B0E0EAE7FFE02F
:101EF0000C9487DE6091DB127091DC128091DD1210
:101F00009091DE120E94C7DB3B014C01809175115C
:101F100090917611A0917711B091781189839A836D
:101F2000AB83BC836091D7127091D8128091D91283
:101F30009091DA120E94C7DB1B012C01A090630371
:101F4000B0906403C0906503D0906603C401B301F0
:101F500029813A814B815C810E9451DD7B018C019A
:101F6000C201B101A60195010E9451DD9B01AC01A6
:101F7000C801B7010E9447DA0E9494DB60938D127A
:101F800070938E1280938F1290939012C401B301BC
:101F9000A60195010E9451DD7B018C01C201B101B6
:101FA00029813A814B815C810E9451DD9B01AC010A
:101FB000C801B7010E9448DA0E9494DB9095809591
:101FC000709561957F4F8F4F9F4F609391127093E3
:101FD000921280939312909394122496E2E10C94BF
:101FE000A3DE80E00895FC01DB01452B11F0838521
:101FF0008C9381E090E00895DC01FB01452B19F002
:1020000080811B968C9381E090E00895FC016385AC
:10201000772767FD7095872F972F0E94C7DB08955C
:10202000FC01DB014230510520F0838594858D93BE
:102030009C9382E090E00895DC01FB014230510561
:1020400030F0808191811C969C938E931B9782E047
:1020500090E00895FC0163857485882777FD80955D
:10206000982F0E94C7DB0895FC01238534854585A0
:102070005685B901CA010895CF93DF93FC01EB01A6
:102080004430510540F083859485A585B6858883C5
:102090009983AA83BB8384E090E0DF91CF91089578
:1020A000CF93DF93EC01FB014430510540F0808178
:1020B0009181A281B3818B879C87AD87BE8784E0A5
:1020C00090E0DF91CF910895E0911311F0911411F8
:1020D00087A990AD8130910539F00297F9F483E238
:1020E00061E00E94E2D9089581A58823D9F090E0AB
:1020F00080917911882309F491E0909379119923C3
:1021000019F083E260E002C083E261E00E94E2D95C
:10211000E0911311F091141111A6089583E260E08B
:102120000E94E2D908958BE360E00E94E2D908950D
:102130008BE361E00E94E2D908950E94981064E662
:1021400070E080E090E00E94E4D80E94931008952F
:1021500085E260E00E94E2D984E260E00E94E2D978
:1021600083E260E00E94E2D91092CC121092341205
:1021700008958091EB128F5F8093EB128150833032
:1021800011F41092EB128091EB12813059F08130F2
:1021900018F08230C1F40FC083E260E00E94E2D9FF
:1021A00085E205C085E260E00E94E2D984E261E058
:1021B0000E94E2D9089584E260E00E94E2D983E2BD
:1021C00061E00E94E2D908958091BA12813079F4D9
:1021D00084E461E00E94E2D982E461E00E94E2D9F5
:1021E00080E461E00E94E2D98EE361E00EC084E405
:1021F00060E00E94E2D982E460E00E94E2D980E4DB
:1022000060E00E94E2D98EE360E00E94E2D9089586
:1022100000D000D088E195E0EDB7FEB792838183CE
:102220008CEC95E0948383830E94A6C60F900F9058
:102230000F900F9008950E94081168EE73E080E0FF
:1022400090E00E94E4D88CE395E00E941DC7892BA2
:1022500089F084E261E00E94E2D98CE395E00E947B
:102260004DC7682F8AE295E00E94AEC784E260E025
:102270000E94E2D98AE295E00E941DC7892B89F06D
:1022800083E261E00E94E2D98AE295E00E944DC7B4
:10229000682F8CE395E00E94AEC783E260E00E9465
:1022A000E2D988E195E00E941DC7181619065CF670
:1022B00080E008950E94081168EE73E080E090E0ED
:1022C0000E94E4D800D000D088E195E0EDB7FEB7D9
:1022D000928381838DEE95E0948383830E94A6C6CA
:1022E0000F900F900F900F908CE395E00E941DC708
:1022F000892B49F08CE395E00E944DC7682F8CE351
:1023000095E00E94AEC788E195E00E941DC71816AF
:10231000190654F780E0089528E135E0882349F054
:1023200000D000D0EDB7FEB73283218388E496E079
:1023300008C000D000D0EDB7FEB73283218384E41B
:1023400096E0948383830E94A6C688E195E0EDB76A
:10235000FEB7928381838DE396E0948383830E940A
:10236000A6C60F900F900F900F900895EF92FF92D6
:102370000F931F93CF93DF930E94081168EE73E0D1
:1023800080E090E00E94E4D88FEDE82E86E0F82E01
:1023900004ED16E0C8E1D5E000D000D0EDB7FEB7FF
:1023A000D283C183F482E3820E94A6C680910B018E
:1023B000846080930B010F900F900F900F9068EB4B
:1023C0007BE080E090E00E94E4D8CE010E941DC72F
:1023D00018161906FCF000D000D0EDB7FEB7D28376
:1023E000C183148303830E94A6C680910B018B7F57
:1023F00080930B010F900F900F900F9068EB7BE094
:1024000080E090E00E94E4D8CE010E941DC718161B
:10241000190614F680E0CDB7DEB7E6E00C94AFDE27
:1024200000D000D088E195E0EDB7FEB792838183BC
:102430008AE297E0948383830E94A6C60F900F9050
:102440000F900F9080E008958DB79EB740970FB61C
:10245000F8949EBF0FBE8DBFEDB7FEB7319688E1F1
:1024600095E0ADB7BEB712969C938E9311978BE40F
:1024700097E09383828380917D0790917E07A0915E
:102480007F07B091800784839583A683B78380916B
:10249000810790918207A0918307B091840780877C
:1024A0009187A287B3878091850790918607A09135
:1024B0008707B091880784879587A687B7870E948A
:1024C000A6C68DB79EB740960FB6F8949EBF0FBEB6
:1024D0008DBF08958DB79EB740970FB6F8949EBFF5
:1024E0000FBE8DBFEDB7FEB7319688E195E0ADB771
:1024F000BEB712969C938E9311978EE697E09383C6
:1025000082838091890790918A07A0918B07B0916F
:102510008C0784839583A683B78380918D079091E0
:102520008E07A0918F07B091900780879187A2872F
:10253000B3878091910790919207A0919307B091F2
:10254000940784879587A687B7870E94A6C68DB70C
:102550009EB740960FB6F8949EBF0FBE8DBF0895EC
:1025600000D000D088E195E0EDB7FEB7928381837B
:1025700083E598E0948383830E94A6C60F900F9012
:102580000F900F9080E008950F931F938DB79EB723
:1025900008970FB6F8949EBF0FBE8DBFEDB7FEB77C
:1025A000319608E115E0ADB7BEB712961C930E93B5
:1025B00011978CE699E0938382838091340B9091FC
:1025C000350B9583848380914E0B90914F0B9783AD
:1025D00086830E94A6C6EDB7FEB73196ADB7BEB7EB
:1025E00012961C930E9311978EE599E09383828344
:1025F0008091880B9091890B958384838091A20BA5
:102600009091A30B978386830E94A6C6EDB7FEB771
:102610003196ADB7BEB712961C930E93119780E515
:1026200099E0938382838091DC0B9091DD0B9583FD
:1026300084838091F60B9091F70B978386830E9499
:10264000A6C6EDB7FEB73196ADB7BEB712961C93CE
:102650000E93119782E499E0938382838091300CEA
:102660009091310C9583848380914A0C90914B0C0E
:10267000978386830E94A6C6EDB7FEB73196ADB7A5
:10268000BEB712961C930E93119784E399E093833F
:1026900082838091840C9091850C958384838091B2
:1026A0009E0C90919F0C978386830E94A6C6EDB7DF
:1026B000FEB73196ADB7BEB712961C930E93119725
:1026C00086E299E0938382838091D80C9091D90C13
:1026D000958384838091F20C9091F30C9783868389
:1026E0000E94A6C6EDB7FEB73196ADB7BEB712963B
:1026F0001C930E93119788E199E0938382838091D4
:102700002C0D90912D0D958384838091460D909191
:10271000470D978386830E94A6C68DB79EB70896FD
:102720000FB6F8949EBF0FBE8DBF1F910F910895F5
:1027300000D000D088E195E0EDB7FEB792838183A9
:102740008BEE9AE0948383830E94A6C60F900F902D
:102750000F900F90089500D000D088E195E0EDB77C
:10276000FEB79283818387E89CE0948383830E94F1
:10277000A6C60F900F900F900F9080E0089500D0A4
:1027800000D088E195E0EDB7FEB7928381838BE4BA
:102790009EE0948383830E94A6C60F900F900F90B3
:1027A0000F900895A0E0B0E0E8EDF3E10C948FDE27
:1027B00037EEA32E35E0B32E21EEC22E25E0D22E29
:1027C00000E010E098E1E92E95E0F92E00D000D06D
:1027D00000D0EDB7FEB73196ADB7BEB71296FC92FA
:1027E000EE921197B382A282158304830E94A6C63B
:1027F000C0E0D0E08DB79EB706960FB6F8949EBFA6
:102800000FBE8DBFCE01800F911F0E9430E300D01C
:1028100000D000D0EDB7FEB73196ADB7BEB7129677
:10282000FC92EE921197D382C282848315820E9419
:10283000A6C621968DB79EB706960FB6F8949EBF92
:102840000FBE8DBFC031D105E9F6C7010E9469D71F
:10285000005F1F4F90E10030190709F0B7CF80E00B
:10286000CDB7DEB7EAE00C94ABDEA4E2B0E0EBE378
:10287000F4E10C948FDE8091B40A882309F493C0AC
:102880000E9408115EE1A52E56E0B52E6E01089457
:10289000C11CD11C48E1E42E45E0F42E64E670E052
:1028A00080E090E00E94E4D884EB95E00E948B9257
:1028B000D601E6ECF7E084E201900D928150E1F759
:1028C00084EB95E0B6010E94669F84EB95E00E9440
:1028D0004B976091BE057091BF058091C0059091A6
:1028E000C10521EE3EE245E652E40E9451DD20E0C2
:1028F00030E048EC52E40E9451DD0E9494DB613AE2
:102900002CE8720720E0820720E092072CF0605A42
:102910007C488040904006C097FF04C060567347D3
:102920008F4F9F4FEDB7FEB73E970FB6F894FEBF9F
:102930000FBEEDBF0DB71EB70F5F1F4FF282E182D2
:10294000F801B382A28224E630E040E050E00E9429
:102950006CDEF80124833583468357838091B80564
:102960009091B905918780878091BA059091BB05B8
:10297000938782878091BC059091BD059587848758
:102980000E94A6C62DB73EB7225F3F4F0FB6F89400
:102990003EBF0FBE2DBFC7010E941DC718161906E6
:1029A0000CF07CCF15C000D000D088E195E0EDB7E9
:1029B000FEB79283818384E196E0948383830E94AF
:1029C000A6C60F900F900F900F9080E00E948C1180
:1029D00080E0A496EAE00C94ABDE0F931F93CF93B4
:1029E000DF9380918F0A8823B9F400D000D088E16A
:1029F00095E0ADB7BEB712969C938E93119789E57B
:102A000096E014969C938E9313970E94A6C60F90FF
:102A10000F900F900F9030C00E9408110BE416E049
:102A2000C8E1D5E064E670E080E090E00E94E4D880
:102A300086E099E00E941AC300D000D000D0EDB724
:102A4000FEB73196ADB7BEB71296DC93CE93119711
:102A500013830283958384830E94A6C6EDB7FEB7D5
:102A600036960FB6F894FEBF0FBEEDBFCE010E94A2
:102A70001DC718161906B4F680E0DF91CF911F919B
:102A80000F910895EF92FF920F931F93CF93DF93CF
:102A90008091580590915905909347118093461164
:102AA000C0E0D0E064E170E080E090E00E94E4D813
:102AB00080E595E00E94F5802196CC33D10591F711
:102AC000C0E0D0E064E170E080E090E00E94E4D8F3
:102AD00080E595E00E94F580E0905A05F0905B0556
:102AE00000915C0510915D05E0924811F09249114A
:102AF00000934A1110934B112091461130914711C8
:102B0000C90163E0880F991F6A95E1F7820F931F4F
:102B10002091580530915905820F931F6AE070E0AB
:102B20000E9437DE70934711609346112196C4319D
:102B3000D10541F6E0924C11F0924D1100934E11E7
:102B400010934F11CDB7DEB7E6E00C94AFDEAF9235
:102B5000BF92CF92DF92EF92FF920F931F9380E587
:102B600095E00E94F580E0905A05F0905B05009199
:102B70005C0510915D05E0924C11F0924D110093AF
:102B80004E1110934F11609148117091491180912D
:102B90004A1190914B110E94C7DB5B016C01C80187
:102BA000B7010E94C7DB9B01AC01C601B5010E94C1
:102BB0002CDB0E9411DD7B018C016091461170912C
:102BC0004711882777FD8095982F0E94C7DB20E06A
:102BD00030E040E251E40E942CDB23E333E948E893
:102BE00053E40E9448DA9B01AC01C801B7010E947E
:102BF00051DD29E83EEA44EE56E40E9451DD20E032
:102C000030E040E251E40E942CDB0E9494DB9B0107
:102C1000AC01CA011F910F91FF90EF90DF90CF9010
:102C2000BF90AF9008950F931F93CF93DF930E94AF
:102C300008110E94421509E616E0C8E1D5E064E6F5
:102C400070E080E090E00E94E4D80E94A7157093A5
:102C500045116093441100D000D000D0EDB7FEB70D
:102C60003196ADB7BEB71296DC93CE93119713830E
:102C70000283758364830E94A6C68DB79EB70696AD
:102C80000FB6F8949EBF0FBE8DBFCE010E941DC728
:102C900018161906A4F680E0DF91CF911F910F91CD
:102CA0000895A0E0B0E0E7E5F6E10C948EDEEC01DB
:102CB00080918C09992787FD90958617970714F4C2
:102CC000188277C0CB01E4E0880F991FEA95E1F7FD
:102CD000861B970B80509C4F5C01CC24B7FCC094A2
:102CE000DC2C0E9430E38883860175010894E11C86
:102CF000F11C011D111DC7010E9430E3982E89832C
:102D00000894E11CF11C011D111DC7010E9430E354
:102D10008A830894E11CF11C011D111DC7010E944A
:102D200038E36B837C838D839E8387E090E0A0E013
:102D3000B0E0A80EB91ECA1EDB1EC5010E9438E312
:102D40007B018C01EF82F88609871A8784E090E086
:102D5000A0E0B0E0A80EB91ECA1EDB1EC5010E948D
:102D600038E39B01AC012B873C874D875E8794FE3F
:102D700020C08091571190915811A0915911B09194
:102D80005A11E80EF91E0A1F1B1FEF82F8860987E9
:102D90001A8780915B1190915C11A0915D11B091A7
:102DA0005E11280F391F4A1F5B1F2B873C874D87F9
:102DB0005E87CE01CDB7DEB7EBE00C94AADE8F9232
:102DC0009F92AF92BF92DF92EF92FF920F931F9369
:102DD000DF93CF93CDB7DEB72F970FB6F894DEBF52
:102DE0000FBECDBF68EE73E080E090E00E94E4D8B3
:102DF00000D000D008E115E0ADB7BEB712961C9325
:102E00000E93119783E996E014969C938E931397F3
:102E10000E94A6C62091820A3091830A0F900F90DB
:102E20000F900F9037FF11C000D000D0EDB7FEB764
:102E30001283018381E996E0948383830E94A6C66E
:102E40000F900F900F900F9021C000D000D000D0B5
:102E5000EDB7FEB73196ADB7BEB712961C930E9381
:102E6000119789E896E093838283C90164E670E054
:102E70000E9437DE758364830E94A6C6EDB7FEB755
:102E800036960FB6F894FEBF0FBEEDBF00D000D04F
:102E900000D0EDB7FEB7319608E115E0ADB7BEB78B
:102EA00012961C930E93119782E896E09383828387
:102EB00080918C09992787FD9095958384830E9442
:102EC000A6C6EDB7FEB73196ADB7BEB712961C9346
:102ED0000E93119785E796E0938382838091B009E2
:102EE000992787FD9095958384830E94A6C6FDE966
:102EF0008F2EF6E09F2EFF24EDB7FEB736960FB665
:102F0000F894FEBF0FBEEDBF5E010894A11CB11C7A
:102F1000D02EE12E46C0C501B8010E9451168DB7D2
:102F20009EB748970FB6F8949EBF0FBE8DBFEDB702
:102F3000FEB73196ADB7BEB71196DC9211971296D7
:102F4000EC9293828282158304838981868317821F
:102F50008A81808711868B81828713868C819D81EF
:102F6000AE81BF8184879587A687B7878885998535
:102F7000AA85BB85808B918BA28BB38B8C859D851D
:102F8000AE85BF85848B958BA68BB78B0E94A6C61A
:102F9000F394EDB7FEB778960FB6F894FEBF0FBE68
:102FA000EDBF0F2D10E080918C09992787FD90953A
:102FB000801791070CF0AFCF80E02F960FB6F894F2
:102FC000DEBF0FBECDBFCF91DF911F910F91FF905C
:102FD000EF90DF90BF90AF909F908F9008950F93E8
:102FE0001F9300EF12E14091DC0B5091DD0BC80103
:102FF00060E00E94CA824091DC0B5091DD0BC80159
:1030000061E00E94CA824091DC0B5091DD0BC80147
:1030100062E00E94CA824091DC0B5091DD0BC80136
:1030200063E00E94CA824091DC0B5091DD0BC80125
:1030300066E00E94CA824091DC0B5091DD0BC80112
:1030400067E00E94CA821F910F91089580EF92E17C
:103050000E944A83813009F060C08093671180EF3D
:1030600092E160E00E941983BC0182E19BE00E9432
:10307000F0D180EF92E161E00E941983BC0186E605
:103080009BE00E94F0D180EF92E162E00E94198300
:10309000BC018AEB9BE00E94F0D180EF92E163E0FB
:1030A0000E941983BC018EE09CE00E94F0D180EF69
:1030B00092E164E00E941983BC0182E69CE00E94D8
:1030C000F0D180EF92E165E00E941983BC0186EBAC
:1030D0009CE00E94F0D180EF92E166E00E941983AB
:1030E000BC018AE09DE00E94F0D180EF92E167E0B0
:1030F0000E941983BC018EE59DE00E94F0D1809171
:10310000C70B9091C80B23E08132920714F080E244
:1031100093E09093C80B8093C70B08950F931F9370
:10312000CF93DF930E94081168EE73E080E090E097
:103130000E94E4D804EC17E0C8E1D5E064E170E057
:1031400080E090E00E94E4D80E9426188DB79EB7D8
:1031500042970FB6F8949EBF0FBE8DBFEDB7FEB776
:103160003196ADB7BEB71296DC93CE931197138309
:10317000028380911F0B9091200B95838483809113
:10318000730B9091740B978386838091C70B9091FA
:10319000C80B9187808780911B0C90911C0C9387A2
:1031A000828780916F0C9091700C958784878091B5
:1031B000C30C9091C40C978786878091170D9091CE
:1031C000180D918B808B0E94A6C68DB79EB7429634
:1031D0000FB6F8949EBF0FBE8DBFCE010E941DC7D3
:1031E000181619060CF0AACF80E0DF91CF911F913D
:1031F0000F9108950F931F93CF93DF930E940811AF
:1032000068EE73E080E090E00E94E4D803EF17E0FE
:10321000C8E1D5E064E170E080E090E00E94E4D88D
:103220000E9426188DB79EB744970FB6F8949EBF9C
:103230000FBE8DBFEDB7FEB73196ADB7BEB71296D4
:10324000DC93CE9311971383028380911D0B909191
:103250001E0B958384838091710B9091720B9783E1
:1032600086838091C50B9091C60B91878087809152
:10327000190C90911A0C9387828780916D0C909114
:103280006E0C958784878091C10C9091C20C9787B2
:1032900086878091150D9091160D918B808B809172
:1032A000690D90916A0D938B828B0E94A6C68DB793
:1032B0009EB744960FB6F8949EBF0FBE8DBFCE0149
:1032C0000E941DC7181619060CF0A4CF80E0DF91EC
:1032D000CF911F910F910895EF92FF920F931F933B
:1032E00080E00E9434D8AA2797FDA095BA2FBC0190
:1032F000CD010E94C7DB7B018C016091FF0A7091B8
:10330000000B8091010B9091020B20E030E040E82F
:103310005AE30E9451DD9B01AC01C801B7010E9434
:1033200051DD2AE037ED43E650E40E9451DD2DECFB
:103330003CEC4CEC5DE30E9451DD7B018C01609123
:103340004B0370914C0380914D0390914E0326E600
:1033500036E646E65FE30E9451DD9B01AC01C80101
:10336000B7010E9448DA60934B0370934C0380933B
:103370004D0390934E0381E00E9434D8AA2797FD15
:10338000A095BA2FBC01CD010E94C7DB7B018C0147
:103390006091FF0A7091000B8091010B9091020BDC
:1033A00020E030E040E85AE30E9451DD9B01AC018F
:1033B000C801B7010E9451DD2AE037ED43E650E431
:1033C0000E9451DD2DEC3CEC4CEC5DE30E9451DDA4
:1033D0007B018C0160914F037091500380915103E8
:1033E0009091520326E636E646E65FE30E9451DD01
:1033F0009B01AC01C801B7010E9448DA60934F03FA
:1034000070935003809351039093520382E00E9483
:1034100034D8AA2797FDA095BA2FBC01CD010E94F0
:10342000C7DB7B018C016091FF0A7091000B8091DA
:10343000010B9091020B20E030E040E85AE30E943B
:1034400051DD9B01AC01C801B7010E9451DD2AE0AA
:1034500037ED43E650E40E9451DD2DEC3CEC4CECA2
:103460005DE30E9451DD7B018C01609153037091FB
:103470005403809155039091560326E636E646E6BE
:103480005FE30E9451DD9B01AC01C801B7010E94BE
:1034900048DA6093530370935403809355039093D9
:1034A000560383E00E9434D8AA2797FDA095BA2F2F
:1034B000BC01CD010E94C7DB7B018C016091FF0A3A
:1034C0007091000B8091010B9091020B20E030E095
:1034D00040E85AE30E9451DD9B01AC01C801B701ED
:1034E0000E9451DD2AE037ED43E650E40E9451DDB1
:1034F0002DEC3CEC4CEC5DE30E9451DD7B018C013A
:1035000060915703709158038091590390915A0329
:1035100026E636E646E65FE30E9451DD9B01AC01FC
:10352000C801B7010E9448DA7B018C01CB01D801A8
:103530008093570390935803A0935903B0935A0371
:1035400020919B0A213049F48091530390915403B8
:10355000A0915503B091560304C0223059F4C7011D
:10356000D8018093470390934803A0934903B093F5
:103570004A037DC0233019F0243009F078C08091CF
:103580004B0390914C03A0914D03B0914E03809357
:10359000470390934803A0934903B0934A03243010
:1035A00009F065C081E00E9434D8AA2797FDA09554
:1035B000BA2FBC01CD010E94C7DB7B018C01609159
:1035C000FF0A7091000B8091010B9091020B20E09B
:1035D00030E040E85AE30E9451DD9B01AC01C80194
:1035E000B7010E9451DD2CE53FE84AED51E40E940D
:1035F00051DD2DEC3CEC4CEC5DE30E9451DD7B0198
:103600008C0160915F1170916011809161119091B6
:10361000621126E636E646E65FE30E9451DD9B0135
:10362000AC01C801B7010E9448DA60935F11709342
:103630006011809361119093621123ED3CEB43EE96
:103640005CE30E9451DD9B01AC01609163117091BC
:10365000641180916511909166110E9448DA60931F
:1036600063117093641180936511909366111F919B
:103670000F91FF90EF9008950F931F93CF93DF93D7
:103680000E94081109EE16E0C8E1D5E064E670E09A
:1036900080E090E00E94E4D80E9426180E946C19F5
:1036A0008DB79EB740970FB6F8949EBF0FBE8DBFE3
:1036B000EDB7FEB73196ADB7BEB71296DC93CE9399
:1036C0001197138302838091470390914803A0913F
:1036D0004903B0914A0384839583A683B78380917D
:1036E0005F1190916011A0916111B091621180877A
:1036F0009187A287B3878091631190916411A09103
:103700006511B091661184879587A687B7870E9457
:10371000A6C68DB79EB740960FB6F8949EBF0FBE53
:103720008DBF4091C50B5091C60B80EF92E160E0D8
:103730000E94CA824091C50B5091C60B80EF92E166
:1037400061E00E94CA824091C50B5091C60B80EF88
:1037500092E162E00E94CA824091C50B5091C60B73
:1037600080EF92E163E00E94CA82CE010E941DC7F1
:10377000181619060CF08ACF80E0DF91CF911F91C7
:103780000F9108950F931F93CF93DF930E94081119
:1037900068EE73E080E090E00E94E4D809E017E072
:1037A000C8E1D5E064E170E080E090E00E94E4D8F8
:1037B0000E94261880911B0C90911C0C9093200C59
:1037C00080931F0C8EE09CE00E9464D28DB79EB760
:1037D00008970FB6F8949EBF0FBE8DBFEDB7FEB72A
:1037E0003196ADB7BEB71296DC93CE931197138383
:1037F000028380911B0C90911C0C95838483809193
:10380000230C9091240C978386830E94A6C68DB7C3
:103810009EB708960FB6F8949EBF0FBE8DBF40911D
:10382000230C5091240C80EF92E166E00E94CA8242
:10383000CE010E941DC7181619060CF0B3CF80E008
:10384000DF91CF911F910F9108956091C30C7091FA
:10385000C40C882777FD8095982F0E94C7DB20E055
:1038600030E04AE754E40E942CDB60932409709313
:10387000250980932609909327098091CC0A9927DE
:1038800087FD9095A92FB92FFC013197EB30F105F9
:1038900008F04FC1EE58FF4F0C94BEDE86EB9CE063
:1038A00060E070E040E45FE10E9490D080912409E4
:1038B00090912509A0912609B091270980931E0FA8
:1038C00090931F0FA093200FB093210F8093580F58
:1038D0009093590FA0935A0FB0935B0F089586EB06
:1038E0009CE060E070E04CE251E00E9490D060917A
:1038F000C30C7091C40C882777FD8095982F0E9487
:10390000C7DB20E030E04AE754E40E942CDBDC0116
:103910009B01AC012093240930932509409326098B
:103920005093270920932D0F30932E0F40932F0F84
:103930005093300FCB018093670F9093680FA09343
:10394000690FB0936A0F089586EB9CE060E070E029
:103950004CE251E00E9490D0809124099091250979
:10396000A0912609B09127098093700E9093710E53
:10397000A093720EB093730E8093AA0E9093AB0E29
:10398000A093AC0EB093AD0E089586EB9CE060E082
:1039900070E04CE251E00E9490D080912409909117
:1039A0002509A0912609B091270980937F0E909355
:1039B000800EA093810EB093820E8093B90E9093E7
:1039C000BA0EA093BB0EB093BC0E089586EB9CE09C
:1039D00060E070E048EE53E00E9490D080912409AE
:1039E00090912509A0912609B09127098093920F03
:1039F0009093930FA093940FB093950F089586EB37
:103A00009CE060E070E048EE53E00E9490D080912E
:103A1000240990912509A0912609B0912709809346
:103A2000E40E9093E50EA093E60EB093E70E089592
:103A300086EB9CE060E070E048EE53E00E9490D09E
:103A40008091240990912509A0912609B091270918
:103A50008093B4109093B510A093B610B093B710A4
:103A6000089586EB9CE060E273E048EE53E00E942C
:103A700090D08091240990912509A0912609B091B8
:103A800027098093E40A9093E50AA093E60AB0938D
:103A9000E70A089586EB9CE060E070E048EE53E0B2
:103AA0000E9490D02091C30C3091C40C82E02E3043
:103AB00038072CF080910B01846080930B012B5D03
:103AC0003140BCF580910B018B7F80930B010895F1
:103AD00086EB9CE060E070E048EE53E00E9490D0FE
:103AE0008091C30C9091C40C9093C9098093C8092C
:103AF000089586EB9CE060E070E040E757E10E94AB
:103B000090D08091240990912509A0912609B09127
:103B100027098093401090934110A0934210B093D6
:103B2000431080937A1090937B10A0937C10B093F5
:103B30007D1008950F931F93CF93DF930E94081178
:103B40000DE117E0C8E1D5E068EC70E080E090E0BE
:103B50000E94E4D80E9426180E94251C8DB79EB7AB
:103B600008970FB6F8949EBF0FBE8DBFEDB7FEB796
:103B70003196ADB7BEB71296DC93CE9311971383EF
:103B800002838091240990912509A0912609B09182
:103B9000270984839583A683B7830E94A6C68DB721
:103BA0009EB708960FB6F8949EBF0FBE8DBFCE018C
:103BB0000E941DC7181619063CF680E0DF91CF91D0
:103BC0001F910F91089580912B1290912C12892BA7
:103BD00009F45AC00E94B0D82091251230912612C3
:103BE0004091271250912812621B730B840B950B86
:103BF00020912D1230912E1240E050E06217730791
:103C00008407950708F440C037C0019790932C12A1
:103C100080932B1280912B1290912C12892BA1F161
:103C20000E94B0D8609325127093261280932712B9
:103C30009093281260912412862F8450843088F447
:103C400080912B1280FF05C04091291250912A12B9
:103C500004C040912F125091301280EF92E10E94E7
:103C6000CA8280912412853079F480910B0194E00E
:103C7000892780930B01089580912B1290912C122B
:103C80001816190614F2C6CF08950F931F93CF93F9
:103C9000DF93062F142F00D000D000D0EDB7FEB771
:103CA0003196C8E1D5E0ADB7BEB71296DC93CE939E
:103CB000119726E03AE033832283848315820E94A1
:103CC000A6C6EDB7FEB736960FB6F894FEBF0FBE88
:103CD000EDBFE02FF0E0EE0FFF1FE155FC4F6081DC
:103CE0007181CE010E9499D600D000D0ADB7BEB789
:103CF0001296DC93CE9311978AEF99E014969C93D9
:103D00008E9313970E94A6C60F900F900F900F905E
:103D1000112359F000D000D0EDB7FEB7D283C18394
:103D200086EF99E0948383830EC000D000D0ADB7B6
:103D3000BEB71296DC93CE93119781EF99E014965B
:103D40009C938E9313970E94A6C60F900F900F908E
:103D50000F90DF91CF911F910F910895CF93DF9333
:103D6000C0E0D0E088E195E060E072E00E9499D682
:103D70002196C832D105B1F788E195E062E072E0A2
:103D80000E9480D7DF91CF910895CF93DF93EC010C
:103D900007C0219788E195E062E072E00E9480D739
:103DA0001C161D06B4F3DF91CF91089500D000D00A
:103DB00088E195E0EDB7FEB79283818386E497E0D2
:103DC000948383830E94A6C60F900F900F900F904C
:103DD0000E94AE1E0E9424120E946A1282E090E0AD
:103DE0000E94C51E089500D000D000D0EDB7FEB7E8
:103DF000319688E195E0ADB7BEB712969C938E934D
:103E0000119782E099E093838283809134099091A5
:103E10003509958384830E94A6C68DB79EB7069602
:103E20000FB6F8949EBF0FBE8DBF0E94AE1E82E0FB
:103E300090E00E94C51E089500D000D088E195E072
:103E4000EDB7FEB79283818381E199E09483838308
:103E50000E94A6C60F900F900F900F900E94AE1E6A
:103E60000E94C41282E090E00E94C51E0895CF9384
:103E7000DF9300D000D0C8E1D5E0EDB7FEB7D28324
:103E8000C1838DE999E0948383830E94A6C60F9035
:103E90000F900F900F900E94AE1E00D000D0EDB793
:103EA000FEB7D283C18382E999E0948383830E9421
:103EB000A6C68091D80A0F900F900F900F90813076
:103EC00049F400D000D0EDB7FEB7D283C1838AE8B1
:103ED00099E015C0882349F400D000D0EDB7FEB7B3
:103EE000D283C18382E899E00AC0823081F400D095
:103EF00000D0EDB7FEB7D283C1838AE799E09483FF
:103F000083830E94A6C60F900F900F900F9082E0BF
:103F100090E00E94C51EDF91CF91089500D000D09F
:103F200088E195E0EDB7FEB7928381838DEC99E04F
:103F3000948383830E94A6C60F900F900F900F90DA
:103F40000E94AE1E80919B0A882311F40E948C115E
:103F500080919B0A813091F400D000D088E195E0F7
:103F6000EDB7FEB79283818385EC99E094838383D8
:103F70000E94A6C60F900F900F900F9080919B0A01
:103F8000823091F400D000D088E195E0EDB7FEB723
:103F9000928381838DEB99E0948383830E94A6C6EC
:103FA0000F900F900F900F9080919B0A833091F4A7
:103FB00000D000D088E195E0EDB7FEB79283818311
:103FC00082EB99E0948383830E94A6C60F900F90A2
:103FD0000F900F9080919B0A843091F400D000D014
:103FE00088E195E0EDB7FEB79283818384EA99E09A
:103FF000948383830E94A6C60F900F900F900F901A
:1040000082E090E00E94C51E08950F931F93CF9306
:10401000DF9300D000D088E195E0EDB7FEB7928342
:10402000818383EE99E0948383830E94A6C60F90D8
:104030000F900F900F900E94AE1E01E21AE0C0E0B8
:10404000D0E04091690A552747FD50950C2E02C0DB
:10405000559547950A94E2F7417050708C2FF801FE
:1040600060810E94451E2196045F1F4FC630D10516
:1040700041F782E090E00E94C51EDF91CF911F9131
:104080000F910895CF93DF9300D000D0C8E1D5E021
:10409000ADB7BEB71296DC93CE9311978EE49AE03B
:1040A00014969C938E9313970E94A6C60F900F9020
:1040B0000F900F900E94AE1E2091CC0A222321F473
:1040C00080E00E948C1120C000D000D000D0EDB75D
:1040D000FEB73196ADB7BEB71296DC93CE9311976B
:1040E00089E49AE093838283822F992787FD9095B4
:1040F000958384830E94A6C6EDB7FEB736960FB6A9
:10410000F894FEBF0FBEEDBF82E090E00E94C51E96
:10411000DF91CF91089500D000D088E195E0EDB710
:10412000FEB79283818387EC93E1948383830E941B
:10413000A6C60F900F900F900F900E94AE1E809118
:10414000BC120E948C1182E090E00E94C51E08956E
:10415000ACE0B0E0EEEAF0E20C9497DE85E997E09F
:104160000E94C8B2DE011196EAE1F8E08CE001900D
:104170000D928150E1F7A5E1B1E1FE0131968CE0AD
:1041800001900D928150E1F72C96E2E00C94B3DEA1
:10419000A0E3B0E0EEECF0E20C9487DEDE011196D5
:1041A000E6ECF7E084E201900D928150E1F729807E
:1041B0003A804B805C806D847E848F849888A98C43
:1041C000BA8CCB8CDC8C89A19AA1ABA1BCA189A7AC
:1041D0009AA7ABA7BCA78D8D9E8DAF8DB8A18DA3DF
:1041E0009EA3AFA3B8A7C201B101A20191010E9491
:1041F00051DD7B018C01C401B301A40193010E9434
:1042000051DD9B01AC01C801B7010E9448DA0E9450
:10421000BEDD6DA77EA78FA798ABD601C501B058AC
:1042200080936D1190936E11A0936F11B0937011E4
:10423000C601B501A60195010E9451DD9B01AC01AB
:1042400060E070E080E89FE30E9447DA0E94BEDDF4
:104250007B018C0160935B0370935C0380935D032F
:1042600090935E0369A57AA58BA59CA5A8019701EB
:104270000E942CDB60935F03709360038093610363
:10428000909362036DA17EA18FA198A5A8019701CB
:104290000E942CDB609371117093721180937311E3
:1042A00090937411C401B3012DA53EA54FA558A943
:1042B0000E942CDB60936303709364038093650317
:1042C00090936603C201B1012DA53EA54FA558A943
:1042D0000E942CDB60937511709376118093771197
:1042E00090937811E096E2E10C94A3DEA4E2B0E0B2
:1042F000ECE7F1E20C9491DE0E94D61E85E497E093
:1043000064EE78ED0E94BEC20E94D61E0E94081183
:1043100068EE73E080E090E00E94E4D80E94B0D89C
:10432000609368117093691180936A1190936B1177
:1043300017E3C12E17E0D12EB8E1EB2EB5E0FB2E2E
:104340008E010F5F1F4F0E94B0D8209168113091ED
:10435000691140916A1150916B11621B730B840BB0
:10436000950B653071058105910508F46AC00E94BE
:10437000A82080916C118F5F80936C11843011F4B0
:104380000E94C82080916C11843109F05AC00E94AB
:10439000261810926C118DB79EB740970FB6F894FF
:1043A0009EBF0FBE8DBFEDB7FEB73196ADB7BEB79E
:1043B0001296FC92EE921197D382C2828091950759
:1043C00090919607A0919707B09198078483958361
:1043D000A683B7838091990790919A07A0919B0734
:1043E000B0919C0780879187A287B38780919D07B2
:1043F00090919E07A0919F07B091A0078487958711
:10440000A687B7870E94A6C68DB79EB740960FB6FF
:10441000F8949EBF0FBE8DBF8091B40A882389F0A7
:1044200084EB95E00E948B92D801E6ECF7E084E201
:1044300001900D928150E1F784EB95E0B8010E9464
:10444000669F88E195E00E941DC7181619060CF0BA
:104450007ACF80E0A496E8E00C94ADDEAF92BF92F4
:10446000CF92DF92EF92FF920F931F937C018B010B
:10447000FB016781708581859285F70127813085F1
:1044800041855285621B730B840B950B0E94C7DB21
:104490005B016C01F8016385748585859685F7015C
:1044A0002385348545855685621B730B840B950BDC
:1044B0000E94C7DB20916A0330916B0340916C032B
:1044C00050916D030E9451DD7B018C01C601B50145
:1044D000A60195010E9451DD5B016C01C801B70185
:1044E000A80197010E9451DD9B01AC01C601B501F5
:1044F0000E9448DA0E94BEDD28EC32E646E35CE327
:104500000E9451DD0E9494DB9B01AC01CA011F9106
:104510000F91FF90EF90DF90CF90BF90AF900895F4
:10452000CF92DF92FF920F931F93CF93DF930E945E
:10453000081100D000D008E115E0ADB7BEB7129663
:104540001C930E93119786E997E014969C938E9393
:1045500013970E94A6C60F900F900F900F9068EED1
:1045600073E080E090E00E94E4D882E9C82E87E002
:10457000D82EC0E0D0E0F02E012F21C08EE495E0CF
:104580006C2F0E94048400D000D000D0EDB7FEB79D
:104590003196ADB7BEB71196FC92119712960C9357
:1045A000D382C282958384830E94A6C62196EDB7EA
:1045B000FEB736960FB6F894FEBF0FBEEDBFC930FA
:1045C000D105E4F288E195E00E9469D764E170E0EA
:1045D00080E090E00E94E4D888E195E00E941DC749
:1045E000181619061CF0C0E0D0E0E9CF80E0DF919A
:1045F000CF911F910F91FF90DF90CF900895A0E091
:10460000B0E0E5E0F3E20C9491DE0E94081168EE60
:1046100073E080E090E00E94E4D82BE9C22E27E00E
:10462000D22E98E1E92E95E0F92E6DE471E080E05C
:1046300090E00E94E4D80E94641080911311909140
:1046400014110E94B9BCC0911311D09114118FA103
:10465000882309F445C08DB79EB742970FB6F894EA
:104660009EBF0FBE8DBF0DB71EB70F5F1F4FEDB7BB
:10467000FEB7F282E182F801D382C2828C859D85E9
:10468000AE85BF8584839583A683B78388899989FE
:10469000AA89BB8980879187A287B3876C897D8926
:1046A0008E899F8924E630E040E050E00E946CDE75
:1046B000F80124873587468757878EA1808B118A1A
:1046C0000E94A6C6E0911311F091141117A28DB7A4
:1046D0009EB742960FB6F8949EBF0FBE8DBF06C020
:1046E00088E195E063E072E00E9499D688E195E068
:1046F0000E941DC7181619060CF097CF80E0CDB7A1
:10470000DEB7E8E00C94ADDE00D000D088E195E0A3
:10471000EDB7FEB79283818388E298E09483838328
:104720000E94A6C60F900F900F900F9088E291E123
:104730000E94F78E80E008958DE391E10E94F78E4C
:1047400080E00895CF93DF9300D000D0C8E1D5E09A
:10475000EDB7FEB7D283C18384EF98E0948383835F
:104760000E94A6C60F900F900F900F908091340B6F
:104770009091350B8451954064F168EE73E080E0D0
:1047800090E00E94E4D800D000D0EDB7FEB7D2830D
:10479000C1838BEC98E0948383830E94A6C60F901C
:1047A0000F900F900F9068EE73E080E090E00E9411
:1047B000E4D800D000D0EDB7FEB7D283C18388EA39
:1047C00098E0948383830E94A6C60F900F900F9069
:1047D0000F908FE291E10E94F78E80E0DF91CF9100
:1047E000089581E291E10E94F78E80E0089584E8C7
:1047F0009AE00E94198800D000D088E195E0EDB7DA
:10480000FEB7928381838CED99E0948383830E9429
:10481000A6C60F900F900F900F900E94AE1E809131
:104820008F0A0E948C1182E090E00E94C51E0895BC
:10483000A0E0B0E0EEE1F4E20C9491DE00D000D014
:1048400048E1E42E45E0F42EADB7BEB71296FC92D7
:10485000EE92119780E49AE014969C938E931397AE
:104860000E94A6C60F900F900F900F900E94AE1E50
:104870008091B40A0E948C1134EBC32E35E0D32E04
:10488000C6010E945097CDB7DEB728970FB6F894AF
:10489000DEBF0FBECDBF0DB71EB70F5F1F4FFA8231
:1048A000E98220E33AE0F8013383228321EE3EE2FD
:1048B00045E652E40E9451DDD80114966D937D9334
:1048C0008D939C9317970E94A6C6CDB7DEB7289606
:1048D0000FB6F894DEBF0FBECDBFC6010E944B9746
:1048E0009C01EDB7FEB770970FB6F894FEBF0FBEF0
:1048F000EDBF3196ADB7BEB71296FC92EE9211970E
:104900008FE09AE093838283E90188819981AA816B
:10491000BB8184839583A683B7838C819D81AE817F
:10492000BF8180879187A287B38788859985AA856B
:10493000BB8584879587A687B7870E94A6C6EDB7F3
:10494000FEB770960FB6F894FEBF0FBEEDBF82E0C3
:1049500090E00E94C51ECDB7DEB7E8E00C94ADDE56
:10496000FF920F931F93F82E8B0188E090E00E9436
:10497000C51E0E94F31E0E941C1F0E94371F0E942A
:104980008E1F0E94F7230E9405200E94D61E0E94BF
:1049900018248F2DB8010E94CB8D80E01F910F91BC
:1049A000FF900895FB01608971898289938925E3CD
:1049B0003AEF4EE85CE30E9451DDAB01BC0184EBB1
:1049C00095E00E94EBA10E94182480E00895FB016D
:1049D00084858093CC0A81EC9AE00E94A8880E948A
:1049E000422080E0089500D000D088E195E0EDB746
:1049F000FEB7928381838DEF9AE0948383830E9434
:104A0000A6C681E08093C00A0F900F900F900F9080
:104A100085EB9AE00E94A88864E170E080E090E075
:104A20000E94E4D888E195E00E941DC71816190677
:104A30009CF71092C00A85EB9AE00E94A88880E05B
:104A4000089564E170E080E090E00E94E4D80E9464
:104A500026188091DC0B9091DD0B90937B11809355
:104A60007A1190937D1180937C11909381118093A2
:104A7000801120911F0B3091200B4BE0293B340714
:104A800034F08C599F4F90937B1180937A11285466
:104A9000344F54F480917C1190917D118C599F4F2B
:104AA00090937D1180937C118091730B9091740B86
:104AB000895B9B4054F080918011909181118C59B9
:104AC0009F4F909381118093801140917A11509162
:104AD0007B1180EF92E160E00E94CA8240917C11DC
:104AE00050917D1180EF92E161E00E94CA82409175
:104AF00080115091811180EF92E163E00E94CA829F
:104B000088E195E00E941DC7181619060CF099CF90
:104B10001092C00A85EB9AE00E94A88880E0089570
:104B2000FF920F931F93CF93DF9300D000D088E1C3
:104B300095E0EDB7FEB79283818382EA9AE0948391
:104B400083830E94A6C60F900F900F900F900E9433
:104B50000811FF2400E0C1E0D0E064E170E080E0F3
:104B600090E00E94E4D80E9426180E94490F182F56
:104B7000F81609F190E0FC01EE0FFF1FE80FF91F96
:104B8000EE0FFF1FEE0FFF1FEA5EF54F03850830A3
:104B900008F007E04091690A552747FD5095012E1E
:104BA00002C0559547950A94E2F741705070812FE5
:104BB000602F0E94451E80911F0B9091200B97FF44
:104BC00003C0909581959F4F895B9B404CF10F5F8F
:104BD000083009F400E0812F90E0FC01EE0FFF1F88
:104BE000E80FF91FEE0FFF1FEE0FFF1FEA5EF54FF4
:104BF00003874091690A552747FD5095012E02C051
:104C0000559547950A94E2F741705070812F602FB7
:104C10000E94451E64EF71E080E090E00E94E4D8BD
:104C200080911B0C90911C0C895B9B400CF1CE0178
:104C3000012E02C0880F991F0A94E2F74091690A79
:104C4000482B4093690A552747FD5095012E02C015
:104C5000559547950A94E2F741705070812F602F67
:104C60000E94451E64EF71E080E090E00E94E4D86D
:104C700080911B0C90911C0C8854944F1CF5CE0114
:104C8000012E02C0880F991F0A94E2F780952091A7
:104C9000690A82238093690A482F552747FD50955A
:104CA000012E02C0559547950A94E2F74170507065
:104CB000812F602F0E94451E64EF71E080E090E03C
:104CC0000E94E4D888E195E00E941DC7F12E1816D5
:104CD00019060CF042CFC6E1DAE0CE010E94A888A6
:104CE0002C96FAE0CE35DF07C1F7CE010E94A888E6
:104CF0000E9498130E94052080E0CDB7DEB7E5E062
:104D00000C94B0DEA4E2B0E0E8E8F6E20C9495DEA4
:104D100080E090E0A0E8BFE389839A83AB83BC8303
:104D200080E090E0A0E0B0E08D839E83AF83B88701
:104D300089879A87AB87BC878D879E87AF87B88B1B
:104D400020E030E040E85FEB298B3A8B4B8B5C8BAB
:104D50008D8B9E8BAF8BB88F898F9A8FAB8FBC8FCB
:104D60008D8F9E8FAF8FB8A329A33AA34BA35CA3CB
:104D700004EB15E0C801BE016F5F7F4F0E945792A0
:104D800085E997E0B8010E9428A3C8010E94AF946A
:104D9000C8010E944B97A496E4E00C94B1DECF9337
:104DA000DF93FB01C285D385CE0168E87AE00E94DB
:104DB00047E0892B21F481E080938F0A09C0CE015E
:104DC00064E87AE00E9447E0892B39F410928F0A58
:104DD00084E89AE00E94A88812C000D000D088E140
:104DE00095E0EDB7FEB79283818380E79AE09483E4
:104DF00083830E94A6C60F900F900F900F900E9481
:104E0000F72380E0DF91CF910895CF93DF93FB01EB
:104E1000EB012A96828593856EE97AE00E9447E04D
:104E2000892B19F410929B0A0FC02A813B814C8177
:104E30005D81DA01C9010197A109B1090497A105B2
:104E4000B10538F420939B0A80E99AE00E94A88873
:104E500012C000D000D088E195E0EDB7FEB7928394
:104E600081838BE89AE0948383830E94A6C60F9087
:104E70000F900F900F900E948E1F80E0DF91CF91D6
:104E80000895CF93DF93FB01C285D385CE0169EDF1
:104E90007BE00E9447E0892B11F481E019C0CE012C
:104EA00067ED7BE00E9447E0892B39F0CE0165ED8C
:104EB0007BE00E9447E0892B19F41092D80A0AC0BF
:104EC000CE0163ED7BE00E9447E0892B41F482E054
:104ED0008093D80A8DEC9AE00E94A88812C000D076
:104EE00000D088E195E0EDB7FEB79283818381EC35
:104EF0009BE0948383830E94A6C60F900F900F902F
:104F00000F900E94371F80E0DF91CF910895ACE0B1
:104F1000B0E0EDE8F7E20C9495DEFB010285138525
:104F2000C8016DE67AE00E9447E0892B51F481E0E8
:104F30008093B40A89EA9AE00E94A8880E94822697
:104F40003CC0C80169E67AE00E9447E0892B11F570
:104F500080E090E0A0E0B0E089839A83AB83BC83DB
:104F60008D839E83AF83B88789879A87AB87BC87F9
:104F700084EB95E0BE016F5F7F4F0E942E9784EB1C
:104F800095E00E94F7A11092B40A89EA9AE00E9483
:104F9000A88813C000D000D088E195E0EDB7FEB737
:104FA0009283818386E59AE0948383830E94A6C6D8
:104FB0000F900F900F900F9004C089EA9AE00E9422
:104FC000A8880E94182480E02C96E4E00C94B1DEBE
:104FD00085E497E064EE78ED0E94A9C20E946A120F
:104FE0000E94D61E80E008950F931F93CF93DF9306
:104FF00088E195E065E072E00E9480D700E064E11E
:1050000070E080E090E00E94E4D80E9426180F5FD4
:105010000436A9F7C0911D0BD0911E0B81E0C43F4F
:10502000D8073CF468EE73E080E090E00E94E4D89A
:10503000F9CFD093350BC093340B2091710B309185
:10504000720B3093890B2093880B0091C50B109144
:10505000C60B1093DD0B0093DC0B8091190C909123
:105060001A0C9093310C8093300CA0916D0CB09180
:105070006E0CB093850CA093840CE091C10CF09160
:10508000C20CF093D90CE093D80C6091150D70917F
:10509000160D70932D0D60932C0D4091690D50915C
:1050A0006A0D5093810D4093800DD0934F0BC093A8
:1050B0004E0B3093A30B2093A20B1093F70B00938E
:1050C000F60B90934B0C80934A0CB0939F0CA093DB
:1050D0009E0CF093F30CE093F20C7093470D6093E9
:1050E000460D50939B0D40939A0DD093420BC09365
:1050F000410B3093960B2093950B90933E0C80932D
:105100003D0C8CED95E09093920C8093910C9093D4
:10511000E60C8093E50C90933A0D8093390D9093B3
:105120008E0D80938D0D00D000D088E195E0EDB715
:10513000FEB7928381838BED9BE0948383830E94EF
:10514000A6C60F900F900F900F9064E170E080E082
:1051500090E00E94E4D80E94261882E19BE00E9421
:10516000E8D086E69BE00E94E8D08AEB9BE00E94B4
:10517000E8D08EE09CE00E94E8D082E69CE00E94AD
:10518000E8D086EB9CE00E94E8D08AE09DE00E9497
:10519000E8D08EE59DE00E94E8D088E195E00E948D
:1051A0001DC7181619068CF664E170E080E090E0E7
:1051B0000E94E4D888E195E00E949AC782E19BE0D2
:1051C0000E941ED386E69BE00E941ED38AEB9BE0E2
:1051D0000E941ED38EE09CE00E941ED382E69CE0DB
:1051E0000E941ED386EB9CE00E941ED38AE09DE0C5
:1051F0000E941ED38EE59DE00E941ED30E9498134C
:105200000E941C1F80E0DF91CF911F910F910895A4
:1052100000D000D088E195E0EDB7FEB7928381839E
:1052200088E39CE0948383830E94A6C60F900F902E
:105230000F900F9088E195E00E944DC7FFEF8F3FE0
:105240009F07C1F38937910529F08935910511F040
:105250008FEF08950E94848800D000D088E195E007
:10526000EDB7FEB79283818383E19CE094838383CF
:105270000E94A6C60F900F900F900F9068EE73E0FB
:1052800080E090E00E94E4D8FFCFCF93DF9300D07E
:1052900000D088E195E0EDB7FEB79283818386E781
:1052A0009CE0948383830E94A6C6C0E0D0E00F9068
:1052B0000F900F900F90CE0160E00E9448E321967E
:1052C000F0E1C030DF07B9F700D000D088E195E009
:1052D000EDB7FEB79283818380E79CE0948383835C
:1052E0000E94A6C60F900F900F900F90DF91CF9164
:1052F00008950E94452980E00895EF92FF920F9350
:105300001F93CF93DF937B018230A1F000D000D0B8
:1053100088E195E0EDB7FEB79283818385E39DE058
:10532000948383830E94A6C68FEF0F900F900F90F7
:105330000F9091C0FB0102851385C80161E37DE0F8
:105340000E9434E0892B19F4CFEFDFEF63C0C8016E
:1053500063E27DE00E9434E0C0E0D0E0892B11F4EC
:10536000C1E0D0E0C80166E17DE00E9434E0892B15
:1053700009F4C260C80162E17DE00E9434E0892B3B
:1053800009F4C460C8016FE07DE00E9434E0892B1D
:1053900009F4C860C8016AE07DE00E9434E0892B0E
:1053A00009F4C061C80165E07DE00E9434E0892B0A
:1053B00009F4C062C80160E07DE00E9434E0892BFE
:1053C00009F4C064C8016CEF7CE00E9434E0892BD2
:1053D00009F4C068C80168EF7CE00E9434E0892BC2
:1053E00009F4D160C80164EF7CE00E9434E0892BAD
:1053F00009F4D260C8016DEE7CE00E9434E0892B94
:1054000009F4D460C80165EE7CE00E9434E0892B89
:1054100009F4D860F701808191816EED7CE00E94F3
:1054200034E0892B39F48091750A9091760AC82B63
:10543000D92B08C0C095D0958091750A9091760AB5
:10544000C823D923D093760AC093750A8AE69AE0D6
:105450000E94A88880E0CDB7DEB7E6E00C94AFDE0E
:10546000CF93DF9300D000D088E195E0EDB7FEB791
:105470009283818385E59DE0948383830E94A6C601
:10548000C1E0D0E00F900F900F900F908AEC93E165
:10549000BE010E9403C42196F0E1C030DF07B1F7DE
:1054A0008AEC93E161E070E00E94F7C38AEC93E13B
:1054B00063EA0E94ADC48AEC93E165E90E94ADC441
:1054C0008AEC93E160EF0E94ADC48AEC93E160E066
:1054D0000E94ADC48AEC93E16AEB0E94ADC48AECF1
:1054E00093E10E9425C500D000D088E195E0EDB79A
:1054F000FEB79283818387E49DE0948383830E9437
:10550000A6C60F900F900F900F9080E0DF91CF9183
:1055100008956F927F928F929F92AF92BF92CF9297
:10552000DF92EF92FF920F931F930AEC13E1C801F1
:105530000E940EC63C01C8010E940EC64C01C80163
:105540000E940EC65C01C8010E940EC66C01C80113
:105550000E940EC67C01C8010E940EC62DB73EB740
:10556000205130400FB6F8943EBF0FBE2DBFEDB7AF
:10557000FEB7319628E135E0ADB7BEB712963C9341
:105580002E93119724E73DE0338322837582648252
:1055900097828682B186A086D386C286F586E48607
:1055A000978786870E94A6C62DB73EB7205F3F4FDC
:1055B0000FB6F8943EBF0FBE2DBF1F910F91FF9005
:1055C000EF90DF90CF90BF90AF909F908F907F90A3
:1055D0006F900895EF92FF920F931F9300D000D029
:1055E00008E115E0ADB7BEB712961C930E93119764
:1055F00087E99DE014969C938E9313970E94A6C60C
:105600000F900F900F900F908AECE82E83E1F82E08
:10561000C7010E949DC5E82FF0E0EE0FFF1FE15586
:10562000FC4F60817181C8010E9499D6C7010E9418
:105630000EC600D000D000D0EDB7FEB73196ADB7A2
:10564000BEB712961C930E93119721E93DE0338368
:105650002283958384830E94A6C6EDB7FEB7369653
:105660000FB6F894FEBF0FBEEDBF1F910F91FF90D4
:10567000EF9008952F923F924F925F926F927F9298
:105680008F929F92AF92BF92CF92DF92EF92FF9252
:105690000F931F930AEC13E1C8010E940EC61C0170
:1056A000C8010E940EC62C01C8010E940EC63C0112
:1056B000C8010E940EC64C01C8010E940EC65C01C2
:1056C000C8010E940EC66C01C8010E940EC67C0172
:1056D000C8010E940EC62DB73EB7245130400FB608
:1056E000F8943EBF0FBE2DBFEDB7FEB7319628E14F
:1056F00035E0ADB7BEB712963C932E9311972CE9C7
:105700003DE033832283358224825782468271862C
:10571000608693868286B586A486D786C686F18AF9
:10572000E08A938B828B0E94A6C62DB73EB72C5E73
:105730003F4F0FB6F8943EBF0FBE2DBF1F910F9184
:10574000FF90EF90DF90CF90BF90AF909F908F90A1
:105750007F906F905F904F903F902F9008959F9211
:10576000AF92BF92CF92DF92EF92FF920F931F936F
:105770000AEC13E1C8010E940EC65C01C8010E9438
:105780009DC5982EC8010E940EC66C01C8010E94DA
:105790000EC67C01C8010E940EC62DB73EB72E5022
:1057A00030400FB6F8943EBF0FBE2DBFEDB7FEB729
:1057B000319628E135E0ADB7BEB712963C932E93F3
:1057C000119722EC3DE033832283B582A482968236
:1057D0001782D186C086F386E286958784870E94E9
:1057E000A6C62DB73EB7225F3F4F0FB6F8943EBF17
:1057F0000FBE2DBF1F910F91FF90EF90DF90CF90C4
:10580000BF90AF909F900895AF92BF92CF92DF92DA
:10581000EF92FF920F931F930AEC13E1C8010E94CD
:105820000EC65C01C8010E940EC66C01C8010E9430
:105830000EC67C01C8010E940EC62DB73EB72C5083
:1058400030400FB6F8943EBF0FBE2DBFEDB7FEB788
:10585000319628E135E0ADB7BEB712963C932E9352
:10586000119725E53EE033832283B582A482D78257
:10587000C682F186E086938782870E94A6C62DB7EE
:105880003EB7245F3F4F0FB6F8943EBF0FBE2DBF0B
:105890001F910F91FF90EF90DF90CF90BF90AF904E
:1058A00008951F938AEC93E161E070E00E9424C6A2
:1058B00010E08AEC93E10E949DC5113051F0113047
:1058C00018F0123099F408C010E0833A79F411E02E
:1058D0000DC0853951F407C0803F39F48AEC93E15B
:1058E0000E949DC50AC012E001C010E08AEC93E15D
:1058F0000E945EC30197E9F280E01F910895EF9244
:10590000FF920F931F93CF93DF938C01C0E0D0E100
:105910001FC0CE01800F911F62E070E00E9437DE51
:10592000F62EE72E8AEC93E10E9424C68AEC93E1DE
:105930000E94CDC56F5F7F4F8F4F9F4F29F48F2DF2
:105940009E2D9C01E90104C08F2D9E2D9C01890193
:10595000CE01801B910B0297E4F6CE01CDB7DEB7E6
:10596000E6E00C94AFDEA0E0B0E0E9EBFCE20C94E2
:105970008FDEE82E6B015A018AEC93E161E070E062
:105980000E9424C610E08AEC93E10E949DC511306C
:1059900051F0113018F01230A9F508C010E0833A28
:1059A00089F511E02FC0853961F529C0803F49F59F
:1059B0008AEC93E10E949DC5F82EC0E0D0E00E2D48
:1059C00010E00FC08AEC93E10E940EC6F6019183AD
:1059D00080838AEC93E10E940EC6F5019183808357
:1059E0002196C017D10774F3EF1499F4F601808162
:1059F00091810E947F2CF501918380830AC012E07F
:105A000001C010E08AEC93E10E945EC3019709F4A3
:105A1000BACFCDB7DEB7EAE00C94ABDEA4E0B0E0DD
:105A2000E4E1FDE20C948BDE0E94512CD82E00D0D4
:105A300000D008E115E0ADB7BEB712961C930E93E7
:105A400011978AEC91E114969C938E9313970E9480
:105A5000A6C68091750A9091760A0F900F900F90CC
:105A60000F90009759F400D000D0EDB7FEB7128325
:105A7000018385EC91E19483838308C180FF14C086
:105A800000D000D0ADB7BEB712961C930E931197FD
:105A900086EB91E114969C938E9313970E94A6C671
:105AA0000F900F900F900F908091750A81FF12C098
:105AB00000D000D088E195E0EDB7FEB792838183F6
:105AC00088EA91E1948383830E94A6C60F900F9089
:105AD0000F900F908091750A82FF16C000D000D001
