:100000000C94EB0A0C94170B0C94170B0C94170B15
:100010000C94170B0C94170B0C94170B0C94170BD8
:100020000C94170B0C94170B0C94170B0C94170BC8
:100030000C94170B0C94170B0C94170B0C94087B57
:100040000C94170B0C94170B0C94170B0C94170BA8
:100050000C94170B0C94170B0C94170B0C940D9E0F
:100060000C94170B0C94A40D0C94E40D0C94170B2A
:100070000C94170B0C94170B0C94170B0C94170B78
:100080000C94170B0C94170B0C94170B0C94170B68
:100090000C94360E0C94760E0C94170B0C94979AC5
:1000A0000C94170B0C9475790C94170B0C94170B7C
:1000B0000C94170B0C94170B0C94170B0C94170B38
:1000C0000C94170B0C94170B0C94170B0C94170B28
:1000D0000C94170B0C94170B0C94C80E0C94080F6F
:1000E0000C94170B631B841BFB1BB91BDA1B141C22
:1000F0002D1C461C5F1C7D1CEB2F0C30EE2FF12FAE
:10010000F42FF72FFA2FFD2F00300330063009307F
:10011000863A863AAA3A193BEE3A343B4F3B7C3B4F
:10012000BA3B013CEA51E651F351F951155259528B
:100130004552705231524B537753805383538653F9
:100140001F5D89531F5D1F5D1F5D8C538F5392533D
:10015000B353B153B153B153BF53B153B553B1536B
:10016000B153C253CA53C453C753B153B153B1531C
:10017000CF53B153B153B153B153B153CA53B15328
:10018000CC53EC79F179F679FB79007A057A0A7A21
:100190000F7A147A197A1E7A4A9F4D9F409F449F86
:1001A000869F519F559F5B9F5F9F639F699F6D9F38
:1001B000719F779F7B9F819F084AD73B3BCE016E03
:1001C00084BCBFFDC12F3D6C74319ABD56833DDAAE
:1001D0003D00C77F11BED9E4BB4C3E916BAAAABEBD
:1001E000000000803F05A84CCDB2D44EB93836A9E6
:1001F000020C50B9918688083CA6AAAA2ABE000023
:1002000000803F4C6F670064756D70000000000057
:1002100000000000001F306572617365000000007F
:1002200000000000007928656E61626C65000000C6
:100230000000000000C62764697361626C650000FD
:100240000000000000C62768656C70000000000018
:100250000000000000CD13706C616E6E6572006767
:1002600063730000000000000000000000D75E7310
:1002700065747570006572617365000000000000B0
:10028000000000C227726573657400000000000062
:100290000000005127726164696F000000000000D7
:1002A0000000003D266672616D65000000000000E0
:1002B00000000096256D6F746F72730000000000DF
:1002C0000000008E23657363000000000000000042
:1002D00000000060236C6576656C00000000000083
:1002E0000000006D1D6D6F6465730000000000006C
:1002F0000000006924626174746572790000000076
:100300000000005A25736F6E61720000000000004B
:100310000000002425636F6D70617373000000009E
:10032000000000DC2574756E650000000000000010
:1003300000000054236465636C696E6174696F6EBC
:100340000000003F2373686F77000000000000008A
:100350000000001D2341726475436F707465722044
:10036000322E302E34312042657461006C6F677319
:10037000000000000000000000005E22736574753C
:10038000700000000000000000000F22746573740C
:1003900000000000000000000000092268656C7089
:1003A00000000000000000000000D212706C616EBE
:1003B0006E657200000000000000F1217465737426
:1003C0000070776D00000000000000000000004D8C
:1003D00018726164696F000000000000000000E115
:1003E000176661696C736166650000000000004A71
:1003F0001067707300000000000000000000006C37
:1004000021696D750000000000000000000000BBC5
:100410001F62617474657279000000000000005A68
:100420001274756E65000000000000000000008E70
:100430001C7472690000000000000000000000D77A
:100440001A63757272656E74000000000000004E41
:100450001A72656C61790000000000000000000065
:1004600012776179706F696E747300000000003656
:1004700016736F6E61720000000000000000000D36
:1004800015636F6D7061737300000000000000550C
:10049000147862656500000000000000000000A400
:1004A00011656564756D700000000000000000F4C7
:1004B0001372617767707300000000000000006530
:1004C0001148697420456E74657220746F206578D8
:1004D00069742E0A0A0020253032780025303478DD
:1004E0003A00426567696E205842656520582D4381
:1004F00054552052616E676520616E6420525353DB
:100500004920546573743A0A00436F6D70617373C8
:100510003A200048656164696E673A20256C642C56
:100520002058595A3A2025642C2025642C20256413
:100530000A0061626C65640A0064697300656E009C
:10054000536F6E61723A20256420636D0A00536F09
:100550006E61722064697361626C65640A00486947
:1005600074207261643A2025640A00256420777043
:100570000A006F662025646D0A000A00486F6C64EB
:1005800020616C742000636F6D6D616E6420233A8E
:100590002025642069643A2564206F703A25642020
:1005A00070313A25642070323A256C642070333AF9
:1005B000256C642070343A256C64200A0052656C06
:1005C0006179206F66660A0052656C6179206F6EF2
:1005D0000A00563A2025342E34662C20413A202534
:1005E000342E34662C206D41683A2025342E346632
:1005F0000A00696E7075743A202564096F7574700D
:10060000757425640A0074756E653A2025312E33A1
:10061000660A004E6F7420656E61626C65640A0044
:1006200063703A2025312E32662C2073703A2025D3
:10063000312E32662C2063723A2025312E32662C00
:100640002073723A2025312E32662C2063793A20AD
:1006500025312E32662C2073793A2025312E3266D0
:100660002C0A00256C642C20256C642C20256C64DD
:100670000A00494D550A004779726F206F6666730C
:100680006574733A2025342E32662C2025342E32A0
:10069000662C2025342E32660A00416363656C2087
:1006A0006F6666736574733A2025342E32662C208B
:1006B00025342E32662C2025342E32660A004C61F9
:1006C000743A20256C642C204C6F6E20256C642CB1
:1006D00020416C743A20256C646D2C202373617466
:1006E000733A2025640A00494E2020313A202564BF
:1006F00009323A20256409333A20256409343A2026
:10070000256409353A20256409363A2025640937DD
:100710003A2025640A00494E3A20313A20256409DE
:10072000323A20256409333A20256409343A2025D9
:100730006409353A20256409363A20256409373A98
:1007400020256409383A2025640A00506C616E6ED9
:100750006572204D6F64650A4E6F7420696E746512
:100760006E64656420666F72206D616E75616C20C9
:100770007573650A0A00436F6D6D616E64733A0AA2
:1007800020206C6F67730A202073657475700A20CF
:1007900020746573740A2020706C616E6E65720A35
:1007A0000A4D6F76652074686520736C69646520F6
:1007B00073776974636820616E6420726573657411
:1007C00020746F20464C592E0A0A000A2054797072
:1007D000652027726164696F2720746F20636F6ED4
:1007E000666967757265206E6F772E0A0A000A21A6
:1007F0005761726E696E672C20796F757220726115
:1008000064696F206973206E6F7420636F6E666910
:10081000677572656421005365747570204D6F644F
:10082000650A0A0A0046572056657273696F6E2082
:1008300025640A00526164696F0A004348373A2010
:100840002564207C2025640A004348363A2025642C
:10085000207C2025640A004348353A202564207C0A
:100860002025640A004348343A202564207C202552
:10087000640A004348333A202564207C2025640A1A
:10088000004348323A202564207C2025640A004336
:1008900048313A202564207C2025640A0056206DCA
:1008A0006F64650A002B206D6F64650A0058206D27
:1008B0006F64650A0051756164206672616D650A36
:1008C000004672616D650A00766F6C747320616E0C
:1008D0006420637572006261747420766F6C747347
:1008E00000342063656C6C7300332063656C6C733B
:1008F000000A42617474204D6F696E746F720A0051
:10090000536F6E61720A00466C69676874206D6F80
:100910006465730A00506F732025643A20004D61AE
:1009200067206F6666736574733A2025342E3466CB
:100930002C2025342E34662C2025342E3466004D90
:100940006167204465633A2025342E34660A0043EB
:100950006F6D706173730A002025640A000A545594
:100960004E453A0A000A4F7074696F6E733A5B6FB6
:100970006E2C6F66665D0A006F6666006F6E000A19
:100980004F7074696F6E733A5B6F6E2C206F666682
:100990005D0A006F6666006F6E000A4F7074696FC3
:1009A0006E733A206F66662C20312D34006F6666B8
:1009B000000A4D6F766520524320746F67676C653F
:1009C0002073776974636820746F206561636820A1
:1009D000706F736974696F6E20746F2065646974D9
:1009E0002C206D6F76652061696C65726F6E207367
:1009F0007469636B20746F2073656C656374206D1C
:100A00006F6465732E000A536176656420536574C4
:100A100074696E67730A0A000A4553432043616C88
:100A20006962726174696F6E3A0A2D3120556E7079
:100A30006C75672055534220616E64206261747446
:100A40006572790A2D32204D6F766520434C492F0F
:100A5000464C592073776974636820746F20464C44
:100A600059206D6F64650A2D33204D6F76652074B3
:100A700068726F74746C6520746F206D61782C20BF
:100A8000636F6E6E65637420626174746572790A57
:100A90002D342041667465722074776F206C6F6E00
:100AA000672062656570732C207468726F74746C53
:100AB0006520746F20302C207468656E2074657317
:100AC000740A0A20507265737320456E7465722033
:100AD000746F2063616E63656C2E0A000A4F707438
:100AE000696F6E733A5B782C2B2C765D0A0076006A
:100AF0002B00700078000A4D6F766520616C6C20C9
:100B0000636F6E74726F6C7320746F2065616368BD
:100B10002065787472656D652E2048697420456E75
:100B200074657220746F20736176653A20000A46FE
:100B30004143544F525920524553455420636F6DE1
:100B4000706C657465202D207265626F6F74204132
:100B5000504D000A275927202B20456E74657220BE
:100B6000746F20666163746F727920726573657447
:100B70002C20616E79206F74686572206B65792016
:100B8000746F2061626F72743A0A00646F6E650A56
:100B9000000A45726173696E6720454550524F4D9A
:100BA0000A000A436F6D6D616E64733A0A20206417
:100BB000756D70203C6E3E20206572617365202843
:100BC000616C6C206C6F6773290A2020656E61620E
:100BD0006C65203C6E616D653E207C20616C6C0A0A
:100BE000202064697361626C65203C6E616D653EB6
:100BF000207C20616C6C0A0A00656E61626C650085
:100C00004F5054464C4F57004D4F544F5253004392
:100C1000555200434D4400524157004D4F4445004A
:100C20004E54554E004354554E00504D00475053BE
:100C30000041545449545544455F4D454400415486
:100C40005449545544455F4641535400616C6C000F
:100C50006D697373696E67206C6F67207479706556
:100C60000A000A4C6F67206572617365642E0A0082
:100C70000A45726173696E67206C6F672E2E2E0AAB
:100C800000626164206C6F6720232025640A0041A4
:100C900054542C2025642C2025642C2025750A0012
:100CA0002C2025640A004D4F443A004354554E2CE5
:100CB0002025642C2025642C2025642C2025642CE0
:100CC0002025642C2025642C2025642C2025642CD0
:100CD0002025640A004E54554E2C2025642C2025D6
:100CE000642C2025642C2025642C2025642C2025B0
:100CF000640A00504D2C20256C642C2025642C2087
:100D000025642C2025642C2025642C2025642C208F
:100D100025642C2025642C2025642C20256C640A55
:100D2000005241572C00434D442C2025642C202593
:100D3000642C2025642C2025642C2025642C20255F
:100D40006C642C20256C642C20256C640A004355AF
:100D500052523A2025642C20256C642C2025342EF8
:100D600034662C2025342E34662C2025640A00534A
:100D7000544152542055500A004D4F543A20256496
:100D80002C2025642C2025642C2025640A004F4645
:100D90002C2025642C2025642C2025642C2025342F
:100DA0002E37662C2025342E37660A004750532CE8
:100DB00020256C642C2025642C2025642C202534CF
:100DC0002E37662C2025342E37662C2025342E34E1
:100DD000662C2025342E34662C2025642C20257585
:100DE0000A0058545241434B5F005448525F484FE9
:100DF0004C445F004E41565F4C4F4E5F004E415693
:100E00005F4C41545F00484C445F4C4F4E5F00487C
:100E10004C445F4C41545F005354425F5941575F0B
:100E2000005354425F5049545F005354425F524C48
:100E30004C5F00524154455F5941575F0052415445
:100E4000455F5049545F00524154455F524C4C5FDE
:100E50000052435F43525F0052435F43505F005272
:100E600043385F005243375F005243365F005243BE
:100E7000355F005243345F005243335F00524332C8
:100E80005F005243315F00464C4F575F454E414231
:100E90004C450054425F524154494F004652414D27
:100EA000450054554E4500455343004D41475F456D
:100EB0004E41424C4500424154545F4341504143EE
:100EC00049545900424154545F4D4F4E49544F527A
:100ED00000534F4E41525F454E41424C4500414CFC
:100EE000545F484F4C445F52544C004C4F475F4254
:100EF00049544D41534B0050495443485F4D41586C
:100F000000464C544D4F44453600464C544D4F44DA
:100F1000453500464C544D4F44453400464C544DE5
:100F20004F44453300464C544D4F44453200464CE7
:100F3000544D4F444531005452494D5F5448524F2F
:100F400054544C45005448525F46535F56414C55EB
:100F500045005448525F46535F414354494F4E0049
:100F60005448525F4641494C53414645005448520B
:100F70005F4D4158005448525F4D494E0057505FF5
:100F800053504545445F4D41580057505F4C4F49C1
:100F90005445525F5241440057505F5241444955B5
:100FA000530057505F4D5553545F494E44455800C8
:100FB00057505F494E4445580057505F544F544175
:100FC0004C0057505F4D4F4445005854524B5F41C1
:100FD0004E474C455F43440053455249414C335FB3
:100FE000424155440053595349445F4D5947435377
:100FF0000053595349445F544849534D4156005397
:10100000595349445F53575F5459504500535953FE
:1010100049445F53575F4D52455600524556004D67
:101020004158005452494D004D494E00494D4158D8
:1010300000490050004C6F6720232025642C20209D
:10104000202073746172742025642C202020656E2A
:10105000642025640A000A2564206C6F67730A0007
:101060000A4E6F206C6F67730A547970652027648D
:10107000756D702030272E0A0A00204F5054464CC0
:101080004F5700204D4F544F52530020435552525A
:10109000454E540020434D44002052415700204EFD
:1010A00054554E00204354554E0020504D002047CB
:1010B0005053002041545449545544455F4D4544D4
:1010C000002041545449545544455F46415354000F
:1010D0006E6F6E65006C6F677320656E61626C6524
:1010E000643A2000666C6967687420706C616E20D9
:1010F000726563656976656400616374696F6E200B
:1011000072656365697665643A20006572726F7214
:101110003A206E6F6E2D4E617620636D64006F75A0
:1011200074206F6620636F6D6D616E64732100774C
:101130006179706F696E7420726563656976652088
:1011400074696D656F757400776179706F696E741D
:101150002073656E642074696D656F757400455801
:10116000545241330045585452413200455854526C
:10117000413100504F534954494F4E005241575F3F
:101180004354524C0052435F4348414E004558542B
:101190005F53544154005241575F53454E530053DF
:1011A00052335F005352305F00526561636865647B
:1011B00020686F6D650044495341524D494E4720A8
:1011C0004D4F544F52530041524D494E47204D4FC1
:1011D000544F52530047524F554E4420535441529E
:1011E00054000A456E746572696E6720696E746595
:1011F00072616374697665207365747570206D6FB4
:1012000064652E2E2E0A0A54797065202768656C55
:10121000702720746F206C69737420636F6D6D612B
:101220006E64732C2027657869742720746F206C96
:10123000656176652061207375626D656E752E0A35
:1012400056697369742074686520277365747570B6
:1012500027206D656E7520666F72206669727374E3
:101260002D74696D6520636F6E6669677572617450
:10127000696F6E2E0A0A00506C65617365205275A5
:101280006E2053657475702E2E2E0A004669726D9D
:1012900077617265206368616E67653A2065726187
:1012A00073696E6720454550524F4D2E2E2E0A0011
:1012B0000A0A496E69742041434D0A0A52414D3A67
:1012C00020256C750A00496E76616C69642053456F
:1012D0005249414C335F42415544004C6F67732083
:1012E00066756C6C000A4750530A00253033753A16
:1012F00025733A20006E6F7420666F756E6400254A
:101300003033753A252D33322E3332733A2000753F
:101310006E6B6E6F776E2074797065006E6F7420DF
:10132000666F756E640025733A20006D697373698A
:101330006E67206E616D65206F722076616C7565D9
:10134000003F3F00256400256400256C640025668D
:1013500000256600657869740068656C7000444516
:101360004300434F4D504153535F006E616E00691F
:101370006E660000407A10F35A00A0724E18090001
:1013800010A5D4E80000E87648170000E40B5402EA
:101390000000CA9A3B000000E1F505000080969825
:1013A00000000040420F000000A086010000001075
:1013B0002700000000E803000000006400000000B7
:1013C000000A00000000000100000000002C76D898
:1013D00088DC674F0823DFC1DFAE59E1B1B796E57E
:1013E000E3E453C63AE651997696E8E6C28426EBE2
:1013F000898C9B62ED407C6FFCEFBC9C9F40F2BAF5
:10140000A56FA5F490055A2AF75C936B6CF9676D8C
:10141000C11BFCE0E40D47FEF520E6B500D0ED90E1
:101420002E0300943577050080841E080000204EAE
:101430000A000000C80C333333330F986E12831147
:1014400041EF8D2114893BE65516CFFEE6DB18D11E
:10145000844B381BF77C1D901DA4BBE424203284F0
:10146000725E228100C9F124ECA1E53D2700002134
:1014700000240027002A002D003000330001010065
:1014800000040107010A0100002200250028002BAA
:10149000002E003100340002010000050108010B9C
:1014A00001000020002300260029002C002F00321C
:1014B00000000100000301060109010505050507FB
:1014C0000508080808020202020A0A0808040404BF
:1014D00004010101010101010103030303030303EB
:1014E00003040707070C0C0C0C0C0C0C0C0202027A
:1014F0000206060606060606060B0B0B0B0B0B0B6D
:101500000B0102102020080810204010204080020B
:101510000102010804020101020408102040808039
:1015200040201008040201800402018040201008BD
:101530000402010804020101020408102040800195
:10154000020408102040800000090A02080B0C0D5C
:101550000706030401000000000000000000000076
:10156000000000000000000000000000000000007B
:10157000000000100F0E000000000000000000003E
:1015800000000000000000000000000000494E467E
:10159000494E4954594E414ECDCCCC3D0AD7233CFF
:1015A00017B7D13877CC2B329595E6241FB14F0A67
:1015B000000020410000C84200401C4620BCBE4C38
:1015C000CA1B0E5AAEC59D741F3A977A5783798D00
:1015D000969A183A508311241FBECFEFD1E2DEBF96
:1015E000CDBF00E00CBF14E0A0E0B2E0EAEEF4E50D
:1015F00001E00BBF02C007900D92AA38B107D9F7DE
:1016000014E1AAE8B4E001C01D92A632B107E1F7E7
:1016100015E1C2EDD5E104C02297FE010E9440A46D
:10162000C83CD107C9F70E94169C0C9468AA0C9478
:101630000000283008F027E03327DA01990F311D28
:1016400087FD916000966105710539F432602E5F67
:101650003D9330E32A95E1F708959F3F30F08038BD
:101660007105610509F03C5F3C5F3D93913008F0E6
:101670008068911DDF93CF931F930F93FF92EF929A
:10168000192F987F9695E92F96959695E90FFF2744
:10169000E353FC4E99273327EE24FF24A701E701EB
:1016A00005900894079428F4360FE71EF81E491F8A
:1016B000511D660F771F881F991F0694A1F705908B
:1016C000079428F4E70EF81E491F561FC11D770F17
:1016D000881F991F661F0694A1F70590079428F4A8
:1016E000F80E491F561FC71FD11D880F991F661F6F
:1016F000771F0694A1F70590079420F4490F561F11
:10170000C71FD81F990F661F771F881F0694A9F758
:1017100084911095177041F0D695C79557954795C8
:10172000F794E7941A95C1F7E3E7F3E1689415900D
:10173000159135916591959105907FE27395E1182A
:10174000F10A430B560BC90BD009C0F7E10CF11E8F
:10175000431F561FC91FD01D7EF4703311F48A95A4
:10176000E6CFE894015030F0080F0AF40027021782
:1017700008F4202F2395022F7A3328F079E37D9304
:101780002A95E9F710C07D932A9589F606949795D6
:101790006795379517951794E118F10A430B560B87
:1017A000C90BD00998F023957E9173957A3308F090
:1017B00070E37C932013B8F77E9170617D9330F0D5
:1017C000839571E37D9370E32A95E1F71124EF90FF
:1017D000FF900F911F91CF91DF91992787FD9095F1
:1017E0000895FA01AA27283051F1203181F1E894B7
:1017F0006F936E7F6E5F7F4F8F4F9F4FAF4FB1E004
:101800003ED0B4E03CD0670F781F891F9A1FA11DFE
:10181000680F791F8A1F911DA11D6A0F711D811DFF
:10182000911DA11D20D009F468943F912AE0269FC4
:1018300011243019305D3193DEF6CF010895462F23
:101840004770405D4193B3E00FD0C9F7F6CF462F04
:101850004F70405D4A3318F0495D31FD405241936D
:1018600002D0A9F7EACFB4E0A6959795879577952A
:101870006795BA95C9F700976105710508959B01B1
:10188000AC010A2E06945795479537952795BA953A
:10189000C9F7620F731F841F951FA01D0895CF9372
:1018A000DF93FC01EB014230510570F063857485D4
:1018B0008585968520E030E040E854E40E94BDA292
:1018C0000E9427A17983688382E090E0DF91CF9125
:1018D0000895CF93DF93EC01FB014230510518F4DA
:1018E00020E030E012C06081718180E090E00E94D1
:1018F00053A120E030E040E85AE30E94BDA26B878C
:101900007C878D879E8722E030E0C901DF91CF91EF
:101910000895089508950895FC0187A117A20895D8
:10192000FB0190819827292F2295207F292730E0DD
:10193000522F4427C90163E0880F991F6A95E1F788
:1019400048275927818190E04827592784E0359519
:1019500027958A95E1F742275327518340830895BD
:10196000A0E0B0E0E6EBFCE00C9411A48C016B016C
:101970007A01C0E0D0E01CC0F601EC0FFD1F6081D1
:101980000115110521F00130110589F405C0E09120
:10199000A513F091A61304C0E091A713F091A8132A
:1019A000A081B1812D913C91CF01F901199521962A
:1019B000CE15DF0508F3CDB7DEB7E8E00C942DA413
:1019C000ACE0B0E0E6EEFCE00C940CA4B82E992E4E
:1019D000842E752EA22E282F30E085E58F83A886D1
:1019E000F901EE0FFF1FE20FF31FEE0FFF1FEE0FC7
:1019F000FF1FE652F04F9781998780912D038A87C8
:101A000080912E038B876C879F5F97838FEF9FEF6B
:101A10009E838D838E01085F1F4FFDE0CF2ED12C5A
:101A2000CC0EDD1EE5E0EE2EF12CEC0EFD1E06C008
:101A3000F80181918F01B7010E94900C0C151D05D2
:101A4000B9F78D819E819A838983282D372DC9010D
:101A50007C011A2D6E010894C11CD11C07C0F7012E
:101A600081917F01B6010E94900C11501123B9F7AA
:101A700089819A818B839C838B2D992DBE01695F0F
:101A80007F4F46E050E00E94B00C8B2D992D682DC1
:101A9000772D4A2D50E00E94B00C8B2D992DBE0160
:101AA0006D5F7F4F42E050E00E94B00C2C96EDE05D
:101AB0000C9428A4DC01FB0183818C938281119614
:101AC0008C931197818112968C9312978081139633
:101AD0008C930895DC01FB0187818C93868111969C
:101AE0008C931197858112968C931297848113960B
:101AF0008C931397838114968C93149782811596F7
:101B00008C931597818116968C93169780811796E2
:101B10008C930895A4E0B0E0E0E9FDE00C9417A4F4
:101B2000262FBC01685F7F4F620F711DCE010196A9
:101B30000E945A0D29813A814B815C81B901CA0109
:101B40002496E2E00C9433A41F920F920FB60F92EA
:101B50000BB60F9211242F933F934F938F939F9324
:101B6000EF93FF934091C600209165133091661367
:101B70002F5F3F4F8091691390916A132823392377
:101B800080916713909168132817390779F0809135
:101B9000651390916613E0916B13F0916C13E80F4D
:101BA000F91F40833093661320936513FF91EF91E3
:101BB0009F918F914F913F912F910F900BBE0F905E
:101BC0000FBE0F901F9018951F920F920FB60F9295
:101BD0000BB60F9211242F933F938F939F93EF9304
:101BE000FF932091871330918813809185139091F2
:101BF000861328173907E9F080918713909188138D
:101C0000E0918B13F0918C13E80FF91F8081809382
:101C1000C6008091871390918813019620918913B3
:101C200030918A1382239323909388138093871390
:101C300010C0209185133091861380918713909165
:101C400088132817390729F48091C1008F7D80936C
:101C5000C100FF91EF919F918F913F912F910F9034
:101C60000BBE0F900FBE0F901F9018951F920F92F2
:101C70000FB60F920BB60F9211242F933F934F93F1
:101C80008F939F93EF93FF934091CE0020916D131C
:101C900030916E132F5F3F4F8091711390917213AB
:101CA0002823392380916F139091701328173907D7
:101CB00079F080916D1390916E13E0917313F09110
:101CC0007413E80FF91F408330936E1320936D1344
:101CD000FF91EF919F918F914F913F912F910F9095
:101CE0000BBE0F900FBE0F901F9018951F920F9272
:101CF0000FB60F920BB60F9211242F933F938F9331
:101D00009F93EF93FF9320918F13309190138091C5
:101D10008D1390918E1328173907E9F080918F1356
:101D200090919013E0919313F0919413E80FF91FA1
:101D300080818093CE0080918F13909190130196B3
:101D400020919113309192138223932390939013B7
:101D500080938F1310C020918D1330918E1380913A
:101D60008F13909190132817390729F48091C90097
:101D70008F7D8093C900FF91EF919F918F913F914B
:101D80002F910F900BBE0F900FBE0F901F901895C4
:101D90001F920F920FB60F920BB60F9211242F9332
:101DA0003F934F938F939F93EF93FF93409136010F
:101DB00020917D1330917E132F5F3F4F80918113CF
:101DC000909182132823392380917F13909180135F
:101DD0002817390779F080917D1390917E13E09157
:101DE0008313F0918413E80FF91F408330937E131F
:101DF00020937D13FF91EF919F918F914F913F9190
:101E00002F910F900BBE0F900FBE0F901F90189543
:101E10001F920F920FB60F920BB60F9211242F93B1
:101E20003F938F939F93EF93FF9320919F13309154
:101E3000A01380919D1390919E1328173907E9F004
:101E400080919F139091A013E091A313F091A4139C
:101E5000E80FF91F80818093360180919F13909144
:101E6000A01301962091A1133091A21382239323F2
:101E70009093A01380939F1310C020919D133091D5
:101E80009E1380919F139091A0132817390729F46E
:101E9000809131018F7D80933101FF91EF919F916E
:101EA0008F913F912F910F900BBE0F900FBE0F900F
:101EB0001F901895FC017183608384E06A3878076D
:101EC00039F47093A6136093A5131386128608C085
:101ED0007093A8136093A71381E090E093878287A3
:101EE0001382128208952091C70A3091C80AC9014D
:101EF0008F5C94408238910510F481E00895C90107
:101F0000815595408238910510F482E00895C90109
:101F1000835D95408238910510F483E00895C901EE
:101F2000855596408138910510F484E00895265D2A
:101F3000364014F480E0089585E00895A4E0B0E010
:101F4000E4EAFFE00C9407A460913412709135121A
:101F500080913612909137120E9455A13B014C019D
:101F60008091C20F9091C30FA091C40FB091C50F83
:101F700089839A83AB83BC83609130127091311254
:101F800080913212909133120E9455A11B012C01B5
:101F9000A0900D03B0900E03C0900F03D0901003DB
:101FA000C401B30129813A814B815C810E94BDA2A9
:101FB0007B018C01C201B101A60195010E94BDA265
:101FC0009B01AC01C801B7010E94EC9F0E9422A1B5
:101FD0006093F5107093F6108093F7109093F810BB
:101FE000C401B301A60195010E94BDA27B018C0131
:101FF000C201B10129813A814B815C810E94BDA25D
:102000009B01AC01C801B7010E94ED9F0E9422A173
:1020100090958095709561957F4F8F4F9F4F6093FE
:10202000F9107093FA108093FB109093FC10249693
:10203000E2E10C9423A420917709309178098091F2
:102040009B0990919C09281B390B253631051CF002
:102050008AE08093C90F2C593F4F1CF486EF809380
:10206000C90F8091C90F18161CF481508093C90FB5
:102070008091C90F87FF03C08F5F8093C90F809144
:10208000C90F813021F08F3F11F080E00895811158
:1020900081E0089580E00895FC01DB01452B11F0FB
:1020A00083858C9381E090E00895DC01FB01452B52
:1020B00019F080811B968C9381E090E00895FC01DB
:1020C0006385772767FD7095872F972F0E9455A10D
:1020D0000895FC01DB014230510520F08385948591
:1020E0008D939C9382E090E00895DC01FB014230E7
:1020F000510530F0808191811C969C938E931B97A3
:1021000082E090E00895FC0163857485882777FD5F
:102110008095982F0E9455A10895FC012385348550
:1021200045855685B901CA010895CF93DF93FC0117
:10213000EB014430510540F083859485A585B68533
:1021400088839983AA83BB8384E090E0DF91CF9159
:102150000895CF93DF93EC01FB014430510540F02B
:1021600080819181A281B3818B879C87AD87BE8757
:1021700084E090E0DF91CF910895E091C60FF09157
:10218000C70F87A990AD8130910539F00297F9F416
:1021900083E261E00E94879F089581A58823D9F09A
:1021A00090E08091C80F882309F491E09093C80FC4
:1021B000992319F083E260E002C083E261E00E94AB
:1021C000879FE091C60FF091C70F11A6089583E293
:1021D00060E00E94879F089585E260E00E94879FEB
:1021E00084E260E00E94879F83E260E00E94879F14
:1021F00010921D1210928F100895809141128F5FDE
:10220000809341128150833011F4109241128091D9
:102210004112813059F0813018F08230C1F40FC082
:1022200083E260E00E94879F85E205C085E260E06E
:102230000E94879F84E261E00E94879F089584E264
:1022400060E00E94879F83E261E00E94879F08957B
:1022500080914212882379F084E461E00E94879F94
:1022600082E461E00E94879F80E460E00E94879F93
:102270008EE360E00EC084E460E00E94879F82E409
:1022800060E00E94879F80E461E00E94879F8EE368
:1022900061E00E94879F8091421291E0892780939C
:1022A0004212089500D00F928AE894E0EDB7FEB78D
:1022B0009283818381EC94E0948383830E94BA901B
:1022C0000F900F900F900F9008950E94521168EE9A
:1022D00073E080E090E00E94899E8EEA94E00E9484
:1022E0003191892B89F084E261E00E94879F8EEA18
:1022F00094E00E946191682F8CE994E00E94C29161
:1023000084E260E00E94879F8CE994E00E94319112
:10231000892B89F083E261E00E94879F8CE994E039
:102320000E946191682F8EEA94E00E94C29183E23C
:1023300060E00E94879F8AE894E00E94319118161D
:1023400019065CF680E008950E94521168EE73E071
:1023500080E090E00E94899E00D00F928AE894E08D
:10236000EDB7FEB79283818382EE94E094838383FA
:102370000E94BA900F900F900F900F908EEA94E009
:102380000E943191892B49F08EEA94E00E9461917C
:10239000682F8EEA94E00E94C2918AE894E00E943D
:1023A00031911816190654F780E008952AE834E0B0
:1023B000882349F000D00F92EDB7FEB73283218316
:1023C0008DE395E008C000D00F92EDB7FEB73283E1
:1023D000218389E395E0948383830E94BA908AE8FD
:1023E00094E0EDB7FEB79283818382E395E0948316
:1023F00083830E94BA900F900F900F900F900895D2
:10240000EF92FF920F931F93CF93DF930E9452118D
:1024100068EE73E080E090E00E94899E18ECE12E67
:1024200015E0F12E0DEB15E0CAE8D4E000D00F92D4
:10243000EDB7FEB7D283C183F482E3820E94BA90E3
:1024400080910B01846080930B010F900F900F908F
:102450000F9068EB7BE080E090E00E94899ECE01C7
:102460000E94319118161906FCF000D00F92EDB7BA
:10247000FEB7D283C183148303830E94BA908091F4
:102480000B018B7F80930B010F900F900F900F909B
:1024900068EB7BE080E090E00E94899ECE010E9484
:1024A00031911816190614F680E0CDB7DEB7E6E0D4
:1024B0000C942FA400D00F928AE894E0EDB7FEB7F9
:1024C0009283818383E196E0948383830E94BA9010
:1024D0000F900F900F900F9080E008958DB79EB7EA
:1024E00040970FB6F8949EBF0FBE8DBFEDB7FEB7F5
:1024F00031968AE894E0ADB7BEB712969C938E935E
:10250000119787E796E09383828380E090E0A0E0D4
:10251000B0E084839583A683B78380879187A28761
:10252000B38784879587A687B7870E94BA908DB7AF
:102530009EB740960FB6F8949EBF0FBE8DBF08950C
:102540008DB79EB740970FB6F8949EBF0FBE8DBF54
:10255000EDB7FEB731968AE894E0ADB7BEB71296F4
:102560009C938E9311978AE996E09383828380E00F
:1025700090E0A0E0B0E084839583A683B783808752
:102580009187A287B38784879587A687B7870E949C
:10259000BA908DB79EB740960FB6F8949EBF0FBE07
:1025A0008DBF089500D00F928AE894E0EDB7FEB792
:1025B0009283818386E797E0948383830E94BA9015
:1025C0000F900F900F900F9080E008950F931F933E
:1025D0008DB79EB708970FB6F8949EBF0FBE8DBFFC
:1025E000EDB7FEB731960AE814E0ADB7BEB7129664
:1025F0001C930E9311978FE898E0938382838091C8
:102600008E0990918F09958384838091A809909178
:10261000A909978386830E94BA90EDB7FEB73196D9
:10262000ADB7BEB712961C930E93119781E898E050
:10263000938382838091E2099091E3099583848357
:102640008091FC099091FD09978386830E94BA903E
:10265000EDB7FEB73196ADB7BEB712961C930E9389
:10266000119783E798E0938382838091360A909153
:10267000370A958384838091500A9091510A9783F9
:1026800086830E94BA90EDB7FEB73196ADB7BEB75C
:1026900012961C930E93119785E698E0938382839C
:1026A00080918A0A90918B0A958384838091A40AF1
:1026B0009091A50A978386830E94BA90EDB7FEB7E2
:1026C0003196ADB7BEB712961C930E93119787E55E
:1026D00098E0938382838091DE0A9091DF0A95834C
:1026E00084838091F80A9091F90A978386830E94E7
:1026F000BA90EDB7FEB73196ADB7BEB712961C9340
:102700000E93119789E498E0938382838091320B32
:102710009091330B9583848380914C0B90914D0B5A
:10272000978386830E94BA90EDB7FEB73196ADB716
:10273000BEB712961C930E9311978BE398E0938388
:1027400082838091860B9091870B958384838091FF
:10275000A00B9091A10B978386830E94BA908DB7AE
:102760009EB708960FB6F8949EBF0FBE8DBF1F91FF
:102770000F91089500D00F928AE894E0EDB7FEB76C
:102780009283818386E09AE0948383830E94BA9047
:102790000F900F900F900F90089500D00F928AE83D
:1027A00094E0EDB7FEB79283818382EA9BE0948345
:1027B00083830E94BA900F900F900F900F9080E04B
:1027C000089500D00F928AE894E0EDB7FEB79283A7
:1027D00081838FE69DE0948383830E94BA900F905B
:1027E0000F900F900F900895A0E0B0E0EAEFF3E1B2
:1027F0000C940FA42CEDA22E24E0B22E96EDC92E3F
:1028000094E0D92E00E010E08AE8E82E84E0F82E6B
:1028100000D000D0EDB7FEB73196ADB7BEB7129677
:10282000FC92EE921197B382A282158304830E94D8
:10283000BA90C0E0D0E08DB79EB706960FB6F89478
:102840009EBF0FBE8DBFCE01800F911F0E9480A83A
:1028500000D000D0EDB7FEB73196ADB7BEB7129637
:10286000FC92EE921197D382C282848315820E94D9
:10287000BA9021968DB79EB706960FB6F8949EBF74
:102880000FBE8DBFC031D105F1F6C7010E940E9D6C
:10289000005F1F4F90E10030190709F0B9CF80E0C9
:1028A000CDB7DEB7EAE00C942BA4A4E2B0E0EBE5F0
:1028B000F4E10C940FA480912C09882309F493C0AF
:1028C0000E94521143E1A42E45E0B42E6E010894FB
:1028D000C11CD11C3AE8E32E34E0F32E64E670E02C
:1028E00080E090E00E94899E83E695E00E949586B4
:1028F000D601EDEEF4E084E201900D928150E1F713
:1029000083E695E0B6010E94EE8683E695E00E949C
:10291000B58660916D0570916E0580916F059091FF
:10292000700521EE3EE245E652E40E94BDA220E0A1
:1029300030E048EC52E40E94BDA20E9422A1613A1C
:102940002CE8720720E0820720E092072CF0605A02
:102950007C488040904006C097FF04C06056734793
:102960008F4F9F4FEDB7FEB73E970FB6F894FEBF5F
:102970000FBEEDBF0DB71EB70F5F1F4FF282E18292
:10298000F801B382A28224E630E040E050E00E94E9
:10299000ECA3F80124833583468357838091670530
:1029A00090916805918780878091690590916A056B
:1029B0009387828780916B0590916C0595878487BA
:1029C0000E94BA902DB73EB7225F3F4F0FB6F894E2
:1029D0003EBF0FBE2DBFC7010E94319118161906C8
:1029E0000CF07CCF15C000D00F928AE894E0EDB7D0
:1029F000FEB79283818389E095E0948383830E946C
:102A0000BA900F900F900F900F9080E00E94D61117
:102A100080E0A496EAE00C942BA40F931F93CF932D
:102A2000DF93809107098823B9F400D00F928AE8D8
:102A300094E0ADB7BEB712969C938E9311978EE437
:102A400095E014969C938E9313970E94BA900F90E2
:102A50000F900F900F902FC00E94521100E415E0CC
:102A6000CAE8D4E064E670E080E090E00E94899ECD
:102A70008DE797E00E942E8D00D000D0EDB7FEB715
:102A80003196ADB7BEB71296DC93CE9311971383F0
:102A90000283958384830E94BA90EDB7FEB7369681
:102AA0000FB6F894FEBF0FBEEDBFCE010E9431916C
:102AB00018161906BCF680E0DF91CF911F910F9197
:102AC0000895CF93DF93EC0107C021978AE894E043
:102AD00060E072E00E94259D1C161D06B4F3DF9194
:102AE000CF910895FF920F931F93F62E00D000D040
:102AF000EDB7FEB731960AE814E0ADB7BEB712964F
:102B00001C930E93119725E139E03383228384834C
:102B100015820E94BA908DB79EB706960FB6F894AC
:102B20009EBF0FBE8DBFEF2DF0E0EE0FFF1FEC5CE0
:102B3000FC4F60817181C8010E94259D1F910F91FA
:102B4000FF900895A0E0B0E0E8EAF5E10C940EA44F
:102B5000EC0180910308992787FD909586179707C8
:102B600044F48AE894E061E072E00E94259D1882B6
:102B700077C0CB01E4E0880F991FEA95E1F7861B47
:102B8000970B80509C4F5C01CC24B7FCC094DC2C8C
:102B90000E9480A88883860175010894E11CF11CBD
:102BA000011D111DC7010E9480A8982E89830894D9
:102BB000E11CF11C011D111DC7010E9480A88A8320
:102BC0000894E11CF11C011D111DC7010E9488A879
:102BD0006B837C838D839E8387E090E0A0E0B0E0F0
:102BE000A80EB91ECA1EDB1EC5010E9488A87B0163
:102BF0008C01EF82F88609871A8784E090E0A0E0D4
:102C0000B0E0A80EB91ECA1EDB1EC5010E9488A82E
:102C10009B01AC012B873C874D875E8794FE20C0CB
:102C20008091A30F9091A40FA091A50FB091A60F32
:102C3000E80EF91E0A1F1B1FEF82F88609871A8704
:102C40008091A70F9091A80FA091A90FB091AA0F02
:102C5000280F391F4A1F5B1F2B873C874D875E87D4
:102C6000CE01CDB7DEB7EBE00C942AA48F929F92F1
:102C7000AF92BF92DF92EF92FF920F931F93DF9379
:102C8000CF93CDB7DEB72F970FB6F894DEBF0FBE48
:102C9000CDBF68EE73E080E090E00E94899E00D096
:102CA0000F920AE814E0ADB7BEB712961C930E93CC
:102CB00011978CE795E014969C938E9313970E943E
:102CC000BA902091FA083091FB080F900F900F9066
:102CD0000F9037FF11C000D00F92EDB7FEB71283EF
:102CE00001838AE795E0948383830E94BA900F90D2
:102CF0000F900F900F9020C000D000D0EDB7FEB71E
:102D00003196ADB7BEB712961C930E93119782E71A
:102D100095E093838283C90164E670E00E94B7A3C3
:102D2000758364830E94BA90EDB7FEB736960FB6EE
:102D3000F894FEBF0FBEEDBF00D000D0EDB7FEB7D8
:102D400031960AE814E0ADB7BEB712961C930E9305
:102D500011978BE695E093838283809103089927EE
:102D600087FD9095958384830E94BA90EDB7FEB756
:102D70003196ADB7BEB712961C930E9311978EE5A0
:102D800095E09383828380912708992787FD90950A
:102D9000958384830E94BA90F6E88F2EF5E09F2EEB
:102DA000FF24EDB7FEB736960FB6F894FEBF0FBE00
:102DB000EDBF5E010894A11CB11CD02EE12E46C0CF
:102DC000C501B8010E94A2158DB79EB748970FB6EE
:102DD000F8949EBF0FBE8DBFEDB7FEB73196ADB76D
:102DE000BEB71196DC9211971296EC929382828272
:102DF000158304838981868317828A81808711865F
:102E00008B81828713868C819D81AE81BF8184876F
:102E10009587A687B78788859985AA85BB85808B86
:102E2000918BA28BB38B8C859D85AE85BF85848B62
:102E3000958BA68BB78B0E94BA90F394EDB7FEB733
:102E400078960FB6F894FEBF0FBEEDBF0F2D10E0C1
:102E500080910308992787FD9095801791070CF0C2
:102E6000AFCF80E02F960FB6F894DEBF0FBECDBF78
:102E7000CF91DF911F910F91FF90EF90DF90BF9066
:102E8000AF909F908F9008950F931F930FE412E1DE
:102E90004091360A5091370AC80160E00E94D47907
:102EA0004091360A5091370AC80161E00E94D479F6
:102EB0004091360A5091370AC80162E00E94D479E5
:102EC0004091360A5091370AC80163E00E94D479D4
:102ED0004091360A5091370AC80166E00E94D479C1
:102EE0004091360A5091370AC80167E00E94D479B0
:102EF0001F910F9108958FE492E10E94547A8130DE
:102F000009F05EC08FE492E160E00E94237ABC0188
:102F10008CE699E00E94DA988FE492E161E00E94E9
:102F2000237ABC0180EC99E00E94DA988FE492E168
:102F300062E00E94237ABC0184E19AE00E94DA9860
:102F40008FE492E163E00E94237ABC0188E69AE074
:102F50000E94DA988FE492E164E00E94237ABC0137
:102F60008CEB9AE00E94DA988FE492E165E00E948F
:102F7000237ABC0180E19BE00E94DA988FE492E121
:102F800066E00E94237ABC0184E69BE00E94DA9806
:102F90008FE492E167E00E94237ABC0188EB9BE01A
:102FA0000E94DA988091210A9091220A23E08132CE
:102FB000920714F080E293E09093220A8093210A12
:102FC00008950F931F93CF93DF930E94521168EEE1
:102FD00073E080E090E00E94899E07EE16E0CAE868
:102FE000D4E064E170E080E090E00E94899E0E945D
:102FF0007B178DB79EB742970FB6F8949EBF0FBE52
:103000008DBFEDB7FEB73196ADB7BEB71296DC9364
:10301000CE931197138302838091790990917A0955
:10302000958384838091CD099091CE09978386837F
:103030008091210A9091220A918780878091750A58
:103040009091760A938782878091C90A9091CA0AE3
:103050009587848780911D0B90911E0B978786879B
:103060008091710B9091720B918B808B0E94BA9022
:103070008DB79EB742960FB6F8949EBF0FBE8DBF18
:10308000CE010E943191181619060CF0AACF80E0EB
:10309000DF91CF911F910F9108950F931F93CF93BD
:1030A000DF930E94521168EE73E080E090E00E948E
:1030B000899E06E117E0CAE8D4E064E170E080E0B0
:1030C00090E00E94899E0E947B178DB79EB744971F
:1030D0000FB6F8949EBF0FBE8DBFEDB7FEB7319609
:1030E000ADB7BEB71296DC93CE93119713830283CC
:1030F0008091770990917809958384838091CB0999
:103100009091CC099783868380911F0A9091200A21
:10311000918780878091730A9091740A9387828740
:103120008091C70A9091C80A9587848780911B0B6C
:1031300090911C0B9787868780916F0B9091700BF5
:10314000918B808B8091C30B9091C40B938B828B5E
:103150000E94BA908DB79EB744960FB6F8949EBF62
:103160000FBE8DBFCE010E943191181619060CF0CA
:10317000A4CF80E0DF91CF911F910F910895EF923E
:10318000FF920F931F9380E00E94D99DAA2797FD7D
:10319000A095BA2FBC01CD010E9455A120E030E0DE
:1031A00040EA5BE30E94BDA22AE037ED43E650E42B
:1031B0000E94BDA22DEC3CEC4CEC5DE30E94BDA254
:1031C0007B018C016091F1027091F2028091F30217
:1031D0009091F40226E636E646E65FE30E94BDA241
:1031E0009B01AC01C801B7010E94ED9F6093F10201
:1031F0007093F2028093F3029093F40281E00E94B4
:10320000D99DAA2797FDA095BA2FBC01CD010E9498
:1032100055A120E030E040EA5BE30E94BDA22AE035
:1032200037ED43E650E40E94BDA22DEC3CEC4CECA3
:103230005DE30E94BDA27B018C016091F50270915B
:10324000F6028091F7029091F80226E636E646E60D
:103250005FE30E94BDA29B01AC01C801B7010E94BF
:10326000ED9F6093F5027093F6028093F7029093BE
:10327000F80282E00E94D99DAA2797FDA095BA2F57
:10328000BC01CD010E9455A120E030E040EA5BE3A3
:103290000E94BDA22AE037ED43E650E40E94BDA2A1
:1032A0002DEC3CEC4CEC5DE30E94BDA27B018C015B
:1032B0006091F9027091FA028091FB029091FC02F8
:1032C00026E636E646E65FE30E94BDA29B01AC011E
:1032D000C801B7010E94ED9F6093F9027093FA0252
:1032E0008093FB029093FC0283E00E94D99DAA2761
:1032F00097FDA095BA2FBC01CD010E9455A120E0F9
:1033000030E040EA5BE30E94BDA22AE037ED43E6ED
:1033100050E40E94BDA22DEC3CEC4CEC5DE30E941D
:10332000BDA27B018C016091FD027091FE02809133
:10333000FF029091000326E636E646E65FE30E9430
:10334000BDA29B01AC01C801B7010E94ED9F7B01AA
:103350008C01CB01D8018093FD029093FE02A093D3
:10336000FF02B093000320911309213049F48091AA
:10337000F9029091FA02A091FB02B091FC0204C004
:10338000223059F4C701D8018093ED029093EE02E8
:10339000A093EF02B093F0027CC0233019F02430E8
:1033A00009F077C08091F1029091F202A091F302AE
:1033B000B091F4028093ED029093EE02A093EF029D
:1033C000B093F002243009F064C081E00E94D99DDE
:1033D000AA2797FDA095BA2FBC01CD010E9455A147
:1033E00020E030E040EA5BE30E94BDA22CE53FE82C
:1033F0004AED51E40E94BDA22DEC3CEC4CEC5DE3A7
:103400000E94BDA27B018C016091AC0F7091AD0F49
:103410008091AE0F9091AF0F26E636E646E65FE369
:103420000E94BDA29B01AC01C801B7010E94ED9FA3
:103430007B018C016093AC0F7093AD0F8093AE0F46
:103440009093AF0F6091AB0F70E080E090E00E942E
:1034500053A19B01AC01C801B7010E94BDA227E89E
:1034600030EC41E959E30E94BDA29B01AC0160919F
:10347000B00F7091B10F8091B20F9091B30F0E9475
:10348000ED9F6093B00F7093B10F8093B20F909344
:10349000B30F1F910F91FF90EF9008950F931F931B
:1034A000CF93DF930E94521184E68093AB0F02ED1D
:1034B00015E0CAE8D4E064E670E080E090E00E94A5
:1034C000899E0E947B170E94BF188DB79EB74097B8
:1034D0000FB6F8949EBF0FBE8DBFEDB7FEB7319605
:1034E000ADB7BEB71296DC93CE93119713830283C8
:1034F0008091ED029091EE02A091EF02B091F00266
:1035000084839583A683B7838091AC0F9091AD0F90
:10351000A091AE0FB091AF0F80879187A287B3873C
:103520008091B00F9091B10FA091B20FB091B30FF5
:1035300084879587A687B7870E94BA908DB79EB774
:1035400040960FB6F8949EBF0FBE8DBF40911F0AE4
:103550005091200A8FE492E160E00E94D47940917A
:103560001F0A5091200A8FE492E161E00E94D47911
:1035700040911F0A5091200A8FE492E162E00E947C
:10358000D47940911F0A5091200A8FE492E163E0C0
:103590000E94D479CE010E943191181619060CF0C0
:1035A0008ACF80E0DF91CF911F910F9108950F9303
:1035B0001F93CF93DF930E94521168EE73E080E077
:1035C00090E00E94899E02EF15E0CAE8D4E064E131
:1035D00070E080E090E00E94899E0E947B178091BD
:1035E000750A9091760A90937A0A8093790A88E610
:1035F0009AE00E944E998DB79EB708970FB6F8943F
:103600009EBF0FBE8DBFEDB7FEB73196ADB7BEB74B
:103610001296DC93CE931197138302838091750ADF
:103620009091760A9583848380917D0A90917E0A99
:10363000978386830E94BA908DB79EB708960FB67F
:10364000F8949EBF0FBE8DBF40917D0A50917E0AB7
:103650008FE492E166E00E94D479CE010E9431911C
:10366000181619060CF0B3CF80E0DF91CF911F91AF
:103670000F91089560911D0B70911E0B882777FDA7
:103680008095982F0E9455A120E030E04AE754E44D
:103690000E94BAA060939B0770939C0780939D073C
:1036A00090939E0780914409992787FD9095A92FB3
:1036B000B92FFC013197EA30F10508F02EC1EE5820
:1036C000FF4F0C943EA480E19BE060E070E040E49A
:1036D0005FE10E947A9780919B0790919C07A0914F
:1036E0009D07B0919E078093780D9093790DA093DC
:1036F0007A0DB0937B0D8093B20D9093B30DA09390
:10370000B40DB093B50D089580E19BE060E070E0EA
:103710004CE251E00E947A9760911D0B70911E0B54
:10372000882777FD8095982F0E9455A120E030E0F2
:103730004AE754E40E94BAA0DC019B01AC0120934B
:103740009B0730939C0740939D0750939E072093BF
:10375000870D3093880D4093890D50938A0DCB01CE
:103760008093C10D9093C20DA093C30DB093C40D6F
:10377000089580E19BE060E070E04CE251E00E943F
:103780007A9780919B0790919C07A0919D07B0919B
:103790009E078093CA0C9093CB0CA093CC0CB09353
:1037A000CD0C8093040D9093050DA093060DB0935E
:1037B000070D089580E19BE060E070E04CE251E08D
:1037C0000E947A9780919B0790919C07A0919D07FA
:1037D000B0919E078093D90C9093DA0CA093DB0CE8
:1037E000B093DC0C8093130D9093140DA093150DE2
:1037F000B093160D089580E19BE060E070E048EE24
:1038000053E00E947A9780919B0790919C07A0912A
:103810009D07B0919E078093EC0D9093ED0DA093C2
:10382000EE0DB093EF0D089580E19BE060E070E055
:1038300048EE53E00E947A9780919B0790919C07F5
:10384000A0919D07B0919E0780933E0D90933F0DF0
:10385000A093400DB093410D089580E19BE060E09E
:1038600070E048EE53E00E947A9780919B07909118
:103870009C07A0919D07B0919E0780930E0F909397
:103880000F0FA093100FB093110F089580E19BE0EC
:1038900060E273E048EE53E00E947A9780919B07C4
:1038A00090919C07A0919D07B0919E0780935C0921
:1038B00090935D09A0935E09B0935F09089580E13C
:1038C0009BE060E070E048EE53E00E947A97209120
:1038D0001D0B30911E0B82E02935380744F480918E
:1038E0000B01846080930B0120593140B4F080912A
:1038F0000B018B7F80930B01089580E19BE060E0DA
:1039000070E048EE53E00E947A9780911D0B9091F1
:103910001E0B9093400880933F0808950F931F93C8
:10392000CF93DF930E94521106E016E0CAE8D4E07C
:1039300068EC70E080E090E00E94899E0E947B1716
:103940000E943A1B8DB79EB708970FB6F8949EBF9A
:103950000FBE8DBFEDB7FEB73196ADB7BEB71296AD
:10396000DC93CE9311971383028380919B079091F0
:103970009C07A0919D07B0919E0784839583A683A1
:10398000B7830E94BA908DB79EB708960FB6F89489
:103990009EBF0FBE8DBFCE010E9431911816190631
:1039A0003CF680E0DF91CF911F910F9108958091B7
:1039B000771090917810892B09F45AC00E94559E77
:1039C00020917110309172104091731050917410C9
:1039D000621B730B840B950B209175103091761040
:1039E00040E050E0621773078407950708F440C071
:1039F00037C001979093781080937710809177105B
:103A000090917810892BA1F10E94559E60937110BE
:103A10007093721080937310909374106091701073
:103A2000862F8450843088F48091771080FF05C001
:103A30004091791050917A1004C040917B105091C0
:103A40007C108FE492E10E94D479809170108530CF
:103A500079F480910B0194E0892780930B010895FC
:103A600080917710909178101816190614F2C6CF2D
:103A70000895CF93DF93C0E0D0E08AE894E065E05A
:103A800072E00E94529C2196C832D105B1F78AE8B3
:103A900094E060E072E00E94259DDF91CF9108954F
:103AA00000D00F928AE894E0EDB7FEB7928381834D
:103AB00082E796E0948383830E94BA900F900F90E0
:103AC0000F900F900E94391D0E946E120E94A0124A
:103AD00082E090E00E94611508950E94A0120E9469
:103AE000501D80E0089500D000D0EDB7FEB73196AC
:103AF0008AE894E0ADB7BEB712969C938E93119767
:103B000085E298E0938382838091AB079091AC0724
:103B1000958384830E94BA908DB79EB706960FB6A0
:103B2000F8949EBF0FBE8DBF0E94391D82E090E0C9
:103B30000E946115089500D00F928AE894E0EDB7D5
:103B4000FEB79283818384E398E0948383830E9409
:103B5000BA900F900F900F900F900E94391D0E9405
:103B6000E61282E090E00E9461150895CF93DF9302
:103B700000D00F92CAE8D4E0EDB7FEB7D283C1837C
:103B800081EC98E0948383830E94BA900F900F9009
:103B90000F900F900E94391D00D00F92EDB7FEB725
:103BA000D283C18385EB98E0948383830E94BA908B
:103BB000809150090F900F900F900F90813049F431
:103BC00000D00F92EDB7FEB7D283C1838DEA98E0A3
:103BD00015C0882349F400D00F92EDB7FEB7D28309
:103BE000C18385EA98E00AC0823081F400D00F9248
:103BF000EDB7FEB7D283C1838DE998E094838383C8
:103C00000E94BA900F900F900F900F9082E090E07A
:103C10000E946115DF91CF91089500D00F928AE83C
:103C200094E0EDB7FEB79283818381EF98E09483AF
:103C300083830E94BA900F900F900F900F900E9474
:103C4000391D80911309882311F40E94D6118091A7
:103C50001309813091F400D00F928AE894E0EDB717
:103C6000FEB79283818389EE98E0948383830E94D8
:103C7000BA900F900F900F900F908091130982309F
:103C800091F400D00F928AE894E0EDB7FEB79283EA
:103C9000818381EE98E0948383830E94BA900F9091
:103CA0000F900F900F9080911309833091F400D002
:103CB0000F928AE894E0EDB7FEB79283818386ED98
:103CC00098E0948383830E94BA900F900F900F9096
:103CD0000F9080911309843091F400D00F928AE8FC
:103CE00094E0EDB7FEB79283818388EC98E09483EB
:103CF00083830E94BA900F900F900F900F9082E0F4
:103D000090E00E94611508951F93CF93DF9300D038
:103D10000F928AE894E0EDB7FEB79283818387E043
:103D200099E0948383830E94BA900F900F900F9034
:103D30000F900E94391DC8E9D8E010E0812F6881FA
:103D40000E9472152C961F5F1630C1F782E090E03A
:103D50000E946115DF91CF911F910895CF93DF935A
:103D600000D00F92CAE8D4E0ADB7BEB71296DC938C
:103D7000CE9311978DE599E014969C938E931397AB
:103D80000E94BA900F900F900F900F900E94391DD3
:103D900020914409222321F480E00E94D6111FC003
:103DA00000D000D0EDB7FEB73196ADB7BEB71296D2
:103DB000DC93CE93119788E599E093838283822FD9
:103DC000992787FD9095958384830E94BA90EDB7DB
:103DD000FEB736960FB6F894FEBF0FBEEDBF82E079
:103DE00090E00E946115DF91CF91089500D00F926D
:103DF0008AE894E0EDB7FEB79283818385EE92E185
:103E0000948383830E94BA900F900F900F900F902D
:103E10000E94391D80910C120E94D61182E090E020
:103E20000E9461150895ACE2B0E0E9E1FFE10C9475
:103E300007A4DE011196EDEEF4E084E201900D920C
:103E40008150E1F769807A808B809C80AD84BE844C
:103E5000CF84D888298C3A8C4B8C5C8C89A19AA110
:103E6000ABA1BCA189A79AA7ABA7BCA78D8D9E8D3E
:103E7000AF8DB8A18DA39EA3AFA3B8A7C401B30112
:103E8000A40193010E94BDA27B018C01C601B50172
:103E9000A60195010E94BDA29B01AC01C801B7011A
:103EA0000E94ED9F0E942AA37B018C01C601B501EF
:103EB000A80197010E94BAA060930D0370930E03AE
:103EC00080930F0390931003C401B301A8019701DD
:103ED0000E94BAA06093C20F7093C30F8093C40F67
:103EE0009093C50FD201C101B0588093BA0F90933F
:103EF000BB0FA093BC0FB093BD0FC201B101A201D3
:103F000091010E94BDA29B01AC0160E070E080E8DD
:103F10009FE30E94EC9F0E942AA37B018C01609387
:103F2000050370930603809307039093080369A524
:103F30007AA58BA59CA5A80197010E94BAA06093C1
:103F4000090370930A0380930B0390930C036DA1F4
:103F50007EA18FA198A5A80197010E94BAA06093A5
:103F6000BE0F7093BF0F8093C00F9093C10FAC969C
:103F7000E2E10C9423A4A0E3B0E0E1ECFFE10C94B7
:103F80000DA40E94501D0E94501D0E94521168EE07
:103F900073E080E090E00E94899E0E94559E6093AD
:103FA000B40F7093B50F8093B60F9093B70F13E6CD
:103FB000812E16E0912EB0E2AB2EB6E0BB2E6E0144
:103FC0000894C11CD11CAAE8EA2EA4E0FA2E8E01A6
:103FD000035F1F4F0E94559E2091B40F3091B50F83
:103FE0004091B60F5091B70F621B730B840B950B6A
:103FF000653071058105910508F4FFC00E94559E4A
:104000002091B40F621B6093B80F70E080E090E0E5
:104010000E9453A120E030E04AE754E40E94BAA095
:10402000609301037093020380930303909304034E
:104030000E94559E6093B40F7093B50F8093B60F96
:104040009093B70FD601E1E1F5E08CE001900D927D
:104050008150E1F7ADE6BFE0F6018CE001900D92F2
:104060008150E1F78091B90F8F5F8093B90F843051
:1040700011F40E94131F8091B90F843109F05AC0C6
:104080000E947B171092B90F8DB79EB740970FB65D
:10409000F8949EBF0FBE8DBFEDB7FEB73196ADB79A
:1040A000BEB71296FC92EE92119793828282809113
:1040B000D2049091D304A091D404B091D504848308
:1040C0009583A683B7838091D6049091D704A0915D
:1040D000D804B091D90480879187A287B387809153
:1040E000DA049091DB04A091DC04B091DD048487B4
:1040F0009587A687B7870E94BA908DB79EB74096DE
:104100000FB6F8949EBF0FBE8DBF80912C098823F7
:1041100089F083E695E00E949586D801EDEEF4E003
:1041200084E201900D928150E1F783E695E0B801B9
:104130000E94EE86ADB7BEB75C970FB6F894BEBFCF
:104140000FBEADBFEDB7FEB731961296FC92EE9260
:104150001197B382A2828091050390910603A091EA
:104160000703B091080384839583A683B783809166
:10417000BA0F9091BB0FA091BC0FB091BD0F80877B
:104180009187A287B3878091090390910A03A09138
:104190000B03B0910C0384879587A687B78780911E
:1041A000BE0F9091BF0FA091C00FB091C10F808B37
:1041B000918BA28BB38B80910D0390910E03A091F4
:1041C0000F03B0911003848B958BA68BB78B8091D6
:1041D000C20F9091C30FA091C40FB091C50F808FF3
:1041E000918FA28FB38F0E94BA908DB79EB74C96D5
:1041F0000FB6F8949EBF0FBE8DBF8AE894E00E9470
:104200003191181619060CF0E5CE80E0E096ECE04E
:104210000C9429A4AF92BF92CF92DF92EF92FF92BB
:104220000F931F937C018B01FB0167817085818552
:104230009285F7012781308541855285621B730B7A
:10424000840B950B0E9455A15B016C01F8016385FD
:10425000748585859685F701238534854585568542
:10426000621B730B840B950B0E9455A120911303C5
:104270003091140340911503509116030E94BDA282
:104280007B018C01C601B501A60195010E94BDA26A
:104290005B016C01C801B701A80197010E94BDA292
:1042A0009B01AC01C601B5010E94ED9F0E942AA3AB
:1042B00028EC32E646E35CE30E94BDA20E9422A104
:1042C0009B01AC01CA011F910F91FF90EF90DF900D
:1042D000CF90BF90AF900895A0E0B0E0E2E7F1E2A8
:1042E0000C9411A40E94521168EE73E080E090E0FB
:1042F0000E94899E9EEBC92E96E0D92E8AE8E82E70
:1043000084E0F82E6DE471E080E090E00E94899EE8
:104310000E94BD108091C60F9091C70F0E94D08C53
:10432000C091C60FD091C70F8FA1882309F445C053
:104330008DB79EB742970FB6F8949EBF0FBE8DBF44
:104340000DB71EB70F5F1F4FEDB7FEB7F282E182C8
:10435000F801D382C2828C859D85AE85BF8584831A
:104360009583A683B78388899989AA89BB89808721
:104370009187A287B3876C897D898E899F8924E67E
:1043800030E040E050E00E94ECA3F801248735873C
:10439000468757878EA1808B118A0E94BA90E09140
:1043A000C60FF091C70F17A28DB79EB742960FB6F2
:1043B000F8949EBF0FBE8DBF06C08AE894E067E008
:1043C00072E00E94529C8AE894E00E943191181693
:1043D00019060CF097CF80E0CDB7DEB7E8E00C947B
:1043E0002DA400D00F928AE894E0EDB7FEB7928337
:1043F00081838BE497E0948383830E94BA900F902B
:104400000F900F900F9080E89FE00E943F8580E022
:10441000089585E99FE00E943F8580E00895CF934D
:10442000DF9300D00F92CAE8D4E0EDB7FEB7D28395
:10443000C18387E198E0948383830E94BA900F90B0
:104440000F900F900F9080918E0990918F09845159
:10445000954064F168EE73E080E090E00E94899EF0
:1044600000D00F92EDB7FEB7D283C1838EEE97E0F6
:10447000948383830E94BA900F900F900F900F90B7
:1044800068EE73E080E090E00E94899E00D00F9279
:10449000EDB7FEB7D283C1838BEC97E0948383831F
:1044A0000E94BA900F900F900F900F9087E89FE0B6
:1044B0000E943F8580E0DF91CF91089589E79FE0DA
:1044C0000E943F8580E008958CEF98E00E94687E0E
:1044D00000D00F928AE894E0EDB7FEB79283818313
:1044E00080E099E0948383830E94BA900F900F90AC
:1044F0000F900F900E94391D809107090E94D611DC
:1045000082E090E00E9461150895A0E0B0E0EBE841
:10451000F2E20C9411A400D00F923AE8E32E34E0BA
:10452000F32EADB7BEB71296FC92EE9211978FE4C0
:1045300099E014969C938E9313970E94BA900F90D3
:104540000F900F900F900E94391D80912C090E94AE
:10455000D61123E6C22E25E0D22EC6010E94BA86CD
:10456000CDB7DEB728970FB6F894DEBF0FBECDBF2C
:104570000DB71EB70F5F1F4FFA82E9822FE339E0B4
:10458000F8013383228321EE3EE245E652E40E94A5
:10459000BDA2D80114966D937D938D939C9317972C
:1045A0000E94BA90CDB7DEB728960FB6F894DEBF5A
:1045B0000FBECDBFC6010E94B5869C01EDB7FEB708
:1045C00070970FB6F894FEBF0FBEEDBF3196ADB732
:1045D000BEB71296FC92EE9211978EE199E093830A
:1045E0008283E90188819981AA81BB818483958333
:1045F000A683B7838C819D81AE81BF81808791879F
:10460000A287B38788859985AA85BB858487958786
:10461000A687B7870E94BA90EDB7FEB770960FB61F
:10462000F894FEBF0FBEEDBF82E090E00E946115DE
:10463000CDB7DEB7E8E00C942DA4FF920F931F9343
:10464000F82E8B0188E090E00E9461150E94731D96
:104650000E949B1D0E94B61D0E940D1E0E94642296
:104660000E94841E0E94501D0E9485228F2DB80139
:104670000E94198480E01F910F91FF900895FB0123
:10468000608971898289938925E33AEF4EE85CE37A
:104690000E94BDA2AB01BC0183E695E00E94738934
:1046A0000E94852280E00895FB018485809344095F
:1046B00089E399E00E94F77E0E94AE1E80E0089593
:1046C00000D00F928AE894E0EDB7FEB79283818321
:1046D00088E19AE0948383830E94BA9081E080937A
:1046E00038090F900F900F900F908DE299E00E9483
:1046F000F77E64E170E080E090E00E94899E8AE8A5
:1047000094E00E943191181619069CF7109238090E
:104710008DE299E00E94F77E80E0089564E170E008
:1047200080E090E00E94899E0E947B172091360ACB
:104730003091370A3093CB0F2093CA0F3093CD0FAF
:104740002093CC0F3093CF0F2093CE0F3093D10F07
:104750002093D00F80915009813009F04FC04091D3
:10476000790950917A098BE0493B580754F0C90107
:10477000C2969093CB0F8093CA0F9093D10F8093E2
:10478000D00F4854544F94F48091CC0F9091CD0F9A
:10479000C2969093CD0F8093CC0F8091CE0F9091C5
:1047A000CF0FC2969093CF0F8093CE0F2091CD095B
:1047B0003091CE094BE0293B340794F08091CC0F27
:1047C0009091CD0FC2969093CD0F8093CC0F809196
:1047D000D00F9091D10FC2969093D10F8093D00FAC
:1047E0002854344F0CF041C08091CA0F9091CB0FE8
:1047F000C2969093CB0F8093CA0F2EC080917909F7
:1048000090917A094BE0893B940734F02E5C3F4F3E
:104810003093CB0F2093CA0F8854944F4CF480915F
:10482000CC0F9091CD0FC2969093CD0F8093CC0F6B
:104830002091CD093091CE094BE0293B34074CF053
:104840008091D00F9091D10FC2969093D10F809309
:10485000D00F2854344F4CF48091CE0F9091CF0F4D
:10486000C2969093CF0F8093CE0F4091CA0F509174
:10487000CB0F8FE492E160E00E94D4794091CC0F9D
:104880005091CD0F8FE492E161E00E94D479409184
:10489000CE0F5091CF0F8FE492E162E00E94D47965
:1048A0004091D00F5091D10F8FE492E163E00E94CC
:1048B000D4798AE894E00E943191181619060CF018
:1048C0002DCF109238098DE299E00E94F77E80E0AA
:1048D0000895FF920F931F93CF93DF9300D00F9211
:1048E0008AE894E0EDB7FEB79283818381EB99E08B
:1048F000948383830E94BA900F900F900F900F9033
:104900000E945211FF2410E064E170E080E090E02A
:104910000E94899E0E947B170E94730F082FF81631
:10492000A1F090E0FC01EE0FFF1FE80FF91FEE0F62
:10493000FF1FEE0FFF1FE357F74F1385193008F0E5
:1049400018E0802F612F0E9472150E941B1088238F
:10495000B1F01F5F193009F410E0802F90E0FC01E6
:10496000EE0FFF1FE80FF91FEE0FFF1FEE0FFF1FE7
:10497000E357F74F1387802F612F0E9472158AE843
:1049800094E00E943191F02E181619060CF0BCCF5D
:10499000CDE8D8E0CE010E94F77E2C96F8E0C53D28
:1049A000DF07C1F70E94BA130E94841E80E0CDB7D2
:1049B000DEB7E5E00C9430A4A4E2B0E0E2EEF4E26D
:1049C0000C9415A480E090E0A0E8BFE389839A836B
:1049D000AB83BC8380E090E0A0E0B0E08D839E8359
:1049E000AF83B88789879A87AB87BC878D879E8777
:1049F000AF87B88B20E030E040E85FEB298B3A8B43
:104A00004B8B5C8B8D8B9E8BAF8BB88F898F9A8FE6
:104A1000AB8FBC8F8D8F9E8FAF8FB8A329A33AA386
:104A20004BA35CA303E615E0C801BE016F5F7F4F97
:104A30000E948489C8010E949686C8010E94B5869A
:104A4000A496E4E00C9431A4CF93DF93FB01C285DC
:104A5000D385CE0167E979E00E9497A5892B21F4DF
:104A600081E08093070909C0CE0163E979E00E94E3
:104A700097A5892B39F4109207098CEF98E00E94D2
:104A8000F77E12C000D00F928AE894E0EDB7FEB72F
:104A9000928381838FE799E0948383830E94BA9005
:104AA0000F900F900F900F900E94642280E0DF9192
:104AB000CF910895CF93DF93FB01EB012A96828576
:104AC00093856DEA79E00E9497A5892B19F41092DD
:104AD00013090FC02A813B814C815D81DA01C90134
:104AE0000197A109B1090497A105B10538F42093F4
:104AF000130988E099E00E94F77E12C000D00F925F
:104B00008AE894E0EDB7FEB7928381838AE999E061
:104B1000948383830E94BA900F900F900F900F9010
:104B20000E940D1E80E0DF91CF910895CF93DF9317
:104B3000FB01C285D385CE0164EF7AE00E9497A580
:104B4000892B11F481E019C0CE0162EF7AE00E9456
:104B500097A5892B39F0CE0160EF7AE00E9497A5E6
:104B6000892B19F4109250090AC0CE016EEE7AE03A
:104B70000E9497A5892B41F482E08093500985E437
:104B800099E00E94F77E12C000D00F928AE894E06C
:104B9000EDB7FEB7928381838CED9AE09483838393
:104BA0000E94BA900F900F900F900F900E94B61D28
:104BB00080E0DF91CF910895ACE0B0E0E2EEF5E265
:104BC0000C9415A4FB0102851385C8016CE779E0FC
:104BD0000E9497A5892B51F481E080932C0981E2F2
:104BE00099E00E94F77E0E94DC243CC0C80168E77F
:104BF00079E00E9497A5892B11F580E090E0A0E074
:104C0000B0E089839A83AB83BC838D839E83AF831B
:104C1000B88789879A87AB87BC8783E695E0BE0112
:104C20006F5F7F4F0E94988683E695E00E947F89A0
:104C300010922C0981E299E00E94F77E13C000D007
:104C40000F928AE894E0EDB7FEB79283818385E600
:104C500099E0948383830E94BA900F900F900F90F5
:104C60000F9004C081E299E00E94F77E0E948522A5
:104C700080E02C96E4E00C9431A40F931F93CF9323
:104C8000DF938AE894E069E072E00E94259D00E0ED
:104C900064E170E080E090E00E94899E0E947B17B2
:104CA0000F5F0436A9F7C0917709D091780981E0A8
:104CB000C43FD8073CF468EE73E080E090E00E94C7
:104CC000899EF9CFD0938F09C0938E092091CB098B
:104CD0003091CC093093E3092093E20900911F0A37
:104CE0001091200A1093370A0093360A8091730AB4
:104CF0009091740A90938B0A80938A0AA091C70AB4
:104D0000B091C80AB093DF0AA093DE0AE0911B0BB2
:104D1000F0911C0BF093330BE093320B60916F0B0F
:104D20007091700B7093870B6093860B4091C30B4F
:104D30005091C40B5093DB0B4093DA0BD093A9092D
:104D4000C093A8093093FD092093FC091093510AE0
:104D50000093500A9093A50A8093A40AB093F90A8D
:104D6000A093F80AF0934D0BE0934C0B7093A10BBA
:104D70006093A00B5093F50B4093F40BD0939C09D8
:104D8000C0939B093093F0092093EF099093980A00
:104D90008093970A8CED95E09093EC0A8093EB0A50
:104DA0009093400B80933F0B9093940B8093930BC5
:104DB0009093E80B8093E70B00D00F928AE894E081
:104DC000EDB7FEB79283818386EF9AE09483838365
:104DD0000E94BA900F900F900F900F9064E170E0D6
:104DE00080E090E00E94899E0E947B178CE699E00B
:104DF0000E94D29780EC99E00E94D29784E19AE0D9
:104E00000E94D29788E69AE00E94D2978CEB9AE0B3
:104E10000E94D29780E19BE00E94D29784E69BE0BB
:104E20000E94D29788EB9BE00E94D2978AE894E098
:104E30000E943191181619068CF664E170E080E04A
:104E400090E00E94899E8AE894E00E94AE918CE6F0
:104E500099E00E94F39980EC99E00E94F39984E133
:104E60009AE00E94F39988E69AE00E94F3998CEB0D
:104E70009AE00E94F39980E19BE00E94F39984E616
:104E80009BE00E94F39988EB9BE00E94F3990E94BB
:104E9000BA130E949B1D80E0DF91CF911F910F916B
:104EA000089500D00F928AE894E0EDB7FEB79283A0
:104EB000818383E59BE0948383830E94BA900F9063
:104EC0000F900F900F908AE894E00E946191FFEF9D
:104ED0008F3F9F07C1F38937910529F089359105E7
:104EE00011F08FEF08950E94D37E00D00F928AE8D0
:104EF00094E0EDB7FEB7928381838EE29BE09483CA
:104F000083830E94BA900F900F900F900F9068EEDD
:104F100073E080E090E00E94899EFFCFCF93DF9303
:104F200000D00F928AE894E0EDB7FEB792838183B8
:104F300081E99BE0948383830E94BA90C0E0D0E033
:104F40000F900F900F900F90CE0160E00E9498A8F4
:104F50002196F0E1C030DF07B9F700D00F928AE860
:104F600094E0EDB7FEB7928381838BE89BE0948356
:104F700083830E94BA900F900F900F900F90DF9153
:104F8000CF9108950E948E2780E00895EF92FF92BE
:104F90000F931F93CF93DF937B018230A1F000D05A
:104FA0000F928AE894E0EDB7FEB79283818380E5A3
:104FB0009CE0948383830E94BA908FEF0F900F90B0
:104FC0000F900F9091C0FB0102851385C8016CE41E
:104FD0007CE00E9484A5892B19F4CFEFDFEF63C03A
:104FE000C8016EE37CE00E9484A5C0E0D0E0892B7C
:104FF00011F4C1E0D0E0C80161E37CE00E9484A527
:10500000892B09F4C260C8016DE27CE00E9484A58E
:10501000892B09F4C460C8016AE27CE00E9484A57F
:10502000892B09F4C860C80165E27CE00E9484A570
:10503000892B09F4C061C80160E27CE00E9484A56C
:10504000892B09F4C062C8016BE17CE00E9484A551
:10505000892B09F4C064C80167E17CE00E9484A543
:10506000892B09F4C068C80163E17CE00E9484A533
:10507000892B09F4D160C8016FE07CE00E9484A50F
:10508000892B09F4D260C80168E07CE00E9484A505
:10509000892B09F4D460C80160E07CE00E9484A5FB
:1050A000892B09F4D860F7018081918169EF7BE059
:1050B0000E9484A5892B39F48091ED089091EE0827
:1050C000C82BD92B08C0C095D0958091ED08909140
:1050D000EE08C823D923D093EE08C093ED0882EEE2
:1050E00098E00E94F77E80E0CDB7DEB7E6E00C9452
:1050F0002FA4CF93DF9300D00F928AE894E0EDB70E
:10510000FEB79283818380E79CE0948383830E942F
:10511000BA90C1E0D0E00F900F900F900F9084E50F
:1051200093E1BE010E94178E2196F0E1C030DF07A7
:10513000B1F784E593E161E070E00E940B8E84E5B5
:1051400093E163EA0E94C18E84E593E165E90E94E0
:10515000C18E84E593E160EF0E94C18E84E593E106
:1051600060E00E94C18E84E593E16AEB0E94C18EEB
:1051700084E593E10E94398F00D00F928AE894E091
:10518000EDB7FEB79283818382E69CE094838383AC
:105190000E94BA900F900F900F900F9080E0DF91D7
:1051A000CF910895CF92DF92EF92FF920F931F93CA
:1051B00004E513E1C8010E9422906C01C8010E941D
:1051C00022907C01C8010E9422902DB73EB72A5040
:1051D00030400FB6F8943EBF0FBE2DBFEDB7FEB7FF
:1051E00031962AE834E0ADB7BEB712963C932E93C1
:1051F00011972FE83CE033832283D582C482F78263
:10520000E682918780870E94BA902DB73EB7265FCD
:105210003F4F0FB6F8943EBF0FBE2DBF1F910F91A9
:10522000FF90EF90DF90CF900895EF92FF920F9351
:105230001F9300D00F920AE814E0ADB7BEB71296E4
:105240001C930E93119786EA9CE014969C938E9380
:1052500013970E94BA900F900F900F900F90B4E5A3
:10526000EB2EB3E1FB2EC7010E94B18FE82FF0E0D7
:10527000EE0FFF1FEC5CFC4F60817181C8010E9442
:10528000529CC7010E94229000D000D0EDB7FEB71B
:105290003196ADB7BEB712961C930E93119720EAC4
:1052A0003CE033832283958384830E94BA90EDB7D8
:1052B000FEB736960FB6F894FEBF0FBEEDBF1F9136
:1052C0000F91FF90EF900895A4E0B0E0EAE6F9E2D4
:1052D0000C9407A404E513E1C8010E9422909A836C
:1052E0008983C8010E9422909C838B83C8010E94FD
:1052F00022901C01C8010E9422902C01C8010E942A
:1053000022903C01C8010E9422904C01C8010E94D9
:1053100022905C01C8010E9422906C01C8010E9489
:1053200022907C01C8010E9422902DB73EB72851DF
:1053300030400FB6F8943EBF0FBE2DBFEDB7FEB79D
:1053400031962AE834E0ADB7BEB712963C932E935F
:1053500011972BEA3CE03383228329813A813583FC
:105360002483AB81BC81B783A68331862086538694
:1053700042867586648697868686B18AA08AD38A95
:10538000C28AF58AE48A978B868B0E94BA90EDB721
:10539000FEB778960FB6F894FEBF0FBEEDBF249609
:1053A000E2E10C9423A47F928F929F92AF92BF92DE
:1053B000CF92DF92EF92FF920F931F9304E513E1D8
:1053C000C8010E9422904C01C8010E94B18F782E22
:1053D000C8010E9422905C01C8010E9422906C01C9
:1053E000C8010E9422907C01C8010E9422902DB722
:1053F0003EB7205130400FB6F8943EBF0FBE2DBFD0
:10540000EDB7FEB731962AE834E0ADB7BEB71296D5
:105410003C932E93119725ED3CE0338322839582B4
:10542000848276821782B186A086D386C286F5866C
:10543000E486978786870E94BA902DB73EB7205F93
:105440003F4F0FB6F8943EBF0FBE2DBF1F910F9177
:10545000FF90EF90DF90CF90BF90AF909F908F9094
:105460007F900895AF92BF92CF92DF92EF92FF921A
:105470000F931F9304E513E1C8010E9422905C0181
:10548000C8010E9422906C01C8010E9422907C01F8
:10549000C8010E9422902DB73EB72C5030400FB665
:1054A000F8943EBF0FBE2DBFEDB7FEB731962AE888
:1054B00034E0ADB7BEB712963C932E93119729E70F
:1054C0003DE033832283B582A482D782C682F186EF
:1054D000E086938782870E94BA902DB73EB7245FFB
:1054E0003F4F0FB6F8943EBF0FBE2DBF1F910F91D7
:1054F000FF90EF90DF90CF90BF90AF9008951F93F3
:1055000084E593E161E070E00E94389010E084E56A
:1055100093E10E94B18F113051F0113018F0123028
:1055200099F408C010E0833A79F411E00DC0853990
:1055300051F407C0803F39F484E593E10E94B18FB4
:105540000AC012E001C010E084E593E10E94728D70
:105550000197E9F280E01F910895EF92FF920F9377
:105560001F93CF93DF938C01C0E0D0E11FC0CE0129
:10557000800F911F62E070E00E94B7A3F62EE72E25
:1055800084E593E10E94389084E593E10E94E18FE5
:105590006F5F7F4F8F4F9F4F29F48F2D9E2D9C0162
:1055A000E90104C08F2D9E2D9C018901CE01801B35
:1055B000910B0297E4F6CE01CDB7DEB7E6E00C948E
:1055C0002FA4A0E0B0E0E7EEFAE20C940FA4E82EDE
:1055D0006B015A0184E593E161E070E00E9438902C
:1055E00010E084E593E10E94B18F113051F0113049
:1055F00018F01230A9F508C010E0833A89F511E0DF
:105600002FC0853961F529C0803F49F584E593E1D4
:105610000E94B18FF82EC0E0D0E00E2D10E00FC038
:1056200084E593E10E942290F6019183808384E5D2
:1056300093E10E942290F501918380832196C01707
:10564000D10774F3EF1499F4F601808191810E94DF
:10565000AD2AF501918380830AC012E001C010E0F9
:1056600084E593E10E94728D019709F4BACFCDB71A
:10567000DEB7EAE00C942BA4A4E0B0E0E2E4FBE2A5
:105680000C940BA40E947F2AD82E00D00F920AE817
:1056900014E0ADB7BEB712961C930E93119785ED2B
:1056A00090E114969C938E9313970E94BA908091E8
:1056B000ED089091EE080F900F900F900F900097CB
:1056C00059F400D00F92EDB7FEB71283018380ED3D
:1056D00090E19483838308C180FF14C000D00F92AF
:1056E000ADB7BEB712961C930E93119781EC90E163
:1056F00014969C938E9313970E94BA900F900F90DC
:105700000F900F908091ED0881FF12C000D00F9292
:105710008AE894E0EDB7FEB79283818383EB90E152
:10572000948383830E94BA900F900F900F900F90F4
:105730008091ED0882FF16C000D00F928AE894E0B5
:10574000ADB7BEB712969C938E9311978EEA90E1F7
:1057500014969C938E9313970E94BA900F900F907B
:105760000F900F908091ED0883FF12C000D00F9230
:105770008AE894E0EDB7FEB7928381838AEA90E1EC
:10578000948383830E94BA900F900F900F900F9094
:105790008091ED0884FF16C000D00F928AE894E053
:1057A000ADB7BEB712969C938E93119784EA90E1A1
:1057B00014969C938E9313970E94BA900F900F901B
:1057C0000F900F908091ED0885FF12C000D00F92CE
:1057D0008AE894E0EDB7FEB7928381838EE990E189
:1057E000948383830E94BA900F900F900F900F9034
:1057F0008091ED0887FF16C000D00F928AE894E0F0
:10580000ADB7BEB712969C938E93119789E990E13C
:1058100014969C938E9313970E94BA900F900F90BA
:105820000F900F908091ED089091EE0890FF12C0BC
:1058300000D00F928AE894E0EDB7FEB7928381839F
:1058400084E990E1948383830E94BA900F900F9033
:105850000F900F908091ED089091EE0891FF16C087
:1058600000D00F928AE894E0ADB7BEB712969C9331
:105870008E9311978BE890E114969C938E931397D7
:105880000E94BA900F900F900F900F908091ED08AA
:105890009091EE0892FF12C000D00F928AE894E037
:1058A000EDB7FEB79283818383E890E1948383838D
:1058B0000E94BA900F900F900F900F908091ED087A
:1058C0009091EE0893FF16C000D00F928AE894E002
:1058D000ADB7BEB712969C938E9311978AE790E16D
:1058E00014969C938E9313970E94BA900F900F90EA
:1058F0000F900F902AE8E22E24E0F22EC7010E94BA
:105900000E9DDD2089F400D00F92EDB7FEB7F28234
:10591000E18280E690E1948383830E94BA900F90A5
:105920000F900F900F9064C0CD2CDD2400D000D0DC
:10593000EDB7FEB73196ADB7BEB71296FC92EE92B8
:10594000119786E590E193838283D582C4820E9479
:10595000BA9095E3692E90E1792E01E010E0EDB761
:10596000FEB736960FB6F894FEBF0FBEEDBF4701E7
:1059700083E0A82EB12CAC0EBD1E7E010894E11C64
:10598000F11C2FC0802FB701A5010E94E12A8DB71D
:105990009EB70A970FB6F8949EBF0FBE8DBFEDB7A6
:1059A000FEB73196ADB7BEB711968C92119712968D
:1059B0009C92738262821583048389819A81978382
:1059C00086838B819C81918780870E94BA900F5F2C
:1059D0001F4FEDB7FEB73A960FB6F894FEBF0FBE55
:1059E000EDBFC016D10674F68AE894E00E940E9DC1
:1059F00081E02496EEE00C9427A4A1E0B0E0E3E07F
:105A0000FDE20C9407A404E513E1C8010E94E18FB4
:105A10006B017C01C8010E9422903C01C8010E94D8
:105A200022904C01C8010E94B18F8983C8010E9455
:105A3000B18F282EC8010E94B18F382EC8010E9454
:105A4000B18F482EC8010E94B18F582EC8010E9404
:105A500022905C01C8010E94E18F2DB73EB72C5106
:105A600030400FB6F8943EBF0FBE2DBFEDB7FEB766
:105A700031962AE834E0ADB7BEB712963C932E9328
:105A8000119723EF3CE033832283C482D582E682E0
:105A9000F7827186608693868286B981B48715867F
:105AA00026861786308A118A428A138A548A158A72
:105AB000B78AA68A608F718F828F938F0E94BA9067
:105AC000EDB7FEB77C960FB6F894FEBF0FBEEDBFE4
:105AD0002196E2E10C9423A43F924F925F926F9241
