:100000000C94B00B0C94DC0B0C94DC0B0C94DC0B00
:100010000C94DC0B0C94DC0B0C94DC0B0C94DC0BC4
:100020000C94DC0B0C94DC0B0C94DC0B0C94DC0BB4
:100030000C94DC0B0C94DC0B0C94DC0B0C94D18733
:100040000C94DC0B0C94DC0B0C94DC0B0C94DC0B94
:100050000C94DC0B0C94DC0B0C94DC0B0C94DAD7BA
:100060000C94DC0B0C94480E0C94880E0C94DC0B56
:100070000C94DC0B0C94DC0B0C94DC0B0C94DC0B64
:100080000C94DC0B0C94DC0B0C94DC0B0C94DC0B54
:100090000C94DA0E0C941A0F0C94DC0B0C9450D4C4
:1000A0000C94DC0B0C943E860C94DC0B0C94DC0B57
:1000B0000C94DC0B0C94DC0B0C94DC0B0C94DC0B24
:1000C0000C94DC0B0C94DC0B0C94DC0B0C94DC0B14
:1000D0000C94DC0B0C94DC0B0C946C0F0C94AC0F9C
:1000E0000C94DC0B8D1DAE1D251EE31D041E3E1E53
:1000F000571E701E891EA71EB81E5C327D325F32ED
:100100006232653268326B326E32713274327732FB
:100110007A32733E733E973E063FDB3E213F3C3FC3
:10012000693FA73FEE3F745970597D5983599F59D4
:10013000E359CF59FA59BB59CD5AF95A025B055BBD
:10014000085B4B630B5B4B634B634B630E5B115B59
:10015000145B345B325B325B325B405B325B365B41
:10016000325B325B435B525B455B485B325B325BCD
:10017000325B4B5B325B325B325B325B325B525BDE
:10018000325B545BB586BA86BF86C486C986CE8686
:10019000D386D886DD86E286E7865DBD58BD61BD23
:1001A00065BD73BD8CBDB6BDC7BD06BF01BF0ABF6F
:1001B00013BF3ABF46BF60BF81BF88BF17D91AD9E6
:1001C0000DD911D953D91ED922D928D92CD930D932
:1001D00036D93AD93ED944D948D94ED9036EDB36FF
:1001E0003D9A9999993DABAAAA2A3E000000803F0A
:1001F000084AD73B3BCE016E84BCBFFDC12F3D6C8E
:1002000074319ABD56833DDA3D00C77F11BED9E4F3
:10021000BB4C3E916BAAAABE000000803F072C7A1F
:10022000A5BA6CC590DA3B9365FC8BBC53F810FD06
:100230003C5692834DBD879D3AB63DCBC9BF5BBE50
:1002400073DA0FC93F05A84CCDB2D44EB93836A9E0
:10025000020C50B9918688083CA6AAAA2ABE0000C2
:1002600000803F08000000BE922449123EABAAAABB
:100270002ABECDCCCC4C3E00000080BEABAAAAAAC0
:100280003E00000000BF000000803F0000000000B2
:10029000084178D3BB4387D1133D190E3CC3BD42FF
:1002A00082AD2B3E68EC8276BED98FE1A93E4C80B0
:1002B000EFFFBE01C4FF7F3F00000000004C6F67EE
:1002C0000064756D700000000000000000000090E8
:1002D000326572617365000000000000000000EAF2
:1002E0002A656E61626C6500000000000000003746
:1002F0002A64697361626C650000000000000037C9
:100300002A68656C70000000000000000000009981
:1003100014706C616E6E657200676373000000009C
:1003200000000000000000ED6473657475700065E6
:1003300072617365000000000000000000332A7243
:1003400065736574000000000000000000C229729F
:100350006164696F000000000000000000AE2866C4
:1003600072616D65000000000000000000FB276D59
:100370006F746F727300000000000000005D26655E
:10038000736300000000000000000000002F266CD6
:100390006576656C000000000000000000A2286D7A
:1003A0006F646573000000000000000000C9266251
:1003B00061747465727900000000000000BF27734B
:1003C0006F6E61720000000000000000008927636A
:1003D0006F6D7061737300000000000000412874AD
:1003E000756E650000000000000000000023266418
:1003F00065636C696E6174696F6E0000000E267330
:10040000686F7700000000000000000000EC25414C
:10041000726475436F7074657220322E302E3431E1
:100420002042657461006C6F67730000000000007B
:10043000000000002D257365747570000000000039
:1004400000000000DE2474657374000000000000EA
:1004500000000000D82468656C70000000000000F7
:10046000000000009E13706C616E6E6572000000EB
:1004700000000000C024746573740070776D000084
:10048000000000000000000000271A726164696F1C
:10049000000000000000000000BB196661696C7379
:1004A000616665000000000000EE106770730000D8
:1004B0000000000000000000003B246164630000B5
:1004C000000000000000000000CD23696D750000F1
:1004D00000000000000000000028226261747465C2
:1004E000727900000000000000FE1274756E650055
:1004F000000000000000000000D91E7472690000B6
:10050000000000000000000000011D6375727265AC
:100510006E7400000000000000781C72656C617948
:10052000000000000000000000A412776179706FE5
:10053000696E747300000000001018616C746974B7
:10054000756465000000000000FE16736F6E617236
:10055000000000000000000000D915636F6D70619D
:1005600073730000000000000021157862656500CB
:100570000000000000000000004812656564756D11
:10058000700000000000000000C014726177677006
:100590007300000000000000000912486974204543
:1005A0006E74657220746F20657869742E0A0A0073
:1005B000202530327800253034783A00426567696A
:1005C0006E205842656520582D4354552052616E67
:1005D000676520616E6420525353492054657374DB
:1005E0003A0A00436F6D706173733A200048656189
:1005F00064696E673A20256C642C2058595A3A2059
:1006000025642C2025642C2025640A0061626C6519
:10061000640A0064697300656E00536F6E61723A1C
:1006200020256420636D0A00536F6E617220646937
:100630007361626C65640A004261726F3A202564DE
:10064000636D0A00486974207261643A2025640A67
:100650000025642077700A006F662025646D0A000B
:100660000A00486F6C6420616C742000636F6D6DCC
:10067000616E6420233A2025642069643A25642051
:100680006F703A25642070313A25642070323A2523
:100690006C642070333A256C642070343A256C64A5
:1006A000200A0052656C6179206F66660A00526507
:1006B0006C6179206F6E0A00563A2025342E34661C
:1006C0002C20413A2025342E34662C206D41683A86
:1006D0002025342E34660A00696E7075743A202520
:1006E00064096F757470757425640A0074756E659D
:1006F0003A2025312E33660A004E6F7420656E61F4
:10070000626C65640A0063703A2025312E32662CD3
:100710002073703A2025312E32662C2063723A20E5
:1007200025312E32662C2073723A2025312E326606
:100730002C2063793A2025312E32662C2073793AA9
:100740002025312E32662C0A00256C642C20256C65
:10075000642C20256C640A00494D550A00477972C3
:100760006F206F6666736574733A2025342E326687
:100770002C2025342E32662C2025342E32660A0099
:10078000416363656C206F6666736574733A2025F8
:10079000342E32662C2025342E32662C2025342E21
:1007A00032660A0025642C004144430A004C6174FF
:1007B0003A20256C642C204C6F6E20256C642C2014
:1007C000416C743A20256C646D2C20237361747322
:1007D0003A2025640A00494E2020313A2025640938
:1007E000323A20256409333A20256409343A202519
:1007F0006409353A20256409363A20256409373AD8
:100800002025640A00494E3A20313A2025640932F5
:100810003A20256409333A20256409343A202564B6
:1008200009353A20256409363A20256409373A20EB
:10083000256409383A2025640A00506C616E6E65A3
:1008400072204D6F64650A4E6F7420696E74656E18
:1008500064656420666F72206D616E75616C2075D1
:1008600073650A0A00436F6D6D616E64733A0A2006
:10087000206C6F67730A202073657475700A2020DE
:10088000746573740A2020706C616E6E65720A0A5A
:100890004D6F76652074686520736C69646520739C
:1008A000776974636820616E642072657365742073
:1008B000746F20464C592E0A0A000A20547970653C
:1008C0002027726164696F2720746F20636F6E66E2
:1008D0006967757265206E6F772E0A0A000A2157C4
:1008E00061726E696E672C20796F75722072616417
:1008F000696F206973206E6F7420636F6E6669671D
:100900007572656421005365747570204D6F646560
:100910000A0A0A0046572056657273696F6E2025D1
:10092000640A00526164696F0A004348373A20251F
:1009300064207C2025640A004348363A2025642040
:100940007C2025640A004348353A202564207C2019
:1009500025640A004348343A202564207C2025641D
:100960000A004348333A202564207C2025640A008D
:100970004348323A202564207C2025640A004348FD
:10098000313A202564207C2025640A0056206D6FB2
:1009900064650A002B206D6F64650A0058206D6F36
:1009A00064650A00545249206672616D650A00460A
:1009B00072616D650A00766F6C747320616E6420DD
:1009C000637572006261747420766F6C74730034A6
:1009D0002063656C6C7300332063656C6C73000A74
:1009E00042617474204D6F696E746F720A00536FA8
:1009F0006E61720A00466C69676874206D6F646589
:100A0000730A00506F732025643A20004D616720FF
:100A10006F6666736574733A2025342E34662C2015
:100A200025342E34662C2025342E3466004D616723
:100A3000204465633A2025342E34660A00436F6DE6
:100A4000706173730A002025640A000A54554E45EC
:100A50003A0A000A4F7074696F6E733A5B6F6E2CBE
:100A60006F66665D0A006F6666006F6E000A4F7003
:100A700074696F6E733A5B6F6E2C206F66665D0AE9
:100A8000006F6666006F6E000A4F7074696F6E7358
:100A90003A206F66662C20312D34006F6666000A9E
:100AA0004D6F766520524320746F67676C652073C5
:100AB000776974636820746F206561636820706F64
:100AC000736974696F6E20746F20656469742C207B
:100AD0006D6F76652061696C65726F6E20737469E5
:100AE000636B20746F2073656C656374206D6F6435
:100AF00065732E000A5361766564205365747469CA
:100B00006E67730A0A000A4553432043616C6962A9
:100B1000726174696F6E3A0A2D3120556E706C7572
:100B2000672055534220616E64206261747465725F
:100B3000790A2D32204D6F766520434C492F464C63
:100B4000592073776974636820746F20464C59206C
:100B50006D6F64650A2D33204D6F76652074687261
:100B60006F74746C6520746F206D61782C20636FD6
:100B70006E6E65637420626174746572790A2D34D7
:100B80002041667465722074776F206C6F6E6720E9
:100B900062656570732C207468726F74746C652064
:100BA000746F20302C207468656E20746573740A2D
:100BB0000A20507265737320456E74657220746FDD
:100BC0002063616E63656C2E0A000A4F7074696F52
:100BD0006E733A5B782C2B2C765D0A0076002B0026
:100BE000700078000A4D6F766520616C6C20636F31
:100BF0006E74726F6C7320746F206561636820651A
:100C0000787472656D652E2048697420456E746530
:100C10007220746F20736176653A20000A46414362
:100C2000544F525920524553455420636F6D706C98
:100C3000657465202D207265626F6F742041504D80
:100C4000000A275927202B20456E74657220746F87
:100C500020666163746F72792072657365742C20ED
:100C6000616E79206F74686572206B657920746F8E
:100C70002061626F72743A0A00646F6E650A000A3E
:100C800045726173696E6720454550524F4D0A00A9
:100C90000A436F6D6D616E64733A0A202064756D4E
:100CA00070203C6E3E202065726173652028616C67
:100CB0006C206C6F6773290A2020656E61626C6519
:100CC000203C6E616D653E207C20616C6C0A2020AA
:100CD00064697361626C65203C6E616D653E207C69
:100CE00020616C6C0A0A00656E61626C65004F5091
:100CF00054464C4F57004D4F544F5253004355529A
:100D000000434D4400524157004D4F4445004E545E
:100D1000554E004354554E00504D0047505300412E
:100D2000545449545544455F4D4544004154544939
:100D3000545544455F4641535400616C6C006D69E5
:100D40007373696E67206C6F6720747970650A0031
:100D50000A4C6F67206572617365642E0A000A454C
:100D6000726173696E67206C6F672E2E2E0A0062A7
:100D70006164206C6F6720232025640A004154546D
:100D80002C2025642C2025642C2025750A002C207D
:100D900025640A004D4F443A004354554E2C2025FB
:100DA000642C2025642C2025642C2025642C2025EF
:100DB000642C2025642C2025642C2025642C2025DF
:100DC000640A004E54554E2C2025642C2025642C9A
:100DD0002025642C2025642C2025642C2025640AE1
:100DE00000504D2C20256C642C2025642C2025647B
:100DF0002C2025642C2025642C2025642C2025649F
:100E00002C2025642C2025642C20256C640A00529B
:100E100041572C00434D442C2025642C2025642C64
:100E20002025642C2025642C2025642C20256C642E
:100E30002C20256C642C20256C640A0043555252EA
:100E40003A2025642C20256C642C2025342E346611
:100E50002C2025342E34662C2025640A005354415E
:100E600052542055500A004D4F543A2025642C20EE
:100E700025642C2025642C2025640A004F462C2054
:100E800025642C2025642C2025642C2025342E3725
:100E9000662C2025342E37660A004750532C202517
:100EA0006C642C2025642C2025642C2025342E37BE
:100EB000662C2025342E37662C2025342E34662CC3
:100EC0002025342E34662C2025642C2025750A001C
:100ED00058545241434B5F005448525F484F4C4472
:100EE0005F004E41565F4C4F4E5F004E41565F4C87
:100EF00041545F00484C445F4C4F4E5F00484C44A7
:100F00005F4C41545F005354425F5941575F005357
:100F100054425F5049545F005354425F524C4C5FFF
:100F200000524154455F5941575F00524154455F5B
:100F30005049545F00524154455F524C4C5F00523F
:100F4000435F43525F0052435F43505F0052433858
:100F50005F005243375F005243365F005243355FB4
:100F6000005243345F005243335F005243325F000C
:100F70005243315F00494E5F564F4C5400464C4F30
:100F8000575F454E41424C450054425F52415449DF
:100F90004F004652414D450054554E450045534380
:100FA000004D41475F454E41424C4500424154543B
:100FB0005F434150414349545900424154545F4DAD
:100FC0004F4E49544F5200534F4E41525F454E4190
:100FD000424C4500414C545F484F4C445F52544C86
:100FE000004C4F475F4249544D41534B00504954C8
:100FF00043485F4D415800464C544D4F44453600E0
:10100000464C544D4F44453500464C544D4F444595
:101010003400464C544D4F44453300464C544D4FDC
:1010200044453200464C544D4F44453100545249DA
:101030004D5F5448524F54544C45005448525F46FB
:10104000535F56414C5545005448525F46535F41EB
:101050004354494F4E005448525F4641494C534116
:101060004645005448525F4D4158005448525F4D28
:10107000494E0057505F53504545445F4D4158001D
:1010800057505F4C4F495445525F524144005750AE
:101090005F5241444955530057505F4D5553545F7B
:1010A000494E4445580057505F494E4445580057F3
:1010B000505F544F54414C0057505F4D4F444500D2
:1010C0005854524B5F414E474C455F434400534593
:1010D0005249414C335F42415544005359534944AE
:1010E0005F4D594743530053595349445F5448494E
:1010F000534D41560053595349445F53575F545918
:1011000050450053595349445F53575F4D5245561C
:1011100000524556004D4158005452494D004D492A
:101120004E00494D41580049005000494D555F530C
:10113000454E534F525F43414C004C6F6720232074
:1011400025642C2020202073746172742025642C67
:10115000202020656E642025640A000A2564206C26
:101160006F67730A000A4E6F206C6F67730A5479B9
:101170007065202764756D702030272E0A0A0020C4
:101180004F5054464C4F5700204D4F544F52530030
:101190002043555252454E540020434D44002052A6
:1011A000415700204E54554E00204354554E0020C8
:1011B000504D002047505300204154544954554449
:1011C000455F4D4544002041545449545544455FC2
:1011D00046415354006E6F6E65006C6F67732065F7
:1011E0006E61626C65643A2000666C6967687420A1
:1011F000706C616E20726563656976656400616319
:1012000074696F6E2072656365697665643A200063
:101210006572726F723A206E6F6E2D4E617620632A
:101220006D64006F7574206F6620636F6D6D616E05
:1012300064732100776179706F696E7420726563E1
:10124000656976652074696D656F7574007761797D
:10125000706F696E742073656E642074696D656F5C
:101260007574004558545241330045585452413228
:101270000045585452413100504F534954494F4E44
:10128000005241575F4354524C0052435F43484120
:101290004E004558545F53544154005241575F53D8
:1012A000454E53005352335F005352305F00526536
:1012B000616368656420686F6D650047524F554EE5
:1012C00044205354415254000A456E746572696E4D
:1012D0006720696E746572616374697665207365F1
:1012E000747570206D6F64652E2E2E0A0A54797005
:1012F00065202768656C702720746F206C69737493
:1013000020636F6D6D616E64732C2027657869743E
:101310002720746F206C656176652061207375628B
:101320006D656E752E0A5669736974207468652040
:1013300027736574757027206D656E7520666F72F2
:101340002066697273742D74696D6520636F6E66B3
:10135000696775726174696F6E2E0A0A00506C6558
:101360006173652052756E2053657475702E2E2E34
:101370000A004669726D77617265206368616E6705
:10138000653A2065726173696E6720454550524F1A
:101390004D2E2E2E0A000A0A496E69742041434DD3
:1013A0000A0A52414D3A20256C750A00496E766151
:1013B0006C69642053455249414C335F4241554466
:1013C000004C6F67732066756C6C000A4750530AB7
:1013D00000253033753A25733A20006E6F7420660D
:1013E0006F756E6400253033753A252D33322E33F8
:1013F00032733A2000756E6B6E6F776E2074797061
:1014000065006E6F7420666F756E640025733A20F8
:10141000006D697373696E67206E616D65206F7210
:101420002076616C7565003F3F00256400256400EF
:10143000256C64002566002566006578697400687F
:10144000656C700044454300434F4D504153535F1A
:1014500000245047434D442C31362C302C302C3056
:101460002C302C302A36410D0A0024505542582C7D
:1014700034312C312C303030332C303030312C336F
:10148000383430302C302A32360024505352463112
:1014900030302C302C33383430302C382C312C3048
:1014A0002A33430020536952462000204D544B31CB
:1014B0002E3620002075626C6F782000204D544B32
:1014C000312E3420006661696C65642C207265746D
:1014D0007279696E67004F4B0020002A00496E69DF
:1014E0007420416363656C002A00496E697420476B
:1014F00079726F006E616E00696E660000407A104E
:10150000F35A00A0724E18090010A5D4E80000E8B4
:101510007648170000E40B54020000CA9A3B000012
:1015200000E1F505000080969800000040420F00A1
:101530000000A08601000000102700000000E80362
:10154000000000006400000000000A00000000002D
:101550000100000000002C76D888DC674F0823DFEC
:10156000C1DFAE59E1B1B796E5E3E453C63AE651BF
:10157000997696E8E6C28426EB898C9B62ED407CE6
:101580006FFCEFBC9C9F40F2BAA56FA5F490055A82
:101590002AF75C936B6CF9676DC11BFCE0E40D47A7
:1015A000FEF520E6B500D0ED902E030094357705CA
:1015B0000080841E080000204E0A000000C80C3382
:1015C0003333330F986E12831141EF8D2114893B11
:1015D000E65516CFFEE6DB18D1844B381BF77C1D91
:1015E000901DA4BBE424203284725E228100C9F1E4
:1015F00024ECA1E53D2700002100240027002A005B
:101600002D003000330001010000040107010A0130
:1016100000002200250028002B002E00310034009D
:1016200002010000050108010B0100002000230059
:10163000260029002C002F003200000100000301C9
:101640000601090105050505070508080808020245
:1016500002020A0A0808040404040101010101014C
:1016600001010303030303030303040707070C0C2F
:101670000C0C0C0C0C0C02020202060606060606F6
:1016800006060B0B0B0B0B0B0B0B0102102020089B
:1016900008102040102040800201020108040201CD
:1016A000010204081020408080402010080402013C
:1016B0008004020180402010080402010804020195
:1016C000010204081020408001020408102040801C
:1016D0000000090A02080B0C0D07060304010000B4
:1016E00000000000000000000000000000000000FA
:1016F000000000000000000000000000100F0E00BD
:1017000000000000000000000000000000000000D9
:10171000000000000000494E46494E4954594E41D0
:101720004ECDCCCC3D0AD7233C17B7D13877CC2B44
:10173000329595E6241FB14F0A000020410000C8F1
:101740004200401C4620BCBE4CCA1B0E5AAEC59D72
:101750007400F03D6087E38F16C654D3E93DDC8FFB
:1017600011241FBECFEFD1E2DEBFCDBF00E00CBF22
:1017700015E0A0E0B2E0EEE2F9EC01E00BBF02C040
:1017800007900D92A435B107D9F716E1A4E5B5E0AD
:1017900001C01D92A634B107E1F717E1CCE5D7E10E
:1017A00004C02297FE010E9446DEC235D107C9F768
:1017B0000E94CFD50C948AE40C940000283008F0E5
:1017C00027E03327DA01990F311D87FD91600096DC
:1017D0006105710539F432602E5F3D9330E32A953F
:1017E000E1F708959F3F30F080387105610509F0F9
:1017F0003C5F3C5F3D93913008F08068911DDF9322
:10180000CF931F930F93FF92EF92192F987F969586
:10181000E92F96959695E90FFF27EA5AFA4E9927F0
:101820003327EE24FF24A701E701059008940794CD
:1018300028F4360FE71EF81E491F511D660F771F4B
:10184000881F991F0694A1F70590079428F4E70EC6
:10185000F81E491F561FC11D770F881F991F661F4D
:101860000694A1F70590079428F4F80E491F561F17
:10187000C71FD11D880F991F661F771F0694A1F7F8
:101880000590079420F4490F561FC71FD81F990FC2
:10189000661F771F881F0694A9F78491109517700B
:1018A00041F0D695C79557954795F794E7941A95C3
:1018B000C1F7ECEFF4E168941590159135916591BD
:1018C000959105907FE27395E118F10A430B560B51
:1018D000C90BD009C0F7E10CF11E431F561FC91FE9
:1018E000D01D7EF4703311F48A95E6CFE894015050
:1018F00030F0080F0AF40027021708F4202F239570
:10190000022F7A3328F079E37D932A95E9F710C006
:101910007D932A9589F6069497956795379517953F
:101920001794E118F10A430B560BC90BD00998F034
:1019300023957E9173957A3308F070E37C9320139E
:10194000B8F77E9170617D9330F0839571E37D935C
:1019500070E32A95E1F71124EF90FF900F911F910A
:10196000CF91DF91992787FD90950895FA01AA27D5
:10197000283051F1203181F1E8946F936E7F6E5FD2
:101980007F4F8F4F9F4FAF4FB1E03ED0B4E03CD080
:10199000670F781F891F9A1FA11D680F791F8A1F63
:1019A000911DA11D6A0F711D811D911DA11D20D0CA
:1019B00009F468943F912AE0269F11243019305D84
:1019C0003193DEF6CF010895462F4770405D419375
:1019D000B3E00FD0C9F7F6CF462F4F70405D4A33C2
:1019E00018F0495D31FD4052419302D0A9F7EACF8A
:1019F000B4E0A6959795879577956795BA95C9F7B9
:101A000000976105710508959B01AC010A2E0694AB
:101A10005795479537952795BA95C9F7620F731F64
:101A2000841F951FA01D0895CF93DF93FC01EB0148
:101A30004230510570F0638574858585968520E078
:101A400030E040E854E40E94C3DC0E940BDB798361
:101A5000688382E090E0DF91CF910895CF93DF9388
:101A6000EC01FB014230510518F420E030E012C0D7
:101A70006081718180E090E00E9437DB20E030E0FF
:101A800040E85AE30E94C3DC6B877C878D879E8782
:101A900022E030E0C901DF91CF910895FB019081F0
:101AA0009827292F2295207F292730E0522F44277D
:101AB000C90163E0880F991F6A95E1F74827592704
:101AC000818190E04827592784E0359527958A95AC
:101AD000E1F742275327518340830895A0E0B0E007
:101AE000E4E7FDE00C9417DE8C016B017A01C0E0A5
:101AF000D0E01CC0F601EC0FFD1F6081011511053F
:101B000021F00130110589F405C0E0917E15F091B6
:101B10007F1504C0E0918015F0918115A081B181FD
:101B20002D913C91CF01F90119952196CE15DF0534
:101B300008F3CDB7DEB7E8E00C9433DEACE0B0E0FC
:101B4000E4EAFDE00C9412DEB82E992E842E752E58
:101B5000A22E282F30E085E58F83A886F901EE0FAD
:101B6000FF1FE20FF31FEE0FFF1FEE0FFF1FEE54DC
:101B7000FE4E978199878091D6038A878091D703FB
:101B80008B876C879F5F97838FEF9FEF9E838D83FB
:101B90008E01085F1F4FFDE0CF2ED12CCC0EDD1E35
:101BA000E5E0EE2EF12CEC0EFD1E06C0F801819151
:101BB0008F01B7010E944E0D0C151D05B9F78D81DF
:101BC0009E819A838983282D372DC9017C011A2D86
:101BD0006E010894C11CD11C07C0F70181917F01DF
:101BE000B6010E944E0D11501123B9F789819A81D7
:101BF0008B839C838B2D992DBE01695F7F4F46E0BF
:101C000050E00E946E0D8B2D992D682D772D4A2D59
:101C100050E00E946E0D8B2D992DBE016D5F7F4FA0
:101C200042E050E00E946E0D2C96EDE00C942EDE0A
:101C3000DC01FB0183818C93828111968C93119737
:101C4000818112968C931297808113968C930895BC
:101C5000DC01FB0187818C93868111968C9311970F
:101C6000858112968C931297848113968C93139787
:101C7000838114968C931497828115968C93159773
:101C8000818116968C931697808117968C93089570
:101C90001F920F920FB60F920BB60F9211242F9333
:101CA0003F934F938F939F93EF93FF934091C60081
:101CB00020913E1530913F152F5F3F4F8091421587
:101CC0009091431528233923809140159091411517
:101CD0002817390779F080913E1590913F15E091D2
:101CE0004415F0914515E80FF91F408330933F15D7
:101CF00020933E15FF91EF919F918F914F913F91CE
:101D00002F910F900BBE0F900FBE0F901F90189544
:101D10001F920F920FB60F920BB60F9211242F93B2
:101D20003F938F939F93EF93FF9320916015309192
:101D3000611580915E1590915F1528173907E9F0BC
:101D40008091601590916115E0916415F091651591
:101D5000E80FF91F80818093C600809160159091F3
:101D600061150196209162153091631582239323AA
:101D7000909361158093601510C020915E1530918D
:101D80005F1580916015909161152817390729F426
:101D90008091C1008F7D8093C100FF91EF919F9151
:101DA0008F913F912F910F900BBE0F900FBE0F9010
:101DB0001F9018951F920F920FB60F920BB60F92AD
:101DC00011242F933F934F938F939F93EF93FF9300
:101DD0004091CE0020914615309147152F5F3F4F1F
:101DE00080914A1590914B152823392380914815ED
:101DF000909149152817390779F0809146159091EF
:101E00004715E0914C15F0914D15E80FF91F4083EF
:101E10003093471520934615FF91EF919F918F9135
:101E20004F913F912F910F900BBE0F900FBE0F90CF
:101E30001F9018951F920F920FB60F920BB60F922C
:101E400011242F933F938F939F93EF93FF932091B0
:101E5000681530916915809166159091671528175E
:101E60003907E9F08091681590916915E0916C153A
:101E7000F0916D15E80FF91F80818093CE0080915D
:101E8000681590916915019620916A1530916B152E
:101E900082239323909369158093681510C0209135
:101EA000661530916715809168159091691528170E
:101EB000390729F48091C9008F7D8093C900FF9173
:101EC000EF919F918F913F912F910F900BBE0F90AB
:101ED0000FBE0F901F9018951F920F920FB60F9282
:101EE0000BB60F9211242F933F934F938F939F9391
:101EF000EF93FF934091360120915615309157157D
:101F00002F5F3F4F80915A1590915B1528233923FD
:101F100080915815909159152817390779F08091BB
:101F2000561590915715E0915C15F0915D15E80FED
:101F3000F91F40833093571520935615FF91EF9169
:101F40009F918F914F913F912F910F900BBE0F90CA
:101F50000FBE0F901F9018951F920F920FB60F9201
:101F60000BB60F9211242F933F938F939F93EF9370
:101F7000FF93209178153091791580917615909185
:101F8000771528173907E9F0809178159091791520
:101F9000E0917C15F0917D15E80FF91F8081809309
:101FA00036018091781590917915019620917A15D6
:101FB00030917B1582239323909379158093781524
:101FC00010C02091761530917715809178159091F9
:101FD00079152817390729F4809131018F7D809375
:101FE0003101FF91EF919F918F913F912F910F9030
:101FF0000BBE0F900FBE0F901F901895FC017183C0
:10200000608385E06435780739F470937F156093B9
:102010007E151386128608C0709381156093801513
:1020200081E090E093878287138212820895209145
:10203000930C3091940CC9018F5C944082389105C7
:1020400010F481E00895C9018155954082389105C9
:1020500010F482E00895C901835D954082389105AE
:1020600010F483E00895C9018555964081389105A3
:1020700010F484E00895265D364014F480E008955D
:1020800085E00895A4E0B0E0E8E4F0E10C940DDE12
:10209000609108147091091480910A1490910B14A6
:1020A0000E9439DB3B014C0180919C1190919D1164
:1020B000A0919E11B0919F1189839A83AB83BC83B9
:1020C0006091041470910514809106149091071486
:1020D0000E9439DB1B012C01A0909603B09097035E
:1020E000C0909803D0909903C401B30129813A812B
:1020F0004B815C810E94C3DC7B018C01C201B10178
:10210000A60195010E94C3DC9B01AC01C801B70187
:102110000E94B9D90E9406DB6093C9127093CA125B
:102120008093CB129093CC12C401B301A601950108
:102130000E94C3DC7B018C01C201B10129813A817B
:102140004B815C810E94C3DC9B01AC01C801B701DB
:102150000E94BAD90E9406DB909580957095619592
:102160007F4F8F4F9F4F6093CD127093CE1280930D
:10217000CF129093D0122496E2E10C9429DE2091A4
:10218000430B3091440B8091670B9091680B281B97
:10219000390B253631051CF08AE08093A1112C59AA
:1021A0003F4F1CF486EF8093A1118091A111181666
:1021B0001CF481508093A1118091A11187FF03C06D
:1021C0008F5F8093A1118091A111813021F08F3F09
:1021D00011F080E00895811181E0089580E0089574
:1021E000FC01DB01452B11F083858C9381E090E0AD
:1021F0000895DC01FB01452B19F080811B968C931F
:1022000081E090E00895FC016385772767FD709574
:10221000872F972F0E9439DB0895FC01DB014230A4
:10222000510520F0838594858D939C9382E090E006
:102230000895DC01FB014230510530F0808191812D
:102240001C969C938E931B9782E090E00895FC016E
:1022500063857485882777FD8095982F0E9439DBE8
:102260000895FC012385348545855685B901CA0149
:102270000895CF93DF93FC01EB014430510540F00A
:1022800083859485A585B68588839983AA83BB8336
:1022900084E090E0DF91CF910895CF93DF93EC013C
:1022A000FB014430510540F080819181A281B381CE
:1022B0008B879C87AD87BE8784E090E0DF91CF91CC
:1022C0000895E0913911F0913A1187A990AD8130CC
:1022D000910539F00297F9F483E261E00E9454D944
:1022E000089581A58823D9F090E08091A0118823DA
:1022F00009F491E09093A011992319F083E260E032
:1023000002C083E261E00E9454D9E0913911F0915A
:102310003A1111A6089583E260E00E9454D908950D
:1023200085E260E00E9454D984E260E00E9454D9C2
:1023300083E260E00E9454D91092F113109272125D
:102340000895809119148F5F809319148150833000
:1023500011F41092191480911914813059F08130C0
:1023600018F08230C1F40FC083E260E00E9454D9BB
:1023700085E205C085E260E00E9454D984E261E014
:102380000E9454D9089584E260E00E9454D983E207
:1023900061E00E9454D9089580911A14882379F03D
:1023A00084E461E00E9454D982E461E00E9454D93F
:1023B00080E460E00E9454D98EE360E00EC084E4C3
:1023C00060E00E9454D982E460E00E9454D980E425
:1023D00061E00E9454D98EE361E00E9454D980915B
:1023E0001A1491E0892780931A14089500D00F924F
:1023F00084E595E0EDB7FEB7928381838BE995E0A4
:10240000948383830E9457C90F900F900F900F9071
:1024100008950E94F61168EE73E080E090E00E945B
:1024200056D888E795E00E94CEC9892B89F084E2CE
:1024300061E00E9454D988E795E00E94FEC9682FA8
:1024400086E695E00E945FCA84E260E00E9454D96B
:1024500086E695E00E94CEC9892B89F083E261E08F
:102460000E9454D986E695E00E94FEC9682F88E74D
:1024700095E00E945FCA83E260E00E9454D984E53F
:1024800095E00E94CEC9181619065CF680E0089502
:102490000E94F61168EE73E080E090E00E9456D84A
:1024A00000D00F9284E595E0EDB7FEB7928381836B
:1024B0008CEB95E0948383830E9457C90F900F9013
:1024C0000F900F9088E795E00E94CEC9892B49F0C4
:1024D00088E795E00E94FEC9682F88E795E00E9492
:1024E0005FCA84E595E00E94CEC91816190654F714
:1024F00080E0089524E535E0882349F000D00F926C
:10250000EDB7FEB73283218387E196E008C000D0A3
:102510000F92EDB7FEB73283218383E196E0948377
:1025200083830E9457C984E595E0EDB7FEB7928397
:1025300081838CE096E0948383830E9457C90F9037
:102540000F900F900F900895EF92FF920F931F93AB
:10255000CF93DF930E94F61168EE73E080E090E085
:102560000E9456D81EEAE12E16E0F12E03EA16E08C
:10257000C4E5D5E000D00F92EDB7FEB7D283C1839A
:10258000F482E3820E9457C980910B01846080939A
:102590000B010F900F900F900F9068EB7BE080E0A5
:1025A00090E00E9456D8CE010E94CEC91816190696
:1025B000FCF000D00F92EDB7FEB7D283C183148335
:1025C00003830E9457C980910B018B7F80930B017D
:1025D0000F900F900F900F9068EB7BE080E090E001
:1025E0000E9456D8CE010E94CEC91816190614F6BC
:1025F00080E0CDB7DEB7E6E00C9435DE00D00F9278
:1026000084E595E0EDB7FEB79283818389EF96E08C
:10261000948383830E9457C90F900F900F900F905F
:1026200080E008958DB79EB740970FB6F8949EBF8F
:102630000FBE8DBFEDB7FEB7319684E595E0ADB71F
:10264000BEB712969C938E9311978DE597E0938376
:1026500082838091B1079091B207A091B307B091A6
:10266000B40784839583A683B7838091B50790913F
:10267000B607A091B707B091B80780879187A28766
:10268000B3878091B9079091BA07A091BB07B09129
:10269000BC0784879587A687B7870E9457C98DB7DF
:1026A0009EB740960FB6F8949EBF0FBE8DBF08959B
:1026B0008DB79EB740970FB6F8949EBF0FBE8DBFE3
:1026C000EDB7FEB7319684E595E0ADB7BEB712968B
:1026D0009C938E93119780E897E0938382838091F7
:1026E000BD079091BE07A091BF07B091C00784833A
:1026F0009583A683B7838091C1079091C207A0916B
:10270000C307B091C40780879187A287B387809160
:10271000C5079091C607A091C707B091C8078487E5
:102720009587A687B7870E9457C98DB79EB74096F1
:102730000FB6F8949EBF0FBE8DBF089500D00F92C4
:1027400084E595E0EDB7FEB79283818385E698E056
:10275000948383830E9457C90F900F900F900F901E
:1027600080E008950F931F938DB79EB708970FB61B
:10277000F8949EBF0FBE8DBFEDB7FEB7319604E54E
:1027800015E0ADB7BEB712961C930E9311978EE766
:1027900099E09383828380915A0B90915B0B958390
:1027A00084838091740B9091750B978386830E942C
:1027B00057C9EDB7FEB73196ADB7BEB712961C93A9
:1027C0000E93119780E799E0938382838091AE0BFB
:1027D0009091AF0B958384838091C80B9091C90B26
:1027E000978386830E9457C9EDB7FEB73196ADB780
:1027F000BEB712961C930E93119782E699E09383CD
:1028000082838091020C9091030C95838483809144
:102810001C0C90911D0C978386830E9457C9EDB7BD
:10282000FEB73196ADB7BEB712961C930E931197B3
:1028300084E599E0938382838091560C9091570CA4
:10284000958384838091700C9091710C978386831B
:102850000E9457C9EDB7FEB73196ADB7BEB7129615
:102860001C930E93119786E499E093838283809161
:10287000AA0C9091AB0C958384838091C40C9091A9
:10288000C50C978386830E9457C9EDB7FEB7319672
:10289000ADB7BEB712961C930E93119788E399E0DB
:1028A000938382838091FE0C9091FF0C95838483A7
:1028B0008091180D9091190D978386830E9457C9B6
:1028C000EDB7FEB73196ADB7BEB712961C930E9317
:1028D00011978AE299E0938382838091520D9091BF
:1028E000530D9583848380916C0D90916D0D97832A
:1028F00086830E9457C98DB79EB708960FB6F89485
:102900009EBF0FBE8DBF1F910F91089500D00F92F3
:1029100084E595E0EDB7FEB79283818384EF9AE07A
:10292000948383830E9457C90F900F900F900F904C
:10293000089500D00F9284E595E0EDB7FEB792833D
:10294000818380E99CE0948383830E9457C90F9020
:102950000F900F900F9080E0089500D00F9284E5C3
:1029600095E0EDB7FEB7928381838DE59EE0948379
:1029700083830E9457C90F900F900F900F90089576
:10298000A0E0B0E0E6ECF4E10C9415DE26EBA22E1C
:1029900025E0B22E90EBC92E95E0D92E00E010E094
:1029A00084E5E82E85E0F82E00D000D0EDB7FEB724
:1029B0003196ADB7BEB71296FC92EE921197B382E4
:1029C000A282158304830E9457C9C0E0D0E08DB76E
:1029D0009EB706960FB6F8949EBF0FBE8DBFCE0170
:1029E000800F911F0E94A2E200D000D0EDB7FEB789
:1029F0003196ADB7BEB71296FC92EE921197D38284
:102A0000C282848315820E9457C921968DB79EB7D2
:102A100006960FB6F8949EBF0FBE8DBFC031D1058C
:102A2000F1F6C7010E94DBD6005F1F4F90E1003036
:102A3000190709F0B9CF80E0CDB7DEB7EAE00C9412
:102A400031DEA4E2B0E0E7E2F5E10C9415DE80911E
:102A5000E90A882309F493C00E94F6114DEEA42ED2
:102A600045E0B42E6E010894C11CD11C34E5E32E60
:102A700035E0F32E64E670E080E090E00E9456D8E6
:102A80008CEE95E00E946495D601EAEFF7E084E2CF
:102A900001900D928150E1F78CEE95E0B6010E9415
:102AA0003FA28CEE95E00E94249A6091F605709109
:102AB000F7058091F8059091F90521EE3EE245E693
:102AC00052E40E94C3DC20E030E048EC52E40E9473
:102AD000C3DC0E9406DB613A2CE8720720E0820723
:102AE00020E092072CF0605A7C488040904006C05D
:102AF00097FF04C0605673478F4F9F4FEDB7FEB7E7
:102B00003E970FB6F894FEBF0FBEEDBF0DB71EB7D0
:102B10000F5F1F4FF282E182F801B382A28224E6A6
:102B200030E040E050E00E94F2DDF801248335837C
:102B3000468357838091F0059091F10591878087B6
:102B40008091F2059091F305938782878091F40537
:102B50009091F505958784870E9457C92DB73EB798
:102B6000225F3F4F0FB6F8943EBF0FBE2DBFC70187
:102B70000E94CEC9181619060CF07CCF15C000D0E3
:102B80000F9284E595E0EDB7FEB79283818383EEE3
:102B900095E0948383830E9457C90F900F900F9004
:102BA0000F9080E00E947A1280E0A496EAE00C94F4
:102BB00031DE0F931F93CF93DF938091C40A882354
:102BC000B9F400D00F9284E595E0ADB7BEB7129688
:102BD0009C938E93119788E296E014969C938E9323
:102BE00013970E9457C90F900F900F900F902FC00E
:102BF0000E94F6110AE116E0C4E5D5E064E670E053
:102C000080E090E00E9456D88AE399E00E94CBC50C
:102C100000D000D0EDB7FEB73196ADB7BEB7129673
:102C2000DC93CE93119713830283958384830E9450
:102C300057C9EDB7FEB736960FB6F894FEBF0FBE74
:102C4000EDBFCE010E94CEC918161906BCF680E071
:102C5000DF91CF911F910F910895EF92FF920F9303
:102C60001F93CF93DF938091940590919505909356
:102C70006D1180936C11C0E0D0E064E170E080E001
:102C800090E00E9456D88CE895E00E94B984219685
:102C9000CC33D10591F7C0E0D0E064E170E080E092
:102CA00090E00E9456D88CE895E00E94B984E090AC
:102CB0009605F09097050091980510919905E0927E
:102CC0006E11F0926F110093701110937111209199
:102CD0006C1130916D11C90153E0880F991F5A95FD
:102CE000E1F7820F931F2091940530919505820F93
:102CF000931F6AE070E00E94BDDD70936D116093D8
:102D00006C112196C431D10541F6E0927211F09216
:102D100073110093741110937511CDB7DEB7E6E00F
:102D20000C9435DEAF92BF92CF92DF92EF92FF927A
:102D30000F931F938CE895E00E94B984E09096056C
:102D4000F09097050091980510919905E092721105
:102D5000F0927311009374111093751160916E11BC
:102D600070916F1180917011909171110E9439DBF7
:102D70005B016C01C801B7010E9439DB9B01AC010A
:102D8000C601B5010E949EDA0E9483DC7B018C01A2
:102D900060916C1170916D11882777FD8095982F47
:102DA0000E9439DB20E030E040E251E40E949EDAEC
:102DB00023E333E948E853E40E94BAD99B01AC010C
:102DC000C801B7010E94C3DC29E83EEA44EE56E49C
:102DD0000E94C3DC20E030E040E251E40E949EDA31
:102DE0000E9406DB9B01AC01CA011F910F91FF906D
:102DF000EF90DF90CF90BF90AF9008950F931F9307
:102E0000CF93DF930E94F6110E942D1608E316E07F
:102E1000C4E5D5E064E670E080E090E00E9456D81A
:102E20000E94921670936B1160936A1100D000D0CB
:102E3000EDB7FEB73196ADB7BEB71296DC93CE9321
:102E4000119713830283758364830E9457C98DB7DA
:102E50009EB706960FB6F8949EBF0FBE8DBFCE01EB
:102E60000E94CEC918161906ACF680E0DF91CF910A
:102E70001F910F910895CF93DF93EC0107C0219725
:102E800084E595E060E072E00E94F2D61C161D0613
:102E9000B4F3DF91CF910895FF920F931F93F62E15
:102EA00000D000D0EDB7FEB7319604E515E0ADB720
:102EB000BEB712961C930E93119723E03AE033832A
:102EC0002283848315820E9457C98DB79EB70696C8
:102ED0000FB6F8949EBF0FBE8DBFEF2DF0E0EE0F42
:102EE000FF1FE352FC4F60817181C8010E94F2D63E
:102EF0001F910F91FF900895A0E0B0E0E2E8F7E1A4
:102F00000C9414DEEC018091C009992787FD9095FF
:102F10008617970744F484E595E061E072E00E942B
:102F2000F2D6188277C0CB01E4E0880F991FEA95AA
:102F3000E1F7861B970B80509C4F5C01CC24B7FCBB
:102F4000C094DC2C0E94A2E288838601750108945B
:102F5000E11CF11C011D111DC7010E94A2E2982E67
:102F600089830894E11CF11C011D111DC7010E94F9
:102F7000A2E28A830894E11CF11C011D111DC70106
:102F80000E94AAE26B837C838D839E8387E090E01E
:102F9000A0E0B0E0A80EB91ECA1EDB1EC5010E944B
:102FA000AAE27B018C01EF82F88609871A8784E008
:102FB00090E0A0E0B0E0A80EB91ECA1EDB1EC5015D
:102FC0000E94AAE29B01AC012B873C874D875E875C
:102FD00094FE20C080917D1190917E11A0917F116F
:102FE000B0918011E80EF91E0A1F1B1FEF82F886B0
:102FF00009871A878091811190918211A091831184
:10300000B0918411280F391F4A1F5B1F2B873C8703
:103010004D875E87CE01CDB7DEB7EBE00C9430DE96
:103020008F929F92AF92BF92DF92EF92FF920F9397
:103030001F93DF93CF93CDB7DEB72F970FB6F894DA
:10304000DEBF0FBECDBF68EE73E080E090E00E946F
:1030500056D800D00F9204E515E0ADB7BEB7129672
:103060001C930E93119782E696E014969C938E9390
:1030700013970E9457C92091B70A3091B80A0F9050
:103080000F900F900F9037FF11C000D00F92EDB747
:10309000FEB71283018380E696E0948383830E94C7
:1030A00057C90F900F900F900F9020C000D000D004
:1030B000EDB7FEB73196ADB7BEB712961C930E931F
:1030C000119788E596E093838283C90164E670E0F6
:1030D0000E94BDDD758364830E9457C9EDB7FEB7BA
:1030E00036960FB6F894FEBF0FBEEDBF00D000D0ED
:1030F000EDB7FEB7319604E515E0ADB7BEB7129651
:103100001C930E93119781E596E0938382838091BF
:10311000C009992787FD9095958384830E9457C99C
:10312000EDB7FEB73196ADB7BEB712961C930E93AE
:10313000119784E496E0938382838091E409992730
:1031400087FD9095958384830E9457C9FCE68F2E56
:10315000F6E09F2EFF24EDB7FEB736960FB6F89433
:10316000FEBF0FBEEDBF5E010894A11CB11CD02EA6
:10317000E12E46C0C501B8010E947C178DB79EB7ED
:1031800048970FB6F8949EBF0FBE8DBFEDB7FEB740
:103190003196ADB7BEB71196DC9211971296EC92AC
:1031A00093828282158304838981868317828A8130
:1031B000808711868B81828713868C819D81AE8169
:1031C000BF8184879587A687B78788859985AA85D3
:1031D000BB85808B918BA28BB38B8C859D85AE85B7
:1031E000BF85848B958BA68BB78B0E9457C9F394B0
:1031F000EDB7FEB778960FB6F894FEBF0FBEEDBFE1
:103200000F2D10E08091C009992787FD90958017B8
:1032100091070CF0AFCF80E02F960FB6F894DEBF89
:103220000FBECDBFCF91DF911F910F91FF90EF9017
:10323000DF90BF90AF909F908F9008950F931F9352
:1032400007E214E14091020C5091030CC80160E0C8
:103250000E949D864091020C5091030CC80161E0D0
:103260000E949D864091020C5091030CC80162E0BF
:103270000E949D864091020C5091030CC80163E0AE
:103280000E949D864091020C5091030CC80166E09B
:103290000E949D864091020C5091030CC80167E08A
:1032A0000E949D861F910F91089587E294E10E94EC
:1032B0001D87813009F05EC087E294E160E00E94E2
:1032C000EC86BC0188E39BE00E9477D187E294E121
:1032D00061E00E94EC86BC018CE89BE00E9477D103
:1032E00087E294E162E00E94EC86BC0180EE9BE004
:1032F0000E9477D187E294E163E00E94EC86BC01F2
:1033000084E39CE00E9477D187E294E164E00E942C
:10331000EC86BC0188E89CE00E9477D187E294E1CA
:1033200065E00E94EC86BC018CED9CE00E9477D1A8
:1033300087E294E166E00E94EC86BC0180E39DE0B8
:103340000E9477D187E294E167E00E94EC86BC019D
:1033500084E89DE00E9477D18091ED0B9091EE0B77
:1033600023E08132920714F080E293E09093EE0B19
:103370008093ED0B08950F931F93CF93DF930E94DB
:10338000F61168EE73E080E090E00E9456D806EDFA
:1033900017E0C4E5D5E064E170E080E090E00E94D1
:1033A00056D80E9455198DB79EB742970FB6F8941C
:1033B0009EBF0FBE8DBFEDB7FEB73196ADB7BEB79E
:1033C0001296DC93CE931197138302838091450B61
:1033D0009091460B958384838091990B90919A0BE1
:1033E000978386838091ED0B9091EE0B9187808778
:1033F0008091410C9091420C938782878091950C2B
:103400009091960C958784878091E90C9091EA0CB5
:103410009787868780913D0D90913E0D918B808B93
:103420000E9457C98DB79EB742960FB6F8949EBFBB
:103430000FBE8DBFCE010E94CEC9181619060CF022
:10344000AACF80E0DF91CF911F910F9108950F9344
:103450001F93CF93DF930E94F61168EE73E080E034
:1034600090E00E9456D805E018E0C4E5D5E064E19C
:1034700070E080E090E00E9456D80E9455198DB708
:103480009EB744970FB6F8949EBF0FBE8DBFEDB7A1
:10349000FEB73196ADB7BEB71296DC93CE931197B7
:1034A000138302838091430B9091440B9583848313
:1034B0008091970B9091980B978386838091EB0B6B
:1034C0009091EC0B9187808780913F0C9091400CFC
:1034D000938782878091930C9091940C9587848731
:1034E0008091E70C9091E80C9787868780913B0D3F
:1034F00090913C0D918B808B80918F0D9091900DD0
:10350000938B828B0E9457C98DB79EB744960FB696
:10351000F8949EBF0FBE8DBFCE010E94CEC9181673
:1035200019060CF0A4CF80E0DF91CF911F910F918D
:103530000895EF92FF920F931F9380E00E94A6D709
:10354000AA2797FDA095BA2FBC01CD010E9439DBB7
:103550007B018C016091340B7091350B8091360B9F
:103560009091370B20E030E040E85AE30E94C3DC42
:103570009B01AC01C801B7010E94C3DC2AE037ED12
:1035800043E650E40E94C3DC2DEC3CEC4CEC5DE3E4
:103590000E94C3DC7B018C0160917A0370917B03F4
:1035A00080917C0390917D0326E636E646E65FE354
:1035B0000E94C3DC9B01AC01C801B7010E94BAD9CB
:1035C00060937A0370937B0380937C0390937D03D5
:1035D00081E00E94A6D7AA2797FDA095BA2FBC012B
:1035E000CD010E9439DB7B018C016091340B70911D
:1035F000350B8091360B9091370B20E030E040E89E
:103600005AE30E94C3DC9B01AC01C801B7010E94D0
:10361000C3DC2AE037ED43E650E40E94C3DC2DEC26
:103620003CEC4CEC5DE30E94C3DC7B018C016091BF
:103630007E0370917F03809180039091810326E641
:1036400036E646E65FE30E94C3DC9B01AC01C8019D
:10365000B7010E94BAD960937E0370937F03809371
:1036600080039093810382E00E94A6D7AA2797FD4A
:10367000A095BA2FBC01CD010E9439DB7B018C01E2
:103680006091340B7091350B8091360B9091370B14
:1036900020E030E040E85AE30E94C3DC9B01AC012B
:1036A000C801B7010E94C3DC2AE037ED43E650E4CD
:1036B0000E94C3DC2DEC3CEC4CEC5DE30E94C3DCCF
:1036C0007B018C016091820370918303809184035C
:1036D0009091850326E636E646E65FE30E94C3DC6A
:1036E0009B01AC01C801B7010E94BAD96093820363
:1036F00070938303809384039093850383E00E94F7
:10370000A6D7AA2797FDA095BA2FBC01CD010E948C
:1037100039DB7B018C016091340B7091350B80910A
:10372000360B9091370B20E030E040E85AE30E94DE
:10373000C3DC9B01AC01C801B7010E94C3DC2AE0D5
:1037400037ED43E650E40E94C3DC2DEC3CEC4CEC3E
:103750005DE30E94C3DC7B018C0160918603709164
:103760008703809188039091890326E636E646E632
:103770005FE30E94C3DC9B01AC01C801B7010E945A
:10378000BAD97B018C01CB01D80180938603909339
:103790008703A0938803B09389032091D00A213036
:1037A00049F48091820390918303A0918403B091A6
:1037B000850304C0223059F4C701D80180937603F1
:1037C00090937703A0937803B09379038CC0233050
:1037D00019F0243009F087C080917A0390917B031F
:1037E000A0917C03B0917D0380937603909377033F
:1037F000A0937803B0937903243009F074C081E07A
:103800000E94A6D7AA2797FDA095BA2FBC01CD018B
:103810000E9439DB7B018C016091340B7091350B78
:103820008091360B9091370B20E030E040E85AE36E
:103830000E94C3DC9B01AC01C801B7010E94C3DC3C
:103840002CE53FE84AED51E40E94C3DC2DEC3CEC52
:103850004CEC5DE30E94C3DC7B018C01609186111E
:1038600070918711809188119091891126E636E632
:1038700046E65FE30E94C3DC9B01AC01C801B701CF
:103880000E94BAD97B018C016093861170938711D5
:1038900080938811909389116091851170E080E088
:1038A00090E00E9437DB9B01AC01C801B7010E9488
:1038B000C3DC27E830EC41E959E30E94C3DC9B01FB
:1038C000AC0160918A1170918B1180918C11909153
:1038D0008D110E94BAD960938A1170938B118093D5
:1038E0008C1190938D111F910F91FF90EF9008957F
:1038F0000F931F93CF93DF930E94F61184E680937A
:10390000851108EB16E0C4E5D5E064E670E080E0E0
:1039100090E00E9456D80E9455190E94991A8DB7BE
:103920009EB740970FB6F8949EBF0FBE8DBFEDB700
:10393000FEB73196ADB7BEB71296DC93CE93119712
:10394000138302838091760390917703A09178038B
:10395000B091790384839583A683B7838091861180
:1039600090918711A0918811B091891180879187DA
:10397000A287B38780918A1190918B11A0918C11AD
:10398000B0918D1184879587A687B7870E9457C904
:103990008DB79EB740960FB6F8949EBF0FBE8DBFF1
:1039A0004091EB0B5091EC0B87E294E160E00E94B8
:1039B0009D864091EB0B5091EC0B87E294E161E026
:1039C0000E949D864091EB0B5091EC0B87E294E1B5
:1039D00062E00E949D864091EB0B5091EC0B87E2D8
:1039E00094E163E00E949D86CE010E94CEC9181624
:1039F00019060CF08ACF80E0DF91CF911F910F91D3
:103A000008950F931F93CF93DF930E94F61168EEF2
:103A100073E080E090E00E9456D808ED16E0C4E51F
:103A2000D5E064E170E080E090E00E9456D80E940A
:103A300055198091410C9091420C9093460C8093C3
:103A4000450C84E39CE00E94EBD18DB79EB70897AC
:103A50000FB6F8949EBF0FBE8DBFEDB7FEB731967F
:103A6000ADB7BEB71296DC93CE9311971383028342
:103A70008091410C9091420C958384838091490CF4
:103A800090914A0C978386830E9457C98DB79EB741
:103A900008960FB6F8949EBF0FBE8DBF4091490C9B
:103AA00050914A0C87E294E166E00E949D86CE0127
:103AB0000E94CEC9181619060CF0B3CF80E0DF9132
:103AC000CF911F910F9108956091E90C7091EA0CCC
:103AD000882777FD8095982F0E9439DB20E030E021
:103AE0004AE754E40E949EDA60935809709359099A
:103AF00080935A0990935B098091010B992787FD68
:103B00009095A92FB92FFC013197EB30F10508F002
:103B10004FC1EE58FF4F0C9444DE8CED9CE060E00A
:103B200070E040E45FE10E9417D0809158099091C5
:103B30005909A0915A09B0915B098093440F909361
:103B4000450FA093460FB093470F80937E0F90933D
:103B50007F0FA093800FB093810F08958CED9CE0B0
:103B600060E070E04CE251E00E9417D06091E90CF7
:103B70007091EA0C882777FD8095982F0E9439DB99
:103B800020E030E04AE754E40E949EDADC019B0129
:103B9000AC01209358093093590940935A09509326
:103BA0005B092093530F3093540F4093550F50935C
:103BB000560FCB0180938D0F90938E0FA0938F0F94
:103BC000B093900F08958CED9CE060E070E04CE2C3
:103BD00051E00E9417D08091580990915909A09105
:103BE0005A09B0915B098093960E9093970EA0931B
:103BF000980EB093990E8093D00E9093D10EA0930F
:103C0000D20EB093D30E08958CED9CE060E070E08E
:103C10004CE251E00E9417D08091580990915909C7
:103C2000A0915A09B0915B098093A50E9093A60EBE
:103C3000A093A70EB093A80E8093DF0E9093E00E92
:103C4000A093E10EB093E20E08958CED9CE060E04D
:103C500070E048EE53E00E9417D08091580990918F
:103C60005909A0915A09B0915B098093B80F9093BC
:103C7000B90FA093BA0FB093BB0F08958CED9CE0E1
:103C800060E070E048EE53E00E9417D08091580940
:103C900090915909A0915A09B0915B0980930A0F3C
:103CA00090930B0FA0930C0FB0930D0F08958CED14
:103CB0009CE060E070E048EE53E00E9417D08091F5
:103CC000580990915909A0915A09B0915B098093C4
:103CD000DA109093DB10A093DC10B093DD10089500
:103CE0008CED9CE060E273E048EE53E00E9417D058
:103CF0008091580990915909A0915A09B0915B0996
:103D00008093190B90931A0BA0931B0BB0931C0B71
:103D100008958CED9CE060E070E048EE53E00E9476
:103D200017D02091E90C3091EA0C82E02935380750
:103D300044F480910B01846080930B012059314041
:103D4000BCF180910B018B7F80930B0108958CED6A
:103D50009CE060E070E048EE53E00E9417D0809154
:103D6000E90C9091EA0C9093FD098093FC09089569
:103D70008CED9CE060E070E040E757E10E9417D0D6
:103D80008091580990915909A0915A09B0915B0905
:103D90008093661090936710A0936810B093691099
:103DA0008093A0109093A110A093A210B093A310A1
:103DB00008950F931F93CF93DF930E94F6110CEE9B
:103DC00016E0C4E5D5E068EC70E080E090E00E9489
:103DD00056D80E9455190E94641D8DB79EB708974A
:103DE0000FB6F8949EBF0FBE8DBFEDB7FEB73196EC
:103DF000ADB7BEB71296DC93CE93119713830283AF
:103E00008091580990915909A0915A09B0915B0984
:103E100084839583A683B7830E9457C98DB79EB7C5
:103E200008960FB6F8949EBF0FBE8DBFCE010E94BC
:103E3000CEC9181619063CF680E0DF91CF911F918C
:103E40000F9108958091691290916A12892B09F45B
:103E50005AC00E9422D8209163123091641240917E
:103E6000651250916612621B730B840B950B2091A7
:103E700067123091681240E050E0621773078407C0
:103E8000950708F440C037C0019790936A12809359
:103E900069128091691290916A12892BA1F10E9496
:103EA00022D860936312709364128093651290938A
:103EB000661260916212862F8450843088F480915B
:103EC000691280FF05C040916B1250916C1204C0C2
:103ED00040916D1250916E1287E294E10E949D868E
:103EE00080916212853079F480910B0194E08927EA
:103EF00080930B0108958091691290916A121816AF
:103F0000190614F2C6CF0895CF93DF93C0E0D0E036
:103F100084E595E065E072E00E940BD62196C832F8
:103F2000D105B1F784E595E060E072E00E94F2D639
:103F3000DF91CF91089500D00F9284E595E0EDB721
:103F4000FEB79283818388E597E0948383830E9400
:103F500057C90F900F900F900F900E94841F0E94DE
:103F600012130E94581382E090E00E943B170895BC
:103F700000D000D0EDB7FEB7319684E595E0ADB73F
:103F8000BEB712969C938E93119784E199E0938328
:103F900082838091680990916909958384830E9446
:103FA00057C98DB79EB706960FB6F8949EBF0FBE41
:103FB0008DBF0E94841F82E090E00E943B1708950D
:103FC00000D00F9284E595E0EDB7FEB79283818330
:103FD00083E299E0948383830E9457C90F900F90E6
:103FE0000F900F900E94841F0E94B21382E090E015
:103FF0000E943B170895CF93DF9300D00F92C4E542
:10400000D5E0EDB7FEB7D283C1838FEA99E0948300
:1040100083830E9457C90F900F900F900F900E94BA
:10402000841F00D00F92EDB7FEB7D283C18384EA1C
:1040300099E0948383830E9457C980910D0B0F9060
:104040000F900F900F90813049F400D00F92EDB790
:10405000FEB7D283C1838CE999E015C0882349F467
:1040600000D00F92EDB7FEB7D283C18384E999E007
:104070000AC0823081F400D00F92EDB7FEB7D28330
:10408000C1838CE899E0948383830E9457C90F9081
:104090000F900F900F9082E090E00E943B17DF910D
:1040A000CF91089500D00F9284E595E0EDB7FEB76B
:1040B000928381838FED99E0948383830E9457C913
:1040C0000F900F900F900F900E94841F8091D00A44
:1040D000882311F40E947A128091D00A813091F4E1
:1040E00000D00F9284E595E0EDB7FEB7928381830F
:1040F00087ED99E0948383830E9457C90F900F90B6
:104100000F900F908091D00A823091F400D00F92DE
:1041100084E595E0EDB7FEB7928381838FEC99E05B
:10412000948383830E9457C90F900F900F900F9034
:104130008091D00A833091F400D00F9284E595E00D
:10414000EDB7FEB79283818384EC99E094838383F7
:104150000E9457C90F900F900F900F908091D00A36
:10416000843091F400D00F9284E595E0EDB7FEB76E
:104170009283818386EB99E0948383830E9457C95D
:104180000F900F900F900F9082E090E00E943B17ED
:1041900008951F93CF93DF9300D00F9284E595E0AD
:1041A000EDB7FEB79283818385EF99E09483838393
:1041B0000E9457C90F900F900F900F900E94841F7C
:1041C000C5E5DAE010E0812F68810E944C172C963B
:1041D0001F5F1630C1F782E090E00E943B17DF912D
:1041E000CF911F910895CF93DF9300D00F92C4E534
:1041F000D5E0ADB7BEB71296DC93CE9311978BE4A2
:104200009AE014969C938E9313970E9457C90F902F
:104210000F900F900F900E94841F2091010B22237A
:1042200021F480E00E947A121FC000D000D0EDB7C8
:10423000FEB73196ADB7BEB71296DC93CE93119709
:1042400086E49AE093838283822F992787FD909555
:10425000958384830E9457C9EDB7FEB736960FB693
:10426000F894FEBF0FBEEDBF82E090E00E943B17C6
:10427000DF91CF91089500D00F9284E595E0EDB7DE
:10428000FEB7928381838BEC93E1948383830E94B6
:1042900057C90F900F900F900F900E94841F80912C
:1042A000E0130E947A1282E090E00E943B1708958A
:1042B000ACE0B0E0EEE5F1E20C941DDE40918A0343
:1042C00050918B0360918C0370918D0389EC97E082
:1042D0000E94F0B5DE011196EEE4F8E08CE001906A
:1042E0000D928150E1F7ABE3B1E1FE0131968CE034
:1042F00001900D928150E1F72C96E2E00C9439DEAA
:10430000ACE2B0E0E6E8F1E20C940DDEDE011196DD
:10431000EAEFF7E084E201900D928150E1F76980C5
:104320007A808B809C80AD84BE84CF84D888298C91
:104330003A8C4B8C5C8C89A19AA1ABA1BCA189A7BA
:104340009AA7ABA7BCA78D8D9E8DAF8DB8A18DA36D
:104350009EA3AFA3B8A7C401B301A40193010E9417
:10436000C3DC7B018C01C601B501A60195010E9449
:10437000C3DC9B01AC01C801B7010E94BAD90E94FD
:1043800030DD7B018C01C601B501A80197010E94B7
:104390009EDA6093960370939703809398039093AB
:1043A0009903C401B301A80197010E949EDA6093AA
:1043B0009C1170939D1180939E1190939F11D20137
:1043C000C101B0588093941190939511A0939611C8
:1043D000B0939711C201B101A20191010E94C3DC07
:1043E0009B01AC0160E070E080E89FE30E94B9D9D6
:1043F0000E9430DD7B018C0160938E0370938F03EC
:10440000809390039093910369A57AA58BA59CA5B1
:10441000A80197010E949EDA609392037093930320
:1044200080939403909395036DA17EA18FA198A58D
:10443000A80197010E949EDA6093981170939911D8
:1044400080939A1190939B11AC96E2E10C9429DE33
:10445000A4E2B0E0EEE2F2E20C9415DE0E949B1FB3
:104460008DE797E066E578ED0E946FC50E949B1F7F
:104470000E94F61168EE73E080E090E00E9456D84A
:104480000E9422D860938E1170938F1180939011A7
:104490009093911119E4A12E17E0B12EB6E0CB2E26
:1044A000B7E0DB2EA4E5EA2EA5E0FA2E8E010F5F21
:1044B0001F4F0E9422D820918E1130918F11409170
:1044C000901150919111621B730B840B950B653009
:1044D00071058105910508F4F1C00E9422D8209150
:1044E0008E11621B6093921170E080E090E00E9458
:1044F00037DB20E030E04AE754E40E949EDA609324
:104500008A0370938B0380938C0390938D030E9496
:1045100022D860938E1170938F1180939011909395
:1045200091110E945821809193118F5F8093931174
:10453000843011F40E94802180919311843109F01C
:104540005AC00E945519109293118DB79EB740978B
:104550000FB6F8949EBF0FBE8DBFEDB7FEB7319674
:10456000ADB7BEB71296FC92EE921197B382A282BB
:104570008091C9079091CA07A091CB07B091CC0751
:1045800084839583A683B7838091CD079091CE07CE
:10459000A091CF07B091D00780879187A287B3877A
:1045A0008091D1079091D207A091D307B091D40701
:1045B00084879587A687B7870E9457C98DB79EB70E
:1045C00040960FB6F8949EBF0FBE8DBF8091E90A4A
:1045D000882389F08CEE95E00E946495D801EAEF7B
:1045E000F7E084E201900D928150E1F78CEE95E0C6
:1045F000B8010E943FA2ADB7BEB75C970FB6F89462
:10460000BEBF0FBEADBFEDB7FEB731961296FC929E
:10461000EE921197D382C28280918E0390918F0384
:10462000A0919003B091910384839583A683B7836F
:104630008091941190919511A0919611B09197113C
:1046400080879187A287B38780919203909193038B
:10465000A0919403B091950384879587A687B78727
:104660008091981190919911A0919A11B0919B11FC
:10467000808B918BA28BB38B809196039091970343
:10468000A0919803B0919903848B958BA68BB78BDF
:1046900080919C1190919D11A0919E11B0919F11BC
:1046A000808F918FA28FB38F0E9457C98DB79EB70D
:1046B0004C960FB6F8949EBF0FBE8DBF84E595E073
:1046C0000E94CEC9181619060CF0F3CE80E0A4960D
:1046D000EAE00C9431DEAF92BF92CF92DF92EF927C
:1046E000FF920F931F937C018B01FB016781708503
:1046F00081859285F7012781308541855285621B2E
:10470000730B840B950B0E9439DB5B016C01F80184
:104710006385748585859685F70123853485458570
:104720005685621B730B840B950B0E9439DB20911D
:104730009C0330919D0340919E0350919F030E94E2
:10474000C3DC7B018C01C601B501A60195010E9465
:10475000C3DC5B016C01C801B701A80197010E948D
:10476000C3DC9B01AC01C601B5010E94BAD90E940D
:1047700030DD28EC32E646E35CE30E94C3DC0E94B5
:1047800006DB9B01AC01CA011F910F91FF90EF90D6
:10479000DF90CF90BF90AF900895CF92DF92FF92BD
:1047A0000F931F93CF93DF930E94F61100D00F92C7
:1047B00004E515E0ADB7BEB712961C930E931197A2
:1047C00088EA97E014969C938E9313970E9457C99A
:1047D0000F900F900F900F9068EE73E080E090E0E4
:1047E0000E9456D884EAC82E87E0D82EC0E0D0E0D8
:1047F000F02E012F20C08AE895E06C2F0E94568889
:1048000000D000D0EDB7FEB73196ADB7BEB7119668
:10481000FC92119712960C93D382C2829583848363
:104820000E9457C92196EDB7FEB736960FB6F89499
:10483000FEBF0FBEEDBFC930D105ECF284E595E0B7
:104840000E94DBD664E170E080E090E00E9456D8E0
:1048500084E595E00E94CEC9181619061CF0C0E048
:10486000D0E0E9CF80E0DF91CF911F910F91FF90D1
:10487000DF90CF900895A0E0B0E0E1E4F4E20C9482
:1048800017DE0E94F61168EE73E080E090E00E946F
:1048900056D82DEAC22E27E0D22E94E5E92E95E0D7
:1048A000F92E6DE471E080E090E00E9456D80E94FD
:1048B00061118091391190913A110E94AFBFC0915E
:1048C0003911D0913A118FA1882309F445C08DB7D1
:1048D0009EB742970FB6F8949EBF0FBE8DBF0DB71F
:1048E0001EB70F5F1F4FEDB7FEB7F282E182F801EE
:1048F000D382C2828C859D85AE85BF858483958356
:10490000A683B78388899989AA89BB89808791877B
:10491000A287B3876C897D898E899F8924E630E0E0
:1049200040E050E00E94F2DDF80124873587468799
:1049300057878EA1808B118A0E9457C9E091391147
:10494000F0913A1117A28DB79EB742960FB6F89420
:104950009EBF0FBE8DBF06C084E595E067E072E0A4
:104960000E940BD684E595E00E94CEC91816190660
:104970000CF097CF80E0CDB7DEB7E8E00C9433DEE3
:1049800000D00F9284E595E0EDB7FEB79283818366
:104990008AE398E0948383830E9457C90F900F9015
:1049A0000F900F908EE491E10E94D09180E00895E5
:1049B00083E691E10E94D09180E00895CF93DF9348
:1049C00000D00F92C4E5D5E0EDB7FEB7D283C18326
:1049D00086E099E0948383830E9457C90F900F90DB
:1049E0000F900F9080915A0B90915B0B84519540E2
:1049F00064F168EE73E080E090E00E9456D800D049
:104A00000F92EDB7FEB7D283C1838DED98E094830A
:104A100083830E9457C90F900F900F900F9068EEFC
:104A200073E080E090E00E9456D800D00F92EDB77E
:104A3000FEB7D283C1838AEB98E0948383830E947C
:104A400057C90F900F900F900F9085E591E10E944C
:104A5000D09180E0DF91CF91089587E491E10E94A9
:104A6000D09180E0089589EB9AE00E94F48A00D00A
:104A70000F9284E595E0EDB7FEB7928381838EEEC9
:104A800099E0948383830E9457C90F900F900F90F1
:104A90000F900E94841F8091C40A0E947A1282E0C3
:104AA00090E00E943B170895A0E0B0E0EAE5F5E24F
:104AB0000C9417DE00D00F9244E5E42E45E0F42E6E
:104AC000ADB7BEB71296FC92EE9211978DE39AE0C5
:104AD00014969C938E9313970E9457C90F900F9032
:104AE0000F900F900E94841F8091E90A0E947A1211
:104AF0003CEEC32E35E0D32EC6010E94299ACDB7D5
:104B0000DEB728970FB6F894DEBF0FBECDBF0DB746
:104B10001EB70F5F1F4FFA82E9822DE23AE0F801DB
:104B20003383228321EE3EE245E652E40E94C3DC59
:104B3000D80114966D937D938D939C9317970E9443
:104B400057C9CDB7DEB728960FB6F894DEBF0FBEB3
:104B5000CDBFC6010E94249A9C01EDB7FEB77097A5
:104B60000FB6F894FEBF0FBEEDBF3196ADB7BEB71E
:104B70001296FC92EE9211978CE09AE093838283D6
:104B8000E90188819981AA81BB8184839583A68369
:104B9000B7838C819D81AE81BF8180879187A287F9
:104BA000B38788859985AA85BB8584879587A687DD
:104BB000B7870E9457C9EDB7FEB770960FB6F89445
:104BC000FEBF0FBEEDBF82E090E00E943B17CDB765
:104BD000DEB7E8E00C9433DEFF920F931F93F82EBC
:104BE0008B0188E090E00E943B170E94B81F0E9452
:104BF000E01F0E94FB1F0E9452200E9433250E944A
:104C0000C9200E949B1F0E9454258F2DB8010E942D
:104C1000A59080E01F910F91FF900895FB0160899E
:104C200071898289938925E33AEF4EE85CE30E941B
:104C3000C3DCAB01BC018CEE95E00E94C4A40E94D1
:104C4000542580E00895FB0184858093010B86EF55
:104C50009AE00E94838B0E94F32080E0089500D0A8
:104C60000F9284E595E0EDB7FEB79283818386E0ED
:104C70009BE0948383830E9457C981E08093F50A67
:104C80000F900F900F900F908AEE9AE00E94838B06
:104C900064E170E080E090E00E9456D884E595E001
:104CA0000E94CEC9181619069CF71092F50A8AEED2
:104CB0009AE00E94838B80E0089564E170E080E0D8
:104CC00090E00E9456D80E9455198091020C909154
:104CD000030C9093A3118093A2119093A51180933C
:104CE000A4119093A9118093A8112091450B3091A4
:104CF000460B4BE0293B34072CF0C2969093A3114E
:104D00008093A2112854344F4CF48091A4119091B7
:104D1000A511C2969093A5118093A4118091990B2F
:104D200090919A0B895B9B404CF08091A8119091D7
:104D3000A911C2969093A9118093A8114091A21134
:104D40005091A31187E294E160E00E949D8640911A
:104D5000A4115091A51187E294E161E00E949D8623
:104D60004091A8115091A91187E294E163E00E945B
:104D70009D8684E595E00E94CEC9181619060CF0B0
:104D80009CCF1092F50A8AEE9AE00E94838B80E015
:104D90000895FF920F931F93CF93DF9300D00F924C
:104DA00084E595E0EDB7FEB7928381838FE99AE0C1
:104DB000948383830E9457C90F900F900F900F9098
:104DC0000E94F611FF2410E064E170E080E090E0C2
:104DD0000E9456D80E9455190E941710082FF816E5
:104DE000A1F090E0FC01EE0FFF1FE80FF91FEE0F9E
:104DF000FF1FEE0FFF1FE65BF54F1385193008F01C
:104E000018E0802F612F0E944C170E94BF1088234A
:104E1000B1F01F5F193009F410E0802F90E0FC0121
:104E2000EE0FFF1FE80FF91FEE0FFF1FEE0FFF1F22
:104E3000E65BF54F1387802F612F0E944C1784E5A6
:104E400095E00E94CEC9F02E181619060CF0BCCFC2
:104E5000CAE4DAE0CE010E94838B2C96FAE0C239D4
:104E6000DF07C1F70E9486140E94C92080E0CDB7F9
:104E7000DEB7E5E00C9436DEA4E2B0E0E2E4F7E26F
:104E80000C941BDE80E090E0A0E8BFE389839A8366
:104E9000AB83BC8380E090E0A0E0B0E08D839E8394
:104EA000AF83B88789879A87AB87BC878D879E87B2
:104EB000AF87B88B20E030E040E85FEB298B3A8B7E
:104EC0004B8B5C8B8D8B9E8BAF8BB88F898F9A8F22
:104ED000AB8FBC8F8D8F9E8FAF8FB8A329A33AA3C2
:104EE0004BA35CA30CEE15E0C801BE016F5F7F4FC2
:104EF0000E94309589EC97E0B8010E9401A6C80194
:104F00000E948897C8010E94249AA496E4E00C9419
:104F100037DECF93DF93FB01C285D385CE0165E8F1
:104F20007AE00E94B9DF892B21F481E08093C40AE2
:104F300009C0CE0161E87AE00E94B9DF892B39F41B
:104F40001092C40A89EB9AE00E94838B12C000D0B1
:104F50000F9284E595E0EDB7FEB7928381838DE6ED
:104F60009AE0948383830E9457C90F900F900F900B
:104F70000F900E94332580E0DF91CF910895CF9369
:104F8000DF93FB01EB012A96828593856BE97AE03A
:104F90000E94B9DF892B19F41092D00A0FC02A8120
:104FA0003B814C815D81DA01C9010197A109B109F9
:104FB0000497A105B10538F42093D00A85EC9AE056
:104FC0000E94838B12C000D00F9284E595E0EDB76C
:104FD000FEB79283818388E89AE0948383830E945A
:104FE00057C90F900F900F900F900E94522080E0B1
:104FF000DF91CF910895CF93DF93FB01C285D385D5
:10500000CE0162EE7BE00E94B9DF892B11F481E0D2
:1050100019C0CE0160EE7BE00E94B9DF892B39F028
:10502000CE016EED7BE00E94B9DF892B19F410925E
:105030000D0B0AC0CE016CED7BE00E94B9DF892B1D
:1050400041F482E080930D0B82E09BE00E94838B11
:1050500012C000D00F9284E595E0EDB7FEB79283C1
:1050600081838AEC9BE0948383830E9457C90F90CD
:105070000F900F900F900E94FB1F80E0DF91CF9167
:105080000895ACE0B0E0E7E4F8E20C941BDEFB012D
:1050900002851385C8016AE67AE00E94B9DF892B90
:1050A00051F481E08093E90A8EED9AE00E94838BAF
:1050B0000E943C273CC0C80166E67AE00E94B9DF46
:1050C000892B11F580E090E0A0E0B0E089839A831D
:1050D000AB83BC838D839E83AF83B88789879A8790
:1050E000AB87BC878CEE95E0BE016F5F7F4F0E945F
:1050F000079A8CEE95E00E94D0A41092E90A8EEDFA
:105100009AE00E94838B13C000D00F9284E595E053
:10511000EDB7FEB79283818383E59AE0948383831E
:105120000E9457C90F900F900F900F9004C08EED02
:105130009AE00E94838B0E94542580E02C96E4E044
:105140000C9437DE8DE797E066E578ED0E945AC54E
:105150000E9458130E949B1F80E008950F931F9395
:10516000CF93DF9384E595E069E072E00E94F2D688
:1051700000E064E170E080E090E00E9456D80E9478
:1051800055190F5F0436A9F7C091430BD091440B1A
:1051900081E0C43FD8073CF468EE73E080E090E023
:1051A0000E9456D8F9CFD0935B0BC0935A0B209135
:1051B000970B3091980B3093AF0B2093AE0B00916F
:1051C000EB0B1091EC0B1093030C0093020C8091ED
:1051D0003F0C9091400C9093570C8093560CA091EB
:1051E000930CB091940CB093AB0CA093AA0CE091EB
:1051F000E70CF091E80CF093FF0CE093FE0C60914B
:105200003B0D70913C0D7093530D6093520D409186
:105210008F0D5091900D5093A70D4093A60DD093F4
:10522000750BC093740B3093C90B2093C80B10936C
:105230001D0C00931C0C9093710C8093700CB09318
:10524000C50CA093C40CF093190DE093180D709346
:105250006D0D60936C0D5093C10D4093C00DD093B4
:10526000680BC093670B3093BC0B2093BB0B9093E0
:10527000640C8093630C8CED95E09093B80C809354
:10528000B70C90930C0D80930B0D9093600D809351
:105290005F0D9093B40D8093B30D00D00F9284E511
:1052A00095E0EDB7FEB79283818384EE9BE0948313
:1052B00083830E9457C90F900F900F900F9064E165
:1052C00070E080E090E00E9456D80E94551988E373
:1052D0009BE00E946FD08CE89BE00E946FD080EE34
:1052E0009BE00E946FD084E39CE00E946FD088E82E
:1052F0009CE00E946FD08CED9CE00E946FD080E318
:105300009DE00E946FD084E89DE00E946FD084E50C
:1053100095E00E94CEC9181619068CF664E170E07B
:1053200080E090E00E9456D884E595E00E944BCA48
:1053300088E39BE00E9490D28CE89BE00E9490D290
:1053400080EE9BE00E9490D284E39CE00E9490D289
:1053500088E89CE00E9490D28CED9CE00E9490D264
:1053600080E39DE00E9490D284E89DE00E9490D26C
:105370000E9486140E94E01F80E0DF91CF911F9170
:105380000F91089500D00F9284E595E0EDB7FEB738
:105390009283818381E49CE0948383830E9457C934
:1053A0000F900F900F900F9084E595E00E94FEC93A
:1053B000FFEF8F3F9F07C1F38937910529F08935AA
:1053C000910511F08FEF08950E945F8B00D00F922E
:1053D00084E595E0EDB7FEB7928381838CE19CE094
:1053E000948383830E9457C90F900F900F900F9062
:1053F00068EE73E080E090E00E9456D8FFCFCF9334
:10540000DF9300D00F9284E595E0EDB7FEB792836D
:1054100081838FE79CE0948383830E9457C9C0E017
:10542000D0E00F900F900F900F90CE0160E00E949F
:10543000BAE22196F0E1C030DF07B9F700D00F9251
:1054400084E595E0EDB7FEB79283818389E79CE020
:10545000948383830E9457C90F900F900F900F90F1
:10546000DF91CF9108950E94FF2980E00895EF9287
:10547000FF920F931F93CF93DF937B018230A1F0B4
:1054800000D00F9284E595E0EDB7FEB7928381835B
:105490008EE39DE0948383830E9457C98FEF0F9022
:1054A0000F900F900F9091C0FB0102851385C801EA
:1054B0006AE37DE00E94A6DF892B19F4CFEFDFEFCE
:1054C00063C0C8016CE27DE00E94A6DFC0E0D0E0CE
:1054D000892B11F4C1E0D0E0C8016FE17DE00E94AA
:1054E000A6DF892B09F4C260C8016BE17DE00E9450
:1054F000A6DF892B09F4C460C80168E17DE00E9441
:10550000A6DF892B09F4C860C80163E17DE00E9431
:10551000A6DF892B09F4C061C8016EE07DE00E941E
:10552000A6DF892B09F4C062C80169E07DE00E9412
:10553000A6DF892B09F4C064C80165E07DE00E9404
:10554000A6DF892B09F4C068C80161E07DE00E94F4
:10555000A6DF892B09F4D160C8016DEF7CE00E94C1
:10556000A6DF892B09F4D260C80166EF7CE00E94B7
:10557000A6DF892B09F4D460C8016EEE7CE00E949E
:10558000A6DF892B09F4D860F7018081918167EE4D
:105590007CE00E94A6DF892B39F48091AA0A9091C1
:1055A000AB0AC82BD92B08C0C095D0958091AA0A08
:1055B0009091AB0AC823D923D093AB0AC093AA0A0F
:1055C0008FE99AE00E94838B80E0CDB7DEB7E6E0FA
:1055D0000C9435DECF93DF9300D00F9284E595E0F5
:1055E000EDB7FEB7928381838EE59DE0948383833C
:1055F0000E9457C9C1E0D0E00F900F900F900F901C
:105600008DE295E1BE010E94B4C62196F0E1C03062
:10561000DF07B1F78DE295E161E070E00E94A8C676
:105620008DE295E163EA0E945EC78DE295E165E94E
:105630000E945EC78DE295E160EF0E945EC78DE239
:1056400095E160E00E945EC78DE295E16AEB0E9401
:105650005EC78DE295E10E94D6C700D00F9284E527
:1056600095E0EDB7FEB79283818380E59DE094835A
:1056700083830E9457C90F900F900F900F9080E086
:10568000DF91CF910895CF92DF92EF92FF920F9327
:105690001F930DE215E1C8010E94BFC86C01C8014B
:1056A0000E94BFC87C01C8010E94BFC82DB73EB789
:1056B0002A5030400FB6F8943EBF0FBE2DBFEDB755
:1056C000FEB7319624E535E0ADB7BEB712963C93F0
:1056D0002E9311972DE73DE033832283D582C48238
:1056E000F782E682918780870E9457C92DB73EB71F
:1056F000265F3F4F0FB6F8943EBF0FBE2DBF1F91E0
:105700000F91FF90EF90DF90CF900895EF92FF926E
:105710000F931F9300D00F9204E515E0ADB7BEB70D
:1057200012961C930E93119784E99DE014969C9316
:105730008E9313970E9457C90F900F900F900F9060
:105740008DE2E82E85E1F82EC7010E944EC8E82FB1
:10575000F0E0EE0FFF1FE352FC4F60817181C80142
:105760000E940BD6C7010E94BFC800D000D0EDB781
:10577000FEB73196ADB7BEB712961C930E93119734
:105780002EE83DE033832283958384830E9457C9AA
:10579000EDB7FEB736960FB6F894FEBF0FBEEDBF5D
:1057A0001F910F91FF90EF900895A4E0B0E0EBED12
:1057B000FBE20C940DDE0DE215E1C8010E94BFC8AA
:1057C0009A838983C8010E94BFC89C838B83C801C8
:1057D0000E94BFC81C01C8010E94BFC82C01C8019B
:1057E0000E94BFC83C01C8010E94BFC84C01C8014B
:1057F0000E94BFC85C01C8010E94BFC86C01C801FB
:105800000E94BFC87C01C8010E94BFC82DB73EB727
:10581000285130400FB6F8943EBF0FBE2DBFEDB7F4
:10582000FEB7319624E535E0ADB7BEB712963C938E
:105830002E93119729E93DE03383228329813A8110
:1058400035832483AB81BC81B783A68331862086D0
:10585000538642867586648697868686B18AA08A34
:10586000D38AC28AF58AE48A978B868B0E9457C9AD
:10587000EDB7FEB778960FB6F894FEBF0FBEEDBF3A
:105880002496E2E10C9429DE7F928F929F92AF9250
:10589000BF92CF92DF92EF92FF920F931F930DE290
:1058A00015E1C8010E94BFC84C01C8010E944EC842
:1058B000782EC8010E94BFC85C01C8010E94BFC801
:1058C0006C01C8010E94BFC87C01C8010E94BFC80A
:1058D0002DB73EB7205130400FB6F8943EBF0FBEF3
:1058E0002DBFEDB7FEB7319624E535E0ADB7BEB7B5
:1058F00012963C932E93119723EC3DE03383228341
:105900009582848276821782B186A086D386C286EB
:10591000F586E486978786870E9457C92DB73EB7DC
:10592000205F3F4F0FB6F8943EBF0FBE2DBF1F91B3
:105930000F91FF90EF90DF90CF90BF90AF909F902E
:105940008F907F900895AF92BF92CF92DF92EF92A7
:10595000FF920F931F930DE215E1C8010E94BFC88B
:105960005C01C8010E94BFC86C01C8010E94BFC889
:105970007C01C8010E94BFC82DB73EB72C503040F3
:105980000FB6F8943EBF0FBE2DBFEDB7FEB73196F0
:1059900024E535E0ADB7BEB712963C932E93119730
:1059A00027E63EE033832283B582A482D782C68273
:1059B000F186E086938782870E9457C92DB73EB74C
:1059C000245F3F4F0FB6F8943EBF0FBE2DBF1F910F
:1059D0000F91FF90EF90DF90CF90BF90AF90089520
:1059E0001F938DE295E161E070E00E94D5C810E060
:1059F0008DE295E10E944EC8113051F0113018F03F
:105A0000123099F408C010E0833A79F411E00DC027
:105A1000853951F407C0803F39F48DE295E10E9449
:105A20004EC80AC012E001C010E08DE295E10E946C
:105A30000FC60197E9F280E01F910895EF92FF925F
:105A40000F931F93CF93DF938C01C0E0D0E11FC071
:105A5000CE01800F911F62E070E00E94BDDDF62E46
:105A6000E72E8DE295E10E94D5C88DE295E10E9476
:105A70007EC86F5F7F4F8F4F9F4F29F48F2D9E2DD4
:105A80009C01E90104C08F2D9E2D9C018901CE014E
:105A9000801B910B0297E4F6CE01CDB7DEB7E6E0AE
:105AA0000C9435DEA0E0B0E0E8E5FDE20C9415DEF4
:105AB000E82E6B015A018DE295E161E070E00E94F1
:105AC000D5C810E08DE295E10E944EC8113051F02A
:105AD000113018F01230A9F508C010E0833A89F5AA
