:100000000C944B0C0C94750C0C94750C0C94750C96
:100010000C94750C0C94750C0C94750C0C94750C5C
:100020000C94750C0C94750C0C94750C0C94750C4C
:100030000C94750C0C94750C0C94750C0C94F0814C
:100040000C94750C0C94750C0C94750C0C94750C2C
:100050000C94750C0C94750C0C94750C0C94AEA946
:100060000C94750C0C94340E0C94740E0C94750C4A
:100070000C94750C0C94750C0C94750C0C94750CFC
:100080000C94750C0C94750C0C94750C0C94750CEC
:100090000C94C60E0C94060F0C94750C0C9443A68D
:1000A0000C94750C0C9489800C94750C0C94750C44
:1000B0000C94750C0C94750C0C94750C0C94750CBC
:1000C0000C94750C0C94750C0C94750C0C94750CAC
:1000D0000C94750C0C94750C0C94580F0C94980F90
:1000E0000C94750C3D1A5E1AD51A931AB41AEE1AAE
:1000F000071B201B391B591B8B1B6A1B583979396D
:100100005B395E396139643967396A396D397039FB
:100110007339763975508C5093507C5085509A5075
:10012000C950BC50B650AF50835083508350C2501A
:10013000A150A850DB50CF50E7500F5524552F55F4
:100140003E567F55FB55735594553E563E563E568A
:100150003E563E563E563E563E563E563E563E56FF
:100160003E563E563E563E563E562F569D56975646
:10017000A656BB560857E3561F57CF56F756A65BF1
:10018000D45BDB5BDE5BE75B2566EA5B25662566A9
:100190002566ED5BF05BF35B1D5C1B5C1B5C1B5C15
:1001A000295C1B5C1F5C1B5C1B5C2C5C345C2E5C48
:1001B000315C1B5C1B5C1B5C395C1B5C1B5C1B5C53
:1001C0001B5C1B5C345C1B5C365CF480F980FE803D
:1001D000038108810D81128117811C812181268173
:1001E0006CA06CA090A0FFA0D4A01AA135A162A120
:1001F000A0A1E7A1EBAAEEAAE1AAE5AA27ABF2AA81
:10020000F6AAFCAA00AB04AB0AAB0EAB12AB18AB60
:100210001CAB22AB084AD73B3BCE016E84BCBFFD72
:10022000C12F3D6C74319ABD56833DDA3D00C77FC6
:1002300011BED9E4BB4C3E916BAAAABE000000805F
:100240003F05A84CCDB2D44EB93836A9020C50B9EE
:10025000918688083CA6AAAA2ABE000000803F4CCE
:100260006F670064756D7000000000000000000002
:10027000008C3965726173650000000000000000A9
:1002800000D631656E61626C650000000000000000
:1002900000233164697361626C6500000000000036
:1002A00000233168656C7000000000000000000051
:1002B000004E13706C616E6E6572006763730000B0
:1002C000000000000000000000E7667365747570B0
:1002D0000065726173650000000000000000001FEF
:1002E000317265736574000000000000000000AE0C
:1002F00030726164696F0000000000000000009A25
:100300002F6672616D65000000000000000000E5CE
:10031000286D6F746F72730000000000000000E72A
:10032000266573630000000000000000000000B9B3
:10033000266C6576656C000000000000000000A3DC
:100340001C6D6F646573000000000000000000FE7B
:10035000266261747465727900000000000000A9D3
:1003600028736F6E617200000000000000000073CF
:1003700028636F6D70617373000000000000003926
:100380002F74756E6500000000000000000000ADD5
:10039000266465636C696E6174696F6E000000DCD1
:1003A0002E68656C6900000000000000000000E697
:1003B0002A6779726F00000000000000000000F062
:1003C0002773686F770000000000000000000095B0
:1003D0002341726475436F707465722056322E30FB
:1003E0002E34392042657461006C6F677300000021
:1003F000000000000000004121736574757000006A
:1004000000000000000000F220746573740000001A
:1004100000000000000000EC2068656C7000000027
:10042000000000000000002912706C616E6E6572A1
:1004300000000000000000D4207465737400707721
:100440006D0000000000000000000000E91672616D
:1004500064696F0000000000000000007D16666106
:10046000696C7361666500000000000048106770E9
:100470007300000000000000000000004F20696DC4
:100480007500000000000000000000002B1F6261EA
:10049000747465727900000000000000B111747579
:1004A0006E6500000000000000000000AC1B7472CC
:1004B000690000000000000000000000B119637531
:1004C0007272656E74000000000000002B197265E6
:1004D0006C6179000000000000000000CB1577611E
:1004E00079706F696E74730000000000BB14736F45
:1004F0006E6172000000000000000000D813656506
:1005000064756D70000000000000000075137261DA
:1005100077677073000000000000000072114869E6
:100520007420456E74657220746F20657869742E2E
:100530000A0A00202530327800253034783A0053FA
:100540006F6E61723A20256420636D0A00536F6EEE
:1005500061722064697361626C65640A0048697441
:10056000207261643A2025640A0025642077700AAD
:10057000006F662025646D0A000A00486F6C6420D5
:10058000616C742000636F6D6D616E6420233A208E
:1005900025642069643A2564206F703A25642070D0
:1005A000313A25642070323A256C642070333A2544
:1005B0006C642070343A256C64200A0052656C61CA
:1005C00079206F66660A0052656C6179206F6E0A49
:1005D00000563A2025342E34662C20413A2025340A
:1005E0002E34662C206D41683A2025342E34660A5C
:1005F00000696E7075743A202564096F75747075A2
:100600007425640A0074756E653A2025312E3366B0
:100610000A004E6F7420656E61626C65640A002585
:100620006C642C20256C642C20256C640A00494DD8
:10063000550A004779726F206F6666736574733A66
:100640002025342E32662C2025342E32662C20258F
:10065000342E32660A00416363656C206F666673F0
:100660006574733A2025342E32662C2025342E32C0
:10067000662C2025342E32660A004C61743A2025FF
:100680006C642C204C6F6E20256C642C20416C74A3
:100690003A20256C646D2C2023736174733A2025F5
:1006A000640A00494E2020313A20256409323A205C
:1006B000256409333A20256409343A202564093534
:1006C0003A20256409363A20256409373A20256402
:1006D0000A00494E3A20313A20256409323A202551
:1006E0006409333A20256409343A20256409353AEF
:1006F00020256409363A20256409373A2025640903
:10070000383A2025640A00506C616E6E6572204D87
:100710006F64650A4E6F7420696E74656E646564FB
:1007200020666F72206D616E75616C207573650A4D
:100730000A00436F6D6D616E64733A0A20206C6F1E
:1007400067730A202073657475700A2020746573BE
:10075000740A2020706C616E6E65720A0A4D6F76A5
:10076000652074686520736C6964652073776974AB
:10077000636820616E6420726573657420746F20F5
:10078000464C592E0A0A000A2054797065202772B7
:100790006164696F2720746F20636F6E6669677587
:1007A0007265206E6F772E0A0A000A215761726EF9
:1007B000696E672C20796F757220726164696F2091
:1007C0006973206E6F7420636F6E666967757265FA
:1007D0006421005365747570204D6F64650A0A0AC0
:1007E0000046572056657273696F6E2025640A00B3
:1007F000526164696F0A004348373A202564207CBF
:100800002025640A004348363A202564207C2025B0
:10081000640A004348353A202564207C2025640A78
:10082000004348343A202564207C2025640A004394
:1008300048333A202564207C2025640A004348324E
:100840003A202564207C2025640A004348313A2060
:100850002564207C2025640A0048656C6920667246
:10086000616D650A004672616D650A00766F6C7491
:100870007320616E64206375720062617474207607
:100880006F6C747300342063656C6C730033206389
:10089000656C6C73000A42617474204D6F696E74EC
:1008A0006F720A0061626C65640A006469730065B6
:1008B0006E00536F6E61720A00466C69676874203F
:1008C0006D6F6465730A004F46460A004F4E0A007A
:1008D0002C090953696D706C653A2000506F7320C4
:1008E00025643A09004D6167206F6666736574730D
:1008F0003A2025342E34662C2025342E34662C20C4
:1009000025342E3466004D6167204465633A202506
:10091000342E34660A00436F6D706173730A00737E
:100920006572766F20726174653A09256420687A71
:100930000A00636F6C6C206D696E3A0925640920AA
:100940006D69643A256409206D61783A25640A006E
:100950007069746368206D61783A200925640A0023
:10096000726F6C6C206D61783A200925640A0074FE
:1009700061696C3A09092564200925642009256408
:100980000A00333A092564200925642009256420DA
:100990000925640A00323A092564200925642009E2
:1009A0002564200925640A00313A092564200925B7
:1009B0006420092564200925640A00536572766F56
:1009C0002009706F7320096D696E20096D617820B0
:1009D000097265760A0048656C690A006761696E8C
:1009E0003A2025640045787465726E616C20477901
:1009F000726F3A0A000A4F7074696F6E733A5B6FD8
:100A00006E2C206F66665D206761696E0A006F66F6
:100A100066006F6E004469676974616C205365728B
:100A2000766F20323530687A0A00416E616C6F67EC
:100A300020536572766F202564687A0A00536572C8
:100A4000766F20256409097472696D3A25640A007D
:100A5000536572766F2025640909706F733A2564B7
:100A60000A00496E76616C6964206D696E2F6D6154
:100A70007820636170747572656420726F6C6C3A73
:100A800025642C202070697463683A25642C20202A
:100A9000636F6C6C656374697665206D696E3A206E
:100AA0002564206D61783A2025642C2020746169CA
:100AB0006C206D696E3A2564206D61783A25640A70
:100AC000004D6F766520636F6C6C2C20726F6C6CC0
:100AD0002C20706974636820616E64207461696C95
:100AE00020746F2065787472656D65732C20707248
:100AF00065737320276D27207768656E20646F6E9D
:100B0000650A00436F6C6C6563746976652077686D
:100B1000656E20626C616465207069746368206131
:100B200074207A65726F3A2025640A0009780909F1
:100B300065786974202620736176650A0009743C23
:100B4000616E676C653E09736574207472696D200F
:100B5000282D353030207E20353030290A000975A7
:100B600020617C6409097570646174652072617428
:100B7000652028613D616E616C6F672073657276D8
:100B80006F2C20643D6469676974616C290A0009EF
:100B90007209097265766572736520736572766F86
:100BA0000A0009703C616E676C653E0973657420CC
:100BB000706F732028692E652E207030203D2066CE
:100BC000726F6E742C20703930203D207269676816
:100BD00074290A00096D090973657420726F6C6CC1
:100BE0002C2070697463682C20636F6C6C206D69B5
:100BF0006E2F6D61780A00096309097365742063BB
:100C00006F6C6C207768656E20626C616465207023
:100C100069746368207A65726F0A000961206F72D7
:100C2000207A09096D6F7665206D69642075702FD3
:100C3000646F776E0A0009317E34090973656C654B
:100C4000637420736572766F0A0009640909646928
:100C500073706C61792073657474696E67730A00D0
:100C6000496E737472756374696F6E733A002025F0
:100C7000640A000A54554E453A0A000A4F707469D6
:100C80006F6E733A5B6F6E2C6F66665D0A006F66FF
:100C900066006F6E000A4F7074696F6E733A5B6F17
:100CA0006E2C206F66665D0A006F6666006F6E00D0
:100CB0000A4F7074696F6E733A206F66662C20312C
:100CC0002D34006F6666000A4D6F7665206D6F6487
:100CD000652073776974636820746F206564697434
:100CE0002C2061696C65726F6E3A2073656C656368
:100CF00074206D6F6465732C207275646465723A3C
:100D00002053696D706C65206F6E2F6F66660A00E8
:100D10000A53617665642053657474696E67730A5B
:100D20000A000A4553432043616C69627261746929
:100D30006F6E3A0A2D3120556E706C7567205553D1
:100D40004220616E6420626174746572790A2D328A
:100D5000204D6F766520434C492F464C59207377C0
:100D60006974636820746F20464C59206D6F646508
:100D70000A2D33204D6F7665207468726F74746C21
:100D80006520746F206D61782C20636F6E6E6563D3
:100D90007420626174746572790A2D34204166741E
:100DA00065722074776F206C6F6E67206265657066
:100DB000732C207468726F74746C6520746F2030AB
:100DC0002C207468656E20746573740A0A20507252
:100DD00065737320456E74657220746F2063616E55
:100DE00063656C2E0A000A4F7074696F6E733A5B0C
:100DF000782C2B2C765D0A0076002B007000780092
:100E00000A4D6F766520616C6C20636F6E74726F33
:100E10006C7320746F2065616368206578747265F7
:100E20006D652E2048697420456E74657220746F5C
:100E300020736176653A20000A5265626F6F7420F4
:100E400041504D000A275927202B20456E746572AA
:100E500020746F20666163746F72792072657365A8
:100E6000742C20616E79206F74686572206B6579CF
:100E700020746F2061626F72743A0A00646F6E654D
:100E80000A000A45726173696E6720454550524FEA
:100E90004D0A000A436F6D6D616E64733A0A20203B
:100EA00064756D70203C6E3E202065726173652014
:100EB00028616C6C206C6F6773290A2020656E6155
:100EC000626C65203C6E616D653E207C20616C6CBF
:100ED0000A202064697361626C65203C6E616D65F7
:100EE0003E207C20616C6C0A0A00656E61626C6554
:100EF000004F5054464C4F57004D4F544F525300E3
:100F000043555200434D4400524157004D4F444514
:100F1000004E54554E004354554E00504D0047501E
:100F2000530041545449545544455F4D4544004194
:100F3000545449545544455F4641535400616C6CC8
:100F4000006D697373696E67206C6F6720747970C8
:100F5000650A000A4C6F67206572617365642E0A2A
:100F6000000A45726173696E67206C6F672E2E2EC2
:100F70000A00626164206C6F6720232025640A00E8
:100F80004154542C2025642C2025642C2025752CBC
:100F90002025642C2025642C2025640A002C202583
:100FA000640A004D4F443A004354554E2C202564AA
:100FB0002C2025642C2025642C2025642C202564DD
:100FC0002C2025642C2025642C2025640A004E54F6
:100FD000554E2C2025642C2025642C2025642C20A3
:100FE00025642C2025640A00504D2C2025642C20DB
:100FF00025642C2025642C2025642C2025642C209D
:1010000025642C20256C640A005241572C00434D66
:10101000442C2025642C2025642C2025642C20259C
:10102000642C2025642C20256C642C20256C642CD9
:1010300020256C640A00435552523A2025642C2026
:10104000256C642C2025342E34662C2025342E3437
:10105000662C2025640A0053544152542055500AEE
:10106000004D4F543A2025642C2025642C20256403
:101070002C2025640A004F462C2025642C20256452
:101080002C2025642C2025342E37662C2025342E48
:1010900037660A004750532C20256C642C202564A9
:1010A0002C2025342E37662C2025342E37662C2014
:1010B00025342E34662C2025342E34662C202564CD
:1010C0002C2025750A0058545241434B5F00544868
:1010D000525F524154455F005448525F414C545F47
:1010E000004E41565F4C4F4E5F004E41565F4C41A3
:1010F000545F00484C445F4C4F4E5F00484C445F87
:101100004C41545F005354425F5941575F00535460
:10111000425F5049545F005354425F524C4C5F0051
:10112000524154455F5941575F00524154455F5009
:1011300049545F00524154455F524C4C5F0043415B
:101140004D5F525F470043414D5F505F4700434151
:101150004D5F525F0043414D5F505F005243385F27
:10116000005243375F005243365F005243355F0001
:101170005243345F005243335F005243325F0052A8
:1011800043315F0053565F415647004759525F470E
:1011900041494E5F004759525F454E41424C455FC1
:1011A00000434F4C5F4D49445F00434F4C5F4D41FE
:1011B000585F00434F4C5F4D494E5F005049545FAC
:1011C0004D41585F00524F4C5F4D41585F005356A0
:1011D000335F504F535F005356325F504F535F00A1
:1011E0005356315F504F535F004853345F004853AC
:1011F000335F004853325F004853315F004C4F5714
:101200005F564F4C5400494E5F564F4C5400464C6D
:101210004F575F454E41424C450054425F52415446
:10122000494F004652414D450054554E45004553E7
:1012300043004D41475F454E41424C4500424154B9
:10124000545F434150414349545900424154545F13
:101250004D4F4E49544F5200534F4E41525F454EF1
:1012600041424C4500414C545F484F4C445F5254FE
:101270004C004C4F475F4249544D41534B0053493A
:101280004D504C4500464C544D4F44453600464C5D
:10129000544D4F44453500464C544D4F4445340061
:1012A000464C544D4F44453300464C544D4F4445F5
:1012B0003200464C544D4F444531005452494D5F25
:1012C0005448524F54544C45005448525F46535F63
:1012D00056414C5545005448525F46535F41435474
:1012E000494F4E005448525F4641494C5341464590
:1012F000005448525F4D4158005448525F4D494E8A
:101300000057505F53504545445F4D41580057507A
:101310005F4C4F495445525F5241440057505F5211
:1013200041444955530057505F4D5553545F494E02
:101330004445580057505F494E4445580057505F48
:10134000544F54414C0057505F4D4F444500585442
:10135000524B5F414E474C455F4344005345524911
:10136000414C335F424155440053595349445F4D0A
:10137000594743530053595349445F544849534DC7
:1013800041560053595349445F53575F5459504590
:101390000053595349445F53575F4D5245560052CD
:1013A0004556004D4158005452494D004D494E009C
:1013B000494D415800490050004C6F6720232025BB
:1013C000642C2020202073746172742025642C20EA
:1013D0002020656E642025640A000A2564206C6F55
:1013E00067730A000A4E6F206C6F67730A54797036
:1013F00065202764756D702030272E0A0A00204F63
:101400005054464C4F5700204D4F544F52530020DC
:1014100043555252454E540020434D440020524102
:101420005700204E54554E00204354554E00205036
:101430004D002047505300204154544954554445D1
:101440005F4D4544002041545449545544455F463E
:10145000415354006E6F6E65006C6F677320656E4C
:1014600061626C65643A2000666C6967687420701C
:101470006C616E2072656365697665640061637492
:10148000696F6E2072656365697665643A200065F0
:1014900072726F723A206E6F6E2D4E617620636DA0
:1014A00064006F7574206F6620636F6D6D616E648C
:1014B000732100455854524133004558545241322B
:1014C0000045585452413100504F534954494F4EF2
:1014D000005241575F4354524C0052435F434841CE
:1014E0004E004558545F53544154005241575F5386
:1014F000454E53005352335F005352305F0044490E
:101500005341524D494E47204D4F544F5253004185
:10151000524D494E47204D4F544F52530047524F62
:10152000554E44205354415254000A434C493A0A00
:101530000A00506C656173652052756E20536574A6
:1015400075702E2E2E0A004669726D7761726520C5
:101550006368616E67653A2065726173696E6720C2
:10156000454550524F4D2E2E2E0A000A0A496E69EB
:10157000742041726475436F707465722056322E08
:10158000302E343920426574610A0A46726565203E
:1015900052414D3A20256C750A004C6F67732066E6
:1015A000756C6C000A4750530A00253033753A2594
:1015B000733A20006E6F7420666F756E640025307C
:1015C00033753A252D33322E3332733A2000756E3F
:1015D0006B6E6F776E2074797065006E6F74206625
:1015E0006F756E640025733A20006D697373696EC0
:1015F00067206E616D65206F722076616C75650085
:101600003F3F00256400256400256C6400256600CA
:10161000256600657869740068656C700044454310
:1016200000434F4D504153535F006E616E00696E31
:10163000660000407A10F35A00A0724E180900109C
:10164000A5D4E80000E87648170000E40B54020037
:1016500000CA9A3B000000E1F50500008096980062
:10166000000040420F000000A0860100000010278B
:1016700000000000E803000000006400000000001B
:101680000A00000000000100000000002C76D8884D
:10169000DC674F0823DFC1DFAE59E1B1B796E5E360
:1016A000E453C63AE651997696E8E6C28426EB8979
:1016B0008C9B62ED407C6FFCEFBC9C9F40F2BAA516
:1016C0006FA5F490055A2AF75C936B6CF9676DC1AE
:1016D0001BFCE0E40D47FEF520E6B500D0ED902EB2
:1016E0000300943577050080841E080000204E0A10
:1016F000000000C80C333333330F986E128311414E
:10170000EF8D2114893BE65516CFFEE6DB18D18418
:101710004B381BF77C1D901DA4BBE424203284723F
:101720005E228100C9F124ECA1E53D2700002100E3
:10173000240027002A002D003000330001010000A2
:10174000040107010A0100002200250028002B00E7
:101750002E003100340002010000050108010B01D8
:10176000000020002300260029002C002F0032005A
:101770000001000003010601090105050505070533
:1017800008080808020202020A0A080804040404FD
:101790000101010101010101030303030303030329
:1017A000040707070C0C0C0C0C0C0C0C02020202B8
:1017B00006060606060606060B0B0B0B0B0B0B0BA1
:1017C0000102102020080810204010204080020153
:1017D0000201080402010102040810204080804038
:1017E0002010080402018004020180402010080437
:1017F00002010804020101020408102040800102D5
:101800000408102040800000090A02080B0C0D0794
:1018100006030401000000000000000000000000BA
:1018200000000000000000000000000000000000B8
:101830000000100F0E00000000000000000000007B
:10184000000000000000000000000000494E464972
:101850004E4954594E414ECDCCCC3D0AD7233C176E
:10186000B7D13877CC2B329595E6241FB14F0A00BB
:101870000020410000C84200401C4620BCBE4CCAAB
:101880001B0E5AAEC59D740042457F81728BAA958E
:1018900042A63B456B8B11241FBECFEFD1E2DEBFCA
:1018A000CDBF14E0A0E0B2E0E8E7FCE601E00BBF4A
:1018B00002C007900D92A036B107D9F716E1A0E655
:1018C000B4E001C01D92AB39B107E1F718E1C2E9FC
:1018D000D8E104C02297FE010E94CDAFC838D107DD
:1018E000C9F70E94C2A70C942FB60C9400002830B0
:1018F00008F027E03327DA01990F311D87FD916049
:1019000000966105710539F432602E5F3D9330E336
:101910002A95E1F708959F3F30F080387105610501
:1019200009F03C5F3C5F3D93913008F08068911D69
:10193000DF93CF931F930F93FF92EF92192F987F0E
:101940009695E92F96959695E90FFF27E457F94E5E
:1019500099273327EE24FF24A701E7010590089477
:10196000079428F4360FE71EF81E491F511D660F15
:10197000771F881F991F0694A1F70590079428F4F4
:10198000E70EF81E491F561FC11D770F881F991FAC
:10199000661F0694A1F70590079428F4F80E491FD6
:1019A000561FC71FD11D880F991F661F771F0694EA
:1019B000A1F70590079420F4490F561FC71FD81FA1
:1019C000990F661F771F881F0694A9F784911095B9
:1019D000177041F0D695C79557954795F794E794BA
:1019E0001A95C1F7E2E3F6E16894159015913591E7
:1019F0006591959105907FE27395E118F10A430B8B
:101A0000560BC90BD009C0F7E10CF11E431F561F3E
:101A1000C91FD01D7EF4703311F48A95E6CFE89487
:101A2000015030F0080F0AF40027021708F4202FA5
:101A30002395022F7A3328F079E37D932A95E9F7ED
:101A400010C07D932A9589F60694979567953795EA
:101A500017951794E118F10A430B560BC90BD009DF
:101A600098F023957E9173957A3308F070E37C9318
:101A70002013B8F77E9170617D9330F0839571E308
:101A80007D9370E32A95E1F71124EF90FF900F9179
:101A90001F91CF91DF91992787FD90950895FA01C5
:101AA000AA27283051F1203181F1E8946F936E7F9D
:101AB0006E5F7F4F8F4F9F4FAF4FB1E03ED0B4E08E
:101AC0003CD0670F781F891F9A1FA11D680F791FCF
:101AD0008A1F911DA11D6A0F711D811D911DA11DE0
:101AE00020D009F468943F912AE0269F11243019F0
:101AF000305D3193DEF6CF010895462F4770405D8B
:101B00004193B3E00FD0C9F7F6CF462F4F70405D39
:101B10004A3318F0495D31FD4052419302D0A9F794
:101B2000EACFB4E0A6959795879577956795BA958E
:101B3000C9F700976105710508959B01AC010A2E54
:101B400006945795479537952795BA95C9F7620F2B
:101B5000731F841F951FA01D0895CF93DF93FC0171
:101B6000EB014230510570F063857485858596855B
:101B700020E030E040E854E40E945EAE0E94C8AC31
:101B80007983688382E090E0DF91CF910895CF93CD
:101B9000DF93EC01FB014230510518F420E030E006
:101BA00012C06081718180E090E00E94F4AC20E07E
:101BB00030E040E85AE30E945EAE6B877C878D87F9
:101BC0009E8722E030E0C901DF91CF91089508950A
:101BD00008950895DC01FB0183818C938281119625
:101BE0008C931197818112968C9312978081139612
:101BF0008C930895DC01FB0187818C93868111967B
:101C00008C931197858112968C93129784811396E9
:101C10008C931397838114968C93149782811596D5
:101C20008C931597818116968C93169780811796C1
:101C30008C930895A4E0B0E0E0E2FEE00C94A4AF41
:101C4000262FBC01685F7F4F620F711DCE01019688
:101C50000E94EA0D29813A814B815C81B901CA0158
:101C60002496E2E00C94C0AF1F920F920FB60F9231
:101C70000BB60F9211242F933F934F938F939F9303
:101C8000EF93FF934091C6002091E1143091E2144C
:101C90002F5F3F4F8091E5149091E614282339235C
:101CA0008091E3149091E4142817390779F080911A
:101CB000E1149091E214E091E714F091E814E80F38
:101CC000F91F40833093E2142093E114FF91EF91C8
:101CD0009F918F914F913F912F910F900BBE0F903D
:101CE0000FBE0F901F9018951F920F920FB60F9274
:101CF0000BB60F9211242F933F938F939F93EF93E3
:101D0000FF93209103153091041580910115909156
:101D1000021528173907E9F08091031590910415F1
:101D2000E0910715F0910815E80FF91F8081809365
:101D3000C600809103159091041501962091051518
:101D400030910615822393239093041580930315F5
:101D500010C02091011530910215809103159091CA
:101D600004152817390729F48091C1008F7D8093CD
:101D7000C100FF91EF919F918F913F912F910F9013
:101D80000BBE0F900FBE0F901F9018951F920F92D1
:101D90000FB60F920BB60F9211242F933F934F93D0
:101DA0008F939F93EF93FF934091CE002091E9147E
:101DB0003091EA142F5F3F4F8091ED149091EE1413
:101DC000282339238091EB149091EC1428173907BC
:101DD00079F08091E9149091EA14E091EF14F09178
:101DE000F014E80FF91F40833093EA142093E914AC
:101DF000FF91EF919F918F914F913F912F910F9074
:101E00000BBE0F900FBE0F901F9018951F920F9250
:101E10000FB60F920BB60F9211242F933F938F930F
:101E20009F93EF93FF9320910B1530910C158091A8
:101E3000091590910A1528173907E9F080910B15BB
:101E400090910C15E0910F15F0911015E80FF91F06
:101E500080818093CE0080910B1590910C15019696
:101E600020910D1530910E158223932390930C151C
:101E700080930B1510C02091091530910A1580919F
:101E80000B1590910C152817390729F48091C9007A
:101E90008F7D8093C900FF91EF919F918F913F912A
:101EA0002F910F900BBE0F900FBE0F901F901895A3
:101EB0001F920F920FB60F920BB60F9211242F9311
:101EC0003F934F938F939F93EF93FF9340913601EE
:101ED0002091F9143091FA142F5F3F4F8091FD1437
:101EE0009091FE14282339238091FB149091FC14C7
:101EF0002817390779F08091F9149091FA14E0913C
:101F0000FF14F0910015E80FF91F40833093FA1485
:101F10002093F914FF91EF919F918F914F913F91F1
:101F20002F910F900BBE0F900FBE0F901F90189522
:101F30001F920F920FB60F920BB60F9211242F9390
:101F40003F938F939F93EF93FF9320911B153091B5
:101F50001C158091191590911A1528173907E9F069
:101F600080911B1590911C15E0911F15F091201583
:101F7000E80FF91F80818093360180911B159091A5
:101F80001C15019620911D1530911E158223932357
:101F900090931C1580931B1510C02091191530913A
:101FA0001A1580911B1590911C152817390729F4D3
:101FB000809131018F7D80933101FF91EF919F914D
:101FC0008F913F912F910F900BBE0F900FBE0F90EE
:101FD0001F901895FC017183608384E06036780758
:101FE00039F470932315609322151386128608C066
:101FF000709325156093241581E090E09387828784
:102000001382128208952091970C3091980CC90187
:102010008F5C94408238910510F481E00895C901E5
:10202000815595408238910510F482E00895C901E8
:10203000835D95408238910510F483E00895C901CD
:10204000855596408138910510F484E00895265D09
:10205000364014F480E0089585E00895009719F45F
:102060002FE539E013C08130910519F423EB39E0F5
:102070000DC08230910519F427E03AE007C00397BC
:1020800019F020E030E002C02BE53AE0C9010895E4
:1020900080E00895FC01DB01452B11F083858C93D2
:1020A00081E090E00895DC01FB01452B19F080816F
:1020B0001B968C9381E090E00895FC01638577275F
:1020C00067FD7095872F972F0E94F6AC0895FC014D
:1020D000DB014230510520F0838594858D939C93DC
:1020E00082E090E00895DC01FB014230510530F0C0
:1020F000808191811C969C938E931B9782E090E047
:102100000895FC0163857485882777FD8095982F55
:102110000E94F6AC0895FC012385348545855685DB
:10212000B901CA010895CF93DF93FC01EB0144305C
:10213000510540F083859485A585B685888399836C
:10214000AA83BB8384E090E0DF91CF910895CF9381
:10215000DF93EC01FB014430510540F08081918117
:10216000A281B3818B879C87AD87BE8784E090E096
:10217000DF91CF910895E091ED11F091EE1187A9D3
:1021800090AD8130910539F00297F9F483E261E076
:102190000E9428AB089581A58823D9F090E0809112
:1021A000EF11882309F491E09093EF11992319F02E
:1021B00083E260E002C083E261E00E9428ABE0912C
:1021C000ED11F091EE1111A6089583E260E00E94F6
:1021D00028AB08958BE360E00E9428AB08958BE361
:1021E00061E00E9428AB08950E94EF1064E670E061
:1021F00080E090E00E942AAA0E94EA10089585E2F9
:1022000060E00E9428AB84E260E00E9428AB83E299
:1022100060E00E9428AB1092CE131092BB1208957A
:102220008091F2138F5F8093F2138150833011F409
:102230001092F2138091F213813059F0813018F02E
:102240008230C1F40FC083E260E00E9428AB85E2D7
:1022500005C085E260E00E9428AB84E261E00E9454
:1022600028AB089584E260E00E9428AB83E261E03D
:102270000E9428AB08958091BD13813079F484E4E5
:1022800061E00E9428AB82E461E00E9428AB80E418
:1022900061E00E9428AB8EE361E00EC084E460E060
:1022A0000E9428AB82E460E00E9428AB80E460E0FA
:1022B0000E9428AB8EE360E00E9428AB089500D016
:1022C00000D080E694E0EDB7FEB7928381838EE183
:1022D00095E0948383830E94EB980F900F900F906A
:1022E0000F9008950E945F1168EE73E080E090E027
:1022F0000E942AAA84E894E00E947699892B89F0AA
:1023000084E261E00E9428AB84E894E00E94A699F0
:10231000682F82E794E00E94079A84E260E00E94BE
:1023200028AB82E794E00E947699892B89F083E2BA
:1023300061E00E9428AB82E794E00E94A699682F92
:1023400084E894E00E94079A83E260E00E9428AB50
:1023500080E694E00E947699181619065CF680E0F3
:10236000089500D000D080E694E0EDB7FEB79283E8
:10237000818382E196E0948383830E94EB980F909F
:102380000F900F900F9080E008958DB79EB7409703
:102390000FB6F8949EBF0FBE8DBFEDB7FEB7319656
:1023A00080E694E0ADB7BEB712969C938E931197DA
:1023B00083E396E09383828380E090E0A0E0B0E046
:1023C00084839583A683B78380879187A287B38709
:1023D00084879587A687B7870E94EB988DB79EB7AD
:1023E00040960FB6F8949EBF0FBE8DBF08958DB76F
:1023F0009EB740970FB6F8949EBF0FBE8DBFEDB746
:10240000FEB7319680E694E0ADB7BEB712969C93C6
:102410008E93119786E596E09383828380E090E027
:10242000A0E0B0E084839583A683B78380879187FB
:10243000A287B38784879587A687B7870E94EB9882
:102440008DB79EB740960FB6F8949EBF0FBE8DBF56
:10245000089500D000D080E694E0EDB7FEB79283F7
:10246000818382E397E0948383830E94EB980F90AB
:102470000F900F900F9080E008950F931F938DB7EA
:102480009EB708970FB6F8949EBF0FBE8DBFEDB7ED
:10249000FEB7319600E614E0ADB7BEB712961C93B6
:1024A0000E9311978BE498E09383828380915C0B69
:1024B00090915D0B958384838091760B9091770B3F
:1024C000978386830E94EB98EDB7FEB73196ADB740
:1024D000BEB712961C930E9311978DE398E09383E9
:1024E00082838091B00B9091B10B9583848380910E
:1024F000CA0B9091CB0B978386830E94EB98EDB724
:10250000FEB73196ADB7BEB712961C930E931197D6
:102510008FE298E0938382838091040C9091050C64
:102520009583848380911E0C90911F0C97838683E2
:102530000E94EB98EDB7FEB73196ADB7BEB71296D5
:102540001C930E93119781E298E09383828380918C
:10255000580C9091590C958384838091720C9091C2
:10256000730C978386830E94EB98EDB7FEB7319684
:10257000ADB7BEB712961C930E93119783E198E006
:10258000938382838091AC0C9091AD0C958384836E
:102590008091C60C9091C70C978386830E94EB981C
:1025A000EDB7FEB73196ADB7BEB712961C930E933A
:1025B000119785E098E0938382838091000D90913C
:1025C000010D9583848380911A0D90911B0D978343
:1025D00086830E94EB98EDB7FEB73196ADB7BEB7D4
:1025E00012961C930E93119787EF97E09383828343
:1025F0008091540D9091550D9583848380916E0D3B
:1026000090916F0D978386830E94EB988DB79EB74C
:1026100008960FB6F8949EBF0FBE8DBF1F910F9105
:10262000089520E634E0882349F000D000D0EDB7CB
:10263000FEB7328321838FEA98E008C000D000D033
:10264000EDB7FEB7328321838BEA98E094838383CE
:102650000E94EB9880E694E0EDB7FEB79283818309
:1026600084EA98E0948383830E94EB980F900F9004
:102670000F900F90089500D000D080E694E0EDB761
:10268000FEB79283818380E19DE0948383830E94DF
:10269000EB980F900F900F900F90089500D000D0FE
:1026A00080E694E0EDB7FEB79283818383E99EE0F4
:1026B000948383830E94EB980F900F900F900F905C
:1026C00080E0089500D000D080E694E0EDB7FEB73A
:1026D0009283818387E590E1948383830E94EB98C2
:1026E0000F900F900F900F900895A0E0B0E0EBE7EF
:1026F000F3E10C949CAF29E3A22E25E0B22E93E3E4
:10270000C92E95E0D92E00E010E080E6E82E84E0A6
:10271000F82E00D000D000D0EDB7FEB73196ADB79F
:10272000BEB71296FC92EE921197B382A2821583E5
:1027300004830E94EB98C0E0D0E08DB79EB7069668
:102740000FB6F8949EBF0FBE8DBFCE01800F911FB4
:102750000E9447B400D000D000D0EDB7FEB731964C
:10276000ADB7BEB71296FC92EE921197D382C28299
:10277000848315820E94EB9821968DB79EB70696AA
:102780000FB6F8949EBF0FBE8DBFC031D105E9F6DC
:10279000C7010E94BAA8005F1F4F90E100301907DF
:1027A00009F0B7CF80E0CDB7DEB7EAE00C94B8AF60
:1027B0000F931F93CF93DF938091DC088823B9F4A4
:1027C00000D000D080E694E0ADB7BEB712969C93DF
:1027D0008E9311978DE495E014969C938E931397A6
:1027E0000E94EB980F900F900F900F9030C00E94B6
:1027F0005F110FE315E0C0E6D4E064E670E080E02E
:1028000090E00E942AAA8BE597E00E944C9500D0A8
:1028100000D000D0EDB7FEB73196ADB7BEB7129677
:10282000DC93CE93119713830283958384830E9454
:10283000EB98EDB7FEB736960FB6F894FEBF0FBE15
:10284000EDBFCE010E94769918161906B4F680E005
:10285000DF91CF911F910F910895A0E0B0E0E3E3E5
:10286000F4E10C949BAFEC018091D907992787FD87
:1028700090958617970714F4188277C0CB0134E03F
:10288000880F991F3A95E1F7861B970B80509C4F54
:102890005C01CC24B7FCC094DC2C0E9447B4888334
:1028A000860175010894E11CF11C011D111DC70171
:1028B0000E9447B4982E89830894E11CF11C011DE5
:1028C000111DC7010E9447B48A830894E11CF11CC2
:1028D000011D111DC7010E944FB46B837C838D8342
:1028E0009E8387E090E0A0E0B0E0A80EB91ECA1E6B
:1028F000DB1EC5010E944FB47B018C01EF82F8867C
:1029000009871A8784E090E0A0E0B0E0A80EB91E25
:10291000CA1EDB1EC5010E944FB49B01AC012B8770
:102920003C874D875E8794FE20C08091CB119091AB
:10293000CC11A091CD11B091CE11E80EF91E0A1F55
:102940001B1FEF82F88609871A878091CF1190911B
:10295000D011A091D111B091D211280F391F4A1F67
:102960005B1F2B873C874D875E87CE01CDB7DEB7D7
:10297000EBE00C94B7AF8F929F92AF92BF92DF9231
:10298000EF92FF920F931F93DF93CF93CDB7DEB7F4
:102990002F970FB6F894DEBF0FBECDBF68EE73E081
:1029A00080E090E00E942AAA00D000D000E614E067
:1029B000ADB7BEB712961C930E9311978BE795E0B7
:1029C00014969C938E9313970E94EB982091CF08B6
:1029D0003091D0080F900F900F900F9037FF11C0DB
:1029E00000D000D0EDB7FEB71283018389E795E0F0
:1029F000948383830E94EB980F900F900F900F9019
:102A000021C000D000D000D0EDB7FEB73196ADB7F1
:102A1000BEB712961C930E93119781E795E09383AE
:102A20008283C90164E670E00E9444AF75836483C9
:102A30000E94EB98EDB7FEB736960FB6F894FEBF3E
:102A40000FBEEDBF00D000D000D0EDB7FEB731967D
:102A500000E614E0ADB7BEB712961C930E93119723
:102A60008AE695E0938382838091D907992787FD31
:102A70009095958384830E94EB98EDB7FEB73196CD
:102A8000ADB7BEB712961C930E9311978DE595E0E6
:102A9000938382838091FD07992787FD9095958385
:102AA00084830E94EB9845E8842E45E0942EFF2411
:102AB000EDB7FEB736960FB6F894FEBF0FBEEDBF6A
:102AC0005E010894A11CB11CD02EE12E46C0C501A8
:102AD000B8010E942D148DB79EB748970FB6F89491
:102AE0009EBF0FBE8DBFEDB7FEB73196ADB7BEB777
:102AF0001196DC9211971296EC9293828282158342
:102B000004838981868317828A81808711868B81DD
:102B1000828713868C819D81AE81BF818487958752
:102B2000A687B78788859985AA85BB85808B918B79
:102B3000A28BB38B8C859D85AE85BF85848B958B51
:102B4000A68BB78B0E94EB98F394EDB7FEB77896FF
:102B50000FB6F894FEBF0FBEEDBF0F2D10E08091B1
:102B6000D907992787FD9095801791070CF0AFCF73
:102B700080E02F960FB6F894DEBF0FBECDBFCF9189
:102B8000DF911F910F91FF90EF90DF90BF90AF907A
:102B90009F908F900895EF92FF920F931F93CF9382
:102BA000DF930E945F1168EE73E080E090E00E9486
:102BB0002AAA57ECE52E55E0F52E0CEB15E0C0E601
:102BC000D4E000D000D0EDB7FEB7D283C183F48249
:102BD000E3820E94EB980F900F900F900F9085E783
:102BE00097E00E94909568EB7BE080E090E00E9487
:102BF0002AAACE010E94769918161906F4F000D080
:102C000000D0EDB7FEB7D283C183148303830E9443
:102C1000EB980F900F900F900F9085E797E00E9430
:102C2000969568EB7BE080E090E00E942AAACE01B6
:102C30000E9476991816190624F680E0CDB7DEB703
:102C4000E6E00C94BCAF84EF93E10E9458818130A0
:102C500009F052C08093DB1184EF93E160E00E94A1
:102C60002B81BC018CE39BE00E9489A484EF93E15B
:102C700061E00E942B81BC0180E99BE00E9489A455
:102C800084EF93E162E00E942B81BC0184EE9BE023
:102C90000E9489A484EF93E163E00E942B81BC0130
:102CA00088E39CE00E9489A484EF93E164E00E94A1
:102CB0002B81BC018CE89CE00E9489A484EF93E105
:102CC00065E00E942B81BC0180EE9CE00E9489A4FB
:102CD00084EF93E166E00E942B81BC0184E39DE0D8
:102CE0000E9489A484EF93E167E00E942B81BC01DC
:102CF00088E89DE00E9489A408950F931F93CF93C5
:102D0000DF930E945F1168EE73E080E090E00E9424
:102D10002AAA03EA16E0C0E6D4E064E170E080E0AD
:102D200090E00E942AAA0E9423168DB79EB7429770
:102D30000FB6F8949EBF0FBE8DBFEDB7FEB73196AC
:102D4000ADB7BEB71296DC93CE931197138302836F
:102D50008091490B90914A0B9583848380919D0BC0
:102D600090919E0B978386838091F10B9091F20B4B
:102D7000918780878091450C9091460C938782873C
:102D80008091990C90919A0C958784878091ED0C95
:102D90009091EE0C978786878091410D9091420D1E
:102DA000918B808B0E94EB988DB79EB742960FB6A1
:102DB000F8949EBF0FBE8DBFCE010E947699181663
:102DC00019060CF0AACF80E0DF91CF911F910F91EF
:102DD00008950F931F93CF93DF930E945F1168EEC6
:102DE00073E080E090E00E942AAA02ED16E0C0E6BF
:102DF000D4E064E170E080E090E00E942AAA0E94A2
:102E000023168DB79EB744970FB6F8949EBF0FBE9A
:102E10008DBFEDB7FEB73196ADB7BEB71296DC9356
:102E2000CE931197138302838091470B9091480BA7
:102E30009583848380919B0B90919C0B97838683D1
:102E40008091EF0B9091F00B918780878091430CDC
:102E50009091440C938782878091970C9091980C65
:102E6000958784878091EB0C9091EC0C97878687EF
:102E700080913F0D9091400D918B808B8091930DAF
:102E80009091940D938B828B0E94EB988DB79EB797
:102E900044960FB6F8949EBF0FBE8DBFCE010E9420
:102EA0007699181619060CF0A4CF80E0DF91CF9127
:102EB0001F910F910895EF92FF920F931F9380E05F
:102EC0000E947AA9AA2797FDA095BA2FBC01CD012F
:102ED0000E94F6AC7B018C0160914C0970914D0908
:102EE00080914E0990914F0920E030E040E85AE38C
:102EF0000E945EAE9B01AC01C801B7010E945EAEAC
:102F00002AE037ED43E650E40E945EAE2DEC3CEC47
:102F10004CEC5DE30E945EAE7B018C016091C602C9
:102F20007091C7028091C8029091C90226E636E6E8
:102F300046E65FE30E945EAE9B01AC01C801B701AB
:102F40000E948EAB6093C6027093C7028093C80242
:102F50009093C90281E00E947AA9AA2797FDA095C3
:102F6000BA2FBC01CD010E94F6AC7B018C016091AF
:102F70004C0970914D0980914E0990914F0920E0C4
:102F800030E040E85AE30E945EAE9B01AC01C8010C
:102F9000B7010E945EAE2AE037ED43E650E40E949E
:102FA0005EAE2DEC3CEC4CEC5DE30E945EAE7B0132
:102FB0008C016091CA027091CB028091CC029091F9
:102FC000CD0226E636E646E65FE30E945EAE9B0152
:102FD000AC01C801B7010E948EAB6093CA02709326
:102FE000CB028093CC029093CD0282E00E947AA91A
:102FF000AA2797FDA095BA2FBC01CD010E94F6AC7F
:103000007B018C0160914C0970914D0980914E09B2
:1030100090914F0920E030E040E85AE30E945EAE14
:103020009B01AC01C801B7010E945EAE2AE037EDFA
:1030300043E650E40E945EAE2DEC3CEC4CEC5DE3CC
:103040000E945EAE7B018C016091CE027091CF0236
:103050008091D0029091D10226E636E646E65FE303
:103060000E945EAE9B01AC01C801B7010E948EAB0D
:103070006093CE027093CF028093D0029093D102DE
:1030800083E00E947AA9AA2797FDA095BA2FBC01D8
:10309000CD010E94F6AC7B018C0160914C097091CE
:1030A0004D0980914E0990914F0920E030E040E8B1
:1030B0005AE30E945EAE9B01AC01C801B7010E94B9
:1030C0005EAE2AE037ED43E650E40E945EAE2DECA2
:1030D0003CEC4CEC5DE30E945EAE7B018C016091A8
:1030E000D2027091D3028091D4029091D50226E64B
:1030F00036E646E65FE30E945EAE9B01AC01C80186
:10310000B7010E948EAB7B018C01CB01D80180936B
:10311000D2029093D302A093D402B093D50220910F
:10312000E808213049F48091CE029091CF02A0911D
:10313000D002B091D10204C0223059F4C701D801A5
:103140008093C2029093C302A093C402B093C502BD
:103150007DC0233019F0243009F078C08091C60278
:103160009091C702A091C802B091C9028093C20297
:103170009093C302A093C402B093C502243009F017
:1031800065C081E00E947AA9AA2797FDA095BA2F71
:10319000BC01CD010E94F6AC7B018C0160914C0911
:1031A00070914D0980914E0990914F0920E030E0D7
:1031B00040E85AE30E945EAE9B01AC01C801B70132
:1031C0000E945EAE2CE53FE84AED51E40E945EAEFF
:1031D0002DEC3CEC4CEC5DE30E945EAE7B018C017F
:1031E0006091D3117091D4118091D5119091D61125
:1031F00026E636E646E65FE30E945EAE9B01AC0142
:10320000C801B7010E948EAB6093D3117093D411A3
:103210008093D5119093D61123ED3CEB43EE5CE304
:103220000E945EAE9B01AC016091D7117091D811E4
:103230008091D9119091DA110E948EAB6093D711D1
:103240007093D8118093D9119093DA111F910F9137
:10325000FF90EF9008950F931F93CF93DF930E94F9
:103260005F1101ED15E0C0E6D4E064E670E080E0B7
:1032700090E00E942AAA0E9423160E945B178DB735
:103280009EB740970FB6F8949EBF0FBE8DBFEDB7A7
:10329000FEB73196ADB7BEB71296DC93CE931197B9
:1032A000138302838091C2029091C302A091C40251
:1032B000B091C50284839583A683B7838091D3118F
:1032C0009091D411A091D511B091D611808791879A
:1032D000A287B3878091D7119091D811A091D9116D
:1032E000B091DA1184879587A687B7870E94EB98FB
:1032F0008DB79EB740960FB6F8949EBF0FBE8DBF98
:103300004091EF0B5091F00B84EF93E160E00E944D
:10331000DC804091EF0B5091F00B84EF93E161E082
:103320000E94DC804091EF0B5091F00B84EF93E111
:1033300062E00E94DC804091EF0B5091F00B84EF33
:1033400093E163E00E94DC80CE010E94769918161A
:1033500019060CF08ACF80E0DF91CF911F910F9179
:1033600008950F931F93CF93DF930E945F1168EE30
:1033700073E080E090E00E942AAA01EF15E0C0E629
:10338000D4E064E170E080E090E00E942AAA0E940C
:1033900023168091450C9091460C9093480C809395
:1033A000470C88E39CE00E9431A58DB79EB7089733
:1033B0000FB6F8949EBF0FBE8DBFEDB7FEB7319626
:1033C000ADB7BEB71296DC93CE93119713830283E9
:1033D0008091450C9091460C9583848380914B0C91
:1033E00090914C0C978386830E94EB988DB79EB783
:1033F00008960FB6F8949EBF0FBE8DBF40914B0C40
:1034000050914C0C84EF93E166E00E94DC80CE0189
:103410000E947699181619060CF0B3CF80E0DF9160
:10342000CF911F910F9108956091ED0C7091EE0C6A
:10343000882777FD8095982F0E94F6AC20E030E039
:103440004AE754E40E945BAC609371077093720783
:10345000809373079093740780911909992787FDCA
:103460009095A92FB92FFC013197EC30F10508F0A8
:1034700072C1EE58FF4F0C94CBAF80EE9CE060E041
:1034800070E040E45FE10E94E9A2809171079091B1
:103490007207A0917307B09174078093660F9093A1
:1034A000670FA093680FB093690F8093A00F90935C
:1034B000A10FA093A20FB093A30F089580EE9CE0FC
:1034C00060E070E04CE251E00E94E9A26091ED0CF6
:1034D0007091EE0C882777FD8095982F0E94F6ACAE
:1034E00020E030E04AE754E40E945BACDC019B0141
:1034F000AC01209371073093720740937307509388
:1035000074072093750F3093760F4093770F509385
:10351000780FCB018093AF0F9093B00FA093B10FB2
:10352000B093B20F089580EE9CE060E070E04CE252
:1035300051E00E94E9A28091710790917207A091D9
:103540007307B09174078093B80E9093B90EA0934F
:10355000BA0EB093BB0E8093F20E9093F30EA0932D
:10356000F40EB093F50E089580EE9CE060E070E0FC
:103570004CE251E00E94E9A280917107909172079C
:10358000A0917307B09174078093C70E9093C80EF3
:10359000A093C90EB093CA0E8093010F9093020FAF
:1035A000A093030FB093040F089580EE9CE060E0B9
:1035B00070E048EE53E00E94E9A28091710790917B
:1035C0007207A0917307B09174078093DA0F9093FC
:1035D000DB0FA093DC0FB093DD0F089580EE9CE02D
:1035E00060E070E048EE53E00E94E9A2809171072C
:1035F00090917207A0917307B091740780932C0F7C
:1036000090932D0FA0932E0FB0932F0F089580EE5F
:103610009CE060E070E048EE53E00E94E9A28091F7
:10362000710790917207A0917307B091740780930E
:10363000361190933711A0933811B0933911089532
:1036400080EE9CE060E273E048EE53E00E94E9A265
:103650008091710790917207A0917307B0917407E0
:103660008093310990933209A0933309B0933409C0
:10367000089580EE9CE060E070E048EE53E00E9428
:10368000E9A28091ED0C9091EE0C8E50924024F0C6
:1036900085E797E00E9490958091ED0C9091EE0C5B
:1036A0008B5D91400CF057C085E797E00E9496959E
:1036B000089580EE9CE060E070E048EE53E00E94E8
:1036C000E9A28091ED0C9091EE0C909316088093F6
:1036D0001508089580EE9CE060E070E048EE53E04D
:1036E0000E94E9A28091710790917207A0917307DF
:1036F000B09174078093141090931510A093161036
:10370000B093171080934E1090934F10A0935010C9
:10371000B0935110089580EE9CE060E070E040E7C7
:1037200057E10E94E9A28091710790917207A091E0
:103730007307B09174078093881090938910A093B9
:103740008A10B0938B108093C2109093C310A093F3
:10375000C410B093C51008950F931F93CF93DF93B8
:103760000E945F1105E016E0C0E6D4E068EC70E06E
:1037700080E090E00E942AAA0E9423160E94141A58
:103780008DB79EB708970FB6F8949EBF0FBE8DBF3A
:10379000EDB7FEB73196ADB7BEB71296DC93CE93B8
:1037A0001197138302838091710790917207A09102
:1037B0007307B091740784839583A683B7830E94AF
:1037C000EB988DB79EB708960FB6F8949EBF0FBEC4
:1037D0008DBFCE010E947699181619063CF680E03E
:1037E000DF91CF911F910F9108950F931F93CF9366
:1037F000DF93062F142F00D000D000D0EDB7FEB716
:103800003196C0E6D4E0ADB7BEB71296DC93CE9346
:1038100011972CED38E033832283848315820E9434
:10382000EB98EDB7FEB736960FB6F894FEBF0FBE15
:10383000EDBFE02FF0E0EE0FFF1FE65FFC4F608171
:103840007181CE010E94FEA700D000D0ADB7BEB7F7
:103850001296DC93CE93119780ED98E014969C938A
:103860008E9313970E94EB980F900F900F900F90EC
:10387000112359F000D000D0EDB7FEB7D283C18339
:103880008CEC98E0948383830EC000D000D0ADB759
:10389000BEB71296DC93CE93119787EC98E01496FE
:1038A0009C938E9313970E94EB980F900F900F901C
:1038B0000F90DF91CF911F910F910895CF93DF93D8
:1038C000C0E0D0E080E694E060E072E00E94FEA7F5
:1038D0002196C832D105B1F780E694E062E072E04B
:1038E0000E94D1A8DF91CF910895CF93DF93EC018F
:1038F00007C0219780E694E062E072E00E94D1A8C0
:103900001C161D06B4F3DF91CF91089500D000D0AE
:1039100080E694E0EDB7FEB7928381838EE296E075
:10392000948383830E94EB980F900F900F900F90D9
:103930000E945E1C0E94C5110E94F71182E090E077
:103940000E94751C08950E94F7110E94861C80E059
:10395000089500D000D000D0EDB7FEB7319680E6D4
:1039600094E0ADB7BEB712969C938E93119781EEFB
:1039700097E093838283809181079091820795835A
:1039800084830E94EB988DB79EB706960FB6F89485
:103990009EBF0FBE8DBF0E945E1C82E090E00E9421
:1039A000751C089500D000D080E694E0EDB7FEB716
:1039B0009283818380EF97E0948383830E94EB98C6
:1039C0000F900F900F900F900E945E1C0E943D126E
:1039D00082E090E00E94751C08950F931F9300D021
:1039E00000D000E614E0EDB7FEB71283018385E650
:1039F00098E0948383830E94EB980F900F900F9030
:103A00000F900E945E1C00D000D0EDB7FEB712836D
:103A1000018389E598E0948383830E94EB980F905B
:103A20000F900F900F9082E090E00E94751C1F9104
:103A30000F91089500D000D080E694E0EDB7FEB776
:103A40009283818385E998E0948383830E94EB9835
:103A50000F900F900F900F900E945E1C8091E808CD
:103A6000882311F40E9411138091E808813091F4A9
:103A700000D000D080E694E0EDB7FEB7928381835A
:103A80008DE898E0948383830E94EB980F900F90C9
:103A90000F900F908091E808823091F400D000D010
:103AA00080E694E0EDB7FEB79283818385E898E0E5
:103AB000948383830E94EB980F900F900F900F9048
:103AC0008091E808833091F400D000D080E694E043
:103AD000EDB7FEB7928381838AE798E0948383836E
:103AE0000E94EB980F900F900F900F908091E80834
:103AF000843091F400D000D080E694E0EDB7FEB7BA
:103B0000928381838CE698E0948383830E94EB9870
:103B10000F900F900F900F9082E090E00E94751C24
:103B200008950F931F93CF93DF9300D000D080E6CA
:103B300094E0EDB7FEB79283818389EB98E094839C
:103B400083830E94EB980F900F900F900F900E942C
:103B50005E1C0EE618E0C0E0D0E04091B6085527A4
:103B600047FD50950C2E02C0559547950A94E2F7F3
:103B7000417050708C2FF80160810E94F51B2196D6
:103B8000045F1F4FC630D10541F782E090E00E94EC
:103B9000751CDF91CF911F910F910895CF93DF9303
:103BA00000D000D0C0E6D4E0ADB7BEB71296DC932B
:103BB000CE93119785EE99E014969C938E9313976C
:103BC0000E94EB980F900F900F900F900E945E1C38
:103BD0008091220B0E9411138091220B882301F106
:103BE00000D000D000D0EDB7FEB73196ADB7BEB76C
:103BF0001296DC93CE9311978CED99E09383828398
:103C000080912E0B90912F0B958384830E94EB98CB
:103C1000EDB7FEB736960FB6F894FEBF0FBEEDBFF8
:103C200082E090E00E94751CDF91CF910895CF93C0
:103C3000DF9300D000D0C0E6D4E0ADB7BEB7129697
:103C4000DC93CE93119783E79CE014969C938E931C
:103C500013970E94EB980F900F900F900F900E9477
:103C60005E1C20911909222321F480E00E94111387
:103C700020C000D000D000D0EDB7FEB73196ADB770
:103C8000BEB71296DC93CE9311978EE69CE0938399
:103C90008283822F992787FD9095958384830E9444
:103CA000EB98EDB7FEB736960FB6F894FEBF0FBE91
:103CB000EDBF82E090E00E94751CDF91CF910895E6
:103CC00000D000D080E694E0EDB7FEB79283818308
:103CD00084EA95E1948383830E94EB980F900F9080
:103CE0000F900F900E945E1C8091BE130E941113D2
:103CF00082E090E00E94751C0895A0E3B0E0E3E844
:103D0000FEE10C9494AFDE011196E7ECF4E084E25E
:103D100001900D928150E1F729803A804B805C80C0
:103D20006D847E848F849888A98CBA8CCB8CDC8C33
:103D300089A19AA1ABA1BCA189A79AA7ABA7BCA74F
:103D40008D8D9E8DAF8DB8A18DA39EA3AFA3B8A777
:103D5000C201B101A20191010E945EAE7B018C0102
:103D6000C401B301A40193010E945EAE9B01AC01AA
:103D7000C801B7010E948EAB0E94CBAE6DA77EA793
:103D80008FA798ABD601C501B0588093E1119093ED
:103D9000E211A093E311B093E411C601B501A601AD
:103DA00095010E945EAE9B01AC0160E070E080E88E
:103DB0009FE30E948DAB0E94CBAE7B018C01609390
:103DC000D6027093D7028093D8029093D90269A546
:103DD0007AA58BA59CA5A80197010E945BAC609376
:103DE000DA027093DB028093DC029093DD026DA116
:103DF0007EA18FA198A5A80197010E945BAC60935A
:103E0000E5117093E6118093E7119093E811C401D6
:103E1000B3012DA53EA54FA558A90E945BAC6093A8
:103E2000DE027093DF028093E0029093E102C20110
:103E3000B1012DA53EA54FA558A90E945BAC60938A
:103E4000E9117093EA118093EB119093EC11E096D5
:103E5000E2E10C94B0AFA0E3B0E0E1E3FFE10C9449
:103E60009CAF0E94861C0E94861C0E945F1168EE17
:103E700073E080E090E00E942AAA0E94F6A9609375
:103E8000DC117093DD118093DE119093DF11EFE16F
:103E9000AE2EE6E0BE2E7E010894E11CF11C70E619
:103EA000C72E74E0D72E8E01035F1F4F0E94F6A924
:103EB0002091DC113091DD114091DE115091DF1124
:103EC000621B730B840B950B6530710581059105A1
:103ED00008F476C0D701EBEEF4E08CE001900D928F
:103EE0008150E1F7A5E9B1E1F7018CE001900D9275
:103EF0008150E1F78091E0118F5F8093E011843071
:103F000011F40E947D1E8091E011843109F058C0A7
:103F10001092E0118DB79EB740970FB6F8949EBFF0
:103F20000FBE8DBFEDB7FEB73196ADB7BEB71296D7
:103F3000DC92CE921197B382A2828091AC049091D0
:103F4000AD04A091AE04B091AF0484839583A683A1
:103F5000B7838091B0049091B104A091B204B09164
:103F6000B30480879187A287B3878091B40490912E
:103F7000B504A091B604B091B70484879587A6874D
:103F8000B7870E94EB988DB79EB740960FB6F8940E
:103F90009EBF0FBE8DBF80910109882389F08DE3FC
:103FA00095E00E94B38ED801E7ECF4E084E2019042
:103FB0000D928150E1F78DE395E0B8010E940C8FDE
:103FC00080E694E00E947699181619060CF06ECFE0
:103FD00080E0E096EAE00C94B8AFAF92BF92CF9247
:103FE000DF92EF92FF920F931F937C018B01FB01F5
:103FF0006781708581859285F701278130854185AC
:104000005285621B730B840B950B0E94F6AC5B010F
:104010006C01F8016385748585859685F701238594
:10402000348545855685621B730B840B950B0E9466
:10403000F6AC2091E5023091E6024091E702509102
:10404000E8020E945EAE7B018C01C601B501A601AB
:1040500095010E945EAE5B016C01C801B701A80129
:1040600097010E945EAE9B01AC01C601B5010E94A2
:104070008EAB0E94CBAE28EC32E646E35CE30E94B6
:104080005EAE0E94C3AC9B01AC01CA011F910F91AF
:10409000FF90EF90DF90CF90BF90AF900895A0E099
:1040A000B0E0E5E5F0E20C949EAF0E945F1168EE8F
:1040B00073E080E090E00E942AAAAAE7CA2EA6E058
:1040C000DA2EF0E6EF2EF4E0FF2E6DE471E080E0F2
:1040D00090E00E942AAA0E94BB108091ED1190915D
:1040E000EE110E94EE94C091ED11D091EE118FA1CE
:1040F000882309F445C08DB79EB742970FB6F89450
:104100009EBF0FBE8DBF0DB71EB70F5F1F4FEDB720
:10411000FEB7F282E182F801D382C2828C859D854E
:10412000AE85BF8584839583A683B7838889998963
:10413000AA89BB8980879187A287B3876C897D898B
:104140008E899F8924E630E040E050E00E9479AFFC
:10415000F80124873587468757878EA1808B118A7F
:104160000E94EB98E091ED11F091EE1117A28DB73E
:104170009EB742960FB6F8949EBF0FBE8DBF06C085
:1041800080E694E063E072E00E94FEA780E694E09F
:104190000E947699181619060CF097CF80E0CDB7DB
:1041A000DEB7E8E00C94BAAF00D000D080E694E02F
:1041B000EDB7FEB79283818387E097E09483838392
:1041C0000E94EB980F900F900F900F9088EA91E16A
:1041D0000E945D8D80E008958DEB91E10E945D8DE0
:1041E00080E00895CF93DF9300D000D0C0E6D4E004
:1041F000EDB7FEB7D283C18383ED97E094838383C9
:104200000E94EB980F900F900F900F9080915C0B95
:1042100090915D0B8451954064F168EE73E080E00D
:1042200090E00E942AAA00D000D0EDB7FEB7D2835A
:10423000C1838AEA97E0948383830E94EB980F906E
:104240000F900F900F9068EE73E080E090E00E9476
:104250002AAA00D000D0EDB7FEB7D283C18387E889
:1042600097E0948383830E94EB980F900F900F90B8
:104270000F908FEA91E10E945D8D80E0DF91CF91F8
:10428000089581EA91E10E945D8D80E0089581EDBD
:1042900098E00E94178600D000D080E694E0EDB749
:1042A000FEB79283818382EB98E0948383830E949C
:1042B000EB980F900F900F900F900E945E1C8091D2
:1042C000DC080E94111382E090E00E94751C0895A2
:1042D000A0E0B0E0EEE6F1E20C949EAF00D000D09A
:1042E00010E6E12E14E0F12EADB7BEB71296FC92A7
:1042F000EE92119786E199E014969C938E93139712
:104300000E94EB980F900F900F900F900E945E1CF0
:10431000809101090E941113BDE3CB2EB5E0DB2E85
:10432000C6010E94D88ECDB7DEB728970FB6F89495
:10433000DEBF0FBECDBF0DB71EB70F5F1F4FFA8296
:10434000E98226E039E0F8013383228321EE3EE260
:1043500045E652E40E945EAED80114966D937D93BB
:104360008D939C9317970E94EB98CDB7DEB7289654
:104370000FB6F894DEBF0FBECDBFC6010E94D38E2C
:104380009C01EDB7FEB770970FB6F894FEBF0FBE55
:10439000EDBF3196ADB7BEB71296FC92EE92119773
:1043A00085EE98E093838283E90188819981AA81CF
:1043B000BB8184839583A683B7838C819D81AE81E5
:1043C000BF8180879187A287B38788859985AA85D1
:1043D000BB8584879587A687B7870E94EB98EDB742
:1043E000FEB770960FB6F894FEBF0FBEEDBF82E029
:1043F00090E00E94751CCDB7DEB7E8E00C94BAAF30
:10440000AF92BF92CF92DF92EF92FF920F931F93E2
:1044100000D000D000E614E0ADB7BEB712961C93F2
:104420000E93119786ED99E014969C938E931397B3
:104430000E94EB980F900F900F900F900E945E1CBF
:1044400000D000D0EDB7FEB7128301838BEB99E06B
:10445000948383830E94EB98E090BA0AF090BB0AA1
:10446000C0907F09D0908009A0909909B0909A09D6
:104470000F900F900F900F908FE599E00E9414A37A
:104480002DB73EB72C5030400FB6F8943EBF0FBE4C
:104490002DBFEDB7FEB73196ADB7BEB712961C93E0
:1044A0000E93119728EA39E033832283F582E48260
:1044B000D782C682B186A086828713860E94EB9837
:1044C000E090C70AF090C80AC090D309D090D409F0
:1044D000A090ED09B090EE09EDB7FEB73C960FB68F
:1044E000F894FEBF0FBEEDBF83EB99E00E9414A3CA
:1044F0002DB73EB72C5030400FB6F8943EBF0FBEDC
:104500002DBFEDB7FEB73196ADB7BEB712961C936F
:104510000E93119725E939E033832283F582E482F3
:10452000D782C682B186A086828713860E94EB98C6
:10453000E090D40AF090D50AC090270AD090280ABB
:10454000A090410AB090420AEDB7FEB73C960FB674
:10455000F894FEBF0FBEEDBF87E09AE00E9414A35F
:104560002DB73EB72C5030400FB6F8943EBF0FBE6B
:104570002DBFEDB7FEB73196ADB7BEB712961C93FF
:104580000E93119722E839E033832283F582E48287
:10459000D782C682B186A086828713860E94EB9856
:1045A000E0907B0AF0907C0AC090950AD090960A21
:1045B000EDB7FEB73C960FB6F894FEBF0FBEEDBF49
:1045C0008BE59AE00E9414A32DB73EB72A503040E5
:1045D0000FB6F8943EBF0FBE2DBFEDB7FEB73196B4
:1045E000ADB7BEB712961C930E9311972FE639E024
:1045F00033832283F582E482D782C6828087118644
:104600000E94EB980F900F900F900F90EDB7FEB7B0
:104610003196ADB7BEB712961C930E93119780E6F4
:1046200099E0938382838091E10A9091E20A9583D5
:1046300084830E94EB98EDB7FEB73196ADB7BEB755
:1046400012961C930E93119780E599E093838283D1
:104650008091EE0A9091EF0A958384830E94EB98F3
:1046600000D000D0EDB7FEB73196ADB7BEB7129609
:104670001C930E93119782E399E093838283809138
:10468000FB0A9091FC0A958384838091150B90918D
:10469000160B978386838091080B9091090B918765
:1046A00080870E94EB9860913B0BEDB7FEB73A967E
:1046B0000FB6F894FEBF0FBEEDBF62301CF42AEFB8
:1046C00030E008C0772767FD70958AEF90E00E9480
:1046D00044AF9B0100D000D000D0EDB7FEB73196BB
:1046E00080E694E0ADB7BEB712969C938E93119777
:1046F0008FE199E093838283358324830E94EB9832
:10470000EDB7FEB736960FB6F894FEBF0FBEEDBFFD
:1047100082E090E00E94751C1F910F91FF90EF9036
:10472000DF90CF90BF90AF900895FF920F931F93AB
:10473000F82E8B0188E090E00E94751C0E94A91C55
:104740000E94D21C0E94ED1C0E941A1D0E9447214B
:104750000E94911D0E94861C0E9468210E940022D6
:104760000E94CE1D8F2DB8010E94368C80E01F91D3
:104770000F91FF900895A2E0B0E0E1ECF3E20C9419
:1047800094AF3A8329832091E10A3091E20AEE271F
:10479000FF27E21BF30B8E179F072CF0FC01281755
:1047A00039070CF4F9018091EE0A9091EF0ACC24BC
:1047B000DD24C81AD90A6C157D052CF06B0186170B
:1047C00097070CF46C014090FB0A5090FC0A4415CA
:1047D00055054CF08091080B9091090B2A01841724
:1047E00095070CF42C01BF01882777FD8095982F41
:1047F0000E94F6AC3B014C01B601882777FD8095FD
:10480000982F0E94F6AC5B016C01B201882777FDFE
:104810008095982F0E94F6AC1B012C01C401B301B6
:104820002091FE113091FF11409100125091011220
:104830000E945EAE7B018C01C601B5012091F21190
:104840003091F3114091F4115091F5110E945EAE38
:104850009B01AC01C801B7010E948EAB20E030E0A3
:1048600040E251E40E945BACA20191010E948EAB38
:104870007B018C0160918C0970918D096C5D754094
:10488000882777FD8095982F0E94F6AC9B01AC019C
:10489000C801B7010E948EAB0E94C3AC70936F0930
:1048A00060936E098FE599E00E9414A3882361F05C
:1048B00088EB9BE020916E0930916F09821B930B6E
:1048C00090936F0980936E09C401B3012091021285
:1048D0003091031240910412509105120E945EAE75
:1048E0007B018C01C601B5012091F6113091F711C1
:1048F0004091F8115091F9110E945EAE9B01AC01FC
:10490000C801B7010E948EAB20E030E040E251E4E4
:104910000E945BACA20191010E948EAB7B018C01D5
:104920006091E0097091E1096C5D7540882777FD21
:104930008095982F0E94F6AC9B01AC01C801B7018D
:104940000E948EAB0E94C3AC7093C3096093C209EE
:1049500083EB99E00E9414A3882361F088EB9BE02D
:104960002091C2093091C309821B930B9093C30914
:104970008093C209C401B30120910612309107123D
:1049800040910812509109120E945EAE7B018C0189
:10499000C601B5012091FA113091FB114091FC1133
:1049A0005091FD110E945EAE9B01AC01C801B701A0
:1049B0000E948EAB20E030E040E251E40E945BAC0C
:1049C000A20191010E948EAB7B018C016091340A9F
:1049D0007091350A6C5D7540882777FD8095982F1A
:1049E0000E94F6AC9B01AC01C801B7010E948EABDE
:1049F0000E94C3AC7093170A6093160A87E09AE08E
:104A00000E9414A3882361F088EB9BE02091160A92
:104A10003091170A821B930B9093170A8093160A02
:104A20008BE59AE00E9414A3882331F089819A8152
:104A3000909581959F4F02C089819A8190936B0ACE
:104A400080936A0A8FE599E00E9431A583EB99E093
:104A50000E9431A587E09AE00E9431A58BE59AE09B
:104A60000E9431A580916E0990916F09AC01662773
:104A700057FD6095762F80910A1290910B12A091AC
:104A80000C12B0910D12480F591F6A1F7B1F4093E3
:104A90000A1250930B1260930C1270930D128091B6
:104AA000C2099091C3091C01442437FC4094542C42
:104AB00080910E1290910F12A0911012B0911112CC
:104AC000280E391E4A1E5B1E20920E1230920F12C3
:104AD00040921012509211128091160A9091170A6A
:104AE0003C01882477FC8094982C8091121290913C
:104AF0001312A0911412B0911512680E791E8A1E1D
:104B00009B1E609212127092131280921412909255
:104B1000151280916E0A90916F0A5C01CC24B7FC4B
:104B2000C094DC2C8091161290911712A09118124B
:104B3000B0911912A80EB91ECA1EDB1EA092161241
:104B4000B0921712C0921812D092191280911A12B4
:104B500090911B12019690931B1280931A12E09170
:104B60003B0B2E2F332727FD3095821793070CF42C
:104B700095C0E230F4F1EE2EFF24E7FCF0940F2D07
:104B80001F2DCB01BA01A80197010E9479AF209394
:104B90000A1230930B1240930C1250930D12C20163
:104BA000B101A80197010E9479AF20930E123093B2
:104BB0000F124093101250931112C401B301A801B7
:104BC00097010E9479AF20931212309313124093F1
:104BD000141250931512C601B501A80197010E9445
:104BE00079AF2093161230931712409318125093F6
:104BF000191240910A1250910B1284EF93E160E078
:104C00000E94DC8040910E1250910F1284EF93E1CC
:104C100061E00E94DC80409112125091131284EFE7
:104C200093E162E00E94DC804091161250911712CD
:104C300084EF93E163E00E94DC808091220B882363
:104C400049F040912E0B50912F0B84EF93E166E0D9
:104C50000E94DC8010921B1210921A1210920A12FB
:104C600010920B1210920C1210920D1210920E1242
:104C700010920F1210921012109211121092121222
:104C80001092131210921412109215121092161202
:104C90001092171210921812109219122296E2E135
:104CA0000C94B0AF8CE39BE00E9431A580E99BE0BF
:104CB0000E9431A584EE9BE00E9431A588E39CE030
:104CC0000E9431A58091F0119091F111892B89F00A
:104CD00060919D0B70919E0B4091EF0B5091F00BEA
:104CE0002091450C3091460C8091490B90914A0BD4
:104CF00010C060919F0B7091A00B4091F70B5091E9
:104D0000F80B2091470C3091480C80914B0B9091FF
:104D10004C0B0E94BB2308950F931F9380E090E0FB
:104D200060E070E04CED55E020E030E00E94BB23F5
:104D300004EF13E14091040C5091050CC80166E0AA
:104D40000E94DC804091040C5091050CC80167E082
:104D50000E94DC801F910F910895FB018485809350
:104D600019098EE099E00E94C0860E94171E80E01B
:104D7000089500D000D080E694E0EDB7FEB79283AE
:104D8000818382E29DE0948383830E94EB9881E09B
:104D900080930D090F900F900F900F9082E099E093
:104DA0000E94C08664E170E080E090E00E942AAA40
:104DB00080E694E00E947699181619069CF71092E6
:104DC0000D0982E099E00E94C08680E0089564E1C8
:104DD00070E080E090E00E942AAA0E94231680E6FC
:104DE00094E00E947699181619068CF710920D0916
:104DF00082E099E00E94C08680E00895FF920F93C0
:104E00001F93CF93DF9300D000D080E694E0EDB7FE
:104E1000FEB79283818387EC9CE0948383830E9416
:104E2000EB980F900F900F900F900E945F11FF244E
:104E300000E0C1E0D0E064E170E080E090E00E943A
:104E40002AAA0E9423160E940310182FF81609F1AF
:104E500090E0FC01EE0FFF1FE80FF91FEE0FFF1FA0
:104E6000EE0FFF1FED59F74F0385093008F008E0FA
:104E70004091B608552747FD5095012E02C0559523
:104E800047950A94E2F741705070812F602F0E947D
:104E9000F51B8091490B90914A0B97FF03C09095A9
:104EA00081959F4F895B9B404CF10F5F093009F45E
:104EB00000E0812F90E0FC01EE0FFF1FE80FF91FCB
:104EC000EE0FFF1FEE0FFF1FED59F74F03874091C5
:104ED000B608552747FD5095012E02C055954795B8
:104EE0000A94E2F741705070812F602F0E94F51BE9
:104EF00064EF71E080E090E00E942AAA8091450C66
:104F00009091460C895B9B400CF1CE01012E02C0B2
:104F1000880F991F0A94E2F74091B608482B4093F6
:104F2000B608552747FD5095012E02C05595479567
:104F30000A94E2F741705070812F602F0E94F51B98
:104F400064EF71E080E090E00E942AAA8091450C15
:104F50009091460C8854944F1CF5CE01012E02C04E
:104F6000880F991F0A94E2F780952091B608822352
:104F70008093B608482F552747FD5095012E02C053
:104F8000559547950A94E2F741705070812F602F34
:104F90000E94F51B64EF71E080E090E00E942AAA75
:104FA00080E694E00E947699F12E181619060CF00E
:104FB00042CFC3E6D8E0CE010E94C0862C96F8E02E
:104FC000CB3ADF07C1F7CE010E94C0860E943B1397
:104FD0000E94911D80E0CDB7DEB7E5E00C94BDAF37
:104FE000A0E0B0E0E6EFF7E20C949FAFD82EEB0123
:104FF0005AE0E52EF12CE60EF71E0A851B85C80146
:1050000062E17AE00E9456B1892B31F581E080930C
:10501000220B87E19BE00E94C08621E02D1508F05D
:105020005AC06E897F89888D998D683EE3E07E073E
:10503000E0E08E07E0E09E070CF44DC0613DF7E034
:105040007F07F0E08F07F0E09F070CF044C07093FB
:105050002F0B60932E0B2AC0C8016EE07AE00E94ED
:1050600056B1892B39F41092220B87E19BE00E9404
:10507000C08631C0F70182819381A481B581885EA9
:105080009340A040B040895E9340A040B04088F477
:1050900081E08093220B87E19BE00E94C086F701AC
:1050A0008281938190932F0B80932E0B83E29BE060
:1050B000DECF00D000D080E694E0EDB7FEB792835B
:1050C000818385EF99E0948383830E94EB980F900E
:1050D0000F900F900F900E94CE1D80E0CDB7DEB7ED
:1050E000E7E00C94BBAFCF93DF93FB01C285D38580
:1050F000CE016DEA7CE00E9456B1892B21F481E05B
:105100008093DC0809C0CE0169EA7CE00E9456B1B8
:10511000892B39F41092DC0881ED98E00E94C0865A
:1051200012C000D000D080E694E0EDB7FEB79283C5
:10513000818385E99CE0948383830E94EB980F90A0
:105140000F900F900F900E94472180E0DF91CF9148
:105150000895CF93DF93FB01EB012A968285938517
:1051600063EC7CE00E9456B1892B19F41092E80898
:105170000FC02A813B814C815D81DA01C901019711
:10518000A109B1090497A105B10538F42093E808F5
:105190008DED98E00E94C08612C000D000D080E65D
:1051A00094E0EDB7FEB79283818380EB9CE094831B
:1051B00083830E94EB980F900F900F900F900E94A6
:1051C0001A1D80E0DF91CF910895CF93DF93FB010B
:1051D000C285D385CE016EEF7DE00E9456B1892B4A
:1051E00011F481E019C0CE016CEF7DE00E9456B150
:1051F000892B39F0CE016AEF7DE00E9456B1892BF0
:1052000019F4109225090AC0CE0168EF7DE00E94D2
:1052100056B1892B41F482E0809325098AE199E017
:105220000E94C08612C000D000D080E694E0EDB7A6
:10523000FEB79283818386EE9DE0948383830E94F0
:10524000EB980F900F900F900F900E94ED1C80E054
:10525000DF91CF910895A5E0B0E0E1E3F9E20C948D
:10526000A0AF19821A821B821C821D8200E010E00E
:105270007E010894E11CF11C80E694E00E9476997E
:10528000892B51F46AE070E080E090E00E942AAA45
:105290001F5F153058F00CC080E694E00E94A6997C
:1052A000F701E00FF11D80830F5F10E0053020F360
:1052B000CE0101960E94EEB02596E6E00C94BCAFBC
:1052C000A6E0B0E0E6E6F9E20C9496AF8FE599E04F
:1052D00060E070E048EE53E00E94E9A283EB99E0C1
:1052E00060E070E048EE53E00E94E9A287E09AE0B7
:1052F00060E070E048EE53E00E94E9A28BE59AE09E
:1053000064E971E10E94F3A2E090BA0AF090BB0A4E
:10531000B701882777FD8095982F0E94F6AC25E38A
:105320003AEF4EE85CE30E945EAE0E9458AC609398
:10533000F2117093F3118093F4119093F511A090F2
:10534000C70AB090C80AB501882777FD8095982FC5
:105350000E94F6AC25E33AEF4EE85CE30E945EAEB5
:105360000E9458AC6093F6117093F7118093F81176
:105370009093F9116090D40A7090D50AB3018827F0
:1053800077FD8095982F0E94F6AC25E33AEF4EE822
:105390005CE30E945EAE0E9458AC6093FA11709379
:1053A000FB118093FC119093FD118AE590E0E80ECB
:1053B000F91E0027F7FC0095102FC801B7010E94C5
:1053C000F6AC25E33AEF4EE85CE30E945EAE0E9445
:1053D00058AC6093FE117093FF118093001290936C
:1053E0000112EAE5F0E0AE0EBF1ECC24B7FCC0947B
:1053F000DC2CC601B5010E94F6AC25E33AEF4EE87D
:105400005CE30E945EAE0E9458AC609302127093FF
:10541000031280930412909305128AE590E0680EBF
:10542000791E882477FC8094982CC401B3010E94D3
:10543000F6AC25E33AEF4EE85CE30E945EAE0E94D4
:1054400058AC6093061270930712809308129093E1
:1054500009126091E10A7091E20A882777FD809530
:10546000982F0E94F6AC2B013C016091EE0A7091DE
:10547000EF0A882777FD8095982F0E94F6AC4B01A4
:105480005C016E010894C11CD11CEE24FF24F701BD
:10549000E250FE4EC301B20120813181428153812D
:1054A0000E945EAE0E94C3AC8B0177FF03C01095D3
:1054B00001951F4FF701EE50FE4EC501B40120814A
:1054C0003181428153810E945EAE0E94C3ACCB0108
:1054D00077FF03C0909581959F4F801791070CF43B
:1054E000C80164E670E00E9444AFF60160837183F6
:1054F00084E090E0E80EF91EE2E0F0E0CE0EDF1E60
:10550000FCE0EF16F10419F629813A816091FB0A5B
:105510007091FC0ACB01821B930B909380098093BE
:105520007F094091080B5091090B240F351F3093D0
:105530009A09209399098B819C819B01281B390B27
:105540003093D4092093D309840F951F9093EE09CB
:105550008093ED098D819E81681B790B7093280AD9
:105560006093270A480F591F5093420A4093410AFB
:1055700010920A1210920B1210920C1210920D122D
:1055800010920E1210920F1210921012109211120D
:1055900010921212109213121092141210921512ED
:1055A00010921612109217121092181210921912CD
:1055B00080913B0B87FF06C010923B0B80E39BE082
:1055C0000E94C0862696E0E10C94B2AFA7E0B0E05E
:1055D000ECEEFAE20C9494AF0E94602981E090E036
:1055E0009093F1118093F0110E94002200D000D01E
:1055F00000E614E0ADB7BEB712961C930E93119758
:1056000080E69CE014969C938E9313970E94EB98EF
:105610000F900F900F900F900E945E1C00D000D052
:10562000EDB7FEB7128301838AE49CE09483838301
:105630000E94EB98ADB7BEB712961C930E931197CC
:1056400086E39CE014969C938E9313970E94EB98AC
:10565000EDB7FEB7128301838BE19CE094838383D3
:105660000E94EB98ADB7BEB712961C930E9311979C
:1056700087EF9BE014969C938E9313970E94EB9870
:10568000EDB7FEB71283018384ED9BE0948383839F
:105690000E94EB98ADB7BEB712961C930E9311976C
:1056A00082EA9BE014969C938E9313970E94EB984A
:1056B000EDB7FEB7128301838FE89BE09483838369
:1056C0000E94EB98ADB7BEB712961C930E9311973C
:1056D0008EE59BE014969C938E9313970E94EB9813
:1056E000EDB7FEB7128301838DE39BE09483838340
:1056F0000E94EB98ADB7BEB712961C930E9311970C
:105700008CE29BE014969C938E9313970E94EB98E7
:105710005524CC24DD241E821D820F900F900F9003
:105720000F900F83412E0E942316ED81FE81319749
:10573000B9F58091490B90914A0B97FF03C0909562
:1057400081959F4F681679060CF43C0180919D0B62
:1057500090919E0B97FF03C0909581959F4F88165F
:1057600099060CF44C018091EF0B9091F00B2B817A
:105770003C818217930714F49C838B83A981BA819F
:10578000A817B90714F49A838983A090430CB090AA
:10579000440CA214B3040CF415010A151B050CF0FB
:1057A000580180E694E00E947699892B09F4AFC2F3
:1057B00080E694E00E94A6996C018435910509F475
:1057C000ECC185359105C4F58134910509F489C092
:1057D00082349105C4F48233910509F476C0833391
:1057E000910534F481E3C816D10409F090C26AC06F
:1057F00093E3C916D10409F46CC0A4E3CA16D1041A
:1058000009F085C26AC08D34910509F4A0C08E34B8
:1058100091054CF48334910509F46CC084349105EE
:1058200009F075C291C08035910509F469C18235CE
:10583000910509F06CC2A4C18DE6C816D10409F423
:1058400086C09EE6C916D104F4F4A1E6CA16D104B6
:1058500009F447C0B2E6CB16D1045CF4E5E5CE16F8
:10586000D10409F4E3C1FAE5CF16D10409F04FC21F
:1058700044C223E6C216D104E9F134E6C316D104CA
:1058800009F045C261C044E7C416D10409F485C1DA
:1058900085E7C816D1045CF490E7C916D10409F471
:1058A0002FC1A2E7CA16D10409F031C269C1B5E718
:1058B000CB16D10409F4BAC1EAE7CE16D10409F037
:1058C00026C21BC28501552423C285015524539449
:1058D0001FC2850172E0572E1BC2850163E0562E60
:1058E00017C2852D90E00E942E10FC0185A596A57B
:1058F0000A960BC22091EF0B3091F00BC90184582E
:105900009340815B944008F002C23093160B2093C1
:10591000150B00D000D000D0EDB7FEB731964F8107
:10592000ADB7BEB711964C93119712964C9283E087
:105930009BE093838283358324830E94EB988501C7
:10594000ADB7BEB716966CC10E940022E0C1ED81D2
:10595000FE81EF2B09F058C000D000D0EF81ADB729
:10596000BEB71196EC93119712964C92129721ECB8
:105970003AE014963C932E9313970E94EB9884E997
:1059800091E19093EF0A8093EE0AA8EEB3E0B09312
:10599000FC0AA093FB0AE0EDF7E0F093090BE0931B
:1059A000080BB0937C0AA0937B0AF093960AE093CD
:1059B000950A6090490B70904A0B77FE04C0709472
:1059C00061947108739480909D0B90909E0B97FE4C
:1059D00004C090948194910893940091430C109189
:1059E000440C17FF03C0109501951F4F180121E0CB
:1059F00030E03E832D8380ED97E09C838B83A8EE7F
:105A0000B3E0BA83A98374C1B9EE6B16B3E07B0629
:105A1000F4F0E9EE8E16E3E09E06CCF089819A81DF
:105A20002B813C81821B930B883C910584F0C5013E
:105A300082199309883C910554F038EE231633E01F
:105A400033062CF041EDA41647E0B406ACF18DB757
:105A50009EB740970FB6F8949EBF0FBE8DBFEDB7AF
:105A6000FEB731962F81ADB7BEB711962C93119723
:105A700012964C9282E69AE09383828375826482C6
:105A800097828682AB81BC81B187A08729813A81C8
:105A90003387228735862486B786A6860E94EB98B0
:105AA00085011E821D828DB79EB740960FB6F89471
:105AB0009EBF0FBE8DBF2CC17092E20A6092E10AB8
:105AC0009092EF0A8092EE0AAB81BC81B093FC0AFF
:105AD000A093FB0AE981FA81F093090BE093080B8C
