:100000000C949D0B0C94C70B0C94C70B0C94C70B52
:100010000C94C70B0C94C70B0C94C70B0C94C70B18
:100020000C94C70B0C94C70B0C94C70B0C94C70B08
:100030000C94C70B0C94C70B0C94C70B0C949682B2
:100040000C94C70B0C94C70B0C94C70B0C94C70BE8
:100050000C94C70B0C94C70B0C94C70B0C9427D6AD
:100060000C94C70B0C94690D0C94A90D0C94C70B40
:100070000C94C70B0C94C70B0C94C70B0C94C70BB8
:100080000C94C70B0C94C70B0C94C70B0C94C70BA8
:100090000C94FB0D0C943B0E0C94C70B0C949DD24E
:1000A0000C94C70B0C9431800C94C70B0C94C70BA9
:1000B0000C94C70B0C94C70B0C94C70B0C94C70B78
:1000C0000C94C70B0C94C70B0C94C70B0C94C70B68
:1000D0000C94C70B0C94C70B0C948D0E0C94CD0E86
:1000E0000C94C70BC01BE11B581C161C371C711C41
:1000F0008A1CA31CBC1CDA1CEB1C2E314F31313185
:10010000343137313A313D31403143314631493173
:100110004C312B54255434544954855471549C54B7
:100120005D543F556B55745577557A55BD5D7D557A
:10013000BD5DBD5DBD5D805583558655A655A455F5
:10014000A455A455B255A455A855A455A455B555C4
:10015000C455B755BA55A455A455A455BD55A45575
:10016000A455A455A455A455C455A455C655A88056
:10017000AD80B280B780BC80C180C680CB80D0808B
:10018000D580DA802DB828B831B835B843B85CB816
:1001900086B897B8D6B9D1B9DAB9E3B90ABA16BAF6
:1001A00030BA51BA58BAD2CBD2CBF6CB65CC3ACC16
:1001B00080CC9BCCC8CC06CD4DCD64D767D75AD761
:1001C0005ED7A0D76BD76FD775D779D77DD783D7B1
:1001D00087D78BD791D795D79BD7036EDB363D9AC0
:1001E0009999993DABAAAA2A3E000000803F084A8F
:1001F000D73B3BCE016E84BCBFFDC12F3D6C74313B
:100200009ABD56833DDA3D00C77F11BED9E4BB4C91
:100210003E916BAAAABE000000803F072C7AA5BAC7
:100220006CC590DA3B9365FC8BBC53F810FD3C56D3
:1002300092834DBD879D3AB63DCBC9BF5BBE73DA95
:100240000FC93F05A84CCDB2D44EB93836A9020C1F
:1002500050B9918688083CA6AAAA2ABE0000008050
:100260003F08000000BE922449123EABAAAA2ABE53
:10027000CDCCCC4C3E00000080BEABAAAAAA3E006A
:10028000000000BF000000803F00000000000841A7
:1002900078D3BB4387D1133D190E3CC3BD4282AD19
:1002A0002B3E68EC8276BED98FE1A93E4C80EFFFF1
:1002B000BE01C4FF7F3F00000000004C6F67006478
:1002C000756D7000000000000000000000623165E4
:1002D00072617365000000000000000000A2296543
:1002E0006E61626C650000000000000000EF286491
:1002F000697361626C6500000000000000EF28680F
:10030000656C70000000000000000000001D13700C
:100310006C616E6E65720067637300000000000020
:1003200000000000008E5F73657475700065726177
:100330007365000000000000000000EB2872657388
:1003400065740000000000000000007A28726164FB
:10035000696F0000000000000000006627667261FF
:100360006D65000000000000000000B3266D6F7492
:100370006F72730000000000000000932465736337
:10038000000000000000000000000065246C65769D
:10039000656C0000000000000000005A276D6F64CB
:1003A0006573000000000000000000022562617417
:1003B00074657279000000000000007726736F6E8C
:1003C00061720000000000000000004126636F6DB4
:1003D0007061737300000000000000F92674756EF0
:1003E00065000000000000000000005924646563FF
:1003F0006C696E6174696F6E000000442473686FED
:100400007700000000000000000000222441726418
:1004100075436F707465722056322E302E3434203E
:1004200042657461006C6F6773000000000000009B
:100430000000006323736574757000000000000005
:1004400000000014237465737400000000000000B5
:100450000000000E2368656C7000000000000000C2
:100460000000002212706C616E6E65720000000068
:10047000000000F622746573740070776D00000050
:1004800000000000000000006C18726164696F00D9
:10049000000000000000000000186661696C7361D4
:1004A0006665000000000000630F677073000000C5
:1004B0000000000000000000712261646300000081
:1004C00000000000000000000222696D75000000BD
:1004D0000000000000000000E82062617474657292
:1004E0007900000000000000821174756E65000044
:1004F00000000000000000000C1D74726900000084
:100500000000000000000000341B63757272656E0D
:100510007400000000000000AE1A72656C61790082
:1005200000000000000000002811776179706F69F9
:100530006E747300000000005116616C746974756C
:1005400064650000000000008515736F6E61720025
:1005500000000000000000005F14636F6D706173A5
:100560007300000000000000A713786265650000BA
:100570000000000000000000CC10656564756D701F
:100580000000000000000000441372617767707380
:1005900000000000000000008D1048697420456EC6
:1005A00074657220746F20657869742E0A0A0020C1
:1005B0002530327800253034783A00426567696E1C
:1005C000205842656520582D4354552052616E676E
:1005D0006520616E64205253534920546573743A08
:1005E0000A00436F6D706173733A2000486561645F
:1005F000696E673A20256C642C2058595A3A202598
:10060000642C2025642C2025640A0061626C6564DA
:100610000A0064697300656E00536F6E61723A2060
:10062000256420636D0A00536F6E617220646973E4
:1006300061626C65640A004261726F3A20256463EE
:100640006D0A00486974207261643A2025640A00CA
:1006500025642077700A006F662025646D0A000A01
:1006600000486F6C6420616C742000636F6D6D6175
:100670006E6420233A2025642069643A2564206F43
:10068000703A25642070313A25642070323A256C26
:10069000642070333A256C642070343A256C6420F1
:1006A0000A0052656C6179206F66660A0052656CBB
:1006B0006179206F6E0A00563A2025342E34662C5C
:1006C00020413A2025342E34662C206D41683A2092
:1006D00025342E34660A00696E7075743A202564DC
:1006E000096F757470757425640A0074756E653AC7
:1006F0002025312E33660A004E6F7420656E6162CC
:100700006C65640A00256C642C20256C642C202503
:100710006C640A00494D550A004779726F206F6674
:1007200066736574733A2025342E32662C20253486
:100730002E32662C2025342E32660A004163636512
:100740006C206F6666736574733A2025342E3266AA
:100750002C2025342E32662C2025342E32660A00B9
:1007600025752C004144430A004C61743A20256CE5
:10077000642C204C6F6E20256C642C20416C743AE4
:1007800020256C646D2C2023736174733A202564DA
:100790000A00494E2020313A20256409323A2025AA
:1007A0006409333A20256409343A20256409353A2E
:1007B00020256409363A20256409373A2025640A41
:1007C00000494E3A20313A20256409323A20256406
:1007D00009333A20256409343A20256409353A2042
:1007E000256409363A20256409373A2025640938FA
:1007F0003A2025640A00506C616E6E6572204D6F60
:1008000064650A4E6F7420696E74656E6465642059
:10081000666F72206D616E75616C207573650A0A72
:1008200000436F6D6D616E64733A0A20206C6F67D0
:10083000730A202073657475700A202074657374C0
:100840000A2020706C616E6E65720A0A4D6F7665C3
:100850002074686520736C696465207377697463BC
:100860006820616E6420726573657420746F204621
:100870004C592E0A0A000A205479706520277261AB
:1008800064696F2720746F20636F6E666967757285
:1008900065206E6F772E0A0A000A215761726E6911
:1008A0006E672C20796F757220726164696F2069A0
:1008B00073206E6F7420636F6E666967757265640E
:1008C00021005365747570204D6F64650A0A0A0033
:1008D00046572056657273696F6E2025640A005270
:1008E0006164696F0A004348373A202564207C2000
:1008F00025640A004348363A202564207C2025647C
:100900000A004348353A202564207C2025640A00EB
:100910004348343A202564207C2025640A0043485B
:10092000333A202564207C2025640A004348323A6B
:10093000202564207C2025640A004348313A202584
:1009400064207C2025640A0056206D6F64650A00CF
:100950002B206D6F64650A0058206D6F64650A0076
:10096000545249206672616D650A004672616D6578
:100970000A00766F6C747320616E64206375720078
:100980006261747420766F6C747300342063656CDC
:100990006C7300332063656C6C73000A426174747D
:1009A000204D6F696E746F720A00536F6E61720A28
:1009B00000466C69676874206D6F6465730A004F48
:1009C00046460A004F4E0A002C090953696D706CA7
:1009D000653A2000506F732025643A09004D616725
:1009E000206F6666736574733A2025342E34662C46
:1009F0002025342E34662C2025342E3466004D619B
:100A000067204465633A2025342E34660A00436F1C
:100A10006D706173730A002025640A000A54554EF4
:100A2000453A0A000A4F7074696F6E733A5B6F6ED5
:100A30002C6F66665D0A006F6666006F6E000A4F77
:100A40007074696F6E733A5B6F6E2C206F66665DB3
:100A50000A006F6666006F6E000A4F7074696F6EF1
:100A6000733A206F66662C20312D34006F66660065
:100A70000A4D6F7665206D6F6465207377697463C6
:100A80006820746F20656469742C2061696C6572DC
:100A90006F6E3A2073656C656374206D6F64657367
:100AA0002C207275646465723A2053696D706C65B0
:100AB000206F6E2F6F66660A000A536176656420A8
:100AC00053657474696E67730A0A000A45534320BC
:100AD00043616C6962726174696F6E3A0A2D3120EC
:100AE000556E706C75672055534220616E642062AC
:100AF0006174746572790A2D32204D6F76652043DA
:100B00004C492F464C592073776974636820746F81
:100B100020464C59206D6F64650A2D33204D6F7649
:100B200065207468726F74746C6520746F206D61D9
:100B3000782C20636F6E6E656374206261747465D7
:100B400072790A2D342041667465722074776F20A3
:100B50006C6F6E672062656570732C207468726FAD
:100B600074746C6520746F20302C207468656E205E
:100B7000746573740A0A20507265737320456E742D
:100B8000657220746F2063616E63656C2E0A000AC3
:100B90004F7074696F6E733A5B782C2B2C765D0AFC
:100BA0000076002B00700078000A4D6F766520619A
:100BB0006C6C20636F6E74726F6C7320746F206541
:100BC0006163682065787472656D652E204869746C
:100BD00020456E74657220746F20736176653A20CB
:100BE000000A464143544F52592052455345542020
:100BF000636F6D706C657465202D207265626F6F18
:100C0000742041504D000A275927202B20456E742F
:100C1000657220746F20666163746F7279207265EB
:100C20007365742C20616E79206F74686572206B17
:100C3000657920746F2061626F72743A0A00646F84
:100C40006E650A000A45726173696E6720454550FA
:100C5000524F4D0A000A436F6D6D616E64733A0A1C
:100C6000202064756D70203C6E3E2020657261739B
:100C7000652028616C6C206C6F6773290A202065E1
:100C80006E61626C65203C6E616D653E207C20610A
:100C90006C6C0A202064697361626C65203C6E6133
:100CA0006D653E207C20616C6C0A0A00656E616295
:100CB0006C65004F5054464C4F57004D4F544F52A7
:100CC000530043555200434D4400524157004D4F8D
:100CD0004445004E54554E004354554E00504D006F
:100CE0004750530041545449545544455F4D454481
:100CF0000041545449545544455F464153540061A2
:100D00006C6C006D697373696E67206C6F6720741B
:100D10007970650A000A4C6F6720657261736564BB
:100D20002E0A000A45726173696E67206C6F672E28
:100D30002E2E0A00626164206C6F672023202564D8
:100D40000A004154542C2025642C2025642C202595
:100D5000752C2025642C2025642C2025640A002C69
:100D60002025640A004D4F443A004354554E2C2030
:100D700025642C2025642C2025642C2025642C201F
:100D800025642C2025642C2025642C2025640A0051
:100D90004E54554E2C2025642C2025642C2025648F
:100DA0002C2025642C2025640A00504D2C2025641D
:100DB0002C2025642C2025642C2025642C202564DF
:100DC0002C2025642C2025642C20256C640A0052DC
:100DD00041572C00434D442C2025642C2025642CA5
:100DE0002025642C2025642C2025642C20256C646F
:100DF0002C20256C642C20256C640A00435552522B
:100E00003A2025642C20256C642C2025342E346651
:100E10002C2025342E34662C2025640A005354419E
:100E200052542055500A004D4F543A2025642C202E
:100E300025642C2025642C2025640A004F462C2094
:100E400025642C2025642C2025642C2025342E3765
:100E5000662C2025342E37660A004750532C202557
:100E60006C642C2025642C2025342E37662C2025FC
:100E7000342E37662C2025342E34662C2025342E33
:100E800034662C2025642C2025750A0058545241C4
:100E9000434B5F005448525F484F4C445F004E4103
:100EA000565F4C4F4E5F004E41565F4C41545F00C1
:100EB000484C445F4C4F4E5F00484C445F4C41549B
:100EC0005F005354425F5941575F005354425F5093
:100ED00049545F005354425F524C4C5F005241549E
:100EE000455F5941575F00524154455F5049545F37
:100EF00000524154455F524C4C5F0052435F435295
:100F00005F0052435F43505F005243385F005243DB
:100F1000375F005243365F005243355F005243341F
:100F20005F005243335F005243325F005243315FF0
:100F3000004C4F575F564F4C5400494E5F564F4C34
:100F40005400464C4F575F454E41424C4500544279
:100F50005F524154494F004652414D450054554E51
:100F60004500455343004D41475F454E41424C4586
:100F700000424154545F4341504143495459004257
:100F80004154545F4D4F4E49544F5200534F4E41C0
:100F9000525F454E41424C4500414C545F484F4CD6
:100FA000445F52544C004C4F475F4249544D4153AB
:100FB0004B0053494D504C4500464C544D4F444511
:100FC0003600464C544D4F44453500464C544D4F29
:100FD00044453400464C544D4F44453300464C5430
:100FE0004D4F44453200464C544D4F44453100541A
:100FF00052494D5F5448524F54544C450054485246
:101000005F46535F56414C5545005448525F465326
:101010005F414354494F4E005448525F4641494C4A
:1010200053414645005448525F4D41580054485280
:101030005F4D494E0057505F53504545445F4D4109
:10104000580057505F4C4F495445525F524144003D
:1010500057505F5241444955530057505F4D5553C7
:10106000545F494E4445580057505F494E444558D7
:101070000057505F544F54414C0057505F4D4F4400
:1010800045005854524B5F414E474C455F43440026
:1010900053455249414C335F4241554400535953E3
:1010A00049445F4D594743530053595349445F5492
:1010B0004849534D41560053595349445F53575F74
:1010C000545950450053595349445F53575F4D524B
:1010D000455600524556004D4158005452494D0066
:1010E0004D494E00494D41580049005000494D5569
:1010F0005F53454E534F525F43414C004C6F672046
:10110000232025642C2020202073746172742025F4
:10111000642C202020656E642025640A000A256462
:10112000206C6F67730A000A4E6F206C6F67730A3A
:1011300054797065202764756D702030272E0A0A57
:1011400000204F5054464C4F5700204D4F544F52A3
:1011500053002043555252454E540020434D440005
:101160002052415700204E54554E00204354554EB6
:101170000020504D00204750530020415454495402
:101180005544455F4D45440020415454495455440D
:10119000455F46415354006E6F6E65006C6F677318
:1011A00020656E61626C65643A2000666C696768F0
:1011B0007420706C616E2072656365697665640089
:1011C000616374696F6E2072656365697665643A00
:1011D00020006572726F723A206E6F6E2D4E6176CE
:1011E00020636D64006F7574206F6620636F6D6D92
:1011F000616E64732100776179706F696E7420721B
:101200006563656976652074696D656F75740077CF
:101210006179706F696E742073656E642074696D96
:10122000656F757400455854524133004558545207
:1012300041320045585452413100504F53495449AE
:101240004F4E005241575F4354524C0052435F434C
:1012500048414E004558545F535441540052415741
:101260005F53454E53005352335F005352305F007B
:101270005265616368656420686F6D650047524F11
:10128000554E44205354415254000A456E746572C1
:10129000696E6720696E7465726163746976652032
:1012A0007365747570206D6F64652E2E2E0A0A5456
:1012B000797065202768656C702720746F206C69D1
:1012C000737420636F6D6D616E64732C2027657875
:1012D00069742720746F206C6561766520612073C6
:1012E00075626D656E752E0A56697369742074682F
:1012F000652027736574757027206D656E7520668F
:101300006F722066697273742D74696D6520636FE6
:101310006E66696775726174696F6E2E0A0A005095
:101320006C656173652052756E2053657475702EFF
:101330002E2E0A004669726D7761726520636861BE
:101340006E67653A2065726173696E672045455026
:10135000524F4D2E2E2E0A000A0A496E6974204102
:10136000726475436F707465722056322E302E345D
:101370003420426574610A0A467265652052414D07
:101380003A20256C750A00496E76616C69642053B9
:10139000455249414C335F42415544004C6F67739D
:1013A0002066756C6C000A4750530A00253033756F
:1013B0003A25733A20006E6F7420666F756E640074
:1013C000253033753A252D33322E3332733A2000CF
:1013D000756E6B6E6F776E2074797065006E6F74CA
:1013E00020666F756E640025733A20006D69737313
:1013F000696E67206E616D65206F722076616C7515
:1014000065003F3F00256400256400256C640025CD
:101410006600256600657869740068656C70004434
:10142000454300434F4D504153535F0024504743C1
:101430004D442C31362C302C302C302C302C302A92
:1014400036410D0A0024505542582C34312C312C91
:10145000303030332C303030312C33383430302C85
:10146000302A32360024505352463130302C302C42
:1014700033383430302C382C312C302A3343002090
:10148000536952462000204D544B312E3620002007
:1014900075626C6F782000204D544B312E34200043
:1014A0006661696C65642C207265747279696E6717
:1014B000004F4B0020002A00496E6974204163638D
:1014C000656C002A00496E6974204779726F006E5E
:1014D000616E00696E660000407A10F35A00A072D7
:1014E0004E18090010A5D4E80000E876481700005F
:1014F000E40B54020000CA9A3B000000E1F505002D
:101500000080969800000040420F000000A0860175
:10151000000000102700000000E803000000006445
:1015200000000000000A00000000000100000000B0
:10153000002C76D888DC674F0823DFC1DFAE59E185
:10154000B1B796E5E3E453C63AE651997696E8E6F4
:10155000C28426EB898C9B62ED407C6FFCEFBC9CC7
:101560009F40F2BAA56FA5F490055A2AF75C936BD9
:101570006CF9676DC11BFCE0E40D47FEF520E6B594
:1015800000D0ED902E0300943577050080841E086E
:101590000000204E0A000000C80C333333330F988C
:1015A0006E12831141EF8D2114893BE65516CFFE53
:1015B000E6DB18D1844B381BF77C1D901DA4BBE4DF
:1015C00024203284725E228100C9F124ECA1E53D21
:1015D0002700002100240027002A002D00300033BE
:1015E0000001010000040107010A0100002200259A
:1015F0000028002B002E00310034000201000005FD
:101600000108010B01000020002300260029002C06
:10161000002F00320000010000030106010901054E
:10162000050505070508080808020202020A0A085B
:101630000804040404010101010101010103030381
:101640000303030303040707070C0C0C0C0C0C0C1E
:101650000C0202020206060606060606060B0B0B25
:101660000B0B0B0B0B010210202008081020401060
:101670002040800201020108040201010204081056
:101680002040808040201008040201800402018074
:10169000402010080402010804020101020408109D
:1016A00020408001020408102040800000090A0246
:1016B000080B0C0D070603040100000000000000E9
:1016C000000000000000000000000000000000001A
:1016D00000000000000000100F0E000000000000DD
:1016E00000000000000000000000000000000000FA
:1016F00000494E46494E4954594E414ECDCCCC3D01
:101700000AD7233C17B7D13877CC2B329595E624EE
:101710001FB14F0A000020410000C84200401C4693
:1017200020BCBE4CCA1B0E5AAEC59D74F93C5381F9
:10173000CD8A2BC1A1D1F23CC68A11241FBECFEFA6
:10174000D1E2DEBFCDBF15E0A0E0B2E0E8ECF5EC01
:1017500001E00BBF02C007900D92A831B107D9F785
:1017600015E1A8E1B5E001C01D92AD3DB107E1F77B
:1017700017E1C6E3D7E104C02297FE010E947FDC97
:10178000CC32D107C9F70E941CD40C94D7E20C9438
:101790000000283008F027E03327DA01990F311DC7
:1017A00087FD916000966105710539F432602E5F06
:1017B0003D9330E32A95E1F708959F3F30F080385C
:1017C0007105610509F03C5F3C5F3D93913008F085
:1017D0008068911DDF93CF931F930F93FF92EF9239
:1017E000192F987F9695E92F96959695E90FFF27E3
:1017F000EF5CFA4E99273327EE24FF24A701E70177
:1018000005900894079428F4360FE71EF81E491F28
:10181000511D660F771F881F991F0694A1F7059029
:10182000079428F4E70EF81E491F561FC11D770FB5
:10183000881F991F661F0694A1F70590079428F446
:10184000F80E491F561FC71FD11D880F991F661F0D
:10185000771F0694A1F70590079420F4490F561FAF
:10186000C71FD81F990F661F771F881F0694A9F7F7
:1018700084911095177041F0D695C7955795479567
:10188000F794E7941A95C1F7E7EDF4E168941590A1
:10189000159135916591959105907FE27395E118C9
:1018A000F10A430B560BC90BD009C0F7E10CF11E2E
:1018B000431F561FC91FD01D7EF4703311F48A9543
:1018C000E6CFE894015030F0080F0AF40027021721
:1018D00008F4202F2395022F7A3328F079E37D93A3
:1018E0002A95E9F710C07D932A9589F60694979575
:1018F0006795379517951794E118F10A430B560B26
:10190000C90BD00998F023957E9173957A3308F02E
:1019100070E37C932013B8F77E9170617D9330F073
:10192000839571E37D9370E32A95E1F71124EF909D
:10193000FF900F911F91CF91DF91992787FD90958F
:101940000895FA01AA27283051F1203181F1E89455
:101950006F936E7F6E5F7F4F8F4F9F4FAF4FB1E0A2
:101960003ED0B4E03CD0670F781F891F9A1FA11D9D
:10197000680F791F8A1F911DA11D6A0F711D811D9E
:10198000911DA11D20D009F468943F912AE0269F63
:1019900011243019305D3193DEF6CF010895462FC2
:1019A0004770405D4193B3E00FD0C9F7F6CF462FA3
:1019B0004F70405D4A3318F0495D31FD405241930C
:1019C00002D0A9F7EACFB4E0A695979587957795C9
:1019D0006795BA95C9F700976105710508959B0150
:1019E000AC010A2E06945795479537952795BA95D9
:1019F000C9F7620F731F841F951FA01D0895CF9311
:101A0000DF93FC01EB014230510570F06385748572
:101A10008585968520E030E040E854E40E9410DBA4
:101A20000E9458D97983688382E090E0DF91CF915A
:101A30000895CF93DF93EC01FB014230510518F478
:101A400020E030E012C06081718180E090E00E946F
:101A500084D920E030E040E85AE30E9410DB6B8735
:101A60007C878D879E8722E030E0C901DF91CF918E
:101A70000895DC01FB0183818C93828111968C9304
:101A80001197818112968C931297808113968C9373
:101A90000895DC01FB0187818C93868111968C93DC
:101AA0001197858112968C931297848113968C934B
:101AB0001397838114968C931497828115968C9337
:101AC0001597818116968C931697808117968C9323
:101AD00008951F920F920FB60F920BB60F9211241A
:101AE0002F933F934F938F939F93EF93FF93409147
:101AF000C6002091DD133091DE132F5F3F4F8091A0
:101B0000E1139091E213282339238091DF13909100
:101B1000E0132817390779F08091DD139091DE13D7
:101B2000E091E313F091E413E80FF91F4083309341
:101B3000DE132093DD13FF91EF919F918F914F91D1
:101B40003F912F910F900BBE0F900FBE0F901F90E3
:101B500018951F920F920FB60F920BB60F92112489
:101B60002F933F938F939F93EF93FF932091FF13B6
:101B7000309100148091FD139091FE1328173907BE
:101B8000E9F08091FF1390910014E0910314F0911B
:101B90000414E80FF91F80818093C6008091FF1321
:101BA0009091001401962091011430910214822327
:101BB0009323909300148093FF1310C02091FD1382
:101BC0003091FE138091FF1390910014281739076C
:101BD00029F48091C1008F7D8093C100FF91EF9126
:101BE0009F918F913F912F910F900BBE0F900FBE41
:101BF0000F901F9018951F920F920FB60F920BB671
:101C00000F9211242F933F934F938F939F93EF93B2
:101C1000FF934091CE002091E5133091E6132F5FA2
:101C20003F4F8091E9139091EA1328233923809143
:101C3000E7139091E8132817390779F08091E5139D
:101C40009091E613E091EB13F091EC13E80FF91F7C
:101C500040833093E6132093E513FF91EF919F911A
:101C60008F914F913F912F910F900BBE0F900FBE10
:101C70000F901F9018951F920F920FB60F920BB6F0
:101C80000F9211242F933F938F939F93EF93FF9382
:101C90002091071430910814809105149091061436
:101CA00028173907E9F08091071490910814E09102
:101CB0000B14F0910C14E80FF91F80818093CE0073
:101CC0008091071490910814019620910914309185
:101CD0000A1482239323909308148093071410C04E
:101CE00020910514309106148091071490910814E6
:101CF0002817390729F48091C9008F7D8093C90086
:101D0000FF91EF919F918F913F912F910F900BBE7B
:101D10000F900FBE0F901F9018951F920F920FB645
:101D20000F920BB60F9211242F933F934F938F93E3
:101D30009F93EF93FF93409136012091F5133091DB
:101D4000F6132F5F3F4F8091F9139091FA132823D8
:101D500039238091F7139091F8132817390779F0F8
:101D60008091F5139091F613E091FB13F091FC1321
:101D7000E80FF91F40833093F6132093F513FF917A
:101D8000EF919F918F914F913F912F910F900BBEAB
:101D90000F900FBE0F901F9018951F920F920FB6C5
:101DA0000F920BB60F9211242F933F938F939F9313
:101DB000EF93FF932091171430911814809115140C
:101DC0009091161428173907E9F080911714909113
:101DD0001814E0911B14F0911C14E80FF91F808176
:101DE00080933601809117149091181401962091D8
:101DF000191430911A14822393239093181480930A
:101E0000171410C0209115143091161480911714D6
:101E1000909118142817390729F4809131018F7D8A
:101E200080933101FF91EF919F918F913F912F917D
:101E30000F900BBE0F900FBE0F901F901895FC01D6
:101E40007183608385E06831780739F470931E14DC
:101E500060931D141386128608C07093201460933B
:101E60001F1481E090E09387828713821282089585
:101E700020916D0C30916E0CC9018F5C94408238BA
:101E8000910510F481E00895C9018155954082388B
:101E9000910510F482E00895C901835D9540823870
:101EA000910510F483E00895C90185559640813865
:101EB000910510F484E00895265D364014F480E026
:101EC000089585E0089580E00895FC01DB01452B2D
:101ED00011F083858C9381E090E00895DC01FB0193
:101EE000452B19F080811B968C9381E090E008953A
:101EF000FC016385772767FD7095872F972F0E94D8
:101F000086D90895FC01DB014230510520F083851C
:101F100094858D939C9382E090E00895DC01FB0111
:101F20004230510530F0808191811C969C938E93B4
:101F30001B9782E090E00895FC01638574858827F3
:101F400077FD8095982F0E9486D90895FC012385FE
:101F5000348545855685B901CA010895CF93DF932D
:101F6000FC01EB014430510540F083859485A58543
:101F7000B68588839983AA83BB8384E090E0DF9150
:101F8000CF910895CF93DF93EC01FB0144305105CD
:101F900040F080819181A281B3818B879C87AD873E
:101FA000BE8784E090E0DF91CF910895E091131116
:101FB000F091141187A990AD8130910539F0029705
:101FC000F9F483E261E00E94A1D7089581A58823F6
:101FD000D9F090E080917911882309F491E09093F1
:101FE0007911992319F083E260E002C083E261E095
:101FF0000E94A1D7E0911311F091141111A6089538
:1020000083E260E00E94A1D708958BE360E00E9424
:10201000A1D708958BE361E00E94A1D708950E94A3
:102020000A1064E670E080E090E00E94A3D60E946F
:102030000510089585E260E00E94A1D784E260E087
:102040000E94A1D783E260E00E94A1D71092C8123B
:102050001092301208958091EB128F5F8093EB12F3
:102060008150833011F41092EB128091EB12813089
:1020700059F0813018F08230C1F40FC083E260E083
:102080000E94A1D785E205C085E260E00E94A1D749
:1020900084E261E00E94A1D7089584E260E00E949A
:1020A000A1D783E261E00E94A1D708958091B41284
:1020B000813079F484E461E00E94A1D782E461E098
:1020C0000E94A1D780E461E00E94A1D78EE361E085
:1020D0000EC084E460E00E94A1D782E460E00E9428
:1020E000A1D780E460E00E94A1D78EE360E00E9467
:1020F000A1D7089500D000D088E195E0EDB7FEB7F4
:10210000928381838AE995E0948383830E946CC4DF
:102110000F900F900F900F9008950E947A1068EE24
:1021200073E080E090E00E94A3D68CE395E00E94EB
:10213000E3C4892B89F084E261E00E94A1D78CE39B
:1021400095E00E9413C5682F8AE295E00E9474C54D
:1021500084E260E00E94A1D78AE295E00E94E3C495
:10216000892B89F083E261E00E94A1D78AE295E0A1
:102170000E9413C5682F8CE395E00E9474C583E22A
:1021800060E00E94A1D788E195E00E94E3C41816A0
:1021900019065CF680E008950E947A1068EE73E0FC
:1021A00080E090E00E94A3D600D000D088E195E0C6
:1021B000EDB7FEB7928381838BEB95E094838383A5
:1021C0000E946CC40F900F900F900F908CE395E0DD
:1021D0000E94E3C4892B49F08CE395E00E9413C56B
:1021E000682F8CE395E00E9474C588E195E00E9419
:1021F000E3C41816190654F780E0089528E135E085
:10220000882349F000D000D0EDB7FEB73283218398
:1022100086E196E008C000D000D0EDB7FEB732836B
:10222000218382E196E0948383830E946CC488E1D9
:1022300095E0EDB7FEB7928381838BE096E09483BF
:1022400083830E946CC40F900F900F900F9008959D
:10225000EF92FF920F931F93CF93DF930E947A1018
:1022600068EE73E080E090E00E94A3D68DEAE82E4D
:1022700086E0F82E02EA16E0C8E1D5E000D000D0F2
:10228000EDB7FEB7D283C183F482E3820E946CC4AF
:1022900080910B01846080930B010F900F900F9041
:1022A0000F9068EB7BE080E090E00E94A3D6CE0127
:1022B0000E94E3C418161906FCF000D000D0EDB758
:1022C000FEB7D283C183148303830E946CC48091C0
:1022D0000B018B7F80930B010F900F900F900F904D
:1022E00068EB7BE080E090E00E94A3D6CE010E94E4
:1022F000E3C41816190614F680E0CDB7DEB7E6E0A1
:102300000C946EDC00D000D088E195E0EDB7FEB70C
:102310009283818388EF96E0948383830E946CC4C8
:102320000F900F900F900F9080E008958DB79EB79B
:1023300040970FB6F8949EBF0FBE8DBFEDB7FEB7A6
:10234000319688E195E0ADB7BEB712969C938E9317
:10235000119789E197E09383828380917D07909123
:102360007E07A0917F07B091800784839583A68321
:10237000B7838091810790918207A0918307B091E4
:10238000840780879187A287B38780918507909182
:102390008607A0918707B091880784879587A687CD
:1023A000B7870E946CC48DB79EB740960FB6F8945D
:1023B0009EBF0FBE8DBF08958DB79EB740970FB6D5
:1023C000F8949EBF0FBE8DBFEDB7FEB7319688E182
:1023D00095E0ADB7BEB712969C938E9311978CE3A0
:1023E00097E0938382838091890790918A07A091D7
:1023F0008B07B0918C0784839583A683B7838091E4
:102400008D0790918E07A0918F07B09190078087DC
:102410009187A287B3878091910790919207A091AD
:102420009307B091940784879587A687B7870E9402
:102430006CC48DB79EB740960FB6F8949EBF0FBE82
:102440008DBF089500D000D088E195E0EDB7FEB7CC
:102450009283818381E298E0948383830E946CC499
:102460000F900F900F900F9080E008950F931F939F
:102470008DB79EB708970FB6F8949EBF0FBE8DBF5D
:10248000EDB7FEB7319608E115E0ADB7BEB71296CD
:102490001C930E9311978AE399E093838283809132
:1024A000340B9091350B9583848380914E0B9091E2
:1024B0004F0B978386830E946CC4EDB7FEB73196AD
:1024C000ADB7BEB712961C930E9311978CE299E0AC
:1024D000938382838091880B9091890B9583848369
:1024E0008091A20B9091A30B978386830E946CC46A
:1024F000EDB7FEB73196ADB7BEB712961C930E93EB
:1025000011978EE199E0938382838091DC0B909107
:10251000DD0B958384838091F60B9091F70B978365
:1025200086830E946CC4EDB7FEB73196ADB7BEB7D7
:1025300012961C930E93119780E199E09383828306
:102540008091300C9091310C9583848380914A0C5A
:1025500090914B0C978386830E946CC4EDB7FEB7B5
:102560003196ADB7BEB712961C930E93119782E0C9
:1025700099E0938382838091840C9091850C95835C
:10258000848380919E0C90919F0C978386830E94F8
:102590006CC4EDB7FEB73196ADB7BEB712961C93BB
:1025A0000E93119784EF98E0938382838091D80CE7
:1025B0009091D90C958384838091F20C9091F30CC7
:1025C000978386830E946CC4EDB7FEB73196ADB792
:1025D000BEB712961C930E93119786EE98E09383E4
:1025E000828380912C0D90912D0D95838483809111
:1025F000460D9091470D978386830E946CC48DB7DA
:102600009EB708960FB6F8949EBF0FBE8DBF1F9160
:102610000F91089500D000D088E195E0EDB7FEB7A6
:102620009283818389EB9AE0948383830E946CC4B4
:102630000F900F900F900F90089500D000D088E178
:1026400095E0EDB7FEB79283818385E59CE09483A6
:1026500083830E946CC40F900F900F900F9080E0C6
:10266000089500D000D088E195E0EDB7FEB79283E1
:1026700081838DE19EE0948383830E946CC40F90DC
:102680000F900F900F900895A0E0B0E0EAE4F3E11E
:102690000C944EDC35EBA32E35E0B32E2FEAC22E80
:1026A00025E0D22E00E010E098E1E92E95E0F92E29
:1026B00000D000D000D0EDB7FEB73196ADB7BEB7B1
:1026C0001296FC92EE921197B382A2821583048334
:1026D0000E946CC4C0E0D0E08DB79EB706960FB6DE
:1026E000F8949EBF0FBE8DBFCE01800F911F0E9438
:1026F000EFE000D000D000D0EDB7FEB73196ADB717
:10270000BEB71296FC92EE921197D382C282848356
:1027100015820E946CC421968DB79EB706960FB69F
:10272000F8949EBF0FBE8DBFC031D105E9F6C70139
:102730000E9428D5005F1F4F90E10030190709F073
:10274000B7CF80E0CDB7DEB7EAE00C946ADCA4E254
:10275000B0E0EDEAF3E10C944EDC8091B40A8823FA
:1027600009F493C00E947A105CEEA52E55E0B52EB8
:102770006E010894C11CD11C48E1E42E45E0F42E02
:1027800064E670E080E090E00E94A3D684EB95E0E0
:102790000E945190D601E6ECF7E084E201900D92A0
:1027A0008150E1F784EB95E0B6010E942C9D84EB0B
:1027B00095E00E9411956091BE057091BF058091D2
:1027C000C0059091C10521EE3EE245E652E40E942B
:1027D00010DB20E030E048EC52E40E9410DB0E9465
:1027E00053D9613A2CE8720720E0820720E0920773
:1027F0002CF0605A7C488040904006C097FF04C08F
:10280000605673478F4F9F4FEDB7FEB73E970FB699
:10281000F894FEBF0FBEEDBF0DB71EB70F5F1F4F81
:10282000F282E182F801B382A28224E630E040E045
:1028300050E00E942BDCF8012483358346835783C4
:102840008091B8059091B905918780878091BA05EC
:102850009091BB05938782878091BC059091BD05BF
:10286000958784870E946CC42DB73EB7225F3F4F87
:102870000FB6F8943EBF0FBE2DBFC7010E94E3C440
:10288000181619060CF07CCF15C000D000D088E1D6
:1028900095E0EDB7FEB79283818382EE95E0948355
:1028A00083830E946CC40F900F900F900F9080E074
:1028B0000E94FE1080E0A496EAE00C946ADC0F937C
:1028C0001F93CF93DF9380918F0A8823B9F400D0B0
:1028D00000D088E195E0ADB7BEB712969C938E9379
:1028E000119787E296E014969C938E9313970E941B
:1028F0006CC40F900F900F900F9030C00E947A1010
:1029000009E116E0C8E1D5E064E670E080E090E01F
:102910000E94A3D686E099E00E94E0C000D000D0DB
:1029200000D0EDB7FEB73196ADB7BEB71296DC93C7
:10293000CE93119713830283958384830E946CC482
:10294000EDB7FEB736960FB6F894FEBF0FBEEDBFDB
:10295000CE010E94E3C418161906B4F680E0DF9198
:10296000CF911F910F910895EF92FF920F931F93B4
:10297000CF93DF938091580590915905909347111B
:1029800080934611C0E0D0E064E170E080E090E028
:102990000E94A3D680E595E00E94BB7E2196CC33B1
:1029A000D10591F7C0E0D0E064E170E080E090E014
:1029B0000E94A3D680E595E00E94BB7EE0905A0578
:1029C000F0905B0500915C0510915D05E092481167
:1029D000F092491100934A1110934B112091461126
:1029E00030914711C90163E0880F991F6A95E1F79B
:1029F000820F931F2091580530915905820F931F24
:102A00006AE070E00E94F6DB709347116093461114
:102A10002196C431D10541F6E0924C11F0924D114E
:102A200000934E1110934F11CDB7DEB7E6E00C9432
:102A30006EDCAF92BF92CF92DF92EF92FF920F9334
:102A40001F9380E595E00E94BB7EE0905A05F090D0
:102A50005B0500915C0510915D05E0924C11F092D0
:102A60004D1100934E1110934F11609148117091C8
:102A7000491180914A1190914B110E9486D95B01B6
:102A80006C01C801B7010E9486D99B01AC01C60147
:102A9000B5010E94EBD80E94D0DA7B018C016091D5
:102AA000461170914711882777FD8095982F0E94D5
:102AB00086D920E030E040E251E40E94EBD823E3E5
:102AC00033E948E853E40E9407D89B01AC01C801F0
:102AD000B7010E9410DB29E83EEA44EE56E40E946A
:102AE00010DB20E030E040E251E40E94EBD80E948D
:102AF00053D99B01AC01CA011F910F91FF90EF9038
:102B0000DF90CF90BF90AF9008950F931F93CF9316
:102B1000DF930E947A100E94B41407E316E0C8E124
:102B2000D5E064E670E080E090E00E94A3D60E94C9
:102B30001915709345116093441100D000D000D056
:102B4000EDB7FEB73196ADB7BEB71296DC93CE9314
:102B5000119713830283758364830E946CC48DB7BD
:102B60009EB706960FB6F8949EBF0FBE8DBFCE01DE
:102B70000E94E3C418161906A4F680E0DF91CF91F5
:102B80001F910F910895A0E0B0E0E9ECF5E10C94FD
:102B90004DDCEC0180918C09992787FD9095861773
:102BA000970714F4188277C0CB01E4E0880F991FCF
:102BB000EA95E1F7861B970B80509C4F5C01CC2473
:102BC000B7FCC094DC2C0E94EFE08883860175017D
:102BD0000894E11CF11C011D111DC7010E94EFE0CA
:102BE000982E89830894E11CF11C011D111DC70159
:102BF0000E94EFE08A830894E11CF11C011D111D65
:102C0000C7010E94F7E06B837C838D839E8387E0FE
:102C100090E0A0E0B0E0A80EB91ECA1EDB1EC50100
:102C20000E94F7E07B018C01EF82F88609871A8702
:102C300084E090E0A0E0B0E0A80EB91ECA1EDB1E42
:102C4000C5010E94F7E09B01AC012B873C874D87B3
:102C50005E8794FE20C08091571190915811A091E9
:102C60005911B0915A11E80EF91E0A1F1B1FEF826D
:102C7000F88609871A8780915B1190915C11A09169
:102C80005D11B0915E11280F391F4A1F5B1F2B8702
:102C90003C874D875E87CE01CDB7DEB7EBE00C9465
:102CA00069DC8F929F92AF92BF92DF92EF92FF9278
:102CB0000F931F93DF93CF93CDB7DEB72F970FB648
:102CC000F894DEBF0FBECDBF68EE73E080E090E009
:102CD0000E94A3D600D000D008E115E0ADB7BEB782
:102CE00012961C930E93119781E696E014969C938E
:102CF0008E9313970E946CC42091820A3091830AAC
:102D00000F900F900F900F9037FF11C000D000D0A0
:102D1000EDB7FEB7128301838FE596E0948383833A
:102D20000E946CC40F900F900F900F9021C000D0A4
:102D300000D000D0EDB7FEB73196ADB7BEB7129652
:102D40001C930E93119787E596E093838283C901C4
:102D500064E670E00E94F6DB758364830E946CC4B5
:102D6000EDB7FEB736960FB6F894FEBF0FBEEDBFB7
:102D700000D000D000D0EDB7FEB7319608E115E0E5
:102D8000ADB7BEB712961C930E93119780E596E0EF
:102D90009383828380918C09992787FD90959583F1
:102DA00084830E946CC4EDB7FEB73196ADB7BEB751
:102DB00012961C930E93119783E496E0938382837B
:102DC0008091B009992787FD9095958384830E940F
:102DD0006CC4FBE68F2EF6E09F2EFF24EDB7FEB706
:102DE00036960FB6F894FEBF0FBEEDBF5E01089495
:102DF000A11CB11CD02EE12E46C0C501B8010E9415
:102E0000C3158DB79EB748970FB6F8949EBF0FBEF7
:102E10008DBFEDB7FEB73196ADB7BEB71196DC9258
:102E200011971296EC929382828215830483898192
:102E3000868317828A81808711868B818287138699
:102E40008C819D81AE81BF8184879587A687B78756
:102E500088859985AA85BB85808B918BA28BB38B46
:102E60008C859D85AE85BF85848B958BA68BB78B16
:102E70000E946CC4F394EDB7FEB778960FB6F89441
:102E8000FEBF0FBEEDBF0F2D10E080918C0999277A
:102E900087FD9095801791070CF0AFCF80E02F96BB
:102EA0000FB6F894DEBF0FBECDBFCF91DF911F915B
:102EB0000F91FF90EF90DF90BF90AF909F908F9019
:102EC00008950F931F9302EF12E14091DC0B509194
:102ED000DD0BC80160E00E9490804091DC0B5091B6
:102EE000DD0BC80161E00E9490804091DC0B5091A5
:102EF000DD0BC80162E00E9490804091DC0B509194
:102F0000DD0BC80163E00E9490804091DC0B509182
:102F1000DD0BC80166E00E9490804091DC0B50916F
:102F2000DD0BC80167E00E9490801F910F9108950A
:102F300082EF92E10E941081813009F060C080939D
:102F4000671182EF92E160E00E94DF80BC0182E1C4
:102F50009BE00E94AFCF82EF92E161E00E94DF80B0
:102F6000BC0186E69BE00E94AFCF82EF92E162E077
:102F70000E94DF80BC018AEB9BE00E94AFCF82EF12
:102F800092E163E00E94DF80BC018EE09CE00E9441
:102F9000AFCF82EF92E164E00E94DF80BC0182E665
:102FA0009CE00E94AFCF82EF92E165E00E94DF805B
:102FB000BC0186EB9CE00E94AFCF82EF92E166E01D
:102FC0000E94DF80BC018AE09DE00E94AFCF82EFCB
:102FD00092E167E00E94DF80BC018EE59DE00E94E7
:102FE000AFCF8091C70B9091C80B23E0813292073D
:102FF00014F080E293E09093C80B8093C70B089580
:103000000F931F93CF93DF930E947A1068EE73E0C3
:1030100080E090E00E94A3D602E917E0C8E1D5E085
:1030200064E170E080E090E00E94A3D60E949817CF
:103030008DB79EB742970FB6F8949EBF0FBE8DBF57
:10304000EDB7FEB73196ADB7BEB71296DC93CE930F
:1030500011971383028380911F0B9091200B95830E
:1030600084838091730B9091740B978386838091F6
:10307000C70B9091C80B9187808780911B0C909112
:103080001C0C9387828780916F0C9091700C9587B0
:1030900084878091C30C9091C40C97878687809118
:1030A000170D9091180D918B808B0E946CC48DB779
:1030B0009EB742960FB6F8949EBF0FBE8DBFCE014D
:1030C0000E94E3C4181619060CF0AACF80E0DF9125
:1030D000CF911F910F9108950F931F93CF93DF937B
:1030E0000E947A1068EE73E080E090E00E94A3D620
:1030F00001EC17E0C8E1D5E064E170E080E090E029
:103100000E94A3D60E9498178DB79EB744970FB61A
:10311000F8949EBF0FBE8DBFEDB7FEB73196ADB729
:10312000BEB71296DC93CE931197138302838091DE
:103130001D0B90911E0B958384838091710B909150
:10314000720B978386838091C50B9091C60B9187F4
:1031500080878091190C90911A0C938782878091B7
:103160006D0C90916E0C958784878091C10C909125
:10317000C20C978786878091150D9091160D918BC3
:10318000808B8091690D90916A0D938B828B0E9448
:103190006CC48DB79EB744960FB6F8949EBF0FBE11
:1031A0008DBFCE010E94E3C4181619060CF0A4CFFF
:1031B00080E0DF91CF911F910F910895EF92FF92E0
:1031C0000F931F9380E00E94F3D5AA2797FDA09547
:1031D000BA2FBC01CD010E9486D97B018C01609180
:1031E000FF0A7091000B8091010B9091020B20E07F
:1031F00030E040E85AE30E9410DB9B01AC01C801BB
:10320000B7010E9410DB2AE037ED43E650E40E944C
:1032100010DB2DEC3CEC4CEC5DE30E9410DB7B0101
:103220008C0160914B0370914C0380914D03909100
:103230004E0326E636E646E65FE30E9410DB9B017E
:10324000AC01C801B7010E9407D860934B0370938B
:103250004C0380934D0390934E0381E00E94F3D57D
:10326000AA2797FDA095BA2FBC01CD010E9486D94F
:103270007B018C016091FF0A7091000B8091010B22
:103280009091020B20E030E040E85AE30E9410DB0E
:103290009B01AC01C801B7010E9410DB2AE037EDA9
:1032A00043E650E40E9410DB2DEC3CEC4CEC5DE37B
:1032B0000E9410DB7B018C0160914F0370915003E1
:1032C000809151039091520326E636E646E65FE38D
:1032D0000E9410DB9B01AC01C801B7010E9407D816
:1032E00060934F0370935003809351039093520364
:1032F00082E00E94F3D5AA2797FDA095BA2FBC01C2
:10330000CD010E9486D97B018C016091FF0A7091EA
:10331000000B8091010B9091020B20E030E040E81F
:103320005AE30E9410DB9B01AC01C801B7010E9467
:1033300010DB2AE037ED43E650E40E9410DB2DEC71
:103340003CEC4CEC5DE30E9410DB7B018C01609156
:10335000530370915403809155039091560326E6D0
:1033600036E646E65FE30E9410DB9B01AC01C80134
:10337000B7010E9407D8609353037093540380935E
:1033800055039093560383E00E94F3D5AA2797FD37
:10339000A095BA2FBC01CD010E9486D97B018C017A
:1033A0006091FF0A7091000B8091010B9091020BCC
:1033B00020E030E040E85AE30E9410DB9B01AC01C2
:1033C000C801B7010E9410DB2AE037ED43E650E464
:1033D0000E9410DB2DEC3CEC4CEC5DE30E9410DB1A
:1033E0007B018C01609157037091580380915903C0
:1033F00090915A0326E636E646E65FE30E9410DB2C
:103400009B01AC01C801B7010E9407D87B018C0168
:10341000CB01D8018093570390935803A09359038D
:10342000B0935A0320919B0A213049F480915303B1
:1034300090915403A0915503B091560304C02230DB
:1034400059F4C701D8018093470390934803A09390
:103450004903B0934A037DC0233019F0243009F0AA
:1034600078C080914B0390914C03A0914D03B09193
:103470004E038093470390934803A0934903B0936E
:103480004A03243009F065C081E00E94F3D5AA27E1
:1034900097FDA095BA2FBC01CD010E9486D97B0172
:1034A0008C016091FF0A7091000B8091010B90914B
:1034B000020B20E030E040E85AE30E9410DB9B0161
:1034C000AC01C801B7010E9410DB2CE53FE84AEDD2
:1034D00051E40E9410DB2DEC3CEC4CEC5DE30E94CF
:1034E00010DB7B018C0160915F1170916011809104
:1034F00061119091621126E636E646E65FE30E948E
:1035000010DB9B01AC01C801B7010E9407D8609392
:103510005F1170936011809361119093621123ED9C
:103520003CEB43EE5CE30E9410DB9B01AC0160913D
:1035300063117091641180916511909166110E94E0
:1035400007D8609363117093641180936511909311
:1035500066111F910F91FF90EF9008950F931F93A5
:10356000CF93DF930E947A1007EB16E0C8E1D5E015
:1035700064E670E080E090E00E94A3D60E94981775
:103580000E94DE188DB79EB740970FB6F8949EBF85
:103590000FBE8DBFEDB7FEB73196ADB7BEB7129671
:1035A000DC93CE931197138302838091470390910C
:1035B0004803A0914903B0914A0384839583A6836D
:1035C000B78380915F1190916011A0916111B091CA
:1035D000621180879187A287B38780916311909150
:1035E0006411A0916511B091661184879587A687B3
:1035F000B7870E946CC48DB79EB740960FB6F894FB
:103600009EBF0FBE8DBF4091C50B5091C60B82EF80
:1036100092E160E00E9490804091C50B5091C60BF2
:1036200082EF92E161E00E9490804091C50B509141
:10363000C60B82EF92E162E00E9490804091C50B40
:103640005091C60B82EF92E163E00E949080CE0120
:103650000E94E3C4181619060CF08ACF80E0DF91AF
:10366000CF911F910F9108950F931F93CF93DF93E5
:103670000E947A1068EE73E080E090E00E94A3D68A
:1036800007ED16E0C8E1D5E064E170E080E090E08D
:103690000E94A3D60E94981780911B0C90911C0C3D
:1036A0009093200C80931F0C8EE09CE00E9423D00E
:1036B0008DB79EB708970FB6F8949EBF0FBE8DBF0B
:1036C000EDB7FEB73196ADB7BEB71296DC93CE9389
:1036D00011971383028380911B0C90911C0C95838E
:1036E00084838091230C9091240C978386830E947D
:1036F0006CC48DB79EB708960FB6F8949EBF0FBEE8
:103700008DBF4091230C5091240C82EF92E166E032
:103710000E949080CE010E94E3C4181619060CF096
:10372000B3CF80E0DF91CF911F910F910895609109
:10373000C30C7091C40C882777FD8095982F0E9448
:1037400086D920E030E04AE754E40E94EBD8609349
:103750002409709325098093260990932709809165
:10376000CC0A992787FD9095A92FB92FFC01319795
:10377000EB30F10508F04FC1EE58FF4F0C947DDCA3
:1037800086EB9CE060E070E040E45FE10E944FCE99
:103790008091240990912509A0912609B0912709CB
:1037A00080931E0F90931F0FA093200FB093210FB3
:1037B0008093580F9093590FA0935A0FB0935B0FBB
:1037C000089586EB9CE060E070E04CE251E00E94DE
:1037D0004FCE6091C30C7091C40C882777FD809503
:1037E000982F0E9486D920E030E04AE754E40E94F6
:1037F000EBD8DC019B01AC0120932409309325090F
:10380000409326095093270920932D0F30932E0FB4
:1038100040932F0F5093300FCB018093670F9093FD
:10382000680FA093690FB0936A0F089586EB9CE030
:1038300060E070E04CE251E00E944FCE809124099C
:1038400090912509A0912609B09127098093700EC7
:103850009093710EA093720EB093730E8093AA0E84
:103860009093AB0EA093AC0EB093AD0E089586EB83
:103870009CE060E070E04CE251E00E944FCE80910D
:10388000240990912509A0912609B09127098093D8
:103890007F0E9093800EA093810EB093820E809342
:1038A000B90E9093BA0EA093BB0EB093BC0E0895C0
:1038B00086EB9CE060E070E048EE53E00E944FCE63
:1038C0008091240990912509A0912609B09127099A
:1038D0008093920F9093930FA093940FB093950FB2
:1038E000089586EB9CE060E070E048EE53E00E94B3
:1038F0004FCE8091240990912509A0912609B0917D
:1039000027098093E40E9093E50EA093E60EB09302
:10391000E70E089586EB9CE060E070E048EE53E02F
:103920000E944FCE8091240990912509A0912609EB
:10393000B09127098093B4109093B510A093B6105E
:10394000B093B710089586EB9CE060E273E048EE18
:1039500053E00E944FCE8091240990912509A091B7
:103960002609B09127098093E40A9093E50AA09371
:10397000E60AB093E70A089586EB9CE060E070E009
:1039800048EE53E00E944FCE2091C30C3091C40CFE
:1039900082E02E3038072CF080910B0184608093F8
:1039A0000B012B5D3140BCF580910B018B7F809327
:1039B0000B01089586EB9CE060E070E048EE53E078
:1039C0000E944FCE8091C30C9091C40C9093C90972
:1039D0008093C809089586EB9CE060E070E040E7C2
:1039E00057E10E944FCE8091240990912509A09122
:1039F0002609B09127098093401090934110A0931D
:103A00004210B093431080937A1090937B10A09350
:103A10007C10B0937D1008950F931F93CF93DF9385
:103A20000E947A100BEE16E0C8E1D5E068EC70E079
:103A300080E090E00E94A3D60E9498170E94971BF6
:103A40008DB79EB708970FB6F8949EBF0FBE8DBF77
:103A5000EDB7FEB73196ADB7BEB71296DC93CE93F5
:103A60001197138302838091240990912509A091D5
:103A70002609B091270984839583A683B7830E9482
:103A80006CC48DB79EB708960FB6F8949EBF0FBE54
:103A90008DBFCE010E94E3C4181619063CF680E0E3
:103AA000DF91CF911F910F910895809127129091EE
:103AB0002812892B09F45AC00E946FD62091211236
:103AC000309122124091231250912412621B730BE9
:103AD000840B950B209125123091261240E050E086
:103AE000621773078407950708F440C037C0019731
:103AF0009093281280932712809127129091281278
:103B0000892BA1F10E946FD660932112709322122B
:103B1000809323129093241260912012862F845058
:103B2000843088F48091271280FF05C040912912CB
:103B300050912A1204C040912B1250912C1282EF06
:103B400092E10E94908080912012853079F48091DA
:103B50000B0194E0892780930B010895809127122F
:103B6000909128121816190614F2C6CF08950F93D3
:103B70001F93CF93DF93062F142F00D000D000D0D7
:103B8000EDB7FEB73196C8E1D5E0ADB7BEB7129636
:103B9000DC93CE93119724ED39E033832283848321
:103BA00015820E946CC4EDB7FEB736960FB6F89436
:103BB000FEBF0FBEEDBFE02FF0E0EE0FFF1FE2559E
:103BC000FC4F60817181CE010E9458D400D000D09A
:103BD000ADB7BEB71296DC93CE93119788EC99E0FF
:103BE00014969C938E9313970E946CC40F900F9021
:103BF0000F900F90112359F000D000D0EDB7FEB711
:103C0000D283C18384EC99E0948383830EC000D077
:103C100000D0ADB7BEB71296DC93CE9311978FEB61
:103C200099E014969C938E9313970E946CC40F9006
:103C30000F900F900F90DF91CF911F910F910895EA
:103C4000CF93DF93C0E0D0E088E195E060E072E0E0
:103C50000E9458D42196C832D105B1F788E195E089
:103C600062E072E00E943FD5DF91CF910895CF933B
:103C7000DF93EC0107C0219788E195E062E072E0F4
:103C80000E943FD51C161D06B4F3DF91CF91089515
:103C900000D000D088E195E0EDB7FEB79283818334
:103CA00084E197E0948383830E946CC40F900F900B
:103CB0000F900F900E94201E0E9496110E94DC110E
:103CC00082E090E00E94371E089500D000D000D01E
:103CD000EDB7FEB7319688E195E0ADB7BEB7129665
:103CE0009C938E93119780ED98E0938382838091CB
:103CF000340990913509958384830E946CC48DB7F3
:103D00009EB706960FB6F8949EBF0FBE8DBF0E9459
:103D1000201E82E090E00E94371E089500D000D05F
:103D200088E195E0EDB7FEB7928381838FED98E04F
:103D3000948383830E946CC40F900F900F900F9018
:103D40000E94201E0E94361282E090E00E94371EE0
:103D50000895CF93DF9300D000D0C8E1D5E0EDB750
:103D6000FEB7D283C1838BE699E0948383830E945C
:103D70006CC40F900F900F900F900E94201E00D0E7
:103D800000D0EDB7FEB7D283C18380E699E094837B
:103D900083830E946CC48091D80A0F900F900F907B
:103DA0000F90813049F400D000D0EDB7FEB7D28338
:103DB000C18388E599E015C0882349F400D000D07C
:103DC000EDB7FEB7D283C18380E599E00AC08230A7
:103DD00081F400D000D0EDB7FEB7D283C18388E470
:103DE00099E0948383830E946CC40F900F900F908E
:103DF0000F9082E090E00E94371EDF91CF910895EE
:103E000000D000D088E195E0EDB7FEB792838183C2
:103E10008BE999E0948383830E946CC40F900F9088
:103E20000F900F900E94201E80919B0A882311F40E
:103E30000E94FE1080919B0A813091F400D000D046
:103E400088E195E0EDB7FEB79283818383E999E03D
:103E5000948383830E946CC40F900F900F900F90F7
:103E600080919B0A823091F400D000D088E195E0E7
:103E7000EDB7FEB7928381838BE899E094838383C7
:103E80000E946CC40F900F900F900F9080919B0A2E
:103E9000833091F400D000D088E195E0EDB7FEB713
:103EA0009283818380E899E0948383830E946CC429
:103EB0000F900F900F900F9080919B0A843091F497
:103EC00000D000D088E195E0EDB7FEB79283818302
:103ED00082E799E0948383830E946CC40F900F90D3
:103EE0000F900F9082E090E00E94371E08950F938C
:103EF0001F93CF93DF9300D000D088E195E0EDB71A
:103F0000FEB79283818381EB99E0948383830E943F
:103F10006CC40F900F900F900F900E94201E01E232
:103F20001AE0C0E0D0E04091690A552747FD50955E
:103F30000C2E02C0559547950A94E2F741705070D7
:103F40008C2FF80160810E94B71D2196045F1F4FDE
:103F5000C630D10541F782E090E00E94371EDF9124
:103F6000CF911F910F910895CF93DF9300D000D090
:103F7000C8E1D5E0ADB7BEB71296DC93CE931197EA
:103F80008CE19AE014969C938E9313970E946CC4D4
:103F90000F900F900F900F900E94201E2091CC0A3E
:103FA000222321F480E00E94FE1020C000D000D027
:103FB00000D0EDB7FEB73196ADB7BEB71296DC9321
:103FC000CE93119787E19AE093838283822F99277A
:103FD00087FD9095958384830E946CC4EDB7FEB7EE
:103FE00036960FB6F894FEBF0FBEEDBF82E090E0AC
:103FF0000E94371EDF91CF91089500D000D088E154
:1040000095E0EDB7FEB79283818386EA93E19483CE
:1040100083830E946CC40F900F900F900F900E94AA
:10402000201E8091B6120E94FE1082E090E00E9455
:10403000371E0895ACE0B0E0E0E2F0E20C9456DC0C
:1040400085E997E00E948EB0DE011196EAE1F8E082
:104050008CE001900D928150E1F7A5E1B1E1FE0104
:1040600031968CE001900D928150E1F72C96E2E0C0
:104070000C9472DCA0E3B0E0E0E4F0E20C9446DCE7
:10408000DE011196E6ECF7E084E201900D9281509A
:10409000E1F729803A804B805C806D847E848F8438
:1040A0009888A98CBA8CCB8CDC8C89A19AA1ABA105
:1040B000BCA189A79AA7ABA7BCA78D8D9E8DAF8DFC
:1040C000B8A18DA39EA3AFA3B8A7C201B101A2015D
:1040D00091010E9410DB7B018C01C401B301A4019A
:1040E00093010E9410DB9B01AC01C801B7010E9443
:1040F00007D80E947DDB6DA77EA78FA798ABD6015E
:10410000C501B05880936D1190936E11A0936F11FB
:10411000B0937011C601B501A60195010E9410DB94
:104120009B01AC0160E070E080E89FE30E9406D84C
:104130000E947DDB7B018C0160935B0370935C03C9
:1041400080935D0390935E0369A57AA58BA59CA5DA
:10415000A80197010E94EBD860935F0370936003FE
:1041600080936103909362036DA17EA18FA198A5B6
:10417000A80197010E94EBD860937111709372119E
:104180008093731190937411C401B3012DA53EA5C2
:104190004FA558A90E94EBD8609363037093640302
:1041A0008093650390936603C201B1012DA53EA5DE
:1041B0004FA558A90E94EBD86093751170937611A2
:1041C0008093771190937811E096E2E10C9462DC91
:1041D000A4E2B0E0EEEEF0E20C9450DC0E94481E47
:1041E00085E497E063EA76ED0E9484C00E94481E51
:1041F0000E947A1068EE73E080E090E00E94A3D6FF
:104200000E946FD6609368117093691180936A1150
:1042100090936B1115E0C12E17E0D12EB8E1EB2E73
:10422000B5E0FB2E8E010F5F1F4F0E946FD62091CD
:1042300068113091691140916A1150916B11621BA4
:10424000730B840B950B653071058105910508F49E
:104250006AC00E941A2080916C118F5F80936C114C
:10426000843011F40E943A2080916C11843109F05D
:104270005AC00E94981710926C118DB79EB7409744
:104280000FB6F8949EBF0FBE8DBFEDB7FEB7319647
:10429000ADB7BEB71296FC92EE921197D382C2824E
:1042A0008091950790919607A0919707B0919807F4
:1042B00084839583A683B7838091990790919A0709
:1042C000A0919B07B0919C0780879187A287B387B5
:1042D00080919D0790919E07A0919F07B091A007A4
:1042E00084879587A687B7870E946CC48DB79EB7D1
:1042F00040960FB6F8949EBF0FBE8DBF8091B40A52
:10430000882389F084EB95E00E945190D801E6EC77
:10431000F7E084E201900D928150E1F784EB95E0A3
:10432000B8010E942C9D88E195E00E94E3C4181614
:1043300019060CF07ACF80E0A496E8E00C946CDCCF
:10434000AF92BF92CF92DF92EF92FF920F931F93A3
:104350007C018B01FB016781708581859285F70166
:104360002781308541855285621B730B840B950B29
:104370000E9486D95B016C01F8016385748585858F
:104380009685F7012385348545855685621B730B19
:10439000840B950B0E9486D92091690330916A03A2
:1043A00040916B0350916C030E9410DB7B018C01E8
:1043B000C601B501A60195010E9410DB5B016C01ED
:1043C000C801B701A80197010E9410DB9B01AC0155
:1043D000C601B5010E9407D80E947DDB28EC32E6B9
:1043E00046E35CE30E9410DB0E9453D99B01AC01C1
:1043F000CA011F910F91FF90EF90DF90CF90BF9077
:10440000AF900895CF92DF92FF920F931F93CF93B7
:10441000DF930E947A1000D000D008E115E0ADB71C
:10442000BEB712961C930E93119784E697E01496EC
:104430009C938E9313970E946CC40F900F900F90D3
:104440000F9068EE73E080E090E00E94A3D680E6D3
:10445000C82E87E0D82EC0E0D0E0F02E012F21C07A
:104460008EE495E06C2F0E94CA8100D000D000D06D
:10447000EDB7FEB73196ADB7BEB71196FC92119766
:1044800012960C93D382C282958384830E946CC45B
:104490002196EDB7FEB736960FB6F894FEBF0FBE65
:1044A000EDBFC930D105E4F288E195E00E9428D53E
:1044B00064E170E080E090E00E94A3D688E195E09E
:1044C0000E94E3C4181619061CF0C0E0D0E0E9CF42
:1044D00080E0DF91CF911F910F91FF90DF90CF90FF
:1044E0000895A0E0B0E0E7E7F2E20C9450DC0E940F
:1044F0007A1068EE73E080E090E00E94A3D629E68F
:10450000C22E27E0D22E98E1E92E95E0F92E6DE437
:1045100071E080E090E00E94A3D60E94D60F8091C7
:104520001311909114110E947FBAC0911311D09170
:1045300014118FA1882309F445C08DB79EB7429707
:104540000FB6F8949EBF0FBE8DBF0DB71EB70F5F9D
:104550001F4FEDB7FEB7F282E182F801D382C2822B
:104560008C859D85AE85BF8584839583A683B7831F
:1045700088899989AA89BB8980879187A287B3870F
:104580006C897D898E899F8924E630E040E050E087
:104590000E942BDCF80124873587468757878EA138
:1045A000808B118A0E946CC4E0911311F091141158
:1045B00017A28DB79EB742960FB6F8949EBF0FBE56
:1045C0008DBF06C088E195E063E072E00E9458D498
:1045D00088E195E00E94E3C4181619060CF097CF05
:1045E00080E0CDB7DEB7E8E00C946CDC00D000D002
:1045F00088E195E0EDB7FEB79283818386EF97E07F
:10460000948383830E946CC40F900F900F900F903F
:1046100088E291E10E94BD8C80E008958DE391E1F4
:104620000E94BD8C80E00895CF93DF9300D000D02E
:10463000C8E1D5E0EDB7FEB7D283C18382EC98E044
:10464000948383830E946CC40F900F900F900F90FF
:104650008091340B9091350B8451954064F168EE54
:1046600073E080E090E00E94A3D600D000D0EDB7C8
:10467000FEB7D283C18389E998E0948383830E9443
:104680006CC40F900F900F900F9068EE73E080E075
:1046900090E00E94A3D600D000D0EDB7FEB7D28341
:1046A000C18386E798E0948383830E946CC40F9053
:1046B0000F900F900F908FE291E10E94BD8C80E0EF
:1046C000DF91CF91089581E291E10E94BD8C80E05D
:1046D000089584E89AE00E94DF8500D000D088E148
:1046E00095E0EDB7FEB7928381838AEA99E09483DF
:1046F00083830E946CC40F900F900F900F900E94C4
:10470000201E80918F0A0E94FE1082E090E00E949D
:10471000371E0895A0E0B0E0E0E9F3E20C9450DC2D
:1047200000D000D048E1E42E45E0F42EADB7BEB78E
:104730001296FC92EE9211978EE09AE014969C935A
:104740008E9313970E946CC40F900F900F900F9050
:104750000E94201E8091B40A0E94FE1034EBC32EEA
:1047600035E0D32EC6010E941695CDB7DEB7289747
:104770000FB6F894DEBF0FBECDBF0DB71EB70F5FEB
:104780001F4FFA82E9822EEF39E0F801338322834A
:1047900021EE3EE245E652E40E9410DBD801149679
:1047A0006D937D938D939C9317970E946CC4CDB7A6
:1047B000DEB728960FB6F894DEBF0FBECDBFC60198
:1047C0000E9411959C01EDB7FEB770970FB6F89453
:1047D000FEBF0FBEEDBF3196ADB7BEB71296FC92CD
:1047E000EE9211978DED99E093838283E9018881A0
:1047F0009981AA81BB8184839583A683B7838C81A9
:104800009D81AE81BF8180879187A287B38788858C
:104810009985AA85BB8584879587A687B7870E94D7
:104820006CC4EDB7FEB770960FB6F894FEBF0FBE1E
:10483000EDBF82E090E00E94371ECDB7DEB7E8E022
:104840000C946CDCFF920F931F93F82E8B0188E081
:1048500090E00E94371E0E94651E0E948E1E0E94DC
:10486000A91E0E94001F0E9469230E94771F0E94B8
:10487000481E0E948A238F2DB8010E94918B80E0F0
:104880001F910F91FF900895FB01608971898289C2
:10489000938925E33AEF4EE85CE30E9410DBAB011D
:1048A000BC0184EB95E00E94B19F0E948A2380E0C6
:1048B0000895FB0184858093CC0A81EC9AE00E94E4
:1048C0006E860E94B41F80E0089500D000D088E179
:1048D00095E0EDB7FEB7928381838BEC9AE09483E9
:1048E00083830E946CC481E08093C00A0F900F9074
:1048F0000F900F9085EB9AE00E946E8664E170E065
:1049000080E090E00E94A3D688E195E00E94E3C495
:10491000181619069CF71092C00A85EB9AE00E94BF
:104920006E8680E0089564E170E080E090E00E948F
:10493000A3D60E9498178091DC0B9091DD0B909389
:104940007B1180937A1190937D1180937C119093C9
:1049500081118093801120911F0B3091200B4BE02F
:10496000293B340734F08C599F4F90937B118093EF
:104970007A112854344F54F480917C1190917D1118
:104980008C599F4F90937D1180937C118091730B74
:104990009091740B895B9B4054F0809180119091B1
:1049A00081118C599F4F9093811180938011409178
:1049B0007A1150917B1182EF92E160E00E94908029
:1049C00040917C1150917D1182EF92E161E00E9453
:1049D0009080409180115091811182EF92E163E0CB
:1049E0000E94908088E195E00E94E3C418161906A1
:1049F0000CF099CF1092C00A85EB9AE00E946E8667
:104A000080E00895FF920F931F93CF93DF9300D020
:104A100000D088E195E0EDB7FEB79283818380E70F
:104A20009AE0948383830E946CC40F900F900F9040
:104A30000F900E947A10FF2400E0C1E0D0E064E112
:104A400070E080E090E00E94A3D60E9498170E9438
:104A5000380F182FF81609F190E0FC01EE0FFF1F38
:104A6000E80FF91FEE0FFF1FEE0FFF1FEA5EF54F75
:104A70000385083008F007E04091690A552747FD93
:104A80005095012E02C0559547950A94E2F7417062
:104A90005070812F602F0E94B71D80911F0B909145
:104AA000200B97FF03C0909581959F4F895B9B409A
:104AB0004CF10F5F083009F400E0812F90E0FC0119
:104AC000EE0FFF1FE80FF91FEE0FFF1FEE0FFF1F86
:104AD000EA5EF54F03874091690A552747FD5095D7
:104AE000012E02C0559547950A94E2F74170507027
:104AF000812F602F0E94B71D64EF71E080E090E08D
:104B00000E94A3D680911B0C90911C0C895B9B404A
:104B10000CF1CE01012E02C0880F991F0A94E2F712
:104B20004091690A482B4093690A552747FD5095E3
:104B3000012E02C0559547950A94E2F741705070D6
:104B4000812F602F0E94B71D64EF71E080E090E03C
:104B50000E94A3D680911B0C90911C0C8854944FFA
:104B60001CF5CE01012E02C0880F991F0A94E2F7AE
:104B700080952091690A82238093690A482F5527DE
:104B800047FD5095012E02C0559547950A94E2F7CE
:104B900041705070812F602F0E94B71D64EF71E04B
:104BA00080E090E00E94A3D688E195E00E94E3C4F3
:104BB000F12E181619060CF042CFC6E1DAE0CE014C
:104BC0000E946E862C96FAE0CE35DF07C1F7CE0143
:104BD0000E946E860E940A130E94771F80E0CDB764
:104BE000DEB7E5E00C946FDCA4E2B0E0EAEFF5E2BA
:104BF0000C9454DC80E090E0A0E8BFE389839A83C2
:104C0000AB83BC8380E090E0A0E0B0E08D839E8326
:104C1000AF83B88789879A87AB87BC878D879E8744
:104C2000AF87B88B20E030E040E85FEB298B3A8B10
:104C30004B8B5C8B8D8B9E8BAF8BB88F898F9A8FB4
:104C4000AB8FBC8F8D8F9E8FAF8FB8A329A33AA354
:104C50004BA35CA304EB15E0C801BE016F5F7F4F5F
:104C60000E941D9085E997E0B8010E94EEA0C8015E
:104C70000E947592C8010E941195A496E4E00C94DC
:104C800070DCCF93DF93FB01C285D385CE0166E54F
:104C90007AE00E9406DE892B21F481E080938F0A5E
:104CA00009C0CE0162E57AE00E9406DE892B39F464
:104CB00010928F0A84E89AE00E946E8612C000D09B
:104CC00000D088E195E0EDB7FEB7928381838EE353
:104CD0009AE0948383830E946CC40F900F900F908E
:104CE0000F900E94692380E0DF91CF910895CF93C8
:104CF000DF93FB01EB012A96828593856CE67AE0CF
:104D00000E9406DE892B19F410929B0A0FC02A819B
:104D10003B814C815D81DA01C9010197A109B1098B
:104D20000497A105B10538F420939B0A80E99AE025
:104D30000E946E8612C000D000D088E195E0EDB7E9
:104D4000FEB79283818389E59AE0948383830E94EE
:104D50006CC40F900F900F900F900E94001F80E086
:104D6000DF91CF910895CF93DF93FB01C285D38567
:104D7000CE0167EA7BE00E9406DE892B11F481E018
:104D800019C0CE0165EA7BE00E9406DE892B39F06E
:104D9000CE0163EA7BE00E9406DE892B19F41092B3
:104DA000D80A0AC0CE0161EA7BE00E9406DE892BA8
:104DB00041F482E08093D80A8DEC9AE00E946E86DE
:104DC00012C000D000D088E195E0EDB7FEB7928325
:104DD00081838FE89BE0948383830E946CC40F904F
:104DE0000F900F900F900E94A91E80E0DF91CF914D
:104DF0000895ACE0B0E0EFEFF6E20C9454DCFB0178
:104E000002851385C8016BE37AE00E9406DE892BD8
:104E100051F481E08093B40A89EA9AE00E946E8698
:104E20000E94F4253CC0C80167E37AE00E9406DED8
:104E3000892B11F580E090E0A0E0B0E089839A83AF
:104E4000AB83BC838D839E83AF83B88789879A8722
:104E5000AB87BC8784EB95E0BE016F5F7F4F0E94FC
:104E6000F49484EB95E00E94BD9F1092B40A89EA05
:104E70009AE00E946E8613C000D000D088E195E0D1
:104E8000EDB7FEB79283818384E29AE094838383B3
:104E90000E946CC40F900F900F900F9004C089EA8D
:104EA0009AE00E946E860E948A2380E02C96E4E0BD
:104EB0000C9470DC85E497E063EA76ED0E946FC0A5
:104EC0000E94DC110E94481E80E008950F931F93FA
:104ED000CF93DF9388E195E065E072E00E943FD5D3
:104EE00000E064E170E080E090E00E94A3D60E94C0
:104EF00098170F5F0436A9F7C0911D0BD0911E0BB8
:104F000081E0C43FD8073CF468EE73E080E090E0B5
:104F10000E94A3D6F9CFD093350BC093340B2091C8
:104F2000710B3091720B3093890B2093880B009199
:104F3000C50B1091C60B1093DD0B0093DC0B809119
:104F4000190C90911A0C9093310C8093300CA09115
:104F50006D0CB0916E0CB093850CA093840CE09115
:104F6000C10CF091C20CF093D90CE093D80C609175
:104F7000150D7091160D70932D0D60932C0D4091B1
:104F8000690D50916A0D5093810D4093800DD0931F
:104F90004F0BC0934E0B3093A30B2093A20B109397
:104FA000F70B0093F60B90934B0C80934A0CB09345
:104FB0009F0CA0939E0CF093F30CE093F20C709373
:104FC000470D6093460D50939B0D40939A0DD093DF
:104FD000420BC093410B3093960B2093950B90930B
:104FE0003E0C80933D0C8CED95E09093920C809359
:104FF000910C9093E60C8093E50C90933A0D80937E
:10500000390D90938E0D80938D0D00D000D088E1E6
:1050100095E0EDB7FEB79283818389EA9BE09483A4
:1050200083830E946CC40F900F900F900F9064E1E7
:1050300070E080E090E00E94A3D60E94981782E181
:105040009BE00E94A7CE86E69BE00E94A7CE8AEB5B
:105050009BE00E94A7CE8EE09CE00E94A7CE82E655
:105060009CE00E94A7CE86EB9CE00E94A7CE8AE03F
:105070009DE00E94A7CE8EE59DE00E94A7CE88E12C
:1050800095E00E94E3C4181619068CF664E170E0FE
:1050900080E090E00E94A3D688E195E00E9460C580
:1050A00082E19BE00E94DDD086E69BE00E94DDD09D
:1050B0008AEB9BE00E94DDD08EE09CE00E94DDD078
:1050C00082E69CE00E94DDD086EB9CE00E94DDD071
:1050D0008AE09DE00E94DDD08EE59DE00E94DDD05B
:1050E0000E940A130E948E1E80E0DF91CF911F91D3
:1050F0000F91089500D000D088E195E0EDB7FEB79C
:105100009283818386E09CE0948383830E946CC4B5
:105110000F900F900F900F9088E195E00E9413C5BB
:10512000FFEF8F3F9F07C1F38937910529F089353C
:10513000910511F08FEF08950E944A8600D000D0AB
:1051400088E195E0EDB7FEB79283818381EE9BE025
:10515000948383830E946CC40F900F900F900F90E4
:1051600068EE73E080E090E00E94A3D6FFCFCF937B
:10517000DF9300D000D088E195E0EDB7FEB79283D1
:10518000818384E49CE0948383830E946CC4C0E0A8
:10519000D0E00F900F900F900F90CE0160E00E9432
:1051A00007E12196F0E1C030DF07B9F700D000D069
:1051B00088E195E0EDB7FEB7928381838EE39CE0B2
:1051C000948383830E946CC40F900F900F900F9074
:1051D000DF91CF9108950E94B72880E00895EF9263
:1051E000FF920F931F93CF93DF937B018230A1F047
:1051F00000D000D088E195E0EDB7FEB792838183BF
:1052000083E09DE0948383830E946CC48FEF0F90B2
:105210000F900F900F9091C0FB0102851385C8017C
:105220006FEF7CE00E94F3DD892B19F4CFEFDFEF05
:1052300063C0C80161EF7CE00E94F3DDC0E0D0E014
:10524000892B11F4C1E0D0E0C80164EE7CE00E943B
:10525000F3DD892B09F4C260C80160EE7CE00E9496
:10526000F3DD892B09F4C460C8016DED7CE00E9478
:10527000F3DD892B09F4C860C80168ED7CE00E9469
:10528000F3DD892B09F4C061C80163ED7CE00E9465
:10529000F3DD892B09F4C062C8016EEC7CE00E944A
:1052A000F3DD892B09F4C064C8016AEC7CE00E943C
:1052B000F3DD892B09F4C068C80166EC7CE00E942C
:1052C000F3DD892B09F4D160C80162EC7CE00E9417
:1052D000F3DD892B09F4D260C8016BEB7CE00E94FE
:1052E000F3DD892B09F4D460C80163EB7CE00E94F4
:1052F000F3DD892B09F4D860F701808191816CEA94
:105300007CE00E94F3DD892B39F48091750A90913D
:10531000760AC82BD92B08C0C095D0958091750A04
:105320009091760AC823D923D093760AC093750A40
:105330008AE69AE00E946E8680E0CDB7DEB7E6E0AE
:105340000C946EDCCF93DF9300D000D088E195E021
:10535000EDB7FEB79283818383E29DE094838383DC
:105360000E946CC4C1E0D0E00F900F900F900F909E
:105370008CEC93E1BE010E94C9C12196F0E1C030DE
:10538000DF07B1F78CEC93E161E070E00E94BDC1F2
:105390008CEC93E163EA0E9473C28CEC93E165E9C3
:1053A0000E9473C28CEC93E160EF0E9473C28CEC9C
:1053B00093E160E00E9473C28CEC93E16AEB0E947F
:1053C00073C28CEC93E10E94EBC200D000D088E164
:1053D00095E0EDB7FEB79283818385E19DE09483EC
:1053E00083830E946CC40F900F900F900F9080E009
:1053F000DF91CF9108956F927F928F929F92AF929B
:10540000BF92CF92DF92EF92FF920F931F930CEC1B
:1054100013E1C8010E94D4C33C01C8010E94D4C357
:105420004C01C8010E94D4C35C01C8010E94D4C3CE
:105430006C01C8010E94D4C37C01C8010E94D4C37E
:105440002DB73EB7205130400FB6F8943EBF0FBE87
:105450002DBFEDB7FEB7319628E135E0ADB7BEB749
:1054600012963C932E93119722E43DE033832283DE
:105470007582648297828682B186A086D386C28630
:10548000F586E486978786870E946CC42DB73EB761
:10549000205F3F4F0FB6F8943EBF0FBE2DBF1F9148
:1054A0000F91FF90EF90DF90CF90BF90AF909F90C3
:1054B0008F907F906F900895EF92FF920F931F93BC
:1054C00000D000D008E115E0ADB7BEB712961C932E
:1054D0000E93119785E69DE014969C938E931397F7
:1054E0000E946CC40F900F900F900F908CECE82EE0
:1054F00083E1F82EC7010E9463C3E82FF0E0EE0FAE
:10550000FF1FE255FC4F60817181C8010E9458D491
:10551000C7010E94D4C300D000D000D0EDB7FEB7C1
:105520003196ADB7BEB712961C930E9311972FE527
:105530003DE033832283958384830E946CC4EDB75E
:10554000FEB736960FB6F894FEBF0FBEEDBF1F91A3
:105550000F91FF90EF9008952F923F924F925F929C
:105560006F927F928F929F92AF92BF92CF92DF9273
:10557000EF92FF920F931F930CEC13E1C8010E946E
:10558000D4C31C01C8010E94D4C32C01C8010E94CD
:10559000D4C33C01C8010E94D4C34C01C8010E947D
:1055A000D4C35C01C8010E94D4C36C01C8010E942D
:1055B000D4C37C01C8010E94D4C32DB73EB7245187
:1055C00030400FB6F8943EBF0FBE2DBFEDB7FEB70B
:1055D000319628E135E0ADB7BEB712963C932E93D5
:1055E00011972AE63DE03383228335822482578255
:1055F00046827186608693868286B586A486D78623
:10560000C686F18AE08A938B828B0E946CC42DB788
:105610003EB72C5E3F4F0FB6F8943EBF0FBE2DBF76
:105620001F910F91FF90EF90DF90CF90BF90AF90C0
:105630009F908F907F906F905F904F903F902F90B2
:1056400008959F92AF92BF92CF92DF92EF92FF9216
:105650000F931F930CEC13E1C8010E94D4C35C01AB
:10566000C8010E9463C3982EC8010E94D4C36C0174
:10567000C8010E94D4C37C01C8010E94D4C32DB7C5
:105680003EB72E5030400FB6F8943EBF0FBE2DBF30
:10569000EDB7FEB7319628E135E0ADB7BEB712964B
:1056A0003C932E93119720E93DE033832283B5820A
:1056B000A48296821782D186C086F386E286958779
:1056C00084870E946CC42DB73EB7225F3F4F0FB650
:1056D000F8943EBF0FBE2DBF1F910F91FF90EF902A
:1056E000DF90CF90BF90AF909F900895AF92BF9200
:1056F000CF92DF92EF92FF920F931F930CEC13E186
:10570000C8010E94D4C35C01C8010E94D4C36C01CB
:10571000C8010E94D4C37C01C8010E94D4C32DB724
:105720003EB72C5030400FB6F8943EBF0FBE2DBF91
:10573000EDB7FEB7319628E135E0ADB7BEB71296AA
:105740003C932E93119727E23EE033832283B58268
:10575000A482D782C682F186E086938782870E94E0
:105760006CC42DB73EB7245F3F4F0FB6F8943EBFD1
:105770000FBE2DBF1F910F91FF90EF90DF90CF9044
:10578000BF90AF9008951F938CEC93E161E070E0BF
:105790000E94EAC310E08CEC93E10E9463C31130D5
:1057A00051F0113018F0123099F408C010E0833A2B
:1057B00079F411E00DC0853951F407C0803F39F408
:1057C0008CEC93E10E9463C30AC012E001C010E0B8
:1057D0008CEC93E10E9424C10197E9F280E01F91D3
:1057E0000895EF92FF920F931F93CF93DF938C0155
:1057F000C0E0D0E11FC0CE01800F911F62E070E0D9
:105800000E94F6DBF62EE72E8CEC93E10E94EAC3B1
:105810008CEC93E10E9493C36F5F7F4F8F4F9F4F3C
:1058200029F48F2D9E2D9C01E90104C08F2D9E2D02
:105830009C018901CE01801B910B0297E4F6CE01F9
:10584000CDB7DEB7E6E00C946EDCA0E0B0E0EBE2B2
:10585000FCE20C944EDCE82E6B015A018CEC93E1D7
:1058600061E070E00E94EAC310E08CEC93E10E94DA
:1058700063C3113051F0113018F01230A9F508C08F
:1058800010E0833A89F511E02FC0853961F529C010
:10589000803F49F58CEC93E10E9463C3F82EC0E091
:1058A000D0E00E2D10E00FC08CEC93E10E94D4C329
:1058B000F601918380838CEC93E10E94D4C3F501BF
:1058C000918380832196C017D10774F3EF1499F464
:1058D000F601808191810E94F12BF50191838083F3
:1058E0000AC012E001C010E08CEC93E10E9424C1D8
:1058F000019709F4BACFCDB7DEB7EAE00C946ADCC1
:10590000A4E0B0E0E6E8FCE20C944ADC0E94C32B81
:10591000D82E00D000D008E115E0ADB7BEB7129682
:105920001C930E9311978CE991E114969C938E939E
:1059300013970E946CC48091750A9091760A0F901B
:105940000F900F900F90009759F400D000D0EDB752
:10595000FEB71283018387E991E19483838308C1B1
:1059600080FF14C000D000D0ADB7BEB712961C9314
:105970000E93119788E891E114969C938E93139758
:105980000E946CC40F900F900F900F908091750A39
:1059900081FF12C000D000D088E195E0EDB7FEB7DE
:1059A000928381838AE791E1948383830E946CC40C
:1059B0000F900F900F900F908091750A82FF16C084
:1059C00000D000D088E195E0ADB7BEB712969C93A9
:1059D0008E93119785E791E114969C938E9313977C
:1059E0000E946CC40F900F900F900F908091750AD9
:1059F00083FF12C000D000D088E195E0EDB7FEB77C
:105A00009283818381E791E1948383830E946CC4B4
:105A10000F900F900F900F908091750A84FF16C021
:105A200000D000D088E195E0ADB7BEB712969C9348
:105A30008E9311978BE691E114969C938E93139716
:105A40000E946CC40F900F900F900F908091750A78
:105A500085FF12C000D000D088E195E0EDB7FEB719
:105A60009283818385E691E1948383830E946CC451
:105A70000F900F900F900F908091750A87FF16C0BE
:105A800000D000D088E195E0ADB7BEB712969C93E8
:105A90008E93119780E691E114969C938E931397C1
:105AA0000E946CC40F900F900F900F908091750A18
:105AB0009091760A90FF12C000D000D088E195E066
:105AC000EDB7FEB7928381838BE591E19483838365
:105AD0000E946CC40F900F900F900F908091750AE8
