:100000000C94AB0B0C94D70B0C94D70B0C94D70B14
:100010000C94D70B0C94D70B0C94D70B0C94D70BD8
:100020000C94D70B0C94D70B0C94D70B0C94D70BC8
:100030000C94D70B0C94D70B0C94D70B0C94B6885C
:100040000C94D70B0C94D70B0C94D70B0C94D70BA8
:100050000C94D70B0C94D70B0C94D70B0C94BFD8E3
:100060000C94D70B0C94430E0C94830E0C94D70B6A
:100070000C94D70B0C94D70B0C94D70B0C94D70B78
:100080000C94D70B0C94D70B0C94D70B0C94D70B68
:100090000C94D50E0C94150F0C94D70B0C9435D5ED
:1000A0000C94D70B0C9415870C94D70B0C94D70B8E
:1000B0000C94D70B0C94D70B0C94D70B0C94D70B38
:1000C0000C94D70B0C94D70B0C94D70B0C94D70B28
:1000D0000C94D70B0C94D70B0C94670F0C94A70FB0
:1000E0000C94D70B381D591DD01D8E1DAF1DE91D59
:1000F000021E1B1E341E521E783299327B327E3213
:100100008132843287328A328D3290329332963203
:10011000613E613E853EF43EC93E0F3F2A3F573F58
:10012000953FDC3F62595E596B5971598D59D159D0
:10013000BD59E859A959BB5AE75AF05AF35AF65A29
:100140003963F95A396339633963FC5AFF5A025BE0
:10015000225B205B205B205B2E5B205B245B205BB3
:10016000205B315B405B335B365B205B205B205B5D
:10017000395B205B205B205B205B205B405B205B6E
:10018000425B8C87918796879B87A087A587AA87E4
:10019000AF87B487B987BE8742BE3DBE46BE4ABE62
:1001A00058BE71BE9BBEACBEEBBFE6BFEFBFF8BF93
:1001B0001FC02BC045C066C06DC0FCD9FFD9F2D9A5
:1001C000F6D938DA03DA07DA0DDA11DA15DA1BDADA
:1001D0001FDA23DA29DA2DDA33DA036EDB363D9AB9
:1001E0009999993DABAAAA2A3E000000803F084A8F
:1001F000D73B3BCE016E84BCBFFDC12F3D6C74313B
:100200009ABD56833DDA3D00C77F11BED9E4BB4C91
:100210003E916BAAAABE000000803F072C7AA5BAC7
:100220006CC590DA3B9365FC8BBC53F810FD3C56D3
:1002300092834DBD879D3AB63DCBC9BF5BBE73DA95
:100240000FC93F05A84CCDB2D44EB93836A9020C1F
:1002500050B9918688083CA6AAAA2ABE0000008050
:100260003F08000000BE922449123EABAAAA2ABE53
:10027000CDCCCC4C3E00000080BEABAAAAAA3E006A
:10028000000000BF000000803F00000000000841A7
:1002900078D3BB4387D1133D190E3CC3BD4282AD19
:1002A0002B3E68EC8276BED98FE1A93E4C80EFFFF1
:1002B000BE01C4FF7F3F00000000004C6F67006478
:1002C000756D7000000000000000000000AC326599
:1002D00072617365000000000000000000062B65DD
:1002E0006E61626C650000000000000000532A642B
:1002F000697361626C6500000000000000532A68A9
:10030000656C700000000000000000000094147094
:100310006C616E6E65720067637300000000000020
:100320000000000000DB6473657475700065726125
:1003300073650000000000000000004F2A72657322
:100340006574000000000000000000DE2972616496
:10035000696F000000000000000000CA286672619A
:100360006D6500000000000000000017286D6F742C
:100370006F72730000000000000000E725657363E2
:100380000000000000000000000000B9256C657648
:10039000656C000000000000000000BE286D6F6466
:1003A0006573000000000000000000E52662617433
:1003B0007465727900000000000000DB27736F6E27
:1003C0006172000000000000000000A527636F6D4F
:1003D00070617373000000000000005D2874756E8A
:1003E0006500000000000000000000AD25646563AA
:1003F0006C696E6174696F6E000000982573686F98
:1004000077000000000000000000007625417264C3
:1004100075436F7074657220322E302E3431204255
:10042000657461006C6F67730000000000000000DD
:100430000000B724736574757000000000000000B0
:100440000000682474657374000000000000000060
:100450000000622468656C7000000000000000006D
:1004600000009913706C616E6E65720000000000F0
:1004700000004A24746573740070776D00000000FA
:1004800000000000000000221A726164696F000021
:1004900000000000000000B6196661696C736166B7
:1004A00065000000000000E91067707300000000A4
:1004B00000000000000000C523616463000000002C
:1004C000000000000000005723696D750000000067
:1004D00000000000000000B221626174746572794E
:1004E00000000000000000F91274756E6500000045
:1004F00000000000000000631E747269000000002C
:1005000000000000000000AC1C63757272656E7420
:1005100000000000000000231C72656C617900007F
:10052000000000000000009F12776179706F696E13
:10053000747300000000000B18616C7469747564BA
:1005400065000000000000F916736F6E6172000014
:1005500000000000000000D415636F6D70617373BC
:10056000000000000000001C1578626565000000B6
:10057000000000000000004312656564756D7000A6
:1005800000000000000000BB147261776770730008
:1005900000000000000000041248697420456E74D9
:1005A000657220746F20657869742E0A0A00202510
:1005B00030327800253034783A00426567696E2021
:1005C0005842656520582D4354552052616E676529
:1005D00020616E64205253534920546573743A0A63
:1005E00000436F6D706173733A2000486561646900
:1005F0006E673A20256C642C2058595A3A2025649D
:100600002C2025642C2025640A0061626C65640A34
:100610000064697300656E00536F6E61723A202545
:100620006420636D0A00536F6E61722064697361A8
:10063000626C65640A004261726F3A202564636DE2
:100640000A00486974207261643A2025640A002512
:10065000642077700A006F662025646D0A000A0026
:10066000486F6C6420616C742000636F6D6D616E07
:100670006420233A2025642069643A2564206F7041
:100680003A25642070313A25642070323A256C6432
:100690002070333A256C642070343A256C64200A4B
:1006A0000052656C6179206F66660A0052656C6164
:1006B00079206F6E0A00563A2025342E34662C209D
:1006C000413A2025342E34662C206D41683A20258D
:1006D000342E34660A00696E7075743A20256409F8
:1006E0006F757470757425640A0074756E653A20B0
:1006F00025312E33660A004E6F7420656E61626C80
:1007000065640A0063703A2025312E32662C20730E
:10071000703A2025312E32662C2063723A20253122
:100720002E32662C2073723A2025312E32662C2010
:1007300063793A2025312E32662C2073793A2025B0
:10074000312E32662C0A00256C642C20256C642C1A
:1007500020256C640A00494D550A004779726F20C4
:100760006F6666736574733A2025342E32662C20CA
:1007700025342E32662C2025342E32660A00416341
:1007800063656C206F6666736574733A2025342E3A
:1007900032662C2025342E32662C2025342E3266EB
:1007A0000A0025642C004144430A004C61743A203D
:1007B000256C642C204C6F6E20256C642C20416CC1
:1007C000743A20256C646D2C2023736174733A2075
:1007D00025640A00494E2020313A20256409323A26
:1007E00020256409333A20256409343A2025640918
:1007F000353A20256409363A20256409373A202500
:10080000640A00494E3A20313A20256409323A20E0
:10081000256409333A20256409343A2025640935D2
:100820003A20256409363A20256409373A202564A0
:1008300009383A2025640A00506C616E6E6572209A
:100840004D6F64650A4E6F7420696E74656E6465E1
:100850006420666F72206D616E75616C20757365C2
:100860000A0A00436F6D6D616E64733A0A20206C52
:100870006F67730A202073657475700A2020746591
:1008800073740A2020706C616E6E65720A0A4D6F77
:1008900076652074686520736C6964652073776978
:1008A00074636820616E6420726573657420746F70
:1008B00020464C592E0A0A000A20547970652027D8
:1008C000726164696F2720746F20636F6E66696759
:1008D000757265206E6F772E0A0A000A21576172C1
:1008E0006E696E672C20796F757220726164696F12
:1008F000206973206E6F7420636F6E66696775720E
:10090000656421005365747570204D6F64650A0A33
:100910000A0046572056657273696F6E2025640A77
:1009200000526164696F0A004348373A2025642009
:100930007C2025640A004348363A202564207C2028
:1009400025640A004348353A202564207C2025642C
:100950000A004348343A202564207C2025640A009C
:100960004348333A202564207C2025640A0043480C
:10097000323A202564207C2025640A004348313A1D
:10098000202564207C2025640A0056206D6F646554
:100990000A002B206D6F64650A0058206D6F646536
:1009A0000A0048657861206672616D650A004672CA
:1009B000616D650A00766F6C747320616E642063EC
:1009C0007572006261747420766F6C7473003420E9
:1009D00063656C6C7300332063656C6C73000A4252
:1009E000617474204D6F696E746F720A00536F6E7C
:1009F00061720A00466C69676874206D6F64657384
:100A00000A00506F732025643A20004D6167206F03
:100A10006666736574733A2025342E34662C20255F
:100A2000342E34662C2025342E3466004D61672028
:100A30004465633A2025342E34660A00436F6D7096
:100A40006173730A002025640A000A54554E453A22
:100A50000A000A4F7074696F6E733A5B6F6E2C6F89
:100A600066665D0A006F6666006F6E000A4F7074FE
:100A7000696F6E733A5B6F6E2C206F66665D0A005D
:100A80006F6666006F6E000A4F7074696F6E733A1E
:100A9000206F66662C20312D34006F6666000A4D8B
:100AA0006F766520524320746F67676C652073779B
:100AB0006974636820746F206561636820706F7368
:100AC0006974696F6E20746F20656469742C206D81
:100AD0006F76652061696C65726F6E2073746963EF
:100AE0006B20746F2073656C656374206D6F646533
:100AF000732E000A53617665642053657474696EC1
:100B000067730A0A000A4553432043616C696272A5
:100B10006174696F6E3A0A2D3120556E706C75677D
:100B20002055534220616E6420626174746572794D
:100B30000A2D32204D6F766520434C492F464C5983
:100B40002073776974636820746F20464C59206D58
:100B50006F64650A2D33204D6F7665207468726F5F
:100B600074746C6520746F206D61782C20636F6ED7
:100B70006E65637420626174746572790A2D342025
:100B800041667465722074776F206C6F6E672062A7
:100B9000656570732C207468726F74746C65207452
:100BA0006F20302C207468656E20746573740A0A97
:100BB00020507265737320456E74657220746F20C7
:100BC00063616E63656C2E0A000A4F7074696F6E04
:100BD000733A5B782C2B2C765D0A0076002B007024
:100BE0000078000A4D6F766520616C6C20636F6E33
:100BF00074726F6C7320746F206561636820657810
:100C00007472656D652E2048697420456E74657236
:100C100020746F20736176653A20000A4641435480
:100C20004F525920524553455420636F6D706C6587
:100C30007465202D207265626F6F742041504D00E5
:100C40000A275927202B20456E74657220746F2067
:100C5000666163746F72792072657365742C2061AC
:100C60006E79206F74686572206B657920746F20CF
:100C700061626F72743A0A00646F6E650A000A4519
:100C8000726173696E6720454550524F4D0A000AE4
:100C9000436F6D6D616E64733A0A202064756D70E8
:100CA000203C6E3E202065726173652028616C6C6B
:100CB000206C6F6773290A2020656E61626C652065
:100CC0003C6E616D653E207C20616C6C0A20206466
:100CD000697361626C65203C6E616D653E207C20AD
:100CE000616C6C0A0A00656E61626C65004F50545D
:100CF000464C4F57004D4F544F52530043555200EE
:100D0000434D4400524157004D4F4445004E545509
:100D10004E004354554E00504D004750530041542F
:100D20005449545544455F4D454400415454495439
:100D30005544455F4641535400616C6C006D6973C6
:100D400073696E67206C6F6720747970650A000A9A
:100D50004C6F67206572617365642E0A000A4572E4
:100D60006173696E67206C6F672E2E2E0A006261B8
:100D700064206C6F6720232025640A004154542CA2
:100D80002025642C2025642C2025750A002C202584
:100D9000640A004D4F443A004354554E2C202564BC
:100DA0002C2025642C2025642C2025642C202564EF
:100DB0002C2025642C2025642C2025642C202564DF
:100DC0000A004E54554E2C2025642C2025642C20DE
:100DD00025642C2025642C2025642C2025640A0001
:100DE000504D2C20256C642C2025642C2025642C4F
:100DF0002025642C2025642C2025642C2025642C9F
:100E00002025642C2025642C20256C640A00524186
:100E1000572C00434D442C2025642C2025642C2085
:100E200025642C2025642C2025642C20256C642C22
:100E300020256C642C20256C640A00435552523ADC
:100E40002025642C20256C642C2025342E34662C1F
:100E50002025342E34662C2025640A005354415238
:100E6000542055500A004D4F543A2025642C20251B
:100E7000642C2025642C2025640A004F462C202554
:100E8000642C2025642C2025642C2025342E3766E4
:100E90002C2025342E37660A004750532C20256C11
:100EA000642C2025642C2025642C2025342E3766C4
:100EB0002C2025342E37662C2025342E34662C2009
:100EC00025342E34662C2025642C2025750A0058E4
:100ED000545241434B5F005448525F484F4C445F6B
:100EE000004E41565F4C4F4E5F004E41565F4C41A5
:100EF000545F00484C445F4C4F4E5F00484C445F89
:100F00004C41545F005354425F5941575F00535462
:100F1000425F5049545F005354425F524C4C5F0053
:100F2000524154455F5941575F00524154455F500B
:100F300049545F00524154455F524C4C5F0052434C
:100F40005F43525F0052435F43505F005243385F3C
:100F5000005243375F005243365F005243355F0013
:100F60005243345F005243335F005243325F0052BA
:100F700043315F00464C4F575F454E41424C450060
:100F800054425F524154494F004652414D4500542E
:100F9000554E4500455343004D41475F454E414244
:100FA0004C4500424154545F4341504143495459D8
:100FB00000424154545F4D4F4E49544F5200534FDD
:100FC0004E41525F454E41424C4500414C545F48B2
:100FD0004F4C445F52544C004C4F475F4249544D74
:100FE00041534B0050495443485F4D415800464CD3
:100FF000544D4F44453600464C544D4F4445350002
:10100000464C544D4F44453400464C544D4F444596
:101010003300464C544D4F44453200464C544D4FDE
:10102000444531005452494D5F5448524F54544C3A
:1010300045005448525F46535F56414C5545005455
:1010400048525F46535F414354494F4E0054485203
:101050005F4641494C53414645005448525F4D411B
:1010600058005448525F4D494E0057505F53504509
:1010700045445F4D41580057505F4C4F49544552CD
:101080005F5241440057505F524144495553005705
:10109000505F4D5553545F494E4445580057505F7B
:1010A000494E4445580057505F544F54414C0057E7
:1010B000505F4D4F4445005854524B5F414E474C92
:1010C000455F43440053455249414C335F424155CB
:1010D000440053595349445F4D59474353005359B2
:1010E0005349445F544849534D415600535953495D
:1010F000445F53575F545950450053595349445F17
:1011000053575F4D52455600524556004D415800C9
:101110005452494D004D494E00494D415800490037
:101120005000494D555F53454E534F525F43414C1C
:10113000004C6F6720232025642C2020202073740E
:101140006172742025642C202020656E6420256443
:101150000A000A2564206C6F67730A000A4E6F202C
:101160006C6F67730A54797065202764756D702001
:1011700030272E0A0A00204F5054464C4F5700206B
:101180004D4F544F5253002043555252454E540038
:1011900020434D44002052415700204E54554E00EC
:1011A000204354554E0020504D00204750530020FE
:1011B00041545449545544455F4D454400204154E1
:1011C0005449545544455F46415354006E6F6E6513
:1011D000006C6F677320656E61626C65643A200015
:1011E000666C6967687420706C616E2072656365F7
:1011F0006976656400616374696F6E20726563650A
:10120000697665643A20006572726F723A206E6F7B
:101210006E2D4E617620636D64006F7574206F666D
:1012200020636F6D6D616E64732100776179706FFB
:10123000696E7420726563656976652074696D6591
:101240006F757400776179706F696E742073656E65
:10125000642074696D656F7574004558545241334C
:1012600000455854524132004558545241310050C3
:101270004F534954494F4E005241575F4354524CCB
:101280000052435F4348414E004558545F53544118
:1012900054005241575F53454E53005352335F0041
:1012A0005352305F005265616368656420686F6DFA
:1012B000650047524F554E44205354415254000A42
:1012C000456E746572696E6720696E7465726163DC
:1012D00074697665207365747570206D6F64652E12
:1012E0002E2E0A0A54797065202768656C702720B5
:1012F000746F206C69737420636F6D6D616E6473BD
:101300002C2027657869742720746F206C656176BE
:10131000652061207375626D656E752E0A5669735E
:101320006974207468652027736574757027206D53
:10133000656E7520666F722066697273742D7469AC
:101340006D6520636F6E66696775726174696F6E33
:101350002E0A0A00506C656173652052756E205329
:10136000657475702E2E2E0A004669726D77617253
:1013700065206368616E67653A2065726173696EA6
:101380006720454550524F4D2E2E2E0A000A0A491D
:101390006E69742041434D0A0A52414D3A20256C32
:1013A000750A00496E76616C696420534552494163
:1013B0004C335F42415544004C6F67732066756C37
:1013C0006C000A4750530A00253033753A25733AAA
:1013D00020006E6F7420666F756E64002530337563
:1013E0003A252D33322E3332733A2000756E6B6EF0
:1013F0006F776E2074797065006E6F7420666F75FC
:101400006E640025733A20006D697373696E6720FE
:101410006E616D65206F722076616C7565003F3F6F
:1014200000256400256400256C640025660025669F
:1014300000657869740068656C700044454300433A
:101440004F4D504153535F00245047434D442C317E
:10145000362C302C302C302C302C302A36410D0AD2
:101460000024505542582C34312C312C303030333C
:101470002C303030312C33383430302C302A323666
:101480000024505352463130302C302C3338343015
:10149000302C382C312C302A3343002053695246EB
:1014A0002000204D544B312E3620002075626C6F89
:1014B000782000204D544B312E3420006661696C39
:1014C00065642C207265747279696E67004F4B00F9
:1014D00020002A00496E697420416363656C002A0C
:1014E00000496E6974204779726F006E616E006901
:1014F0006E660000407A10F35A00A0724E18090080
:1015000010A5D4E80000E87648170000E40B540268
:101510000000CA9A3B000000E1F5050000809698A3
:1015200000000040420F000000A0860100000010F3
:101530002700000000E80300000000640000000035
:10154000000A00000000000100000000002C76D816
:1015500088DC674F0823DFC1DFAE59E1B1B796E5FC
:10156000E3E453C63AE651997696E8E6C28426EB60
:10157000898C9B62ED407C6FFCEFBC9C9F40F2BA73
:10158000A56FA5F490055A2AF75C936B6CF9676D0B
:10159000C11BFCE0E40D47FEF520E6B500D0ED9060
:1015A0002E0300943577050080841E080000204E2D
:1015B0000A000000C80C333333330F986E128311C6
:1015C00041EF8D2114893BE65516CFFEE6DB18D19D
:1015D000844B381BF77C1D901DA4BBE4242032846F
:1015E000725E228100C9F124ECA1E53D27000021B3
:1015F00000240027002A002D0030003300010100E4
:1016000000040107010A0100002200250028002B28
:10161000002E003100340002010000050108010B1A
:1016200001000020002300260029002C002F00329A
:101630000000010000030106010901050505050779
:101640000508080808020202020A0A08080404043D
:101650000401010101010101010303030303030369
:1016600003040707070C0C0C0C0C0C0C0C020202F8
:101670000206060606060606060B0B0B0B0B0B0BEB
:101680000B0102102020080810204010204080028A
:1016900001020108040201010204081020408080B8
:1016A000402010080402018004020180402010083C
:1016B0000402010804020101020408102040800114
:1016C000020408102040800000090A02080B0C0DDB
:1016D00007060304010000000000000000000000F5
:1016E00000000000000000000000000000000000FA
:1016F000000000100F0E00000000000000000000BD
:1017000000000000000000000000000000494E46FC
:10171000494E4954594E414ECDCCCC3D0AD7233C7D
:1017200017B7D13877CC2B329595E6241FB14F0AE5
:10173000000020410000C84200401C4620BCBE4CB6
:10174000CA1B0E5AAEC59D74DE3D4588C890FBC6C7
:1017500039D4D73DC19011241FBECFEFD1E2DEBFF7
:10176000CDBF00E00CBF15E0A0E0B2E0E8EFFAEC7E
:1017700001E00BBF02C007900D92A435B107D9F765
:1017800016E1A4E5B5E001C01D92A733B107E1F76A
:1017900017E1C2E5D7E104C02297FE010E942BDFCA
:1017A000C834D107C9F70E94B4D60C946FE50C94E5
:1017B0000000283008F027E03327DA01990F311DA7
:1017C00087FD916000966105710539F432602E5FE6
:1017D0003D9330E32A95E1F708959F3F30F080383C
:1017E0007105610509F03C5F3C5F3D93913008F065
:1017F0008068911DDF93CF931F930F93FF92EF9219
:10180000192F987F9695E92F96959695E90FFF27C2
:10181000E35BFA4E99273327EE24FF24A701E70163
:1018200005900894079428F4360FE71EF81E491F08
:10183000511D660F771F881F991F0694A1F7059009
:10184000079428F4E70EF81E491F561FC11D770F95
:10185000881F991F661F0694A1F70590079428F426
:10186000F80E491F561FC71FD11D880F991F661FED
:10187000771F0694A1F70590079420F4490F561F8F
:10188000C71FD81F990F661F771F881F0694A9F7D7
:1018900084911095177041F0D695C7955795479547
:1018A000F794E7941A95C1F7E3EFF4E16894159083
:1018B000159135916591959105907FE27395E118A9
:1018C000F10A430B560BC90BD009C0F7E10CF11E0E
:1018D000431F561FC91FD01D7EF4703311F48A9523
:1018E000E6CFE894015030F0080F0AF40027021701
:1018F00008F4202F2395022F7A3328F079E37D9383
:101900002A95E9F710C07D932A9589F60694979554
:101910006795379517951794E118F10A430B560B05
:10192000C90BD00998F023957E9173957A3308F00E
:1019300070E37C932013B8F77E9170617D9330F053
:10194000839571E37D9370E32A95E1F71124EF907D
:10195000FF900F911F91CF91DF91992787FD90956F
:101960000895FA01AA27283051F1203181F1E89435
:101970006F936E7F6E5F7F4F8F4F9F4FAF4FB1E082
:101980003ED0B4E03CD0670F781F891F9A1FA11D7D
:10199000680F791F8A1F911DA11D6A0F711D811D7E
:1019A000911DA11D20D009F468943F912AE0269F43
:1019B00011243019305D3193DEF6CF010895462FA2
:1019C0004770405D4193B3E00FD0C9F7F6CF462F83
:1019D0004F70405D4A3318F0495D31FD40524193EC
:1019E00002D0A9F7EACFB4E0A695979587957795A9
:1019F0006795BA95C9F700976105710508959B0130
:101A0000AC010A2E06945795479537952795BA95B8
:101A1000C9F7620F731F841F951FA01D0895CF93F0
:101A2000DF93FC01EB014230510570F06385748552
:101A30008585968520E030E040E854E40E94A8DDEA
:101A40000E94F0DB7983688382E090E0DF91CF91A0
:101A50000895CF93DF93EC01FB014230510518F458
:101A600020E030E012C06081718180E090E00E944F
:101A70001CDC20E030E040E85AE30E94A8DD6B87E0
:101A80007C878D879E8722E030E0C901DF91CF916E
:101A90000895FB0190819827292F2295207F2927DF
:101AA00030E0522F4427C90163E0880F991F6A95DF
:101AB000E1F748275927818190E04827592784E09A
:101AC000359527958A95E1F742275327518340831F
:101AD0000895A0E0B0E0EFE6FDE00C94FCDE8C01A0
:101AE0006B017A01C0E0D0E01CC0F601EC0FFD1FD5
:101AF00060810115110521F00130110589F405C03F
:101B0000E0916F15F091701504C0E0917115F0919E
:101B10007215A081B1812D913C91CF01F9011995E8
:101B20002196CE15DF0508F3CDB7DEB7E8E00C94BB
:101B300018DFACE0B0E0EFE9FDE00C94F7DEB82E82
:101B4000992E842E752EA22E282F30E085E58F83C6
:101B5000A886F901EE0FFF1FE20FF31FEE0FFF1F24
:101B6000EE0FFF1FED55FE4E978199878091D603AA
:101B70008A878091D7038B876C879F5F97838FEFCE
:101B80009FEF9E838D838E01085F1F4FFDE0CF2E58
:101B9000D12CCC0EDD1EE5E0EE2EF12CEC0EFD1E60
:101BA00006C0F80181918F01B7010E94490D0C1503
:101BB0001D05B9F78D819E819A838983282D372D44
:101BC000C9017C011A2D6E010894C11CD11C07C0EB
:101BD000F70181917F01B6010E94490D1150112337
:101BE000B9F789819A818B839C838B2D992DBE01B6
:101BF000695F7F4F46E050E00E94690D8B2D992D63
:101C0000682D772D4A2D50E00E94690D8B2D992D5E
:101C1000BE016D5F7F4F42E050E00E94690D2C963F
:101C2000EDE00C9413DFDC01FB0183818C93828156
:101C300011968C931197818112968C9312978081C3
:101C400013968C930895DC01FB0187818C93868128
:101C500011968C931197858112968C93129784819B
:101C600013968C931397838114968C931497828187
:101C700015968C931597818116968C931697808173
:101C800017968C9308951F920F920FB60F920BB672
:101C90000F9211242F933F934F938F939F93EF9322
:101CA000FF934091C60020912F15309130152F5F82
:101CB0003F4F80913315909134152823392380911B
:101CC0003115909132152817390779F080912F1529
:101CD00090913015E0913515F0913615E80FF91F08
:101CE00040833093301520932F15FF91EF919F91F2
:101CF0008F914F913F912F910F900BBE0F900FBE80
:101D00000F901F9018951F920F920FB60F920BB65F
:101D10000F9211242F933F938F939F93EF93FF93F1
:101D2000209151153091521580914F159091501579
:101D300028173907E9F08091511590915215E091DB
:101D40005515F0915615E80FF91F80818093C60054
:101D50008091511590915215019620915315309113
:101D6000541582239323909352158093511510C0DC
:101D700020914F1530915015809151159091521529
:101D80002817390729F48091C1008F7D8093C10005
:101D9000FF91EF919F918F913F912F910F900BBEEB
:101DA0000F900FBE0F901F9018951F920F920FB6B5
:101DB0000F920BB60F9211242F933F934F938F9353
:101DC0009F93EF93FF934091CE0020913715309170
:101DD00038152F5F3F4F80913B1590913C1528237C
:101DE00039238091391590913A152817390779F0E0
:101DF0008091371590913815E0913D15F0913E1581
:101E0000E80FF91F40833093381520933715FF9161
:101E1000EF919F918F914F913F912F910F900BBE1A
:101E20000F900FBE0F901F9018951F920F920FB634
:101E30000F920BB60F9211242F933F938F939F9382
:101E4000EF93FF932091591530915A1580915715B2
:101E50009091581528173907E9F0809159159091FC
:101E60005A15E0915D15F0915E15E80FF91F80811C
:101E70008093CE008091591590915A15019620912A
:101E80005B1530915C158223932390935A158093B0
:101E9000591510C02091571530915815809159153A
:101EA00090915A152817390729F48091C9008F7D20
:101EB0008093C900FF91EF919F918F913F912F9156
:101EC0000F900BBE0F900FBE0F901F9018951F9292
:101ED0000F920FB60F920BB60F9211242F933F93D0
:101EE0004F938F939F93EF93FF93409136012091EF
:101EF0004715309148152F5F3F4F80914B159091BA
:101F00004C15282339238091491590914A1528179B
:101F1000390779F08091471590914815E0914D155A
:101F2000F0914E15E80FF91F408330934815209328
:101F30004715FF91EF919F918F914F913F912F9175
:101F40000F900BBE0F900FBE0F901F9018951F9211
:101F50000F920FB60F920BB60F9211242F933F934F
:101F60008F939F93EF93FF932091691530916A159A
:101F7000809167159091681528173907E9F08091CD
:101F8000691590916A15E0916D15F0916E15E80F45
:101F9000F91F8081809336018091691590916A15AF
:101FA000019620916B1530916C15822393239093A9
:101FB0006A158093691510C02091671530916815D6
:101FC0008091691590916A152817390729F4809135
:101FD00031018F7D80933101FF91EF919F918F911E
:101FE0003F912F910F900BBE0F900FBE0F901F903F
:101FF0001895FC017183608385E06435780739F4B6
:102000007093701560936F151386128608C07093D5
:1020100072156093711581E090E093878287138237
:10202000128208952091840C3091850CC9018F5C37
:1020300094408238910510F481E00895C9018155DA
:1020400095408238910510F482E00895C901835DBE
:1020500095408238910510F483E00895C9018555B3
:1020600096408138910510F484E00895265D36404D
:1020700014F480E0089585E00895A4E0B0E0E3E47E
:10208000F0E10C94F2DE6091F9137091FA138091F3
:10209000FB139091FC130E941EDC3B014C018091CC
:1020A0008D1190918E11A0918F11B0919011898313
:1020B0009A83AB83BC836091F5137091F613809182
:1020C000F7139091F8130E941EDC1B012C01A090C5
:1020D0009603B0909703C0909803D0909903C401E1
:1020E000B30129813A814B815C810E94A8DD7B018B
:1020F0008C01C201B101A60195010E94A8DD9B01DE
:10210000AC01C801B7010E949EDA0E94EBDB60932C
:10211000BA127093BB128093BC129093BD12C4018B
:10212000B301A60195010E94A8DD7B018C01C201CB
:10213000B10129813A814B815C810E94A8DD9B011C
:10214000AC01C801B7010E949FDA0E94EBDB9095B9
:102150008095709561957F4F8F4F9F4F6093BE1212
:102160007093BF128093C0129093C1122496E2E143
:102170000C940EDF2091340B3091350B8091580B6D
:102180009091590B281B390B253631051CF08AE03C
:10219000809392112C593F4F1CF486EF809392113B
:1021A0008091921118161CF48150809392118091A5
:1021B000921187FF03C08F5F8093921180919211DB
:1021C000813021F08F3F11F080E00895811181E08E
:1021D000089580E00895FC01DB01452B11F0838513
:1021E0008C9381E090E00895DC01FB01452B19F010
:1021F00080811B968C9381E090E00895FC016385BB
:10220000772767FD7095872F972F0E941EDC089512
:10221000FC01DB014230510520F0838594858D93CC
:102220009C9382E090E00895DC01FB01423051056F
:1022300030F0808191811C969C938E931B9782E055
:1022400090E00895FC0163857485882777FD80956B
:10225000982F0E941EDC0895FC0123853485458556
:102260005685B901CA010895CF93DF93FC01EB01B4
:102270004430510540F083859485A585B6858883D3
:102280009983AA83BB8384E090E0DF91CF91089586
:10229000CF93DF93EC01FB014430510540F0808186
:1022A0009181A281B3818B879C87AD87BE8784E0B3
:1022B00090E0DF91CF910895E0912A11F0912B11D8
:1022C00087A990AD8130910539F00297F9F483E246
:1022D00061E00E9439DA089581A58823D9F090E061
:1022E00080919111882309F491E0909391119923A1
:1022F00019F083E260E002C083E261E00E9439DA13
:10230000E0912A11F0912B1111A6089583E260E06B
:102310000E9439DA089585E260E00E9439DA84E2A9
:1023200060E00E9439DA83E260E00E9439DA1092BC
:10233000E21310926312089580910A148F5F8093C4
:102340000A148150833011F410920A1480910A14F7
:10235000813059F0813018F08230C1F40FC083E22F
:1023600060E00E9439DA85E205C085E260E00E9403
:1023700039DA84E261E00E9439DA089584E260E0AB
:102380000E9439DA83E261E00E9439DA089580918F
:102390000B14882379F084E461E00E9439DA82E446
:1023A00061E00E9439DA80E460E00E9439DA8EE36D
:1023B00060E00EC084E460E00E9439DA82E460E00C
:1023C0000E9439DA80E461E00E9439DA8EE361E04C
:1023D0000E9439DA80910B1491E0892780930B14C5
:1023E000089500D00F9284E595E0EDB7FEB7928393
:1023F000818389E995E0948383830E943CCA0F908E
:102400000F900F900F9008950E94F11168EE73E005
:1024100080E090E00E943BD988E795E00E94B3CA33
:10242000892B89F084E261E00E9439DA88E795E03F
:102430000E94E3CA682F86E695E00E9444CB84E2BE
:1024400060E00E9439DA86E695E00E94B3CA892BE3
:1024500089F083E261E00E9439DA86E695E00E9425
:10246000E3CA682F88E795E00E9444CB83E260E0EE
:102470000E9439DA84E595E00E94B3CA181619065D
:102480005CF680E008950E94F11168EE73E080E050
:1024900090E00E943BD900D00F9284E595E0EDB723
:1024A000FEB7928381838AEB95E0948383830E94B5
:1024B0003CCA0F900F900F900F9088E795E00E9414
:1024C000B3CA892B49F088E795E00E94E3CA682FD8
:1024D00088E795E00E9444CB84E595E00E94B3CA6A
:1024E0001816190654F780E0089524E535E088238E
:1024F00049F000D00F92EDB7FEB73283218385E11A
:1025000096E008C000D00F92EDB7FEB7328321836A
:1025100081E196E0948383830E943CCA84E595E040
:10252000EDB7FEB7928381838AE096E0948383833C
:102530000E943CCA0F900F900F900F900895EF9259
:10254000FF920F931F93CF93DF930E94F11168EED8
:1025500073E080E090E00E943BD91CEAE12E16E097
:10256000F12E01EA16E0C4E5D5E000D00F92EDB7F8
:10257000FEB7D283C183F482E3820E943CCA809179
:102580000B01846080930B010F900F900F900F90C0
:1025900068EB7BE080E090E00E943BD9CE010E9496
:1025A000B3CA18161906FCF000D00F92EDB7FEB7AB
:1025B000D283C183148303830E943CCA80910B01A0
:1025C0008B7F80930B010F900F900F900F9068EB13
:1025D0007BE080E090E00E943BD9CE010E94B3CA2C
:1025E0001816190614F680E0CDB7DEB7E6E00C94B5
:1025F0001ADF00D00F9284E595E0EDB7FEB7928325
:10260000818387EF96E0948383830E943CCA0F9076
:102610000F900F900F9080E008958DB79EB7409770
:102620000FB6F8949EBF0FBE8DBFEDB7FEB73196C3
:1026300084E595E0ADB7BEB712969C938E93119743
:102640008BE597E0938382838091B1079091B207E5
:10265000A091B307B091B40784839583A683B78311
:102660008091B5079091B607A091B707B091B807D0
:1026700080879187A287B3878091B9079091BA0725
:10268000A091BB07B091BC0784879587A687B787C1
:102690000E943CCA8DB79EB740960FB6F8949EBF75
:1026A0000FBE8DBF08958DB79EB740970FB6F894B3
:1026B0009EBF0FBE8DBFEDB7FEB7319684E595E0A6
:1026C000ADB7BEB712969C938E9311978EE797E0A5
:1026D000938382838091BD079091BE07A091BF072D
:1026E000B091C00784839583A683B7838091C10787
:1026F0009091C207A091C307B091C40780879187CA
:10270000A287B3878091C5079091C607A091C7079C
:10271000B091C80784879587A687B7870E943CCA6F
:102720008DB79EB740960FB6F8949EBF0FBE8DBF73
:10273000089500D00F9284E595E0EDB7FEB792833F
:10274000818383E698E0948383830E943CCA0F9040
:102750000F900F900F9080E008950F931F938DB707
:102760009EB708970FB6F8949EBF0FBE8DBFEDB70A
:10277000FEB7319604E515E0ADB7BEB712961C93CF
:102780000E9311978CE799E09383828380914B0B92
:1027900090914C0B958384838091650B9091660B8F
:1027A000978386830E943CCAEDB7FEB73196ADB7DA
:1027B000BEB712961C930E9311978EE699E0938301
:1027C000828380919F0B9091A00B9583848380914D
:1027D000B90B9091BA0B978386830E943CCAEDB7E0
:1027E000FEB73196ADB7BEB712961C930E931197F4
:1027F00080E699E0938382838091F30B9091F40BB0
:102800009583848380910D0C90910E0C9783868321
:102810000E943CCAEDB7FEB73196ADB7BEB712966F
:102820001C930E93119782E599E0938382838091A4
:10283000470C9091480C958384838091610C909112
:10284000620C978386830E943CCAEDB7FEB731962F
:10285000ADB7BEB712961C930E93119784E499E01E
:102860009383828380919B0C90919C0C95838483AD
:102870008091B50C9091B60C978386830E943CCAD8
:10288000EDB7FEB73196ADB7BEB712961C930E9357
:10289000119786E399E0938382838091EF0C909166
:1028A000F00C958384838091090D90910A0D978394
:1028B00086830E943CCAEDB7FEB73196ADB7BEB76E
:1028C00012961C930E93119788E299E0938382836A
:1028D0008091430D9091440D9583848380915D0D8B
:1028E00090915E0D978386830E943CCA8DB79EB7F8
:1028F00008960FB6F8949EBF0FBE8DBF1F910F9123
:10290000089500D00F9284E595E0EDB7FEB792836D
:10291000818383EF9AE0948383830E943CCA0F9063
:102920000F900F900F90089500D00F9284E595E0DE
:10293000EDB7FEB7928381838FE89CE09483838315
:102940000E943CCA0F900F900F900F9080E0089566
:1029500000D00F9284E595E0EDB7FEB792838183B6
:102960008CE59EE0948383830E943CCA0F900F9075
:102970000F900F900895A0E0B0E0E1ECF4E10C942A
:10298000FADE24EBA22E25E0B22E9EEAC92E95E0B7
:10299000D92E00E010E084E5E82E85E0F82E00D086
:1029A00000D0EDB7FEB73196ADB7BEB71296FC9228
:1029B000EE921197B382A282158304830E943CCACF
:1029C000C0E0D0E08DB79EB706960FB6F8949EBFD4
:1029D0000FBE8DBFCE01800F911F0E9487E300D0F4
:1029E00000D0EDB7FEB73196ADB7BEB71296FC92E8
:1029F000EE921197D382C282848315820E943CCAD0
:102A000021968DB79EB706960FB6F8949EBF0FBE5F
:102A10008DBFC031D105F1F6C7010E94C0D7005F5C
:102A20001F4F90E10030190709F0B9CF80E0CDB712
:102A3000DEB7EAE00C9416DFA4E2B0E0E2E2F5E1F2
:102A40000C94FADE8091E90A882309F493C00E946D
:102A5000F1114BEEA42E45E0B42E6E010894C11C7A
:102A6000D11C34E5E32E35E0F32E64E670E080E01F
:102A700090E00E943BD98CEE95E00E944996D601E9
:102A8000EAEFF7E084E201900D928150E1F78CEEDD
:102A900095E0B6010E9424A38CEE95E00E94099B6C
:102AA0006091F6057091F7058091F8059091F90510
:102AB00021EE3EE245E652E40E94A8DD20E030E04F
:102AC00048EC52E40E94A8DD0E94EBDB613A2CE85E
:102AD000720720E0820720E092072CF0605A7C48C1
:102AE0008040904006C097FF04C0605673478F4FE8
:102AF0009F4FEDB7FEB73E970FB6F894FEBF0FBEDF
:102B0000EDBF0DB71EB70F5F1F4FF282E182F801D4
:102B1000B382A28224E630E040E050E00E94D7DE9B
:102B2000F80124833583468357838091F005909183
:102B3000F105918780878091F2059091F305938745
:102B400082878091F4059091F505958784870E948E
:102B50003CCA2DB73EB7225F3F4F0FB6F8943EBF39
:102B60000FBE2DBFC7010E94B3CA181619060CF07C
:102B70007CCF15C000D00F9284E595E0EDB7FEB78D
:102B80009283818381EE95E0948383830E943CCA83
:102B90000F900F900F900F9080E00E94751280E0D0
:102BA000A496EAE00C9416DF0F931F93CF93DF9364
:102BB0008091C40A8823B9F400D00F9284E595E08F
:102BC000ADB7BEB712969C938E93119786E296E0AE
:102BD00014969C938E9313970E943CCA0F900F906B
:102BE0000F900F902FC00E94F11108E116E0C4E58C
:102BF000D5E064E670E080E090E00E943BD98AE393
:102C000099E00E94B0C600D000D0EDB7FEB7319673
:102C1000ADB7BEB71296DC93CE93119713830283A0
:102C2000958384830E943CCAEDB7FEB736960FB6F3
:102C3000F894FEBF0FBEEDBFCE010E94B3CA1816B6
:102C40001906BCF680E0DF91CF911F910F91089596
:102C5000EF92FF920F931F93CF93DF938091940590
:102C60009091950590935E1180935D11C0E0D0E046
:102C700064E170E080E090E00E943BD98CE895E050
:102C80000E9490852196CC33D10591F7C0E0D0E029
:102C900064E170E080E090E00E943BD98CE895E030
:102CA0000E949085E0909605F09097050091980518
:102CB00010919905E0925F11F092601100936111FB
:102CC0001093621120915D1130915E11C90153E0A2
:102CD000880F991F5A95E1F7820F931F2091940551
:102CE00030919505820F931F6AE070E00E94A2DE8A
:102CF00070935E1160935D112196C431D10541F648
:102D0000E0926311F09264110093651110936611C3
:102D1000CDB7DEB7E6E00C941ADFAF92BF92CF9248
:102D2000DF92EF92FF920F931F938CE895E00E9441
:102D30009085E0909605F090970500919805109188
:102D40009905E0926311F09264110093651110935C
:102D5000661160915F117091601180916111909185
:102D600062110E941EDC5B016C01C801B7010E9468
:102D70001EDC9B01AC01C601B5010E9483DB0E94F1
:102D800068DD7B018C0160915D1170915E11882777
:102D900077FD8095982F0E941EDC20E030E040E215
:102DA00051E40E9483DB23E333E948E853E40E94C3
:102DB0009FDA9B01AC01C801B7010E94A8DD29E898
:102DC0003EEA44EE56E40E94A8DD20E030E040E216
:102DD00051E40E9483DB0E94EBDB9B01AC01CA0142
:102DE0001F910F91FF90EF90DF90CF90BF90AF9029
:102DF00008950F931F93CF93DF930E94F1110E94C8
:102E0000281606E316E0C4E5D5E064E670E080E04D
:102E100090E00E943BD90E948D1670935C116093E4
:102E20005B1100D000D0EDB7FEB73196ADB7BEB79D
:102E30001296DC93CE931197138302837583648378
:102E40000E943CCA8DB79EB706960FB6F8949EBFF7
:102E50000FBE8DBFCE010E94B3CA18161906ACF67C
:102E600080E0DF91CF911F910F910895CF93DF9371
:102E7000EC0107C0219784E595E060E072E00E94D4
:102E8000D7D71C161D06B4F3DF91CF910895FF929A
:102E90000F931F93F62E00D000D0EDB7FEB73196FA
:102EA00004E515E0ADB7BEB712961C930E931197CB
:102EB00022E03AE033832283848315820E943CCA55
:102EC0008DB79EB706960FB6F8949EBF0FBE8DBF06
:102ED000EF2DF0E0EE0FFF1FE352FC4F6081718198
:102EE000C8010E94D7D71F910F91FF900895A0E0CD
:102EF000B0E0EDE7F7E10C94F9DEEC018091C00958
:102F0000992787FD90958617970744F484E595E007
:102F100061E072E00E94D7D7188277C0CB01E4E06D
:102F2000880F991FEA95E1F7861B970B80509C4FFD
:102F30005C01CC24B7FCC094DC2C0E9487E388831E
:102F4000860175010894E11CF11C011D111DC701CA
:102F50000E9487E3982E89830894E11CF11C011DCF
:102F6000111DC7010E9487E38A830894E11CF11CAC
:102F7000011D111DC7010E948FE36B837C838D832C
:102F80009E8387E090E0A0E0B0E0A80EB91ECA1EC4
:102F9000DB1EC5010E948FE37B018C01EF82F88666
:102FA00009871A8784E090E0A0E0B0E0A80EB91E7F
:102FB000CA1EDB1EC5010E948FE39B01AC012B875B
:102FC0003C874D875E8794FE20C080916E11909162
:102FD0006F11A0917011B0917111E80EF91E0A1FC6
:102FE0001B1FEF82F88609871A87809172119091D2
:102FF0007311A0917411B0917511280F391F4A1FD8
:103000005B1F2B873C874D875E87CE01CDB7DEB730
:10301000EBE00C9415DF8F929F92AF92BF92DF92FC
:10302000EF92FF920F931F93DF93CF93CDB7DEB74D
:103030002F970FB6F894DEBF0FBECDBF68EE73E0DA
:1030400080E090E00E943BD900D00F9204E515E0AB
:10305000ADB7BEB712961C930E93119780E696E01B
:1030600014969C938E9313970E943CCA2091B70AA2
:103070003091B80A0F900F900F900F9037FF11C04A
:1030800000D00F92EDB7FEB7128301838EE596E074
:10309000948383830E943CCA0F900F900F900F90EF
:1030A00020C000D000D0EDB7FEB73196ADB7BEB7A7
:1030B00012961C930E93119786E596E09383828374
:1030C000C90164E670E00E94A2DE758364830E94F9
:1030D0003CCAEDB7FEB736960FB6F894FEBF0FBEEA
:1030E000EDBF00D000D0EDB7FEB7319604E515E096
:1030F000ADB7BEB712961C930E9311978FE496E06E
:10310000938382838091C009992787FD9095958349
:1031100084830E943CCAEDB7FEB73196ADB7BEB707
:1031200012961C930E93119782E496E09383828308
:103130008091E409992787FD9095958384830E9467
:103140003CCAFAE68F2EF6E09F2EFF24EDB7FEB7BD
:1031500036960FB6F894FEBF0FBEEDBF5E01089421
:10316000A11CB11CD02EE12E46C0C501B8010E94A1
:1031700077178DB79EB748970FB6F8949EBF0FBECE
:103180008DBFEDB7FEB73196ADB7BEB71196DC92E5
:1031900011971296EC92938282821583048389811F
:1031A000868317828A81808711868B818287138626
:1031B0008C819D81AE81BF8184879587A687B787E3
:1031C00088859985AA85BB85808B918BA28BB38BD3
:1031D0008C859D85AE85BF85848B958BA68BB78BA3
:1031E0000E943CCAF394EDB7FEB778960FB6F894F8
:1031F000FEBF0FBEEDBF0F2D10E08091C0099927D3
:1032000087FD9095801791070CF0AFCF80E02F9647
:103210000FB6F894DEBF0FBECDBFCF91DF911F91E7
:103220000F91FF90EF90DF90BF90AF909F908F90A5
:1032300008950F931F9308E114E14091F30B50910F
:10324000F40BC80160E00E9474874091F30B509129
:10325000F40BC80161E00E9474874091F30B509118
:10326000F40BC80162E00E9474874091F30B509107
:10327000F40BC80163E00E9474874091F30B5091F6
:10328000F40BC80166E00E9474874091F30B5091E3
:10329000F40BC80167E00E9474871F910F91089595
:1032A00088E194E10E94F487813009F05EC088E1F2
:1032B00094E160E00E94C387BC0189E29BE00E9428
:1032C0005CD288E194E161E00E94C387BC018DE794
:1032D0009BE00E945CD288E194E162E00E94C38797
:1032E000BC0181ED9BE00E945CD288E194E163E047
:1032F0000E94C387BC0185E29CE00E945CD288E109
:1033000094E164E00E94C387BC0189E79CE00E94CD
:103310005CD288E194E165E00E94C387BC018DEC3A
:103320009CE00E945CD288E194E166E00E94C38741
:10333000BC0181E29DE00E945CD288E194E167E0FB
:103340000E94C387BC0185E79DE00E945CD280910A
:10335000DE0B9091DF0B23E08132920714F080E2C4
:1033600093E09093DF0B8093DE0B08950F931F93F0
:10337000CF93DF930E94F11168EE73E080E090E05C
:103380000E943BD904ED17E0C4E5D5E064E170E0AC
:1033900080E090E00E943BD90E9450198DB79EB703
:1033A00042970FB6F8949EBF0FBE8DBFEDB7FEB724
:1033B0003196ADB7BEB71296DC93CE9311971383B7
:1033C00002838091360B9091370B95838483809193
:1033D0008A0B90918B0B978386838091DE0B909163
:1033E000DF0B918780878091320C9091330C93870B
:1033F00082878091860C9091870C95878487809135
:10340000DA0C9091DB0C9787868780912E0D909136
:103410002F0D918B808B0E943CCA8DB79EB7429630
:103420000FB6F8949EBF0FBE8DBFCE010E94B3CAE7
:10343000181619060CF0AACF80E0DF91CF911F91EA
:103440000F9108950F931F93CF93DF930E94F11173
:1034500068EE73E080E090E00E943BD903E018E062
:10346000C4E5D5E064E170E080E090E00E943BD9E3
:103470000E9450198DB79EB744970FB6F8949EBF1F
:103480000FBE8DBFEDB7FEB73196ADB7BEB7129682
:10349000DC93CE931197138302838091340B909128
:1034A000350B958384838091880B9091890B97834A
:1034B00086838091DC0B9091DD0B918780878091D2
:1034C000300C9091310C938782878091840C90917D
:1034D000850C958784878091D80C9091D90C97871B
:1034E000868780912C0D90912D0D918B808B8091F2
:1034F000800D9091810D938B828B0E943CCA8DB779
:103500009EB744960FB6F8949EBF0FBE8DBFCE01F6
:103510000E94B3CA181619060CF0A4CF80E0DF9100
:10352000CF911F910F910895EF92FF920F931F93E8
:1035300080E00E948BD8AA2797FDA095BA2FBC01E6
:10354000CD010E941EDC20E030E040EA5BE30E94F7
:10355000A8DD2AE037ED43E650E40E94A8DD2DEC1B
:103560003CEC4CEC5DE30E94A8DD7B018C0160919A
:103570007A0370917B0380917C0390917D0326E612
:1035800036E646E65FE30E94A8DD9B01AC01C80178
:10359000B7010E949FDA60937A0370937B03809354
:1035A0007C0390937D0381E00E948BD8AA2797FD2E
:1035B000A095BA2FBC01CD010E941EDC20E030E0B6
:1035C00040EA5BE30E94A8DD2AE037ED43E650E4E1
:1035D0000E94A8DD2DEC3CEC4CEC5DE30E94A8DDE4
:1035E0007B018C0160917E0370917F038091800349
:1035F0009091810326E636E646E65FE30E94A8DD69
:103600009B01AC01C801B7010E949FDA60937E0361
:1036100070937F03809380039093810382E00E94E4
:103620008BD8AA2797FDA095BA2FBC01CD010E9487
:103630001EDC20E030E040EA5BE30E94A8DD2AE0E7
:1036400037ED43E650E40E94A8DD2DEC3CEC4CEC59
:103650005DE30E94A8DD7B018C0160918203709183
:103660008303809184039091850326E636E646E63F
:103670005FE30E94A8DD9B01AC01C801B7010E9475
:103680009FDA609382037093830380938403909303
:10369000850383E00E948BD8AA2797FDA095BA2FB7
:1036A000BC01CD010E941EDC20E030E040EA5BE37B
:1036B0000E94A8DD2AE037ED43E650E40E94A8DD31
:1036C0002DEC3CEC4CEC5DE30E94A8DD7B018C0111
:1036D000609186037091870380918803909189039C
:1036E00026E636E646E65FE30E94A8DD9B01AC01D4
:1036F000C801B7010E949FDA7B018C01CB01D80180
:103700008093860390938703A0938803B0938903E3
:103710002091D00A213049F4809182039091830353
:10372000A0918403B091850304C0223059F4C701ED
:10373000D8018093760390937703A0937803B09396
:1037400079037CC0233019F0243009F077C08091D0
:103750007A0390917B03A0917C03B0917D038093C9
:10376000760390937703A0937803B0937903243082
:1037700009F064C081E00E948BD8AA2797FDA0952C
:10378000BA2FBC01CD010E941EDC20E030E040EAEF
:103790005BE30E94A8DD2CE53FE84AED51E40E947E
:1037A000A8DD2DEC3CEC4CEC5DE30E94A8DD7B0138
:1037B0008C016091771170917811809179119091BD
:1037C0007A1126E636E646E65FE30E94A8DD9B0115
:1037D000AC01C801B7010E949FDA7B018C016093A4
:1037E0007711709378118093791190937A11609189
:1037F000761170E080E090E00E941CDC9B01AC013F
:10380000C801B7010E94A8DD27E830EC41E959E37F
:103810000E94A8DD9B01AC0160917B1170917C112D
:1038200080917D1190917E110E949FDA60937B11AF
:1038300070937C1180937D1190937E111F910F9155
:10384000FF90EF9008950F931F93CF93DF930E9403
:10385000F11184E68093761106EB16E0C4E5D5E01D
:1038600064E670E080E090E00E943BD90E9450192D
:103870000E94941A8DB79EB740970FB6F8949EBFDA
:103880000FBE8DBFEDB7FEB73196ADB7BEB712967E
:10389000DC93CE93119713830283809176039091EA
:1038A0007703A0917803B091790384839583A683ED
:1038B000B7838091771190917811A0917911B0918F
:1038C0007A1180879187A287B38780917B1190912D
:1038D0007C11A0917D11B0917E1184879587A68778
:1038E000B7870E943CCA8DB79EB740960FB6F89432
:1038F0009EBF0FBE8DBF4091DC0B5091DD0B88E168
:1039000094E160E00E9474874091DC0B5091DD0BE4
:1039100088E194E161E00E9474874091DC0B509152
:10392000DD0B88E194E162E00E9474874091DC0B3A
:103930005091DD0B88E194E163E00E947487CE0131
:103940000E94B3CA181619060CF08ACF80E0DF91E6
:10395000CF911F910F9108950F931F93CF93DF93F2
:103960000E94F11168EE73E080E090E00E943BD984
:1039700006ED16E0C4E5D5E064E170E080E090E09B
:103980000E943BD90E9450198091320C9091330CC7
:103990009093370C8093360C85E29CE00E94D0D245
:1039A0008DB79EB708970FB6F8949EBF0FBE8DBF18
:1039B000EDB7FEB73196ADB7BEB71296DC93CE9396
:1039C0001197138302838091320C9091330C95836D
:1039D000848380913A0C90913B0C978386830E945C
:1039E0003CCA8DB79EB708960FB6F8949EBF0FBE1F
:1039F0008DBF40913A0C50913B0C88E194E166E018
:103A00000E947487CE010E94B3CA181619060CF0E2
:103A1000B3CF80E0DF91CF911F910F910895609116
:103A2000DA0C7091DB0C882777FD8095982F0E9427
:103A30001EDC20E030E04AE754E40E9483DB609320
:103A400058097093590980935A0990935B098091A2
:103A5000010B992787FD9095A92FB92FFC0131976C
:103A6000EA30F10508F02EC1EE58FF4F0C9429DF23
:103A70008DEC9CE060E070E040E45FE10E94FCD0EF
:103A80008091580990915909A0915A09B0915B0908
:103A90008093350F9093360FA093370FB093380F64
:103AA00080936F0F9093700FA093710FB093720F6C
:103AB00008958DEC9CE060E070E04CE251E00E94E3
:103AC000FCD06091DA0C7091DB0C882777FD809533
:103AD000982F0E941EDC20E030E04AE754E40E9468
:103AE00083DBDC019B01AC01209358093093590919
:103AF00040935A0950935B092093440F3093450F2C
:103B00004093460F5093470FCB0180937E0F9093C5
:103B10007F0FA093800FB093810F08958DEC9CE0F0
:103B200060E070E04CE251E00E94FCD080915809C6
:103B300090915909A0915A09B0915B098093870E21
:103B40009093880EA093890EB0938A0E8093C10E35
:103B50009093C20EA093C30EB093C40E08958DEC43
:103B60009CE060E070E04CE251E00E94FCD080916B
:103B7000580990915909A0915A09B0915B09809315
:103B8000960E9093970EA093980EB093990E8093F3
:103B9000D00E9093D10EA093D20EB093D30E089571
:103BA0008DEC9CE060E070E048EE53E00E94FCD0B9
:103BB0008091580990915909A0915A09B0915B09D7
:103BC0008093A90F9093AA0FA093AB0FB093AC0F63
:103BD00008958DEC9CE060E070E048EE53E00E94B8
:103BE000FCD08091580990915909A0915A09B0913F
:103BF0005B098093FB0E9093FC0EA093FD0EB09397
:103C0000FE0E08958DEC9CE060E070E048EE53E01D
:103C10000E94FCD08091580990915909A0915A09AD
:103C2000B0915B098093CB109093CC10A093CD10F2
:103C3000B093CE1008958DEC9CE060E273E048EE06
:103C400053E00E94FCD08091580990915909A091AD
:103C50005A09B0915B098093190B90931A0BA093AA
:103C60001B0BB0931C0B08958DEC9CE060E070E0A2
:103C700048EE53E00E94FCD02091DA0C3091DB0C2E
:103C800082E02935380744F480910B0184608093E9
:103C90000B0120593140B4F080910B018B7F809350
:103CA0000B0108958DEC9CE060E070E048EE53E07D
:103CB0000E94FCD08091DA0C9091DB0C9093FD096E
:103CC0008093FC0908950F931F93CF93DF930E9475
:103CD000F1110AEE16E0C4E5D5E068EC70E080E092
:103CE00090E00E943BD90E9450190E940F1D8DB791
:103CF0009EB708970FB6F8949EBF0FBE8DBFEDB765
:103D0000FEB73196ADB7BEB71296DC93CE9311973E
:103D1000138302838091580990915909A0915A09FF
:103D2000B0915B0984839583A683B7830E943CCAC4
:103D30008DB79EB708960FB6F8949EBF0FBE8DBF85
:103D4000CE010E94B3CA181619063CF680E0DF9136
:103D5000CF911F910F91089580915A1290915B120B
:103D6000892B09F45AC00E9407D92091541230912E
:103D700055124091561250915712621B730B840BCF
:103D8000950B209158123091591240E050E0621783
:103D900073078407950708F440C037C001979093D4
:103DA0005B1280935A1280915A1290915B12892B68
:103DB000A1F10E9407D96093541270935512809319
:103DC00056129093571260915312862F845084306C
:103DD00088F480915A1280FF05C040915C12509186
:103DE0005D1204C040915E1250915F1288E194E12F
:103DF0000E94748780915312853079F480910B0171
:103E000094E0892780930B01089580915A12909134
:103E10005B121816190614F2C6CF0895CF93DF93DC
:103E2000C0E0D0E084E595E065E072E00E94F0D665
:103E30002196C832D105B1F784E595E060E072E0E3
:103E40000E94D7D7DF91CF91089500D00F9284E5DB
:103E500095E0EDB7FEB79283818386E597E0948382
:103E600083830E943CCA0F900F900F900F900E9486
:103E70000E1F0E940D130E94531382E090E00E94D7
:103E80003617089500D000D0EDB7FEB7319684E51F
:103E900095E0ADB7BEB712969C938E93119782E1D1
:103EA00099E0938382838091680990916909958351
:103EB00084830E943CCA8DB79EB706960FB6F894CD
:103EC0009EBF0FBE8DBF0E940E1F82E090E00E9439
:103ED0003617089500D00F9284E595E0EDB7FEB750
:103EE0009283818381E299E0948383830E943CCA18
:103EF0000F900F900F900F900E940E1F0E94AD1315
:103F000082E090E00E9436170895CF93DF9300D0AF
:103F10000F92C4E5D5E0EDB7FEB7D283C1838EEA38
:103F200099E0948383830E943CCA0F900F900F9076
:103F30000F900E940E1F00D00F92EDB7FEB7D283F4
:103F4000C18382EA99E0948383830E943CCA809172
:103F50000D0B0F900F900F900F90813049F400D00F
:103F60000F92EDB7FEB7D283C1838AE999E015C0FD
:103F7000882349F400D00F92EDB7FEB7D283C183F6
:103F800082E999E00AC0823081F400D00F92EDB747
:103F9000FEB7D283C1838AE899E0948383830E9429
:103FA0003CCA0F900F900F900F9082E090E00E941B
:103FB0003617DF91CF91089500D00F9284E595E0F8
:103FC000EDB7FEB7928381838EED99E0948383836E
:103FD0000E943CCA0F900F900F900F900E940E1FEE
:103FE0008091D00A882311F40E9475128091D00A22
:103FF000813091F400D00F9284E595E0EDB7FEB7E3
:104000009283818386ED99E0948383830E943CCAE6
:104010000F900F900F900F908091D00A823091F402
:1040200000D00F9284E595E0EDB7FEB792838183CF
:104030008EEC99E0948383830E943CCA0F900F908A
:104040000F900F908091D00A833091F400D00F929E
:1040500084E595E0EDB7FEB79283818383EC99E028
:10406000948383830E943CCA0F900F900F900F900F
:104070008091D00A843091F400D00F9284E595E0CD
:10408000EDB7FEB79283818385EB99E094838383B8
:104090000E943CCA0F900F900F900F9082E090E02A
:1040A0000E94361708951F93CF93DF9300D00F928D
:1040B00084E595E0EDB7FEB79283818384EF99E0C4
:1040C000948383830E943CCA0F900F900F900F90AF
:1040D0000E940E1FC5E5DAE010E0812F68810E9482
:1040E00047172C961F5F1630C1F782E090E00E94C0
:1040F0003617DF91CF911F910895CF93DF9300D0B2
:104100000F92C4E5D5E0ADB7BEB71296DC93CE935F
:1041100011978AE49AE014969C938E9313970E94C9
:104120003CCA0F900F900F900F900E940E1F20918D
:10413000010B222321F480E00E9475121FC000D0E1
:1041400000D0EDB7FEB73196ADB7BEB71296DC938F
:10415000CE93119785E49AE093838283822F9927E7
:1041600087FD9095958384830E943CCAEDB7FEB786
:1041700036960FB6F894FEBF0FBEEDBF82E090E01A
:104180000E943617DF91CF91089500D00F9284E5F9
:1041900095E0EDB7FEB79283818382EC93E194833F
:1041A00083830E943CCA0F900F900F900F900E9443
:1041B0000E1F8091D1130E94751282E090E00E9440
:1041C00036170895ACE0B0E0E8EEF0E20C9402DFC0
:1041D00040918A0350918B0360918C0370918D0301
:1041E00089EC97E00E94D5B6DE011196EEE4F8E086
:1041F0008CE001900D928150E1F7ACE2B1E1FE015B
:1042000031968CE001900D928150E1F72C96E2E01E
:104210000C941EDFACE2B0E0E0E1F1E20C94F2DEDF
:10422000DE011196EAEFF7E084E201900D928150F1
:10423000E1F769807A808B809C80AD84BE84CF84D6
:10424000D888298C3A8C4B8C5C8C89A19AA1ABA123
:10425000BCA189A79AA7ABA7BCA78D8D9E8DAF8D5A
:10426000B8A18DA39EA3AFA3B8A7C401B301A401B5
:1042700093010E94A8DD7B018C01C601B501A60156
:1042800095010E94A8DD9B01AC01C801B7010E9405
:104290009FDA0E9415DE7B018C01C601B501A801E1
:1042A00097010E9483DB609396037093970380933A
:1042B000980390939903C401B301A80197010E9448
:1042C00083DB60938D1170938E1180938F11909387
:1042D0009011D201C101B05880938511909386113D
:1042E000A0938711B0938811C201B101A20191017D
:1042F0000E94A8DD9B01AC0160E070E080E89FE3D4
:104300000E949EDA0E9415DE7B018C0160938E0371
:1043100070938F03809390039093910369A57AA57E
:104320008BA59CA5A80197010E9483DB6093920353
:104330007093930380939403909395036DA17EA152
:104340008FA198A5A80197010E9483DB6093891132
:1043500070938A1180938B1190938C11AC96E2E14B
:104360000C940EDFA4E2B0E0E8EBF1E20C94FADE8C
:104370000E94251F8DE797E06BE379ED0E9454C6FC
:104380000E94251F0E94F11168EE73E080E090E02A
:104390000E943BD90E9407D960937F1170938011CE
:1043A000809381119093821117E4A12E17E0B12E12
:1043B000B4E0CB2EB7E0DB2EA4E5EA2EA5E0FA2E82
:1043C0008E010F5F1F4F0E9407D920917F113091FE
:1043D00080114091811150918211621B730B840BEB
:1043E000950B653071058105910508F4F1C00E94B7
:1043F00007D920917F11621B6093831170E080E0E8
:1044000090E00E941CDC20E030E04AE754E40E9487
:1044100083DB60938A0370938B0380938C03909368
:104420008D030E9407D960937F1170938011809350
:104430008111909382110E94E220809184118F5FFC
:1044400080938411843011F40E940A218091841198
:10445000843109F05AC00E945019109284118DB70E
:104460009EB740970FB6F8949EBF0FBE8DBFEDB7B5
:10447000FEB73196ADB7BEB71296FC92EE92119789
:10448000B382A2828091C9079091CA07A091CB07FD
:10449000B091CC0784839583A683B7838091CD07A1
:1044A0009091CE07A091CF07B091D00780879187D8
:1044B000A287B3878091D1079091D207A091D307AB
:1044C000B091D40784879587A687B7870E943CCA96
:1044D0008DB79EB740960FB6F8949EBF0FBE8DBFA6
:1044E0008091E90A882389F08CEE95E00E94499634
:1044F000D801EAEFF7E084E201900D928150E1F7F4
:104500008CEE95E0B8010E9424A3ADB7BEB75C97CE
:104510000FB6F894BEBF0FBEADBFEDB7FEB7319674
:104520001296FC92EE921197D382C28280918E03F2
:1045300090918F03A0919003B09191038483958310
:10454000A683B7838091851190918611A0918711E0
:10455000B091881180879187A287B3878091920359
:1045600090919303A0919403B091950384879587CC
:10457000A687B7878091891190918A11A0918B119C
:10458000B0918C11808B918BA28BB38B8091960311
:1045900090919703A0919803B0919903848B958B88
:1045A000A68BB78B80918D1190918E11A0918F1158
:1045B000B0919011808F918FA28FB38F0E943CCACF
:1045C0008DB79EB74C960FB6F8949EBF0FBE8DBFA9
:1045D00084E595E00E94B3CA181619060CF0F3CED4
:1045E00080E0A496EAE00C9416DFAF92BF92CF92DF
:1045F000DF92EF92FF920F931F937C018B01FB01DF
:104600006781708581859285F70127813085418595
:104610005285621B730B840B950B0E941EDC5B01A1
:104620006C01F8016385748585859685F70123857E
:10463000348545855685621B730B840B950B0E9450
:104640001EDC20919C0330919D0340919E0350916C
:104650009F030E94A8DD7B018C01C601B501A60164
:1046600095010E94A8DD5B016C01C801B701A8019A
:1046700097010E94A8DD9B01AC01C601B5010E9413
:104680009FDA0E9415DE28EC32E646E35CE30E94E6
:10469000A8DD0E94EBDB9B01AC01CA011F910F91C9
:1046A000FF90EF90DF90CF90BF90AF900895CF92A2
:1046B000DF92FF920F931F93CF93DF930E94F1112C
:1046C00000D00F9204E515E0ADB7BEB712961C936B
:1046D0000E93119786EA97E014969C938E93139706
:1046E0000E943CCA0F900F900F900F9068EE73E0FD
:1046F00080E090E00E943BD982EAC82E87E0D82E65
:10470000C0E0D0E0F02E012F20C08AE895E06C2FA9
:104710000E943B8900D000D0EDB7FEB73196ADB70F
:10472000BEB71196FC92119712960C93D382C28257
:10473000958384830E943CCA2196EDB7FEB73696D6
:104740000FB6F894FEBF0FBEEDBFC930D105ECF235
:1047500084E595E00E94C0D764E170E080E090E0DD
:104760000E943BD984E595E00E94B3CA1816190649
:104770001CF0C0E0D0E0E9CF80E0DF91CF911F9145
:104780000F91FF90DF90CF900895A0E0B0E0EBECA8
:10479000F3E20C94FCDE0E94F11168EE73E080E01D
:1047A00090E00E943BD92BEAC22E27E0D22E94E55E
:1047B000E92E95E0F92E6DE471E080E090E00E9432
:1047C0003BD90E945C1180912A1190912B110E947B
:1047D00094C0C0912A11D0912B118FA1882309F484
:1047E00045C08DB79EB742970FB6F8949EBF0FBED7
:1047F0008DBF0DB71EB70F5F1F4FEDB7FEB7F2822B
:10480000E182F801D382C2828C859D85AE85BF8509
:1048100084839583A683B78388899989AA89BB896C
:1048200080879187A287B3876C897D898E899F89CC
:1048300024E630E040E050E00E94D7DEF801248713
:104840003587468757878EA1808B118A0E943CCA84
:10485000E0912A11F0912B1117A28DB79EB74296C5
:104860000FB6F8949EBF0FBE8DBF06C084E595E0DD
:1048700067E072E00E94F0D684E595E00E94B3CA3A
:10488000181619060CF097CF80E0CDB7DEB7E8E038
:104890000C9418DF00D00F9284E595E0EDB7FEB7D9
:1048A0009283818388E398E0948383830E943CCA47
:1048B0000F900F900F900F908FE391E10E94B592AF
:1048C00080E0089584E591E10E94B59280E008952A
:1048D000CF93DF9300D00F92C4E5D5E0EDB7FEB7DC
:1048E000D283C18384E099E0948383830E943CCA8D
:1048F0000F900F900F900F9080914B0B90914C0B5D
:104900008451954064F168EE73E080E090E00E948D
:104910003BD900D00F92EDB7FEB7D283C1838BEDA8
:1049200098E0948383830E943CCA0F900F900F906D
:104930000F9068EE73E080E090E00E943BD900D0D9
:104940000F92EDB7FEB7D283C18388EB98E09483D2
:1049500083830E943CCA0F900F900F900F9086E4C3
:1049600091E10E94B59280E0DF91CF91089588E3B4
:1049700091E10E94B59280E0089589EB9AE00E944F
:10498000D98B00D00F9284E595E0EDB7FEB7928306
:1049900081838DEE99E0948383830E943CCA0F90BB
:1049A0000F900F900F900E940E1F8091C40A0E94DA
:1049B000751282E090E00E9436170895A0E0B0E002
:1049C000E4EEF4E20C94FCDE00D00F9244E5E42E19
:1049D00045E0F42EADB7BEB71296FC92EE92119759
:1049E0008CE39AE014969C938E9313970E943CCA92
:1049F0000F900F900F900F900E940E1F8091E90A68
:104A00000E9475123CEEC32E35E0D32EC6010E94E3
:104A10000E9BCDB7DEB728970FB6F894DEBF0FBE5A
:104A2000CDBF0DB71EB70F5F1F4FFA82E9822CE290
:104A30003AE0F8013383228321EE3EE245E652E478
:104A40000E94A8DDD80114966D937D938D939C935D
:104A500017970E943CCACDB7DEB728960FB6F894D8
:104A6000DEBF0FBECDBFC6010E94099B9C01EDB702
:104A7000FEB770970FB6F894FEBF0FBEEDBF31962C
:104A8000ADB7BEB71296FC92EE9211978BE09AE00A
:104A900093838283E90188819981AA81BB81848380
:104AA0009583A683B7838C819D81AE81BF818087EA
:104AB0009187A287B38788859985AA85BB858487D6
:104AC0009587A687B7870E943CCAEDB7FEB7709658
:104AD0000FB6F894FEBF0FBEEDBF82E090E00E94DB
:104AE0003617CDB7DEB7E8E00C9418DFFF920F93CE
:104AF0001F93F82E8B0188E090E00E9436170E94E9
:104B0000421F0E946A1F0E94851F0E94DC1F0E9494
:104B1000BD240E9453200E94251F0E94DE248F2D59
:104B2000B8010E948A9180E01F910F91FF90089533
:104B3000FB01608971898289938925E33AEF4EE808
:104B40005CE30E94A8DDAB01BC018CEE95E00E9405
:104B5000A9A50E94DE2480E00895FB01848580934E
:104B6000010B86EF9AE00E94688C0E947D2080E015
:104B7000089500D00F9284E595E0EDB7FEB79283DB
:104B8000818385E09BE0948383830E943CCA81E01B
:104B90008093F50A0F900F900F900F908AEE9AE095
:104BA0000E94688C64E170E080E090E00E943BD954
:104BB00084E595E00E94B3CA181619069CF7109276
:104BC000F50A8AEE9AE00E94688C80E0089564E11C
:104BD00070E080E090E00E943BD90E945019209143
:104BE000F30B3091F40B3093941120939311309385
:104BF000961120939511309398112093971130932B
:104C00009A11209399113093A01120939F11309302
:104C1000A2112093A11180910D0B813009F04BC09E
:104C20008091360B9091370B4BE0893B940734F021
:104C30002E5C3F4F30939411209393118854944FDE
:104C40004CF48091951190919611C2969093961183
:104C50008093951120918A0B30918B0B4BE0293B6F
:104C6000340794F08091A1119091A211C296909373
:104C7000A2118093A1118091991190919A11C296DD
:104C800090939A11809399112854344F0CF057C087
:104C900080919F119091A011C2969093A011809342
:104CA0009F118091971190919811C29690939811AD
:104CB0008093971144C04091360B5091370B8BE095
:104CC000493B580754F0C901C29690939A118093BA
:104CD00099119093A2118093A1114854544F94F4C8
:104CE00080919F119091A011C2969093A0118093F2
:104CF0009F118091971190919811C296909398115D
:104D00008093971120918A0B30918B0B4BE0293BBC
:104D100034074CF08091951190919611C296909322
:104D20009611809395112854344F4CF4809193112F
:104D300090919411C2969093941180939311409105
:104D400093115091941188E194E160E00E9474877E
:104D5000409195115091961188E194E161E00E9493
:104D60007487409197115091981188E194E162E025
:104D70000E9474874091991150919A1188E194E1B1
:104D800063E00E94748740919F115091A01188E1C7
:104D900094E166E00E9474874091A1115091A211A4
:104DA00088E194E167E00E94748784E595E00E94C1
:104DB000B3CA181619060CF00ACF1092F50A8AEE3B
:104DC0009AE00E94688C80E00895FF920F931F93F1
:104DD000CF93DF9300D00F9284E595E0EDB7FEB757
:104DE000928381838EE99AE0948383830E943CCAF4
:104DF0000F900F900F900F900E94F111FF2410E080
:104E000064E170E080E090E00E943BD90E9450197C
:104E10000E941210082FF816A1F090E0FC01EE0F8E
:104E2000FF1FE80FF91FEE0FFF1FEE0FFF1FE65BDE
:104E3000F54F1385193008F018E0802F612F0E947C
:104E400047170E94BA108823B1F01F5F193009F488
:104E500010E0802F90E0FC01EE0FFF1FE80FF91F1C
:104E6000EE0FFF1FEE0FFF1FE65BF54F1387802F3E
:104E7000612F0E94471784E595E00E94B3CAF02E87
:104E8000181619060CF0BCCFCAE4DAE0CE010E9475
:104E9000688C2C96FAE0C239DF07C1F70E948114B2
:104EA0000E94532080E0CDB7DEB7E5E00C941BDF15
:104EB000A4E2B0E0EEE5F7E20C9400DF80E090E0E1
:104EC000A0E8BFE389839A83AB83BC8380E090E052
:104ED000A0E0B0E08D839E83AF83B88789879A87EF
:104EE000AB87BC878D879E87AF87B88B20E030E08B
:104EF00040E85FEB298B3A8B4B8B5C8B8D8B9E8BC9
:104F0000AF8BB88F898F9A8FAB8FBC8F8D8F9E8F11
:104F1000AF8FB8A329A33AA34BA35CA30CEE15E073
:104F2000C801BE016F5F7F4F0E94159689EC97E024
:104F3000B8010E94E6A6C8010E946D98C8010E94AF
:104F4000099BA496E4E00C941CDFCF93DF93FB0154
:104F5000C285D385CE0164E87AE00E949EE0892B69
:104F600021F481E08093C40A09C0CE0160E87AE0B0
:104F70000E949EE0892B39F41092C40A89EB9AE0D2
:104F80000E94688C12C000D00F9284E595E0EDB7C6
:104F9000FEB7928381838CE69AE0948383830E9498
:104FA0003CCA0F900F900F900F900E94BD2480E09C
:104FB000DF91CF910895CF93DF93FB01EB012A9608
:104FC000828593856AE97AE00E949EE0892B19F434
:104FD0001092D00A0FC02A813B814C815D81DA0199
:104FE000C9010197A109B1090497A105B10538F4D8
:104FF0002093D00A85EC9AE00E94688C12C000D001
:105000000F9284E595E0EDB7FEB79283818387E840
:105010009AE0948383830E943CCA0F900F900F9074
:105020000F900E94DC1F80E0DF91CF910895CF9315
:10503000DF93FB01C285D385CE0161EE7BE00E9448
:105040009EE0892B11F481E019C0CE016FED7BE069
:105050000E949EE0892B39F0CE016DED7BE00E942D
:105060009EE0892B19F410920D0B0AC0CE016BED56
:105070007BE00E949EE0892B41F482E080930D0B3F
:1050800082E09BE00E94688C12C000D00F9284E501
:1050900095E0EDB7FEB79283818389EC9BE0948322
:1050A00083830E943CCA0F900F900F900F900E9434
:1050B000851F80E0DF91CF910895ACE0B0E0E3E69A
:1050C000F8E20C9400DFFB0102851385C80169E654
:1050D0007AE00E949EE0892B51F481E08093E90AF6
:1050E0008EED9AE00E94688C0E9458273CC0C8014F
:1050F00065E67AE00E949EE0892B11F580E090E061
:10510000A0E0B0E089839A83AB83BC838D839E83C8
:10511000AF83B88789879A87AB87BC878CEE95E089
:10512000BE016F5F7F4F0E94EC9A8CEE95E00E946B
:10513000B5A51092E90A8EED9AE00E94688C13C022
:1051400000D00F9284E595E0EDB7FEB7928381839E
:1051500082E59AE0948383830E943CCA0F900F906B
:105160000F900F9004C08EED9AE00E94688C0E9410
:10517000DE2480E02C96E4E00C941CDF8DE797E0C1
:105180006BE379ED0E943FC60E9453130E94251FD6
:1051900080E008950F931F93CF93DF9384E595E00C
:1051A00069E072E00E94D7D700E064E170E080E03F
:1051B00090E00E943BD90E9450190F5F0436A9F776
:1051C000C091340BD091350B81E0C43FD8073CF43B
:1051D00068EE73E080E090E00E943BD9F9CFD09375
:1051E0004C0BC0934B0B2091880B3091890B309363
:1051F000A00B20939F0B0091DC0B1091DD0B109303
:10520000F40B0093F30B8091300C9091310C909340
:10521000480C8093470CA091840CB091850CB093FE
:105220009C0CA0939B0CE091D80CF091D90CF093BE
:10523000F00CE093EF0C60912C0D70912D0D70939C
:10524000440D6093430D4091800D5091810D50931A
:10525000980D4093970DD093660BC093650B3093D8
:10526000BA0B2093B90B10930E0C00930D0C909376
:10527000620C8093610CB093B60CA093B50CF093C4
:105280000A0DE093090D70935E0D60935D0D5093D0
:10529000B20D4093B10DD093590BC093580B30937E
:1052A000AD0B2093AC0B9093550C8093540C8CED6C
:1052B00095E09093A90C8093A80C9093FD0C80939B
:1052C000FC0C9093510D8093500D9093A50D8093FD
:1052D000A40D00D00F9284E595E0EDB7FEB7928360
:1052E000818383EE9BE0948383830E943CCA0F906A
:1052F0000F900F900F9064E170E080E090E00E94CA
:105300003BD90E94501989E29BE00E9454D18DE75D
:105310009BE00E9454D181ED9BE00E9454D185E234
:105320009CE00E9454D189E79CE00E9454D18DEC0E
:105330009CE00E9454D181E29DE00E9454D185E717
:105340009DE00E9454D184E595E00E94B3CA1816EE
:1053500019068CF664E170E080E090E00E943BD991
:1053600084E595E00E9430CB89E29BE00E9475D3F2
:105370008DE79BE00E9475D381ED9BE00E9475D381
:1053800085E29CE00E9475D389E79CE00E9475D37A
:105390008DEC9CE00E9475D381E29DE00E9475D364
:1053A00085E79DE00E9475D30E9481140E946A1FC8
:1053B00080E0DF91CF911F910F91089500D00F925F
:1053C00084E595E0EDB7FEB79283818380E49CE0AD
:1053D000948383830E943CCA0F900F900F900F908C
:1053E00084E595E00E94E3CAFFEF8F3F9F07C1F37A
:1053F0008937910529F08935910511F08FEF0895CE
:105400000E94448C00D00F9284E595E0EDB7FEB782
:10541000928381838BE19CE0948383830E943CCAC6
:105420000F900F900F900F9068EE73E080E090E087
:105430000E943BD9FFCFCF93DF9300D00F9284E53A
:1054400095E0EDB7FEB7928381838EE79CE094836D
:1054500083830E943CCAC0E0D0E00F900F900F9071
:105460000F90CE0160E00E949FE32196F0E1C030F2
:10547000DF07B9F700D00F9284E595E0EDB7FEB7EE
:105480009283818388E79CE0948383830E943CCA53
:105490000F900F900F900F90DF91CF9108950E9481
:1054A0001B2A80E00895EF92FF920F931F93CF93F2
:1054B000DF937B018230A1F000D00F9284E595E06C
:1054C000EDB7FEB7928381838DE39DE09483838360
:1054D0000E943CCA8FEF0F900F900F900F9091C0D9
:1054E000FB0102851385C80169E37DE00E948BE022
:1054F000892B19F4CFEFDFEF63C0C8016BE27DE0C9
:105500000E948BE0C0E0D0E0892B11F4C1E0D0E034
:10551000C8016EE17DE00E948BE0892B09F4C26036
:10552000C8016AE17DE00E948BE0892B09F4C46028
:10553000C80167E17DE00E948BE0892B09F4C86017
:10554000C80162E17DE00E948BE0892B09F4C06113
:10555000C8016DE07DE00E948BE0892B09F4C062F8
:10556000C80168E07DE00E948BE0892B09F4C064EB
:10557000C80164E07DE00E948BE0892B09F4C068DB
:10558000C80160E07DE00E948BE0892B09F4D160C6
:10559000C8016CEF7CE00E948BE0892B09F4D2609B
:1055A000C80165EF7CE00E948BE0892B09F4D46090
:1055B000C8016DEE7CE00E948BE0892B09F4D86075
:1055C000F7018081918166EE7CE00E948BE0892B5F
:1055D00039F48091AA0A9091AB0AC82BD92B08C044
:1055E000C095D0958091AA0A9091AB0AC823D9237F
:1055F000D093AB0AC093AA0A8FE99AE00E94688C04
:1056000080E0CDB7DEB7E6E00C941ADFCF93DF93EE
:1056100000D00F9284E595E0EDB7FEB792838183C9
:105620008DE59DE0948383830E943CCAC1E0D0E075
:105630000F900F900F900F908EE195E1BE010E94A8
:1056400099C72196F0E1C030DF07B1F78EE195E10F
:1056500061E070E00E948DC78EE195E163EA0E94EF
:1056600043C88EE195E165E90E9443C88EE195E16A
:1056700060EF0E9443C88EE195E160E00E9443C85C
:105680008EE195E16AEB0E9443C88EE195E10E94AC
:10569000BBC800D00F9284E595E0EDB7FEB79283CA
:1056A00081838FE49DE0948383830E943CCA0F90A2
:1056B0000F900F900F9080E0DF91CF910895CF92DF
:1056C000DF92EF92FF920F931F930EE115E1C80155
:1056D0000E94A4C96C01C8010E94A4C97C01C80130
:1056E0000E94A4C92DB73EB72A5030400FB6F89497
:1056F0003EBF0FBE2DBFEDB7FEB7319624E535E0B6
:10570000ADB7BEB712963C932E9311972CE73DE0B0
:1057100033832283D582C482F782E6829187808791
:105720000E943CCA2DB73EB7265F3F4F0FB6F89494
:105730003EBF0FBE2DBF1F910F91FF90EF90DF90E6
:10574000CF900895EF92FF920F931F9300D00F9286
:1057500004E515E0ADB7BEB712961C930E931197F2
:1057600083E99DE014969C938E9313970E943CCA04
:105770000F900F900F900F908EE1E82E85E1F82E9C
:10578000C7010E9433C9E82FF0E0EE0FFF1FE3527C
:10579000FC4F60817181C8010E94F0D6C7010E9450
:1057A000A4C900D000D0EDB7FEB73196ADB7BEB7F3
:1057B00012961C930E9311972DE83DE033832283BC
:1057C000958384830E943CCAEDB7FEB736960FB628
:1057D000F894FEBF0FBEEDBF1F910F91FF90EF90A9
:1057E0000895A4E0B0E0E7EFFBE20C94F2DE0EE1F6
:1057F00015E1C8010E94A4C99A838983C8010E9447
:10580000A4C99C838B83C8010E94A4C91C01C80140
:105810000E94A4C92C01C8010E94A4C93C01C8016E
:105820000E94A4C94C01C8010E94A4C95C01C8011E
:105830000E94A4C96C01C8010E94A4C97C01C801CE
:105840000E94A4C92DB73EB7285130400FB6F89436
:105850003EBF0FBE2DBFEDB7FEB7319624E535E054
:10586000ADB7BEB712963C932E93119728E93DE051
:105870003383228329813A8135832483AB81BC81A0
:10588000B783A683318620865386428675866486D2
:1058900097868686B18AA08AD38AC28AF58AE48AE4
:1058A000978B868B0E943CCAEDB7FEB778960FB6F1
:1058B000F894FEBF0FBEEDBF2496E2E10C940EDF1C
:1058C0007F928F929F92AF92BF92CF92DF92EF9290
:1058D000FF920F931F930EE115E1C8010E94A4C926
:1058E0004C01C8010E9433C9782EC8010E94A4C986
:1058F0005C01C8010E94A4C96C01C8010E94A4C92E
:105900007C01C8010E94A4C92DB73EB72051304088
:105910000FB6F8943EBF0FBE2DBFEDB7FEB7319660
:1059200024E535E0ADB7BEB712963C932E931197A0
:1059300022EC3DE033832283958284827682178233
:10594000B186A086D386C286F586E4869787868749
:105950000E943CCA2DB73EB7205F3F4F0FB6F89468
:105960003EBF0FBE2DBF1F910F91FF90EF90DF90B4
:10597000CF90BF90AF909F908F907F900895AF92FF
:10598000BF92CF92DF92EF92FF920F931F930EE19F
:1059900015E1C8010E94A4C95C01C8010E94A4C904
:1059A0006C01C8010E94A4C97C01C8010E94A4C95D
:1059B0002DB73EB72C5030400FB6F8943EBF0FBE07
:1059C0002DBFEDB7FEB7319624E535E0ADB7BEB7D4
:1059D00012963C932E93119726E63EE03383228362
:1059E000B582A482D782C682F186E08693878287B9
:1059F0000E943CCA2DB73EB7245F3F4F0FB6F894C4
:105A00003EBF0FBE2DBF1F910F91FF90EF90DF9013
:105A1000CF90BF90AF9008951F938EE195E161E024
:105A200070E00E94BAC910E08EE195E10E9433C98E
:105A3000113051F0113018F0123099F408C010E014
:105A4000833A79F411E00DC0853951F407C0803FE5
:105A500039F48EE195E10E9433C90AC012E001C019
:105A600010E08EE195E10E94F4C60197E9F280E032
:105A70001F910895EF92FF920F931F93CF93DF939F
:105A80008C01C0E0D0E11FC0CE01800F911F62E009
:105A900070E00E94A2DEF62EE72E8EE195E10E94D4
:105AA000BAC98EE195E10E9463C96F5F7F4F8F4F46
:105AB0009F4F29F48F2D9E2D9C01E90104C08F2D4D
:105AC0009E2D9C018901CE01801B910B0297E4F66B
:105AD000CE01CDB7DEB7E6E00C941ADFA0E0B0E06F
