:100000000C94B00B0C94DA0B0C94DA0B0C94DA0B06
:100010000C94DA0B0C94DA0B0C94DA0B0C94DA0BCC
:100020000C94DA0B0C94DA0B0C94DA0B0C94DA0BBC
:100030000C94DA0B0C94DA0B0C94DA0B0C94AF855D
:100040000C94DA0B0C94DA0B0C94DA0B0C94DA0B9C
:100050000C94DA0B0C94DA0B0C94DA0B0C9447D951
:100060000C94DA0B0C947C0D0C94BC0D0C94DA0BF4
:100070000C94DA0B0C94DA0B0C94DA0B0C94DA0B6C
:100080000C94DA0B0C94DA0B0C94DA0B0C94DA0B5C
:100090000C940E0E0C944E0E0C94DA0B0C94BDD5F1
:1000A0000C94DA0B0C944A830C94DA0B0C94DA0B54
:1000B0000C94DA0B0C94DA0B0C94DA0B0C94DA0B2C
:1000C0000C94DA0B0C94DA0B0C94DA0B0C94DA0B1C
:1000D0000C94DA0B0C94DA0B0C94A00E0C94E00E3A
:1000E0000C94DA0B501C711CE81CA61CC71C011DCB
:1000F0001A1D331D4C1D6A1D7B1D3332543236329E
:1001000039323C323F324232453248324B324E3243
:100110005132B752CC52D752E6532753A3531B53F5
:100120003C53E653E653E653E653E653E653E653B1
:10013000E653E653E653E653E653E653E653E653F7
:10014000E653D753165510551F55345570555C5509
:100150008755485530565C56655668566B56D05E86
:100160006E56D05ED05ED05E715674567756A056ED
:100170009E569E569E56AC569E56A2569E569E56CD
:10018000AF56BE56B156B4569E569E569E56B7565C
:100190009E569E569E569E569E56BE569E56C0567D
:1001A000C183C683CB83D083D583DA83DF83E483A3
:1001B000E983EE83F38346BB41BB4ABB4EBB5CBBCA
:1001C00075BB9FBBB0BBEFBCEABCF3BCFCBC23BDA2
:1001D0002FBD49BD6ABD71BDF2CEF2CE16CF85CF1F
:1001E0005ACFA0CFBBCFE8CF26D06DD084DA87DA44
:1001F0007ADA7EDAC0DA8BDA8FDA95DA99DA9DDA92
:10020000A3DAA7DAABDAB1DAB5DABBDA036EDB363A
:100210003D9A9999993DABAAAA2A3E000000803FD9
:10022000084AD73B3BCE016E84BCBFFDC12F3D6C5D
:1002300074319ABD56833DDA3D00C77F11BED9E4C3
:10024000BB4C3E916BAAAABE000000803F072C7AEF
:10025000A5BA6CC590DA3B9365FC8BBC53F810FDD6
:100260003C5692834DBD879D3AB63DCBC9BF5BBE20
:1002700073DA0FC93F05A84CCDB2D44EB93836A9B0
:10028000020C50B9918688083CA6AAAA2ABE000092
:1002900000803F08000000BE922449123EABAAAA8B
:1002A0002ABECDCCCC4C3E00000080BEABAAAAAA90
:1002B0003E00000000BF000000803F000000000082
:1002C000084178D3BB4387D1133D190E3CC3BD42CF
:1002D00082AD2B3E68EC8276BED98FE1A93E4C8080
:1002E000EFFFBE01C4FF7F3F00000000004C6F67BE
:1002F0000064756D700000000000000000000067E1
:10030000326572617365000000000000000000A704
:100310002A656E61626C650000000000000000F458
:100320002964697361626C6500000000000000F4DC
:100330002968656C7000000000000000000000AD3E
:1003400013706C616E6E657200676373000000006D
:1003500000000000000000A1607365747570006506
:1003600072617365000000000000000000F0297257
:10037000657365740000000000000000007F2972B2
:100380006164696F0000000000000000006B2866D7
:1003900072616D65000000000000000000B8276D6C
:1003A0006F746F7273000000000000000023256569
:1003B00073630000000000000000000000F5246CE2
:1003C0006576656C0000000000000000005F286D8D
:1003D0006F646573000000000000000000072662E3
:1003E000617474657279000000000000007C27735E
:1003F0006F6E61720000000000000000004627637D
:100400006F6D7061737300000000000000FE2774C0
:10041000756E6500000000000000000000E9246423
:1004200065636C696E6174696F6E000000D424733B
:10043000686F7700000000000000000000B2244157
:10044000726475436F707465722056322E302E348C
:10045000352042657461006C6F6773000000000016
:100460000000000000F32373657475700000000045
:100470000000000000A423746573740000000000F5
:1004800000000000009E2368656C70000000000002
:100490000000000000B212706C616E6E65720000A8
:1004A00000000000008623746573740070776D008F
:1004B00000000000000000000000FC187261646988
:1004C0006F00000000000000000090186661696C79
:1004D00073616665000000000000F30F6770730031
:1004E00000000000000000000000012361646300C0
:1004F000000000000000000000009222696D7500FD
:1005000000000000000000000000782162617474A7
:1005100065727900000000000000121274756E65AB
:10052000000000000000000000009C1D74726900C3
:1005300000000000000000000000C41B6375727220
:10054000656E74000000000000003E1B72656C6167
:1005500079000000000000000000B8117761797098
:100560006F696E74730000000000E116616C7469BD
:10057000747564650000000000001516736F6E61ED
:1005800072000000000000000000EF14636F6D7047
:100590006173730000000000000037147862656525
:1005A000000000000000000000005C11656564753B
:1005B0006D700000000000000000D41372617767C6
:1005C000707300000000000000001D1148697420D5
:1005D000456E74657220746F20657869742E0A0AFE
:1005E00000202530327800253034783A00426567A3
:1005F000696E205842656520582D4354552052613C
:100600006E676520616E64205253534920546573B0
:10061000743A0A00436F6D706173733A2000486545
:100620006164696E673A20256C642C2058595A3AE7
:100630002025642C2025642C2025640A0061626C2E
:1006400065640A0064697300656E00536F6E6172C1
:100650003A20256420636D0A00536F6E6172206436
:10066000697361626C65640A004261726F3A2025A9
:1006700064636D0A00486974207261643A202564DD
:100680000A0025642077700A006F662025646D0AD1
:10069000000A00486F6C6420616C742000636F6D09
:1006A0006D616E6420233A2025642069643A2564D4
:1006B000206F703A25642070313A25642070323AF8
:1006C000256C642070333A256C642070343A256CB4
:1006D00064200A0052656C6179206F66660A0052D8
:1006E000656C6179206F6E0A00563A2025342E34ED
:1006F000662C20413A2025342E34662C206D41682A
:100700003A2025342E34660A00696E7075743A20DA
:100710002564096F757470757425640A0074756EAC
:10072000653A2025312E33660A004E6F7420656EBF
:1007300061626C65640A00256C642C20256C642C55
:1007400020256C640A00494D550A004779726F20D4
:100750006F6666736574733A2025342E32662C20DA
:1007600025342E32662C2025342E32660A00416351
:1007700063656C206F6666736574733A2025342E4A
:1007800032662C2025342E32662C2025342E3266FB
:100790000A0025752C004144430A004C61743A203C
:1007A000256C642C204C6F6E20256C642C20416CD1
:1007B000743A20256C646D2C2023736174733A2085
:1007C00025640A00494E2020313A20256409323A36
:1007D00020256409333A20256409343A2025640928
:1007E000353A20256409363A20256409373A202510
:1007F000640A00494E3A20313A20256409323A20F1
:10080000256409333A20256409343A2025640935E2
:100810003A20256409363A20256409373A202564B0
:1008200009383A2025640A00506C616E6E657220AA
:100830004D6F64650A4E6F7420696E74656E6465F1
:100840006420666F72206D616E75616C20757365D2
:100850000A0A00436F6D6D616E64733A0A20206C62
:100860006F67730A202073657475700A20207465A1
:1008700073740A2020706C616E6E65720A0A4D6F87
:1008800076652074686520736C6964652073776988
:1008900074636820616E6420726573657420746F80
:1008A00020464C592E0A0A000A20547970652027E8
:1008B000726164696F2720746F20636F6E66696769
:1008C000757265206E6F772E0A0A000A21576172D1
:1008D0006E696E672C20796F757220726164696F22
:1008E000206973206E6F7420636F6E66696775721E
:1008F000656421005365747570204D6F64650A0A44
:100900000A0046572056657273696F6E2025640A87
:1009100000526164696F0A004348373A2025642019
:100920007C2025640A004348363A202564207C2038
:1009300025640A004348353A202564207C2025643C
:100940000A004348343A202564207C2025640A00AC
:100950004348333A202564207C2025640A0043481C
:10096000323A202564207C2025640A004348313A2D
:10097000202564207C2025640A0056206D6F646564
:100980000A002B206D6F64650A0058206D6F646546
:100990000A0051756164206672616D650A004672D5
:1009A000616D650A00766F6C747320616E642063FC
:1009B0007572006261747420766F6C7473003420F9
:1009C00063656C6C7300332063656C6C73000A4262
:1009D000617474204D6F696E746F720A00536F6E8C
:1009E00061720A00466C69676874206D6F64657394
:1009F0000A004F46460A004F4E0A002C0909536967
:100A00006D706C653A2000506F732025643A0900C0
:100A10004D6167206F6666736574733A2025342EC6
:100A200034662C2025342E34662C2025342E346652
:100A3000004D6167204465633A2025342E34660AF0
:100A400000436F6D706173730A002025640A000A09
:100A500054554E453A0A000A4F7074696F6E733AE6
:100A60005B6F6E2C6F66665D0A006F6666006F6E68
:100A7000000A4F7074696F6E733A5B6F6E2C206F53
:100A800066665D0A006F6666006F6E000A4F7074DE
:100A9000696F6E733A206F66662C20312D34006FBB
:100AA0006666000A4D6F7665206D6F64652073770A
:100AB0006974636820746F20656469742C206169AF
:100AC0006C65726F6E3A2073656C656374206D6F30
:100AD0006465732C207275646465723A2053696D85
:100AE000706C65206F6E2F6F66660A000A53617620
:100AF00065642053657474696E67730A0A000A4559
:100B000053432043616C6962726174696F6E3A0A83
:100B10002D3120556E706C75672055534220616EE3
:100B20006420626174746572790A2D32204D6F768B
:100B30006520434C492F464C59207377697463688C
:100B400020746F20464C59206D6F64650A2D332048
:100B50004D6F7665207468726F74746C6520746F65
:100B6000206D61782C20636F6E6E65637420626106
:100B700074746572790A2D3420416674657220742C
:100B8000776F206C6F6E672062656570732C2074C0
:100B900068726F74746C6520746F20302C207468D8
:100BA000656E20746573740A0A2050726573732031
:100BB000456E74657220746F2063616E63656C2E80
:100BC0000A000A4F7074696F6E733A5B782C2B2C95
:100BD000765D0A0076002B00700078000A4D6F7673
:100BE0006520616C6C20636F6E74726F6C7320741F
:100BF0006F20656163682065787472656D652E206D
:100C000048697420456E74657220746F2073617634
:100C1000653A20000A464143544F525920524553E9
:100C2000455420636F6D706C657465202D2072656E
:100C3000626F6F742041504D000A275927202B20E6
:100C4000456E74657220746F20666163746F72798B
:100C50002072657365742C20616E79206F746865ED
:100C600072206B657920746F2061626F72743A0A2A
:100C700000646F6E650A000A45726173696E6720D1
:100C8000454550524F4D0A000A436F6D6D616E64C9
:100C9000733A0A202064756D70203C6E3E202065FA
:100CA000726173652028616C6C206C6F6773290A10
:100CB0002020656E61626C65203C6E616D653E2032
:100CC0007C20616C6C0A202064697361626C652011
:100CD0003C6E616D653E207C20616C6C0A0A00658B
:100CE0006E61626C65004F5054464C4F57004D4F3B
:100CF000544F52530043555200434D440052415704
:100D0000004D4F4445004E54554E004354554E003F
:100D1000504D004750530041545449545544455F89
:100D20004D45440041545449545544455F46415350
:100D30005400616C6C006D697373696E67206C6F31
:100D40006720747970650A000A4C6F6720657261CC
:100D50007365642E0A000A45726173696E67206CC0
:100D60006F672E2E2E0A00626164206C6F6720234D
:100D70002025640A004154542C2025642C2025642D
:100D80002C2025752C2025642C2025642C202564FE
:100D90000A002C2025640A004D4F443A0043545564
:100DA0004E2C2025642C2025642C2025642C202505
:100DB000642C2025642C2025642C2025642C2025DF
:100DC000640A004E54554E2C2025642C2025642C9A
:100DD0002025642C2025642C2025640A00504D2CED
:100DE0002025642C2025642C2025642C2025642CAF
:100DF0002025642C2025642C2025642C20256C645F
:100E00000A005241572C00434D442C2025642C20CD
:100E100025642C2025642C2025642C2025642C207E
:100E2000256C642C20256C642C20256C640A0043FE
:100E30005552523A2025642C20256C642C202534F0
:100E40002E34662C2025342E34662C2025640A008E
:100E500053544152542055500A004D4F543A2025C6
:100E6000642C2025642C2025642C2025640A004F46
:100E7000462C2025642C2025642C2025642C20253C
:100E8000342E37662C2025342E37660A00475053FF
:100E90002C20256C642C2025642C2025342E3766CC
:100EA0002C2025342E37662C2025342E34662C2019
:100EB00025342E34662C2025642C2025750A0058F4
:100EC000545241434B5F005448525F484F4C445F7B
:100ED000004E41565F4C4F4E5F004E41565F4C41B5
:100EE000545F00484C445F4C4F4E5F00484C445F99
:100EF0004C41545F005354425F5941575F00535473
:100F0000425F5049545F005354425F524C4C5F0063
:100F1000524154455F5941575F00524154455F501B
:100F200049545F00524154455F524C4C5F0052435C
:100F30005F43525F0052435F43505F005243385F4C
:100F4000005243375F005243365F005243355F0023
:100F50005243345F005243335F005243325F0052CA
:100F600043315F004C4F575F564F4C5400494E5F22
:100F7000564F4C5400464C4F575F454E41424C45EE
:100F80000054425F524154494F004652414D450082
:100F900054554E4500455343004D41475F454E4132
:100FA000424C4500424154545F43415041434954EF
:100FB0005900424154545F4D4F4E49544F520053D3
:100FC0004F4E41525F454E41424C4500414C545FAB
:100FD000484F4C445F52544C004C4F475F42495479
:100FE0004D41534B0053494D504C4500464C544DD8
:100FF0004F44453600464C544D4F44453500464C11
:10100000544D4F44453400464C544D4F44453300F5
:10101000464C544D4F44453200464C544D4F444588
:1010200031005452494D5F5448524F54544C45007E
:101030005448525F46535F56414C55450054485200
:101040005F46535F414354494F4E005448525F46F8
:1010500041494C53414645005448525F4D41580068
:101060005448525F4D494E0057505F5350454544D8
:101070005F4D41580057505F4C4F495445525F52A5
:1010800041440057505F5241444955530057505F07
:101090004D5553545F494E4445580057505F494E93
:1010A0004445580057505F544F54414C0057505FCF
:1010B0004D4F4445005854524B5F414E474C455F9D
:1010C00043440053455249414C335F42415544002B
:1010D00053595349445F4D5947435300535953495A
:1010E000445F544849534D41560053595349445F56
:1010F00053575F545950450053595349445F535710
:101100005F4D52455600524556004D4158005452CD
:10111000494D004D494E00494D415800490050008D
:10112000494D555F53454E534F525F43414C004C20
:101130006F6720232025642C202020207374617287
:10114000742025642C202020656E642025640A000C
:101150000A2564206C6F67730A000A4E6F206C6F5B
:1011600067730A54797065202764756D7020302785
:101170002E0A0A00204F5054464C4F5700204D4F26
:10118000544F5253002043555252454E5400204371
:101190004D44002052415700204E54554E002043EC
:1011A00054554E0020504D002047505300204154CC
:1011B0005449545544455F4D4544002041545449D9
:1011C000545544455F46415354006E6F6E65006C44
:1011D0006F677320656E61626C65643A2000666CAF
:1011E0006967687420706C616E20726563656976EA
:1011F000656400616374696F6E207265636569760A
:1012000065643A20006572726F723A206E6F6E2DBF
:101210004E617620636D64006F7574206F66206385
:101220006F6D6D616E64732100776179706F696EA7
:101230007420726563656976652074696D656F7584
:101240007400776179706F696E742073656E6420C5
:1012500074696D656F75740045585452413300458B
:1012600058545241320045585452413100504F5366
:101270004954494F4E005241575F4354524C00521B
:10128000435F4348414E004558545F535441540016
:101290005241575F53454E53005352335F005352F0
:1012A000305F0047524F554E442053544152540032
:1012B0000A456E746572696E6720696E7465726145
:1012C0006374697665207365747570206D6F6465ED
:1012D0002E2E2E0A0A54797065202768656C7027B7
:1012E00020746F206C69737420636F6D6D616E6420
:1012F000732C2027657869742720746F206C6561D2
:1013000076652061207375626D656E752E0A56696B
:10131000736974207468652027736574757027205D
:101320006D656E7520666F722066697273742D74B8
:10133000696D6520636F6E66696775726174696F48
:101340006E2E0A0A00506C656173652052756E201E
:1013500053657475702E2E2E0A004669726D776182
:101360007265206368616E67653A206572617369B2
:101370006E6720454550524F4D2E2E2E0A000A0A08
:10138000496E69742041726475436F707465722090
:1013900056322E302E343520426574610A0A467268
:1013A00065652052414D3A20256C750A00496E76DC
:1013B000616C69642053455249414C335F42415549
:1013C00044004C6F67732066756C6C000A4750537D
:1013D0000A00253033753A25733A20006E6F742069
:1013E000666F756E6400253033753A252D33322EC5
:1013F0003332733A2000756E6B6E6F776E2074799E
:101400007065006E6F7420666F756E640025733AA8
:1014100020006D697373696E67206E616D65206F62
:10142000722076616C7565003F3F0025640025647D
:1014300000256C64002566002566006578697400E7
:1014400068656C700044454300434F4D5041535311
:101450005F00245047434D442C31362C302C302C27
:10146000302C302C302A36410D0A00245055425879
:101470002C34312C312C303030332C303030312C76
:1014800033383430302C302A323600245053524610
:101490003130302C302C33383430302C382C312C47
:1014A000302A33430020536952462000204D544BCC
:1014B000312E3620002075626C6F782000204D544C
:1014C0004B312E3420006661696C65642C20726596
:1014D000747279696E67004F4B0020002A00496ED4
:1014E000697420416363656C002A00496E69742049
:1014F0004779726F006E616E00696E660000407A17
:1015000010F35A00A0724E18090010A5D4E800008C
:10151000E87648170000E40B54020000CA9A3B002A
:101520000000E1F505000080969800000040420FA1
:10153000000000A08601000000102700000000E865
:1015400003000000006400000000000A000000002A
:10155000000100000000002C76D888DC674F0823CB
:10156000DFC1DFAE59E1B1B796E5E3E453C63AE631
:1015700051997696E8E6C28426EB898C9B62ED4011
:101580007C6FFCEFBC9C9F40F2BAA56FA5F4900560
:101590005A2AF75C936B6CF9676DC11BFCE0E40D94
:1015A00047FEF520E6B500D0ED902E030094357788
:1015B000050080841E080000204E0A000000C80CB0
:1015C000333333330F986E12831141EF8D21148919
:1015D0003BE65516CFFEE6DB18D1844B381BF77C73
:1015E0001D901DA4BBE424203284725E228100C9B8
:1015F000F124ECA1E53D2700002100240027002A6A
:10160000002D003000330001010000040107010A31
:101610000100002200250028002B002E003100349C
:101620000002010000050108010B01000020002359
:1016300000260029002C002F0032000001000003CA
:101640000106010901050505050705080808080246
:101650000202020A0A08080404040401010101014B
:101660000101010303030303030303040707070C3A
:101670000C0C0C0C0C0C0C020202020606060606F0
:101680000606060B0B0B0B0B0B0B0B01021020209D
:1016900008081020401020408002010201080402C6
:1016A000010102040810204080804020100804023C
:1016B0000180040201804020100804020108040295
:1016C000010102040810204080010204081020409B
:1016D000800000090A02080B0C0D07060304010034
:1016E00000000000000000000000000000000000FA
:1016F00000000000000000000000000000100F0EBD
:1017000000000000000000000000000000000000D9
:1017100000000000000000494E46494E4954594E11
:10172000414ECDCCCC3D0AD7233C17B7D13877CC2E
:101730002B329595E6241FB14F0A0000204100008E
:10174000C84200401C4620BCBE4CCA1B0E5AAEC547
:101750009D74F83D6C84E68D44C4C1D4F13DDF8DA9
:1017600011241FBECFEFD1E2DEBFCDBF15E0A0E058
:10177000B2E0E8E0FCEC01E00BBF02C007900D9284
:10178000A831B107D9F715E1A8E1B5E001C01D9274
:10179000AD3DB107E1F717E1CCE5D7E104C02297F1
:1017A000FE010E949FDFC235D107C9F70E943CD7D6
:1017B0000C94F7E50C940000283008F027E033275C
:1017C000DA01990F311D87FD916000966105710561
:1017D00039F432602E5F3D9330E32A95E1F70895A6
:1017E0009F3F30F080387105610509F03C5F3C5F38
:1017F0003D93913008F08068911DDF93CF931F9344
:101800000F93FF92EF92192F987F9695E92F969557
:101810009695E90FFF27E95AFA4E99273327EE24C8
:10182000FF24A701E70105900894079428F4360FD8
:10183000E71EF81E491F511D660F771F881F991F4D
:101840000694A1F70590079428F4E70EF81E491FA7
:10185000561FC11D770F881F991F661F0694A1F799
:101860000590079428F4F80E491F561FC71FD11D75
:10187000880F991F661F771F0694A1F7059007949C
:1018800020F4490F561FC71FD81F990F661F771FD7
:10189000881F0694A9F784911095177041F0D6958A
:1018A000C79557954795F794E7941A95C1F7EDEFCB
:1018B000F4E1689415901591359165919591059095
:1018C0007FE27395E118F10A430B560BC90BD0095F
:1018D000C0F7E10CF11E431F561FC91FD01D7EF437
:1018E000703311F48A95E6CFE894015030F0080F78
:1018F0000AF40027021708F4202F2395022F7A33C9
:1019000028F079E37D932A95E9F710C07D932A9515
:1019100089F6069497956795379517951794E1186A
:10192000F10A430B560BC90BD00998F023957E9111
:1019300073957A3308F070E37C932013B8F77E91A7
:1019400070617D9330F0839571E37D9370E32A9508
:10195000E1F71124EF90FF900F911F91CF91DF914C
:10196000992787FD90950895FA01AA27283051F10B
:10197000203181F1E8946F936E7F6E5F7F4F8F4FC0
:101980009F4FAF4FB1E03ED0B4E03CD0670F781F1F
:10199000891F9A1FA11D680F791F8A1F911DA11D04
:1019A0006A0F711D811D911DA11D20D009F468943D
:1019B0003F912AE0269F11243019305D3193DEF6E5
:1019C000CF010895462F4770405D4193B3E00FD09B
:1019D000C9F7F6CF462F4F70405D4A3318F0495D86
:1019E00031FD4052419302D0A9F7EACFB4E0A69569
:1019F0009795879577956795BA95C9F7009761058B
:101A0000710508959B01AC010A2E069457954795E0
:101A100037952795BA95C9F7620F731F841F951FD5
:101A2000A01D0895CF93DF93FC01EB0142305105D7
:101A300070F0638574858585968520E030E040E808
:101A400054E40E9430DE0E9478DC7983688382E06F
:101A500090E0DF91CF910895CF93DF93EC01FB01EC
:101A60004230510518F420E030E012C060817181ED
:101A700080E090E00E94A4DC20E030E040E85AE3FF
:101A80000E9430DE6B877C878D879E8722E030E066
:101A9000C901DF91CF910895DC01FB0183818C9313
:101AA000828111968C931197818112968C93129753
:101AB000808113968C930895DC01FB0187818C93C0
:101AC000868111968C931197858112968C9312972B
:101AD000848113968C931397838114968C93149717
:101AE000828115968C931597818116968C93169703
:101AF000808117968C9308951F920F920FB60F92C4
:101B00000BB60F9211242F933F934F938F939F9374
:101B1000EF93FF934091C6002091DD133091DE13C7
:101B20002F5F3F4F8091E1139091E21328233923D7
:101B30008091DF139091E0132817390779F0809195
:101B4000DD139091DE13E091E313F091E413E80FBD
:101B5000F91F40833093DE132093DD13FF91EF9143
:101B60009F918F914F913F912F910F900BBE0F90AE
:101B70000FBE0F901F9018951F920F920FB60F92E5
:101B80000BB60F9211242F933F938F939F93EF9354
:101B9000FF932091FF13309100148091FD139091D9
:101BA000FE1328173907E9F08091FF139091001474
:101BB000E0910314F0910414E80FF91F80818093E1
:101BC000C6008091FF13909100140196209101149A
:101BD0003091021482239323909300148093FF1377
:101BE00010C02091FD133091FE138091FF1390914E
:101BF00000142817390729F48091C1008F7D809344
:101C0000C100FF91EF919F918F913F912F910F9084
:101C10000BBE0F900FBE0F901F9018951F920F9242
:101C20000FB60F920BB60F9211242F933F934F9341
:101C30008F939F93EF93FF934091CE002091E513F4
:101C40003091E6132F5F3F4F8091E9139091EA1393
:101C5000282339238091E7139091E8132817390737
:101C600079F08091E5139091E613E091EB13F091F8
:101C7000EC13E80FF91F40833093E6132093E5132C
:101C8000FF91EF919F918F914F913F912F910F90E5
:101C90000BBE0F900FBE0F901F9018951F920F92C2
:101CA0000FB60F920BB60F9211242F933F938F9381
:101CB0009F93EF93FF932091071430910814809124
:101CC00005149091061428173907E9F0809107143C
:101CD00090910814E0910B14F0910C14E80FF91F87
:101CE00080818093CE008091071490910814019612
:101CF0002091091430910A1482239323909308149D
:101D00008093071410C0209105143091061480911F
:101D10000714909108142817390729F48091C900F5
:101D20008F7D8093C900FF91EF919F918F913F919B
:101D30002F910F900BBE0F900FBE0F901F90189514
:101D40001F920F920FB60F920BB60F9211242F9382
:101D50003F934F938F939F93EF93FF93409136015F
:101D60002091F5133091F6132F5F3F4F8091F913B7
:101D70009091FA13282339238091F7139091F81347
:101D80002817390779F08091F5139091F613E091B7
:101D9000FB13F091FC13E80FF91F40833093F61307
:101DA0002093F513FF91EF919F918F914F913F9168
:101DB0002F910F900BBE0F900FBE0F901F90189594
:101DC0001F920F920FB60F920BB60F9211242F9302
:101DD0003F938F939F93EF93FF932091171430912C
:101DE0001814809115149091161428173907E9F0EA
:101DF0008091171490911814E0911B14F0911C1409
:101E0000E80FF91F8081809336018091171490911B
:101E1000181401962091191430911A1482239323D7
:101E2000909318148093171410C0209115143091BA
:101E3000161480911714909118142817390729F453
:101E4000809131018F7D80933101FF91EF919F91BE
:101E50008F913F912F910F900BBE0F900FBE0F905F
:101E60001F901895FC017183608385E068317807C5
:101E700039F470931E1460931D141386128608C0E3
:101E80007093201460931F1481E090E09387828701
:101E900013821282089520916D0C30916E0CC9014D
:101EA0008F5C94408238910510F481E00895C90157
:101EB000815595408238910510F482E00895C9015A
:101EC000835D95408238910510F483E00895C9013F
:101ED000855596408138910510F484E00895265D7B
:101EE000364014F480E0089585E00895A4E0B0E061
:101EF000ECE7FFE00C9466DF6091DB127091DC127E
:101F00008091DD129091DE120E94A6DC3B014C0113
:101F10008091751190917611A0917711B0917811FF
:101F200089839A83AB83BC836091D7127091D81256
:101F30008091D9129091DA120E94A6DC1B012C012B
:101F4000A0906303B0906403C0906503D0906603D3
:101F5000C401B30129813A814B815C810E9430DE4A
:101F60007B018C01C201B101A60195010E9430DE06
:101F70009B01AC01C801B7010E9426DB0E9473DC03
:101F800060938D1270938E1280938F1290939012A3
:101F9000C401B301A60195010E9430DE7B018C01D2
:101FA000C201B10129813A814B815C810E9430DEFE
:101FB0009B01AC01C801B7010E9427DB0E9473DCC2
:101FC00090958095709561957F4F8F4F9F4F60934F
:101FD000911270939212809393129093941224967C
:101FE000E2E10C9482DF80E00895FC01DB01452BE7
:101FF00011F083858C9381E090E00895DC01FB0172
:10200000452B19F080811B968C9381E090E0089518
:10201000FC016385772767FD7095872F972F0E94B6
:10202000A6DC0895FC01DB014230510520F08385D8
:1020300094858D939C9382E090E00895DC01FB01F0
:102040004230510530F0808191811C969C938E9393
:102050001B9782E090E00895FC01638574858827D2
:1020600077FD8095982F0E94A6DC0895FC012385BA
:10207000348545855685B901CA010895CF93DF930C
:10208000FC01EB014430510540F083859485A58522
:10209000B68588839983AA83BB8384E090E0DF912F
:1020A000CF910895CF93DF93EC01FB0144305105AC
:1020B00040F080819181A281B3818B879C87AD871D
:1020C000BE8784E090E0DF91CF910895E0911311F5
:1020D000F091141187A990AD8130910539F00297E4
:1020E000F9F483E261E00E94C1DA089581A58823B2
:1020F000D9F090E080917911882309F491E09093D0
:102100007911992319F083E260E002C083E261E073
:102110000E94C1DAE0911311F091141111A60895F3
:1021200083E260E00E94C1DA08958BE360E00E94E0
:10213000C1DA08958BE361E00E94C1DA08950E943C
:102140009A1064E670E080E090E00E94C3D90E949B
:102150009510089585E260E00E94C1DA84E260E0B3
:102160000E94C1DA83E260E00E94C1DA1092CC12D0
:102170001092341208958091EB128F5F8093EB12CE
:102180008150833011F41092EB128091EB12813068
:1021900059F0813018F08230C1F40FC083E260E062
:1021A0000E94C1DA85E205C085E260E00E94C1DAE2
:1021B00084E261E00E94C1DA089584E260E00E9456
:1021C000C1DA83E261E00E94C1DA08958091B81219
:1021D000813079F484E461E00E94C1DA82E461E054
:1021E0000E94C1DA80E461E00E94C1DA8EE361E01E
:1021F0000EC084E460E00E94C1DA82E460E00E94E4
:10220000C1DA80E460E00E94C1DA8EE360E00E94FF
:10221000C1DA089500D000D088E195E0EDB7FEB7AF
:10222000928381838CEC95E0948383830E9485C79D
:102230000F900F900F900F9008950E940A1168EE72
:1022400073E080E090E00E94C3D98CE395E00E94A7
:10225000FCC7892B89F084E261E00E94C1DA8CE33B
:1022600095E00E942CC8682F8AE295E00E948DC8F4
:1022700084E260E00E94C1DA8AE295E00E94FCC735
:10228000892B89F083E261E00E94C1DA8AE295E05D
:102290000E942CC8682F8CE395E00E948DC883E2D1
:1022A00060E00E94C1DA88E195E00E94FCC7181640
:1022B00019065CF680E008950E940A1168EE73E04A
:1022C00080E090E00E94C3D900D000D088E195E082
:1022D000EDB7FEB7928381838DEE95E0948383837F
:1022E0000E9485C70F900F900F900F908CE395E0A0
:1022F0000E94FCC7892B49F08CE395E00E942CC812
:10230000682F8CE395E00E948DC888E195E00E94DB
:10231000FCC71816190654F780E0089528E135E047
:10232000882349F000D000D0EDB7FEB73283218377
:1023300088E496E008C000D000D0EDB7FEB7328345
:10234000218384E496E0948383830E9485C788E197
:1023500095E0EDB7FEB7928381838DE396E0948399
:1023600083830E9485C70F900F900F900F90089560
:10237000EF92FF920F931F93CF93DF930E940A1166
:1023800068EE73E080E090E00E94C3D98FEDE82E04
:1023900086E0F82E04ED16E0C8E1D5E000D000D0CC
:1023A000EDB7FEB7D283C183F482E3820E9485C772
:1023B00080910B01846080930B010F900F900F9020
:1023C0000F9068EB7BE080E090E00E94C3D9CE01E3
:1023D0000E94FCC718161906FCF000D000D0EDB71B
:1023E000FEB7D283C183148303830E9485C7809183
:1023F0000B018B7F80930B010F900F900F900F902C
:1024000068EB7BE080E090E00E94C3D9CE010E949F
:10241000FCC71816190614F680E0CDB7DEB7E6E063
:102420000C948EDF00D000D088E195E0EDB7FEB7C8
:10243000928381838AE297E0948383830E9485C795
:102440000F900F900F900F9080E008958DB79EB77A
:1024500040970FB6F8949EBF0FBE8DBFEDB7FEB785
:10246000319688E195E0ADB7BEB712969C938E93F6
:1024700011978BE497E09383828380917D079091FD
:102480007E07A0917F07B091800784839583A68300
:10249000B7838091810790918207A0918307B091C3
:1024A000840780879187A287B38780918507909161
:1024B0008607A0918707B091880784879587A687AC
:1024C000B7870E9485C78DB79EB740960FB6F89420
:1024D0009EBF0FBE8DBF08958DB79EB740970FB6B4
:1024E000F8949EBF0FBE8DBFEDB7FEB7319688E161
:1024F00095E0ADB7BEB712969C938E9311978EE67A
:1025000097E0938382838091890790918A07A091B5
:102510008B07B0918C0784839583A683B7838091C2
:102520008D0790918E07A0918F07B09190078087BB
:102530009187A287B3878091910790919207A0918C
:102540009307B091940784879587A687B7870E94E1
:1025500085C78DB79EB740960FB6F8949EBF0FBE45
:102560008DBF089500D000D088E195E0EDB7FEB7AB
:102570009283818383E598E0948383830E9485C757
:102580000F900F900F900F9080E008950F931F937E
:102590008DB79EB708970FB6F8949EBF0FBE8DBF3C
:1025A000EDB7FEB7319608E115E0ADB7BEB71296AC
:1025B0001C930E9311978CE699E09383828380910C
:1025C000340B9091350B9583848380914E0B9091C1
:1025D0004F0B978386830E9485C7EDB7FEB7319670
:1025E000ADB7BEB712961C930E9311978EE599E086
:1025F000938382838091880B9091890B9583848348
:102600008091A20B9091A30B978386830E9485C72C
:10261000EDB7FEB73196ADB7BEB712961C930E93C9
:10262000119780E599E0938382838091DC0B9091F0
:10263000DD0B958384838091F60B9091F70B978344
:1026400086830E9485C7EDB7FEB73196ADB7BEB79A
:1026500012961C930E93119782E499E093838283E0
:102660008091300C9091310C9583848380914A0C39
:1026700090914B0C978386830E9485C7EDB7FEB778
:102680003196ADB7BEB712961C930E93119784E3A3
:1026900099E0938382838091840C9091850C95833B
:1026A000848380919E0C90919F0C978386830E94D7
:1026B00085C7EDB7FEB73196ADB7BEB712961C937E
:1026C0000E93119786E299E0938382838091D80CD0
:1026D0009091D90C958384838091F20C9091F30CA6
:1026E000978386830E9485C7EDB7FEB73196ADB755
:1026F000BEB712961C930E93119788E199E09383CD
:10270000828380912C0D90912D0D958384838091EF
:10271000460D9091470D978386830E9485C78DB79C
:102720009EB708960FB6F8949EBF0FBE8DBF1F913F
:102730000F91089500D000D088E195E0EDB7FEB785
:10274000928381838CEE9AE0948383830E9485C771
:102750000F900F900F900F90089500D000D088E157
:1027600095E0EDB7FEB79283818388E89CE094837F
:1027700083830E9485C70F900F900F900F9080E089
:10278000089500D000D088E195E0EDB7FEB79283C0
:10279000818380E59EE0948383830E9485C70F90A8
:1027A0000F900F900F900895A0E0B0E0EAEDF3E1F4
:1027B0000C946EDF37EEA32E35E0B32E21EEC22E41
:1027C00025E0D22E00E010E098E1E92E95E0F92E08
:1027D00000D000D000D0EDB7FEB73196ADB7BEB790
:1027E0001296FC92EE921197B382A2821583048313
:1027F0000E9485C7C0E0D0E08DB79EB706960FB6A1
:10280000F8949EBF0FBE8DBFCE01800F911F0E9416
:102810000FE400D000D000D0EDB7FEB73196ADB7D1
:10282000BEB71296FC92EE921197D382C282848335
:1028300015820E9485C721968DB79EB706960FB662
:10284000F8949EBF0FBE8DBFC031D105E9F6C70118
:102850000E9448D8005F1F4F90E10030190709F02F
:10286000B7CF80E0CDB7DEB7EAE00C948ADFA4E210
:10287000B0E0EDE3F4E10C946EDF8091B40A8823BC
:1028800009F493C00E940A115EE1A52E56E0B52E10
:102890006E010894C11CD11C48E1E42E45E0F42EE1
:1028A00064E670E080E090E00E94C3D984EB95E09C
:1028B0000E946A93D601E6ECF7E084E201900D9263
:1028C0008150E1F784EB95E0B6010E9445A084EBCE
:1028D00095E00E942A986091BE057091BF05809195
:1028E000C0059091C10521EE3EE245E652E40E940A
:1028F00030DE20E030E048EC52E40E9430DE0E94FE
:1029000073DC613A2CE8720720E0820720E092072E
:102910002CF0605A7C488040904006C097FF04C06D
:10292000605673478F4F9F4FEDB7FEB73E970FB678
:10293000F894FEBF0FBEEDBF0DB71EB70F5F1F4F60
:10294000F282E182F801B382A28224E630E040E024
:1029500050E00E944BDFF801248335834683578380
:102960008091B8059091B905918780878091BA05CB
:102970009091BB05938782878091BC059091BD059E
:10298000958784870E9485C72DB73EB7225F3F4F4A
:102990000FB6F8943EBF0FBE2DBFC7010E94FCC703
:1029A000181619060CF07CCF15C000D000D088E1B5
:1029B00095E0EDB7FEB79283818384E196E094833E
:1029C00083830E9485C70F900F900F900F9080E037
:1029D0000E948E1180E0A496EAE00C948ADF0F93A7
:1029E0001F93CF93DF9380918F0A8823B9F400D08F
:1029F00000D088E195E0ADB7BEB712969C938E9358
:102A0000119789E596E014969C938E9313970E94F4
:102A100085C70F900F900F900F9030C00E940A1141
:102A20000BE416E0C8E1D5E064E670E080E090E0F9
:102A30000E94C3D986E099E00E94F9C300D000D07B
:102A400000D0EDB7FEB73196ADB7BEB71296DC93A6
:102A5000CE93119713830283958384830E9485C745
:102A6000EDB7FEB736960FB6F894FEBF0FBEEDBFBA
:102A7000CE010E94FCC718161906B4F680E0DF915B
:102A8000CF911F910F910895EF92FF920F931F9393
:102A9000CF93DF93809158059091590590934711FA
:102AA00080934611C0E0D0E064E170E080E090E007
:102AB0000E94C3D980E595E00E94D4812196CC3351
:102AC000D10591F7C0E0D0E064E170E080E090E0F3
:102AD0000E94C3D980E595E00E94D481E0905A0518
:102AE000F0905B0500915C0510915D05E092481146
:102AF000F092491100934A1110934B112091461105
:102B000030914711C90163E0880F991F6A95E1F779
:102B1000820F931F2091580530915905820F931F02
:102B20006AE070E00E9416DF7093471160934611CF
:102B30002196C431D10541F6E0924C11F0924D112D
:102B400000934E1110934F11CDB7DEB7E6E00C9411
:102B50008EDFAF92BF92CF92DF92EF92FF920F93F0
:102B60001F9380E595E00E94D481E0905A05F09093
:102B70005B0500915C0510915D05E0924C11F092AF
:102B80004D1100934E1110934F11609148117091A7
:102B9000491180914A1190914B110E94A6DC5B0172
:102BA0006C01C801B7010E94A6DC9B01AC01C60103
:102BB000B5010E940BDC0E94F0DD7B018C0160916D
:102BC000461170914711882777FD8095982F0E94B4
:102BD000A6DC20E030E040E251E40E940BDC23E37D
:102BE00033E948E853E40E9427DB9B01AC01C801AC
:102BF000B7010E9430DE29E83EEA44EE56E40E9426
:102C000030DE20E030E040E251E40E940BDC0E9424
:102C100073DC9B01AC01CA011F910F91FF90EF90F3
:102C2000DF90CF90BF90AF9008950F931F93CF93F5
:102C3000DF930E940A110E94441509E616E0C8E1DC
:102C4000D5E064E670E080E090E00E94C3D90E9485
:102C5000A915709345116093441100D000D000D0A5
:102C6000EDB7FEB73196ADB7BEB71296DC93CE93F3
:102C7000119713830283758364830E9485C78DB780
:102C80009EB706960FB6F8949EBF0FBE8DBFCE01BD
:102C90000E94FCC718161906A4F680E0DF91CF91B8
:102CA0001F910F910895A0E0B0E0E9E5F6E10C94E2
:102CB0006DDFEC0180918C09992787FD909586172F
:102CC000970714F4188277C0CB01E4E0880F991FAE
:102CD000EA95E1F7861B970B80509C4F5C01CC2452
:102CE000B7FCC094DC2C0E940FE488838601750138
:102CF0000894E11CF11C011D111DC7010E940FE485
:102D0000982E89830894E11CF11C011D111DC70137
:102D10000E940FE48A830894E11CF11C011D111D1F
:102D2000C7010E9417E46B837C838D839E8387E0B9
:102D300090E0A0E0B0E0A80EB91ECA1EDB1EC501DF
:102D40000E9417E47B018C01EF82F88609871A87BD
:102D500084E090E0A0E0B0E0A80EB91ECA1EDB1E21
:102D6000C5010E9417E49B01AC012B873C874D876E
:102D70005E8794FE20C08091571190915811A091C8
:102D80005911B0915A11E80EF91E0A1F1B1FEF824C
:102D9000F88609871A8780915B1190915C11A09148
:102DA0005D11B0915E11280F391F4A1F5B1F2B87E1
:102DB0003C874D875E87CE01CDB7DEB7EBE00C9444
:102DC00089DF8F929F92AF92BF92DF92EF92FF9234
:102DD0000F931F93DF93CF93CDB7DEB72F970FB627
:102DE000F894DEBF0FBECDBF68EE73E080E090E0E8
:102DF0000E94C3D900D000D008E115E0ADB7BEB73E
:102E000012961C930E93119783E996E014969C9367
:102E10008E9313970E9485C72091820A3091830A6E
:102E20000F900F900F900F9037FF11C000D000D07F
:102E3000EDB7FEB71283018381E996E09483838323
:102E40000E9485C70F900F900F900F9021C000D067
:102E500000D000D0EDB7FEB73196ADB7BEB7129631
:102E60001C930E93119789E896E093838283C9019E
:102E700064E670E00E9416DF758364830E9485C754
:102E8000EDB7FEB736960FB6F894FEBF0FBEEDBF96
:102E900000D000D000D0EDB7FEB7319608E115E0C4
:102EA000ADB7BEB712961C930E93119782E896E0C9
:102EB0009383828380918C09992787FD90959583D0
:102EC00084830E9485C7EDB7FEB73196ADB7BEB714
:102ED00012961C930E93119785E796E09383828355
:102EE0008091B009992787FD9095958384830E94EE
:102EF00085C7FDE98F2EF6E09F2EFF24EDB7FEB7C4
:102F000036960FB6F894FEBF0FBEEDBF5E01089473
:102F1000A11CB11CD02EE12E46C0C501B8010E94F3
:102F200053168DB79EB748970FB6F8949EBF0FBE45
:102F30008DBFEDB7FEB73196ADB7BEB71196DC9237
:102F400011971296EC929382828215830483898171
:102F5000868317828A81808711868B818287138678
:102F60008C819D81AE81BF8184879587A687B78735
:102F700088859985AA85BB85808B918BA28BB38B25
:102F80008C859D85AE85BF85848B958BA68BB78BF5
:102F90000E9485C7F394EDB7FEB778960FB6F89404
:102FA000FEBF0FBEEDBF0F2D10E080918C09992759
:102FB00087FD9095801791070CF0AFCF80E02F969A
:102FC0000FB6F894DEBF0FBECDBFCF91DF911F913A
:102FD0000F91FF90EF90DF90BF90AF909F908F90F8
:102FE00008950F931F9302EF12E14091DC0B509173
:102FF000DD0BC80160E00E94A9834091DC0B509179
:10300000DD0BC80161E00E94A9834091DC0B509167
:10301000DD0BC80162E00E94A9834091DC0B509156
:10302000DD0BC80163E00E94A9834091DC0B509145
:10303000DD0BC80166E00E94A9834091DC0B509132
:10304000DD0BC80167E00E94A9831F910F910895CD
:1030500082EF92E10E942984813009F060C0809360
:10306000671182EF92E160E00E94F883BC0182E187
:103070009BE00E94CFD282EF92E161E00E94F88350
:10308000BC0186E69BE00E94CFD282EF92E162E033
:103090000E94F883BC018AEB9BE00E94CFD282EFB2
:1030A00092E163E00E94F883BC018EE09CE00E9404
:1030B000CFD282EF92E164E00E94F883BC0182E605
:1030C0009CE00E94CFD282EF92E165E00E94F883FB
:1030D000BC0186EB9CE00E94CFD282EF92E166E0D9
:1030E0000E94F883BC018AE09DE00E94CFD282EF6B
:1030F00092E167E00E94F883BC018EE59DE00E94AA
:10310000CFD28091C70B9091C80B23E081329207F8
:1031100014F080E293E09093C80B8093C70B08955E
:103120000F931F93CF93DF930E940A1168EE73E011
:1031300080E090E00E94C3D904EC17E0C8E1D5E03C
:1031400064E170E080E090E00E94C3D90E942818FA
:103150008DB79EB742970FB6F8949EBF0FBE8DBF36
:10316000EDB7FEB73196ADB7BEB71296DC93CE93EE
:1031700011971383028380911F0B9091200B9583ED
:1031800084838091730B9091740B978386838091D5
:10319000C70B9091C80B9187808780911B0C9091F1
:1031A0001C0C9387828780916F0C9091700C95878F
:1031B00084878091C30C9091C40C978786878091F7
:1031C000170D9091180D918B808B0E9485C78DB73C
:1031D0009EB742960FB6F8949EBF0FBE8DBFCE012C
:1031E0000E94FCC7181619060CF0AACF80E0DF91E8
:1031F000CF911F910F9108950F931F93CF93DF935A
:103200000E940A1168EE73E080E090E00E94C3D94A
:1032100003EF17E0C8E1D5E064E170E080E090E002
:103220000E94C3D90E9428188DB79EB744970FB645
:10323000F8949EBF0FBE8DBFEDB7FEB73196ADB708
:10324000BEB71296DC93CE931197138302838091BD
:103250001D0B90911E0B958384838091710B90912F
:10326000720B978386838091C50B9091C60B9187D3
:1032700080878091190C90911A0C93878287809196
:103280006D0C90916E0C958784878091C10C909104
:10329000C20C978786878091150D9091160D918BA2
:1032A000808B8091690D90916A0D938B828B0E9427
:1032B00085C78DB79EB744960FB6F8949EBF0FBED4
:1032C0008DBFCE010E94FCC7181619060CF0A4CFC2
:1032D00080E0DF91CF911F910F910895EF92FF92BF
:1032E0000F931F9380E00E9413D9AA2797FDA09502
:1032F000BA2FBC01CD010E94A6DC7B018C0160913C
:10330000FF0A7091000B8091010B9091020B20E05D
:1033100030E040E85AE30E9430DE9B01AC01C80176
:10332000B7010E9430DE2AE037ED43E650E40E9408
:1033300030DE2DEC3CEC4CEC5DE30E9430DE7B019A
:103340008C0160914B0370914C0380914D039091DF
:103350004E0326E636E646E65FE30E9430DE9B013A
:10336000AC01C801B7010E9427DB60934B03709347
:103370004C0380934D0390934E0381E00E9413D938
:10338000AA2797FDA095BA2FBC01CD010E94A6DC0B
:103390007B018C016091FF0A7091000B8091010B01
:1033A0009091020B20E030E040E85AE30E9430DECA
:1033B0009B01AC01C801B7010E9430DE2AE037ED65
:1033C00043E650E40E9430DE2DEC3CEC4CEC5DE337
:1033D0000E9430DE7B018C0160914F03709150039D
:1033E000809151039091520326E636E646E65FE36C
:1033F0000E9430DE9B01AC01C801B7010E9427DBAF
:1034000060934F0370935003809351039093520342
:1034100082E00E9413D9AA2797FDA095BA2FBC017C
:10342000CD010E94A6DC7B018C016091FF0A7091A6
:10343000000B8091010B9091020B20E030E040E8FE
:103440005AE30E9430DE9B01AC01C801B7010E9423
:1034500030DE2AE037ED43E650E40E9430DE2DEC0A
:103460003CEC4CEC5DE30E9430DE7B018C01609112
:10347000530370915403809155039091560326E6AF
:1034800036E646E65FE30E9430DE9B01AC01C801F0
:10349000B7010E9427DB609353037093540380931A
:1034A00055039093560383E00E9413D9AA2797FDF2
:1034B000A095BA2FBC01CD010E94A6DC7B018C0136
:1034C0006091FF0A7091000B8091010B9091020BAB
:1034D00020E030E040E85AE30E9430DE9B01AC017E
:1034E000C801B7010E9430DE2AE037ED43E650E420
:1034F0000E9430DE2DEC3CEC4CEC5DE30E9430DEB3
:103500007B018C016091570370915803809159039E
:1035100090915A0326E636E646E65FE30E9430DEE7
:103520009B01AC01C801B7010E9427DB7B018C0124
:10353000CB01D8018093570390935803A09359036C
:10354000B0935A0320919B0A213049F48091530390
:1035500090915403A0915503B091560304C02230BA
:1035600059F4C701D8018093470390934803A0936F
:103570004903B0934A037DC0233019F0243009F089
:1035800078C080914B0390914C03A0914D03B09172
:103590004E038093470390934803A0934903B0934D
:1035A0004A03243009F065C081E00E9413D9AA279C
:1035B00097FDA095BA2FBC01CD010E94A6DC7B012E
:1035C0008C016091FF0A7091000B8091010B90912A
:1035D000020B20E030E040E85AE30E9430DE9B011D
:1035E000AC01C801B7010E9430DE2CE53FE84AED8E
:1035F00051E40E9430DE2DEC3CEC4CEC5DE30E948B
:1036000030DE7B018C0160915F11709160118091BF
:1036100061119091621126E636E646E65FE30E946C
:1036200030DE9B01AC01C801B7010E9427DB60932B
:103630005F1170936011809361119093621123ED7B
:103640003CEB43EE5CE30E9430DE9B01AC016091F9
:1036500063117091641180916511909166110E94BF
:1036600027DB6093631170936411809365119093CD
:1036700066111F910F91FF90EF9008950F931F9384
:10368000CF93DF930E940A1109EE16E0C8E1D5E05E
:1036900064E670E080E090E00E94C3D90E942818A0
:1036A0000E946E198DB79EB740970FB6F8949EBFD3
:1036B0000FBE8DBFEDB7FEB73196ADB7BEB7129650
:1036C000DC93CE93119713830283809147039091EB
:1036D0004803A0914903B0914A0384839583A6834C
:1036E000B78380915F1190916011A0916111B091A9
:1036F000621180879187A287B3878091631190912F
:103700006411A0916511B091661184879587A68791
:10371000B7870E9485C78DB79EB740960FB6F894BD
:103720009EBF0FBE8DBF4091C50B5091C60B82EF5F
:1037300092E160E00E94A9834091C50B5091C60BB5
:1037400082EF92E161E00E94A9834091C50B509104
:10375000C60B82EF92E162E00E94A9834091C50B03
:103760005091C60B82EF92E163E00E94A983CE01E3
:103770000E94FCC7181619060CF08ACF80E0DF9172
:10378000CF911F910F9108950F931F93CF93DF93C4
:103790000E940A1168EE73E080E090E00E94C3D9B5
:1037A00009E017E0C8E1D5E064E170E080E090E076
:1037B0000E94C3D90E94281880911B0C90911C0C68
:1037C0009093200C80931F0C8EE09CE00E9443D3CA
:1037D0008DB79EB708970FB6F8949EBF0FBE8DBFEA
:1037E000EDB7FEB73196ADB7BEB71296DC93CE9368
:1037F00011971383028380911B0C90911C0C95836D
:1038000084838091230C9091240C978386830E945B
:1038100085C78DB79EB708960FB6F8949EBF0FBEAA
:103820008DBF4091230C5091240C82EF92E166E011
:103830000E94A983CE010E94FCC7181619060CF03D
:10384000B3CF80E0DF91CF911F910F9108956091E8
:10385000C30C7091C40C882777FD8095982F0E9427
:10386000A6DC20E030E04AE754E40E940BDC6093E1
:103870002409709325098093260990932709809144
:10388000CC0A992787FD9095A92FB92FFC01319774
:10389000EB30F10508F04FC1EE58FF4F0C949DDF5F
:1038A00086EB9CE060E070E040E45FE10E946FD155
:1038B0008091240990912509A0912609B0912709AA
:1038C00080931E0F90931F0FA093200FB093210F92
:1038D0008093580F9093590FA0935A0FB0935B0F9A
:1038E000089586EB9CE060E070E04CE251E00E94BD
:1038F0006FD16091C30C7091C40C882777FD8095BF
:10390000982F0E94A6DC20E030E04AE754E40E94B1
:103910000BDCDC019B01AC012093240930932509C9
:10392000409326095093270920932D0F30932E0F93
:1039300040932F0F5093300FCB018093670F9093DC
:10394000680FA093690FB0936A0F089586EB9CE00F
:1039500060E070E04CE251E00E946FD18091240958
:1039600090912509A0912609B09127098093700EA6
:103970009093710EA093720EB093730E8093AA0E63
:103980009093AB0EA093AC0EB093AD0E089586EB62
:103990009CE060E070E04CE251E00E946FD18091C9
:1039A000240990912509A0912609B09127098093B7
:1039B0007F0E9093800EA093810EB093820E809321
:1039C000B90E9093BA0EA093BB0EB093BC0E08959F
:1039D00086EB9CE060E070E048EE53E00E946FD11F
:1039E0008091240990912509A0912609B091270979
:1039F0008093920F9093930FA093940FB093950F91
:103A0000089586EB9CE060E070E048EE53E00E9491
:103A10006FD18091240990912509A0912609B09138
:103A200027098093E40E9093E50EA093E60EB093E1
:103A3000E70E089586EB9CE060E070E048EE53E00E
:103A40000E946FD18091240990912509A0912609A7
:103A5000B09127098093B4109093B510A093B6103D
:103A6000B093B710089586EB9CE060E273E048EEF7
:103A700053E00E946FD18091240990912509A09173
:103A80002609B09127098093E40A9093E50AA09350
:103A9000E60AB093E70A089586EB9CE060E070E0E8
:103AA00048EE53E00E946FD12091C30C3091C40CBA
:103AB00082E02E3038072CF080910B0184608093D7
:103AC0000B012B5D3140BCF580910B018B7F809306
:103AD0000B01089586EB9CE060E070E048EE53E057
:103AE0000E946FD18091C30C9091C40C9093C9092E
:103AF0008093C809089586EB9CE060E070E040E7A1
:103B000057E10E946FD18091240990912509A091DD
:103B10002609B09127098093401090934110A093FB
:103B20004210B093431080937A1090937B10A0932F
:103B30007C10B0937D1008950F931F93CF93DF9364
:103B40000E940A110DE117E0C8E1D5E068EC70E0D1
:103B500080E090E00E94C3D90E9428180E94271C90
:103B60008DB79EB708970FB6F8949EBF0FBE8DBF56
:103B7000EDB7FEB73196ADB7BEB71296DC93CE93D4
:103B80001197138302838091240990912509A091B4
:103B90002609B091270984839583A683B7830E9461
:103BA00085C78DB79EB708960FB6F8949EBF0FBE17
:103BB0008DBFCE010E94FCC7181619063CF680E0A6
:103BC000DF91CF911F910F91089580912B129091C9
:103BD0002C12892B09F45AC00E948FD920912512EA
:103BE000309126124091271250912812621B730BBC
:103BF000840B950B20912D1230912E1240E050E055
:103C0000621773078407950708F440C037C001970F
:103C100090932C1280932B1280912B1290912C1246
:103C2000892BA1F10E948FD96093251270932612DF
:103C3000809327129093281260912412862F84502B
:103C4000843088F480912B1280FF05C040912912A6
:103C500050912A1204C040912F125091301282EFDD
:103C600092E10E94A98380912412853079F4809199
:103C70000B0194E0892780930B01089580912B120A
:103C800090912C121816190614F2C6CF08950F93AE
:103C90001F93CF93DF93062F142F00D000D000D0B6
:103CA000EDB7FEB73196C8E1D5E0ADB7BEB7129615
:103CB000DC93CE93119727E03AE033832283848309
:103CC00015820E9485C7EDB7FEB736960FB6F894F9
:103CD000FEBF0FBEEDBFE02FF0E0EE0FFF1FE1557E
:103CE000FC4F60817181CE010E9478D700D000D056
:103CF000ADB7BEB71296DC93CE9311978BEF99E0D8
:103D000014969C938E9313970E9485C70F900F90E3
:103D10000F900F90112359F000D000D0EDB7FEB7EF
:103D2000D283C18387EF99E0948383830EC000D050
:103D300000D0ADB7BEB71296DC93CE93119782EF49
:103D400099E014969C938E9313970E9485C70F90C9
:103D50000F900F900F90DF91CF911F910F910895C9
:103D6000CF93DF93C0E0D0E088E195E060E072E0BF
:103D70000E9478D72196C832D105B1F788E195E045
:103D800062E072E00E945FD8DF91CF910895CF93F7
:103D9000DF93EC0107C0219788E195E062E072E0D3
:103DA0000E945FD81C161D06B4F3DF91CF910895D1
:103DB00000D000D088E195E0EDB7FEB79283818313
:103DC00086E497E0948383830E9485C70F900F90C9
:103DD0000F900F900E94B01E0E9426120E946C123B
:103DE00082E090E00E94C71E089500D000D000D06D
:103DF000EDB7FEB7319688E195E0ADB7BEB7129644
:103E00009C938E93119782E099E0938382838091B3
:103E1000340990913509958384830E9485C78DB7B5
:103E20009EB706960FB6F8949EBF0FBE8DBF0E9438
:103E3000B01E82E090E00E94C71E089500D000D01E
:103E400088E195E0EDB7FEB79283818381E199E047
:103E5000948383830E9485C70F900F900F900F90DB
:103E60000E94B01E0E94C61282E090E00E94C71E0F
:103E70000895CF93DF9300D000D0C8E1D5E0EDB72F
:103E8000FEB7D283C1838EE999E0948383830E9435
:103E900085C70F900F900F900F900E94B01E00D01A
:103EA00000D0EDB7FEB7D283C18382E999E0948355
:103EB00083830E9485C78091D80A0F900F900F903E
:103EC0000F90813049F400D000D0EDB7FEB7D28317
:103ED000C1838AE899E015C0882349F400D000D056
:103EE000EDB7FEB7D283C18382E899E00AC0823081
:103EF00081F400D000D0EDB7FEB7D283C1838AE74A
:103F000099E0948383830E9485C70F900F900F9050
:103F10000F9082E090E00E94C71EDF91CF9108953C
:103F200000D000D088E195E0EDB7FEB792838183A1
:103F30008EEC99E0948383830E9485C70F900F9045
:103F40000F900F900E94B01E80919B0A882311F45D
:103F50000E948E1180919B0A813091F400D000D094
:103F600088E195E0EDB7FEB79283818386EC99E016
:103F7000948383830E9485C70F900F900F900F90BA
:103F800080919B0A823091F400D000D088E195E0C6
:103F9000EDB7FEB7928381838EEB99E094838383A0
:103FA0000E9485C70F900F900F900F9080919B0AF1
:103FB000833091F400D000D088E195E0EDB7FEB7F2
:103FC0009283818383EB99E0948383830E9485C7E6
:103FD0000F900F900F900F9080919B0A843091F476
:103FE00000D000D088E195E0EDB7FEB792838183E1
:103FF00085EA99E0948383830E9485C70F900F9090
:104000000F900F9082E090E00E94C71E08950F93DA
:104010001F93CF93DF9300D000D088E195E0EDB7F8
:10402000FEB79283818384EE99E0948383830E9418
:1040300085C70F900F900F900F900E94B01E01E265
:104040001AE0C0E0D0E04091690A552747FD50953D
:104050000C2E02C0559547950A94E2F741705070B6
:104060008C2FF80160810E94471E2196045F1F4F2C
:10407000C630D10541F782E090E00E94C71EDF9173
:10408000CF911F910F910895CF93DF9300D000D06F
:10409000C8E1D5E0ADB7BEB71296DC93CE931197C9
:1040A0008FE49AE014969C938E9313970E9485C791
:1040B0000F900F900F900F900E94B01E2091CC0A8D
:1040C000222321F480E00E948E1120C000D000D075
:1040D00000D0EDB7FEB73196ADB7BEB71296DC9300
:1040E000CE9311978AE49AE093838283822F992753
:1040F00087FD9095958384830E9485C7EDB7FEB7B1
:1041000036960FB6F894FEBF0FBEEDBF82E090E08A
:104110000E94C71EDF91CF91089500D000D088E1A2
:1041200095E0EDB7FEB7928381838CEC93E19483A5
:1041300083830E9485C70F900F900F900F900E946D
:10414000B01E8091BA120E948E1182E090E00E940F
:10415000C71E0895ACE0B0E0E0EBF0E20C9476DF2F
:1041600085E997E00E94A7B3DE011196EAE1F8E045
:104170008CE001900D928150E1F7A5E1B1E1FE01E3
:1041800031968CE001900D928150E1F72C96E2E09F
:104190000C9492DFA0E3B0E0E0EDF0E20C9466DF77
:1041A000DE011196E6ECF7E084E201900D92815079
:1041B000E1F729803A804B805C806D847E848F8417
:1041C0009888A98CBA8CCB8CDC8C89A19AA1ABA1E4
:1041D000BCA189A79AA7ABA7BCA78D8D9E8DAF8DDB
:1041E000B8A18DA39EA3AFA3B8A7C201B101A2013C
:1041F00091010E9430DE7B018C01C401B301A40156
:1042000093010E9430DE9B01AC01C801B7010E94FE
:1042100027DB0E949DDE6DA77EA78FA798ABD601F6
:10422000C501B05880936D1190936E11A0936F11DA
:10423000B0937011C601B501A60195010E9430DE50
:104240009B01AC0160E070E080E89FE30E9426DB08
:104250000E949DDE7B018C0160935B0370935C0385
:1042600080935D0390935E0369A57AA58BA59CA5B9
:10427000A80197010E940BDC60935F0370936003B9
:1042800080936103909362036DA17EA18FA198A595
:10429000A80197010E940BDC609371117093721159
:1042A0008093731190937411C401B3012DA53EA5A1
:1042B0004FA558A90E940BDC6093630370936403BD
:1042C0008093650390936603C201B1012DA53EA5BD
:1042D0004FA558A90E940BDC60937511709376115D
:1042E0008093771190937811E096E2E10C9482DF4D
:1042F000A4E2B0E0EEE7F1E20C9470DF0E94D81E79
:1043000085E497E063EC79ED0E949DC30E94D81E7E
:104310000E940A1168EE73E080E090E00E94C3D929
:104320000E948FD9609368117093691180936A110C
:1043300090936B1117E3C12E17E0D12EB8E1EB2E4D
:10434000B5E0FB2E8E010F5F1F4F0E948FD9209189
:1043500068113091691140916A1150916B11621B83
:10436000730B840B950B653071058105910508F47D
:104370006AC00E94AA2080916C118F5F80936C119B
:10438000843011F40E94CA2080916C11843109F0AC
:104390005AC00E94281810926C118DB79EB7409792
:1043A0000FB6F8949EBF0FBE8DBFEDB7FEB7319626
:1043B000ADB7BEB71296FC92EE921197D382C2822D
:1043C0008091950790919607A0919707B0919807D3
:1043D00084839583A683B7838091990790919A07E8
:1043E000A0919B07B0919C0780879187A287B38794
:1043F00080919D0790919E07A0919F07B091A00783
:1044000084879587A687B7870E9485C78DB79EB793
:1044100040960FB6F8949EBF0FBE8DBF8091B40A30
:10442000882389F084EB95E00E946A93D801E6EC3A
:10443000F7E084E201900D928150E1F784EB95E082
:10444000B8010E9445A088E195E00E94FCC71816BB
:1044500019060CF07ACF80E0A496E8E00C948CDF8B
:10446000AF92BF92CF92DF92EF92FF920F931F9382
:104470007C018B01FB016781708581859285F70145
:104480002781308541855285621B730B840B950B08
:104490000E94A6DC5B016C01F8016385748585854B
:1044A0009685F7012385348545855685621B730BF8
:1044B000840B950B0E94A6DC20916A0330916B035C
:1044C00040916C0350916D030E9430DE7B018C01A2
:1044D000C601B501A60195010E9430DE5B016C01A9
:1044E000C801B701A80197010E9430DE9B01AC0111
:1044F000C601B5010E9427DB0E949DDE28EC32E652
:1045000046E35CE30E9430DE0E9473DC9B01AC0159
:10451000CA011F910F91FF90EF90DF90CF90BF9055
:10452000AF900895CF92DF92FF920F931F93CF9396
:10453000DF930E940A1100D000D008E115E0ADB76A
:10454000BEB712961C930E93119786E997E01496C6
:104550009C938E9313970E9485C70F900F900F9096
:104560000F9068EE73E080E090E00E94C3D982E98A
:10457000C82E87E0D82EC0E0D0E0F02E012F21C059
:104580008EE495E06C2F0E94E38400D000D000D030
:10459000EDB7FEB73196ADB7BEB71196FC92119745
:1045A00012960C93D382C282958384830E9485C71E
:1045B0002196EDB7FEB736960FB6F894FEBF0FBE44
:1045C000EDBFC930D105E4F288E195E00E9448D8FA
:1045D00064E170E080E090E00E94C3D988E195E05A
:1045E0000E94FCC7181619061CF0C0E0D0E0E9CF05
:1045F00080E0DF91CF911F910F91FF90DF90CF90DE
:104600000895A0E0B0E0E7E0F3E20C9470DF0E94D0
:104610000A1168EE73E080E090E00E94C3D92BE9B4
:10462000C22E27E0D22E98E1E92E95E0F92E6DE416
:1046300071E080E090E00E94C3D90E9466108091F2
:104640001311909114110E9498BDC0911311D09133
:1046500014118FA1882309F445C08DB79EB74297E6
:104660000FB6F8949EBF0FBE8DBF0DB71EB70F5F7C
:104670001F4FEDB7FEB7F282E182F801D382C2820A
:104680008C859D85AE85BF8584839583A683B783FE
:1046900088899989AA89BB8980879187A287B387EE
:1046A0006C897D898E899F8924E630E040E050E066
:1046B0000E944BDFF80124873587468757878EA1F4
:1046C000808B118A0E9485C7E0911311F09114111B
:1046D00017A28DB79EB742960FB6F8949EBF0FBE35
:1046E0008DBF06C088E195E063E072E00E9478D754
:1046F00088E195E00E94FCC7181619060CF097CFC8
:1047000080E0CDB7DEB7E8E00C948CDF00D000D0BD
:1047100088E195E0EDB7FEB79283818388E298E067
:10472000948383830E9485C70F900F900F900F9002
:1047300088E291E10E94D68F80E008958DE391E1B7
:104740000E94D68F80E00895CF93DF9300D000D0F1
:10475000C8E1D5E0EDB7FEB7D283C18384EF98E01E
:10476000948383830E9485C70F900F900F900F90C2
:104770008091340B9091350B8451954064F168EE33
:1047800073E080E090E00E94C3D900D000D0EDB784
:10479000FEB7D283C1838BEC98E0948383830E941D
:1047A00085C70F900F900F900F9068EE73E080E038
:1047B00090E00E94C3D900D000D0EDB7FEB7D283FD
:1047C000C18388EA98E0948383830E9485C70F9011
:1047D0000F900F900F908FE291E10E94D68F80E0B2
:1047E000DF91CF91089581E291E10E94D68F80E020
:1047F000089584E89AE00E94F88800D000D088E10B
:1048000095E0EDB7FEB7928381838DED99E09483B7
:1048100083830E9485C70F900F900F900F900E9486
:10482000B01E80918F0A0E948E1182E090E00E945B
:10483000C71E0895A0E0B0E0E0E2F4E20C9470DF5F
:1048400000D000D048E1E42E45E0F42EADB7BEB76D
:104850001296FC92EE92119781E49AE014969C9342
:104860008E9313970E9485C70F900F900F900F9013
:104870000E94B01E8091B40A0E948E1134EBC32EA8
:1048800035E0D32EC6010E942F98CDB7DEB728970A
:104890000FB6F894DEBF0FBECDBF0DB71EB70F5FCA
:1048A0001F4FFA82E98221E33AE0F8013383228341
:1048B00021EE3EE245E652E40E9430DED801149635
:1048C0006D937D938D939C9317970E9485C7CDB769
:1048D000DEB728960FB6F894DEBF0FBECDBFC60177
:1048E0000E942A989C01EDB7FEB770970FB6F89416
:1048F000FEBF0FBEEDBF3196ADB7BEB71296FC92AC
:10490000EE92119780E19AE093838283E901888196
:104910009981AA81BB8184839583A683B7838C8187
:104920009D81AE81BF8180879187A287B38788856B
:104930009985AA85BB8584879587A687B7870E94B6
:1049400085C7EDB7FEB770960FB6F894FEBF0FBEE1
:10495000EDBF82E090E00E94C71ECDB7DEB7E8E071
:104960000C948CDFFF920F931F93F82E8B0188E03D
:1049700090E00E94C71E0E94F51E0E941E1F0E940A
:10498000391F0E94901F0E94F9230E9407200E9455
:10499000D81E0E941A248F2DB8010E94AA8E80E092
:1049A0001F910F91FF900895FB01608971898289A1
:1049B000938925E33AEF4EE85CE30E9430DEAB01D9
:1049C000BC0184EB95E00E94CAA20E941A2480E0F8
:1049D0000895FB0184858093CC0A81EC9AE00E94C3
:1049E00087890E94442080E0089500D000D088E1AB
:1049F00095E0EDB7FEB7928381838EEF9AE09483C2
:104A000083830E9485C781E08093C00A0F900F9036
:104A10000F900F9085EB9AE00E94878964E170E027
:104A200080E090E00E94C3D988E195E00E94FCC735
:104A3000181619069CF71092C00A85EB9AE00E949E
:104A4000878980E0089564E170E080E090E00E9452
:104A5000C3D90E9428182091DC0B3091DD0B3093D4
:104A60007B1120937A1130937D1120937C11309328
:104A70007F1120937E1130938111209380118091BA
:104A8000D80A813009F055C040911F0B5091200B7E
:104A90008BE0493B58075CF0C9018C599F4F9093BC
:104AA0007B1180937A1190938111809380114854E7
:104AB000544FA4F480917C1190917D118C599F4F9B
:104AC00090937D1180937C1180917E1190917F1144
:104AD0008C599F4F90937F1180937E112091730B7F
:104AE0003091740B4BE0293B3407A4F080917C118A
:104AF00090917D118C599F4F90937D1180937C11E3
:104B000080918011909181118C599F4F90938111C8
:104B1000809380112854344F0CF045C080917A1155
:104B200090917B118C599F4F90937B1180937A11B8
:104B300030C080911F0B9091200B4BE0893B940774
:104B400034F02C593F4F30937B1120937A118854C5
:104B5000944F54F480917C1190917D118C599F4F0A
:104B600090937D1180937C112091730B3091740B85
:104B70004BE0293B340754F08091801190918111D2
:104B80008C599F4F90938111809380112854344FFA
:104B900054F480917E1190917F118C599F4F909386
:104BA0007F1180937E1140917A1150917B1182EF99
:104BB00092E160E00E94A98340917C1150917D11A7
:104BC00082EF92E161E00E94A98340917E115091B1
:104BD0007F1182EF92E162E00E94A98340918011EF
:104BE0005091811182EF92E163E00E94A98388E1F4
:104BF00095E00E94FCC7181619060CF024CF1092FD
:104C0000C00A85EB9AE00E94878980E00895FF92B0
:104C10000F931F93CF93DF9300D000D088E195E0EE
:104C2000EDB7FEB79283818383EA9AE0948383830E
:104C30000E9485C70F900F900F900F900E940A114D
:104C4000FF2400E0C1E0D0E064E170E080E090E0AB
:104C50000E94C3D90E9428180E944B0F182FF816E3
:104C600009F190E0FC01EE0FFF1FE80FF91FEE0FB6
:104C7000FF1FEE0FFF1FEA5EF54F0385083008F0B7
:104C800007E04091690A552747FD5095012E02C063
:104C9000559547950A94E2F741705070812F602F27
:104CA0000E94471E80911F0B9091200B97FF03C01D
:104CB000909581959F4F895B9B404CF10F5F083029
:104CC00009F400E0812F90E0FC01EE0FFF1FE80FD8
:104CD000F91FEE0FFF1FEE0FFF1FEA5EF54F038770
:104CE0004091690A552747FD5095012E02C0559500
:104CF00047950A94E2F741705070812F602F0E940F
:104D0000471E64EF71E080E090E00E94C3D980917B
:104D10001B0C90911C0C895B9B400CF1CE01012E69
:104D200002C0880F991F0A94E2F74091690A482B44
:104D30004093690A552747FD5095012E02C05595AD
:104D400047950A94E2F741705070812F602F0E94BE
:104D5000471E64EF71E080E090E00E94C3D980912B
:104D60001B0C90911C0C8854944F1CF5CE01012E05
:104D700002C0880F991F0A94E2F780952091690A72
:104D800082238093690A482F552747FD5095012EAD
:104D900002C0559547950A94E2F741705070812FF3
:104DA000602F0E94471E64EF71E080E090E00E9457
:104DB000C3D988E195E00E94FCC7F12E18161906A8
:104DC0000CF042CFC6E1DAE0CE010E9487892C9632
:104DD000FAE0CE35DF07C1F7CE010E9487890E9435
:104DE0009A130E94072080E0CDB7DEB7E5E00C946F
:104DF0008FDFA4E2B0E0EFEFF6E20C9474DF80E026
:104E000090E0A0E8BFE389839A83AB83BC8380E012
:104E100090E0A0E0B0E08D839E83AF83B887898760
:104E20009A87AB87BC878D879E87AF87B88B20E03A
:104E300030E040E85FEB298B3A8B4B8B5C8B8D8BA2
:104E40009E8BAF8BB88F898F9A8FAB8FBC8F8D8FD6
:104E50009E8FAF8FB8A329A33AA34BA35CA304EB07
:104E600015E0C801BE016F5F7F4F0E94369385E950
:104E700097E0B8010E9407A4C8010E948E95C8015E
:104E80000E942A98A496E4E00C9490DFCF93DF93DD
:104E9000FB01C285D385CE0169E87AE00E9426E154
:104EA000892B21F481E080938F0A09C0CE0165E847
:104EB0007AE00E9426E1892B39F410928F0A84E867
:104EC0009AE00E94878912C000D000D088E195E066
:104ED000EDB7FEB79283818381E79AE09483838361
:104EE0000E9485C70F900F900F900F900E94F9239A
:104EF00080E0DF91CF910895CF93DF93FB01EB0129
:104F00002A96828593856FE97AE00E9426E1892BB3
:104F100019F410929B0A0FC02A813B814C815D815C
:104F2000DA01C9010197A109B1090497A105B105E9
:104F300038F420939B0A80E99AE00E94878912C086
:104F400000D000D088E195E0EDB7FEB79283818371
:104F50008CE89AE0948383830E9485C70F900F901A
:104F60000F900F900E94901F80E0DF91CF910895E5
:104F7000CF93DF93FB01C285D385CE016AED7BE041
:104F80000E9426E1892B11F481E019C0CE0168ED61
:104F90007BE00E9426E1892B39F0CE0166ED7BE0B3
:104FA0000E9426E1892B19F41092D80A0AC0CE017A
:104FB00064ED7BE00E9426E1892B41F482E080933E
:104FC000D80A8DEC9AE00E94878912C000D000D0E8
:104FD00088E195E0EDB7FEB79283818382EC9BE098
:104FE000948383830E9485C70F900F900F900F903A
:104FF0000E94391F80E0DF91CF910895ACE0B0E0CE
:10500000E4E0F8E20C9474DFFB0102851385C8012B
:105010006EE67AE00E9426E1892B51F481E08093CC
:10502000B40A89EA9AE00E9487890E94F9263CC066
:10503000C8016AE67AE00E9426E1892B11F580E03A
:1050400090E0A0E0B0E089839A83AB83BC838D833A
:105050009E83AF83B88789879A87AB87BC8784EBA9
:1050600095E0BE016F5F7F4F0E940D9884EB95E045
:105070000E94D6A21092B40A89EA9AE00E94878917
:1050800013C000D000D088E195E0EDB7FEB7928361
:10509000818387E59AE0948383830E9485C70F907C
:1050A0000F900F900F9004C089EA9AE00E948789C0
:1050B0000E941A2480E02C96E4E00C9490DF85E4B2
:1050C00097E063EC79ED0E9488C30E946C120E9405
:1050D000D81E80E008950F931F93CF93DF9388E14C
:1050E00095E065E072E00E945FD800E064E170E066
:1050F00080E090E00E94C3D90E9428180F5F043618
:10510000A9F7C0911D0BD0911E0B81E0C43FD807B9
:105110003CF468EE73E080E090E00E94C3D9F9CFE0
:10512000D093350BC093340B2091710B3091720BDF
:105130003093890B2093880B0091C50B1091C60BFF
:105140001093DD0B0093DC0B8091190C90911A0CDD
:105150009093310C8093300CA0916D0CB0916E0C3B
:10516000B093850CA093840CE091C10CF091C20C1B
:10517000F093D90CE093D80C6091150D7091160D39
:1051800070932D0D60932C0D4091690D50916A0D17
:105190005093810D4093800DD0934F0BC0934E0BD5
:1051A0003093A30B2093A20B1093F70B0093F60BF5
:1051B00090934B0C80934A0CB0939F0CA0939E0C41
:1051C000F093F30CE093F20C7093470D6093460D4F
:1051D00050939B0D40939A0DD093420BC093410B7B
:1051E0003093960B2093950B90933E0C80933D0C3F
:1051F0008CED95E09093920C8093910C9093E60C3B
:105200008093E50C90933A0D8093390D90938E0D19
:1052100080938D0D00D000D088E195E0EDB7FEB70A
:10522000928381838CED9BE0948383830E9485C766
:105230000F900F900F900F9064E170E080E090E08D
:105240000E94C3D90E94281882E19BE00E94C7D126
:1052500086E69BE00E94C7D18AEB9BE00E94C7D103
:105260008EE09CE00E94C7D182E69CE00E94C7D1FC
:1052700086EB9CE00E94C7D18AE09DE00E94C7D1E6
:105280008EE59DE00E94C7D188E195E00E94FCC7B1
:10529000181619068CF664E170E080E090E00E9438
:1052A000C3D988E195E00E9479C882E19BE00E9421
:1052B000FDD386E69BE00E94FDD38AEB9BE00E9433
:1052C000FDD38EE09CE00E94FDD382E69CE00E942C
:1052D000FDD386EB9CE00E94FDD38AE09DE00E9416
:1052E000FDD38EE59DE00E94FDD30E949A130E949B
:1052F0001E1F80E0DF91CF911F910F91089500D084
:1053000000D088E195E0EDB7FEB79283818389E311
:105310009CE0948383830E9485C70F900F900F9029
:105320000F9088E195E00E942CC8FFEF8F3F9F0708
:10533000C1F38937910529F08935910511F08FEF77
:1053400008950E94638900D000D088E195E0EDB710
:10535000FEB79283818384E19CE0948383830E94DF
:1053600085C70F900F900F900F9068EE73E080E06C
:1053700090E00E94C3D9FFCFCF93DF9300D000D03D
:1053800088E195E0EDB7FEB79283818387E79CE0E3
:10539000948383830E9485C7C0E0D0E00F900F9074
:1053A0000F900F90CE0160E00E9427E42196F0E17B
:1053B000C030DF07B9F700D000D088E195E0EDB745
:1053C000FEB79283818381E79CE0948383830E946C
:1053D00085C70F900F900F900F90DF91CF91089598
:1053E0000E94BC2980E00895EF92FF920F931F93D3
:1053F000CF93DF937B018230A1F000D000D088E111
:1054000095E0EDB7FEB79283818386E39DE09483B8
:1054100083830E9485C78FEF0F900F900F900F909E
:1054200091C0FB0102851385C80162E37DE00E9403
:1054300013E1892B19F4CFEFDFEF63C0C80164E2F9
:105440007DE00E9413E1C0E0D0E0892B11F4C1E0BF
:10545000D0E0C80167E17DE00E9413E1892B09F4E7
:10546000C260C80163E17DE00E9413E1892B09F469
:10547000C460C80160E17DE00E9413E1892B09F45A
:10548000C860C8016BE07DE00E9413E1892B09F43C
:10549000C061C80166E07DE00E9413E1892B09F438
:1054A000C062C80161E07DE00E9413E1892B09F42C
:1054B000C064C8016DEF7CE00E9413E1892B09F400
:1054C000C068C80169EF7CE00E9413E1892B09F4F0
:1054D000D160C80165EF7CE00E9413E1892B09F4DB
:1054E000D260C8016EEE7CE00E9413E1892B09F4C2
:1054F000D460C80166EE7CE00E9413E1892B09F4B8
:10550000D860F701808191816FED7CE00E9413E10A
:10551000892B39F48091750A9091760AC82BD92B82
:1055200008C0C095D0958091750A9091760AC823DD
:10553000D923D093760AC093750A8AE69AE00E942E
:10554000878980E0CDB7DEB7E6E00C948EDFCF939D
:10555000DF9300D000D088E195E0EDB7FEB79283ED
:10556000818386E59DE0948383830E9485C7C1E0A3
:10557000D0E00F900F900F900F908CEC93E1BE0154
:105580000E94E2C42196F0E1C030DF07B1F78CEC55
:1055900093E161E070E00E94D6C48CEC93E163EA91
:1055A0000E948CC58CEC93E165E90E948CC58CEC63
:1055B00093E160EF0E948CC58CEC93E160E00E9467
:1055C0008CC58CEC93E16AEB0E948CC58CEC93E16A
:1055D0000E9404C600D000D088E195E0EDB7FEB788
:1055E0009283818388E49DE0948383830E9485C7AE
:1055F0000F900F900F900F9080E0DF91CF91089562
:105600006F927F928F929F92AF92BF92CF92DF92D2
:10561000EF92FF920F931F930CEC13E1C8010E94CD
:10562000EDC63C01C8010E94EDC64C01C8010E94B4
:10563000EDC65C01C8010E94EDC66C01C8010E9464
:10564000EDC67C01C8010E94EDC62DB73EB72051C2
:1056500030400FB6F8943EBF0FBE2DBFEDB7FEB77A
:10566000319628E135E0ADB7BEB712963C932E9344
:10567000119725E73DE03383228375826482978208
:105680008682B186A086D386C286F586E486978711
:1056900086870E9485C72DB73EB7205F3F4F0FB664
:1056A000F8943EBF0FBE2DBF1F910F91FF90EF905A
:1056B000DF90CF90BF90AF909F908F907F906F9032
:1056C0000895EF92FF920F931F9300D000D008E14E
:1056D00015E0ADB7BEB712961C930E93119788E9EB
:1056E0009DE014969C938E9313970E9485C70F900C
:1056F0000F900F900F908CECE82E83E1F82EC701ED
:105700000E947CC6E82FF0E0EE0FFF1FE155FC4F32
:1057100060817181C8010E9478D7C7010E94EDC6DF
:1057200000D000D000D0EDB7FEB73196ADB7BEB710
:1057300012961C930E93119722E93DE03383228346
:10574000958384830E9485C7EDB7FEB736960FB662
:10575000F894FEBF0FBEEDBF1F910F91FF90EF9029
:1057600008952F923F924F925F926F927F928F9205
:105770009F92AF92BF92CF92DF92EF92FF920F93E0
:105780001F930CEC13E1C8010E94EDC61C01C80177
:105790000E94EDC62C01C8010E94EDC63C01C80163
:1057A0000E94EDC64C01C8010E94EDC65C01C80113
:1057B0000E94EDC66C01C8010E94EDC67C01C801C3
:1057C0000E94EDC62DB73EB7245130400FB6F89475
:1057D0003EBF0FBE2DBFEDB7FEB7319628E135E0D5
:1057E000ADB7BEB712963C932E9311972DE93DE0CD
:1057F0003383228335822482578246827186608673
:1058000093868286B586A486D786C686F18AE08A84
:10581000938B828B0E9485C72DB73EB72C5E3F4F7E
:105820000FB6F8943EBF0FBE2DBF1F910F91FF9092
:10583000EF90DF90CF90BF90AF909F908F907F9030
:105840006F905F904F903F902F9008959F92AF92EE
:10585000BF92CF92DF92EF92FF920F931F930CECC7
:1058600013E1C8010E94EDC65C01C8010E947CC61C
:10587000982EC8010E94EDC66C01C8010E94EDC6B9
:105880007C01C8010E94EDC62DB73EB72E503040B6
:105890000FB6F8943EBF0FBE2DBFEDB7FEB73196E1
:1058A00028E135E0ADB7BEB712963C932E93119721
:1058B00023EC3DE033832283B582A4829682178253
:1058C000D186C086F386E286958784870E9485C745
:1058D0002DB73EB7225F3F4F0FB6F8943EBF0FBEC5
:1058E0002DBF1F910F91FF90EF90DF90CF90BF9051
:1058F000AF909F900895AF92BF92CF92DF92EF92B8
:10590000FF920F931F930CEC13E1C8010E94EDC6A8
:105910005C01C8010E94EDC66C01C8010E94EDC681
:105920007C01C8010E94EDC62DB73EB72C50304017
:105930000FB6F8943EBF0FBE2DBFEDB7FEB7319640
:1059400028E135E0ADB7BEB712963C932E93119780
:105950002AE53EE033832283B582A482D782C682C1
:10596000F186E086938782870E9485C72DB73EB770
:10597000245F3F4F0FB6F8943EBF0FBE2DBF1F915F
:105980000F91FF90EF90DF90CF90BF90AF90089570
:105990001F938CEC93E161E070E00E9403C710E07C
:1059A0008CEC93E10E947CC6113051F0113018F05C
:1059B000123099F408C010E0833A79F411E00DC078
:1059C000853951F407C0803F39F48CEC93E10E9493
:1059D0007CC60AC012E001C010E08CEC93E10E948A
:1059E0003DC40197E9F280E01F910895EF92FF9284
:1059F0000F931F93CF93DF938C01C0E0D0E11FC0C2
:105A0000CE01800F911F62E070E00E9416DFF62E3B
:105A1000E72E8CEC93E10E9403C78CEC93E10E948B
:105A2000ACC66F5F7F4F8F4F9F4F29F48F2D9E2DF8
:105A30009C01E90104C08F2D9E2D9C018901CE019E
:105A4000801B910B0297E4F6CE01CDB7DEB7E6E0FE
:105A50000C948EDFA0E0B0E0E0E3FDE20C946EDF9A
:105A6000E82E6B015A018CEC93E161E070E00E943A
:105A700003C710E08CEC93E10E947CC6113051F01A
:105A8000113018F01230A9F508C010E0833A89F5FA
:105A900011E02FC0853961F529C0803F49F58CECB4
:105AA00093E10E947CC6F82EC0E0D0E00E2D10E0FD
:105AB0000FC08CEC93E10E94EDC6F60191838083C8
:105AC0008CEC93E10E94EDC6F501918380832196D1
:105AD000C017D10774F3EF1499F4F6018081918116
