:100000000C94A2110C94CC110C94CC110C94CC1126
:100010000C94CC110C94CC110C94CC110C94CC11EC
:100020000C94CC110C94CC110C94CC110C94CC11DC
:100030000C94CC110C94CC110C94CC110C9487958D
:100040000C94CC110C94CC110C94CC110C94CC11BC
:100050000C94CC110C94CC110C94CC110C94D6ECC7
:100060000C94CC110C946E130C94AE130C94CC1114
:100070000C94CC110C94CC110C94CC110C94CC118C
:100080000C94CC110C94CC110C94CC110C94CC117C
:100090000C9400140C9440140C94CC110C9432E980
:1000A0000C94CC110C94C5920C94CC110C94CC11E2
:1000B0000C94CC110C94CC110C94CC110C94CC114C
:1000C0000C94CC110C94CC110C94CC110C94CC113C
:1000D0000C94CC110C94CC110C9492140C94D2145A
:1000E0000C94CC114219441947194419441949195F
:1000F0004C194419441944195119541957194419E0
:1001000044194F195A19CC52E552ED52D452DD52CE
:10011000F552475322531A5312532A533253395329
:10012000405302530A535B534E5368538C668C669C
:100130008C668A668A668C668C668A668A668A6639
:1001400035668A667D668A668A6687668C660E6B09
:100150003A6B436B506B536BD874566BD874D8742E
:10016000D874596B5C6B5F6B836B816B816B816B3C
:100170008F6B816B856B816B9A6B926B9D6B946BB4
:10018000976B816B9A6B9A6B9A6B9A6B816B816B95
:10019000816B816B9D6B816B9F6B0382D781C68165
:1001A0001B821B820B807E801B821B821B821B8218
:1001B000E17FE17F1B821B82E17F309335933A938D
:1001C0003F93449349934E93539358935D93629313
:1001D0006CCB67CB70CB74CB82CB9BCBC5CBD6CB58
:1001E00015CD10CD19CD22CD49CD55CD6FCD90CDAA
:1001F00097CD3FDF3FDF63DFD2DFA7DFEDDF08E032
:1002000035E073E0BAE013EE16EE09EE0DEE4FEEB8
:100210001AEE1EEE24EE28EE2CEE32EE36EE3AEE1C
:1002200040EE44EE4AEE036EDB363D9A9999993DD5
:10023000ABAAAA2A3E000000803F084AD73B3BCE2B
:10024000016E84BCBFFDC12F3D6C74319ABD5683D5
:100250003DDA3D00C77F11BED9E4BB4C3E916BAA8D
:10026000AABE000000803F072C7AA5BA6CC590DAC0
:100270003B9365FC8BBC53F810FD3C5692834DBDFF
:10028000879D3AB63DCBC9BF5BBE73DA0FC93F0548
:10029000A84CCDB2D44EB93836A9020C50B99186CB
:1002A00088083CA6AAAA2ABE000000803F080000D9
:1002B00000BE922449123EABAAAA2ABECDCCCC4C99
:1002C0003E00000080BEABAAAAAA3E00000000BF0C
:1002D000000000803F0000000000084178D3BB43CD
:1002E00087D1133D190E3CC3BD4282AD2B3E68EC55
:1002F0008276BED98FE1A93E4C80EFFFBE01C4FFDC
:100300007F3F00000000004C6F670064756D700057
:100310000000000000000000004243657261736548
:10032000000000000000000000A23A656E61626CEF
:10033000650000000000000000A339646973616279
:100340006C6500000000000000A33968656C700057
:10035000000000000000000000C718706C616E6EA5
:100360006572006763730000000000000000000079
:100370000040757365747570007265736574000074
:10038000000000000000006C39726164696F0000B9
:1003900000000000000000D0596D6F64657300001C
:1003A000000000000000003859636F6D70617373C6
:1003B00000000000000000EB386465636C696E614A
:1003C00074696F6E000000D638626174746572796A
:1003D000000000000000006A2F73686F77000000C3
:1003E00000000000000000A0386572617365000025
:1003F000000000000000007A3841726475506C61A2
:100400006E652056322E323531006C6F67730000F6
:100410000000000000000000403873657475700033
:1004200000000000000000002838746573740000AC
:100430000000000000000000103868656C700000CB
:100440000000000000000000A716706C616E6E6571
:100450007200000000000000F837746573740070CB
:10046000776D0000000000000000000000C6587218
:100470006164696F0000000000000000003E5866E3
:1004800061696C736166650000000000003D5762A1
:1004900061747465727900000000000000602572CC
:1004A000656C6179000000000000000000A0377753
:1004B0006179706F696E747300000000008A36788D
:1004C00062656500000000000000000000823365E6
:1004D0006564756D7000000000000000009F356DC0
:1004E0006F646573776974636800000000CB2864EB
:1004F000697073776974636865730000000735611C
:100500006463000000000000000000000040346749
:1005100070730000000000000000000000B433729F
:1005200061776770730000000000000000433369CA
:100530006D7500000000000000000000007B2967CE
:1005400079726F000000000000000000009432612A
:10055000697273706565640000000000005E3161BF
:1005600069727072657373757265000000966963D5
:100570006F6D7061737300000000000000392B6321
:10058000757272656E740000000000000050564ED7
:100590006F7420656E61626C65640A00563A2025AE
:1005A000342E34662C20413A2025342E34662C20FB
:1005B0006D41683A2025342E34660A00486974205B
:1005C000456E74657220746F20657869742E0A0A0E
:1005D000004D5347204653204F4646202575004D79
:1005E0005347204653204F4E20257500736176698E
:1005F0006E67206F66667365747300486561646931
:100600006E673A20256C642C2058595A3A2025648C
:100610002C2025642C2025642C0958595A6F6666B5
:100620003A2025362E32662C2025362E32662C2096
:1006300025362E32660A00436F6D70617373206930
:100640006E697469616C69736174696F6E2066614B
:10065000696C65642100436F6D706173733A2000AB
:1006600061626C65640A0064697300656E004D61C7
:1006700067206F6666736574733A2025342E34667E
:100680002C2025342E34662C2025342E34660A0086
:100690004D6167204465636C696E6174696F6E3A81
:1006A0002025342E34660A003F3F0048494C00485C
:1006B0004D433538343300484D43353838334C00DA
:1006C000436F6D706173733A20002D00416C743A72
:1006D0002025302E32666D2C205261773A20256C11
:1006E000640A00556E63616C6962726174656420AE
:1006F00072656C6174697665206169727072657388
:10070000737572650A006261726F6D65746572203F
:1007100063616C6962726174696F6E20636F6D7082
:100720006C6574652E006162735F707265737375BA
:10073000726520256C640A0025666D2F730A0061BE
:10074000697273706565643A2000616972737065DF
:1007500065643A200061697273706565645F6368FF
:100760003A2025750A002564092564092564097C59
:100770000925640925640925640A004779726F20F8
:100780007C20416363656C0A00723A20256409701D
:100790003A2025640920793A2025640A002E004C6D
:1007A00061743A20256C642C204C6F6E20256C649B
:1007B0002C20416C743A20256C646D2C20237361CD
:1007C00074733A2025640A00257509004144430AE0
:1007D000004D69783A656C65766F6E7320097265B5
:1007E0007620656C65763A25642C207265762063E8
:1007F00068313A25642C20726576206368323A2588
:10080000640A004D69783A7374616E6461726420A1
:100810000972657620726F6C6C3A25642C207265C3
:10082000762070697463683A25642C20726576209E
:100830007275646465723A25640A00646970207395
:10084000776974636865732064697361626C656459
:100850002C207573696E6720454550524F4D0050EE
:100860006F736974696F6E2025640A00436F6E743C
:10087000726F6C20434820002025303278002530EC
:1008800034783A00426567696E20584265652058A1
:100890002D4354552052616E676520616E6420526D
:1008A00053534920546573743A0A004C6F69746558
:1008B00072207261646975733A2025640A0A0048DF
:1008C0006974207261646975733A2025640A002591
:1008D0006420776179706F696E74730A00486F6C79
:1008E0006420616C746974756465206F662025648A
:1008F0006D0A00486F6C642063757272656E7420B7
:10090000616C7469747564650A00636F6D6D616E06
:100910006420233A2025642069643A2564206F709E
:1009200074696F6E733A25642070313A25642070C3
:10093000323A256C642070333A256C642070343A66
:10094000256C64200A0052656C6179206F66660A26
:100950000052656C6179206F6E0A004E6F742065DD
:100960006E61626C65640A00566F6C74733A203174
:100970003A25322E32662C20323A25322E32662C1F
:1009800020333A25322E32662C20343A25322E324C
:10099000660A004C4F5320636175736564206E6F67
:1009A000206368616E676520696E2041504D2E0A94
:1009B000005448524F54544C45204641494C5341F1
:1009C0004645204143544956415445443A20256404
:1009D0002C2000434F4E54524F4C204D4F44452045
:1009E0004348414E4745443A20005448524F5454DE
:1009F0004C45204348414E474544202564200A0089
:100A0000556E706C756720626174746572792C2004
:100A10007468726F74746C6520696E206E6575748D
:100A200072616C2C207475726E206F666620726124
:100A300064696F2E0A00494E20313A20256409323C
:100A40003A20256409333A20256409343A20256484
:100A500009353A20256409363A20256409373A20B9
:100A6000256409383A2025640A00494E3A09313A8A
:100A700020256409323A20256409333A2025640987
:100A8000343A20256409353A20256409363A202570
:100A90006409373A20256409383A2025640A005051
:100AA0006C616E6E6572204D6F64650A0A546869E8
:100AB00073206D6F6465206973206E6F7420696E9A
:100AC00074656E64656420666F72206D616E756119
:100AD0006C207573650A0A00436F6D6D616E6473F7
:100AE0003A0A20206C6F67732020202020202020CD
:100AF0006C6F6720726561646261636B2F736574EC
:100B00007570206D6F64650A2020736574757020A0
:100B10002020202020207365747570206D6F64651F
:100B20000A20207465737420202020202020207447
:100B3000657374206D6F64650A0A4D6F7665207465
:100B4000686520736C6964652073776974636820D5
:100B5000616E6420726573657420746F20464C5911
:100B60002E0A0A0054657374204D6F64650A0A00EA
:100B70005365747570204D6F64650A0A494D504F76
:100B80005254414E543A20696620796F752068614D
:100B90007665206E6F742070726576696F75736C00
:100BA0007920736574207468697320737973746530
:100BB0006D2075702C20757365207468650A277226
:100BC000657365742720636F6D6D616E6420746F4B
:100BD00020696E697469616C697A65207468652042
:100BE000454550524F4D20746F2073656E73696296
:100BF0006C652064656661756C742076616C7565E2
:100C0000730A616E64207468656E207468652027BD
:100C1000726164696F2720636F6D6D616E6420740B
:100C20006F20636F6E66696775726520666F7220EC
:100C3000796F757220726164696F2E0A0A000A5416
:100C40007970652027592720616E642068697420B7
:100C5000456E74657220746F2065726173652061E2
:100C60006C6C20776179706F696E7420616E64209E
:100C7000706172616D6574657220646174612C20AD
:100C8000616E79206F74686572206B657920746F6E
:100C90002061626F72743A2000646F6E650A000A08
:100CA00045726173696E6720454550524F4D0A0089
:100CB0005261772056616C7565730A0052616469F0
:100CC0006F0A004348383A202564207C20256420A0
:100CD0007C2025640A004348373A202564207C2084
:100CE0002564207C2025640A004348363A20256488
:100CF000207C202564207C2025640A004348353A66
:100D0000202564207C202564207C2025640A004363
:100D100048343A202564207C202564207C202564EA
:100D20000A004348333A202564207C202564207C37
:100D30002025640A004348323A202564207C20257F
:100D400064207C2025640A004348313A2025642031
:100D50007C202564207C2025640A004D6F6E697418
:100D60006F72696E6720766F6C747320616E642099
:100D700063757272656E74004D6F6E69746F72691F
:100D80006E67206261747420766F6C7473004D6FAF
:100D90006E69746F72696E6720342063656C6C00D5
:100DA0004D6F6E69746F72696E6720332063656C76
:100DB0006C0042617474206D6F6E69746F72696E3D
:100DC000672064697361626C6564004261747420B9
:100DD0004D6F696E746F720A006E6176207069746F
:100DE000636820616C743A0A00656E657267727997
:100DF000207468726F74746C653A0A006E617620B4
:100E000070697463682061697273706565643A0A19
:100E1000006E617620726F6C6C3A0A0073657276B0
:100E20006F207275646465723A0A00736572766F3A
:100E30002070697463683A0A00736572766F207275
:100E40006F6C6C3A0A004761696E730A00503A2071
:100E500025342E33662C20493A25342E33662C2037
:100E6000443A25342E33662C20494D41583A256C9E
:100E7000640A0058545241434B3A2025342E3266BE
:100E80000A58545241434B20616E676C653A2025E5
:100E9000640A0043726F7373747261636B0A006D4E
:100EA000696E3A2025640A6D61783A2025640A63E8
:100EB00072756973653A2025640A6661696C7361AD
:100EC00066655F656E61626C65643A2025640A66DA
:100ED00061696C736166655F76616C75653A202542
:100EE000640A005468726F74746C650A00466C6919
:100EF000676874206D6F6465730A00506F732025F6
:100F0000643A2000494D550A004779726F206F6698
:100F100066736574733A2025342E32662C2025348E
:100F20002E32662C2025342E32660A00416363651A
:100F30006C206F6666736574733A2025342E3266B2
:100F40002C2025342E32662C2025342E32660A00C1
:100F50000A4F7074696F6E733A20302D34000A4F57
:100F60007074696F6E733A5B6F6E2C6F66665D0AA4
:100F7000006F666600436F6D7061737320696E6900
:100F80007469616C69736174696F6E206661696C04
:100F9000656421006F6E000A4D6F76652052432014
:100FA000746F67676C652073776974636820746F0A
:100FB000206561636820706F736974696F6E207457
:100FC0006F20656469742C206D6F76652061696C93
:100FD00065726F6E20737469636B20746F20736524
:100FE0006C656374206D6F6465732E000A536176BF
:100FF00065642053657474696E67730A0A000A4D4C
:101000006F766520616C6C20636F6E74726F6C73A9
:1010100020746F20656163682065787472656D6502
:101020002E2048697420456E74657220746F207399
:101030006176653A200A000A4E6F20726164696F1A
:101040003B20436865636B20636F6E6E6563746FEE
:1010500072732E000A0A526164696F2053657475B9
:10106000703A0A000A464143544F525920524553A0
:10107000455420636F6D706C657465202D20706C15
:10108000656173652072657365742041504D2074ED
:101090006F20636F6E74696E7565000A54797065B0
:1010A0002027592720616E642068697420456E747A
:1010B000657220746F20706572666F726D20666154
:1010C00063746F72792072657365742C20616E7918
:1010D000206F74686572206B657920746F2061627F
:1010E0006F72743A20000A436F6D6D616E64733ADB
:1010F0000A202064756D70203C6E3E202020202048
:10110000202020202020202064756D70206C6F67C7
:10111000203C6E3E0A2020657261736520202020ED
:101120002020202020202020202020206572617394
:101130006520616C6C206C6F67730A2020656E619E
:10114000626C65203C6E616D653E7C616C6C20203C
:101150002020656E61626C65206C6F6767696E67E1
:10116000203C6E616D653E206F72206576657279F8
:101170007468696E670A202064697361626C652017
:101180003C6E616D653E7C616C6C202020646973EF
:1011900061626C65206C6F6767696E67203C6E6189
:1011A0006D653E206F722065766572797468696E30
:1011B000670A0A00656E61626C6500435552004320
:1011C0004D4400524157004D4F4445004E54554E3A
:1011D000004354554E00504D004750530041545465
:1011E00049545544455F4D45440041545449545574
:1011F00044455F4641535400616C6C006D697373E4
:10120000696E67206C6F6720747970650A000A4CFC
:101210006F67206572617365642E0A000A4572610A
:1012200073696E67206C6F672E2E2E0A004154542E
:10123000454E54494F4E202D2045726173696E67AB
:10124000206C6F6720696E202564207365636F6E64
:1012500064732E2020506F776572206F6666206E53
:101260006F7720746F2073617665206C6F67212023
:101270000A004C6F67207265616420636F6D706C4B
:101280006574650A0044756D70696E67204C6F6700
:10129000206E756D6265722025642C2020202073DD
:1012A0007461727420706167652025642C20202091
:1012B000656E6420706167652025640A0062616460
:1012C000206C6F67206E756D6265720A004E756DD9
:1012D000626572206F66207061636B657473207243
:1012E0006561643A2025640A004572726F7220526B
:1012F000656164696E6720454E445F425954453AC2
:101300002025640A004572726F722052656164691B
:101310006E67205061636B65743A2025640A000A89
:1013200041726475506C616E652056322E323531D3
:101330000A467265652052414D3A2025750A0041E2
:1013400054543A2025642C2025642C2025750A004D
:101350004D4F443A004354554E3A004E54554E3A80
:101360002025342E34662C2025642C2025342E3460
:10137000662C2025342E34662C2025342E34662C01
:101380002025342E34662C2025342E34662C0A0079
:10139000504D3A005241573A00434D443A004355AC
:1013A00052523A2025642C2025342E34662C2025D8
:1013B000342E34662C2025640A0020256420636FB7
:1013C0006D6D616E647320696E206D656D6F7279ED
:1013D0000A00554E4B4E4F574E20535441525455D0
:1013E00050202D200047524F554E44205354415217
:1013F00054202D2000414952205354415254202D55
:1014000020004750533A20256C642C2025642C2062
:1014100025642C2025342E37662C2025342E376663
:101420002C2025342E34662C2025342E34662C2096
:1014300025342E34662C2025342E34662C20253479
:101440002E34660A00414C5432505443485F0045E4
:101450004E524759325448525F00595732535256F0
:101460005F004152535032505443485F0050544340
:1014700048325352565F00524C4C325352565F0022
:1014800048444E4732524C4C5F005243385F005242
:1014900043375F005243365F005243355F0052438B
:1014A000345F005243335F005243325F0052433196
:1014B0005F00464C41505F325F5350454544004603
:1014C0004C41505F325F504552434E5400464C41B0
:1014D000505F315F535045454400464C41505F31A9
:1014E0005F504552434E540041525350445F454E65
:1014F00041424C4500534F4E41525F454E41424C94
:101500004500494E564552544544464C545F434865
:1015100000424154545F43415041434954590049AA
:101520004E5055545F564F4C545300414D505F50F0
:1015300045525F564F4C5400564F4C545F444956E9
:101540004944455200424154545F4D4F4E49544F17
:1015500052004D41475F454E41424C4500474E4485
:101560005F4142535F505245535300474E445F54CE
:10157000454D5000414C545F484F4C445F52544CD1
:10158000005452494D5F50495443485F434400540E
:1015900052494D5F41525350445F434D004C4F47B9
:1015A0005F4249544D41534B005359535F4E554D83
:1015B0005F52455345545300454C45564F4E5F438B
:1015C00048325F52455600454C45564F4E5F4348A2
:1015D000315F52455600454C45564F4E5F52455679
:1015E0004552534500454C45564F4E5F4D4958496D
:1015F0004E47005357495443485F454E41424C457E
:10160000005452494D5F4155544F004C494D5F5075
:10161000495443485F4D494E004C494D5F50495431
:1016200043485F4D4158004C494D5F524F4C4C5F11
:10163000434400464C544D4F44453600464C544DAF
:101640004F44453500464C544D4F44453400464CBC
:10165000544D4F44453300464C544D4F44453200A1
:10166000464C544D4F44453100464C544D4F444533
:101670005F43480046535F4743535F454E41424CEA
:101680000046535F4C4F4E475F4143544E00465314
:101690005F53484F52545F4143544E005452494D9A
:1016A0005F5448524F54544C45005448525F46537F
:1016B0005F56414C5545005448525F4641494C5392
:1016C000414645005448525F534C4557524154459A
:1016D000005448525F4D4158005448525F4D494EA6
:1016E00000414C545F484F4C445F464257434D00C5
:1016F00041525350445F4642575F4D41580041525A
:101700005350445F4642575F4D494E0057505F4C1F
:101710004F495445525F5241440057505F52414433
:1017200049555300434D445F494E44455800434D8D
:10173000445F544F54414C0041525350445F4F4614
:10174000465345540041525350445F524154494F0F
:1017500000414C545F4D4958005854524B5F414E24
:10176000474C455F4344005854524B5F4741494EF4
:101770005F5343004B46465F5448523250544348EF
:10178000004B46465F5054434832544852004B4643
:10179000465F524444524D4958004B46465F5054B0
:1017A0004348434F4D500053455249414C335F42EB
:1017B0004155440053595349445F4D5947435300E1
:1017C00053595349445F544849534D415600535966
:1017D0005349445F53575F54595045005359534937
:1017E000445F53575F4D52455600445A0052455688
:1017F000004D4158005452494D004D494E00414E54
:10180000474C455F4D415800414E474C455F4D495F
:101810004E0046554E4354494F4E00494D415800E5
:10182000440049005000494D555F53454E534F52B7
:101830005F43414C004C6F67206E756D626572208E
:1018400025642C20202020737461727420706167DD
:10185000652025642C202020656E642070616765FA
:101860002025640A000A2564206C6F677320617666
:1018700061696C61626C6520666F7220646F776E5F
:101880006C6F61640A000A4E6F206C6F6773206191
:101890007661696C61626C6520666F7220646F7737
:1018A0006E6C6F61640A004355520020255300435B
:1018B0004D44002025530052415700202553004D30
:1018C0004F444500202553004E54554E00202553CB
:1018D000004354554E0020255300504D0020255301
:1018E0000047505300202553004154544954554457
:1018F000455F4D45440020255300415454495455FB
:1019000044455F4641535400202553006E6F6E6579
:10191000006C6F677320656E61626C65643A2000CD
:1019200067707320616C743A20256C7500696E696C
:101930007420686F6D6500666C6967687420706CF0
:10194000616E2072656365697665640061637469C0
:101950006F6E2072656365697665643A20004E6F2C
:101960006E2D4E617620636F6D6D616E642049440B
:10197000207570646174656420746F20232569008C
:101980004E6F6E2D4E617620636F6D6D616E6420BB
:101990004944207570646174656420746F20232548
:1019A00069006F7574206F6620636F6D6D616E6482
:1019B0007321004E617620636F6D6D616E642069E6
:1019C0006E646578207570646174656420746F203E
:1019D0002325690052657475726E696E6720746F95
:1019E00020486F6D6500457865637574696E672082
:1019F000636F6D6D616E6420494420232569004545
:101A00007865637574696E6720636F6D6D616E6470
:101A10002049442023256900457865637574696E03
:101A20006720636F6D6D616E6420494420232569D2
:101A30000073657474696E6720636F6D6D616E64A9
:101A400020696E6465783A2025690073657474694D
:101A50006E6720636F6D6D616E6420696E6465787A
:101A60003A20256900496E206A756D702E20204A43
:101A7000756D7073206C6566743A20256900426547
:101A800067696E6E696E6720494D552063616C69A8
:101A900062726174696F6E3B20646F206E6F742098
:101AA0006D6F766520706C616E65005761726D694F
:101AB0006E67207570204144432E2E2E0044656DC4
:101AC0006F20536572766F73210052656365697686
:101AD00065642052657175657374202D206A756D7B
:101AE0007020746F20636F6D6D616E6420232569B3
:101AF000004261642052657175657374202D206306
:101B0000616E6E6F74206368616E676520746F200C
:101B10006E6F6E2D4E617620636D64004558545291
:101B200041330045585452413200455854524131D6
:101B300000504F534954494F4E005241575F435450
:101B4000524C0052435F4348414E004558545F5346
:101B5000544154005241575F53454E530053523342
:101B60005F005352305F00666C69676874206D6F68
:101B70006465203D202575004661696C736166656A
:101B8000202D2053686F7274206576656E74206F07
:101B90006E004661696C73616665202D2053686F25
:101BA0007274206576656E74206F6666003C6E61A7
:101BB0007669676174653E205750206572726F7256
:101BC000202D2064697374616E6365203C203000B1
:101BD0007665726966795F6E61763A20496E7661E4
:101BE0006C6964206F72206E6F2063757272656E0F
:101BF00074204E617620636D64004D697373656473
:101C000020575000526561636865642057617970A0
:101C10006F696E7420232569007665726966795F45
:101C20006E61763A204C4F49544552206F7262697A
:101C3000747320636F6D706C65746500766572698E
:101C400066795F6E61763A204C4F49544552207454
:101C5000696D6520636F6D706C65746500526561B8
:101C60006368656420686F6D650076657269667982
:101C70005F636F6E6469746F6E3A20496E76616C53
:101C80006964206F72206E6F2063757272656E7466
:101C900020436F6E646974696F6E20636D640046E3
:101CA00061696C73616665202D204C6F6E672065DD
:101CB00076656E74206F6E000A4D6F7665207468CD
:101CC0006520736C6964652073776974636820614B
:101CD0006E6420726573657420746F20464C592EB3
:101CE0000A000A456E746572696E6720696E7465D4
:101CF00072616374697665207365747570206D6FA9
:101D000064652E2E2E0A0A4966207573696E672057
:101D10007468652041726475696E6F2053657269DD
:101D2000616C204D6F6E69746F722C20656E7375D7
:101D30007265204C696E6520456E64696E67206926
:101D4000732073657420746F2043617272696167D8
:101D5000652052657475726E2E0A5479706520275D
:101D600068656C702720746F206C69737420636FD2
:101D70006D6D616E64732C202765786974272074FB
:101D80006F206C656176652061207375626D656E8C
:101D9000752E0A5669736974207468652027736507
:101DA00074757027206D656E7520666F7220666988
:101DB0007273742D74696D6520636F6E66696775E3
:101DC000726174696F6E2E0A00436F6D7061737378
:101DD00020696E697469616C69736174696F6E20E2
:101DE0006661696C656421007573696E672025758D
:101DF000206279746573206F66206D656D6F7279EE
:101E00002028257520726573657473290A006C6F2C
:101E100061645F616C6C20746F6F6B20256C7575ED
:101E2000730A00646F6E652E000A0A454550524FD2
:101E30004D20666F726D61742076657273696F6E86
:101E4000202564206E6F7420636F6D706174696209
:101E50006C6520776974682074686973206669729C
:101E60006D7761726520287265717569726573207E
:101E70002564290A0A466F7263696E6720636F6D75
:101E8000706C65746520706172616D657465722037
:101E900072657365742E2E2E000A454550524F4DC3
:101EA00020626C616E6B202D20726573657474699D
:101EB0006E6720616C6C20706172616D6574657213
:101EC0007320746F2064656661756C74732E2E2E9A
:101ED0000A000A0A496E69742041726475506C6187
:101EE0006E652056322E3235310A0A4672656520FB
:101EF00052414D3A2025750A00496E76616C69643D
:101F00002053455249414C335F42415544003C7394
:101F1000746172745F6E65775F6C6F673E204C6FA3
:101F200067732066756C6C202D206C6F6767696E17
:101F30006720646973636F6E74696E756564000A07
:101F40000A20526561647920746F20464C592E0036
:101F50003C737461727475705F67726F756E643E06
:101F6000204E4F206169727370656564003C737424
:101F700061727475705F67726F756E643E207A650A
:101F8000726F2061697273706565642063616C694A
:101F9000627261746564003C737461727475705F21
:101FA00067726F756E643E2047524F554E44205302
:101FB0005441525400253033753A25733A20006E4F
:101FC0006F7420666F756E6400253033753A252D69
:101FD00033322E3332733A2000756E6B6E6F776E2C
:101FE0002074797065006E6F7420666F756E640082
:101FF00025733A20006D697373696E67206E616D99
:1020000065206F722076616C7565003F3F00256426
:1020100000256400256C640025660025660065784F
:1020200069740068656C700044454300434F4D502F
:102030004153535F00245047434D442C31362C30DC
:102040002C302C302C302C302A36410D0A002450F4
:102050005542582C34312C312C303030332C303028
:1020600030312C33383430302C302A323600245082
:102070005352463130302C302C33383430302C38F9
:102080002C312C302A334300205369524620002043
:102090004D544B312E3620002075626C6F78200035
:1020A000204D544B312E3420006661696C65642CE0
:1020B000207265747279696E67004F4B0020002AA8
:1020C00000496E697420416363656C002A00496EA3
:1020D0006974204779726F006E616E00696E6600E8
:1020E00000407A10F35A00A0724E18090010A5D4CF
:1020F000E80000E87648170000E40B54020000CA2C
:102100009A3B000000E1F505000080969800000071
:1021100040420F000000A0860100000010270000D0
:102120000000E803000000006400000000000A0056
:10213000000000000100000000002C76D888DC6759
:102140004F0823DFC1DFAE59E1B1B796E5E3E453B1
:10215000C63AE651997696E8E6C28426EB898C9BCE
:1021600062ED407C6FFCEFBC9C9F40F2BAA56FA56E
:10217000F490055A2AF75C936B6CF9676DC11BFCF0
:10218000E0E40D47FEF520E6B500D0ED902E03000B
:10219000943577050080841E080000204E0A000058
:1021A00000C80C333333330F986E12831141EF8D17
:1021B0002114893BE65516CFFEE6DB18D1844B3857
:1021C0001BF77C1D901DA4BBE424203284725E2288
:1021D0008100C9F124ECA1E53D2700002100240085
:1021E00027002A002D003000330001010000040107
:1021F00007010A0100002200250028002B002E0004
:102200003100340002010000050108010B0100004B
:1022100020002300260029002C002F00320000019E
:102220000000030106010901050505050705080869
:102230000808020202020A0A080804040404010150
:102240000101010101010303030303030303040765
:1022500007070C0C0C0C0C0C0C0C020202020606FC
:102260000606060606060B0B0B0B0B0B0B0B0102EF
:102270001020200808102040102040800201020198
:102280000804020101020408102040808040201050
:1022900008040201800402018040201008040201A9
:1022A0000804020101020408102040800102040811
:1022B000102040800000090A02080B0C0D070603DD
:1022C0000401000000000000000000000000000009
:1022D00000000000000000000000000000000000FE
:1022E000100F0E00000000000000000000000000C1
:1022F00000000000000000000000494E46494E4921
:1023000054594E414ECDCCCC3D0AD7233C17B7D1C2
:102310003877CC2B329595E6241FB14F0A00002068
:10232000410000C84200401C4620BCBE4CCA1B0EE7
:102330005AAEC59D74008351C593299E7DD436E85D
:102340007C51229E11241FBECFEFD1E2DEBFCDBF54
:1023500015E0A0E0B2E0E2E3F3EF01E00BBF02C062
:1023600007900D92A431B107D9F717E1A4E1B5E0C8
:1023700001C01D92A135B107E1F713E2C0E4D3E239
:1023800004C02297FE010E9442F3C633D107C9F769
:102390000E94B1EA0C948CF90C940000283008F0EB
:1023A00027E03327DA01990F311D87FD91600096F0
:1023B0006105710539F432602E5F3D9330E32A9553
:1023C000E1F708959F3F30F080387105610509F00D
:1023D0003C5F3C5F3D93913008F08068911DDF9336
:1023E000CF931F930F93FF92EF92192F987F96959B
:1023F000E92F96959695E90FFF27E65CFE4D992704
:102400003327EE24FF24A701E701059008940794E1
:1024100028F4360FE71EF81E491F511D660F771F5F
:10242000881F991F0694A1F70590079428F4E70EDA
:10243000F81E491F561FC11D770F881F991F661F61
:102440000694A1F70590079428F4F80E491F561F2B
:10245000C71FD11D880F991F661F771F0694A1F70C
:102460000590079420F4490F561FC71FD81F990FD6
:10247000661F771F881F0694A9F78491109517701F
:1024800041F0D695C79557954795F794E7941A95D7
:10249000C1F7E0EEF0E268941590159135916591E1
:1024A000959105907FE27395E118F10A430B560B65
:1024B000C90BD009C0F7E10CF11E431F561FC91FFD
:1024C000D01D7EF4703311F48A95E6CFE894015064
:1024D00030F0080F0AF40027021708F4202F239584
:1024E000022F7A3328F079E37D932A95E9F710C01B
:1024F0007D932A9589F60694979567953795179554
:102500001794E118F10A430B560BC90BD00998F048
:1025100023957E9173957A3308F070E37C932013B2
:10252000B8F77E9170617D9330F0839571E37D9370
:1025300070E32A95E1F71124EF90FF900F911F911E
:10254000CF91DF91992787FD90950895FA01AA27E9
:10255000283051F1203181F1E8946F936E7F6E5FE6
:102560007F4F8F4F9F4FAF4FB1E03ED0B4E03CD094
:10257000670F781F891F9A1FA11D680F791F8A1F77
:10258000911DA11D6A0F711D811D911DA11D20D0DE
:1025900009F468943F912AE0269F11243019305D98
:1025A0003193DEF6CF010895462F4770405D419389
:1025B000B3E00FD0C9F7F6CF462F4F70405D4A33D6
:1025C00018F0495D31FD4052419302D0A9F7EACF9E
:1025D000B4E0A6959795879577956795BA95C9F7CD
:1025E00000976105710508959B01AC010A2E0694C0
:1025F0005795479537952795BA95C9F7620F731F79
:10260000841F951FA01D0895CF93DF93FC01EB015C
:102610004230510570F0638574858585968520E08C
:1026200030E040E854E40E94BFF10E9407F0798353
:10263000688382E090E0DF91CF910895CF93DF939C
:10264000EC01FB014230510518F420E030E012C0EB
:102650006081718180E090E00E9433F020E030E002
:1026600040E85AE30E94BFF16B877C878D879E8785
:1026700022E030E0C901DF91CF910895DC01FB0138
:1026800083818C93828111968C931197818112960C
:102690008C931297808113968C930895DC01FB0133
:1026A00087818C93868111968C93119785811296E0
:1026B0008C931297848113968C931397838114962D
:1026C0008C931497828115968C9315978181169619
:1026D0008C931697808117968C9308951F920F9272
:1026E0000FB60F920BB60F9211242F933F934F9377
:1026F0008F939F93EF93FF934091C60020913C15D9
:1027000030913D152F5F3F4F8091401590914115BD
:102710002823392380913E1590913F1528173907BA
:1027200079F080913C1590913D15E0914215F09122
:102730004315E80FF91F408330933D1520933C1556
:10274000FF91EF919F918F914F913F912F910F901A
:102750000BBE0F900FBE0F901F9018951F920F92F7
:102760000FB60F920BB60F9211242F933F938F93B6
:102770009F93EF93FF9320915E1530915F158091A9
:102780005C1590915D1528173907E9F080915E1569
:1027900090915F15E0916215F0916315E80FF91FB4
:1027A00080818093C60080915E1590915F1501969F
:1027B00020916015309161158223932390935F15CA
:1027C00080935E1510C020915C1530915D1580914D
:1027D0005E1590915F152817390729F48091C10083
:1027E0008F7D8093C100FF91EF919F918F913F91D9
:1027F0002F910F900BBE0F900FBE0F901F9018954A
:102800001F920F920FB60F920BB60F9211242F93B7
:102810003F934F938F939F93EF93FF934091CE00FD
:1028200020914415309145152F5F3F4F80914815F9
:102830009091491528233923809146159091471589
:102840002817390779F08091441590914515E0914A
:102850004A15F0914B15E80FF91F40833093451549
:1028600020934415FF91EF919F918F914F913F914C
:102870002F910F900BBE0F900FBE0F901F901895C9
:102880001F920F920FB60F920BB60F9211242F9337
:102890003F938F939F93EF93FF9320916615309111
:1028A0006715809164159091651528173907E9F02F
:1028B0008091661590916715E0916A15F0916B15FE
:1028C000E80FF91F80818093CE008091661590916A
:1028D000671501962091681530916915822393231D
:1028E000909367158093661510C020916415309100
:1028F000651580916615909167152817390729F499
:102900008091C9008F7D8093C900FF91EF919F91C5
:102910008F913F912F910F900BBE0F900FBE0F9094
:102920001F9018951F920F920FB60F920BB60F9231
:1029300011242F933F934F938F939F93EF93FF9384
:102940004091360120915415309155152F5F3F4F1E
:102950008091581590915915282339238091561547
:10296000909157152817390779F080915415909157
:102970005515E0915A15F0915B15E80FF91F40834A
:102980003093551520935415FF91EF919F918F919E
:102990004F913F912F910F900BBE0F900FBE0F9054
:1029A0001F9018951F920F920FB60F920BB60F92B1
:1029B00011242F933F938F939F93EF93FF93209135
:1029C00076153091771580917415909175152817AB
:1029D0003907E9F08091761590917715E0917A1595
:1029E000F0917B15E80FF91F80818093360180916B
:1029F000761590917715019620917815309179157B
:102A000082239323909377158093761510C020919D
:102A1000741530917515809176159091771528175A
:102A2000390729F4809131018F7D80933101FF9125
:102A3000EF919F918F913F912F910F900BBE0F902F
:102A40000FBE0F901F901895FC017183608385E085
:102A50006431780739F470937E1560937D15138681
:102A6000128608C07093801560937F1581E090E016
:102A70009387828713821282089580914D03882361
:102A800029F48091B70A813009F046C080912D1356
:102A900090912E13A0912F13B09130132091DF0548
:102AA0003091E0054091E1055091E205821B930BC6
:102AB000A40BB50B80931E1490931F14A0932014A5
:102AC000B093211480911E1490911F14A091201492
:102AD000B0912114813526E4920720E0A20720E07E
:102AE000B2072CF0805A9C48A040B0400CC0803BFC
:102AF00029EB92072FEFA2072FEFB20724F480569D
:102B00009347AF4FBF4F80931E1490931F14A09311
:102B10002014B09321140895E0915612F0915712A9
:102B200080912D1390912E13A0912F13B0913013FB
:102B3000248D358D468D578DB9CF20916A0B3091FC
:102B40006B0B80918C0B90918D0B281B390B2536CC
:102B500031051CF08AE0809378132C593F4F1CF408
:102B600086EF809378138091781318161CF48150A7
:102B7000809378138091781387FF03C08F5F8093D1
:102B8000781380917813813019F08F3F09F080E03D
:102B90000895CF93DF93FC01EB014430510540F0E1
:102BA00083859485A585B68588839983AA83BB830D
:102BB00084E090E0DF91CF910895CF93DF93EC0113
:102BC000FB014430510540F080819181A281B381A5
:102BD0008B879C87AD87BE8784E090E0DF91CF91A3
:102BE0000895FC0163857485858596850E9435F07E
:102BF0000895FC01DB01452B11F083858C9381E066
:102C000090E00895DC01FB01452B19F080811B96B3
:102C10008C9381E090E00895FC016385772767FD40
:102C20007095872F972F0E9435F00895FC01DB01E6
:102C30004230510520F0838594858D939C9382E0EA
:102C400090E00895DC01FB014230510530F08081B5
:102C500091811C969C938E931B9782E090E008953F
:102C6000FC0163857485882777FD8095982F0E94E5
:102C700035F00895FC012385348545855685B901D5
:102C8000CA010895CF93DF93FC01EB014430510555
:102C900040F083859485A585B68588839983AA832A
:102CA000BB8384E090E0DF91CF910895CF93DF93D1
:102CB000EC01FB014430510540F080819181A281FB
:102CC000B3818B879C87AD87BE8784E090E0DF91DE
:102CD000CF91089500D000D084E195E0EDB7FEB724
:102CE000928381838CEB95E0948383830E94BED78B
:102CF0000F900F900F900F90089524E135E08823F6
:102D000049F000D000D0EDB7FEB7328321838BE6C7
:102D100096E008C000D000D0EDB7FEB73283218323
:102D200087E696E0948383830E94BED784E195E092
:102D3000EDB7FEB79283818380E696E09483838328
:102D40000E94BED70F900F900F900F90089500D063
:102D500000D084E195E0EDB7FEB79283818388EDE2
:102D60009AE0948383830E94BED70F900F900F90B8
:102D70000F9080E008950F931F938DB79EB70A9729
:102D80000FB6F8949EBF0FBE8DBFEDB7FEB731965C
:102D900004E115E0ADB7BEB712961C930E931197E0
:102DA00088E49DE09383828380917F0B9091800BD8
:102DB0009583848380918C0B90918D0B9783868370
:102DC0008091990B90919A0B918780870E94BED732
:102DD000EDB7FEB73196ADB7BEB712961C930E9302
:102DE000119785E39DE0938382838091DE0B909120
:102DF000DF0B958384838091EB0B9091EC0B978391
:102E000086838091F80B9091F90B918780870E94BF
:102E1000BED7EDB7FEB73196ADB7BEB712961C93CD
:102E20000E93119782E29DE09383828380913D0C03
:102E300090913E0C9583848380914A0C90914B0C29
:102E4000978386838091570C9091580C9187808747
:102E50000E94BED7EDB7FEB73196ADB7BEB712969A
:102E60001C930E9311978FE09DE093838283809152
:102E70009C0C90919D0C958384838091A90C9091DA
:102E8000AA0C978386838091B60C9091B70C91879A
:102E900080870E94BED7EDB7FEB73196ADB7BEB7FB
:102EA00012961C930E9311978CEF9CE09383828370
:102EB0008091FB0C9091FC0C958384838091080D8C
:102EC0009091090D978386838091150D9091160D31
:102ED000918780870E94BED7EDB7FEB73196ADB718
:102EE000BEB712961C930E93119789EE9CE09383C4
:102EF00082838091800D9091810D95838483809150
:102F00008D0D90918E0D9783868380919A0D90916F
:102F10009B0D918780870E94BED7EDB7FEB7319693
:102F2000ADB7BEB712961C930E93119786ED9CE039
:102F3000938382838091050E9091060E95838483FE
:102F40008091120E9091130E9783868380911F0EAD
:102F50009091200E918780870E94BED7EDB7FEB773
:102F60003196ADB7BEB712961C930E93119783ECB2
:102F70009CE09383828380918A0E90918B0E95833F
:102F800084838091970E9091980E97838683809189
:102F9000A40E9091A50E918780870E94BED78DB711
:102FA0009EB70A960FB6F8949EBF0FBE8DBF1F91B5
:102FB0000F910895CF93DF93FC018DB79EB744978F
:102FC0000FB6F8949EBF0FBE8DBF2DB73EB72F5FD3
:102FD0003F4F84E195E0ADB7BEB712969C938E93B8
:102FE00011978DE49EE0E9019B838A838689978906
:102FF000A08DB18D8C839D83AE83BF8385A196A167
:10300000A7A1B0A588879987AA87BB8784A995A916
:10301000A6A9B7A98C879D87AE87BF87ED5BFF4FB9
:1030200080819181AA2797FDA095BA2FF901808B05
:10303000918BA28BB38B0E94BED78DB79EB744965F
:103040000FB6F8949EBF0FBE8DBFDF91CF9108954C
:103050008DB79EB740970FB6F8949EBF0FBE8DBF39
:10306000EDB7FEB7319684E195E0ADB7BEB71296E5
:103070009C938E93119789E09FE093838283809144
:10308000BF059091C005A091C105B091C205848390
:103090009583A683B7838091C3059091C405A091C1
:1030A000C505B091C60580879187A287B3878091B7
:1030B000C7059091C805A091C905B091CA0584873C
:1030C0009587A687B7870E94BED78DB79EB74096D3
:1030D0000FB6F8949EBF0FBE8DBF08958DB79EB7F3
:1030E00040970FB6F8949EBF0FBE8DBFEDB7FEB7E9
:1030F000319684E195E0ADB7BEB712969C938E935E
:1031000011978CE29FE0938382838091CB0590910D
:10311000CC05A091CD05B091CE0584839583A6837F
:10312000B7838091CF059091D005A091D105B09142
:10313000D20580879187A287B3878091D30590912C
:10314000D405A091D505B091D60584879587A6872B
:10315000B7870E94BED78DB79EB740960FB6F8943A
:103160009EBF0FBE8DBF089500D000D084E195E0D2
:10317000EDB7FEB7928381838CEE9FE094838383C7
:103180000E94BED70F900F900F900F90089500D01F
:1031900000D084E195E0EDB7FEB79283818386EE9F
:1031A00090E1948383830E94BED70F900F900F907D
:1031B0000F9080E008956091970961508EE494E14A
:1031C0000E9467939C018F5C94408238910510F4B3
:1031D00081E00895C901815595408238910510F428
:1031E00082E00895C901835D95408238910510F40D
:1031F00083E00895C901855596408138910510F402
:1032000084E00895265D364010F480E0089585E05E
:103210000895A3E0B0E0EFE0F9E10C9419F32091F8
:103220009803298323E02A8322E02B8360E0AE0108
:103230004F5F5F4F23E00E9496DE2396E2E00C94FE
:1032400035F36F927F928F929F92AF92BF92CF92FF
:10325000DF920F931F93DF93CF93CDB7DEB76B97BA
:103260000FB6F894DEBF0FBECDBF3C014B0180917D
:103270003003E82FF0E0E131F10530F4EE58FF4F74
:103280000C9440F312E001C010E004E015C015E01A
:10329000FCCF16E001E010C016E002E00DC013E024
:1032A000F4CF14E003E008C014E005E005C014E02A
:1032B00008E002C010E000E06091090B70910A0B79
:1032C000882777FD8095982F0E9435F06C8B7D8B39
:1032D0008E8B9F8B209180123091811240918212AF
:1032E000509183120E94B5EE20E030E04AE754E4AA
:1032F0000E94BFF12C893D894E895F890E949AEF17
:103300000E9407F05B016C01609131037091320300
:10331000809133039091340320E030E04AE754E495
:103320000E94BFF10E9407F0688F798F8A8F9B8F70
:1033300060911213709113138091141390911513CF
:1033400020E030E04AE754E40E94BFF10E9407F019
:103350007A836983888D998D9C838B83BE82AD82AD
:1033600098868F8219870A8784E08B878A818C8769
:1033700089818D878C818E878B818F878E81888BC9
:103380008D81898B88858A8B8F818B8BC30162E2CB
:10339000AE01475F5F4F2BE00E9496DE6B960FB643
:1033A000F894DEBF0FBECDBFCF91DF911F910F917B
:1033B000DF90CF90BF90AF909F908F907F906F9055
:1033C0000895A2E5B0E0E7EEF9E10C9409F3639605
:1033D0009FAF8EAF6397DE019596E8E0F6E084E25A
:1033E00001900D928150E1F72DA03EA04FA058A46E
:1033F00089A99AA9ABA9BCA961968CAF9DAFAEAFC4
:10340000BFAF6197FE01FD9680819181A281B3815A
:103410002D968CAF9DAFAEAFBFAF2D970E941EED26
:1034200060902113709022138090231390902413A6
:103430000091561210915712D80154966D917D91BA
:103440008D919C9157972AE030E040E050E00E9437
:1034500086F25B016C01F801608D718D828D938D18
:103460000E9435F07B018C0180911D1390911E13F9
:10347000A0911F13B09120138F87988BA98BBA8BC3
:103480006B867C868D869E86AF82B886C986DA86F4
:10349000C801B701A20191010E94BFF10E9402F090
:1034A0007E836D83C801B70161962CAD3DAD4EADF5
:1034B0005FAD61970E94BFF10E9402F07C836B8335
:1034C000C801B7012D962CAD3DAD4EAD5FAD2D972A
:1034D0000E94BFF10E9402F07A8369838E010D5E23
:1034E0001F4FC801BE01615F7F4F0E943E13CE0196
:1034F0004796BE01655F7F4F0E943E13CE014B96FB
:10350000BE01695F7F4F0E943E138E818F8F8D8138
:1035100088A38C8189A38B818AA38A818BA38981CB
:103520008CA363968EAD9FAD639769E4A80122E1F9
:103530000E9496DECE5ADF4FE2E10C9425F3AEE313
:10354000B0E0E5EAFAE10C9409F39AAF89AF609133
:10355000291370912A1380912B1390912C130E94A0
:1035600035F020E030E048EC52E40E949AEF5B0135
:103570006C0160912D1370912E1380912F139091F7
:1035800030130E9435F020E030E048EC52E40E9415
:103590009AEF0E9402F06BAF7CAF8DAF9EAF60914F
:1035A00031137091321380913313909134130E9430
:1035B00035F020E030E048EC52E40E949AEF0E949F
:1035C00002F03B014C0180903513909036136091CE
:1035D000391370913A1380913B1390913C130E94E0
:1035E00035F020E030E048EC52E40E949AEF7B0195
:1035F0008C0120903D1330903E1340903F1350902B
:1036000040138091411390914213A0914313B091C4
:1036100044138DAB9EABAFABB8AF609125137091E7
:10362000261380912713909128130E9435F020E0F3
:1036300030E048EC52E40E949AEF6F8378878987E4
:103640009A87C501D6018B879C87AD87BE87ABADB6
:10365000BCADBA83A9837C826B829E828D82C701B6
:10366000D8018F87988BA98BBA8B2B8A3C8A4D8A7D
:103670005E8A8DA99EA9AFA9B8AD8F8B988FA98FAF
:10368000BA8F8E01055E1F4FC801BE01695F7F4F73
:103690000E943E13CE014F96BE01655F7F4F0E9490
:1036A0003E138A818BA389818CA38C818DA38B810E
:1036B0008EA38E818FA38D8188A7CE018996BE01AE
:1036C000615F7F4F0E943E13CE018D96BE016D5EFD
:1036D0007F4F0E943E13CE01C196BE01695E7F4FAF
:1036E0000E943E1389AD9AAD6EE3A8012AE10E94C3
:1036F00096DEEE96E2E10C9425F3A1E2B0E0E3E879
:10370000FBE10C9413F36C010E941EED2091C90B98
:103710003091CA0B4091280C5091290C6091870C74
:103720007091880CE091E60CF091E70CA0916B0D84
:10373000B0916C0D0091F00D1091F10DE090750EAF
:10374000F090760E80916A0B90916B0B988B8F871F
:103750003E872D875C874B877A876987F887EF8359
:10376000BE83AD831C830B83FA82E9828889898BAF
:103770008F858A8B8E858B8B8D858C8B8C858D8BA5
:103780008B858E8B8A858F8B8985888F8885898F9D
:103790008F818A8F8E818B8F8D818C8F8C818D8F85
:1037A0008B818E8F8A818F8F898188A381E089A305
:1037B000C60163E2AE014F5E5F4F21E10E9496DEDB
:1037C000A196E8E00C942FF3A8E2B0E0EAEEFBE16A
:1037D0000C9409F31C01E0915612F0915712608D80
:1037E000718D828D938D0E9435F020E030E048ECA1
:1037F00052E40E949AEF5B016C016091DF057091C9
:10380000E0058091E1059091E20524E630E040E09A
:1038100050E00E94EEF2CA01B90128E631E040E032
:1038200050E00E94EEF23B014C0140902C0C509075
:103830002D0C6091191370911A1380911B139091A4
:103840001C130E9435F020E030E048EC52E40E9466
:103850009AEF7B018C016091451370914613882784
:1038600077FD8095982F0E9435F020E030E048ECFD
:1038700052E40E949AEF6D837E838F839887C501FF
:10388000D60189879A87AB87BC877A8269825C82F6
:103890004B82C701D8018D879E87AF87B88B80E0A8
:1038A00090E0A0E0B0E0898B9A8BAB8BBC8B8E0153
:1038B0000B5E1F4FC801BE016B5F7F4F0E943E131E
:1038C000CE014996BE01675F7F4F0E943E138A81F9
:1038D0008D8F89818E8F8C818F8F8B8188A3CE0174
:1038E0008196BE01635F7F4F0E943E13CE01859695
:1038F000BE016F5E7F4F0E943E13C1016AE4A801C2
:1039000024E10E9496DEA896E2E10C9425F3A4E05F
:10391000B0E0EDE8FCE10C9419F32091E1083327C5
:1039200027FD30953A8329832A812B8329812C8393
:103930006AE2AE014D5F5F4F22E00E9496DE249660
:10394000E2E00C9435F3A6E0B0E0E9EAFCE10C9487
:1039500019F3FC0186898823E9F047855089809115
:10396000D508992787FD90958417950798F082854B
:103970009385218933895A8349832B833C832A8108
:103980002D8329812E8368E2AE014D5F5F4F24E0D5
:103990000E9496DE2696E2E00C9435F3A8E0B0E0B3
:1039A000E4EDFCE10C9415F37C0100914B171091B0
:1039B0004C170E9492E71A8309839C838B838A8128
:1039C0008D8389818E838C818F838B818887C701CA
:1039D00068E9AE014B5F5F4F24E00E9496DE2896B7
:1039E000E6E00C9431F3AAE4B0E0E9EFFCE10C94DA
:1039F00009F32B969FAF8EAF2B9780916406909121
:103A00006506A0916606B091670629968CAF9DAFBA
:103A1000AEAFBFAF29978091600690916106A091EB
:103A20006206B091630625968CAF9DAFAEAFBFAF77
:103A3000259720905C0630905D0640905E06509081
:103A40005F060E942CED9B01AC01E090E305F09035
:103A5000E4050091E5051091E605A090E705B0901A
:103A6000E805C090E905D090EA056090EB057090FC
:103A7000EC058090ED059090EE05698F3A8F4B8FA5
:103A80005C8F1D8E1E8E1F8E18A2E982FA820B8318
:103A90001C83AD82BE82CF82D88669867A868B8669
:103AA0009C862D863E864F86588A25968CAD9DAD88
:103AB000AEADBFAD2597898B9A8BAB8BBC8B29960E
:103AC0008CAD9DADAEADBFAD29978D8B9E8BAF8B71
:103AD000B88F8E010F5D1F4FC801BE01675E7F4F1B
:103AE0000E944E13CE018996BE016F5F7F4F0E94E8
:103AF0003E13CE018D96BE016B5F7F4F0E943E1339
:103B0000CE01C196BE01675F7F4F0E943E13CE017A
:103B1000C596BE01635F7F4F0E943E13CE01C996DA
:103B2000BE016F5E7F4F0E943E13CE01CD96BE0157
:103B30006B5E7F4F0E943E132B968EAD9FAD2B97F1
:103B40006EE1A80120E20E9496DEC65BDF4FE2E153
:103B50000C9425F3A6E5B0E0E0EBFDE10C9409F34D
:103B60001C010E942CED5B016C018090561290901C
:103B70005712F401F7A92B96FFAF2B97F401648538
:103B80007585868597850E9435F020E836E948E1FD
:103B90005BE40E949AEF2B013C01F401608971897A
:103BA000828993890E9435F020E836E948E15BE498
:103BB0000E949AEF2F966CAF7DAF8EAF9FAF2F977D
:103BC000F40164897589868997890E9435F020E01F
:103BD00030E048EC52E40E949AEF63966CAF7DAF00
:103BE0008EAF9FAF6397F40164A175A1882777FD1D
:103BF0008095982F0E9435F06D877E878F87988BF0
:103C0000F401608D718D828D938D0E9435F020E0DE
:103C100030E048EC52E40E949AEF67966CAF7DAFBB
:103C20008EAF9FAF6797F401648D758D868D978DEC
:103C30000E9435F020E030E048EC52E40E949AEF18
:103C4000EE24FF248701AD8EBE8ECF8ED8A219A29E
:103C50001AA21BA21CA29201A30129833A834B83BF
:103C60005C832C96EFAD2C972D96FFAD2D972E965D
:103C7000AFAD2E972F96BFAD2F979F01AD012D832E
:103C80003E834F8358876096EFAD60976196FFAD96
:103C900061976296AFAD62976396BFAD63979F01E0
:103CA000AD0129873A874B875C8720E030E040E010
:103CB00050E0298B3A8B4B8B5C8B6496EFAD64970D
:103CC0006596FFAD65976696AFAD66976796BFAD93
:103CD00067979F01AD012D8B3E8B4F8B588FAC01A9
:103CE000CB01DA01898F9A8FAB8FBC8F8E010B5D70
:103CF0001F4FC801BE01635E7F4F0E944E132B967B
:103D0000FFAD2B97FDA7CE018E96BE016F5F7F4F53
:103D10000E943E13CE01C296BE016B5F7F4F0E9490
:103D20003E13CE01C696BE01675F7F4F0E943E13D1
:103D3000CE01CA96BE01635F7F4F0E943E13CE0143
:103D4000CE96BE016F5E7F4F0E943E13C8014D9616
:103D5000BE016B5E7F4F0E943E13C8018196BE017B
:103D6000675E7F4F0E943E13C10160E2A80125E219
:103D70000E9496DECA5ADF4FE2E10C9425F3A0E2DE
:103D8000B0E0E5ECFEE10C9413F36C010E942CED25
:103D90002091D10B3091D20B4091300C5091310CCD
:103DA00060918F0C7091900CE091EE0CF091EF0C03
:103DB000A091730DB091740D0091F80D1091F90D53
:103DC000E0907D0EF0907E0E8091720B9091730BBF
:103DD000988B8F873E872D875C874B877A8769878B
:103DE000F887EF83BE83AD831C830B83FA82E9825D
:103DF0008889898B8F858A8B8E858B8B8D858C8B23
:103E00008C858D8B8B858E8B8A858F8B8985888F12
:103E10008885898F8F818A8F8E818B8F8D818C8F02
:103E20008C818D8F8B818E8F8A818F8F898188A3E2
:103E3000C60165E2AE014F5E5F4F20E10E9496DE53
:103E4000A096E8E00C942FF3A4E4B0E0EAE2FFE1EE
:103E50000C9409F325969FAF8EAF2597609092053D
:103E6000709093058090940590909505A0908E0594
:103E7000B0908F05C0909005D0909105E0908A0594
:103E8000F0908B0500918C0510918D058091AA050D
:103E90009091AB05A091AC05B091AD0589AF9AAFFB
:103EA000ABAFBCAF8091A6059091A705A091A805E6
:103EB000B091A9058DAB9EABAFABB8AF2090A2057A
:103EC0003090A3054090A4055090A5050E942CEDCC
:103ED0009B01AC01A091A311B091A4112396BFAF97
:103EE000AEAF23978091A5119091A61121969FAF17
:103EF0008EAF2197A091A711B091A811BEAFADAF21
:103F00002B8B3C8B4D8B5E8B1F8A188E198E1A8ED5
:103F1000C801B70120E030E04AE754E40E94BFF155
:103F200023EC35EF4CE151E40E949AEF0E9402F03D
:103F30007A836983C601B50120E030E04AE754E4A2
:103F40000E94BFF123EC35EF4CE151E40E949AEF5F
:103F50000E9402F07C836B83C401B30120E030E057
:103F60004AE754E40E94BFF123EC35EF4CE151E401
:103F70000E949AEF0E9402F07E836D83C201B1011C
:103F800020E030E04AE754E40E94BFF10E9402F0D2
:103F900078876F836DA97EA98FA998AD20E030E066
:103FA0004AE754E40E94BFF10E9402F07A876987D1
:103FB00069AD7AAD8BAD9CAD20E030E04AE754E4CA
:103FC0000E94BFF10E9402F07C876B8723968EAD22
:103FD0009FAD23979E878D872196AEADBFAD21976C
:103FE000B88BAF878DAD9EAD9A8B898B8E01055EA8
:103FF0001F4FC801BE016D5E7F4F0E944E138A8124
:104000008BA389818CA38C818DA38B818EA38E81C0
:104010008FA38D8188A7888589A78F818AA78A85A4
:104020008BA789858CA78C858DA78B858EA78E8580
:104030008FA78D8588AB888989AB8F858AAB8A8964
:104040008BAB89898CAB25968EAD9FAD25976CE1A6
:10405000A8012AE10E9496DECC5BDF4FE2E10C94DE
:1040600025F3A8E2B0E0E7E3F0E20C9409F31C01C9
:104070000E942CED5B016C0120917511309176113D
:1040800040917711509178112DA33EA34FA358A7CB
:104090008091A80A9091A90AA091AA0AB091AB0AAE
:1040A000281B390B4A0B5B0BCA01B9010E9435F082
:1040B00020E030E048EC52E40E949AEF3B014C01D2
:1040C000E3E7F1E1808191812C0133E0440C551C40
:1040D0003A95E1F7880F991F480E591EEE24FF24E8
:1040E0008701AB86BC86CD86DE861F86188A198A34
:1040F0001A8A6DA17EA18FA198A50E9435F020E0BB
:1041000030E048EC52E40E949AEF6B837C838D830D
:104110009E83C301D4018F839887A987BA87498278
:104120005A828E010D5E1F4FC801BE01655F7F4F31
:104130000E944E13CE014B96BE016D5F7F4F0E94D1
:104140003E13CE014F96BE01695F7F4F0E943E1322
:104150008A818BA389818CA3C10166E2A80122E137
:104160000E9496DEA896E2E10C9425F3A3E2B0E06B
:10417000ECEBF0E20C9409F39BA38AA30E941EEDE2
:104180008FE59BE00E9410E77B018C018EEB9BE0AA
:104190000E9410E75B016C018DE19CE00E9410E73A
:1041A0003B014C018CE79CE00E9410E71B012C01B5
:1041B000C801B70120E030E44CE156E40E94BFF1B1
:1041C0000E9402F0788B6F87C601B50120E030E4D1
:1041D0004CE156E40E94BFF10E9402F07E876D8799
:1041E000C401B30120E030E44CE156E40E94BFF189
:1041F0000E9402F07C876B87C201B10120E030E4AD
:104200004CE156E40E94BFF10E9402F07A87698770
:1042100018861F821E821D821C821B821A821982AE
:104220008889898B8F858A8B8E858B8B8D858C8BEE
:104230008C858D8B8B858E8B8A858F8B8985888FDE
:104240008885898F8F818A8F8E818B8F8D818C8FCE
:104250008C818D8F8B818E8F8A818F8F898188A3AE
:1042600081E089A38AA19BA164E2AE014F5E5F4F0A
:1042700021E10E9496DEA396E2E10C9425F3AEE6DE
:10428000B0E0E5E4F1E20C9409F3A3969FAF8EAFA2
:10429000A3974FE9E42E41E1F42EC7010E9474A8D0
:1042A0008C01DC016D917D918D919C910E9402F0B9
:1042B000A7966CAF7DAF8EAF9FAFA797F8016481D3
:1042C0007581868197810E9402F0AB966CAF7DAFBD
:1042D0008EAF9FAFAB97D80118966D917D918D9160
:1042E0009C911B970E9402F0AF966CAF7DAF8EAF92
:1042F0009FAFAF97C7010E9479A86F83788789879E
:104300009A872091671130916811409169115091FD
:104310006A11E0906F11F09070110091711110917D
:104320007211A090BF05B090C005C090C105D0909B
:10433000C2056090C3057090C4058090C50590903B
:10434000C6052090C7053090C8054090C90550901B
:10435000CA058091CB059091CC05A091CD05B09177
:10436000CE05A1968CAF9DAFAEAFBFAFA1978091A8
:10437000CF059091D005A091D105B091D2056D9651
:104380008CAF9DAFAEAFBFAF6D978091D3059091CD
:10439000D405A091D505B091D60569968CAF9DAF97
:1043A000AEAFBFAF6997A596AEADBFADA597BA83C7
:1043B000A983A996EEADFFADA997FC83EB83AD96DB
:1043C0008EAD9FADAD979E838D832B873C874D87A8
:1043D0005E87EF86F88A098B1A8BAB8ABC8ACD8AF6
:1043E000DE8A6F8A788E898E9A8E2B8E3C8E4D8EC9
:1043F0005E8EA1968CAD9DADAEADBFADA1978F8FFA
:1044000098A3A9A3BAA36D968CAD9DADAEADBFAD7B
:104410006D978BA39CA3ADA3BEA369968CAD9DADF8
:10442000AEADBFAD69978FA398A7A9A7BAA78A8198
:104430008BA789818CA78C818DA78B818EA78E817C
:104440008FA78D8188AB8E01055D1F4FCE01C19670
:10445000BE01695F7F4F0E943E13CE01C596BE012B
:10446000655F7F4F0E943E13CE01C996BE01615F1A
:104470007F4F0E943E13CE01CD96BE016D5E7F4FF1
:104480000E943E13C8014696BE01695E7F4F0E949E
:104490003E13C8014A96BE01655E7F4F0E943E13DF
:1044A000C8014E96BE01615E7F4F0E943E13C80157
:1044B0008296BE016D5D7F4F0E943E13C8018696B5
:1044C000BE01695D7F4F0E943E13A3968EAD9FADE6
:1044D000A39766E9A8012AE20E9496DEC259DF4F3F
:1044E000E2E10C9425F3FC01E60FF11D41155105A5
:1044F00041F4CF0160E070E0422F50E00E94F1F4FF
:104500000895CF01BA01422F50E00E94E8F40895C7
:10451000A5E6B0E0EEE8F2E20C9415F37C01E09140
:104520005612F091571286A189838E010F5F1F4F9B
:10453000C80161E040E050E024E10E947322C8011C
:1045400065E140E050E024E10E947322C80169E285
:1045500040E050E024E10E947322C8016DE340E096
:1045600050E024E10E947322C80161E540E050E080
:1045700024E10E947322C7016BE1A80125E60E9495
:1045800096DECB59DF4FE6E00C9431F3A3E3B0E0C5
:10459000ECECF2E20C9415F37C0169838E010F5F61
:1045A0001F4FC80161E022E30E947322C7016EEF32
:1045B000A80123E30E9496DEE396E6E00C9431F333
:1045C00060918F1240E952E10E94C6220895AFE146
:1045D000B0E0EDEEF2E20C940FF34C015B012D83A1
:1045E0003E834F835887FA82E982DC82CB828E0138
:1045F000075F1F4FCE014896BE016B5F7F4F0E9441
:104600003E138A818C8F89818D8F8C818E8F8B81D7
:104610008F8FC80160E0A5012FE00E947322C401C2
:1046200066E1A80127E10E9496DE6F96ECE00C940B
:104630002BF34831510540F0DC011B96FB0188E16A
:1046400001900D928150E1F788E190E00895FC011E
:104650004831510538F0DB013B9688E101900D921D
:104660008150E1F788E190E008954C30510540F029
:10467000DC011B96FB018CE001900D928150E1F76B
:104680008CE090E00895FC014C30510538F0DB01DE
:104690003B968CE001900D928150E1F78CE090E028
:1046A00008954432510540F0DC011B96FB0184E281
:1046B00001900D928150E1F784E290E00895FC01B1
:1046C0004432510538F0DB013B9684E201900D92B3
:1046D0008150E1F784E290E00895EF92FF920F930A
:1046E0001F9380E00E94A2ECAA2797FDA095BA2F05
:1046F000BC01CD010E9435F07B018C016091FA0A6A
:104700007091FB0A8091FC0A9091FD0A20E030E054
:1047100040E85AE30E94BFF19B01AC01C801B70118
:104720000E94BFF12091DC0A3091DD0A4091DE0A3F
:104730005091DF0A0E94BFF12DEC3CEC4CEC5DE3A4
:104740000E94BFF17B018C0160913D0370913E039B
:1047500080913F039091400326E636E646E65FE30C
:104760000E94BFF19B01AC01C801B7010E94B6EEE7
:1047700060933D0370933E0380933F039093400307
:1047800081E00E94A2ECAA2797FDA095BA2FBC0158
:10479000CD010E9435F07B018C016091FA0A709185
:1047A000FB0A8091FC0A9091FD0A20E030E040E88D
:1047B0005AE30E94BFF19B01AC01C801B7010E94FE
:1047C000BFF12091DC0A3091DD0A4091DE0A509160
:1047D000DF0A0E94BFF12DEC3CEC4CEC5DE30E9443
:1047E000BFF17B018C016091410370914203809184
:1047F00043039091440326E636E646E65FE30E94D3
:10480000BFF19B01AC01C801B7010E94B6EE6093F5
:10481000410370934203809343039093440382E0E7
:104820000E94A2ECAA2797FDA095BA2FBC01CD014A
:104830000E9435F07B018C016091FA0A7091FB0AAD
:104840008091FC0A9091FD0A20E030E040E85AE3B4
:104850000E94BFF19B01AC01C801B7010E94BFF1EA
:104860002091DC0A3091DD0A4091DE0A5091DF0A86
:104870000E94BFF12DEC3CEC4CEC5DE30E94BFF1DB
:104880007B018C0160914503709146038091470341
:104890009091480326E636E646E65FE30E94BFF1C4
:1048A0009B01AC01C801B7010E94B6EE60934503BD
:1048B00070934603809347039093480383E00E94DC
:1048C000A2ECAA2797FDA095BA2FBC01CD010E94AA
:1048D00035F07B018C016091FA0A7091FB0A80919E
:1048E000FC0A9091FD0A20E030E040E85AE30E9483
:1048F000BFF19B01AC01C801B7010E94BFF120913B
:10490000DC0A3091DD0A4091DE0A5091DF0A0E94F4
:10491000BFF12DEC3CEC4CEC5DE30E94BFF17B0160
:104920008C016091490370914A0380914B039091EF
:104930004C0326E636E646E65FE30E94BFF19B01A4
:10494000AC01C801B7010E94B6EE7B018C01CB011E
:10495000D8018093490390934A03A0934B03B093EB
:104960004C032091D00A213049F480914503909165
:104970004603A0914703B091480304C0223059F484
:10498000C701D8018093310390933203A09333037E
:10499000B093340390C0233019F0243009F08BC059
:1049A00080913D0390913E03A0913F03B09140035D
:1049B0008093310390933203A0933303B093340375
:1049C000243009F078C081E00E94A2ECAA2797FD6C
:1049D000A095BA2FBC01CD010E9435F07B018C015E
:1049E0006091FA0A7091FB0A8091FC0A9091FD0A8D
:1049F00020E030E040E85AE30E94BFF19B01AC01A7
:104A0000C801B7010E94BFF12091EB0A3091EC0A76
:104A10004091ED0A5091EE0A0E94BFF12DEC3CEC62
:104A20004CEC5DE30E94BFF17B018C0160917C1234
:104A300070917D1280917E1290917F1226E636E66B
:104A400046E65FE30E94BFF19B01AC01C801B701DC
:104A50000E94B6EE7B018C0160937C1270937D12F4
:104A600080937E1290937F1260917B1270E080E0C1
:104A700090E00E9433F09B01AC01C801B7010E9495
:104A8000BFF127E830EC41E959E30E94BFF19B01F7
:104A9000AC0160918012709181128091821290918C
:104AA00083120E94B6EE60938012709381128093FD
:104AB0008212909383121F910F91FF90EF900895AF
:104AC000CF93DF938091D00A18160CF066C0843023
:104AD0000CF063C0C0E0D0E064E170E080E090E002
:104AE0000E9452ED0E946D232196C035D105A1F799
:104AF0008DB79EB744970FB6F8949EBF0FBE8DBF7B
:104B0000EDB7FEB7319684E195E0ADB7BEB712962A
:104B10009C938E93119788E699E09383828380918A
:104B20003D0390913E03A0913F03B09140038483E5
:104B30009583A683B7838091410390914203A0910E
:104B40004303B091440380879187A287B387809104
:104B5000450390914603A0914703B0914803848791
:104B60009587A687B7878091490390914A03A091C2
:104B70004B03B0914C03808B918BA28BB38B0E9423
:104B8000BED7EDB7FEB774960FB6F894FEBF0FBE52
:104B9000EDBF80E0DF91CF91089500D000D084E197
:104BA00095E0ADB7BEB712969C938E9311978BE5A7
:104BB00099E014969C938E9313970E94BED70F9002
:104BC0000F900F900F90E5CFA0E0B0E0EAEEF5E295
:104BD0000C9413F360914209662309F468C07727A7
:104BE00067FD7095872F972F0E9435F020914E0317
:104BF00030914F0340915003509151030E94BFF1F7
:104C000020E030E040E251E40E94BFF17B018C01E2
:104C100084E195E060E072E00E94EDEA6091300C82
:104C20007091310C84E195E04AE050E00E94BBEBCA
:104C300084E195E067E072E00E94EDEA84E195E0AE
:104C4000B801A70122E030E00E949FEC84E195E0EA
:104C500060E172E00E94EDEA6091520370915303AB
:104C600084E195E04AE050E00E9404ECC091300CF1
:104C7000D091310CC0905203D0905303C801B701BA
:104C80000E9402F09601261B370BC217D3073CF097
:104C90009B012C0D3D1DC217D3070CF49E013093D0
:104CA000310C2093300C3093530320935203CDB733
:104CB000DEB7E8E00C942FF3A0E1B0E0E2E6F6E224
:104CC0000C940BF31A8219821C821B821E821D8295
:104CD00018861F828BED9CE09A87898780E69DE08D
:104CE0009C878B8785EE9DE09E878D878AE69EE078
:104CF000988B8F8780913003882309F074C080914E
:104D00002A0A882369F480916A0B90916B0B909327
:104D1000730B8093720B8091C90B9091CA0B0EC0DC
:104D20008EE494E160E00E9467939093730B80930C
:104D3000720B8EE494E161E00E9467939093D20B32
:104D40008093D10B8091280C9091290C9093310C79
:104D50008093300C8091870C9091880C9093900CEC
:104D600080938F0CA0918116B09182161097B9F0A4
:104D7000E0919709FF27E7FDF0953197EE0FFF1FB0
:104D8000EC0FFD1F81819281A817B90741F01B9696
:104D90008D919C911C9754969C938E935397A091C0
:104DA0007F16B0918016109709F449C1E0919709D8
:104DB000FF27E7FDF0953197EE0FFF1FEC0FFD1F6A
:104DC00081819281A817B90729F01B968D919C913A
:104DD0001C9704C09D968D919C919E9754969C9390
:104DE0008E9353972CC180912A0A8823E9F48FE58A
:104DF0009BE00E9434E68EEB9BE00E9434E68CE759
:104E00009CE00E9434E6E0918116F0918216309782
:104E100009F4B8C080916E0B90916F0B908B8787CF
:104E2000CF010E9434E6AEC08091360A882321F477
:104E300061E0662E712C03C066246A94762C409043
:104E4000CD0B5090CE0B80906E0B90906F0B6091BD
:104E50003B0370913C038091420A882359F40F2E42
:104E6000F0E0AF2EF0E0BF2EF0E8CF2EFFE3DF2E14
:104E7000F02D0AC00F2EF0E0AF2EF0E0BF2EF0E8CC
:104E8000CF2EFFEBDF2EF02D80E090E00E9433F07C
:104E90007B018C01C20188199909689EB001699E45
:104EA000700D789E700D1124882777FD8095982FBE
:104EB0000E9435F020E030E04AEF53E40E94BFF159
:104EC00020E030EA4CE855E40E949AEF9B01AC01E7
:104ED000C601B5010E94BFF19B01AC01C801B70139
:104EE0000E94B6EE0E9402F07093730B6093720BF7
:104EF0006091390370913A0380914E0A882359F4E6
:104F00000F2EF0E0AF2EF0E0BF2EF0E8CF2EFFE343
:104F1000DF2EF02D0AC00F2EF0E0AF2EF0E0BF2EF6
:104F2000F0E8CF2EFFEBDF2EF02D80E090E00E9426
:104F300033F07B018C01840C951CB401882777FD2C
:104F40008095982F0E9435F020E030E04AEF53E43E
:104F50000E94BFF120E030EA4CE855E40E949AEF4D
:104F60009B01AC01C601B5010E94BFF19B01AC01E0
:104F7000C801B7010E94B6EE0E9402F07093D20BF6
:104F80006093D10B20912C0C30912D0C80912A092B
:104F9000992787FD9095281739074CF0809136099D
:104FA000992787FD9095281739070CF4C90190932C
:104FB0002D0C80932C0C40913003413011F0463081
:104FC000C0F120914A1330914B13809119139091A5
:104FD0001A13281B390B8CEF2931380754F1285E3E
:104FE00033403CF580912E0B882341F0809145138E
:104FF00090914613845F9140E4F40DC0E091561205
:10500000F0915712808D918DA28DB38D845F914068
:10501000A040B04074F44A3021F480914D038823BD
:1050200041F010922D0C10922C0C8DE19CE00E940E
:1050300034E68DE19CE00E9434E60E94E425009174
:105040007F16109180160115110509F468C0809132
:1050500030038630C8F4E0919709FF27E7FDF0950B
:105060003197EE0FFF1FEC0FFD1F81819281081712
:10507000190721F0F8018385948503C0F80185A5FF
:1050800096A5948B838B4BC0863089F46091561320
:1050900070915713809158139091591320E030E08C
:1050A00048EC52E40E949AEF0E9402F013C08091F3
:1050B0002E0B813049F48091740A9091750A64E650
:1050C00070E00E94B9F206C080916709682F7727C7
:1050D00067FD70958091460B992787FD90958617FF
:1050E000970724F4F801108A178613C080915E0B8D
:1050F000992787FD9095861797071CF480913A0BA6
:1051000002C08091520B992787FD9095F801908BF2
:10511000878780917F16909180160E9434E6409197
:10512000720B5091730B8EE494E160E00E9418932F
:105130004091D10B5091D20B8EE494E161E00E943A
:1051400018934091300C5091310C8EE494E162E060
:105150000E94189340918F0C5091900C8EE494E132
:1051600063E00E9418938BED9CE064E00E941AE4D7
:1051700080E69DE065E00E941AE485EE9DE066E031
:105180000E941AE48AE69EE067E00E941AE46096B4
:10519000E0E10C9427F3FF920F931F93CF93DF93DB
:1051A0000E946A1668EE73E080E090E00E9452ED83
:1051B00000D000D004E115E0ADB7BEB712961C9345
:1051C0000E9311978CE698E014969C938E93139708
:1051D0000E94BED70F900F900F900F90C80168E00B
:1051E00070E04AE050E00E9404ECCFE5D8E0F02EF9
:1051F000012F64E170E080E090E00E9452ED0E9497
:10520000DB18182F8091F9078117E9F000D000D042
:1052100000D0EDB7FEB73196ADB7BEB71196FC9290
:10522000119712960C93D383C283148315820E9424
:10523000BED71093F907EDB7FEB736960FB6F894C0
:10524000FEBF0FBEEDBF84E195E00E9449D818165D
:1052500019067CF680E0CDB7DEB7E5E00C9432F3BA
:10526000EF92FF920F931F937A018B018632D9F050
:1052700087322CF4893081F0833181F507C08F3675
:10528000F1F0833721F1893349F513C0E12C5BE458
:10529000F52E012D112D28C040E8E42E45E2F42E14
:1052A000012D112D21C0E12C36E9F32E012D112DF8
:1052B0001BC0E12C21EEF22E012D112D15C09CEF0B
:1052C000E92E91EBF92E91E0092F112D0DC0E12C63
:1052D00082ECF82E81E0082F112D06C084E195E0C4
:1052E00069EF7EE10E94E6D7B701C8011F910F91D7
:1052F000FF90EF900895A4E2B0E0E1E8F9E20C94A9
:1053000013F387E895E060E070E042E55DEE0E940F
:10531000D4D30E946A1668EE73E080E090E00E94A9
:1053200052ED79E8C72E77E0D72E64E1E62E65E0EE
:10533000F62E8E010F5F1F4F64E170E080E090E079
:105340000E9452ED0E941EED20915A1330915B1382
:1053500040915C1350915D13621B730B840B950B92
:10536000643171058105910508F481C00E941EED2C
:1053700020915A13621B60935E1370E080E090E00E
:105380000E9433F020E030E04AE754E40E949AEFB4
:1053900060934E0370934F03809350039093510397
:1053A0000E941EED60935A1370935B1380935C13FD
:1053B00090935D1387ED95E00E94F0C38091B70A4A
:1053C0008823D1F080915F138F5F80935F138530C6
:1053D00099F48FE991E10E94B4A3D801E8E0F6E0E6
:1053E00084E201900D928150E1F78FE991E1B801DB
:1053F0000E948FB010925F138DB79EB70A970FB6B9
:10540000F8949EBF0FBE8DBFEDB7FEB73196ADB716
:10541000BEB71296FC92EE921197D382C28280910F
:10542000D7059091D80564E670E00E94B9F27583C3
:1054300064838091DB059091DC0564E670E00E9456
:10544000B9F2778366838091DF059091E00564E689
:1054500070E00E94A5F2718760870E94BED78DB769
:105460009EB70A960FB6F8949EBF0FBE8DBF84E11B
:1054700095E00E9449D8181619060CF05DCF80E01F
:10548000A496E8E00C942FF3EF92FF920F931F93F2
:10549000CF93DF93EAECEE2EE6E0FE2EC0E0D0E004
:1054A00004E115E000D000D0EDB7FEB71283018310
:1054B000F482E3820E94BED721960F900F900F9046
:1054C0000F90C832D10571F7C80169E172E00E94FE
:1054D000F9EBCDB7DEB7E6E00C9431F3CF93DF9371
:1054E000EC0107C0219784E195E069E172E00E9438
:1054F000F9EB1C161D06B4F3DF91CF910895EF92DE
:10550000FF920F931F93CF93DF9300D000D0C4E19D
:10551000D5E0ADB7BEB71296DC93CE93119780EC71
:1055200096E014969C938E9313970E94BED70F908B
:105530000F900F900F908091A1119091A211823045
:10554000910551F08330910519F0019769F408C075
:10555000CE0167EB76E00BC0CE016FEA76E007C0C4
:10556000CE016BEA76E003C0CE0168EA76E00E94E5
:10557000E6D70E94442A90E08091B70A811191E019
:10558000892F0E947D168FE991E10E9479A8CDB7FD
:10559000DEB728970FB6F894DEBF0FBECDBF0DB7AC
:1055A0001EB70F5F1F4FF4E1EF2EF5E0FF2EFA82DA
:1055B000E98220E936E0F8013383228321EE3EE2DE
:1055C00045E652E40E94BFF1D80114966D937D9395
:1055D0008D939C9317970E94BED7CDB7DEB72896C0
:1055E0000FB6F894DEBF0FBECDBF8FE991E10E94E8
:1055F00074A89C01EDB7FEB770970FB6F894FEBF84
:105600000FBEEDBF3196ADB7BEB71296FC92EE92CB
:1056100011978EE696E093838283E90188819981D0
:10562000AA81BB8184839583A683B7838C819D8166
:10563000AE81BF8180879187A287B387888599854E
:10564000AA85BB8584879587A687B7870E94BED722
:10565000EDB7FEB770960FB6F894FEBF0FBEEDBF64
:1056600082E090E00E946E2ACDB7DEB7E6E00C94AF
:1056700031F3ACE6B0E0EFE3FBE20C9409F3809188
:10568000B70A8823B1F400D000D084E195E0EDB7EB
:10569000FEB79283818386E596E0948383830E949C
:1056A000BED70F900F900F900F9080E00E947D1654
:1056B00069C180E090E0A0E8BFE389839A83AB836F
:1056C000BC8380E090E0A0E0B0E08D839E83AF8358
:1056D000B88789879A87AB87BC878D879E87AF8776
:1056E000B88B20E030E040E85FEB298B3A8B4B8BA6
:1056F0005C8B8D8B9E8BAF8BB88F898F9A8FAB8F86
:10570000BC8F8D8F9E8FAF8FB8A329A33AA34BA3D5
:105710005CA38FE991E1BE016F5F7F4F0E9480A380
:105720008FE991E10E94D8A5882339F484E195E0BE
:1057300067E376E00E94E6D725C187ED95E06FE943
:1057400071E10E9451B40E947F2A87E895E060E0F1
:1057500070E042E55DEE0E94D4D30E946A1600E03C
:1057600010E0A9E42A2E312C2C0E3D1E64E170E0DD
:1057700080E090E00E9452ED0E941EED20915A13AD
:1057800030915B1340915C1350915D13621B730B5E
:10579000840B950B643171058105910508F4E0C017
:1057A0000E941EED20915A13621B60935E1370E0FD
:1057B00080E090E00E9433F020E030E04AE754E4DB
:1057C0000E949AEF60934E0370934F0380935003AF
:1057D000909351030E941EED60935A1370935B13D4
:1057E00080935C1390935D1387ED95E00E94F0C366
:1057F00080915F138F5F80935F13853019F58FE978
:1058000091E10E94B4A3DE019596E8E0F6E084E21F
:1058100001900D928150E1F78FE991E1BE016B5D3E
:105820007F4F0E948FB0D101E8E0F6E084E2019062
:105830000D928150E1F78FE991E1B1010E9419AA1F
:1058400010925F130F5F1F4F053111050CF488C0D4
:105850008FE991E10E9474A8FC0140845184628424
:10586000738484809580A680B780C080D180E280D8
:10587000F3806091A9117091AA118091AB11909160
:10588000AC1121EE3EE245E652E40E94BFF120E079
:1058900030E048EC52E40E94BFF10E9402F0613A0D
:1058A000FCE87F07F0E08F07F0E09F072CF0605ADC
:1058B0007C488040904006C097FF04C06056734704
:1058C0008F4F9F4F2DB73EB72A5130400FB6F894F7
:1058D0003EBF0FBE2DBF0DB71EB70F5F1F4F24E198
:1058E00035E0EDB7FEB7328321832BEF35E0F801C9
:1058F0003383228324E630E040E050E00E94EEF261
:10590000F80124833583468357838091A3119091B6
:10591000A411918780878091A5119091A6119387FA
:1059200082878091A7119091A81195878487C68658
:10593000D786E08AF18A828A938AA48AB58A468ABF
:10594000578A608E718E0E94BED700E010E02DB79E
:105950003EB7265E3F4F0FB6F8943EBF0FBE2DBF39
:1059600084E195E00E9449D8181619060CF0FECE85
:1059700084E195E06CEE75E00E94E6D78FE991E155
:105980000E9420B380E0C459DF4FE2E10C9425F37C
:1059900000D000D084E195E0EDB7FEB7928381831B
:1059A0008CEB9CE0948383830E94BED70F900F9072
:1059B0000F900F900E94442A0E94BB1682E090E054
:1059C0000E946E2A0895CF93DF9300D000D0C4E1E7
:1059D000D5E0EDB7FEB7D283C1838BEC9DE0948315
:1059E00083830E94BED70F900F900F900F900E945C
:1059F000442A8091D00A882381F400D000D0EDB7EA
:105A0000FEB7D283C18382EB9DE0948383830E949F
:105A1000BED70F900F900F900F908091D00A8130D9
:105A200091F400D000D084E195E0EDB7FEB7928309
:105A3000818380EA9DE0948383830E94BED70F9088
:105A40000F900F900F908091D00A823091F400D087
:105A500000D084E195E0EDB7FEB7928381838EE8B4
:105A60009DE0948383830E94BED70F900F900F9088
:105A70000F908091D00A833091F400D000D084E15F
:105A800095E0EDB7FEB79283818388E79DE094832C
:105A900083830E94BED70F900F900F900F9080913C
:105AA000D00A843091F400D000D084E195E0EDB7C5
:105AB000FEB7928381838BE59DE0948383830E946C
:105AC000BED70F900F900F900F9082E090E00E9451
:105AD0006E2ADF91CF9108950F931F9300D000D0CD
